{
  "contractName": "Account",
  "abi": [
    {
      "inputs": [
        {
          "internalType": "address",
          "name": "_admin",
          "type": "address"
        }
      ],
      "stateMutability": "nonpayable",
      "type": "constructor"
    },
    {
      "anonymous": false,
      "inputs": [
        {
          "indexed": true,
          "internalType": "address",
          "name": "targetAddress",
          "type": "address"
        },
        {
          "indexed": false,
          "internalType": "uint256",
          "name": "value",
          "type": "uint256"
        },
        {
          "indexed": false,
          "internalType": "bytes",
          "name": "data",
          "type": "bytes"
        }
      ],
      "name": "Invoked",
      "type": "event"
    },
    {
      "anonymous": false,
      "inputs": [
        {
          "indexed": true,
          "internalType": "address",
          "name": "previousOwner",
          "type": "address"
        },
        {
          "indexed": true,
          "internalType": "address",
          "name": "newOwner",
          "type": "address"
        }
      ],
      "name": "OwnershipTransferStarted",
      "type": "event"
    },
    {
      "anonymous": false,
      "inputs": [
        {
          "indexed": true,
          "internalType": "address",
          "name": "previousOwner",
          "type": "address"
        },
        {
          "indexed": true,
          "internalType": "address",
          "name": "newOwner",
          "type": "address"
        }
      ],
      "name": "OwnershipTransferred",
      "type": "event"
    },
    {
      "inputs": [],
      "name": "acceptOwnership",
      "outputs": [],
      "stateMutability": "nonpayable",
      "type": "function"
    },
    {
      "inputs": [],
      "name": "controller",
      "outputs": [
        {
          "internalType": "address",
          "name": "",
          "type": "address"
        }
      ],
      "stateMutability": "view",
      "type": "function"
    },
    {
      "inputs": [],
      "name": "owner",
      "outputs": [
        {
          "internalType": "address",
          "name": "",
          "type": "address"
        }
      ],
      "stateMutability": "view",
      "type": "function"
    },
    {
      "inputs": [],
      "name": "pendingOwner",
      "outputs": [
        {
          "internalType": "address",
          "name": "",
          "type": "address"
        }
      ],
      "stateMutability": "view",
      "type": "function"
    },
    {
      "inputs": [],
      "name": "renounceOwnership",
      "outputs": [],
      "stateMutability": "nonpayable",
      "type": "function"
    },
    {
      "inputs": [
        {
          "internalType": "address",
          "name": "newOwner",
          "type": "address"
        }
      ],
      "name": "transferOwnership",
      "outputs": [],
      "stateMutability": "nonpayable",
      "type": "function"
    },
    {
      "stateMutability": "payable",
      "type": "receive"
    },
    {
      "inputs": [
        {
          "internalType": "address",
          "name": "target",
          "type": "address"
        },
        {
          "internalType": "uint256",
          "name": "value",
          "type": "uint256"
        },
        {
          "internalType": "bytes",
          "name": "data",
          "type": "bytes"
        }
      ],
      "name": "invoke",
      "outputs": [
        {
          "internalType": "bytes",
          "name": "result",
          "type": "bytes"
        }
      ],
      "stateMutability": "nonpayable",
      "type": "function"
    }
  ],
  "bytecode": "0x60a0806040523461015c5780610776803803809161001d8285610160565b833960209283918101031261015c57516001600160a01b0391908281169081900361015c57600180546001600160a01b03199081169091555f80549182163390811782556040519193919286167f8be0079c531659141344cd1fd0a4f28419497f9722a3daafe3b4186f6b6457e08580a31561012a575060405163f77c479160e01b81528281600481305afa92831561011f5782936100dd575b505050166080526040516105de9081610198823960805181818161038a01526105150152f35b9080929350813d8311610118575b6100f58183610160565b81010312610114575190828216820361011157505f80806100b7565b80fd5b5080fd5b503d6100eb565b6040513d84823e3d90fd5b62461bcd60e51b815260048101839052600d60248201526c34b73b30b634b21030b236b4b760991b6044820152606490fd5b5f80fd5b601f909101601f19168101906001600160401b0382119082101761018357604052565b634e487b7160e01b5f52604160045260245ffdfe6080604052600436101561001a575b3615610018575f80fd5b005b5f803560e01c908163715018a61461008c5750806379ba5097146100875780638da5cb5b146100825780638f6f03321461007d578063e30c397814610078578063f2fde38b146100735763f77c47910361000e57610375565b61030f565b6102e7565b61025b565b610173565b6100b2565b346100af57806003193601126100af576100a46103b9565b6100ac610410565b80f35b80fd5b3461016f575f806003193601126100af576001546001600160a01b033381831603610118576001600160a01b031991821660015582543392811683178455167f8be0079c531659141344cd1fd0a4f28419497f9722a3daafe3b4186f6b6457e08380a380f35b60405162461bcd60e51b815260206004820152602960248201527f4f776e61626c6532537465703a2063616c6c6572206973206e6f7420746865206044820152683732bb9037bbb732b960b91b6064820152608490fd5b5f80fd5b3461016f575f36600319011261016f575f546040516001600160a01b039091168152602090f35b600435906001600160a01b038216820361016f57565b634e487b7160e01b5f52604160045260245ffd5b6040519190601f01601f191682016001600160401b038111838210176101e957604052565b6101b0565b6001600160401b0381116101e957601f01601f191660200190565b91908251928382525f5b848110610233575050825f602080949584010152601f8019910116010190565b602081830181015184830182015201610213565b906020610258928181520190610209565b90565b3461016f57606036600319011261016f5761027461019a565b6044356001600160401b03811161016f573660238201121561016f578060040135916102a76102a2846101ee565b6101c4565b90838252366024858501011161016f575f6020856102e39660246102d7970183870137840101526024359061045b565b60405191829182610247565b0390f35b3461016f575f36600319011261016f576001546040516001600160a01b039091168152602090f35b3461016f57602036600319011261016f5761032861019a565b6103306103b9565b60018060a01b03809116908160018060a01b031960015416176001555f54167f38d16b8cac22d99fc7c124b9cd0de2d3fa1faef420bfe791d8c362d765e227005f80a3005b3461016f575f36600319011261016f576040517f00000000000000000000000000000000000000000000000000000000000000006001600160a01b03168152602090f35b5f546001600160a01b031633036103cc57565b606460405162461bcd60e51b815260206004820152602060248201527f4f776e61626c653a2063616c6c6572206973206e6f7420746865206f776e65726044820152fd5b600180546001600160a01b03199081169091555f80549182168155906001600160a01b03167f8be0079c531659141344cd1fd0a4f28419497f9722a3daafe3b4186f6b6457e08280a3565b5f805490936001600160a01b0392918316330361053e5783158015610511575b156104df57848082516020840187865af19461049561056c565b95156104d75750906104d17f8e084f4a28a6752a4c84a569571c55c88b5e8a28400d520311a3b501fc5e4c359392604051938493169583610591565b0390a290565b3d81803e3d90fd5b60405162461bcd60e51b815260206004820152600a6024820152691b9bdd081c195c9b5a5d60b21b6044820152606490fd5b50827f0000000000000000000000000000000000000000000000000000000000000000168383161461047b565b60405162461bcd60e51b81526020600482015260066024820152650eadcc2eae8d60d31b6044820152606490fd5b3d1561058c573d906105806102a2836101ee565b9182523d5f602084013e565b606090565b60409061025893928152816020820152019061020956fea26469706673582212209feab691b2b00c3d848291d31d864e75cd2e7b00b78d251e8ab34ce017f45c7364736f6c63430008150033",
  "immutableReferences": {
    "24682": [
      {
        "length": 32,
        "start": 906
      },
      {
        "length": 32,
        "start": 1301
      }
    ]
  },
  "source": "// SPDX-License-Identifier: MIT\npragma solidity 0.8.21;\n\nimport {EigenStrategy} from \"../EigenStrategy.sol\";\n\nimport {Ownable2Step} from \"@openzeppelin/contracts/access/Ownable2Step.sol\";\n\ncontract Account is Ownable2Step {\n    /**\n     * @dev A transaction is invoked on the Account.\n     */\n    event Invoked(address indexed targetAddress, uint256 value, bytes data);\n\n    address public immutable controller;\n\n    constructor(address _admin) {\n        require(_admin != address(0), \"invalid admin\");\n\n        controller = EigenStrategy(address(this)).controller();\n    }\n\n    modifier onlyAuth() {\n        require(msg.sender == owner(), \"unauth\");\n        _;\n    }\n\n    /**\n     * @dev Allows Account contract to receive ETH.\n     */\n    receive() external payable {}\n\n    function invoke(\n        address target,\n        uint256 value,\n        bytes memory data\n    ) public onlyAuth returns (bytes memory result) {\n        require(value == 0 || target == controller, \"not permit\");\n\n        bool success;\n        (success, result) = target.call{value: value}(data);\n        if (!success) {\n            // solhint-disable-next-line no-inline-assembly\n            assembly {\n                returndatacopy(0, 0, returndatasize())\n                revert(0, returndatasize())\n            }\n        }\n        emit Invoked(target, value, data);\n    }\n}\n",
  "sourcePath": "/Users/mingyuzhang/Downloads/stone-vault-v1/contracts/strategies/eigen/Account.sol",
  "compiler": {
    "name": "solc",
    "version": "0.8.21+commit.d9974bed.Emscripten.clang"
  },
  "schemaVersion": "3.4.16",
  "updatedAt": "2024-06-07T05:41:32.647Z",
  "devdoc": {
    "events": {
      "Invoked(address,uint256,bytes)": {
        "details": "A transaction is invoked on the Account."
      }
    },
    "kind": "dev",
    "methods": {
      "acceptOwnership()": {
        "details": "The new owner accepts the ownership transfer."
      },
      "owner()": {
        "details": "Returns the address of the current owner."
      },
      "pendingOwner()": {
        "details": "Returns the address of the pending owner."
      },
      "renounceOwnership()": {
        "details": "Leaves the contract without owner. It will not be possible to call `onlyOwner` functions. Can only be called by the current owner. NOTE: Renouncing ownership will leave the contract without an owner, thereby disabling any functionality that is only available to the owner."
      },
      "transferOwnership(address)": {
        "details": "Starts the ownership transfer of the contract to a new account. Replaces the pending transfer if there is one. Can only be called by the current owner."
      }
    },
    "version": 1
  },
  "userdoc": {
    "kind": "user",
    "methods": {},
    "version": 1
  }
}