{
  "contractName": "AssetsVault",
  "abi": [
    {
      "inputs": [
        {
          "internalType": "address",
          "name": "_stoneVault",
          "type": "address"
        },
        {
          "internalType": "address",
          "name": "_strategyController",
          "type": "address"
        }
      ],
      "stateMutability": "nonpayable",
      "type": "constructor"
    },
    {
      "inputs": [],
      "name": "stoneVault",
      "outputs": [
        {
          "internalType": "address",
          "name": "",
          "type": "address"
        }
      ],
      "stateMutability": "view",
      "type": "function"
    },
    {
      "inputs": [],
      "name": "strategyController",
      "outputs": [
        {
          "internalType": "address",
          "name": "",
          "type": "address"
        }
      ],
      "stateMutability": "view",
      "type": "function"
    },
    {
      "stateMutability": "payable",
      "type": "receive"
    },
    {
      "inputs": [],
      "name": "deposit",
      "outputs": [],
      "stateMutability": "payable",
      "type": "function"
    },
    {
      "inputs": [
        {
          "internalType": "address",
          "name": "_to",
          "type": "address"
        },
        {
          "internalType": "uint256",
          "name": "_amount",
          "type": "uint256"
        }
      ],
      "name": "withdraw",
      "outputs": [],
      "stateMutability": "nonpayable",
      "type": "function"
    },
    {
      "inputs": [
        {
          "internalType": "address",
          "name": "_vault",
          "type": "address"
        }
      ],
      "name": "setNewVault",
      "outputs": [],
      "stateMutability": "nonpayable",
      "type": "function"
    },
    {
      "inputs": [],
      "name": "getBalance",
      "outputs": [
        {
          "internalType": "uint256",
          "name": "amount",
          "type": "uint256"
        }
      ],
      "stateMutability": "view",
      "type": "function"
    }
  ],
  "bytecode": "0x6080346100d557601f61041438819003918201601f19168301916001600160401b038311848410176100d95780849260409485528339810103126100d557610052602061004b836100ed565b92016100ed565b6001600160a01b039182169190821515806100ca575b156100965760018060a01b031992835f5416175f551690600154161760015560405161031290816101028239f35b60405162461bcd60e51b815260206004820152600c60248201526b5a45524f204144445245535360a01b6044820152606490fd5b508181161515610068565b5f80fd5b634e487b7160e01b5f52604160045260245ffd5b51906001600160a01b03821682036100d55756fe6080604081815260049081361015610021575b505050361561001f575f80fd5b005b5f92833560e01c908162258d6b146102645750806312065fe014610249578063ba93ec291461021d578063d0e30db0146101d8578063e7b77f70146101795763f3fef3a3036100125734610175578060031936011261017557610082610289565b83546100a390336001600160a01b0391821614908115610167575b506102a3565b815167ffffffffffffffff9190602081018381118282101761013b578680938180948194895252602435905af1903d15610161573d81811161014e57835191601f8201601f19908116603f011683019081118382101761013b57845281528460203d92013e5b15610112578280f35b906020606492519162461bcd60e51b8352820152600360248201526253544560e81b6044820152fd5b634e487b7160e01b875260418652602487fd5b634e487b7160e01b865260418552602486fd5b50610109565b60015416331490505f61009d565b8280fd5b83346101d55760203660031901126101d557610193610289565b8154906001600160a01b0390818316331480156101c8575b6101b4906102a3565b6001600160a01b0319909216911617815580f35b50600154821633146101ab565b80fd5b50826003193601126101755734156101ee578280f35b906020606492519162461bcd60e51b835282015260096024820152681d1bdbc81cdb585b1b60ba1b6044820152fd5b838234610245578160031936011261024557905490516001600160a01b039091168152602090f35b5080fd5b83823461024557816003193601126102455751478152602090f35b8490346102455781600319360112610245576001546001600160a01b03168152602090f35b600435906001600160a01b038216820361029f57565b5f80fd5b156102aa57565b60405162461bcd60e51b815260206004820152600a6024820152691b9bdd081c195c9b5a5d60b21b6044820152606490fdfea2646970667358221220c69ddb456e7309160dd25226a4b2af8f608c6d7e6322547c06fb01521234497564736f6c63430008150033",
  "immutableReferences": {},
  "source": "// SPDX-License-Identifier: MIT\npragma solidity 0.8.21;\n\nimport {TransferHelper} from \"@uniswap/v3-periphery/contracts/libraries/TransferHelper.sol\";\n\ncontract AssetsVault {\n    address public stoneVault;\n    address public strategyController;\n\n    modifier onlyPermit() {\n        require(\n            stoneVault == msg.sender || strategyController == msg.sender,\n            \"not permit\"\n        );\n        _;\n    }\n\n    constructor(address _stoneVault, address _strategyController) {\n        require(\n            _stoneVault != address(0) && _strategyController != address(0),\n            \"ZERO ADDRESS\"\n        );\n        stoneVault = _stoneVault;\n        strategyController = _strategyController;\n    }\n\n    function deposit() external payable {\n        require(msg.value != 0, \"too small\");\n    }\n\n    function withdraw(address _to, uint256 _amount) external onlyPermit {\n        TransferHelper.safeTransferETH(_to, _amount);\n    }\n\n    function setNewVault(address _vault) external onlyPermit {\n        stoneVault = _vault;\n    }\n\n    function getBalance() external view returns (uint256 amount) {\n        amount = address(this).balance;\n    }\n\n    receive() external payable {}\n}\n",
  "sourcePath": "/Users/mingyuzhang/Downloads/stone-vault-v1/contracts/AssetsVault.sol",
  "compiler": {
    "name": "solc",
    "version": "0.8.21+commit.d9974bed.Emscripten.clang"
  },
  "schemaVersion": "3.4.16",
  "updatedAt": "2024-06-09T14:06:08.010Z",
  "devdoc": {
    "kind": "dev",
    "methods": {},
    "version": 1
  },
  "userdoc": {
    "kind": "user",
    "methods": {},
    "version": 1
  }
}