{
  "contractName": "BalancerLPAuraStrategy",
  "abi": [
    {
      "inputs": [
        {
          "internalType": "address payable",
          "name": "_controller",
          "type": "address"
        },
        {
          "internalType": "address payable",
          "name": "_swap",
          "type": "address"
        },
        {
          "internalType": "string",
          "name": "_name",
          "type": "string"
        }
      ],
      "stateMutability": "nonpayable",
      "type": "constructor"
    },
    {
      "anonymous": false,
      "inputs": [
        {
          "indexed": false,
          "internalType": "address",
          "name": "oldOwner",
          "type": "address"
        },
        {
          "indexed": false,
          "internalType": "address",
          "name": "newOwner",
          "type": "address"
        }
      ],
      "name": "TransferGovernance",
      "type": "event"
    },
    {
      "inputs": [],
      "name": "AURA_REWARD_POOL",
      "outputs": [
        {
          "internalType": "address",
          "name": "",
          "type": "address"
        }
      ],
      "stateMutability": "view",
      "type": "function"
    },
    {
      "inputs": [],
      "name": "AURA_TOKEN",
      "outputs": [
        {
          "internalType": "address",
          "name": "",
          "type": "address"
        }
      ],
      "stateMutability": "view",
      "type": "function"
    },
    {
      "inputs": [],
      "name": "BAL_TOKEN",
      "outputs": [
        {
          "internalType": "address",
          "name": "",
          "type": "address"
        }
      ],
      "stateMutability": "view",
      "type": "function"
    },
    {
      "inputs": [],
      "name": "BOOSTER",
      "outputs": [
        {
          "internalType": "address",
          "name": "",
          "type": "address"
        }
      ],
      "stateMutability": "view",
      "type": "function"
    },
    {
      "inputs": [],
      "name": "LP_TOKEN",
      "outputs": [
        {
          "internalType": "address",
          "name": "",
          "type": "address"
        }
      ],
      "stateMutability": "view",
      "type": "function"
    },
    {
      "inputs": [],
      "name": "STETH",
      "outputs": [
        {
          "internalType": "address",
          "name": "",
          "type": "address"
        }
      ],
      "stateMutability": "view",
      "type": "function"
    },
    {
      "inputs": [],
      "name": "SWAPPING",
      "outputs": [
        {
          "internalType": "address payable",
          "name": "",
          "type": "address"
        }
      ],
      "stateMutability": "view",
      "type": "function"
    },
    {
      "inputs": [],
      "name": "VAULT",
      "outputs": [
        {
          "internalType": "address",
          "name": "",
          "type": "address"
        }
      ],
      "stateMutability": "view",
      "type": "function"
    },
    {
      "inputs": [],
      "name": "WSTETH",
      "outputs": [
        {
          "internalType": "address",
          "name": "",
          "type": "address"
        }
      ],
      "stateMutability": "view",
      "type": "function"
    },
    {
      "inputs": [],
      "name": "bufferTime",
      "outputs": [
        {
          "internalType": "uint256",
          "name": "",
          "type": "uint256"
        }
      ],
      "stateMutability": "view",
      "type": "function"
    },
    {
      "inputs": [],
      "name": "controller",
      "outputs": [
        {
          "internalType": "address payable",
          "name": "",
          "type": "address"
        }
      ],
      "stateMutability": "view",
      "type": "function"
    },
    {
      "inputs": [
        {
          "internalType": "uint256",
          "name": "_amount",
          "type": "uint256"
        }
      ],
      "name": "execPendingRequest",
      "outputs": [
        {
          "internalType": "uint256",
          "name": "amount",
          "type": "uint256"
        }
      ],
      "stateMutability": "nonpayable",
      "type": "function"
    },
    {
      "inputs": [],
      "name": "governance",
      "outputs": [
        {
          "internalType": "address",
          "name": "",
          "type": "address"
        }
      ],
      "stateMutability": "view",
      "type": "function"
    },
    {
      "inputs": [],
      "name": "latestUpdateTime",
      "outputs": [
        {
          "internalType": "uint256",
          "name": "",
          "type": "uint256"
        }
      ],
      "stateMutability": "view",
      "type": "function"
    },
    {
      "inputs": [],
      "name": "lpPriceByWstETH",
      "outputs": [
        {
          "internalType": "uint256",
          "name": "",
          "type": "uint256"
        }
      ],
      "stateMutability": "view",
      "type": "function"
    },
    {
      "inputs": [],
      "name": "name",
      "outputs": [
        {
          "internalType": "string",
          "name": "",
          "type": "string"
        }
      ],
      "stateMutability": "view",
      "type": "function"
    },
    {
      "inputs": [
        {
          "internalType": "uint256",
          "name": "_time",
          "type": "uint256"
        }
      ],
      "name": "setBufferTime",
      "outputs": [],
      "stateMutability": "nonpayable",
      "type": "function"
    },
    {
      "inputs": [
        {
          "internalType": "address",
          "name": "governance_",
          "type": "address"
        }
      ],
      "name": "setGovernance",
      "outputs": [],
      "stateMutability": "nonpayable",
      "type": "function"
    },
    {
      "stateMutability": "payable",
      "type": "receive"
    },
    {
      "inputs": [],
      "name": "deposit",
      "outputs": [],
      "stateMutability": "payable",
      "type": "function"
    },
    {
      "inputs": [
        {
          "internalType": "uint256",
          "name": "_amount",
          "type": "uint256"
        }
      ],
      "name": "withdraw",
      "outputs": [
        {
          "internalType": "uint256",
          "name": "actualAmount",
          "type": "uint256"
        }
      ],
      "stateMutability": "nonpayable",
      "type": "function"
    },
    {
      "inputs": [
        {
          "internalType": "uint256",
          "name": "_amount",
          "type": "uint256"
        }
      ],
      "name": "instantWithdraw",
      "outputs": [
        {
          "internalType": "uint256",
          "name": "actualAmount",
          "type": "uint256"
        }
      ],
      "stateMutability": "nonpayable",
      "type": "function"
    },
    {
      "inputs": [],
      "name": "clear",
      "outputs": [
        {
          "internalType": "uint256",
          "name": "amount",
          "type": "uint256"
        }
      ],
      "stateMutability": "nonpayable",
      "type": "function"
    },
    {
      "inputs": [],
      "name": "getAllValue",
      "outputs": [
        {
          "internalType": "uint256",
          "name": "value",
          "type": "uint256"
        }
      ],
      "stateMutability": "nonpayable",
      "type": "function"
    },
    {
      "inputs": [],
      "name": "getInvestedValue",
      "outputs": [
        {
          "internalType": "uint256",
          "name": "value",
          "type": "uint256"
        }
      ],
      "stateMutability": "nonpayable",
      "type": "function"
    },
    {
      "inputs": [],
      "name": "getPendingValue",
      "outputs": [
        {
          "internalType": "uint256",
          "name": "value",
          "type": "uint256"
        }
      ],
      "stateMutability": "nonpayable",
      "type": "function"
    },
    {
      "inputs": [],
      "name": "checkPendingStatus",
      "outputs": [
        {
          "internalType": "uint256",
          "name": "pending",
          "type": "uint256"
        },
        {
          "internalType": "uint256",
          "name": "executable",
          "type": "uint256"
        }
      ],
      "stateMutability": "nonpayable",
      "type": "function"
    },
    {
      "inputs": [],
      "name": "getOnchainLpPrice",
      "outputs": [
        {
          "internalType": "uint256",
          "name": "",
          "type": "uint256"
        }
      ],
      "stateMutability": "view",
      "type": "function"
    },
    {
      "inputs": [
        {
          "internalType": "uint256",
          "name": "_price",
          "type": "uint256"
        }
      ],
      "name": "setLpPrice",
      "outputs": [],
      "stateMutability": "nonpayable",
      "type": "function"
    },
    {
      "inputs": [
        {
          "internalType": "uint256",
          "name": "_slippage",
          "type": "uint256"
        }
      ],
      "name": "setSlippage",
      "outputs": [],
      "stateMutability": "nonpayable",
      "type": "function"
    }
  ],
  "bytecode": "0x61024060405234620004e8576200279b803803806200001e81620004ec565b9283398101606082820312620004e857620000398262000512565b9060206200004981850162000512565b604085015190946001600160401b039190828211620004e8570191601f848185011215620004e8578351838111620004bf57601f19946200009082840187168501620004ec565b96828852848383010111620004e85783905f5b838110620004d35750505f9187010152600c6002556001600160a01b0395620000d0818816151562000527565b5f80546001600160a01b031916331790556080528451928311620004bf576003948554926001938481811c91168015620004b4575b82821014620004a05783811162000458575b5080928511600114620003f45750839450908392915f94620003e8575b50501b915f1990841b1c19161790555b670de0b6b3a764000060a052620f424060c052620f3a706004557f42ed016f826165c2e5976fe5bc3df540c5ad0af700000000000000000000058b60e05261010091608b83526101209173ae7ab96520de3a18e5e111b5eaab095312d7fe848352610140737f39c581f595b53c5cb19bd0b3f8da6c935e2ca0815261016073ba12222222228d8ba445958a75a0704d566bf2c881526101807342ed016f826165c2e5976fe5bc3df540c5ad0af781526101a09073a57b8d98dae62b26ec3bcc4a365338157060b23482526101c09273032b676d5d55e8ecbae88ebee0aa10fb5f72f6cb84526101e09473ba100000625a3754423978a60c9317c58a424e3d8652620002796102009773c0c293ce456ff0ed870add98a0828dd4d2903dbf8952670df2c541915a178e6005558916151562000527565b610220978852604051986122379a8b620005648c396080518b818161018501528181610742015281816108c501528181610e5b01526113bf015260a0518b610252015260c0518b818161022b01526121a0015260e0518b81816104d30152818161096901526111cb0152518a610ab40152518981816107b30152610f9f0152518881816101da01528181610814015281816108fb01528181610f4b015281816111f801526114140152518781816104a2015281816109ee0152818161119a01528181611372015261165d0152518681816102e90152818161099701528181610c1401528181610eef015281816114cd0152612116015251858181610a7b0152610d6601525184818161029401528181610dcb01528181610ea60152818161147801526120750152518381816118400152611dae01525182818161087a0152611df30152518181816103cc01528181610d070152818161103d015281816115a501528181611e580152611f550152f35b015192505f8062000134565b929484908116875f52845f20945f905b888383106200043d575050501062000425575b505050811b01905562000144565b01515f1983861b60f8161c191690555f808062000417565b85870151885590960195948501948793509081019062000404565b875f52815f208480880160051c82019284891062000496575b0160051c019085905b8281106200048a57505062000117565b5f81550185906200047a565b9250819262000471565b634e487b7160e01b5f52602260045260245ffd5b90607f169062000105565b634e487b7160e01b5f52604160045260245ffd5b818101830151898201840152859201620000a3565b5f80fd5b6040519190601f01601f191682016001600160401b03811183821017620004bf57604052565b51906001600160a01b0382168203620004e857565b156200052f57565b60405162461bcd60e51b815260206004820152600c60248201526b5a45524f204144445245535360a01b6044820152606490fdfe608060409080825260049182361015610022575b5050503615610020575f80fd5b005b5f91823560e01c9081621a5597146119995750806306fdde031461189d5780631aac030c1461186f5780632abc2a991461182c5780632e1a7d4d146113a1578063411557d11461135e57806352efea6e14610e3f5780635aa6e67514610e185780635db0e17114610dfa57806365882a7914610db75780636c23ab4c14610d3657806375421af314610d9557806375b0ffd114610d525780637654f7ab14610d365780638abd97fb14610cf3578063924f4f6e14610cd8578063ab033ea914610c61578063ba7b670314610c43578063bfd9041b14610c00578063c8106e4614610bd2578063d0e30db0146108a9578063d1e1a86714610866578063d83e3f7c14610843578063d9fb643a14610800578063dd07d288146107e2578063e00bfe501461079f578063f0fa55a914610771578063f77c47911461072e5763fd92bff2036100135734610437576020928360031936011261072a576001600160a01b037f000000000000000000000000000000000000000000000000000000000000000081169390918035916101b7338714611a25565b80916101c4841515611a62565b855162b0e38960e81b81528082018590526024957f0000000000000000000000000000000000000000000000000000000000000000811692918a818981875afa9081156104875785916106fb575b5061027761025061022961027f9360055490612029565b7f000000000000000000000000000000000000000000000000000000000000000090612029565b7f00000000000000000000000000000000000000000000000000000000000000009061203c565b83549061203c565b88516370a0823160e01b8082523085830152917f00000000000000000000000000000000000000000000000000000000000000008416918d818c81865afa9081156105ed578e928c928e928b916106c6575b50811015610658575b89816105f7575b5050505050507f0000000000000000000000000000000000000000000000000000000000000000828116908a5183815230868201528d818c81865afa9081156105ed57918c93918f9387898f8d9384956105ac575b508c85610491575b5050505050505050505190815230838201528a818981875afa90811561048757908b94939291869161044e575b50806103a2575b50505050506103909350508181115f1461039a5750925b4790611cfd565b4260015551908152f35b905092610389565b859650906064939495918a51998a96879563919722bb60e01b8752860152840152600160448401527f0000000000000000000000000000000000000000000000000000000000000000165af1801561044257819061040b575b610390935090865f808080610372565b5090918581813d831161043b575b61042381836119b2565b8101031261043757906103909291516103fb565b5080fd5b503d610419565b508351903d90823e3d90fd5b85819394959692503d8311610480575b61046881836119b2565b8101031261047c57908a939291515f61036b565b8480fd5b503d61045e565b89513d87823e3d90fd5b610542998661054b926104c860e0997f0000000000000000000000000000000000000000000000000000000000000000809c611c3b565b6104d0611a9b565b9a7f00000000000000000000000000000000000000000000000000000000000000008c52888d8d0152838c015260608b015260808a015261050f611adb565b90308252868b8301523081830152866060830152519a8b99888b99966352bbbe298b981b885287015260e4860190611b0f565b92840190611b80565b8360a48301524260c48301520393165af180156105a257908c91610579575b9081808c938987898f8c61033e565b813d831161059b575b61058c81836119b2565b8101031261047c578a5f61056a565b503d610582565b8a513d88823e3d90fd5b96985050505050509181813d83116105e6575b6105c981836119b2565b810103126105e257518b928e9290918987898f5f610336565b8780fd5b503d6105bf565b8c513d8a823e3d90fd5b600195604493519687958694636197390160e11b86528c8601528401525af180156105a25761062b575b8b898b83896102e1565b61064a908c8d3d10610651575b61064281836119b2565b810190611be1565b505f610621565b503d610638565b509150505182815230858201528c818b81855afa9081156106bc578b8e928c928a91610685575b506102da565b939250505081813d83116106b5575b61069e81836119b2565b810103126106b157898b8e92515f61067f565b8680fd5b503d610694565b8b513d89823e3d90fd5b93505092905081813d83116106f4575b6106e081836119b2565b810103126105e2578b8e928c92515f6102d1565b503d6106d6565b90508a81813d8311610723575b61071281836119b2565b8101031261047c5751610277610212565b503d610708565b8280fd5b5034610437578160031936011261043757517f00000000000000000000000000000000000000000000000000000000000000006001600160a01b03168152602090f35b8284346104375760203660031901126104375761079860018060a01b0383541633146121c5565b8035905580f35b5034610437578160031936011261043757517f00000000000000000000000000000000000000000000000000000000000000006001600160a01b03168152602090f35b50346104375781600319360112610437576020906001549051908152f35b5034610437578160031936011261043757517f00000000000000000000000000000000000000000000000000000000000000006001600160a01b03168152602090f35b503461043757816003193601126104375760209061085f612101565b9051908152f35b5034610437578160031936011261043757517f00000000000000000000000000000000000000000000000000000000000000006001600160a01b03168152602090f35b5082908260031936011261072a576001600160a01b03906108ed7f000000000000000000000000000000000000000000000000000000000000000083163314611a25565b6108f8341515611a62565b837f0000000000000000000000000000000000000000000000000000000000000000936109253486611cfd565b82516370a0823160e01b808252308284015260209680871693928881602481885afa908115610b8e578789949386938c938a91610b98575b50610966611a9b565b987f00000000000000000000000000000000000000000000000000000000000000008a528a858b0152838a015289877f00000000000000000000000000000000000000000000000000000000000000009d8e169a8b6060820152836080820152610a35610a196109d4611adb565b95308752858a8801523089880152856060880152610a14817f0000000000000000000000000000000000000000000000000000000000000000809a611c3b565b61217f565b96516352bbbe2960e01b81529889978896879442938601611bb1565b0393165af18015610b8e57908991610b65575b50906024875180968193825230878301525afa928315610b5b5790879392918593610b22575b5093829394610aa16064947f0000000000000000000000000000000000000000000000000000000000000000809a611c3b565b865197889586946321d0683360e11b86527f000000000000000000000000000000000000000000000000000000000000000090860152602485015260016044850152165af1908115610b195750610afb575b824260015580f35b81610b1192903d106106515761064281836119b2565b508180610af3565b513d85823e3d90fd5b8093508491943d8311610b54575b610b3a81836119b2565b81010312610b5057905186929091906064610a6e565b8380fd5b503d610b30565b85513d86823e3d90fd5b813d8311610b87575b610b7881836119b2565b8101031261047c57878a610a48565b503d610b6e565b87513d88823e3d90fd5b94505094505081813d8311610bcb575b610bb281836119b2565b81010312610bc757888789948693518e61095d565b8580fd5b503d610ba8565b82843461043757602036600319011261043757610bf960018060a01b0383541633146121c5565b3560055580f35b5034610437578160031936011261043757517f00000000000000000000000000000000000000000000000000000000000000006001600160a01b03168152602090f35b50346104375781600319360112610437576020906002549051908152f35b50823461072a57602036600319011261072a576001600160a01b0390358181169290839003610b50577f2276211a3f2c7bc1943fe83cc63f8f970204ff6a4b83c690df2bc54d8f2792ad908454928316610cbc3382146121c5565b8151908152846020820152a16001600160a01b03191617815580f35b50346104375760203660031901126104375751908152602090f35b5034610437578160031936011261043757517f00000000000000000000000000000000000000000000000000000000000000006001600160a01b03168152602090f35b503461043757816003193601126104375760209061085f61205a565b5034610437578160031936011261043757517f00000000000000000000000000000000000000000000000000000000000000006001600160a01b03168152602090f35b509034610db45780600319360112610db4578151908082526020820152f35b80fd5b5034610437578160031936011261043757517f00000000000000000000000000000000000000000000000000000000000000006001600160a01b03168152602090f35b50346104375781600319360112610437576020906005549051908152f35b5034610437578160031936011261043757905490516001600160a01b039091168152602090f35b50346104375781600319360112610437576001600160a01b03927f0000000000000000000000000000000000000000000000000000000000000000841692610e88338514611a25565b82516370a0823160e01b8082523082850152602096929384936024937f00000000000000000000000000000000000000000000000000000000000000008216908a818781855afa90811561118a57918b918893849161132a575b50806112d9575b505050507f000000000000000000000000000000000000000000000000000000000000000081811688519085825230858301528b828881845afa9182156112cf57928c9289868d9489978394611293575b5083611194575b50955050505050507f000000000000000000000000000000000000000000000000000000000000000016875184815230848201528a818781855afa90811561118a5791868c9289948591611155575b50806110fd575b5050505050807f000000000000000000000000000000000000000000000000000000000000000016928751908152308382015289818681875afa9081156110f357908a9493929187916110be575b5080611012575b848a8a61100c6110048c610ffe611d83565b90611d62565b924790611cfd565b51908152f35b86975090606493949596918951978896879563919722bb60e01b8752860152840152600160448401527f0000000000000000000000000000000000000000000000000000000000000000165af19182156110b357809261107f575b505061100461100c855f808080610fec565b9091508482813d83116110ac575b61109781836119b2565b81010312610db457505161100461100c61106d565b503d61108d565b8351903d90823e3d90fd5b85819394959692503d83116110ec575b6110d881836119b2565b81010312610bc7579089939291515f610fe5565b503d6110ce565b88513d88823e3d90fd5b8b519485938492636f074d1f60e11b8452898401525af180156110f357908a9161112c575b9081868893610f97565b813d831161114e575b61113f81836119b2565b8101031261047c57885f611122565b503d611135565b93929450505081813d8311611183575b61116f81836119b2565b810103126106b1578691868c92515f610f90565b503d611165565b89513d89823e3d90fd5b6111c0847f00000000000000000000000000000000000000000000000000000000000000008097611c3b565b6111c8611a9b565b907f00000000000000000000000000000000000000000000000000000000000000008252838883015286820152817f000000000000000000000000000000000000000000000000000000000000000016606082015283608082015261124a610a19611231611adb565b95308752858a880152308988015285606088015261217f565b0393165af180156110f357908a9161126a575b9088828089868896610f41565b813d831161128c575b61127d81836119b2565b8101031261047c57885f61125d565b503d611273565b95509593965050505081813d83116112c8575b6112b081836119b2565b810103126105e25784928c9289868d9451925f610f3a565b503d6112a6565b8a513d8a823e3d90fd5b6044908b519485938492636197390160e11b84528984015260018b8401525af180156110f35761130d575b89818792610ee9565b611323908a3d8c116106515761064281836119b2565b505f611304565b92809294508391503d8311611357575b61134481836119b2565b810103126106b15786918b91515f610ee2565b503d61133a565b5034610437578160031936011261043757517f00000000000000000000000000000000000000000000000000000000000000006001600160a01b03168152602090f35b5034610437576020928360031936011261072a576001600160a01b037f000000000000000000000000000000000000000000000000000000000000000081169390918035916113f1338714611a25565b80916113fe841515611a62565b855162b0e38960e81b81528082018590526024957f0000000000000000000000000000000000000000000000000000000000000000811692918a818981875afa9081156104875785916117fd575b506102776102506102296114639360055490612029565b88516370a0823160e01b8082523085830152917f00000000000000000000000000000000000000000000000000000000000000008416918d818c81865afa9081156105ed578e928c928e928b916117c8575b50811015611768575b8981611717575b5050505050507f0000000000000000000000000000000000000000000000000000000000000000828116908a5183815230868201528d818c81865afa9081156105ed57918c93918f9387898f8d9384956116da575b508c8561164c575b5050505050505050505190815230838201528a818981875afa90811561048757908b949392918691611617575b508061157b575b50505050506103909350611568611d83565b50508181111561039a5750924790611cfd565b859650906064939495918a51998a96879563919722bb60e01b8752860152840152600160448401527f0000000000000000000000000000000000000000000000000000000000000000165af180156104425781906115e4575b610390935090865f808080611556565b5090918581813d8311611610575b6115fc81836119b2565b8101031261043757906103909291516115d4565b503d6115f2565b85819394959692503d8311611645575b61163181836119b2565b8101031261047c57908a939291515f61154f565b503d611627565b6105429986611683926104c860e0997f0000000000000000000000000000000000000000000000000000000000000000809c611c3b565b8360a48301524260c48301520393165af180156105a257908c916116b1575b9081808c938987898f8c611522565b813d83116116d3575b6116c481836119b2565b8101031261047c578a5f6116a2565b503d6116ba565b96985050505050509181813d8311611710575b6116f781836119b2565b810103126105e257518b928e9290918987898f5f61151a565b503d6116ed565b600195604493519687958694636197390160e11b86528c8601528401525af180156105a25761174b575b8b898b83896114c5565b611761908c8d3d106106515761064281836119b2565b505f611741565b509150505182815230858201528c818b81855afa9081156106bc578b8e928c928a91611795575b506114be565b939250505081813d83116117c1575b6117ae81836119b2565b810103126106b157898b8e92515f61178f565b503d6117a4565b93505092905081813d83116117f6575b6117e281836119b2565b810103126105e2578b8e928c92515f6114b5565b503d6117d8565b90508a81813d8311611825575b61181481836119b2565b8101031261047c575161027761144c565b503d61180a565b5034610437578160031936011261043757517f00000000000000000000000000000000000000000000000000000000000000006001600160a01b03168152602090f35b8284346104375760203660031901126104375761189660018060a01b0383541633146121c5565b3560025580f35b509034610db45780600319360112610db4578151918160035492600184811c9181861695861561198f575b602096878510811461197c578899509688969785829a5291825f14611955575050600114611917575b50505061191392916119049103856119b2565b519282849384528301906119e7565b0390f35b9190869350600383528383205b82841061193d57505050820101816119046119136118f1565b8054848a018601528895508794909301928101611924565b60ff19168782015293151560051b86019093019350849250611904915061191390506118f1565b634e487b7160e01b835260228a52602483fd5b92607f16926118c8565b8390346104375781600319360112610437576020918152f35b90601f801991011681019081106001600160401b038211176119d357604052565b634e487b7160e01b5f52604160045260245ffd5b91908251928382525f5b848110611a11575050825f602080949584010152601f8019910116010190565b6020818301810151848301820152016119f1565b15611a2c57565b60405162461bcd60e51b815260206004820152600e60248201526d3737ba1031b7b73a3937b63632b960911b6044820152606490fd5b15611a6957565b60405162461bcd60e51b815260206004820152600a6024820152697a65726f2076616c756560b01b6044820152606490fd5b6040519060c082018281106001600160401b038211176119d357604052606060a0835f81525f60208201525f60408201525f838201525f60808201520152565b60405190608082018281106001600160401b038211176119d3576040525f6060838281528260208201528260408201520152565b90815181526020820151916002831015611b6c5760a060c091611b699460208501526040810151600180841b0380911660408601526060820151166060850152608081015160808501520151918160a082015201906119e7565b90565b634e487b7160e01b5f52602160045260245ffd5b6060809160018060a01b03808251168552602082015115156020860152604082015116604085015201511515910152565b9092611bd8611bcd60c09497969560e0855260e0850190611b0f565b966020840190611b80565b60a08201520152565b90816020910312611bf957518015158103611bf95790565b5f80fd5b3d15611c36573d906001600160401b0382116119d35760405191611c2b601f8201601f1916602001846119b2565b82523d5f602084013e565b606090565b60405163095ea7b360e01b602082019081526001600160a01b0390931660248201526044808201949094529283526080830192916001600160401b038411838510176119d3575f809493819460405251925af1611c96611bfd565b81611cce575b5015611ca457565b60405162461bcd60e51b8152602060048201526002602482015261534160f01b6044820152606490fd5b8051801592508215611ce3575b50505f611c9c565b611cf69250602080918301019101611be1565b5f80611cdb565b60405160208101908082106001600160401b038311176119d3575f938493848094938194604052525af1611d2f611bfd565b5015611d3757565b60405162461bcd60e51b815260206004820152600360248201526253544560e81b6044820152606490fd5b91908201809211611d6f57565b634e487b7160e01b5f52601160045260245ffd5b604080516370a0823160e01b8082523060048301525f9392849290916001600160a01b0391602091907f0000000000000000000000000000000000000000000000000000000000000000908482168482602481845afa91821561201f578892611ff0575b5081611f46575b5050507f0000000000000000000000000000000000000000000000000000000000000000928084169085519283523060048401528383602481855afa928315611f3c578793611f0d575b5082611e48575b50505050505050565b8291611e7f85946064939b98999b7f0000000000000000000000000000000000000000000000000000000000000000168098611c3b565b898851968794859363919722bb60e01b855260048501526024840152600160448401525af1938415611f0457508593611ecd575b5050611ec0929350611d62565b905f808080808080611e3f565b9080929350813d8311611efd575b611ee581836119b2565b81010312610b5057611ec0929350519083925f611eb3565b503d611edb565b513d87823e3d90fd5b9092508381813d8311611f35575b611f2581836119b2565b810103126106b15751915f611e38565b503d611f1b565b86513d89823e3d90fd5b8492939950606490611f7c83887f0000000000000000000000000000000000000000000000000000000000000000168097611c3b565b888851958694859363919722bb60e01b855260048501526024840152600160448401525af1908115611fe6578591611fb9575b50955f8080611dee565b90508181813d8311611fdf575b611fd081836119b2565b8101031261047c57515f611faf565b503d611fc6565b84513d87823e3d90fd5b9091508481813d8311612018575b61200881836119b2565b810103126105e25751905f611de7565b503d611ffe565b87513d8a823e3d90fd5b81810292918115918404141715611d6f57565b8115612046570490565b634e487b7160e01b5f52601260045260245ffd5b6040516370a0823160e01b81523060048201526020816024817f00000000000000000000000000000000000000000000000000000000000000006001600160a01b03165afa9081156120f6575f916120c3575b50610250611b69916120bd612101565b90612029565b906020823d82116120ee575b816120dc602093836119b2565b81010312610db45750516102506120ad565b3d91506120cf565b6040513d5f823e3d90fd5b6040516333cd77e760e11b81526020816004817f00000000000000000000000000000000000000000000000000000000000000006001600160a01b03165afa9081156120f6575f91612151575090565b906020823d8211612177575b8161216a602093836119b2565b81010312610db457505190565b3d915061215d565b61219e610250612195611b699360055490612029565b60045490612029565b7f00000000000000000000000000000000000000000000000000000000000000009061203c565b156121cc57565b60405162461bcd60e51b815260206004820152600d60248201526c6e6f7420676f7665726e61636560981b6044820152606490fdfea2646970667358221220642b701abec745eb324211428858be02ef617ca8eff5f2750daf34ca6f60bb1864736f6c63430008150033",
  "immutableReferences": {
    "17616": [
      {
        "length": 32,
        "start": 594
      }
    ],
    "17619": [
      {
        "length": 32,
        "start": 555
      },
      {
        "length": 32,
        "start": 8608
      }
    ],
    "17625": [
      {
        "length": 32,
        "start": 1235
      },
      {
        "length": 32,
        "start": 2409
      },
      {
        "length": 32,
        "start": 4555
      }
    ],
    "17628": [
      {
        "length": 32,
        "start": 2740
      }
    ],
    "17631": [
      {
        "length": 32,
        "start": 1971
      },
      {
        "length": 32,
        "start": 3999
      }
    ],
    "17634": [
      {
        "length": 32,
        "start": 474
      },
      {
        "length": 32,
        "start": 2068
      },
      {
        "length": 32,
        "start": 2299
      },
      {
        "length": 32,
        "start": 3915
      },
      {
        "length": 32,
        "start": 4600
      },
      {
        "length": 32,
        "start": 5140
      }
    ],
    "17637": [
      {
        "length": 32,
        "start": 1186
      },
      {
        "length": 32,
        "start": 2542
      },
      {
        "length": 32,
        "start": 4506
      },
      {
        "length": 32,
        "start": 4978
      },
      {
        "length": 32,
        "start": 5725
      }
    ],
    "17640": [
      {
        "length": 32,
        "start": 745
      },
      {
        "length": 32,
        "start": 2455
      },
      {
        "length": 32,
        "start": 3092
      },
      {
        "length": 32,
        "start": 3823
      },
      {
        "length": 32,
        "start": 5325
      },
      {
        "length": 32,
        "start": 8470
      }
    ],
    "17643": [
      {
        "length": 32,
        "start": 2683
      },
      {
        "length": 32,
        "start": 3430
      }
    ],
    "17646": [
      {
        "length": 32,
        "start": 660
      },
      {
        "length": 32,
        "start": 3531
      },
      {
        "length": 32,
        "start": 3750
      },
      {
        "length": 32,
        "start": 5240
      },
      {
        "length": 32,
        "start": 8309
      }
    ],
    "17649": [
      {
        "length": 32,
        "start": 6208
      },
      {
        "length": 32,
        "start": 7598
      }
    ],
    "17652": [
      {
        "length": 32,
        "start": 2170
      },
      {
        "length": 32,
        "start": 7667
      }
    ],
    "17654": [
      {
        "length": 32,
        "start": 972
      },
      {
        "length": 32,
        "start": 3335
      },
      {
        "length": 32,
        "start": 4157
      },
      {
        "length": 32,
        "start": 5541
      },
      {
        "length": 32,
        "start": 7768
      },
      {
        "length": 32,
        "start": 8021
      }
    ],
    "21979": [
      {
        "length": 32,
        "start": 389
      },
      {
        "length": 32,
        "start": 1858
      },
      {
        "length": 32,
        "start": 2245
      },
      {
        "length": 32,
        "start": 3675
      },
      {
        "length": 32,
        "start": 5055
      }
    ]
  },
  "source": "// SPDX-License-Identifier: MIT\npragma solidity 0.8.21;\n\nimport {TransferHelper} from \"@uniswap/v3-periphery/contracts/libraries/TransferHelper.sol\";\nimport {IERC20} from \"@openzeppelin/contracts/token/ERC20/IERC20.sol\";\n\nimport {IBalancerVault} from \"../interfaces/IBalancerVault.sol\";\nimport {IAuraRewardPool} from \"../interfaces/IAuraRewardPool.sol\";\nimport {IComposableStablePool} from \"../interfaces/IComposableStablePool.sol\";\nimport {IWstETH} from \"../interfaces/IWstETH.sol\";\nimport {IBooster} from \"../interfaces/IBooster.sol\";\n\nimport {Strategy} from \"./Strategy.sol\";\nimport {SwappingAggregator} from \"./SwappingAggregator.sol\";\n\ncontract BalancerLPAuraStrategy is Strategy {\n    uint256 internal immutable MULTIPLIER = 1e18;\n    uint256 internal immutable PERCENTAGE = 1e6;\n    uint256 internal SLIPPAGE = 998000;\n\n    bytes32 internal immutable poolId =\n        0x42ed016f826165c2e5976fe5bc3df540c5ad0af700000000000000000000058b;\n    uint256 internal immutable auraPoolId = 139;\n\n    address public immutable STETH = 0xae7ab96520DE3A18E5e111B5EaAb095312D7fE84;\n    address public immutable WSTETH =\n        0x7f39C581F595B53c5cb19bD0b3f8dA6c935E2Ca0;\n    address public immutable VAULT = 0xBA12222222228d8Ba445958a75a0704d566BF2C8;\n    address public immutable LP_TOKEN =\n        0x42ED016F826165C2e5976fe5bC3df540C5aD0Af7;\n    address public immutable BOOSTER =\n        0xA57b8d98dAE62B26Ec3bcC4a365338157060B234;\n    address public immutable AURA_REWARD_POOL =\n        0x032B676d5D55e8ECbAe88ebEE0AA10fB5f72F6CB;\n    address public immutable BAL_TOKEN =\n        0xba100000625a3754423978a60c9317c58a424e3D;\n    address public immutable AURA_TOKEN =\n        0xC0c293ce456fF0ED870ADd98a0828Dd4d2903DBF;\n\n    address payable public immutable SWAPPING;\n\n    uint256 public lpPriceByWstETH = 1005082552259188622;\n\n    constructor(\n        address payable _controller,\n        address payable _swap,\n        string memory _name\n    ) Strategy(_controller, _name) {\n        require(_swap != address(0), \"ZERO ADDRESS\");\n\n        SWAPPING = _swap;\n    }\n\n    function deposit() public payable override onlyController {\n        uint256 amount = msg.value;\n        require(amount != 0, \"zero value\");\n\n        TransferHelper.safeTransferETH(WSTETH, amount);\n\n        uint256 wstETHAmount = IERC20(WSTETH).balanceOf(address(this));\n\n        IBalancerVault.SingleSwap memory singleSwap;\n        singleSwap.poolId = poolId;\n        singleSwap.kind = IBalancerVault.SwapKind.GIVEN_IN;\n        singleSwap.assetIn = WSTETH;\n        singleSwap.assetOut = LP_TOKEN;\n        singleSwap.amount = wstETHAmount;\n\n        IBalancerVault.FundManagement memory fundManagement;\n        fundManagement.sender = address(this);\n        fundManagement.fromInternalBalance = false;\n        fundManagement.recipient = payable(address(this));\n        fundManagement.toInternalBalance = false;\n\n        TransferHelper.safeApprove(WSTETH, VAULT, wstETHAmount);\n\n        uint256 lpOut = IBalancerVault(VAULT).swap(\n            singleSwap,\n            fundManagement,\n            getSwapOutAmount(wstETHAmount),\n            block.timestamp\n        );\n\n        uint256 lp_balance = IERC20(LP_TOKEN).balanceOf(address(this));\n        TransferHelper.safeApprove(LP_TOKEN, BOOSTER, lp_balance);\n        IBooster(BOOSTER).deposit(auraPoolId, lp_balance, true);\n\n        latestUpdateTime = block.timestamp;\n    }\n\n    function withdraw(\n        uint256 _amount\n    ) public override onlyController returns (uint256 actualAmount) {\n        actualAmount = _withdraw(_amount, false);\n    }\n\n    function instantWithdraw(\n        uint256 _amount\n    ) public override onlyController returns (uint256 actualAmount) {\n        actualAmount = _withdraw(_amount, true);\n    }\n\n    function _withdraw(\n        uint256 _amount,\n        bool _isInstant\n    ) internal returns (uint256 actualAmount) {\n        require(_amount != 0, \"zero value\");\n\n        uint256 wstETHOut = IWstETH(WSTETH).getWstETHByStETH(_amount);\n        uint256 lpOut = getWithdrawLPOutAmount(wstETHOut);\n\n        lpOut = lpOut < IERC20(AURA_REWARD_POOL).balanceOf(address(this))\n            ? lpOut\n            : IERC20(AURA_REWARD_POOL).balanceOf(address(this));\n\n        if (lpOut != 0) {\n            IAuraRewardPool rewardPool = IAuraRewardPool(AURA_REWARD_POOL);\n            rewardPool.withdrawAndUnwrap(lpOut, true);\n        }\n        uint256 lpBalance = IERC20(LP_TOKEN).balanceOf(address(this));\n\n        if (lpBalance != 0) {\n            TransferHelper.safeApprove(LP_TOKEN, VAULT, lpBalance);\n\n            IBalancerVault.SingleSwap memory singleSwap;\n            singleSwap.poolId = poolId;\n            singleSwap.kind = IBalancerVault.SwapKind.GIVEN_IN;\n            singleSwap.assetIn = LP_TOKEN;\n            singleSwap.assetOut = WSTETH;\n            singleSwap.amount = lpBalance;\n\n            IBalancerVault.FundManagement memory fundManagement;\n            fundManagement.sender = address(this);\n            fundManagement.fromInternalBalance = false;\n            fundManagement.recipient = payable(address(this));\n            fundManagement.toInternalBalance = false;\n\n            IBalancerVault(VAULT).swap(\n                singleSwap,\n                fundManagement,\n                // wstETHOut,\n                0,\n                block.timestamp\n            );\n        }\n\n        uint256 balance = IERC20(WSTETH).balanceOf(address(this));\n        if (balance != 0) {\n            actualAmount = SwappingAggregator(SWAPPING).swap(\n                WSTETH,\n                balance,\n                true\n            );\n        }\n\n        if (!_isInstant) {\n            sellAllRewards();\n        }\n        actualAmount = actualAmount > _amount ? _amount : actualAmount;\n        TransferHelper.safeTransferETH(controller, address(this).balance);\n\n        latestUpdateTime = block.timestamp;\n    }\n\n    function sellAllRewards() internal returns (uint256 actualAmount) {\n        uint256 balance = IERC20(BAL_TOKEN).balanceOf(address(this));\n        if (balance != 0) {\n            TransferHelper.safeApprove(BAL_TOKEN, SWAPPING, balance);\n            actualAmount = SwappingAggregator(SWAPPING).swap(\n                BAL_TOKEN,\n                balance,\n                true\n            );\n        }\n\n        balance = IERC20(AURA_TOKEN).balanceOf(address(this));\n        if (balance != 0) {\n            TransferHelper.safeApprove(AURA_TOKEN, SWAPPING, balance);\n            actualAmount =\n                actualAmount +\n                SwappingAggregator(SWAPPING).swap(AURA_TOKEN, balance, true);\n        }\n    }\n\n    function clear() public override onlyController returns (uint256 amount) {\n        uint256 lpOut = IERC20(AURA_REWARD_POOL).balanceOf(address(this));\n\n        if (lpOut != 0) {\n            IAuraRewardPool rewardPool = IAuraRewardPool(AURA_REWARD_POOL);\n            rewardPool.withdrawAndUnwrap(lpOut, true);\n        }\n\n        uint256 lpBalance = IERC20(LP_TOKEN).balanceOf(address(this));\n\n        if (lpBalance != 0) {\n            TransferHelper.safeApprove(LP_TOKEN, VAULT, lpBalance);\n\n            IBalancerVault.SingleSwap memory singleSwap;\n            singleSwap.poolId = poolId;\n            singleSwap.kind = IBalancerVault.SwapKind.GIVEN_IN;\n            singleSwap.assetIn = LP_TOKEN;\n            singleSwap.assetOut = WSTETH;\n            singleSwap.amount = lpBalance;\n\n            IBalancerVault.FundManagement memory fundManagement;\n            fundManagement.sender = address(this);\n            fundManagement.fromInternalBalance = false;\n            fundManagement.recipient = payable(address(this));\n            fundManagement.toInternalBalance = false;\n\n            IBalancerVault(VAULT).swap(\n                singleSwap,\n                fundManagement,\n                getSwapOutAmount(lpBalance),\n                block.timestamp\n            );\n        }\n\n        uint256 balance = IERC20(WSTETH).balanceOf(address(this));\n        if (balance != 0) {\n            IWstETH(WSTETH).unwrap(balance);\n        }\n\n        balance = IERC20(STETH).balanceOf(address(this));\n        if (balance != 0) {\n            amount = SwappingAggregator(SWAPPING).swap(STETH, balance, true);\n        }\n\n        amount = amount + sellAllRewards();\n        TransferHelper.safeTransferETH(controller, address(this).balance);\n    }\n\n    function getAllValue() public override returns (uint256 value) {\n        value = getInvestedValue() + getPendingValue();\n    }\n\n    function getInvestedValue() public override returns (uint256 value) {\n        return\n            (IERC20(AURA_REWARD_POOL).balanceOf(address(this)) *\n                getOnchainLpPrice()) / MULTIPLIER;\n    }\n\n    function getPendingValue() public override returns (uint256 value) {\n        return 0;\n    }\n\n    function checkPendingStatus()\n        public\n        override\n        returns (uint256 pending, uint256 executable)\n    {\n        return (0, 0);\n    }\n\n    function getOnchainLpPrice() public view returns (uint256) {\n        return IComposableStablePool(LP_TOKEN).getRate();\n    }\n\n    function getWithdrawLPOutAmount(\n        uint256 _eAmount\n    ) internal returns (uint256) {\n        return\n            (_eAmount * lpPriceByWstETH * PERCENTAGE) / MULTIPLIER / SLIPPAGE;\n    }\n\n    function getSwapOutAmount(uint256 _amount) internal returns (uint256) {\n        return (_amount * lpPriceByWstETH * SLIPPAGE) / MULTIPLIER / PERCENTAGE;\n    }\n\n    function setLpPrice(uint256 _price) external onlyGovernance {\n        lpPriceByWstETH = _price;\n    }\n\n    function setSlippage(uint256 _slippage) external onlyGovernance {\n        SLIPPAGE = _slippage;\n    }\n\n    receive() external payable {}\n}\n",
  "sourcePath": "/Users/mingyuzhang/Downloads/stone-vault-v1/contracts/strategies/BalancerLPAuraStrategy.sol",
  "compiler": {
    "name": "solc",
    "version": "0.8.21+commit.d9974bed.Emscripten.clang"
  },
  "schemaVersion": "3.4.16",
  "updatedAt": "2024-06-07T05:41:32.634Z",
  "devdoc": {
    "kind": "dev",
    "methods": {},
    "version": 1
  },
  "userdoc": {
    "kind": "user",
    "methods": {},
    "version": 1
  }
}