{
  "contractName": "BTCL2NativeStakeStoneCarnival",
  "abi": [
    {
      "inputs": [
        {
          "internalType": "uint256",
          "name": "_minAllowed",
          "type": "uint256"
        }
      ],
      "stateMutability": "nonpayable",
      "type": "constructor"
    },
    {
      "anonymous": false,
      "inputs": [
        {
          "indexed": false,
          "internalType": "address",
          "name": "user",
          "type": "address"
        },
        {
          "indexed": false,
          "internalType": "uint256",
          "name": "amount",
          "type": "uint256"
        }
      ],
      "name": "BTCDeposited",
      "type": "event"
    },
    {
      "anonymous": false,
      "inputs": [
        {
          "indexed": false,
          "internalType": "uint256",
          "name": "amount",
          "type": "uint256"
        }
      ],
      "name": "BTCWithdrawn",
      "type": "event"
    },
    {
      "anonymous": false,
      "inputs": [
        {
          "indexed": false,
          "internalType": "uint256",
          "name": "btcAmount",
          "type": "uint256"
        },
        {
          "indexed": false,
          "internalType": "uint256",
          "name": "lpAmount",
          "type": "uint256"
        }
      ],
      "name": "DepositMade",
      "type": "event"
    },
    {
      "anonymous": false,
      "inputs": [
        {
          "indexed": false,
          "internalType": "uint256",
          "name": "totalStone",
          "type": "uint256"
        }
      ],
      "name": "DepositPause",
      "type": "event"
    },
    {
      "anonymous": false,
      "inputs": [
        {
          "indexed": false,
          "internalType": "address",
          "name": "user",
          "type": "address"
        },
        {
          "indexed": false,
          "internalType": "uint256",
          "name": "amount",
          "type": "uint256"
        },
        {
          "indexed": false,
          "internalType": "uint256",
          "name": "withAmount",
          "type": "uint256"
        }
      ],
      "name": "LPWithdrawn",
      "type": "event"
    },
    {
      "anonymous": false,
      "inputs": [
        {
          "indexed": true,
          "internalType": "address",
          "name": "previousOwner",
          "type": "address"
        },
        {
          "indexed": true,
          "internalType": "address",
          "name": "newOwner",
          "type": "address"
        }
      ],
      "name": "OwnershipTransferStarted",
      "type": "event"
    },
    {
      "anonymous": false,
      "inputs": [
        {
          "indexed": true,
          "internalType": "address",
          "name": "previousOwner",
          "type": "address"
        },
        {
          "indexed": true,
          "internalType": "address",
          "name": "newOwner",
          "type": "address"
        }
      ],
      "name": "OwnershipTransferred",
      "type": "event"
    },
    {
      "anonymous": false,
      "inputs": [
        {
          "indexed": false,
          "internalType": "uint256",
          "name": "timestamp",
          "type": "uint256"
        }
      ],
      "name": "Terminate",
      "type": "event"
    },
    {
      "anonymous": false,
      "inputs": [
        {
          "indexed": false,
          "internalType": "address",
          "name": "vaultAddr",
          "type": "address"
        },
        {
          "indexed": false,
          "internalType": "address",
          "name": "lpAddr",
          "type": "address"
        }
      ],
      "name": "VaultSet",
      "type": "event"
    },
    {
      "inputs": [],
      "name": "acceptOwnership",
      "outputs": [],
      "stateMutability": "nonpayable",
      "type": "function"
    },
    {
      "inputs": [
        {
          "internalType": "address",
          "name": "",
          "type": "address"
        }
      ],
      "name": "btcDeposited",
      "outputs": [
        {
          "internalType": "uint256",
          "name": "",
          "type": "uint256"
        }
      ],
      "stateMutability": "view",
      "type": "function"
    },
    {
      "inputs": [],
      "name": "depositPaused",
      "outputs": [
        {
          "internalType": "bool",
          "name": "",
          "type": "bool"
        }
      ],
      "stateMutability": "view",
      "type": "function"
    },
    {
      "inputs": [],
      "name": "finalLpAmount",
      "outputs": [
        {
          "internalType": "uint256",
          "name": "",
          "type": "uint256"
        }
      ],
      "stateMutability": "view",
      "type": "function"
    },
    {
      "inputs": [],
      "name": "isExec",
      "outputs": [
        {
          "internalType": "bool",
          "name": "",
          "type": "bool"
        }
      ],
      "stateMutability": "view",
      "type": "function"
    },
    {
      "inputs": [
        {
          "internalType": "address",
          "name": "",
          "type": "address"
        }
      ],
      "name": "isWithdrawn",
      "outputs": [
        {
          "internalType": "bool",
          "name": "",
          "type": "bool"
        }
      ],
      "stateMutability": "view",
      "type": "function"
    },
    {
      "inputs": [],
      "name": "lockPeriod",
      "outputs": [
        {
          "internalType": "uint256",
          "name": "",
          "type": "uint256"
        }
      ],
      "stateMutability": "view",
      "type": "function"
    },
    {
      "inputs": [],
      "name": "lpAddr",
      "outputs": [
        {
          "internalType": "address",
          "name": "",
          "type": "address"
        }
      ],
      "stateMutability": "view",
      "type": "function"
    },
    {
      "inputs": [],
      "name": "minAllowed",
      "outputs": [
        {
          "internalType": "uint256",
          "name": "",
          "type": "uint256"
        }
      ],
      "stateMutability": "view",
      "type": "function"
    },
    {
      "inputs": [],
      "name": "owner",
      "outputs": [
        {
          "internalType": "address",
          "name": "",
          "type": "address"
        }
      ],
      "stateMutability": "view",
      "type": "function"
    },
    {
      "inputs": [],
      "name": "pendingOwner",
      "outputs": [
        {
          "internalType": "address",
          "name": "",
          "type": "address"
        }
      ],
      "stateMutability": "view",
      "type": "function"
    },
    {
      "inputs": [],
      "name": "renounceOwnership",
      "outputs": [],
      "stateMutability": "nonpayable",
      "type": "function"
    },
    {
      "inputs": [],
      "name": "startTime",
      "outputs": [
        {
          "internalType": "uint256",
          "name": "",
          "type": "uint256"
        }
      ],
      "stateMutability": "view",
      "type": "function"
    },
    {
      "inputs": [],
      "name": "terminated",
      "outputs": [
        {
          "internalType": "bool",
          "name": "",
          "type": "bool"
        }
      ],
      "stateMutability": "view",
      "type": "function"
    },
    {
      "inputs": [],
      "name": "totalBTCDeposited",
      "outputs": [
        {
          "internalType": "uint256",
          "name": "",
          "type": "uint256"
        }
      ],
      "stateMutability": "view",
      "type": "function"
    },
    {
      "inputs": [
        {
          "internalType": "address",
          "name": "newOwner",
          "type": "address"
        }
      ],
      "name": "transferOwnership",
      "outputs": [],
      "stateMutability": "nonpayable",
      "type": "function"
    },
    {
      "inputs": [],
      "name": "vaultAddr",
      "outputs": [
        {
          "internalType": "address",
          "name": "",
          "type": "address"
        }
      ],
      "stateMutability": "view",
      "type": "function"
    },
    {
      "inputs": [],
      "name": "deposit",
      "outputs": [],
      "stateMutability": "payable",
      "type": "function"
    },
    {
      "inputs": [
        {
          "internalType": "address",
          "name": "_user",
          "type": "address"
        }
      ],
      "name": "depositFor",
      "outputs": [],
      "stateMutability": "payable",
      "type": "function"
    },
    {
      "inputs": [],
      "name": "withdrawLP",
      "outputs": [],
      "stateMutability": "nonpayable",
      "type": "function"
    },
    {
      "inputs": [],
      "name": "withdrawBTC",
      "outputs": [],
      "stateMutability": "nonpayable",
      "type": "function"
    },
    {
      "inputs": [],
      "name": "terminate",
      "outputs": [],
      "stateMutability": "nonpayable",
      "type": "function"
    },
    {
      "inputs": [],
      "name": "forceTerminate",
      "outputs": [],
      "stateMutability": "nonpayable",
      "type": "function"
    },
    {
      "inputs": [],
      "name": "pauseDeposit",
      "outputs": [],
      "stateMutability": "nonpayable",
      "type": "function"
    },
    {
      "inputs": [
        {
          "internalType": "address",
          "name": "_vaultAddr",
          "type": "address"
        },
        {
          "internalType": "address",
          "name": "_lpAddr",
          "type": "address"
        }
      ],
      "name": "setAddrs",
      "outputs": [],
      "stateMutability": "nonpayable",
      "type": "function"
    },
    {
      "inputs": [],
      "name": "makeDeposit",
      "outputs": [
        {
          "internalType": "uint256",
          "name": "mintAmount",
          "type": "uint256"
        }
      ],
      "stateMutability": "nonpayable",
      "type": "function"
    }
  ],
  "bytecode": "0x60e0346100d657601f6111d138819003918201601f19168301916001600160401b038311848410176100da578084926020946040528339810103126100d6575160018060a01b03199081600154166001555f549133908316175f5560405191339060018060a01b03167f8be0079c531659141344cd1fd0a4f28419497f9722a3daafe3b4186f6b6457e05f80a3624f1a006080524260a05260c0526110e290816100ef8239608051818181610b9a0152610c2f015260a0518181816108cc0152610c50015260c0518181816107d10152610e530152f35b5f80fd5b634e487b7160e01b5f52604160045260245ffdfe608060409080825260049182361015610016575f80fd5b5f92833560e01c92836302befd2414610cec575082630c08bf8814610c0357826310c9558414610be4578263194307bf14610bbd5782633fd8b02f14610b8257826340732c8914610a17578263590efee1146109f057826369026e881461098c578263715018a61461092757826377e04784146108ef57826378e97925146108b457826379ba5097146107f45782637fb30c35146107b95782638bc85f8b146107905782638da5cb5b1461076857826393a96512146107055782639718a93b1461061d578263a1a64a1e14610412578263a22c4ad0146103d4578263aa67c9191461039b578263bbd3bacc1461025d578263d0e30db01461022a578263d27567f214610201578263e30c3978146101d4578263eef0e498146101b157505063f2fde38b14610142575f80fd5b346101ae5760203660031901126101ae5761015b610d0d565b610163610d27565b600180546001600160a01b0319166001600160a01b0392831690811790915582549091167f38d16b8cac22d99fc7c124b9cd0de2d3fa1faef420bfe791d8c362d765e227008380a380f35b80fd5b909150346101d057826003193601126101d05760209250549051908152f35b8280fd5b8382346101fd57816003193601126101fd5760015490516001600160a01b039091168152602090f35b5080fd5b8382346101fd57816003193601126101fd5760025490516001600160a01b039091168152602090f35b83806003193601126101ae5761024560ff6006541615610d7e565b610250341515610dbb565b61025a3433610e30565b80f35b8390346101fd57816003193601126101fd5761028f60ff600654610285828260101c16610f06565b60081c1615610ff6565b338252602090600882526102a960ff858520541615610f43565b338352600782528383205490811561036a5733845260088352848420805460ff1916600117905584518084016001600160401b038111828210176103575786528490528380808085335af16102fc610fb8565b501561032e57507fe05a47f4ff6c82303f332b110f37f9d589aeeec8eac580443d0dbe28b354d092929351908152a180f35b845162461bcd60e51b8152908101839052600360248201526253544560e81b6044820152606490fd5b634e487b7160e01b865260418352602486fd5b845162461bcd60e51b8152908101839052600b60248201526a1b9bdd0819195c1bdcda5d60aa1b6044820152606490fd5b8360203660031901126101ae5761025a6103b3610d0d565b6103c260ff6006541615610d7e565b6103cd341515610dbb565b3490610e30565b8382346101fd5760203660031901126101fd5760209160ff9082906001600160a01b036103ff610d0d565b1681526008855220541690519015158152f35b909150346101d057826003193601126101d05760ff600654610438828260101c16610f06565b60081c16156105f0573383526020916008835261045b60ff828620541615610f43565b3384526007835280842054600554908181029181830414901517156105dd5782549081156105ca570491821561059b5733855260088452818520600160ff19825416179055848060018060a01b03600354168451828882019163a9059cbb60e01b83526104de816104d08b3360248401610e15565b03601f198101835282610f83565b51925af16104ea610fb8565b8161055e575b50156105385750916060917f86ef7829731d23705c76edb615e2feb99fd3832d911fd10bfca814e372925523933386526007835280862054815193338552840152820152a180f35b83606492519162461bcd60e51b8352820152600260248201526114d560f21b6044820152fd5b80915051858115918215610577575b505090505f6104f0565b83809293500103126105975784015180151581036105975780855f61056d565b8580fd5b83606492519162461bcd60e51b8352820152600b60248201526a1e995c9bc8185b5bdd5b9d60aa1b6044820152fd5b634e487b7160e01b865260128452602486fd5b634e487b7160e01b855260118352602485fd5b6020606492519162461bcd60e51b835282015260086024820152676e6f74206578656360c01b6044820152fd5b8382346101fd57806003193601126101fd57610637610d0d565b6001600160a01b0360243581811695929086900361070157610657610d27565b61066960ff60065460081c1615610ff6565b1690811515806106f8575b156106c65750837f8800deb8c31293b539eaf5391fcc88280dc58f015c043d65dd5b72a0979a1dd1939460018060a01b031983816002541617600255600354161760035582519182526020820152a180f35b606490602084519162461bcd60e51b8352820152600c60248201526b5a45524f204144445245535360a01b6044820152fd5b50841515610674565b8480fd5b8382346101fd57816003193601126101fd5760207fd681175168470800567b22d50d831df189686adc5b155827823a5ada6a97a4fe91610743610d27565b6201000160065461075660ff821661106b565b62ff00ff19161760065551428152a180f35b8382346101fd57816003193601126101fd57905490516001600160a01b039091168152602090f35b8382346101fd57816003193601126101fd5760035490516001600160a01b039091168152602090f35b8382346101fd57816003193601126101fd57602090517f00000000000000000000000000000000000000000000000000000000000000008152f35b9150346101d057826003193601126101d057600154916001600160a01b0391338385160361085f5750506001600160a01b031991821660015582543392811683178455167f8be0079c531659141344cd1fd0a4f28419497f9722a3daafe3b4186f6b6457e08380a380f35b906020608492519162461bcd60e51b8352820152602960248201527f4f776e61626c6532537465703a2063616c6c6572206973206e6f7420746865206044820152683732bb9037bbb732b960b91b6064820152fd5b8382346101fd57816003193601126101fd57602090517f00000000000000000000000000000000000000000000000000000000000000008152f35b8382346101fd5760203660031901126101fd5760209181906001600160a01b03610917610d0d565b1681526007845220549051908152f35b83346101ae57806003193601126101ae57610940610d27565b600180546001600160a01b03199081169091558154908116825581906001600160a01b03167f8be0079c531659141344cd1fd0a4f28419497f9722a3daafe3b4186f6b6457e08280a380f35b909150346101d057826003193601126101d0577fe239024a023ea7c58b3973fa745ab8e45e2733ebb10f3e5c41112cfe754493f6916020916109cc610d27565b60016006546109de60ff821615610d7e565b60ff191617600655549051908152a180f35b8382346101fd57816003193601126101fd5760209060ff60065460081c1690519015158152f35b8382346101fd57816003193601126101fd57610a31610d27565b610a5360ff600654610a4482821661106b565b610285828260101c1615611031565b6002546001600160a01b03908116908115159081610b74575b5015610b41578151630d0e30db60e41b8152602094479286918391829086905af1938415610b36578094610ae4575b5050817f0793979a87d9a8a3698d9afc4736042bcc2a41b10151127638dcdef36ede4ce1918460055561010061ff0019600654161760065581519081528486820152a151908152f35b909193508482813d8311610b2f575b610afd8183610f83565b810103126101ae57505191817f0793979a87d9a8a3698d9afc4736042bcc2a41b10151127638dcdef36ede4ce1610a9b565b503d610af3565b8351903d90823e3d90fd5b815162461bcd60e51b8152602081860152600d60248201526c1d985d5b1d081b9bdd081cd95d609a1b6044820152606490fd5b905060035416151585610a6c565b8382346101fd57816003193601126101fd57602090517f00000000000000000000000000000000000000000000000000000000000000008152f35b8382346101fd57816003193601126101fd5760209060ff60065460101c1690519015158152f35b8382346101fd57816003193601126101fd576020906005549051908152f35b909150346101d057826003193601126101d05760065490610c2a60ff8360101c1615611031565b610c747f00000000000000000000000000000000000000000000000000000000000000007f0000000000000000000000000000000000000000000000000000000000000000610df4565b4210610cb6575062ff00ff19166201000117600655514281527fd681175168470800567b22d50d831df189686adc5b155827823a5ada6a97a4fe90602090a180f35b606490602084519162461bcd60e51b8352820152601060248201526f63616e6e6f74207465726d696e61746560801b6044820152fd5b8490346101fd57816003193601126101fd5760209060ff6006541615158152f35b600435906001600160a01b0382168203610d2357565b5f80fd5b5f546001600160a01b03163303610d3a57565b606460405162461bcd60e51b815260206004820152602060248201527f4f776e61626c653a2063616c6c6572206973206e6f7420746865206f776e65726044820152fd5b15610d8557565b60405162461bcd60e51b815260206004820152600e60248201526d19195c1bdcda5d081c185d5cd95960921b6044820152606490fd5b15610dc257565b60405162461bcd60e51b815260206004820152600a6024820152697a65726f2076616c756560b01b6044820152606490fd5b91908201809211610e0157565b634e487b7160e01b5f52601160045260245ffd5b6001600160a01b039091168152602081019190915260400190565b9060018060a01b03821691825f526007602052610e5160405f205483610df4565b7f000000000000000000000000000000000000000000000000000000000000000011610ed3577ec876900062bf6768530bd9be84c146f5c051f4a50a5bf7fbcdd9ed4c8fb154925f52600760205260405f20610eae838254610df4565b9055610ebc82600454610df4565b600455610ece60405192839283610e15565b0390a1565b60405162461bcd60e51b815260206004820152600b60248201526a1b9bdd08185b1b1bddd95960aa1b6044820152606490fd5b15610f0d57565b60405162461bcd60e51b815260206004820152600e60248201526d1b9bdd081d195c9b5a5b985d195960921b6044820152606490fd5b15610f4a57565b60405162461bcd60e51b815260206004820152601160248201527030b63932b0b23c903bb4ba34323930bbb760791b6044820152606490fd5b90601f801991011681019081106001600160401b03821117610fa457604052565b634e487b7160e01b5f52604160045260245ffd5b3d15610ff1573d906001600160401b038211610fa45760405191610fe6601f8201601f191660200184610f83565b82523d5f602084013e565b606090565b15610ffd57565b60405162461bcd60e51b815260206004820152600c60248201526b616c7265616479206578656360a01b6044820152606490fd5b1561103857565b60405162461bcd60e51b815260206004820152600b60248201526a081d195c9b5a5b985d195960aa1b6044820152606490fd5b1561107257565b60405162461bcd60e51b815260206004820152601260248201527119195c1bdcda5d081b9bdd081c185d5cd95960721b6044820152606490fdfea264697066735822122063534a266a5fee0df487a17b00938c903581204f389c1a93d6942c16b86b3dc764736f6c63430008150033",
  "immutableReferences": {
    "12178": [
      {
        "length": 32,
        "start": 2970
      },
      {
        "length": 32,
        "start": 3119
      }
    ],
    "12180": [
      {
        "length": 32,
        "start": 2252
      },
      {
        "length": 32,
        "start": 3152
      }
    ],
    "12182": [
      {
        "length": 32,
        "start": 2001
      },
      {
        "length": 32,
        "start": 3667
      }
    ]
  },
  "source": "// SPDX-License-Identifier: MIT\npragma solidity 0.8.21;\n\nimport {IERC20} from \"@openzeppelin/contracts/token/ERC20/IERC20.sol\";\n\nimport {TransferHelper} from \"@uniswap/v3-periphery/contracts/libraries/TransferHelper.sol\";\nimport {Ownable2Step} from \"@openzeppelin/contracts/access/Ownable2Step.sol\";\n\ninterface IVault {\n    function deposit() external payable returns (uint256 mintAmount);\n}\n\ncontract BTCL2NativeStakeStoneCarnival is Ownable2Step {\n    uint256 public immutable lockPeriod = 60 days;\n    uint256 public immutable startTime;\n    uint256 public immutable minAllowed;\n\n    address public vaultAddr;\n    address public lpAddr;\n\n    uint256 public totalBTCDeposited;\n    uint256 public finalLpAmount;\n\n    bool public depositPaused;\n    bool public isExec;\n    bool public terminated;\n\n    mapping(address => uint256) public btcDeposited;\n    mapping(address => bool) public isWithdrawn;\n\n    event BTCDeposited(address user, uint256 amount);\n    event LPWithdrawn(address user, uint256 amount, uint256 withAmount);\n    event DepositMade(uint256 btcAmount, uint256 lpAmount);\n    event BTCWithdrawn(uint256 amount);\n    event DepositPause(uint256 totalStone);\n    event Terminate(uint256 timestamp);\n    event VaultSet(address vaultAddr, address lpAddr);\n\n    constructor(uint256 _minAllowed) {\n        startTime = block.timestamp;\n        minAllowed = _minAllowed;\n    }\n\n    modifier DepositNotPaused() {\n        require(!depositPaused, \"deposit paused\");\n        _;\n    }\n\n    modifier DepositPaused() {\n        require(depositPaused, \"deposit not paused\");\n        _;\n    }\n\n    modifier OnlyTerminated() {\n        require(terminated, \"not terminated\");\n        _;\n    }\n\n    modifier NotTerminated() {\n        require(!terminated, \" terminated\");\n        _;\n    }\n\n    function deposit() external payable DepositNotPaused {\n        require(msg.value > 0, \"zero value\");\n\n        _depositStone(msg.sender, msg.value);\n    }\n\n    function depositFor(address _user) external payable DepositNotPaused {\n        require(msg.value > 0, \"zero value\");\n\n        _depositStone(_user, msg.value);\n    }\n\n    function _depositStone(address _user, uint256 _amount) internal {\n        require(_amount + btcDeposited[_user] >= minAllowed, \"not allowed\");\n\n        btcDeposited[_user] += _amount;\n        totalBTCDeposited += _amount;\n\n        emit BTCDeposited(_user, _amount);\n    }\n\n    function withdrawLP() external OnlyTerminated {\n        require(isExec, \"not exec\");\n        require(!isWithdrawn[msg.sender], \"already withdrawn\");\n\n        uint256 deposited = btcDeposited[msg.sender];\n\n        uint256 lpAmountWith = (deposited * finalLpAmount) / totalBTCDeposited;\n\n        require(lpAmountWith != 0, \"zero amount\");\n\n        isWithdrawn[msg.sender] = true;\n\n        TransferHelper.safeTransfer(lpAddr, msg.sender, lpAmountWith);\n\n        emit LPWithdrawn(msg.sender, btcDeposited[msg.sender], lpAmountWith);\n    }\n\n    function withdrawBTC() external OnlyTerminated {\n        require(!isExec, \"already exec\");\n        require(!isWithdrawn[msg.sender], \"already withdrawn\");\n\n        uint256 deposited = btcDeposited[msg.sender];\n        require(deposited != 0, \"not deposit\");\n\n        isWithdrawn[msg.sender] = true;\n\n        TransferHelper.safeTransferETH(msg.sender, deposited);\n\n        emit BTCWithdrawn(deposited);\n    }\n\n    function terminate() external NotTerminated {\n        require(block.timestamp >= startTime + lockPeriod, \"cannot terminate\");\n\n        depositPaused = true;\n        terminated = true;\n\n        emit Terminate(block.timestamp);\n    }\n\n    function forceTerminate() external onlyOwner DepositPaused {\n        depositPaused = true;\n        terminated = true;\n\n        emit Terminate(block.timestamp);\n    }\n\n    function pauseDeposit() external onlyOwner DepositNotPaused {\n        depositPaused = true;\n\n        emit DepositPause(totalBTCDeposited);\n    }\n\n    function setAddrs(address _vaultAddr, address _lpAddr) external onlyOwner {\n        require(!isExec, \"already exec\");\n        require(\n            _vaultAddr != address(0) && _lpAddr != address(0),\n            \"ZERO ADDRESS\"\n        );\n\n        vaultAddr = _vaultAddr;\n        lpAddr = _lpAddr;\n\n        emit VaultSet(vaultAddr, lpAddr);\n    }\n\n    function makeDeposit()\n        external\n        onlyOwner\n        DepositPaused\n        NotTerminated\n        returns (uint256 mintAmount)\n    {\n        require(!isExec, \"already exec\");\n        require(\n            vaultAddr != address(0) && lpAddr != address(0),\n            \"vault not set\"\n        );\n\n        uint256 amount = address(this).balance;\n\n        mintAmount = IVault(vaultAddr).deposit{value: amount}();\n        finalLpAmount = mintAmount;\n\n        isExec = true;\n\n        emit DepositMade(amount, mintAmount);\n    }\n}\n",
  "sourcePath": "/Users/mingyuzhang/Downloads/stone-vault-v1/contracts/mining/BTCL2NativeStakeStoneCarnival.sol",
  "compiler": {
    "name": "solc",
    "version": "0.8.21+commit.d9974bed.Emscripten.clang"
  },
  "schemaVersion": "3.4.16",
  "updatedAt": "2024-06-07T05:41:32.621Z",
  "devdoc": {
    "kind": "dev",
    "methods": {
      "acceptOwnership()": {
        "details": "The new owner accepts the ownership transfer."
      },
      "owner()": {
        "details": "Returns the address of the current owner."
      },
      "pendingOwner()": {
        "details": "Returns the address of the pending owner."
      },
      "renounceOwnership()": {
        "details": "Leaves the contract without owner. It will not be possible to call `onlyOwner` functions. Can only be called by the current owner. NOTE: Renouncing ownership will leave the contract without an owner, thereby disabling any functionality that is only available to the owner."
      },
      "transferOwnership(address)": {
        "details": "Starts the ownership transfer of the contract to a new account. Replaces the pending transfer if there is one. Can only be called by the current owner."
      }
    },
    "version": 1
  },
  "userdoc": {
    "kind": "user",
    "methods": {},
    "version": 1
  }
}