{
  "contractName": "DepositHelper",
  "abi": [
    {
      "inputs": [
        {
          "internalType": "address",
          "name": "_stone",
          "type": "address"
        },
        {
          "internalType": "address payable",
          "name": "_vault",
          "type": "address"
        },
        {
          "internalType": "address",
          "name": "_wallet",
          "type": "address"
        }
      ],
      "stateMutability": "nonpayable",
      "type": "constructor"
    },
    {
      "anonymous": false,
      "inputs": [
        {
          "indexed": true,
          "internalType": "address",
          "name": "srcAddr",
          "type": "address"
        },
        {
          "indexed": true,
          "internalType": "address",
          "name": "dstAddr",
          "type": "address"
        },
        {
          "indexed": true,
          "internalType": "address",
          "name": "wallet",
          "type": "address"
        },
        {
          "indexed": false,
          "internalType": "uint256",
          "name": "etherAmount",
          "type": "uint256"
        },
        {
          "indexed": false,
          "internalType": "uint256",
          "name": "stoneAmount",
          "type": "uint256"
        }
      ],
      "name": "DepositTo",
      "type": "event"
    },
    {
      "inputs": [
        {
          "internalType": "address",
          "name": "",
          "type": "address"
        }
      ],
      "name": "stakingBalance0f",
      "outputs": [
        {
          "internalType": "uint256",
          "name": "",
          "type": "uint256"
        }
      ],
      "stateMutability": "view",
      "type": "function"
    },
    {
      "inputs": [],
      "name": "stone",
      "outputs": [
        {
          "internalType": "address",
          "name": "",
          "type": "address"
        }
      ],
      "stateMutability": "view",
      "type": "function"
    },
    {
      "inputs": [],
      "name": "vault",
      "outputs": [
        {
          "internalType": "address payable",
          "name": "",
          "type": "address"
        }
      ],
      "stateMutability": "view",
      "type": "function"
    },
    {
      "inputs": [],
      "name": "wallet",
      "outputs": [
        {
          "internalType": "address",
          "name": "",
          "type": "address"
        }
      ],
      "stateMutability": "view",
      "type": "function"
    },
    {
      "inputs": [
        {
          "internalType": "address",
          "name": "_dstAddress",
          "type": "address"
        }
      ],
      "name": "deposit",
      "outputs": [
        {
          "internalType": "uint256",
          "name": "stoneMinted",
          "type": "uint256"
        }
      ],
      "stateMutability": "payable",
      "type": "function"
    }
  ],
  "bytecode": "0x60e0346100dd57601f6105fc38819003918201601f19168301916001600160401b038311848410176100e1578084926060946040528339810103126100dd57610047816100f5565b60208201516001600160a01b0380821693919291908484036100dd5761008e610075604061009794016100f5565b9560015f556100878386161515610109565b1515610109565b84161515610109565b60805260a05260c0526040516104b790816101458239608051818181610184015261041d015260a051818181606c015260eb015260c05181818161012f01526103a00152f35b5f80fd5b634e487b7160e01b5f52604160045260245ffd5b51906001600160a01b03821682036100dd57565b1561011057565b60405162461bcd60e51b815260206004820152600c60248201526b7a65726f206164647265737360a01b6044820152606490fdfe6080604081815260049182361015610015575f80fd5b5f92833560e01c9182630167eb85146104095750816340c43eff146103cf578163521eb2731461038b578163f340fa011461009f575063fbfa77cf14610059575f80fd5b3461009b578160031936011261009b57517f00000000000000000000000000000000000000000000000000000000000000006001600160a01b03168152602090f35b5080fd5b602084843660031901831361009b5783356001600160a01b03818116939184900361009b57600282541461034857600282553415610317578251630d0e30db60e41b81529385858881347f000000000000000000000000000000000000000000000000000000000000000087165af194851561030d5783956102da575b5083518681019263a9059cbb60e01b84527f000000000000000000000000000000000000000000000000000000000000000016928360248301528660448301526044825260808201916001600160401b0392818110848211176102c7578752518591829190827f00000000000000000000000000000000000000000000000000000000000000005af1903d156102bf573d9081116102ac578551906101ca601f8201601f19168a018361044c565b81523d858983013e5b8161026f575b50156102475733835260018652838320805490348201809211610234576001959697985055845134815286888201527fbb4c1ad7429e95f013be0d74b97dfe0307ecb8f3072c5684d1bdab6ce0132ab1863392a45551908152f35b634e487b7160e01b855260118952602485fd5b835162461bcd60e51b8152808801879052600260248201526114d560f21b6044820152606490fd5b80915051878115918215610288575b50509050886101d9565b83809293500103126102a85786015180151581036102a85780878a61027e565b8380fd5b634e487b7160e01b855260418952602485fd5b5060606101d3565b634e487b7160e01b875260418b52602487fd5b9094508581813d8311610306575b6102f2818361044c565b810103126103025751938761011c565b8280fd5b503d6102e8565b84513d85823e3d90fd5b825162461bcd60e51b8152808701869052600b60248201526a16915493c8105b5bdd5b9d60aa1b6044820152606490fd5b825162461bcd60e51b8152808701869052601f60248201527f5265656e7472616e637947756172643a207265656e7472616e742063616c6c006044820152606490fd5b50503461009b578160031936011261009b57517f00000000000000000000000000000000000000000000000000000000000000006001600160a01b03168152602090f35b90503461030257602036600319011261030257356001600160a01b0381169081900361030257828291602094526001845220549051908152f35b84903461009b578160031936011261009b577f00000000000000000000000000000000000000000000000000000000000000006001600160a01b03168152602090f35b90601f801991011681019081106001600160401b0382111761046d57604052565b634e487b7160e01b5f52604160045260245ffdfea2646970667358221220a6d2bba2d1889d5387f6e371f6f842fae87790472785848c3d5136ccc28635ab64736f6c63430008150033",
  "immutableReferences": {
    "13462": [
      {
        "length": 32,
        "start": 388
      },
      {
        "length": 32,
        "start": 1053
      }
    ],
    "13464": [
      {
        "length": 32,
        "start": 108
      },
      {
        "length": 32,
        "start": 235
      }
    ],
    "13466": [
      {
        "length": 32,
        "start": 303
      },
      {
        "length": 32,
        "start": 928
      }
    ]
  },
  "source": "// SPDX-License-Identifier: MIT\npragma solidity 0.8.21;\n\nimport {IStoneVault} from \"../interfaces/IStoneVault.sol\";\n\nimport {TransferHelper} from \"@uniswap/v3-periphery/contracts/libraries/TransferHelper.sol\";\nimport {ReentrancyGuard} from \"@openzeppelin/contracts/security/ReentrancyGuard.sol\";\n\ncontract DepositHelper is ReentrancyGuard {\n    address public immutable stone;\n    address payable public immutable vault;\n\n    address public immutable wallet;\n\n    mapping(address => uint256) public stakingBalance0f;\n\n    event DepositTo(\n        address indexed srcAddr,\n        address indexed dstAddr,\n        address indexed wallet,\n        uint256 etherAmount,\n        uint256 stoneAmount\n    );\n\n    constructor(address _stone, address payable _vault, address _wallet) {\n        require(_stone != address(0), \"zero address\");\n        require(_vault != address(0), \"zero address\");\n        require(_wallet != address(0), \"zero address\");\n\n        stone = _stone;\n        vault = _vault;\n        wallet = _wallet;\n    }\n\n    function deposit(\n        address _dstAddress\n    ) public payable nonReentrant returns (uint256 stoneMinted) {\n        require(msg.value > 0, \"ZERO Amount\");\n\n        IStoneVault stoneVault = IStoneVault(vault);\n        stoneMinted = stoneVault.deposit{value: msg.value}();\n\n        TransferHelper.safeTransfer(stone, wallet, stoneMinted);\n\n        stakingBalance0f[msg.sender] += msg.value;\n\n        emit DepositTo(msg.sender, _dstAddress, wallet, msg.value, stoneMinted);\n    }\n}\n",
  "sourcePath": "/Users/mingyuzhang/Downloads/stone-vault-v1/contracts/mining/DepositHelper.sol",
  "compiler": {
    "name": "solc",
    "version": "0.8.21+commit.d9974bed.Emscripten.clang"
  },
  "schemaVersion": "3.4.16",
  "updatedAt": "2024-06-07T05:41:32.625Z",
  "devdoc": {
    "kind": "dev",
    "methods": {},
    "version": 1
  },
  "userdoc": {
    "kind": "user",
    "methods": {},
    "version": 1
  }
}