{
  "contractName": "DepositBridge",
  "abi": [
    {
      "inputs": [
        {
          "internalType": "address",
          "name": "_stone",
          "type": "address"
        },
        {
          "internalType": "address payable",
          "name": "_vault",
          "type": "address"
        },
        {
          "internalType": "uint16",
          "name": "_dstChainId",
          "type": "uint16"
        }
      ],
      "stateMutability": "nonpayable",
      "type": "constructor"
    },
    {
      "anonymous": false,
      "inputs": [
        {
          "indexed": true,
          "internalType": "address",
          "name": "srcAddr",
          "type": "address"
        },
        {
          "indexed": false,
          "internalType": "bytes",
          "name": "dstAddr",
          "type": "bytes"
        },
        {
          "indexed": false,
          "internalType": "uint256",
          "name": "etherAmount",
          "type": "uint256"
        },
        {
          "indexed": false,
          "internalType": "uint256",
          "name": "stoneAmount",
          "type": "uint256"
        },
        {
          "indexed": false,
          "internalType": "uint256",
          "name": "gasPaid",
          "type": "uint256"
        }
      ],
      "name": "BridgeTo",
      "type": "event"
    },
    {
      "inputs": [],
      "name": "dstChainId",
      "outputs": [
        {
          "internalType": "uint16",
          "name": "",
          "type": "uint16"
        }
      ],
      "stateMutability": "view",
      "type": "function"
    },
    {
      "inputs": [],
      "name": "stone",
      "outputs": [
        {
          "internalType": "address",
          "name": "",
          "type": "address"
        }
      ],
      "stateMutability": "view",
      "type": "function"
    },
    {
      "inputs": [],
      "name": "vault",
      "outputs": [
        {
          "internalType": "address payable",
          "name": "",
          "type": "address"
        }
      ],
      "stateMutability": "view",
      "type": "function"
    },
    {
      "stateMutability": "payable",
      "type": "receive"
    },
    {
      "inputs": [
        {
          "internalType": "uint256",
          "name": "_amount",
          "type": "uint256"
        },
        {
          "internalType": "bytes",
          "name": "_dstAddress",
          "type": "bytes"
        },
        {
          "internalType": "uint256",
          "name": "_gasPaidForCrossChain",
          "type": "uint256"
        }
      ],
      "name": "bridgeTo",
      "outputs": [
        {
          "internalType": "uint256",
          "name": "stoneMinted",
          "type": "uint256"
        }
      ],
      "stateMutability": "payable",
      "type": "function"
    },
    {
      "inputs": [
        {
          "internalType": "address",
          "name": "_srcAddr",
          "type": "address"
        },
        {
          "internalType": "uint256",
          "name": "_amount",
          "type": "uint256"
        },
        {
          "internalType": "bytes",
          "name": "_dstAddress",
          "type": "bytes"
        },
        {
          "internalType": "uint256",
          "name": "_gasPaidForCrossChain",
          "type": "uint256"
        }
      ],
      "name": "bridge",
      "outputs": [
        {
          "internalType": "uint256",
          "name": "stoneMinted",
          "type": "uint256"
        }
      ],
      "stateMutability": "payable",
      "type": "function"
    },
    {
      "inputs": [
        {
          "internalType": "uint256",
          "name": "_amount",
          "type": "uint256"
        },
        {
          "internalType": "bytes",
          "name": "_dstAddress",
          "type": "bytes"
        }
      ],
      "name": "estimateSendFee",
      "outputs": [
        {
          "internalType": "uint256",
          "name": "nativeFee",
          "type": "uint256"
        },
        {
          "internalType": "uint256",
          "name": "zroFee",
          "type": "uint256"
        }
      ],
      "stateMutability": "view",
      "type": "function"
    }
  ],
  "bytecode": "0x60e0346100cb57601f61095a38819003918201601f19168301916001600160401b038311848410176100cf578084926060946040528339810103126100cb578051906001600160a01b039081831683036100cb57602081015191821682036100cb57604001519161ffff831683036100cb5760015f5560805260a05260c05260405161087690816100e482396080518181816102f2015281816104690152610542015260a051818181610208015261050d015260c051818181610296015281816103dc01526105a70152f35b5f80fd5b634e487b7160e01b5f52604160045260245ffdfe60806040818152600491823610156101aa575b50361561001d575f80fd5b8051906020923360601b8484015260148352818301908382106001600160401b038311176101975781835263ccb2b35d60e01b8252346044850152606484018390528282603f198661007260848201826107ec565b030181305afa91821561018d575f9261015b575b508134111561012b578134039134831161011857908592916100cd8551968794859463274d427d60e01b8652339086015260248501526080604485015260848401906107ec565b906064830152038134305af190811561010f57506100e757005b813d8311610108575b6100fa81836107ab565b8101031261010457005b5f80fd5b503d6100f0565b513d5f823e3d90fd5b601182634e487b7160e01b5f525260245ffd5b825162461bcd60e51b8152908101859052600a602482015269746f6f206c6974746c6560b01b6044820152606490fd5b61017e91925083803d8211610186575b61017581846107ab565b8601019061082a565b50905f610086565b503d61016b565b83513d5f823e3d90fd5b604190634e487b7160e01b5f525260245ffd5b5f90813560e01c9081630167eb851461045557508063274d427d1461040057806330c593f7146103c15780638b886bf214610378578063ccb2b35d1461023b5763fbfa77cf03610012579034610237578160031936011261023757517f00000000000000000000000000000000000000000000000000000000000000006001600160a01b03168152602090f35b5080fd5b50823461023757600319908382360112610374576024356001600160401b038111610370579184916102ee6102766102d39536908401610498565b9290938551906102858261077c565b8882528651632a205e3d60e01b81527f000000000000000000000000000000000000000000000000000000000000000061ffff168482015260a06024820152978896879660a48801916107cc565b923560448601528860648601528483030160848501526107ec565b03817f00000000000000000000000000000000000000000000000000000000000000006001600160a01b03165afa908115610366578291610337575b5082519182526020820152f35b90506103599150823d841161035f575b61035181836107ab565b81019061082a565b8361032a565b503d610347565b83513d84823e3d90fd5b8380fd5b8280fd5b5060603660031901126103be57602435906001600160401b0382116103be57506020926103ab6103b79236908301610498565b906044359235336104c5565b9051908152f35b80fd5b5090346102375781600319360112610237576020905161ffff7f0000000000000000000000000000000000000000000000000000000000000000168152f35b50916080366003190112610374578035926001600160a01b03841684036103be57604435906001600160401b0382116103be5750926104476103b792602095369101610498565b9060643592602435906104c5565b9050346102375781600319360112610237577f00000000000000000000000000000000000000000000000000000000000000006001600160a01b03168152602090f35b9181601f84011215610104578235916001600160401b038311610104576020838186019501011161010457565b90919492945f95600287541461073757600287558584018085116107235734106106ef5760408051630d0e30db60e41b815290969094906001600160a01b03602087600481867f000000000000000000000000000000000000000000000000000000000000000086165af19687156106ae578a976106b8575b50807f0000000000000000000000000000000000000000000000000000000000000000169516948989516105718161077c565b818152823b156102375787928785886105ff8f6105dd968f9151998a98899788966328c82b1b60e11b885230600489015261ffff7f000000000000000000000000000000000000000000000000000000000000000016602489015260e0604489015260e48801916107cc565b92606486015260848501528860a48501526003198483030160c48501526107ec565b03925af180156106ae57610664575b50907f7bade912b065eda5ac7cd77eec98b7da506abc9e62b0e70af88226eeb2b044bf939291868961064f60019a9b519687966080885260808801916107cc565b93602086015284015260608301520390a29255565b6001600160401b03811161069a5788527f7bade912b065eda5ac7cd77eec98b7da506abc9e62b0e70af88226eeb2b044bf61060e565b634e487b7160e01b8a52604160045260248afd5b89513d8c823e3d90fd5b9096506020813d82116106e7575b816106d3602093836107ab565b810103126106e35751955f61053e565b8980fd5b3d91506106c6565b60405162461bcd60e51b815260206004820152600c60248201526b1ddc9bdb99c8185b5bdd5b9d60a21b6044820152606490fd5b634e487b7160e01b88526011600452602488fd5b60405162461bcd60e51b815260206004820152601f60248201527f5265656e7472616e637947756172643a207265656e7472616e742063616c6c006044820152606490fd5b602081019081106001600160401b0382111761079757604052565b634e487b7160e01b5f52604160045260245ffd5b90601f801991011681019081106001600160401b0382111761079757604052565b908060209392818452848401375f828201840152601f01601f1916010190565b91908251928382525f5b848110610816575050825f602080949584010152601f8019910116010190565b6020818301810151848301820152016107f6565b919082604091031261010457602082519201519056fea2646970667358221220bd1e474ccb11a8efb46cd11269188452c237b006fbcd72c517e52a90c47d9a0a64736f6c63430008150033",
  "immutableReferences": {
    "13232": [
      {
        "length": 32,
        "start": 754
      },
      {
        "length": 32,
        "start": 1129
      },
      {
        "length": 32,
        "start": 1346
      }
    ],
    "13234": [
      {
        "length": 32,
        "start": 520
      },
      {
        "length": 32,
        "start": 1293
      }
    ],
    "13236": [
      {
        "length": 32,
        "start": 662
      },
      {
        "length": 32,
        "start": 988
      },
      {
        "length": 32,
        "start": 1447
      }
    ]
  },
  "source": "// SPDX-License-Identifier: MIT\npragma solidity 0.8.21;\n\nimport {IStoneVault} from \"../interfaces/IStoneVault.sol\";\nimport {IStone} from \"../interfaces/IStone.sol\";\n\nimport {ReentrancyGuard} from \"@openzeppelin/contracts/security/ReentrancyGuard.sol\";\n\ncontract DepositBridge is ReentrancyGuard {\n    address public immutable stone;\n    address payable public immutable vault;\n\n    uint16 public immutable dstChainId;\n\n    event BridgeTo(\n        address indexed srcAddr,\n        bytes dstAddr,\n        uint256 etherAmount,\n        uint256 stoneAmount,\n        uint256 gasPaid\n    );\n\n    constructor(address _stone, address payable _vault, uint16 _dstChainId) {\n        stone = _stone;\n        vault = _vault;\n\n        dstChainId = _dstChainId;\n    }\n\n    function bridgeTo(\n        uint256 _amount,\n        bytes calldata _dstAddress,\n        uint256 _gasPaidForCrossChain\n    ) public payable returns (uint256 stoneMinted) {\n        stoneMinted = bridge(\n            msg.sender,\n            _amount,\n            _dstAddress,\n            _gasPaidForCrossChain\n        );\n    }\n\n    function bridge(\n        address _srcAddr,\n        uint256 _amount,\n        bytes calldata _dstAddress,\n        uint256 _gasPaidForCrossChain\n    ) public payable nonReentrant returns (uint256 stoneMinted) {\n        require(msg.value >= _amount + _gasPaidForCrossChain, \"wrong amount\");\n\n        IStoneVault stoneVault = IStoneVault(vault);\n        stoneMinted = stoneVault.deposit{value: _amount}();\n\n        IStone stoneToken = IStone(stone);\n        stoneToken.sendFrom{value: _gasPaidForCrossChain}(\n            address(this),\n            dstChainId,\n            _dstAddress,\n            stoneMinted,\n            payable(_srcAddr),\n            address(0),\n            bytes(\"\")\n        );\n\n        emit BridgeTo(\n            _srcAddr,\n            _dstAddress,\n            _amount,\n            stoneMinted,\n            _gasPaidForCrossChain\n        );\n    }\n\n    function estimateSendFee(\n        uint256 _amount,\n        bytes calldata _dstAddress\n    ) public view returns (uint nativeFee, uint zroFee) {\n        return\n            IStone(stone).estimateSendFee(\n                dstChainId,\n                _dstAddress,\n                _amount,\n                false,\n                bytes(\"\")\n            );\n    }\n\n    receive() external payable {\n        bytes memory dstAddr = abi.encodePacked(msg.sender);\n\n        (uint nativeFee, ) = this.estimateSendFee(msg.value, dstAddr);\n\n        require(msg.value > nativeFee, \"too little\");\n\n        uint256 amount = msg.value - nativeFee;\n\n        this.bridge{value: msg.value}(msg.sender, amount, dstAddr, nativeFee);\n    }\n}\n",
  "sourcePath": "/Users/mingyuzhang/Downloads/stone-vault-v1/contracts/mining/DepositBridge.sol",
  "compiler": {
    "name": "solc",
    "version": "0.8.21+commit.d9974bed.Emscripten.clang"
  },
  "schemaVersion": "3.4.16",
  "updatedAt": "2024-06-07T05:41:32.624Z",
  "devdoc": {
    "kind": "dev",
    "methods": {},
    "version": 1
  },
  "userdoc": {
    "kind": "user",
    "methods": {},
    "version": 1
  }
}