{
  "contractName": "EigenLSTRestaking",
  "abi": [
    {
      "inputs": [
        {
          "internalType": "address payable",
          "name": "_controller",
          "type": "address"
        },
        {
          "internalType": "address",
          "name": "_tokenAddr",
          "type": "address"
        },
        {
          "internalType": "address",
          "name": "_lidoWithdrawalQueue",
          "type": "address"
        },
        {
          "internalType": "address",
          "name": "_strategyManager",
          "type": "address"
        },
        {
          "internalType": "address",
          "name": "_delegationManager",
          "type": "address"
        },
        {
          "internalType": "address",
          "name": "_eigenStrategy",
          "type": "address"
        },
        {
          "internalType": "address payable",
          "name": "_swap",
          "type": "address"
        },
        {
          "internalType": "string",
          "name": "_name",
          "type": "string"
        }
      ],
      "stateMutability": "nonpayable",
      "type": "constructor"
    },
    {
      "anonymous": false,
      "inputs": [
        {
          "indexed": false,
          "internalType": "address",
          "name": "operator",
          "type": "address"
        }
      ],
      "name": "DelegateTo",
      "type": "event"
    },
    {
      "anonymous": false,
      "inputs": [
        {
          "indexed": false,
          "internalType": "address",
          "name": "strategy",
          "type": "address"
        },
        {
          "indexed": false,
          "internalType": "address",
          "name": "token",
          "type": "address"
        },
        {
          "indexed": false,
          "internalType": "uint256",
          "name": "amount",
          "type": "uint256"
        }
      ],
      "name": "DepositIntoStrategy",
      "type": "event"
    },
    {
      "anonymous": false,
      "inputs": [
        {
          "indexed": true,
          "internalType": "address",
          "name": "targetAddress",
          "type": "address"
        },
        {
          "indexed": false,
          "internalType": "uint256",
          "name": "value",
          "type": "uint256"
        },
        {
          "indexed": false,
          "internalType": "bytes",
          "name": "data",
          "type": "bytes"
        }
      ],
      "name": "Invoked",
      "type": "event"
    },
    {
      "anonymous": false,
      "inputs": [
        {
          "indexed": true,
          "internalType": "address",
          "name": "previousOwner",
          "type": "address"
        },
        {
          "indexed": true,
          "internalType": "address",
          "name": "newOwner",
          "type": "address"
        }
      ],
      "name": "OwnershipTransferStarted",
      "type": "event"
    },
    {
      "anonymous": false,
      "inputs": [
        {
          "indexed": true,
          "internalType": "address",
          "name": "previousOwner",
          "type": "address"
        },
        {
          "indexed": true,
          "internalType": "address",
          "name": "newOwner",
          "type": "address"
        }
      ],
      "name": "OwnershipTransferred",
      "type": "event"
    },
    {
      "anonymous": false,
      "inputs": [
        {
          "indexed": false,
          "internalType": "address",
          "name": "oldOperator",
          "type": "address"
        },
        {
          "indexed": false,
          "internalType": "address",
          "name": "newOperator",
          "type": "address"
        }
      ],
      "name": "SetEigenOperator",
      "type": "event"
    },
    {
      "anonymous": false,
      "inputs": [
        {
          "indexed": false,
          "internalType": "address",
          "name": "oldAddr",
          "type": "address"
        },
        {
          "indexed": false,
          "internalType": "address",
          "name": "newAddr",
          "type": "address"
        }
      ],
      "name": "SetReferral",
      "type": "event"
    },
    {
      "anonymous": false,
      "inputs": [
        {
          "indexed": false,
          "internalType": "bool",
          "name": "buyOnDex",
          "type": "bool"
        },
        {
          "indexed": false,
          "internalType": "bool",
          "name": "sellOnDex",
          "type": "bool"
        }
      ],
      "name": "SetRouter",
      "type": "event"
    },
    {
      "anonymous": false,
      "inputs": [
        {
          "indexed": false,
          "internalType": "uint256",
          "name": "length",
          "type": "uint256"
        },
        {
          "indexed": false,
          "internalType": "uint256",
          "name": "amount",
          "type": "uint256"
        }
      ],
      "name": "SetWithdrawQueueParams",
      "type": "event"
    },
    {
      "anonymous": false,
      "inputs": [
        {
          "indexed": false,
          "internalType": "address",
          "name": "from",
          "type": "address"
        },
        {
          "indexed": false,
          "internalType": "address",
          "name": "to",
          "type": "address"
        },
        {
          "indexed": false,
          "internalType": "uint256",
          "name": "sent",
          "type": "uint256"
        },
        {
          "indexed": false,
          "internalType": "uint256",
          "name": "received",
          "type": "uint256"
        }
      ],
      "name": "Swap",
      "type": "event"
    },
    {
      "anonymous": false,
      "inputs": [
        {
          "indexed": false,
          "internalType": "address",
          "name": "oldOwner",
          "type": "address"
        },
        {
          "indexed": false,
          "internalType": "address",
          "name": "newOwner",
          "type": "address"
        }
      ],
      "name": "TransferGovernance",
      "type": "event"
    },
    {
      "anonymous": false,
      "inputs": [
        {
          "components": [
            {
              "internalType": "address",
              "name": "staker",
              "type": "address"
            },
            {
              "internalType": "address",
              "name": "delegatedTo",
              "type": "address"
            },
            {
              "internalType": "address",
              "name": "withdrawer",
              "type": "address"
            },
            {
              "internalType": "uint256",
              "name": "nonce",
              "type": "uint256"
            },
            {
              "internalType": "uint32",
              "name": "startBlock",
              "type": "uint32"
            },
            {
              "internalType": "address[]",
              "name": "strategies",
              "type": "address[]"
            },
            {
              "internalType": "uint256[]",
              "name": "shares",
              "type": "uint256[]"
            }
          ],
          "indexed": false,
          "internalType": "struct IDelegationManager.Withdrawal",
          "name": "withdrawal",
          "type": "tuple"
        },
        {
          "indexed": false,
          "internalType": "bytes32",
          "name": "root",
          "type": "bytes32"
        }
      ],
      "name": "WithdrawalCompleted",
      "type": "event"
    },
    {
      "anonymous": false,
      "inputs": [
        {
          "indexed": false,
          "internalType": "bytes32",
          "name": "withdrawalRoot",
          "type": "bytes32"
        }
      ],
      "name": "WithdrawalQueued",
      "type": "event"
    },
    {
      "inputs": [],
      "name": "LidoWithdrawalQueue",
      "outputs": [
        {
          "internalType": "address",
          "name": "",
          "type": "address"
        }
      ],
      "stateMutability": "view",
      "type": "function"
    },
    {
      "inputs": [],
      "name": "SWAPPING",
      "outputs": [
        {
          "internalType": "address payable",
          "name": "",
          "type": "address"
        }
      ],
      "stateMutability": "view",
      "type": "function"
    },
    {
      "inputs": [],
      "name": "acceptOwnership",
      "outputs": [],
      "stateMutability": "nonpayable",
      "type": "function"
    },
    {
      "inputs": [],
      "name": "bufferTime",
      "outputs": [
        {
          "internalType": "uint256",
          "name": "",
          "type": "uint256"
        }
      ],
      "stateMutability": "view",
      "type": "function"
    },
    {
      "inputs": [],
      "name": "buyOnDex",
      "outputs": [
        {
          "internalType": "bool",
          "name": "",
          "type": "bool"
        }
      ],
      "stateMutability": "view",
      "type": "function"
    },
    {
      "inputs": [],
      "name": "checkPendingStatus",
      "outputs": [
        {
          "internalType": "uint256",
          "name": "pending",
          "type": "uint256"
        },
        {
          "internalType": "uint256",
          "name": "executable",
          "type": "uint256"
        }
      ],
      "stateMutability": "nonpayable",
      "type": "function"
    },
    {
      "inputs": [],
      "name": "controller",
      "outputs": [
        {
          "internalType": "address payable",
          "name": "",
          "type": "address"
        }
      ],
      "stateMutability": "view",
      "type": "function"
    },
    {
      "inputs": [],
      "name": "delegationManager",
      "outputs": [
        {
          "internalType": "address",
          "name": "",
          "type": "address"
        }
      ],
      "stateMutability": "view",
      "type": "function"
    },
    {
      "inputs": [],
      "name": "eigenOperator",
      "outputs": [
        {
          "internalType": "address",
          "name": "",
          "type": "address"
        }
      ],
      "stateMutability": "view",
      "type": "function"
    },
    {
      "inputs": [],
      "name": "eigenStrategy",
      "outputs": [
        {
          "internalType": "address",
          "name": "",
          "type": "address"
        }
      ],
      "stateMutability": "view",
      "type": "function"
    },
    {
      "inputs": [
        {
          "internalType": "uint256",
          "name": "_amount",
          "type": "uint256"
        }
      ],
      "name": "execPendingRequest",
      "outputs": [
        {
          "internalType": "uint256",
          "name": "amount",
          "type": "uint256"
        }
      ],
      "stateMutability": "nonpayable",
      "type": "function"
    },
    {
      "inputs": [],
      "name": "getPendingValue",
      "outputs": [
        {
          "internalType": "uint256",
          "name": "value",
          "type": "uint256"
        }
      ],
      "stateMutability": "nonpayable",
      "type": "function"
    },
    {
      "inputs": [],
      "name": "latestUpdateTime",
      "outputs": [
        {
          "internalType": "uint256",
          "name": "",
          "type": "uint256"
        }
      ],
      "stateMutability": "view",
      "type": "function"
    },
    {
      "inputs": [],
      "name": "name",
      "outputs": [
        {
          "internalType": "string",
          "name": "",
          "type": "string"
        }
      ],
      "stateMutability": "view",
      "type": "function"
    },
    {
      "inputs": [],
      "name": "owner",
      "outputs": [
        {
          "internalType": "address",
          "name": "",
          "type": "address"
        }
      ],
      "stateMutability": "view",
      "type": "function"
    },
    {
      "inputs": [],
      "name": "pendingOwner",
      "outputs": [
        {
          "internalType": "address",
          "name": "",
          "type": "address"
        }
      ],
      "stateMutability": "view",
      "type": "function"
    },
    {
      "inputs": [],
      "name": "referral",
      "outputs": [
        {
          "internalType": "address",
          "name": "",
          "type": "address"
        }
      ],
      "stateMutability": "view",
      "type": "function"
    },
    {
      "inputs": [],
      "name": "renounceOwnership",
      "outputs": [],
      "stateMutability": "nonpayable",
      "type": "function"
    },
    {
      "inputs": [],
      "name": "sellOnDex",
      "outputs": [
        {
          "internalType": "bool",
          "name": "",
          "type": "bool"
        }
      ],
      "stateMutability": "view",
      "type": "function"
    },
    {
      "inputs": [
        {
          "internalType": "uint256",
          "name": "_time",
          "type": "uint256"
        }
      ],
      "name": "setBufferTime",
      "outputs": [],
      "stateMutability": "nonpayable",
      "type": "function"
    },
    {
      "inputs": [],
      "name": "strategyManager",
      "outputs": [
        {
          "internalType": "address",
          "name": "",
          "type": "address"
        }
      ],
      "stateMutability": "view",
      "type": "function"
    },
    {
      "inputs": [],
      "name": "tokenAddr",
      "outputs": [
        {
          "internalType": "address",
          "name": "",
          "type": "address"
        }
      ],
      "stateMutability": "view",
      "type": "function"
    },
    {
      "inputs": [
        {
          "internalType": "address",
          "name": "newOwner",
          "type": "address"
        }
      ],
      "name": "transferOwnership",
      "outputs": [],
      "stateMutability": "nonpayable",
      "type": "function"
    },
    {
      "inputs": [
        {
          "internalType": "uint256",
          "name": "",
          "type": "uint256"
        }
      ],
      "name": "withdrawals",
      "outputs": [
        {
          "internalType": "bytes32",
          "name": "",
          "type": "bytes32"
        }
      ],
      "stateMutability": "view",
      "type": "function"
    },
    {
      "inputs": [
        {
          "internalType": "bytes32",
          "name": "",
          "type": "bytes32"
        }
      ],
      "name": "withdrawingShares",
      "outputs": [
        {
          "internalType": "uint256",
          "name": "",
          "type": "uint256"
        }
      ],
      "stateMutability": "view",
      "type": "function"
    },
    {
      "stateMutability": "payable",
      "type": "receive"
    },
    {
      "inputs": [],
      "name": "deposit",
      "outputs": [],
      "stateMutability": "payable",
      "type": "function"
    },
    {
      "inputs": [
        {
          "internalType": "uint256",
          "name": "_amount",
          "type": "uint256"
        }
      ],
      "name": "withdraw",
      "outputs": [
        {
          "internalType": "uint256",
          "name": "actualAmount",
          "type": "uint256"
        }
      ],
      "stateMutability": "nonpayable",
      "type": "function"
    },
    {
      "inputs": [
        {
          "internalType": "uint256",
          "name": "_amount",
          "type": "uint256"
        }
      ],
      "name": "instantWithdraw",
      "outputs": [
        {
          "internalType": "uint256",
          "name": "actualAmount",
          "type": "uint256"
        }
      ],
      "stateMutability": "nonpayable",
      "type": "function"
    },
    {
      "inputs": [],
      "name": "clear",
      "outputs": [
        {
          "internalType": "uint256",
          "name": "amount",
          "type": "uint256"
        }
      ],
      "stateMutability": "nonpayable",
      "type": "function"
    },
    {
      "inputs": [],
      "name": "getAllValue",
      "outputs": [
        {
          "internalType": "uint256",
          "name": "value",
          "type": "uint256"
        }
      ],
      "stateMutability": "nonpayable",
      "type": "function"
    },
    {
      "inputs": [],
      "name": "getInvestedValue",
      "outputs": [
        {
          "internalType": "uint256",
          "name": "value",
          "type": "uint256"
        }
      ],
      "stateMutability": "nonpayable",
      "type": "function"
    },
    {
      "inputs": [
        {
          "internalType": "uint256",
          "name": "_amount",
          "type": "uint256"
        }
      ],
      "name": "depositIntoStrategy",
      "outputs": [
        {
          "internalType": "uint256",
          "name": "shares",
          "type": "uint256"
        }
      ],
      "stateMutability": "nonpayable",
      "type": "function"
    },
    {
      "inputs": [
        {
          "components": [
            {
              "internalType": "bytes",
              "name": "signature",
              "type": "bytes"
            },
            {
              "internalType": "uint256",
              "name": "expiry",
              "type": "uint256"
            }
          ],
          "internalType": "struct IDelegationManager.SignatureWithExpiry",
          "name": "_approverSignatureAndExpiry",
          "type": "tuple"
        },
        {
          "internalType": "bytes32",
          "name": "_approverSalt",
          "type": "bytes32"
        }
      ],
      "name": "delegateTo",
      "outputs": [],
      "stateMutability": "nonpayable",
      "type": "function"
    },
    {
      "inputs": [],
      "name": "undelegate",
      "outputs": [
        {
          "internalType": "bytes32[]",
          "name": "withdrawalRoots",
          "type": "bytes32[]"
        }
      ],
      "stateMutability": "nonpayable",
      "type": "function"
    },
    {
      "inputs": [
        {
          "components": [
            {
              "internalType": "address[]",
              "name": "strategies",
              "type": "address[]"
            },
            {
              "internalType": "uint256[]",
              "name": "shares",
              "type": "uint256[]"
            },
            {
              "internalType": "address",
              "name": "withdrawer",
              "type": "address"
            }
          ],
          "internalType": "struct IDelegationManager.QueuedWithdrawalParams[]",
          "name": "_queuedWithdrawalParams",
          "type": "tuple[]"
        }
      ],
      "name": "queueWithdrawals",
      "outputs": [
        {
          "internalType": "bytes32[]",
          "name": "withdrawalRoots",
          "type": "bytes32[]"
        }
      ],
      "stateMutability": "nonpayable",
      "type": "function"
    },
    {
      "inputs": [
        {
          "components": [
            {
              "internalType": "address",
              "name": "staker",
              "type": "address"
            },
            {
              "internalType": "address",
              "name": "delegatedTo",
              "type": "address"
            },
            {
              "internalType": "address",
              "name": "withdrawer",
              "type": "address"
            },
            {
              "internalType": "uint256",
              "name": "nonce",
              "type": "uint256"
            },
            {
              "internalType": "uint32",
              "name": "startBlock",
              "type": "uint32"
            },
            {
              "internalType": "address[]",
              "name": "strategies",
              "type": "address[]"
            },
            {
              "internalType": "uint256[]",
              "name": "shares",
              "type": "uint256[]"
            }
          ],
          "internalType": "struct IDelegationManager.Withdrawal",
          "name": "_withdrawal",
          "type": "tuple"
        },
        {
          "internalType": "contract IERC20[]",
          "name": "_tokens",
          "type": "address[]"
        },
        {
          "internalType": "uint256",
          "name": "_middlewareTimesIndex",
          "type": "uint256"
        },
        {
          "internalType": "bool",
          "name": "_receiveAsTokens",
          "type": "bool"
        }
      ],
      "name": "completeQueuedWithdrawal",
      "outputs": [],
      "stateMutability": "nonpayable",
      "type": "function"
    },
    {
      "inputs": [
        {
          "internalType": "uint256",
          "name": "_amount",
          "type": "uint256"
        }
      ],
      "name": "swapToToken",
      "outputs": [
        {
          "internalType": "uint256",
          "name": "tokenAmount",
          "type": "uint256"
        }
      ],
      "stateMutability": "nonpayable",
      "type": "function"
    },
    {
      "inputs": [
        {
          "internalType": "uint256",
          "name": "_amount",
          "type": "uint256"
        }
      ],
      "name": "swapToEther",
      "outputs": [
        {
          "internalType": "uint256",
          "name": "etherAmount",
          "type": "uint256"
        }
      ],
      "stateMutability": "nonpayable",
      "type": "function"
    },
    {
      "inputs": [
        {
          "internalType": "bool",
          "name": "_buyOnDex",
          "type": "bool"
        },
        {
          "internalType": "bool",
          "name": "_sellOnDex",
          "type": "bool"
        }
      ],
      "name": "setRouter",
      "outputs": [],
      "stateMutability": "nonpayable",
      "type": "function"
    },
    {
      "inputs": [
        {
          "internalType": "address",
          "name": "_operator",
          "type": "address"
        }
      ],
      "name": "setEigenOperator",
      "outputs": [],
      "stateMutability": "nonpayable",
      "type": "function"
    },
    {
      "inputs": [
        {
          "internalType": "address",
          "name": "_referral",
          "type": "address"
        }
      ],
      "name": "setReferral",
      "outputs": [],
      "stateMutability": "nonpayable",
      "type": "function"
    },
    {
      "inputs": [
        {
          "internalType": "uint256[]",
          "name": "_ids",
          "type": "uint256[]"
        }
      ],
      "name": "claimPendingAssets",
      "outputs": [],
      "stateMutability": "nonpayable",
      "type": "function"
    },
    {
      "inputs": [],
      "name": "claimAllPendingAssets",
      "outputs": [],
      "stateMutability": "nonpayable",
      "type": "function"
    },
    {
      "inputs": [],
      "name": "checkPendingAssets",
      "outputs": [
        {
          "internalType": "uint256[]",
          "name": "ids",
          "type": "uint256[]"
        },
        {
          "internalType": "uint256",
          "name": "totalClaimable",
          "type": "uint256"
        },
        {
          "internalType": "uint256",
          "name": "totalPending",
          "type": "uint256"
        }
      ],
      "stateMutability": "nonpayable",
      "type": "function"
    },
    {
      "inputs": [],
      "name": "getRestakingValue",
      "outputs": [
        {
          "internalType": "uint256",
          "name": "value",
          "type": "uint256"
        }
      ],
      "stateMutability": "view",
      "type": "function"
    },
    {
      "inputs": [],
      "name": "getUnstakingValue",
      "outputs": [
        {
          "internalType": "uint256",
          "name": "value",
          "type": "uint256"
        }
      ],
      "stateMutability": "view",
      "type": "function"
    },
    {
      "inputs": [],
      "name": "getWithdrawalRoots",
      "outputs": [
        {
          "internalType": "bytes32[]",
          "name": "roots",
          "type": "bytes32[]"
        }
      ],
      "stateMutability": "view",
      "type": "function"
    },
    {
      "inputs": [
        {
          "components": [
            {
              "internalType": "address",
              "name": "staker",
              "type": "address"
            },
            {
              "internalType": "address",
              "name": "delegatedTo",
              "type": "address"
            },
            {
              "internalType": "address",
              "name": "withdrawer",
              "type": "address"
            },
            {
              "internalType": "uint256",
              "name": "nonce",
              "type": "uint256"
            },
            {
              "internalType": "uint32",
              "name": "startBlock",
              "type": "uint32"
            },
            {
              "internalType": "address[]",
              "name": "strategies",
              "type": "address[]"
            },
            {
              "internalType": "uint256[]",
              "name": "shares",
              "type": "uint256[]"
            }
          ],
          "internalType": "struct IDelegationManager.Withdrawal",
          "name": "withdrawal",
          "type": "tuple"
        }
      ],
      "name": "calculateWithdrawalRoot",
      "outputs": [
        {
          "internalType": "bytes32",
          "name": "",
          "type": "bytes32"
        }
      ],
      "stateMutability": "pure",
      "type": "function"
    },
    {
      "inputs": [
        {
          "internalType": "address",
          "name": "target",
          "type": "address"
        },
        {
          "internalType": "bytes",
          "name": "data",
          "type": "bytes"
        }
      ],
      "name": "invoke",
      "outputs": [
        {
          "internalType": "bytes",
          "name": "result",
          "type": "bytes"
        }
      ],
      "stateMutability": "nonpayable",
      "type": "function"
    }
  ],
  "bytecode": "0x610160604052346200046a576200392a803803806200001e816200046e565b92833981016101009182818303126200046a576200003c8162000494565b60206200004b81840162000494565b936200005a6040850162000494565b94620000696060860162000494565b91620000786080870162000494565b936200008760a0880162000494565b956200009660c0890162000494565b60e089015190986001600160401b0391908282116200046a570191601f8581850112156200046a5783518381116200044157601f1994620000dd828401871688016200046e565b978289528783830101116200046a5786905f5b838110620004555750505f91880101819052600180546001600160a01b03199081168255825433918116821784556001600160a01b039892959293908916907f8be0079c531659141344cd1fd0a4f28419497f9722a3daafe3b4186f6b6457e09080a3600c600355620001678782161515620004a9565b6080528651938411620004415760049485548481811c9116801562000436575b838210146200042357838111620003db575b50819285116001146200036c57505082918291620001fa975f9462000360575b50501b915f199060031b1c19161790555b8083161515908162000353575b8162000346575b8162000339575b816200032c575b816200031f575b50620004a9565b60a05261012094855260c05260e0528352610140908152604051916134449384620004e685396080518481816108e701528181610d3301528181611fba015281816122570152818161229c0152612420015260a0518481816109ca01528181610a2a01528181610abb0152818161100b0152818161121e015281816112f6015281816118610152611b70015260c051848181610ba301526112d4015260e05184818161068001528181610c4f015281816110b10152818161170a015281816120e70152612637015251838181611322015281816116ac0152818161202a0152818161317a01526131d801525182818161037801528181611a8101528181611c040152818161213e0152612fcf015251818181610af9015281816115d10152611e6a0152f35b9050861615155f620001f3565b86811615159150620001ec565b85811615159150620001e5565b84811615159150620001de565b88811615159150620001d7565b015192505f80620001b9565b8497919395969716865f52835f20935f905b828210620003c35750509084620001fa9897969594939210620003aa575b505050811b019055620001ca565b01515f1960f88460031b161c191690555f80806200039c565b8088869782949787015181550196019401906200037e565b865f52825f208480880160051c82019285891062000419575b0160051c019085905b8281106200040d57505062000199565b5f8155018590620003fd565b92508192620003f4565b602287634e487b7160e01b5f525260245ffd5b90607f169062000187565b634e487b7160e01b5f52604160045260245ffd5b8181018301518a8201840152889201620000f0565b5f80fd5b6040519190601f01601f191682016001600160401b038111838210176200044157604052565b51906001600160a01b03821682036200046a57565b15620004b157565b60405162461bcd60e51b815260206004820152600c60248201526b5a45524f204144445245535360a01b6044820152606490fdfe6080604052600436101561001a575b3615610018575f80fd5b005b5f3560e01c80621a55971461032357806304e7b5161461031e57806306fdde03146103195780630dd8dd02146103145780631441a5a91461030f5780631aac030c1461030a5780631c2ca2fd146103055780632b26160e146103005780632e1a7d4d146102fb57806331ff6d9d146102f657806334dfd55c146102f157806339b70e38146102ec5780634f19c35f146102e757806352efea6e146102e2578063597b36da146102dd5780635cc07076146102d85780635fbe4d1d146102d357806360d7faed146102ce5780636c23ab4c146102ba5780636f81a6b0146102c9578063715018a6146102c457806375421af3146102bf5780637654f7ab146102ba57806379ba5097146102b55780637f2207be146102b05780638abd97fb146102ab5780638c9bd7c6146102a65780638da5cb5b146102a1578063924f4f6e1461029c57806392ab89bb1461029757806394087747146102925780639bb66b281461028d5780639e5914da14610288578063a7ea3b1114610283578063ad6a71251461027e578063ba7b670314610279578063be8478f914610274578063ce9c79fb1461026f578063d0e30db01461026a578063db4df76114610265578063dd07d28814610260578063ddcc3ded1461025b578063df52b28714610256578063e30c397814610251578063ea4d3c9b1461024c578063eea94dab14610247578063f2fde38b14610242578063f77c47911461023d5763fd92bff20361000e57612286565b612242565b6121d8565b612116565b6120d2565b6120aa565b612090565b612076565b612059565b612015565b611faa565b611f37565b611b4f565b611b32565b611a38565b6119a9565b611923565b61180e565b611785565b611667565b61164c565b611625565b611600565b6115bc565b61153c565b61147f565b6111f1565b611460565b6113fb565b6112b6565b611044565b610ff6565b610fa6565b610f3b565b610d1f565b610bf0565b610b8e565b610b69565b61094b565b6108d1565b6108a7565b610869565b610815565b6107ed565b61060b565b610497565b610363565b610336565b5f91031261033257565b5f80fd5b34610332575f3660031901126103325760206040515f8152f35b6001600160a01b03909116815260200190565b34610332575f366003190112610332576040517f00000000000000000000000000000000000000000000000000000000000000006001600160a01b03168152602090f35b634e487b7160e01b5f52604160045260245ffd5b6001600160401b0381116103ce57604052565b6103a7565b604081019081106001600160401b038211176103ce57604052565b60c081019081106001600160401b038211176103ce57604052565b602081019081106001600160401b038211176103ce57604052565b90601f801991011681019081106001600160401b038211176103ce57604052565b91908251928382525f5b84811061046f575050825f602080949584010152601f8019910116010190565b60208183018101518483018201520161044f565b906020610494928181520190610445565b90565b34610332575f8060031936011261059e5760405190806004549060019180831c92808216928315610594575b602092838610851461058057858852602088019490811561055f5750600114610507575b610503876104f781890382610424565b60405191829182610483565b0390f35b60045f5294509192917f8a35acfbc15ff81a39ae7d344fd709f28e8600b4aa8c65c6b64bfe7fe36bd19b5b83861061054e57505050910190506104f7826105035f806104e7565b805485870152948201948101610532565b60ff191685525050505090151560051b0190506104f7826105035f806104e7565b634e487b7160e01b82526022600452602482fd5b93607f16936104c3565b80fd5b9181601f84011215610332578235916001600160401b038311610332576020808501948460051b01011161033257565b602090816040818301928281528551809452019301915f5b8281106105f7575050505090565b8351855293810193928101926001016105e9565b34610332576020366003190112610332576004356001600160401b0381116103325761063b9036906004016105a1565b6106436122cb565b60018114806107d5575b806107b2575b61065c9061280f565b6040516306ec6e8160e11b8152915f838061067b8585600484016128eb565b0381837f00000000000000000000000000000000000000000000000000000000000000006001600160a01b03165af19182156107ad57610503935f93610756575b507f492bda9daea20b83c49f715949876cc4f0d2b23fc2603a6e086ba8452a80a63a9161072361071d610713610747946106f960018951146129b0565b610702886129f2565b519461070d86612a1c565b506127bf565b60208101906127da565b90612a13565b35610736825f52600860205260405f2090565b556040519081529081906020820190565b0390a1604051918291826105d1565b9161072361071d6107136107a17f492bda9daea20b83c49f715949876cc4f0d2b23fc2603a6e086ba8452a80a63a9661074796983d8091833e6107998183610424565b810190612746565b969450505050916106bc565b612514565b5061065c60016107cb6107c584866127bf565b806127da565b9050149050610653565b5060016107e561071383856127bf565b90501461064d565b34610332575f366003190112610332576005546040516001600160a01b039091168152602090f35b346103325760203660031901126103325761082e6122cb565b600435600355005b9081518082526020808093019301915f5b828110610855575050505090565b835185529381019392810192600101610847565b34610332575f36600319011261033257610898610884612fbb565b604051938493606085526060850190610836565b91602084015260408301520390f35b34610332576020366003190112610332576004355f526008602052602060405f2054604051908152f35b34610332576020366003190112610332576109167f00000000000000000000000000000000000000000000000000000000000000006001600160a01b03163314612322565b6002546003548101809111610946576109319042101561238e565b602061093e600435612407565b604051908152f35b61235f565b3461033257602080600319360112610332576004356109686122cb565b5f610974821515612c44565b61098047831115612c76565b6006546109919060a01c60ff161590565b15610aa4575060055460405163a1903eab60e01b815292908190849081906109c5906001600160a01b031660048301610350565b0381857f00000000000000000000000000000000000000000000000000000000000000006001600160a01b03165af180156107ad57610503935f805160206133ef833981519152925f92610a77575b505080925b604080515f81526001600160a01b037f000000000000000000000000000000000000000000000000000000000000000016602082015290810191909152606081019190915280608081015b0390a16040519081529081906020820190565b610a969250803d10610a9d575b610a8e8183610424565b810190612505565b5f80610a14565b503d610a84565b60405163919722bb60e01b81526001600160a01b037f0000000000000000000000000000000000000000000000000000000000000000166004820152602481018390525f6044820152838180606481010381867f00000000000000000000000000000000000000000000000000000000000000006001600160a01b03165af19081156107ad57610503945f805160206133ef8339815191529392610b4c575b50508092610a19565b610b629250803d10610a9d57610a8e8183610424565b5f80610b43565b34610332575f36600319011261033257602060ff60065460a01c166040519015158152f35b34610332575f366003190112610332576040517f00000000000000000000000000000000000000000000000000000000000000006001600160a01b03168152602090f35b6001600160a01b0381160361033257565b3590610bee82610bd2565b565b3461033257602036600319011261033257600435610c0d81610bd2565b610c156122cb565b6001600160a01b0390610c2b8183161515612e3d565b602060405180936336b87bd760e11b82528180610c4b8660048301610350565b03917f0000000000000000000000000000000000000000000000000000000000000000165afa9182156107ad5761001892610c8d915f91610cf1575b50612e75565b6006547fd1141b3ae23758a51cb470527ddee6ed4146eccf6c201b1579fdd24b501b6b769082906001600160a01b0316610ccc60405192839283612eb0565b0390a1600680546001600160a01b0319166001600160a01b0392909216919091179055565b610d12915060203d8111610d18575b610d0a8183610424565b81019061255c565b5f610c87565b503d610d00565b34610332575f3660031901126103325760207f00000000000000000000000000000000000000000000000000000000000000006001600160a01b0316610d66338214612322565b5f90479081610d7a575b5050604051908152f35b81925090610d87916124b4565b5f80610d70565b6040519060e082018281106001600160401b038211176103ce57604052565b359063ffffffff8216820361033257565b6001600160401b0381116103ce5760051b60200190565b9080601f83011215610332576020908235610def81610dbe565b93610dfd6040519586610424565b818552838086019260051b820101928311610332578301905b828210610e24575050505090565b8380918335610e3281610bd2565b815201910190610e16565b9080601f83011215610332576020908235610e5781610dbe565b93610e656040519586610424565b818552838086019260051b820101928311610332578301905b828210610e8c575050505090565b81358152908301908301610e7e565b91909160e08184031261033257610eb0610d8e565b92610eba82610be3565b8452610ec860208301610be3565b6020850152610ed960408301610be3565b604085015260608201356060850152610ef460808301610dad565b60808501526001600160401b0360a08301358181116103325782610f19918501610dd5565b60a086015260c083013590811161033257610f349201610e3d565b60c0830152565b34610332576020366003190112610332576004356001600160401b0381116103325761093e610f706020923690600401610e9b565b613346565b634e487b7160e01b5f52603260045260245ffd5b600954811015610fa15760095f5260205f2001905f90565b610f75565b34610332576020366003190112610332576004356007548110156103325760075f527fa66cc928b5edb82af9bd49922954155ab7b0942694bea4ce44661d9a8736c6880154604051908152602090f35b34610332575f366003190112610332576040517f00000000000000000000000000000000000000000000000000000000000000006001600160a01b03168152602090f35b8015150361033257565b3461033257600319608036820112610332576004356001600160401b038082116103325760e08383600401933603011261033257602435908111610332576110909036906004016105a1565b929060643561109e8161103a565b6110a66122cb565b6001600160a01b03947f0000000000000000000000000000000000000000000000000000000000000000861693843b15610332576040516360d7faed60e01b815260806004820152968794939290916111026084870189612a8e565b90868203016024870152818152602080910194925f905b8382106111c557878a5f828c8183818e8e60443560448401521515606483015203925af19182156107ad577fb04a02414a4ef8abdbc7835d387014794dc0e3e268f7eaf43dee3481db211b30926111ac575b50611179610f703683610e9b565b905f61118d835f52600860205260405f2090565b5561119782612b99565b506111a760405192839283612b31565b0390a1005b806111b96111bf926103bb565b80610328565b8261116b565b9184975080600192949697848297356111dd81610bd2565b168152019701920189969594929391611119565b34610332575f366003190112610332576040516370a0823160e01b815230600482015247906020816024817f00000000000000000000000000000000000000000000000000000000000000006001600160a01b03165afa9081156107ad575f91611298575b5061125f612fbb565b9291509261126b61315f565b6112736131cd565b9282018092116109465761129361093e9461129360209761129395612381565b612381565b6112b0915060203d8111610a9d57610a8e8183610424565b5f611256565b34610332576020366003190112610332576004356112d26122cb565b7f0000000000000000000000000000000000000000000000000000000000000000907f0000000000000000000000000000000000000000000000000000000000000000611320828483612571565b7f000000000000000000000000000000000000000000000000000000000000000090602060405180956373d0285560e11b8252815f8161136589888a6004850161251f565b03926001600160a01b03165af19182156107ad57610503945f936113b7575b50610a647f46a80100e8cfe18c4729e50ad8704a292622bb8b711d9b6e915a1911f349206493946040519384938461251f565b7f46a80100e8cfe18c4729e50ad8704a292622bb8b711d9b6e915a1911f349206493506113f4610a649160203d8111610a9d57610a8e8183610424565b9350611384565b34610332575f8060031936011261059e576114146122cb565b600180546001600160a01b03199081169091558154908116825581906001600160a01b03167f8be0079c531659141344cd1fd0a4f28419497f9722a3daafe3b4186f6b6457e08280a380f35b34610332575f36600319011261033257604080515f81525f6020820152f35b34610332575f8060031936011261059e576001546001600160a01b0333818316036114e5576001600160a01b031991821660015582543392811683178455167f8be0079c531659141344cd1fd0a4f28419497f9722a3daafe3b4186f6b6457e08380a380f35b60405162461bcd60e51b815260206004820152602960248201527f4f776e61626c6532537465703a2063616c6c6572206973206e6f7420746865206044820152683732bb9037bbb732b960b91b6064820152608490fd5b34610332575f3660031901126103325760095461155881610dbe565b906115666040519283610424565b808252601f1961157582610dbe565b013660208401375f5b818110611593576040518061050385826105d1565b806115a06115b792610f89565b90549060031b1c6115b182866129ff565b52612d42565b61157e565b34610332575f366003190112610332576040517f00000000000000000000000000000000000000000000000000000000000000006001600160a01b03168152602090f35b34610332575f36600319011261033257602060ff60065460a81c166040519015158152f35b34610332575f366003190112610332575f546040516001600160a01b039091168152602090f35b346103325760203660031901126103325760206040515f8152f35b34610332575f8060031936011261059e576116806122cb565b60405163673e156160e11b81526001600160a01b0390602081806116a73060048301610350565b0381857f0000000000000000000000000000000000000000000000000000000000000000165afa80156107ad576116e6918491611767575b501561270a565b8160405180926336a2fa1960e21b82528183816117063060048301610350565b03927f0000000000000000000000000000000000000000000000000000000000000000165af19081156107ad5782610503939261174c575b5050604051918291826105d1565b61176092503d8091833e6107998183610424565b5f8061173e565b61177f915060203d8111610a9d57610a8e8183610424565b5f6116df565b34610332575f366003190112610332576006546040516001600160a01b039091168152602090f35b6001600160401b0381116103ce57601f01601f191660200190565b81601f82011215610332578035906117df826117ad565b926117ed6040519485610424565b8284526020838301011161033257815f926020809301838601378301015290565b346103325760403660031901126103325760043561182b81610bd2565b6024356001600160401b0381116103325761184a9036906004016117c8565b906118536122cb565b6001600160a01b03818116907f00000000000000000000000000000000000000000000000000000000000000001681146118f1575f8080938551908260208801915af19161189f612485565b92156118e957507f8e084f4a28a6752a4c84a569571c55c88b5e8a28400d520311a3b501fc5e4c356118da61050394604051918291826133d7565b0390a260405191829182610483565b3d81803e3d90fd5b60405162461bcd60e51b815260206004820152600a6024820152691b9bdd081c195c9b5a5d60b21b6044820152606490fd5b346103325760203660031901126103325760043561194081610bd2565b6119486122cb565b6001600160a01b03818116917f3576c10a3107273bc6535da3c7aef2a8fa869e980ce766193ce37d026d90fb3790611981841515612e3d565b60055492611996604051928392861683612eb0565b0390a16001600160a01b03191617600555005b34610332576040366003190112610332577f01fbe4f77ca298ed7b6f81db870f0e0c2c385d1b17975407dff6f108ab321e8060406004356119e98161103a565b602435906119f68261103a565b6119fe6122cb565b1515906006549015159060ff60a81b8260a81b169060ff60a01b8460a01b169061ffff60a01b1916171760065582519182526020820152a1005b3461033257602036600319011261033257600480356001600160401b03811161033257611a689036908301610e3d565b90611a716122cb565b815190611a7f82151561280f565b7f00000000000000000000000000000000000000000000000000000000000000006001600160a01b0316925f5b838110611ab557005b611abf81836129ff565b5115611b2957611acf81836129ff565b5190853b1561033257604051637c22221b60e11b8152848101928352915f90839081906020010381838a5af19182156107ad57611b1192611b16575b50612d42565b611aac565b806111b9611b23926103bb565b5f611b0b565b611b1190612d42565b34610332575f366003190112610332576020600354604051908152f35b3461033257602080600319360112610332576004908135611b6e6122cb565b7f0000000000000000000000000000000000000000000000000000000000000000915f91906001600160a01b03808516611ba9841515612c44565b60409485516370a0823160e01b8152848180611bc7308d8301610350565b0381865afa80156107ad57611be6918391611f1a575b50861115612c76565b600654611bf79060a81c60ff161590565b15611e5b5750611c4183857f000000000000000000000000000000000000000000000000000000000000000093845f8c8b519687958694859363095ea7b360e01b85528401612541565b03925af180156107ad57611e3e575b501690835163db2296cd60e01b815281818881865afa9081156107ad575f91611e21575b508451630d25a95760e01b815282818981875afa9283156107ad575f93611e02575b5050808411611d63575050611cd7945f91611caf612ce0565b84611cb9826129f2565b525b838651809981958294636b34082160e11b845230918401612dc9565b03925af19081156107ad57611d085f805160206133ef83398151915292610503965f91611d42575b50511515612df1565b80935b83516001600160a01b039190911681525f6020820152604081019190915260608101849052608090a1519081529081906020820190565b611d5d913d8091833e611d558183610424565b810190612d50565b5f611cff565b939194929095611d7b611d768684612cc7565b612373565b95611d868684612cd6565b978810611de957611d9687612d10565b97611da9611da389612b4d565b8a6129ff565b525b5f5b611db688612b4d565b811015611dd657611dcf81886115b1611db6948d6129ff565b9050611dad565b5090919395505f929450611cd796611cbb565b9650611dfc611df787612b4d565b612d10565b96611dab565b611e19929350803d10610a9d57610a8e8183610424565b905f80611c96565b611e389150823d8411610a9d57610a8e8183610424565b5f611c74565b611e5490843d8611610d1857610d0a8183610424565b505f611c50565b938397819492508786611ed1957f00000000000000000000000000000000000000000000000000000000000000001692611e96858585612571565b895163919722bb60e01b81526001600160a01b0390931690830190815260208101949094526001604085015290948593849291839160600190565b03925af19081156107ad57610503965f805160206133ef8339815191529492611efd575b505093611d0b565b611f139250803d10610a9d57610a8e8183610424565b5f80611ef5565b611f319150863d8811610a9d57610a8e8183610424565b5f611bdd565b346103325760031960403682011261033257600435906001600160401b03908183116103325760409083360301126103325760405190611f76826103d3565b82600401359081116103325761001892611f98602492600436918401016117c8565b8352013560208201526024359061261c565b5f36600319011261033257611fe97f00000000000000000000000000000000000000000000000000000000000000006001600160a01b03163314612322565b6002546003548101809111610946576120049042101561238e565b61200f3415156123ce565b42600255005b34610332575f366003190112610332576040517f00000000000000000000000000000000000000000000000000000000000000006001600160a01b03168152602090f35b34610332575f366003190112610332576020600254604051908152f35b34610332575f36600319011261033257602061093e61315f565b34610332575f36600319011261033257602061093e6131cd565b34610332575f366003190112610332576001546040516001600160a01b039091168152602090f35b34610332575f366003190112610332576040517f00000000000000000000000000000000000000000000000000000000000000006001600160a01b03168152602090f35b34610332575f8060031936011261059e5761212f6122cb565b612137612fbb565b50508051907f00000000000000000000000000000000000000000000000000000000000000006001600160a01b031690835b838110612174578480f35b61217e81836129ff565b51156121cf5761218e81836129ff565b519085843b1561059e57604051637c22221b60e11b815260048101939093528260248183885af19182156107ad576121ca92611b165750612d42565b612169565b6121ca90612d42565b34610332576020366003190112610332576004356121f581610bd2565b6121fd6122cb565b60018060a01b03809116908160018060a01b031960015416176001555f54167f38d16b8cac22d99fc7c124b9cd0de2d3fa1faef420bfe791d8c362d765e227005f80a3005b34610332575f366003190112610332576040517f00000000000000000000000000000000000000000000000000000000000000006001600160a01b03168152602090f35b34610332576020366003190112610332576109317f00000000000000000000000000000000000000000000000000000000000000006001600160a01b03163314612322565b5f546001600160a01b031633036122de57565b606460405162461bcd60e51b815260206004820152602060248201527f4f776e61626c653a2063616c6c6572206973206e6f7420746865206f776e65726044820152fd5b1561232957565b60405162461bcd60e51b815260206004820152600e60248201526d3737ba1031b7b73a3937b63632b960911b6044820152606490fd5b634e487b7160e01b5f52601160045260245ffd5b906001820180921161094657565b9190820180921161094657565b1561239557565b60405162461bcd60e51b81526020600482015260116024820152706174207468652073616d6520626c6f636b60781b6044820152606490fd5b156123d557565b60405162461bcd60e51b815260206004820152600a6024820152697a65726f2076616c756560b01b6044820152606490fd5b906124138215156123ce565b4782116124535761244d827f00000000000000000000000000000000000000000000000000000000000000006001600160a01b03166124b4565b42600255565b60405162461bcd60e51b815260206004820152600a6024820152690dcdee840cadcdeeaced60b31b6044820152606490fd5b3d156124af573d90612496826117ad565b916124a46040519384610424565b82523d5f602084013e565b606090565b5f8080938193826040516124c781610409565b525af16124d2612485565b50156124da57565b60405162461bcd60e51b815260206004820152600360248201526253544560e81b6044820152606490fd5b90816020910312610332575190565b6040513d5f823e3d90fd5b6001600160a01b03918216815291166020820152604081019190915260600190565b6001600160a01b039091168152602081019190915260400190565b9081602091031261033257516104948161103a565b5f92918361259b6125a98295604051928391602083019663095ea7b360e01b885260248401612541565b03601f198101835282610424565b51925af16125b5612485565b816125ed575b50156125c357565b60405162461bcd60e51b8152602060048201526002602482015261534160f01b6044820152606490fd5b8051801592508215612602575b50505f6125bb565b612615925060208091830101910161255c565b5f806125fa565b906126256122cb565b6006546001600160a01b0390811691907f000000000000000000000000000000000000000000000000000000000000000016803b15610332575f928360405180968195829463eea9064b60e01b8452600484015260606024840152602061269883516040606487015260a4860190610445565b9201516084840152604483015203925af180156107ad576126f7575b506006546040517ffe4b2ef7c149e0cc043939d6adf86af0d16250c3fd818245a5896a9e8d71611d9181906126f2906001600160a01b031682610350565b0390a1565b806111b9612704926103bb565b5f6126b4565b1561271157565b60405162461bcd60e51b815260206004820152600d60248201526c6163746976652073686172657360981b6044820152606490fd5b6020908181840312610332578051906001600160401b03821161033257019180601f8401121561033257825161277b81610dbe565b936127896040519586610424565b818552838086019260051b820101928311610332578301905b8282106127b0575050505090565b815181529083019083016127a2565b9015610fa157803590605e1981360301821215610332570190565b903590601e198136030182121561033257018035906001600160401b03821161033257602001918160051b3603831361033257565b1561281657565b60405162461bcd60e51b815260206004820152600e60248201526d0d2dcecc2d8d2c840d8cadccee8d60931b6044820152606490fd5b9035601e19823603018112156103325701602081359101916001600160401b038211610332578160051b3603831361033257565b9190808252602080920192915f5b82811061289c575050505090565b90919293828060019287356128b081610bd2565b848060a01b0316815201950191019291909261288e565b81835290916001600160fb1b0383116103325760209260051b809284830137010190565b602092808483018584525260409384830192858360051b82010195855f80935b86851061291e5750505050505050505090565b909192939495969798603f198282030189528935605e19853603018112156129ac57876001928682930190888061298361296a606061295d878061284c565b9091808852870191612880565b6129768787018761284c565b90868303898801526128c7565b93013561298f81610bd2565b868060a01b03169101529b0199019501939291909695949661290b565b8380fd5b156129b757565b60405162461bcd60e51b81526020600482015260136024820152720d2dcecc2d8d2c840e4dedee840d8cadccee8d606b1b6044820152606490fd5b805115610fa15760200190565b8051821015610fa15760209160051b010190565b9015610fa15790565b5f818152600a6020526040812054612a895760095490600160401b8210156103ce576001820180600955821015610fa1577f6e1540171b6c0c960b71a7020d9f60077f6af931a8bbf590da0223dacf75c7af909101829055600954918152600a6020526040902055600190565b905090565b610494918135612a9d81610bd2565b6001600160a01b039081168252806020840135612ab981610bd2565b1660208301526040830135612acd81610bd2565b1660408201526060820135606082015263ffffffff612aee60808401610dad565b166080820152612b23612b18612b0760a085018561284c565b60e060a086015260e0850191612880565b9260c081019061284c565b9160c08185039101526128c7565b929190612b48602091604086526040860190612a8e565b930152565b5f1981019190821161094657565b6009548015612b85575f19818101919081831015610fa1575f916009835260208320010155600955565b634e487b7160e01b5f52603160045260245ffd5b5f818152600a60205260409020548015612c3e575f19918183019180831161094657600954938401938411610946578383612bef945f9603612bf5575b505050612be1612b5b565b5f52600a60205260405f2090565b55600190565b612be1612c1d91612c15612c0b612c3595610f89565b90549060031b1c90565b928391610f89565b90919082549060031b91821b915f19901b1916179055565b555f8080612bd6565b50505f90565b15612c4b57565b606460405162461bcd60e51b81526020600482015260046024820152637a65726f60e01b6044820152fd5b15612c7d57565b60405162461bcd60e51b815260206004820152600e60248201526d6578636565642062616c616e636560901b6044820152606490fd5b634e487b7160e01b5f52601260045260245ffd5b8115612cd1570490565b612cb3565b8115612cd1570690565b60405190612ced826103d3565b6001825260203681840137565b604051612d0681610409565b5f8152905f368137565b90612d1a82610dbe565b612d276040519182610424565b8281528092612d38601f1991610dbe565b0190602036910137565b5f1981146109465760010190565b6020908181840312610332578051906001600160401b03821161033257019180601f84011215610332578251612d8581610dbe565b93612d936040519586610424565b818552838086019260051b820101928311610332578301905b828210612dba575050505090565b81518152908301908301612dac565b90612de1602091949394604084526040840190610836565b6001600160a01b03909416910152565b15612df857565b60405162461bcd60e51b815260206004820152601d60248201527f4c69646f2072657175657374207769746864726177616c206572726f720000006044820152606490fd5b15612e4457565b60405162461bcd60e51b81526020600482015260096024820152682d22a9279020a2222960b91b6044820152606490fd5b15612e7c57565b60405162461bcd60e51b815260206004820152600c60248201526b3737ba1037b832b930ba37b960a11b6044820152606490fd5b6001600160a01b0391821681529116602082015260400190565b6020908181840312610332578051906001600160401b038211610332570182601f8201121561033257805191612eff83610dbe565b936040612f0e81519687610424565b848652828601918360c080970286010194818611610332578401925b858410612f3b575050505050505090565b8684830312610332578487918451612f52816103ee565b86518152828701518382015285870151612f6b81610bd2565b868201526060808801519082015260808088015190612f898261103a565b82015260a08088015190612f9c8261103a565b820152815201930192612f2a565b906020610494928181520190610836565b604051637d031b6560e01b8152905f9081907f00000000000000000000000000000000000000000000000000000000000000006001600160a01b0316828086806130083060048301610350565b0381855afa9586156107ad578196613143575b508551156131305761302d8651612d10565b95816040518094635c625c2d60e11b8252818061304d8660048301612faa565b03915afa9283156107ad57829361310c575b50919080879193835191935b82851061307a57505050905052565b91939790929461308a89846129ff565b519061309960a0830151151590565b6130ff576080820151156130e657916130d6916130dc936130ce6130bd8d896129ff565b51916130c881612d42565b9a6129ff565b525190612381565b97612d42565b929091889261306b565b95506130dc9198976130f9915190612381565b96612d42565b955050966130dc90612d42565b6131299193503d8084833e6131218183610424565b810190612eca565b915f61305f565b93505092505061313e612cfa565b918190565b6131589196503d8088833e611d558183610424565b945f61301b565b604051630aa794bf60e31b81523060048201526020816024817f00000000000000000000000000000000000000000000000000000000000000006001600160a01b03165afa9081156107ad575f916131b5575090565b610494915060203d8111610a9d57610a8e8183610424565b6009545f91908290817f00000000000000000000000000000000000000000000000000000000000000006001600160a01b03165b82841061320e5750505050565b9091929461325461322f613221886132a3565b5f52600860205260405f2090565b549160405192637a8b263760e01b845283806020948593600483019190602083019252565b0381875afa9081156107ad5761327c93613276938793613284575b5050612381565b95612d42565b929190613201565b61329b929350803d10610a9d57610a8e8183610424565b905f8061326f565b600954811015610fa15760095f527f6e1540171b6c0c960b71a7020d9f60077f6af931a8bbf590da0223dacf75c7af015490565b9081518082526020808093019301915f5b8281106132f6575050505090565b83516001600160a01b0316855293810193928101926001016132e8565b9081518082526020808093019301915f5b828110613332575050505090565b835185529381019392810192600101613324565b6040516133d18161259b60208201946020865260018060a01b038082511660408501528060208301511660608501526040820151166080840152606081015160a08401526133a1608082015160c085019063ffffffff169052565b60c06133bc60a083015160e0808701526101208601906132d7565b910151838203603f1901610100850152613313565b51902090565b906040610494925f8152816020820152019061044556fefa2dda1cc1b86e41239702756b13effbc1a092b5c57e3ad320fbe4f3b13fe235a2646970667358221220f7e306b944f8c4aa62e7ee06b8c6228d9af199a040a1e5792a2f96d671f776cc64736f6c63430008150033",
  "immutableReferences": {
    "18596": [
      {
        "length": 32,
        "start": 2279
      },
      {
        "length": 32,
        "start": 3379
      },
      {
        "length": 32,
        "start": 8122
      },
      {
        "length": 32,
        "start": 8791
      },
      {
        "length": 32,
        "start": 8860
      },
      {
        "length": 32,
        "start": 9248
      }
    ],
    "24808": [
      {
        "length": 32,
        "start": 2506
      },
      {
        "length": 32,
        "start": 2602
      },
      {
        "length": 32,
        "start": 2747
      },
      {
        "length": 32,
        "start": 4107
      },
      {
        "length": 32,
        "start": 4638
      },
      {
        "length": 32,
        "start": 4854
      },
      {
        "length": 32,
        "start": 6241
      },
      {
        "length": 32,
        "start": 7024
      }
    ],
    "24810": [
      {
        "length": 32,
        "start": 2979
      },
      {
        "length": 32,
        "start": 4820
      }
    ],
    "24812": [
      {
        "length": 32,
        "start": 1664
      },
      {
        "length": 32,
        "start": 3151
      },
      {
        "length": 32,
        "start": 4273
      },
      {
        "length": 32,
        "start": 5898
      },
      {
        "length": 32,
        "start": 8423
      },
      {
        "length": 32,
        "start": 9783
      }
    ],
    "24814": [
      {
        "length": 32,
        "start": 4898
      },
      {
        "length": 32,
        "start": 5804
      },
      {
        "length": 32,
        "start": 8234
      },
      {
        "length": 32,
        "start": 12666
      },
      {
        "length": 32,
        "start": 12760
      }
    ],
    "24816": [
      {
        "length": 32,
        "start": 888
      },
      {
        "length": 32,
        "start": 6785
      },
      {
        "length": 32,
        "start": 7172
      },
      {
        "length": 32,
        "start": 8510
      },
      {
        "length": 32,
        "start": 12239
      }
    ],
    "24818": [
      {
        "length": 32,
        "start": 2809
      },
      {
        "length": 32,
        "start": 5585
      },
      {
        "length": 32,
        "start": 7786
      }
    ]
  },
  "source": "// SPDX-License-Identifier: MIT\npragma solidity 0.8.21;\n\nimport {TransferHelper} from \"@uniswap/v3-periphery/contracts/libraries/TransferHelper.sol\";\nimport {IERC20} from \"@openzeppelin/contracts/token/ERC20/IERC20.sol\";\nimport {EnumerableSet} from \"@openzeppelin/contracts/utils/structs/EnumerableSet.sol\";\n\nimport {EigenStrategy} from \"../EigenStrategy.sol\";\nimport {SwappingAggregator} from \"../SwappingAggregator.sol\";\n\nimport {IStrategyManager} from \"../../interfaces/IStrategyManager.sol\";\nimport {IDelegationManager} from \"../../interfaces/IDelegationManager.sol\";\nimport {IEigenStrategy} from \"../../interfaces/IEigenStrategy.sol\";\nimport {ILido} from \"../../interfaces/ILido.sol\";\nimport {ILidoWithdrawalQueue} from \"../../interfaces/ILidoWithdrawalQueue.sol\";\n\ncontract EigenLSTRestaking is EigenStrategy {\n    using EnumerableSet for EnumerableSet.Bytes32Set;\n\n    address public immutable tokenAddr;\n    address public immutable strategyManager;\n    address public immutable delegationManager;\n    address public immutable eigenStrategy;\n\n    address public immutable LidoWithdrawalQueue;\n    address payable public immutable SWAPPING;\n\n    address public referral;\n\n    address public eigenOperator;\n\n    bool public buyOnDex;\n    bool public sellOnDex;\n\n    bytes32[] public withdrawals;\n\n    mapping(bytes32 => uint256) public withdrawingShares;\n\n    EnumerableSet.Bytes32Set private withdrawalRootsSet;\n\n    event Swap(address from, address to, uint256 sent, uint256 received);\n    event DepositIntoStrategy(address strategy, address token, uint256 amount);\n    event DelegateTo(address operator);\n    event WithdrawalQueued(bytes32 withdrawalRoot);\n    event WithdrawalCompleted(\n        IDelegationManager.Withdrawal withdrawal,\n        bytes32 root\n    );\n    event SetEigenOperator(address oldOperator, address newOperator);\n    event SetWithdrawQueueParams(uint256 length, uint256 amount);\n    event SetRouter(bool buyOnDex, bool sellOnDex);\n    event SetReferral(address oldAddr, address newAddr);\n    event Invoked(address indexed targetAddress, uint256 value, bytes data);\n\n    constructor(\n        address payable _controller,\n        address _tokenAddr,\n        address _lidoWithdrawalQueue,\n        address _strategyManager,\n        address _delegationManager,\n        address _eigenStrategy,\n        address payable _swap,\n        string memory _name\n    ) EigenStrategy(_controller, _name) {\n        require(\n            _tokenAddr != address(0) &&\n                _lidoWithdrawalQueue != address(0) &&\n                _strategyManager != address(0) &&\n                _delegationManager != address(0) &&\n                _eigenStrategy != address(0) &&\n                _swap != address(0),\n            \"ZERO ADDRESS\"\n        );\n\n        tokenAddr = _tokenAddr;\n        LidoWithdrawalQueue = _lidoWithdrawalQueue;\n\n        strategyManager = _strategyManager;\n        delegationManager = _delegationManager;\n        eigenStrategy = _eigenStrategy;\n\n        SWAPPING = _swap;\n    }\n\n    function deposit() public payable override onlyController notAtSameBlock {\n        require(msg.value != 0, \"zero value\");\n\n        latestUpdateTime = block.timestamp;\n    }\n\n    function withdraw(\n        uint256 _amount\n    )\n        public\n        override\n        onlyController\n        notAtSameBlock\n        returns (uint256 actualAmount)\n    {\n        actualAmount = _withdraw(_amount);\n    }\n\n    function instantWithdraw(\n        uint256 _amount\n    ) public override onlyController returns (uint256 actualAmount) {\n        actualAmount = _withdraw(_amount);\n    }\n\n    function _withdraw(\n        uint256 _amount\n    ) internal returns (uint256 actualAmount) {\n        require(_amount != 0, \"zero value\");\n        require(_amount <= address(this).balance, \"not enough\");\n\n        actualAmount = _amount;\n\n        TransferHelper.safeTransferETH(controller, actualAmount);\n\n        latestUpdateTime = block.timestamp;\n    }\n\n    function clear() public override onlyController returns (uint256 amount) {\n        uint256 balance = address(this).balance;\n\n        if (balance != 0) {\n            TransferHelper.safeTransferETH(controller, balance);\n            amount = balance;\n        }\n    }\n\n    function getAllValue() public override returns (uint256 value) {\n        value = getInvestedValue();\n    }\n\n    // TODO need testing\n    function getInvestedValue() public override returns (uint256 value) {\n        uint256 etherValue = address(this).balance;\n        uint256 tokenValue = IERC20(tokenAddr).balanceOf(address(this));\n        (, uint256 claimableValue, uint256 pendingValue) = checkPendingAssets();\n        uint256 eigenValue = getRestakingValue();\n        uint256 unstakingValue = getUnstakingValue();\n\n        value =\n            etherValue +\n            tokenValue +\n            claimableValue +\n            pendingValue +\n            eigenValue +\n            unstakingValue;\n    }\n\n    function depositIntoStrategy(\n        uint256 _amount\n    ) external onlyOwner returns (uint256 shares) {\n        TransferHelper.safeApprove(tokenAddr, strategyManager, _amount);\n\n        shares = IStrategyManager(strategyManager).depositIntoStrategy(\n            eigenStrategy,\n            tokenAddr,\n            _amount\n        );\n\n        emit DepositIntoStrategy(eigenStrategy, tokenAddr, _amount);\n    }\n\n    function delegateTo(\n        IDelegationManager.SignatureWithExpiry\n            memory _approverSignatureAndExpiry,\n        bytes32 _approverSalt\n    ) external onlyOwner {\n        IDelegationManager(delegationManager).delegateTo(\n            eigenOperator,\n            _approverSignatureAndExpiry,\n            _approverSalt\n        );\n\n        emit DelegateTo(eigenOperator);\n    }\n\n    function undelegate()\n        external\n        onlyOwner\n        returns (bytes32[] memory withdrawalRoots)\n    {\n        require(\n            IEigenStrategy(eigenStrategy).shares(address(this)) == 0,\n            \"active shares\"\n        );\n\n        withdrawalRoots = IDelegationManager(delegationManager).undelegate(\n            address(this)\n        );\n    }\n\n    function queueWithdrawals(\n        IDelegationManager.QueuedWithdrawalParams[]\n            calldata _queuedWithdrawalParams\n    ) external onlyOwner returns (bytes32[] memory withdrawalRoots) {\n        require(\n            _queuedWithdrawalParams.length == 1 &&\n                _queuedWithdrawalParams[0].shares.length == 1 &&\n                _queuedWithdrawalParams[0].strategies.length == 1,\n            \"invalid length\"\n        );\n        withdrawalRoots = IDelegationManager(delegationManager)\n            .queueWithdrawals(_queuedWithdrawalParams);\n\n        uint256 length = withdrawalRoots.length;\n\n        require(length == 1, \"invalid root length\");\n\n        bytes32 root = withdrawalRoots[0];\n        withdrawalRootsSet.add(root);\n        withdrawingShares[root] = _queuedWithdrawalParams[0].shares[0];\n\n        emit WithdrawalQueued(root);\n    }\n\n    function completeQueuedWithdrawal(\n        IDelegationManager.Withdrawal calldata _withdrawal,\n        IERC20[] calldata _tokens,\n        uint256 _middlewareTimesIndex,\n        bool _receiveAsTokens\n    ) external onlyOwner {\n        IDelegationManager(delegationManager).completeQueuedWithdrawal(\n            _withdrawal,\n            _tokens,\n            _middlewareTimesIndex,\n            _receiveAsTokens\n        );\n\n        bytes32 root = calculateWithdrawalRoot(_withdrawal);\n        withdrawingShares[root] = 0;\n        withdrawalRootsSet.remove(root);\n\n        emit WithdrawalCompleted(_withdrawal, root);\n    }\n\n    function swapToToken(\n        uint256 _amount\n    ) external onlyOwner returns (uint256 tokenAmount) {\n        require(_amount != 0, \"zero\");\n        require(_amount <= address(this).balance, \"exceed balance\");\n\n        if (!buyOnDex) {\n            tokenAmount = ILido(tokenAddr).submit{value: _amount}(referral);\n        } else {\n            tokenAmount = SwappingAggregator(SWAPPING).swap{value: _amount}(\n                tokenAddr,\n                _amount,\n                false\n            );\n        }\n\n        emit Swap(address(0), tokenAddr, _amount, tokenAmount);\n    }\n\n    function swapToEther(\n        uint256 _amount\n    ) external onlyOwner returns (uint256 etherAmount) {\n        IERC20 token = IERC20(tokenAddr);\n\n        require(_amount != 0, \"zero\");\n        require(_amount <= token.balanceOf(address(this)), \"exceed balance\");\n\n        if (!sellOnDex) {\n            token.approve(LidoWithdrawalQueue, _amount);\n\n            ILidoWithdrawalQueue withdrawalQueue = ILidoWithdrawalQueue(\n                LidoWithdrawalQueue\n            );\n            uint256 maxAmountPerRequest = withdrawalQueue\n                .MAX_STETH_WITHDRAWAL_AMOUNT();\n            uint256 minAmountPerRequest = withdrawalQueue\n                .MIN_STETH_WITHDRAWAL_AMOUNT();\n\n            uint256[] memory amounts;\n            if (_amount <= maxAmountPerRequest) {\n                amounts = new uint256[](1);\n                amounts[0] = _amount;\n            } else {\n                uint256 length = _amount / maxAmountPerRequest + 1;\n                uint256 remainder = _amount % maxAmountPerRequest;\n\n                if (remainder >= minAmountPerRequest) {\n                    amounts = new uint256[](length);\n                    amounts[length - 1] = remainder;\n                } else {\n                    amounts = new uint256[](length - 1);\n                }\n\n                uint256 i;\n                for (i; i < length - 1; i++) {\n                    amounts[i] = maxAmountPerRequest;\n                }\n            }\n\n            uint256[] memory ids = withdrawalQueue.requestWithdrawals(\n                amounts,\n                address(this)\n            );\n            require(ids.length != 0, \"Lido request withdrawal error\");\n\n            etherAmount = _amount;\n        } else {\n            TransferHelper.safeApprove(tokenAddr, SWAPPING, _amount);\n            etherAmount = SwappingAggregator(SWAPPING).swap(\n                tokenAddr,\n                _amount,\n                true\n            );\n        }\n\n        emit Swap(tokenAddr, address(0), _amount, etherAmount);\n    }\n\n    function setRouter(bool _buyOnDex, bool _sellOnDex) external onlyOwner {\n        buyOnDex = _buyOnDex;\n        sellOnDex = _sellOnDex;\n\n        emit SetRouter(_buyOnDex, _sellOnDex);\n    }\n\n    function setEigenOperator(address _operator) external onlyOwner {\n        require(_operator != address(0), \"ZERO ADDR\");\n        require(\n            IDelegationManager(delegationManager).isOperator(_operator),\n            \"not operator\"\n        );\n\n        emit SetEigenOperator(eigenOperator, _operator);\n        eigenOperator = _operator;\n    }\n\n    function setReferral(address _referral) external onlyOwner {\n        require(_referral != address(0), \"ZERO ADDR\");\n\n        emit SetReferral(referral, _referral);\n        referral = _referral;\n    }\n\n    function claimPendingAssets(uint256[] memory _ids) external onlyOwner {\n        uint256 length = _ids.length;\n        require(length != 0, \"invalid length\");\n\n        for (uint256 i; i < length; i++) {\n            if (_ids[i] == 0) continue;\n            ILidoWithdrawalQueue(LidoWithdrawalQueue).claimWithdrawal(_ids[i]);\n        }\n    }\n\n    function claimAllPendingAssets() external onlyOwner {\n        (uint256[] memory ids, , ) = checkPendingAssets();\n\n        uint256 length = ids.length;\n        for (uint256 i; i < length; i++) {\n            if (ids[i] == 0) continue;\n            ILidoWithdrawalQueue(LidoWithdrawalQueue).claimWithdrawal(ids[i]);\n        }\n    }\n\n    // TODO Gas consumption\n    function checkPendingAssets()\n        public\n        returns (\n            uint256[] memory ids,\n            uint256 totalClaimable,\n            uint256 totalPending\n        )\n    {\n        ILidoWithdrawalQueue queue = ILidoWithdrawalQueue(LidoWithdrawalQueue);\n\n        uint256[] memory allIds = queue.getWithdrawalRequests(address(this));\n\n        if (allIds.length == 0) {\n            return (new uint256[](0), 0, 0);\n        }\n\n        ids = new uint256[](allIds.length);\n\n        ILidoWithdrawalQueue.WithdrawalRequestStatus[] memory statuses = queue\n            .getWithdrawalStatus(allIds);\n\n        uint256 j;\n        uint256 length = statuses.length;\n        for (uint256 i; i < length; i++) {\n            ILidoWithdrawalQueue.WithdrawalRequestStatus\n                memory status = statuses[i];\n            if (status.isClaimed) {\n                continue;\n            }\n            if (status.isFinalized) {\n                ids[j++] = allIds[i];\n                totalClaimable = totalClaimable + status.amountOfStETH;\n            } else {\n                totalPending = totalPending + status.amountOfStETH;\n            }\n        }\n\n        assembly {\n            mstore(ids, j)\n        }\n    }\n\n    function getRestakingValue() public view returns (uint256 value) {\n        value = IEigenStrategy(eigenStrategy).userUnderlyingView(address(this));\n    }\n\n    function getUnstakingValue() public view returns (uint256 value) {\n        uint256 length = withdrawalRootsSet.length();\n\n        uint256 i;\n        for (i; i < length; i++) {\n            value += IEigenStrategy(eigenStrategy).sharesToUnderlyingView(\n                withdrawingShares[withdrawalRootsSet.at(i)]\n            );\n        }\n    }\n\n    function getWithdrawalRoots() public view returns (bytes32[] memory roots) {\n        uint256 length = withdrawalRootsSet.length();\n\n        roots = new bytes32[](length);\n\n        for (uint256 i; i < length; i++) {\n            roots[i] = withdrawalRootsSet.at(i);\n        }\n    }\n\n    function calculateWithdrawalRoot(\n        IDelegationManager.Withdrawal memory withdrawal\n    ) public pure returns (bytes32) {\n        return keccak256(abi.encode(withdrawal));\n    }\n\n    function invoke(\n        address target,\n        bytes memory data\n    ) external onlyOwner returns (bytes memory result) {\n        require(target != tokenAddr, \"not permit\");\n\n        bool success;\n        (success, result) = target.call{value: 0}(data);\n        if (!success) {\n            // solhint-disable-next-line no-inline-assembly\n            assembly {\n                returndatacopy(0, 0, returndatasize())\n                revert(0, returndatasize())\n            }\n        }\n        emit Invoked(target, 0, data);\n    }\n\n    receive() external payable {}\n}\n",
  "sourcePath": "/Users/mingyuzhang/Downloads/stone-vault-v1/contracts/strategies/eigen/EigenLSTRestaking.sol",
  "compiler": {
    "name": "solc",
    "version": "0.8.21+commit.d9974bed.Emscripten.clang"
  },
  "schemaVersion": "3.4.16",
  "updatedAt": "2024-06-07T05:41:32.648Z",
  "devdoc": {
    "kind": "dev",
    "methods": {
      "acceptOwnership()": {
        "details": "The new owner accepts the ownership transfer."
      },
      "owner()": {
        "details": "Returns the address of the current owner."
      },
      "pendingOwner()": {
        "details": "Returns the address of the pending owner."
      },
      "renounceOwnership()": {
        "details": "Leaves the contract without owner. It will not be possible to call `onlyOwner` functions. Can only be called by the current owner. NOTE: Renouncing ownership will leave the contract without an owner, thereby disabling any functionality that is only available to the owner."
      },
      "transferOwnership(address)": {
        "details": "Starts the ownership transfer of the contract to a new account. Replaces the pending transfer if there is one. Can only be called by the current owner."
      }
    },
    "version": 1
  },
  "userdoc": {
    "kind": "user",
    "methods": {},
    "version": 1
  }
}