{
  "contractName": "MiningPool",
  "abi": [
    {
      "inputs": [
        {
          "internalType": "uint256",
          "name": "_cycle",
          "type": "uint256"
        }
      ],
      "stateMutability": "nonpayable",
      "type": "constructor"
    },
    {
      "anonymous": false,
      "inputs": [
        {
          "indexed": false,
          "internalType": "uint256",
          "name": "time",
          "type": "uint256"
        },
        {
          "indexed": false,
          "internalType": "uint256",
          "name": "points",
          "type": "uint256"
        }
      ],
      "name": "Terminated",
      "type": "event"
    },
    {
      "anonymous": false,
      "inputs": [
        {
          "indexed": false,
          "internalType": "address",
          "name": "oldAddr",
          "type": "address"
        },
        {
          "indexed": false,
          "internalType": "address",
          "name": "newAddr",
          "type": "address"
        }
      ],
      "name": "TransferGovernance",
      "type": "event"
    },
    {
      "inputs": [
        {
          "internalType": "address",
          "name": "",
          "type": "address"
        }
      ],
      "name": "currentPendingPoints",
      "outputs": [
        {
          "internalType": "uint256",
          "name": "",
          "type": "uint256"
        }
      ],
      "stateMutability": "view",
      "type": "function"
    },
    {
      "inputs": [],
      "name": "cycle",
      "outputs": [
        {
          "internalType": "uint256",
          "name": "",
          "type": "uint256"
        }
      ],
      "stateMutability": "view",
      "type": "function"
    },
    {
      "inputs": [],
      "name": "globalUpdateTime",
      "outputs": [
        {
          "internalType": "uint256",
          "name": "",
          "type": "uint256"
        }
      ],
      "stateMutability": "view",
      "type": "function"
    },
    {
      "inputs": [],
      "name": "governance",
      "outputs": [
        {
          "internalType": "address",
          "name": "",
          "type": "address"
        }
      ],
      "stateMutability": "view",
      "type": "function"
    },
    {
      "inputs": [],
      "name": "nft",
      "outputs": [
        {
          "internalType": "address",
          "name": "",
          "type": "address"
        }
      ],
      "stateMutability": "view",
      "type": "function"
    },
    {
      "inputs": [
        {
          "internalType": "address",
          "name": "",
          "type": "address"
        },
        {
          "internalType": "uint256",
          "name": "",
          "type": "uint256"
        }
      ],
      "name": "pendingNFT",
      "outputs": [
        {
          "internalType": "uint256",
          "name": "points",
          "type": "uint256"
        },
        {
          "internalType": "uint256",
          "name": "startTime",
          "type": "uint256"
        },
        {
          "internalType": "uint256",
          "name": "endTime",
          "type": "uint256"
        }
      ],
      "stateMutability": "view",
      "type": "function"
    },
    {
      "inputs": [
        {
          "internalType": "address",
          "name": "",
          "type": "address"
        }
      ],
      "name": "stakeTime",
      "outputs": [
        {
          "internalType": "uint256",
          "name": "",
          "type": "uint256"
        }
      ],
      "stateMutability": "view",
      "type": "function"
    },
    {
      "inputs": [
        {
          "internalType": "address",
          "name": "",
          "type": "address"
        },
        {
          "internalType": "address",
          "name": "",
          "type": "address"
        }
      ],
      "name": "stakedAmount",
      "outputs": [
        {
          "internalType": "uint256",
          "name": "",
          "type": "uint256"
        }
      ],
      "stateMutability": "view",
      "type": "function"
    },
    {
      "inputs": [],
      "name": "terminateTime",
      "outputs": [
        {
          "internalType": "uint256",
          "name": "",
          "type": "uint256"
        }
      ],
      "stateMutability": "view",
      "type": "function"
    },
    {
      "inputs": [
        {
          "internalType": "address",
          "name": "",
          "type": "address"
        }
      ],
      "name": "tokenAdapters",
      "outputs": [
        {
          "internalType": "address",
          "name": "",
          "type": "address"
        }
      ],
      "stateMutability": "view",
      "type": "function"
    },
    {
      "inputs": [],
      "name": "totalPoints",
      "outputs": [
        {
          "internalType": "uint256",
          "name": "",
          "type": "uint256"
        }
      ],
      "stateMutability": "view",
      "type": "function"
    },
    {
      "inputs": [
        {
          "internalType": "address",
          "name": "",
          "type": "address"
        }
      ],
      "name": "updateTime",
      "outputs": [
        {
          "internalType": "uint256",
          "name": "",
          "type": "uint256"
        }
      ],
      "stateMutability": "view",
      "type": "function"
    },
    {
      "inputs": [
        {
          "internalType": "address",
          "name": "_token",
          "type": "address"
        },
        {
          "internalType": "uint256",
          "name": "_amount",
          "type": "uint256"
        }
      ],
      "name": "stake",
      "outputs": [],
      "stateMutability": "nonpayable",
      "type": "function"
    },
    {
      "inputs": [
        {
          "internalType": "address",
          "name": "_user",
          "type": "address"
        },
        {
          "internalType": "address",
          "name": "_token",
          "type": "address"
        },
        {
          "internalType": "uint256",
          "name": "_amount",
          "type": "uint256"
        }
      ],
      "name": "stakeFor",
      "outputs": [],
      "stateMutability": "nonpayable",
      "type": "function"
    },
    {
      "inputs": [
        {
          "internalType": "address",
          "name": "_token",
          "type": "address"
        },
        {
          "internalType": "uint256",
          "name": "_amount",
          "type": "uint256"
        }
      ],
      "name": "unstake",
      "outputs": [],
      "stateMutability": "nonpayable",
      "type": "function"
    },
    {
      "inputs": [],
      "name": "claim",
      "outputs": [],
      "stateMutability": "nonpayable",
      "type": "function"
    },
    {
      "inputs": [
        {
          "internalType": "address",
          "name": "_user",
          "type": "address"
        }
      ],
      "name": "earned",
      "outputs": [
        {
          "internalType": "uint256",
          "name": "amount",
          "type": "uint256"
        }
      ],
      "stateMutability": "view",
      "type": "function"
    },
    {
      "inputs": [
        {
          "internalType": "address",
          "name": "_user",
          "type": "address"
        }
      ],
      "name": "getPendingNFTLength",
      "outputs": [
        {
          "internalType": "uint256",
          "name": "amount",
          "type": "uint256"
        }
      ],
      "stateMutability": "view",
      "type": "function"
    },
    {
      "inputs": [],
      "name": "getAllValue",
      "outputs": [
        {
          "internalType": "uint256",
          "name": "value",
          "type": "uint256"
        }
      ],
      "stateMutability": "view",
      "type": "function"
    },
    {
      "inputs": [
        {
          "internalType": "address",
          "name": "_user",
          "type": "address"
        }
      ],
      "name": "getAllPositionValue",
      "outputs": [
        {
          "internalType": "uint256",
          "name": "value",
          "type": "uint256"
        }
      ],
      "stateMutability": "view",
      "type": "function"
    },
    {
      "inputs": [],
      "name": "getAllPoolTokens",
      "outputs": [
        {
          "internalType": "address[]",
          "name": "list",
          "type": "address[]"
        }
      ],
      "stateMutability": "view",
      "type": "function"
    },
    {
      "inputs": [
        {
          "internalType": "address",
          "name": "_user",
          "type": "address"
        }
      ],
      "name": "checkPosition",
      "outputs": [
        {
          "internalType": "bool",
          "name": "",
          "type": "bool"
        }
      ],
      "stateMutability": "view",
      "type": "function"
    },
    {
      "inputs": [
        {
          "internalType": "address[]",
          "name": "_tokens",
          "type": "address[]"
        },
        {
          "internalType": "address[]",
          "name": "_adapters",
          "type": "address[]"
        },
        {
          "internalType": "bool[]",
          "name": "_flags",
          "type": "bool[]"
        }
      ],
      "name": "setSupportedTokens",
      "outputs": [],
      "stateMutability": "nonpayable",
      "type": "function"
    },
    {
      "inputs": [
        {
          "internalType": "address",
          "name": "_nft",
          "type": "address"
        }
      ],
      "name": "setNFT",
      "outputs": [],
      "stateMutability": "nonpayable",
      "type": "function"
    },
    {
      "inputs": [
        {
          "internalType": "address",
          "name": "_nft",
          "type": "address"
        }
      ],
      "name": "terminate",
      "outputs": [],
      "stateMutability": "nonpayable",
      "type": "function"
    },
    {
      "inputs": [
        {
          "internalType": "address",
          "name": "_governance",
          "type": "address"
        }
      ],
      "name": "setNewGovernance",
      "outputs": [],
      "stateMutability": "nonpayable",
      "type": "function"
    }
  ],
  "bytecode": "0x60803461006b57601f611c6e38819003918201601f19168301916001600160401b0383118484101761006f5780849260209460405283398101031261006b575160015f55600e80546001600160a01b0319163317905560095542600b55604051611bea90816100848239f35b5f80fd5b634e487b7160e01b5f52604160045260245ffdfe60406080815260049081361015610014575f80fd5b5f91823560e01c80628cc26214610ed45780632170e47214610e9f5780632a4a8e0214610e565780632dd5567a14610ce15780633e15bf2a14610ca657806347ccca0214610c7d57806348f2f1fa14610c5e5780634e71d92d14610a73578063567142be14610a545780635aa6e67514610a2b5780636190c9d514610a0c57806371463599146109d45780637654f7ab146109b757806376cd370e146108e75780637c55087814610720578063857f9338146106f3578063adc9772e14610590578063b2aee61b14610527578063bf5b83bf146104ef578063c18c9d93146104c0578063c2a672e01461030d578063c4a903ca146102d5578063d95b3fb5146102b6578063e7d460bb1461023c578063edb45529146101c55763f56e9c661461013b575f80fd5b346101c15760203660031901126101c157610154610f52565b600e546001600160a01b03929061016e9084163314611a15565b600d54938385166101905750506001600160a01b0319909216911617600d5580f35b906020606492519162461bcd60e51b8352820152600b60248201526a185b1c9958591e481cd95d60aa1b6044820152fd5b8280fd5b505034610238576020366003190112610238577fc68767482f311682e0211ad916e3c08ab8b64bbd1f0b1ce7d1626510fc037bde90610202610f52565b5061021860018060a01b03600e54163314611a15565b42600c556102246116f7565b600c54600a5482519182526020820152a180f35b5080fd5b50503461023857602036600319011261023857610257610f52565b600e546001600160a01b038082169391927f2276211a3f2c7bc1943fe83cc63f8f970204ff6a4b83c690df2bc54d8f2792ad929190610297338714611a15565b82519586521693846020820152a16001600160a01b03191617600e5580f35b505034610238578160031936011261023857602090600b549051908152f35b5050346102385760203660031901126102385760209181906001600160a01b036102fd610f52565b1681526007845220549051908152f35b5090346101c157806003193601126101c157610327610f52565b6024918235916103356110c0565b821561048f573386526020926003845282872060018060a01b03831690818952855281848920541061045c5761036a336111b6565b33885260038552838820818952855261038682858a205461116a565b903389526003865284892090895285528388205582518481019163a9059cbb60e01b83523387830152604482015260448152608081018181106001600160401b0382111761044a57845251879283929083905af16103e2611114565b8161041a575b50156103f657846001815580f35b5162461bcd60e51b8152928301526002908201526114d560f21b6044820152606490fd5b80518015925084908315610432575b5050505f6103e8565b6104429350820181019101611152565b5f8381610429565b634e487b7160e01b8952604188528689fd5b835162461bcd60e51b8152808801869052600e818801526d6578636565642062616c616e636560901b6044820152606490fd5b815162461bcd60e51b8152602081870152600c818601526b756e7374616b65207a65726f60a01b6044820152606490fd5b505034610238576020366003190112610238576020906104e66104e1610f52565b6119ad565b90519015158152f35b5050346102385760203660031901126102385760209181906001600160a01b03610517610f52565b1681526006845220549051908152f35b505034610238578060031936011261023857610541610f52565b6001600160a01b0316825260076020528082208054602435939084101561058d575060609261056f91611072565b50805491600260018301549201549181519384526020840152820152f35b80fd5b5090346101c157806003193601126101c1576105aa610f52565b916024356105b66110c0565b6001600160a01b0384165f81815260026020526040902054909290156106bc576105df336111b6565b858085519660209782898201916323b872dd60e01b83523360248201523060448201528760648201526064815261061581610fb1565b51925af1610621611114565b8161068c575b5015610663575061064a903386526003855283862083875285528386205461109f565b9233855260038152828520918552528220556001815580f35b835162461bcd60e51b8152908101859052600360248201526229aa2360e91b6044820152606490fd5b805180159250879083156106a4575b5050505f610627565b6106b49350820181019101611152565b5f868161069b565b606490602085519162461bcd60e51b835282015260116024820152703ab739bab83837b93a32b2103a37b5b2b760791b6044820152fd5b50503461023857602036600319011261023857602090610719610714610f52565b6118aa565b9051908152f35b5090346101c15760603660031901126101c1576001600160401b039082358281116108e3576107529036908501611004565b6024358381116108df576107699036908601611004565b906044359384116108df57366023850112156108df57838501359161078d83610fed565b9461079a85519687610fcc565b83865260209360248588019160051b830101913683116108db57602401905b8282106108bf575050600e546001600160a01b039391506107dd9084163314611a15565b80519687875114806108b5575b156108815750875b8781106107fd578880f35b808461080c6108569385611999565b5116610818828a611999565b511561085b5761082781611a51565b50856108338387611999565b51918c5260088852888c2080546001600160a01b03191691909216179055611177565b6107f2565b61086481611acc565b508a5260088652868a2080546001600160a01b0319169055611177565b855162461bcd60e51b8152908101859052600e60248201526d0d2dcecc2d8d2c840d8cadccee8d60931b6044820152606490fd5b50878351146107ea565b813580151581036108d75781529085019085016107b9565b8a80fd5b8980fd5b8580fd5b8480fd5b505034610238578160031936011261023857600180549261090784610fed565b61091384519182610fcc565b84815261091f85610fed565b6020828101969091601f1901368837835b8181106109755750508451948186019282875251809352850195925b8281106109595785870386f35b83516001600160a01b031687529581019592810192840161094c565b806109896109ab9299979996949596611892565b905460039190911b1c6001600160a01b03166109a58288611999565b52611177565b96949693929193610930565b50503461023857816003193601126102385760209061071961174a565b5050346102385760203660031901126102385760209181906001600160a01b036109fc610f52565b1681526005845220549051908152f35b5050346102385781600319360112610238576020906009549051908152f35b505034610238578160031936011261023857600e5490516001600160a01b039091168152602090f35b505034610238578160031936011261023857602090600a549051908152f35b5090346101c157826003193601126101c157610a8d6110c0565b600d80546001600160a01b03929190831615610c2d57610aac336114fb565b33855260079060209382855283872054918215610bfb57875b838110610b3c5750505050338552825283209081549184815582610aec575b846001815580f35b6003938385029385850403610b29575084528320908101905b818110610b125780610ae4565b808484925584600182015584600282015501610b05565b634e487b7160e01b865260119052602485fd5b338952848752610b4e81878b20611072565b50878751610b5b81610f82565b60848b8d8b865494858152600260018901549889898401520154918291015289895416908d519788968795632991fa3b60e21b875233908701526024860152604485015260648401525af18015610bf157908891610bc4575b5050610bbf90611177565b610ac5565b813d8311610bea575b610bd78183610fcc565b81010312610be657865f610bb4565b8880fd5b503d610bcd565b87513d8c823e3d90fd5b845162461bcd60e51b8152808801879052600c60248201526b6e6f20636c61696d61626c6560a01b6044820152606490fd5b815162461bcd60e51b8152602081860152600b60248201526a1a5b9d985b1a59081b999d60aa1b6044820152606490fd5b505034610238578160031936011261023857602090600c549051908152f35b505034610238578160031936011261023857600d5490516001600160a01b039091168152602090f35b505034610238576020366003190112610238576020916001600160a01b0390829082610cd0610f52565b168152600885522054169051908152f35b5090346101c15760603660031901126101c157610cfc610f52565b91610d05610f6c565b90604435610d116110c0565b60018060a01b039182841693610d32855f52600260205260405f2054151590565b15610e1f57878091610d43896111b6565b87519882602097888c01926323b872dd60e01b8452169a8b602482015230604482015287606482015260648152610d7981610fb1565b51925af1610d85611114565b81610def575b5015610dc65750610dae908587526003835284872084885283528487205461109f565b93855260038152828520918552528220556001815580f35b845162461bcd60e51b8152908101839052600360248201526229aa2360e91b6044820152606490fd5b80518015925085908315610e07575b5050505f610d8b565b610e179350820181019101611152565b5f8481610dfe565b855162461bcd60e51b815260208184015260116024820152703ab739bab83837b93a32b2103a37b5b2b760791b6044820152606490fd5b50503461023857806003193601126102385780602092610e74610f52565b610e7c610f6c565b6001600160a01b0391821683526003865283832091168252845220549051908152f35b50346101c15760203660031901126101c15760209282916001600160a01b03610ec6610f52565b168252845220549051908152f35b5090346101c15760203660031901126101c15780602093610ef3610f52565b6001600160a01b031681526007855281812054938552205480610f18575b5051908152f35b91610f3d610f34610f43939442600c5480610f4a575b5061116a565b60095490611198565b9061109f565b905f610f11565b90505f610f2e565b600435906001600160a01b0382168203610f6857565b5f80fd5b602435906001600160a01b0382168203610f6857565b606081019081106001600160401b03821117610f9d57604052565b634e487b7160e01b5f52604160045260245ffd5b60a081019081106001600160401b03821117610f9d57604052565b90601f801991011681019081106001600160401b03821117610f9d57604052565b6001600160401b038111610f9d5760051b60200190565b9080601f83011215610f6857602090823561101e81610fed565b9361102c6040519586610fcc565b818552838086019260051b820101928311610f68578301905b828210611053575050505090565b81356001600160a01b0381168103610f68578152908301908301611045565b805482101561108b575f52600360205f20910201905f90565b634e487b7160e01b5f52603260045260245ffd5b919082018092116110ac57565b634e487b7160e01b5f52601160045260245ffd5b60025f54146110cf5760025f55565b60405162461bcd60e51b815260206004820152601f60248201527f5265656e7472616e637947756172643a207265656e7472616e742063616c6c006044820152606490fd5b3d1561114d573d906001600160401b038211610f9d5760405191611142601f8201601f191660200184610fcc565b82523d5f602084013e565b606090565b90816020910312610f6857518015158103610f685790565b919082039182116110ac57565b5f1981146110ac5760010190565b818102929181159184041417156110ac57565b81156111a2570490565b634e487b7160e01b5f52601260045260245ffd5b6111be6116f7565b42600c54806114f3575b506001600160a01b0382165f908152600460205260409020805415806114eb575b6114db5750600460205260405f2054611202818361116a565b906112106009548093611198565b9061121b818561116a565b9280156111a25761122b866118aa565b93831561148f579061123e91068561116a565b60018060a01b0386165f52600460205260405f20555f5b82811061132e575050506001600160a01b0383165f90815260046020526040902054908183116112ff575b50505b6001600160a01b0382165f908152600560205260409020556112a4816119ad565b156112ac5750565b60018060a01b0381165f5260046020525f604081205560056020525f60408120556112e3600a54600660205260405f20549061116a565b600a556001600160a01b03165f90815260066020526040812055565b61130c611312928461116a565b90611185565b60018060a01b0383165f52600660205260405f20555f80611280565b8061147d57611369846113646113466009548661109f565b6001600160a01b038a165f908152600560205260409020549061116a565b611185565b9060018060a01b0387165f5261138a6006928360205260405f20549061109f565b9160018060a01b0388165f526020525f60408120555b60018060a01b0387165f52600760205260405f20600460205260405f2054926001830183116110ac5761140a6113e6600954956113e08760018801611185565b9061116a565b6001600160a01b038b165f9081526004602052604090205490956113e09086611185565b916040519161141883610f82565b825260208201948552604082019283528054600160401b811015610f9d5761144591600182018155611072565b92909261146a576114659460029251845551600184015551910155611177565b611255565b634e487b7160e01b5f525f60045260245ffd5b61148984600954611185565b906113a0565b505050506114b59060018060a01b0384165f52600560205261130c60405f20548461116a565b60018060a01b0383165f5260066020526114d460405f2091825461109f565b9055611283565b81925055600560205260405f2055565b5060016111e9565b90505f6111c8565b6115036116f7565b42600c54806116ef575b506001600160a01b0382165f908152600460205260409020805415806116e8575b6114db5750600460205260405f2054611547818361116a565b906115556009548093611198565b90611560818561116a565b9280156111a257611570866118aa565b93831561148f579061158391068561116a565b60018060a01b0386165f52600460205260405f20555f5b8281106115e7575050506001600160a01b0383165f90815260046020526040902054908183116112ff5750506001600160a01b0382165f908152600560205260409020556112a4816119ad565b806116d6576115ff846113646113466009548661109f565b9060018060a01b0387165f526116206006928360205260405f20549061109f565b9160018060a01b0388165f526020525f60408120555b60018060a01b0387165f52600760205260405f20600460205260405f2054926001830183116110ac576116766113e6600954956113e08760018801611185565b916040519161168483610f82565b825260208201948552604082019283528054600160401b811015610f9d576116b191600182018155611072565b92909261146a576116d19460029251845551600184015551910155611177565b61159a565b6116e284600954611185565b90611636565b505f61152e565b90505f61150d565b6116ff61174a565b61170b600b544261116a565b9080151580611741575b611722575b505042600b55565b6117379161172f91611185565b600a5461109f565b600a555f8061171a565b50811515611715565b5f905f60015490805b82811061175f57505050565b61176881611892565b9054604080516370a0823160e01b815230600480830191909152919391926020926024916001600160a01b039160031b1c811684848481845afa938415611888578994611859575b50836117cc575b505050505050506117c790611177565b611753565b88526008845285882054865162fead9760e21b81529586019390935295999583928592918391165afa92831561185057508492611820575b5050611813906117c79261109f565b94905f80808080806117b7565b90809250813d8311611849575b6118378183610fcc565b810103126101c1575181611813611804565b503d61182d565b513d86823e3d90fd5b9093508481813d8311611881575b6118718183610fcc565b81010312610be65751925f6117b0565b503d611867565b87513d8b823e3d90fd5b60015481101561108b5760015f5260205f2001905f90565b905f915f60015491815b8381106118c15750505050565b6118ca81611892565b9060018060a01b0390546003828616875282602092828452604095868a20931b1c168752815282862054918261190d575b5050505061190890611177565b6118b4565b81906008829b969b52848820541692602485518095819362fead9760e21b835260048301525afa9283156119905750859261195c575b5050611952906119089261109f565b95905f80806118fb565b90809250813d8311611989575b6119738183610fcc565b81010312611985575181611952611943565b8380fd5b503d611969565b513d87823e3d90fd5b805182101561108b5760209160051b010190565b905f915f80916001918254935b8481106119c8575050505050565b6001600160a01b038381168352600360208181526040808620909390926119ee86611892565b9054911b1c16855252822054611a0c57611a0790611177565b6119ba565b50919450505050565b15611a1c57565b60405162461bcd60e51b815260206004820152600d60248201526c6e6f7420676f7665726e61636560981b6044820152606490fd5b5f81815260026020526040812054611ac757600154600160401b811015611ab3579082611a9f611a8984600160409601600155611892565b819391549060031b91821b915f19901b19161790565b905560015492815260026020522055600190565b634e487b7160e01b82526041600452602482fd5b905090565b5f818152600260205260408120549091908015611baf575f1990808201818111611b9b5760015490838201918211611b8757808203611b53575b5050506001548015611b3f57810190611b1e82611892565b909182549160031b1b19169055600155815260026020526040812055600190565b634e487b7160e01b84526031600452602484fd5b611b71611b62611a8993611892565b90549060031b1c928392611892565b90558452600260205260408420555f8080611b06565b634e487b7160e01b86526011600452602486fd5b634e487b7160e01b85526011600452602485fd5b50509056fea2646970667358221220eea41bb89fc81e03d44fa88b4513bb7f03794a986cd02586180808f20dba9ab564736f6c63430008150033",
  "immutableReferences": {},
  "source": "// SPDX-License-Identifier: MIT\npragma solidity 0.8.21;\n\nimport {TransferHelper} from \"@uniswap/v3-periphery/contracts/libraries/TransferHelper.sol\";\nimport {ReentrancyGuard} from \"@openzeppelin/contracts/security/ReentrancyGuard.sol\";\nimport {EnumerableSet} from \"@openzeppelin/contracts/utils/structs/EnumerableSet.sol\";\nimport {IERC20} from \"@openzeppelin/contracts/token/ERC20/IERC20.sol\";\n\nimport {IMiningPoolTokenAdapter} from \"../interfaces/IMiningPoolTokenAdapter.sol\";\n\nimport {StoneNFT} from \"./StoneNFT.sol\";\n\ncontract MiningPool is ReentrancyGuard {\n    using EnumerableSet for EnumerableSet.AddressSet;\n\n    EnumerableSet.AddressSet private tokens;\n\n    mapping(address => mapping(address => uint256)) public stakedAmount; // user=>token=>amount\n\n    mapping(address => uint256) public stakeTime;\n    mapping(address => uint256) public updateTime;\n    mapping(address => uint256) public currentPendingPoints;\n\n    mapping(address => NFTDetail[]) public pendingNFT;\n\n    mapping(address => address) public tokenAdapters;\n\n    uint256 public cycle;\n    uint256 public totalPoints;\n    uint256 public globalUpdateTime;\n\n    uint256 public terminateTime;\n\n    address public nft;\n    address public governance;\n\n    struct NFTDetail {\n        uint256 points;\n        uint256 startTime;\n        uint256 endTime;\n    }\n\n    modifier onlyGovernance() {\n        require(governance == msg.sender, \"not governace\");\n        _;\n    }\n\n    event TransferGovernance(address oldAddr, address newAddr);\n    event Terminated(uint256 time, uint256 points);\n\n    constructor(uint256 _cycle) {\n        governance = msg.sender;\n        cycle = _cycle;\n\n        globalUpdateTime = block.timestamp;\n    }\n\n    function stake(address _token, uint256 _amount) external {\n        _stakeFor(msg.sender, _token, _amount);\n    }\n\n    function stakeFor(address _user, address _token, uint256 _amount) external {\n        _stakeFor(_user, _token, _amount);\n    }\n\n    function _stakeFor(\n        address _user,\n        address _token,\n        uint256 _amount\n    ) internal nonReentrant {\n        require(tokens.contains(_token), \"unsupported token\");\n\n        updateReward(_user, false);\n\n        TransferHelper.safeTransferFrom(_token, _user, address(this), _amount);\n\n        stakedAmount[_user][_token] = stakedAmount[_user][_token] + _amount;\n    }\n\n    function unstake(address _token, uint256 _amount) external nonReentrant {\n        require(_amount > 0, \"unstake zero\");\n        require(stakedAmount[msg.sender][_token] >= _amount, \"exceed balance\");\n\n        updateReward(msg.sender, false);\n\n        stakedAmount[msg.sender][_token] =\n            stakedAmount[msg.sender][_token] -\n            _amount;\n\n        TransferHelper.safeTransfer(_token, msg.sender, _amount);\n    }\n\n    function claim() external nonReentrant {\n        require(nft != address(0), \"invalid nft\");\n\n        updateReward(msg.sender, true);\n\n        uint256 length = pendingNFT[msg.sender].length;\n\n        require(length > 0, \"no claimable\");\n\n        for (uint i; i < length; i++) {\n            NFTDetail memory detail = pendingNFT[msg.sender][i];\n\n            StoneNFT(nft).mint(\n                msg.sender,\n                detail.points,\n                detail.startTime,\n                detail.endTime\n            );\n        }\n\n        delete pendingNFT[msg.sender];\n    }\n\n    function updateGlobal() internal {\n        uint256 value = getAllValue();\n        uint256 interval = block.timestamp - globalUpdateTime;\n\n        if (value != 0 && interval != 0) {\n            totalPoints += value * interval;\n        }\n\n        globalUpdateTime = block.timestamp;\n    }\n\n    function updateReward(address _user, bool _isClaim) internal {\n        updateGlobal();\n\n        uint256 current = block.timestamp;\n        if (terminateTime != 0) {\n            current = terminateTime;\n        }\n\n        if (stakeTime[_user] == 0 && !_isClaim) {\n            stakeTime[_user] = current;\n            updateTime[_user] = current;\n            return;\n        }\n\n        uint256 previous = stakeTime[_user];\n        uint256 acc = (current - previous) / cycle;\n        uint256 remainder = (current - previous) % cycle;\n        uint256 value = getAllPositionValue(_user);\n\n        if (acc > 0) {\n            stakeTime[_user] = current - remainder;\n\n            for (uint256 i; i < acc; i++) {\n                uint256 points;\n                if (i == 0) {\n                    points =\n                        (previous + cycle - updateTime[_user]) *\n                        value +\n                        currentPendingPoints[_user];\n                    currentPendingPoints[_user] = 0;\n                } else {\n                    points = cycle * value;\n                }\n                pendingNFT[_user].push(\n                    NFTDetail(\n                        points,\n                        stakeTime[_user] - (i + 1) * cycle,\n                        stakeTime[_user] - (i * cycle)\n                    )\n                );\n            }\n            if (current > stakeTime[_user]) {\n                currentPendingPoints[_user] =\n                    value *\n                    (current - stakeTime[_user]);\n            }\n        } else {\n            currentPendingPoints[_user] +=\n                value *\n                (current - updateTime[_user]);\n        }\n\n        updateTime[_user] = current;\n\n        if (!checkPosition(_user)) {\n            stakeTime[_user] = 0;\n            updateTime[_user] = 0;\n\n            totalPoints = totalPoints - currentPendingPoints[_user];\n            currentPendingPoints[_user] = 0;\n        }\n    }\n\n    function earned(address _user) public view returns (uint256 amount) {\n        amount = pendingNFT[_user].length;\n\n        uint256 previous = stakeTime[_user];\n\n        if (previous != 0) {\n            uint256 current = block.timestamp;\n            if (terminateTime > 0) {\n                current = terminateTime;\n            }\n            uint256 acc = (current - previous) / cycle;\n            amount += acc;\n        }\n    }\n\n    function getPendingNFTLength(\n        address _user\n    ) public view returns (uint256 amount) {\n        amount = pendingNFT[_user].length;\n    }\n\n    function getAllValue() public view returns (uint256 value) {\n        uint256 length = tokens.length();\n        for (uint256 i; i < length; i++) {\n            address token = tokens.at(i);\n            uint256 amount = IERC20(token).balanceOf(address(this));\n            if (amount > 0) {\n                value += IMiningPoolTokenAdapter(tokenAdapters[token])\n                    .getStoneValue(amount);\n            }\n        }\n    }\n\n    function getAllPositionValue(\n        address _user\n    ) public view returns (uint256 value) {\n        uint256 length = tokens.length();\n        for (uint256 i; i < length; i++) {\n            address token = tokens.at(i);\n            uint256 amount = stakedAmount[_user][token];\n            if (amount > 0) {\n                value += IMiningPoolTokenAdapter(tokenAdapters[token])\n                    .getStoneValue(amount);\n            }\n        }\n    }\n\n    function getAllPoolTokens() public view returns (address[] memory list) {\n        uint256 len = tokens.length();\n\n        list = new address[](len);\n\n        for (uint256 i; i < len; i++) {\n            list[i] = tokens.at(i);\n        }\n    }\n\n    function checkPosition(address _user) public view returns (bool) {\n        for (uint256 i; i < tokens.length(); i++) {\n            if (stakedAmount[_user][tokens.at(i)] > 0) {\n                return true;\n            }\n        }\n    }\n\n    function setSupportedTokens(\n        address[] memory _tokens,\n        address[] memory _adapters,\n        bool[] memory _flags\n    ) external onlyGovernance {\n        uint256 length = _tokens.length;\n        require(\n            _flags.length == length && _adapters.length == length,\n            \"invalid length\"\n        );\n\n        for (uint256 i; i < length; i++) {\n            address token = _tokens[i];\n            if (_flags[i]) {\n                tokens.add(token);\n                tokenAdapters[token] = _adapters[i];\n            } else {\n                tokens.remove(token);\n                tokenAdapters[token] = address(0);\n            }\n        }\n    }\n\n    function setNFT(address _nft) external onlyGovernance {\n        require(nft == address(0), \"already set\");\n\n        nft = _nft;\n    }\n\n    function terminate(address _nft) external onlyGovernance {\n        terminateTime = block.timestamp;\n        updateGlobal();\n\n        emit Terminated(terminateTime, totalPoints);\n    }\n\n    function setNewGovernance(address _governance) external onlyGovernance {\n        emit TransferGovernance(governance, _governance);\n\n        governance = _governance;\n    }\n}\n",
  "sourcePath": "/Users/mingyuzhang/Downloads/stone-vault-v1/contracts/mining/MiningPool.sol",
  "compiler": {
    "name": "solc",
    "version": "0.8.21+commit.d9974bed.Emscripten.clang"
  },
  "schemaVersion": "3.4.16",
  "updatedAt": "2024-06-07T05:41:32.625Z",
  "devdoc": {
    "kind": "dev",
    "methods": {},
    "version": 1
  },
  "userdoc": {
    "kind": "user",
    "methods": {},
    "version": 1
  }
}