{
  "contractName": "Minter",
  "abi": [
    {
      "inputs": [
        {
          "internalType": "address",
          "name": "_stone",
          "type": "address"
        },
        {
          "internalType": "address payable",
          "name": "_vault",
          "type": "address"
        }
      ],
      "stateMutability": "nonpayable",
      "type": "constructor"
    },
    {
      "inputs": [],
      "name": "stone",
      "outputs": [
        {
          "internalType": "address",
          "name": "",
          "type": "address"
        }
      ],
      "stateMutability": "view",
      "type": "function"
    },
    {
      "inputs": [],
      "name": "vault",
      "outputs": [
        {
          "internalType": "address payable",
          "name": "",
          "type": "address"
        }
      ],
      "stateMutability": "view",
      "type": "function"
    },
    {
      "inputs": [
        {
          "internalType": "address",
          "name": "_to",
          "type": "address"
        },
        {
          "internalType": "uint256",
          "name": "_amount",
          "type": "uint256"
        }
      ],
      "name": "mint",
      "outputs": [],
      "stateMutability": "nonpayable",
      "type": "function"
    },
    {
      "inputs": [
        {
          "internalType": "address",
          "name": "_from",
          "type": "address"
        },
        {
          "internalType": "uint256",
          "name": "_amount",
          "type": "uint256"
        }
      ],
      "name": "burn",
      "outputs": [],
      "stateMutability": "nonpayable",
      "type": "function"
    },
    {
      "inputs": [
        {
          "internalType": "address",
          "name": "_vault",
          "type": "address"
        }
      ],
      "name": "setNewVault",
      "outputs": [],
      "stateMutability": "nonpayable",
      "type": "function"
    },
    {
      "inputs": [],
      "name": "getTokenPrice",
      "outputs": [
        {
          "internalType": "uint256",
          "name": "price",
          "type": "uint256"
        }
      ],
      "stateMutability": "nonpayable",
      "type": "function"
    }
  ],
  "bytecode": "0x60803461008857601f61042c38819003918201601f19168301916001600160401b0383118484101761008c5780849260409485528339810103126100885780516001600160a01b03918282169182900361008857602001519182168092036100885760018060a01b031990815f5416175f55600154161760015560405161038b90816100a18239f35b5f80fd5b634e487b7160e01b5f52604160045260245ffdfe608060408181526004361015610013575f80fd5b5f91823560e01c9081630167eb85146102b1575082816340c10f191461022e5781634b94f50e146101715781639dc29fac146100da57508063e7b77f701461008e5763fbfa77cf14610063575f80fd5b3461008a578160031936011261008a5760015490516001600160a01b039091168152602090f35b5080fd5b82346100d75760203660031901126100d7576100a86102d5565b600154906001600160a01b03906100c233838516146102ef565b6001600160a01b031990921691161760015580f35b80fd5b80833461016e578060031936011261016e576100f46102d5565b9060018060a01b0361010b816001541633146102ef565b835416803b15610169578151632770a7eb60e21b8152928491849182908490829061013d90602435906004840161033a565b03925af190811561016057506101505750f35b61015990610327565b6100d75780f35b513d84823e3d90fd5b505050fd5b50fd5b80833461016e578160031936011261016e576001548151631453cabb60e11b81529260209184916004918391906001600160a01b03165af19182156102245783926101c1575b6020838351908152f35b90915060203d811161021d575b601f8101601f191682016001600160401b0381118382101761020957602091839185528101031261020557602092505190836101b7565b8280fd5b634e487b7160e01b5f52604160045260245ffd5b503d6101ce565b81513d85823e3d90fd5b80833461016e578060031936011261016e576102486102d5565b6001546001600160a01b039061026190821633146102ef565b83541690813b156101695783916102919184519586809481936340c10f1960e01b8352602435906004840161033a565b03925af190811561016057506102a5575080f35b6102ae90610327565b80f35b83903461008a578160031936011261008a5790546001600160a01b03168152602090f35b600435906001600160a01b03821682036102eb57565b5f80fd5b156102f657565b60405162461bcd60e51b81526020600482015260096024820152681b9bdd081d985d5b1d60ba1b6044820152606490fd5b6001600160401b03811161020957604052565b6001600160a01b03909116815260208101919091526040019056fea264697066735822122072dd252a412639b092428aeb7315c9d3383b8a3db4592cb8518ad35aa007eea664736f6c63430008150033",
  "immutableReferences": {},
  "source": "// SPDX-License-Identifier: MIT\npragma solidity 0.8.21;\n\nimport {Stone} from \"./Stone.sol\";\nimport {StoneVault} from \"../StoneVault.sol\";\n\ncontract Minter {\n    // TODO: governable upgrade\n    address public stone;\n    address payable public vault;\n\n    modifier onlyVault() {\n        require(msg.sender == vault, \"not vault\");\n        _;\n    }\n\n    constructor(address _stone, address payable _vault) {\n        stone = _stone;\n        vault = _vault;\n    }\n\n    function mint(address _to, uint256 _amount) external onlyVault {\n        Stone(stone).mint(_to, _amount);\n    }\n\n    function burn(address _from, uint256 _amount) external onlyVault {\n        Stone(stone).burn(_from, _amount);\n    }\n\n    function setNewVault(address _vault) external onlyVault {\n        vault = payable(_vault);\n    }\n\n    function getTokenPrice() public returns (uint256 price) {\n        price = StoneVault(vault).currentSharePrice();\n    }\n}\n",
  "sourcePath": "/Users/mingyuzhang/Downloads/stone-vault-v1/contracts/token/Minter.sol",
  "compiler": {
    "name": "solc",
    "version": "0.8.21+commit.d9974bed.Emscripten.clang"
  },
  "schemaVersion": "3.4.16",
  "updatedAt": "2024-06-07T05:41:32.651Z",
  "devdoc": {
    "kind": "dev",
    "methods": {},
    "version": 1
  },
  "userdoc": {
    "kind": "user",
    "methods": {},
    "version": 1
  }
}