{
  "contractName": "MockVault",
  "abi": [
    {
      "inputs": [
        {
          "internalType": "address",
          "name": "_minter",
          "type": "address"
        },
        {
          "internalType": "address",
          "name": "_btcAddr",
          "type": "address"
        }
      ],
      "stateMutability": "nonpayable",
      "type": "constructor"
    },
    {
      "inputs": [],
      "name": "btcAddr",
      "outputs": [
        {
          "internalType": "address",
          "name": "",
          "type": "address"
        }
      ],
      "stateMutability": "view",
      "type": "function"
    },
    {
      "inputs": [],
      "name": "minter",
      "outputs": [
        {
          "internalType": "address",
          "name": "",
          "type": "address"
        }
      ],
      "stateMutability": "view",
      "type": "function"
    },
    {
      "inputs": [
        {
          "internalType": "uint256",
          "name": "_amount",
          "type": "uint256"
        }
      ],
      "name": "deposit",
      "outputs": [
        {
          "internalType": "uint256",
          "name": "mintAmount",
          "type": "uint256"
        }
      ],
      "stateMutability": "nonpayable",
      "type": "function"
    }
  ],
  "bytecode": "0x60c0346100a057601f6103e838819003918201601f19168301916001600160401b038311848410176100b05780849260409485528339810103126100a057610052602061004b836100c4565b92016100c4565b906001600160a01b03808216151590816100a4575b50156100a05760805260a05260405161030f90816100d9823960805181818161015901526102aa015260a0518181816056015260ef0152f35b5f80fd5b9050821615155f610067565b634e487b7160e01b5f52604160045260245ffd5b51906001600160a01b03821682036100a05756fe6080604081815260049182361015610015575f80fd5b5f92833560e01c918263075461721461029657508163b6b55f2514610089575063f769367514610043575f80fd5b34610085578160031936011261008557517f00000000000000000000000000000000000000000000000000000000000000006001600160a01b03168152602090f35b5080fd5b91905034610292576020928360031936011261028f578235825193858501916323b872dd60e01b835260249233848801523060448801528160648801526064875260a087019667ffffffffffffffff978181108982111761027d578752518591829190827f00000000000000000000000000000000000000000000000000000000000000005af13d15610276573d87811161026457865190601f8101601f19908116603f011682018981118382101761025257885281523d868a83013e5b81610219575b50156101f25760011c947f00000000000000000000000000000000000000000000000000000000000000006001600160a01b0316803b156101ee57908480939260448851809881936340c10f1960e01b835233888401528c8a8401525af180156101e4576101bf575b87878751908152f35b84116101d45750505081525f808080806101b6565b634e487b7160e01b825260419052fd5b86513d85823e3d90fd5b8480fd5b5060036064928786519362461bcd60e51b85528401528201526229aa2360e91b6044820152fd5b80915051888115918215610232575b505090505f61014d565b83809293500103126101ee5787015180151581036101ee5780885f610228565b634e487b7160e01b8852604186528688fd5b634e487b7160e01b8652604184528486fd5b6060610147565b634e487b7160e01b8752604185528587fd5b80fd5b8280fd5b8490346100855781600319360112610085577f00000000000000000000000000000000000000000000000000000000000000006001600160a01b03168152602090f3fea264697066735822122034fe9c6192752b3324bc42ba912fbb48b86ab8e123616f67270d9b86e34cff4664736f6c63430008150033",
  "immutableReferences": {
    "17460": [
      {
        "length": 32,
        "start": 345
      },
      {
        "length": 32,
        "start": 682
      }
    ],
    "17462": [
      {
        "length": 32,
        "start": 86
      },
      {
        "length": 32,
        "start": 239
      }
    ]
  },
  "source": "// SPDX-License-Identifier: MIT\npragma solidity 0.8.21;\n\nimport {IERC20} from \"@openzeppelin/contracts/token/ERC20/IERC20.sol\";\nimport {ERC20} from \"@openzeppelin/contracts/token/ERC20/ERC20.sol\";\nimport {Minter} from \"../token/Minter.sol\";\n\nimport {TransferHelper} from \"@uniswap/v3-periphery/contracts/libraries/TransferHelper.sol\";\n\ncontract MockVault {\n    address public immutable minter;\n    address public immutable btcAddr;\n\n    constructor(address _minter, address _btcAddr) {\n        require(_minter != address(0) && _btcAddr != address(0));\n\n        minter = _minter;\n        btcAddr = _btcAddr;\n    }\n\n    function deposit(uint256 _amount) external returns (uint256 mintAmount) {\n        uint256 amount = _amount;\n        TransferHelper.safeTransferFrom(\n            btcAddr,\n            msg.sender,\n            address(this),\n            amount\n        );\n\n        mintAmount = amount / 2;\n        Minter(minter).mint(msg.sender, mintAmount);\n    }\n}\n",
  "sourcePath": "/Users/mingyuzhang/Downloads/stone-vault-v1/contracts/mock/MockVault.sol",
  "compiler": {
    "name": "solc",
    "version": "0.8.21+commit.d9974bed.Emscripten.clang"
  },
  "schemaVersion": "3.4.16",
  "updatedAt": "2024-06-07T05:41:32.634Z",
  "devdoc": {
    "kind": "dev",
    "methods": {},
    "version": 1
  },
  "userdoc": {
    "kind": "user",
    "methods": {},
    "version": 1
  }
}