{
  "contractName": "MockAquaLpToken",
  "abi": [
    {
      "inputs": [],
      "stateMutability": "nonpayable",
      "type": "constructor"
    },
    {
      "inputs": [
        {
          "internalType": "uint256",
          "name": "mintAmount",
          "type": "uint256"
        }
      ],
      "name": "mint",
      "outputs": [
        {
          "internalType": "uint256",
          "name": "",
          "type": "uint256"
        }
      ],
      "stateMutability": "nonpayable",
      "type": "function"
    },
    {
      "inputs": [
        {
          "internalType": "uint256",
          "name": "redeemTokens",
          "type": "uint256"
        }
      ],
      "name": "redeem",
      "outputs": [
        {
          "internalType": "uint256",
          "name": "",
          "type": "uint256"
        }
      ],
      "stateMutability": "nonpayable",
      "type": "function"
    },
    {
      "inputs": [
        {
          "internalType": "uint256",
          "name": "redeemAmount",
          "type": "uint256"
        }
      ],
      "name": "redeemUnderlying",
      "outputs": [
        {
          "internalType": "uint256",
          "name": "",
          "type": "uint256"
        }
      ],
      "stateMutability": "nonpayable",
      "type": "function"
    },
    {
      "inputs": [],
      "name": "exchangeRateCurrent",
      "outputs": [
        {
          "internalType": "uint256",
          "name": "rate",
          "type": "uint256"
        }
      ],
      "stateMutability": "nonpayable",
      "type": "function"
    },
    {
      "inputs": [
        {
          "internalType": "address",
          "name": "owner",
          "type": "address"
        }
      ],
      "name": "balanceOf",
      "outputs": [
        {
          "internalType": "uint256",
          "name": "",
          "type": "uint256"
        }
      ],
      "stateMutability": "view",
      "type": "function"
    }
  ],
  "bytecode": "0x6080806040523460145760ec90816100198239f35b5f80fdfe60808060405260043610156011575f80fd5b5f3560e01c90816370a0823114607557508063852a12e314604d578063a0712d6814604d578063bd6d894d1460515763db006a7514604d575f80fd5b609d565b346071575f3660031901126071576020604051671bc16d674ec800008152f35b5f80fd5b3460715760203660031901126071576004356001600160a01b03811603607157805f60209252f35b34607157602036600319011260715760206040515f8152f3fea2646970667358221220c04ce9bc2f440c287c9df97a44da76c6b9caabafc0361bb3678e0b56818d3d6064736f6c634300081a0033",
  "immutableReferences": {},
  "source": "// SPDX-License-Identifier: MIT\npragma solidity >=0.4.22 <0.9.0;\n\nimport \"../interfaces/IAquaLpToken.sol\";\n\ncontract MockAquaLpToken is IAquaLpToken {\n    constructor() {}\n\n    function mint(uint mintAmount) external returns (uint) {}\n\n    function redeem(uint redeemTokens) external returns (uint) {}\n\n    function redeemUnderlying(uint redeemAmount) external returns (uint) {}\n\n    function exchangeRateCurrent() external override returns (uint rate) {\n        rate = 2e18;\n    }\n\n    function balanceOf(address owner) external view returns (uint256) {}\n}\n",
  "sourcePath": "/Users/mingyuzhang/Downloads/stone-vault-v1/contracts/mock/MockLpToken.sol",
  "compiler": {
    "name": "solc",
    "version": "0.8.26+commit.8a97fa7a.Emscripten.clang"
  },
  "schemaVersion": "3.4.16",
  "updatedAt": "2024-06-09T06:31:55.609Z",
  "devdoc": {
    "kind": "dev",
    "methods": {},
    "version": 1
  },
  "userdoc": {
    "kind": "user",
    "methods": {},
    "version": 1
  }
}