{
  "contractName": "MockStrategyManager",
  "abi": [
    {
      "inputs": [],
      "name": "lastAmount",
      "outputs": [
        {
          "internalType": "uint256",
          "name": "",
          "type": "uint256"
        }
      ],
      "stateMutability": "view",
      "type": "function"
    },
    {
      "inputs": [],
      "name": "lastStrategy",
      "outputs": [
        {
          "internalType": "address",
          "name": "",
          "type": "address"
        }
      ],
      "stateMutability": "view",
      "type": "function"
    },
    {
      "inputs": [],
      "name": "lastToken",
      "outputs": [
        {
          "internalType": "address",
          "name": "",
          "type": "address"
        }
      ],
      "stateMutability": "view",
      "type": "function"
    },
    {
      "inputs": [],
      "name": "shares",
      "outputs": [
        {
          "internalType": "uint256",
          "name": "",
          "type": "uint256"
        }
      ],
      "stateMutability": "view",
      "type": "function"
    },
    {
      "inputs": [
        {
          "internalType": "address",
          "name": "strategy",
          "type": "address"
        },
        {
          "internalType": "address",
          "name": "token",
          "type": "address"
        },
        {
          "internalType": "uint256",
          "name": "amount",
          "type": "uint256"
        }
      ],
      "name": "depositIntoStrategy",
      "outputs": [
        {
          "internalType": "uint256",
          "name": "",
          "type": "uint256"
        }
      ],
      "stateMutability": "nonpayable",
      "type": "function"
    }
  ],
  "bytecode": "0x60808060405234610016576101a7908161001b8239f35b5f80fdfe6080806040526004361015610012575f80fd5b5f90813560e01c90816303314efa14610155575080632f796f501461012c578063829a86d91461010e578063d4515c11146100e75763e7a050aa14610055575f80fd5b346100e45760603660031901126100e4576004356001600160a01b0381811692918390036100e0576024359081168091036100e0576044359260018060a01b031990818454161783556001541617600155816002558160011b91808304600214901517156100cc5760208280600355604051908152f35b634e487b7160e01b81526011600452602490fd5b5080fd5b80fd5b50346100e457806003193601126100e457546040516001600160a01b039091168152602090f35b50346100e457806003193601126100e4576020600254604051908152f35b50346100e457806003193601126100e4576001546040516001600160a01b039091168152602090f35b9050346100e057816003193601126100e0576020906003548152f3fea2646970667358221220e8fb830b567697f8ede8d17a2f0143338cb2343d1c2b259d39ebc976eb653ba364736f6c63430008150033",
  "immutableReferences": {},
  "source": "// SPDX-License-Identifier: MIT\npragma solidity >=0.4.22 <0.9.0;\n\nimport \"../interfaces/IStrategyManager.sol\";\n\ncontract MockStrategyManager is IStrategyManager {\n    address public lastStrategy;\n    address public lastToken;\n    uint256 public lastAmount;\n    uint256 public shares;\n\n    function depositIntoStrategy(\n        address strategy,\n        address token,\n        uint256 amount\n    ) external override returns (uint256) {\n        lastStrategy = strategy;\n        lastToken = token;\n        lastAmount = amount;\n\n        // 模拟返回的 shares\n        shares = amount * 2; \n\n        return shares;\n    }\n}",
  "sourcePath": "/Users/mingyuzhang/Downloads/stone-vault-v1/contracts/mock/MockStrategyManager.sol",
  "compiler": {
    "name": "solc",
    "version": "0.8.21+commit.d9974bed.Emscripten.clang"
  },
  "schemaVersion": "3.4.16",
  "updatedAt": "2024-06-07T05:41:32.633Z",
  "devdoc": {
    "kind": "dev",
    "methods": {},
    "version": 1
  },
  "userdoc": {
    "kind": "user",
    "methods": {},
    "version": 1
  }
}