{
  "contractName": "MockVault1",
  "abi": [
    {
      "inputs": [
        {
          "internalType": "address",
          "name": "_minter",
          "type": "address"
        }
      ],
      "stateMutability": "nonpayable",
      "type": "constructor"
    },
    {
      "inputs": [],
      "name": "minter",
      "outputs": [
        {
          "internalType": "address",
          "name": "",
          "type": "address"
        }
      ],
      "stateMutability": "view",
      "type": "function"
    },
    {
      "inputs": [],
      "name": "deposit",
      "outputs": [
        {
          "internalType": "uint256",
          "name": "mintAmount",
          "type": "uint256"
        }
      ],
      "stateMutability": "payable",
      "type": "function"
    }
  ],
  "bytecode": "0x60a03461007657601f6101f838819003918201601f19168301916001600160401b0383118484101761007a5780849260209460405283398101031261007657516001600160a01b038116808203610076571561007657608052604051610169908161008f8239608051818181604601526101040152f35b5f80fd5b634e487b7160e01b5f52604160045260245ffdfe6080806040526004361015610012575f80fd5b5f90813560e01c90816307546172146100f0575063d0e30db014610034575f80fd5b806003193601126100ed573460011c817f00000000000000000000000000000000000000000000000000000000000000006001600160a01b0316803b156100e95781906044604051809481936340c10f1960e01b83523360048401528760248401525af180156100de576100ae575b602082604051908152f35b67ffffffffffffffff81116100ca57602092506040525f6100a3565b634e487b7160e01b83526041600452602483fd5b6040513d85823e3d90fd5b5080fd5b80fd5b9050346100e957816003193601126100e9577f00000000000000000000000000000000000000000000000000000000000000006001600160a01b03168152602090f3fea264697066735822122009496061ccb281a859c7958f19e7333da86f526ee53bc9eedc20c5bb9567523c64736f6c63430008150033",
  "immutableReferences": {
    "17545": [
      {
        "length": 32,
        "start": 70
      },
      {
        "length": 32,
        "start": 260
      }
    ]
  },
  "source": "// SPDX-License-Identifier: MIT\n\npragma solidity 0.8.21;\nimport {IERC20} from \"@openzeppelin/contracts/token/ERC20/IERC20.sol\";\nimport {ERC20} from \"@openzeppelin/contracts/token/ERC20/ERC20.sol\";\nimport {Minter} from \"../token/Minter.sol\";\n\ncontract MockVault1 {\n    address public immutable minter;\n\n    constructor(address _minter) {\n        require(_minter != address(0));\n        minter = _minter;\n    }\n    function deposit() external payable returns (uint256 mintAmount) {\n        // Get the deposited amount from the transaction\n        uint256 amount = msg.value;\n        mintAmount = amount / 2;\n        Minter(minter).mint(msg.sender, mintAmount);\n    }\n}\n",
  "sourcePath": "/Users/mingyuzhang/Downloads/stone-vault-v1/contracts/mock/MockVault1.sol",
  "compiler": {
    "name": "solc",
    "version": "0.8.21+commit.d9974bed.Emscripten.clang"
  },
  "schemaVersion": "3.4.16",
  "updatedAt": "2024-06-07T05:41:32.634Z",
  "devdoc": {
    "kind": "dev",
    "methods": {},
    "version": 1
  },
  "userdoc": {
    "kind": "user",
    "methods": {},
    "version": 1
  }
}