{
  "contractName": "MockLpToken",
  "abi": [
    {
      "inputs": [],
      "stateMutability": "nonpayable",
      "type": "constructor"
    },
    {
      "inputs": [
        {
          "internalType": "uint256",
          "name": "amount",
          "type": "uint256"
        }
      ],
      "name": "mint",
      "outputs": [
        {
          "internalType": "uint256",
          "name": "",
          "type": "uint256"
        }
      ],
      "stateMutability": "nonpayable",
      "type": "function"
    },
    {
      "inputs": [
        {
          "internalType": "uint256",
          "name": "redeemTokens",
          "type": "uint256"
        }
      ],
      "name": "redeem",
      "outputs": [
        {
          "internalType": "uint256",
          "name": "",
          "type": "uint256"
        }
      ],
      "stateMutability": "nonpayable",
      "type": "function"
    },
    {
      "inputs": [
        {
          "internalType": "uint256",
          "name": "redeemAmount",
          "type": "uint256"
        }
      ],
      "name": "redeemUnderlying",
      "outputs": [
        {
          "internalType": "uint256",
          "name": "",
          "type": "uint256"
        }
      ],
      "stateMutability": "nonpayable",
      "type": "function"
    },
    {
      "inputs": [],
      "name": "exchangeRateCurrent",
      "outputs": [
        {
          "internalType": "uint256",
          "name": "",
          "type": "uint256"
        }
      ],
      "stateMutability": "nonpayable",
      "type": "function"
    },
    {
      "inputs": [
        {
          "internalType": "address",
          "name": "owner",
          "type": "address"
        }
      ],
      "name": "balanceOf",
      "outputs": [
        {
          "internalType": "uint256",
          "name": "",
          "type": "uint256"
        }
      ],
      "stateMutability": "view",
      "type": "function"
    }
  ],
  "bytecode": "0x6080806040523460155761010f908161001a8239f35b5f80fdfe60808060405260043610156011575f80fd5b5f3560e01c90816370a0823114609057508063852a12e314604d578063a0712d68146075578063bd6d894d1460515763db006a7514604d575f80fd5b60c0565b346071575f3660031901126071576020604051671bc16d674ec800008152f35b5f80fd5b34607157602036600319011260715760206040516004358152f35b3460715760203660031901126071576004356001600160a01b0381160360715780670de0b6b3a764000060209252f35b34607157602036600319011260715760206040515f8152f3fea26469706673582212202e3e624ba190c2b0df6222a15391b9ce5b8cc2156781d9f34479fe70894ee5d664736f6c634300081a0033",
  "immutableReferences": {},
  "source": "// SPDX-License-Identifier: MIT\npragma solidity >=0.4.22 <0.9.0;\n\nimport \"../interfaces/IAquaLpToken.sol\";\n\ncontract MockLpToken is IAquaLpToken {\n    constructor() {}\n\n    function mint(uint amount) external override returns (uint) {\n        return amount;\n    }\n\n    function redeem(uint redeemTokens) external returns (uint) {}\n\n    function redeemUnderlying(uint redeemAmount) external returns (uint) {}\n\n    function exchangeRateCurrent() external override returns (uint) {\n        return 2e18;\n    }\n\n    function balanceOf(address owner) external view override returns (uint256) {\n        return 1e18;\n    }\n}\n",
  "sourcePath": "/Users/mingyuzhang/Downloads/stone-vault-v1/contracts/mock/MockLpToken.sol",
  "compiler": {
    "name": "solc",
    "version": "0.8.26+commit.8a97fa7a.Emscripten.clang"
  },
  "schemaVersion": "3.4.16",
  "updatedAt": "2024-06-09T14:06:08.004Z",
  "devdoc": {
    "kind": "dev",
    "methods": {},
    "version": 1
  },
  "userdoc": {
    "kind": "user",
    "methods": {},
    "version": 1
  }
}