{
  "contractName": "MockToken",
  "abi": [
    {
      "inputs": [
        {
          "internalType": "string",
          "name": "name",
          "type": "string"
        },
        {
          "internalType": "string",
          "name": "symbol",
          "type": "string"
        }
      ],
      "stateMutability": "nonpayable",
      "type": "constructor"
    },
    {
      "anonymous": false,
      "inputs": [
        {
          "indexed": true,
          "internalType": "address",
          "name": "owner",
          "type": "address"
        },
        {
          "indexed": true,
          "internalType": "address",
          "name": "spender",
          "type": "address"
        },
        {
          "indexed": false,
          "internalType": "uint256",
          "name": "value",
          "type": "uint256"
        }
      ],
      "name": "Approval",
      "type": "event"
    },
    {
      "anonymous": false,
      "inputs": [
        {
          "indexed": true,
          "internalType": "address",
          "name": "previousOwner",
          "type": "address"
        },
        {
          "indexed": true,
          "internalType": "address",
          "name": "newOwner",
          "type": "address"
        }
      ],
      "name": "OwnershipTransferred",
      "type": "event"
    },
    {
      "anonymous": false,
      "inputs": [
        {
          "indexed": true,
          "internalType": "address",
          "name": "from",
          "type": "address"
        },
        {
          "indexed": true,
          "internalType": "address",
          "name": "to",
          "type": "address"
        },
        {
          "indexed": false,
          "internalType": "uint256",
          "name": "value",
          "type": "uint256"
        }
      ],
      "name": "Transfer",
      "type": "event"
    },
    {
      "inputs": [],
      "name": "_decimals",
      "outputs": [
        {
          "internalType": "uint8",
          "name": "",
          "type": "uint8"
        }
      ],
      "stateMutability": "view",
      "type": "function"
    },
    {
      "inputs": [
        {
          "internalType": "address",
          "name": "owner",
          "type": "address"
        },
        {
          "internalType": "address",
          "name": "spender",
          "type": "address"
        }
      ],
      "name": "allowance",
      "outputs": [
        {
          "internalType": "uint256",
          "name": "",
          "type": "uint256"
        }
      ],
      "stateMutability": "view",
      "type": "function"
    },
    {
      "inputs": [
        {
          "internalType": "address",
          "name": "spender",
          "type": "address"
        },
        {
          "internalType": "uint256",
          "name": "amount",
          "type": "uint256"
        }
      ],
      "name": "approve",
      "outputs": [
        {
          "internalType": "bool",
          "name": "",
          "type": "bool"
        }
      ],
      "stateMutability": "nonpayable",
      "type": "function"
    },
    {
      "inputs": [
        {
          "internalType": "address",
          "name": "account",
          "type": "address"
        }
      ],
      "name": "balanceOf",
      "outputs": [
        {
          "internalType": "uint256",
          "name": "",
          "type": "uint256"
        }
      ],
      "stateMutability": "view",
      "type": "function"
    },
    {
      "inputs": [
        {
          "internalType": "address",
          "name": "",
          "type": "address"
        }
      ],
      "name": "claimed",
      "outputs": [
        {
          "internalType": "bool",
          "name": "",
          "type": "bool"
        }
      ],
      "stateMutability": "view",
      "type": "function"
    },
    {
      "inputs": [],
      "name": "decimals",
      "outputs": [
        {
          "internalType": "uint8",
          "name": "",
          "type": "uint8"
        }
      ],
      "stateMutability": "view",
      "type": "function"
    },
    {
      "inputs": [
        {
          "internalType": "address",
          "name": "spender",
          "type": "address"
        },
        {
          "internalType": "uint256",
          "name": "subtractedValue",
          "type": "uint256"
        }
      ],
      "name": "decreaseAllowance",
      "outputs": [
        {
          "internalType": "bool",
          "name": "",
          "type": "bool"
        }
      ],
      "stateMutability": "nonpayable",
      "type": "function"
    },
    {
      "inputs": [],
      "name": "getOwner",
      "outputs": [
        {
          "internalType": "address",
          "name": "",
          "type": "address"
        }
      ],
      "stateMutability": "view",
      "type": "function"
    },
    {
      "inputs": [
        {
          "internalType": "address",
          "name": "spender",
          "type": "address"
        },
        {
          "internalType": "uint256",
          "name": "addedValue",
          "type": "uint256"
        }
      ],
      "name": "increaseAllowance",
      "outputs": [
        {
          "internalType": "bool",
          "name": "",
          "type": "bool"
        }
      ],
      "stateMutability": "nonpayable",
      "type": "function"
    },
    {
      "inputs": [],
      "name": "name",
      "outputs": [
        {
          "internalType": "string",
          "name": "",
          "type": "string"
        }
      ],
      "stateMutability": "view",
      "type": "function"
    },
    {
      "inputs": [],
      "name": "owner",
      "outputs": [
        {
          "internalType": "address",
          "name": "",
          "type": "address"
        }
      ],
      "stateMutability": "view",
      "type": "function"
    },
    {
      "inputs": [],
      "name": "renounceOwnership",
      "outputs": [],
      "stateMutability": "nonpayable",
      "type": "function"
    },
    {
      "inputs": [],
      "name": "symbol",
      "outputs": [
        {
          "internalType": "string",
          "name": "",
          "type": "string"
        }
      ],
      "stateMutability": "view",
      "type": "function"
    },
    {
      "inputs": [],
      "name": "totalSupply",
      "outputs": [
        {
          "internalType": "uint256",
          "name": "",
          "type": "uint256"
        }
      ],
      "stateMutability": "view",
      "type": "function"
    },
    {
      "inputs": [
        {
          "internalType": "address",
          "name": "recipient",
          "type": "address"
        },
        {
          "internalType": "uint256",
          "name": "amount",
          "type": "uint256"
        }
      ],
      "name": "transfer",
      "outputs": [
        {
          "internalType": "bool",
          "name": "",
          "type": "bool"
        }
      ],
      "stateMutability": "nonpayable",
      "type": "function"
    },
    {
      "inputs": [
        {
          "internalType": "address",
          "name": "sender",
          "type": "address"
        },
        {
          "internalType": "address",
          "name": "recipient",
          "type": "address"
        },
        {
          "internalType": "uint256",
          "name": "amount",
          "type": "uint256"
        }
      ],
      "name": "transferFrom",
      "outputs": [
        {
          "internalType": "bool",
          "name": "",
          "type": "bool"
        }
      ],
      "stateMutability": "nonpayable",
      "type": "function"
    },
    {
      "inputs": [
        {
          "internalType": "address",
          "name": "newOwner",
          "type": "address"
        }
      ],
      "name": "transferOwnership",
      "outputs": [],
      "stateMutability": "nonpayable",
      "type": "function"
    },
    {
      "inputs": [
        {
          "internalType": "address",
          "name": "account",
          "type": "address"
        },
        {
          "internalType": "uint256",
          "name": "amount",
          "type": "uint256"
        }
      ],
      "name": "mint",
      "outputs": [],
      "stateMutability": "nonpayable",
      "type": "function"
    },
    {
      "inputs": [
        {
          "internalType": "uint256",
          "name": "amount",
          "type": "uint256"
        }
      ],
      "name": "mint",
      "outputs": [
        {
          "internalType": "bool",
          "name": "",
          "type": "bool"
        }
      ],
      "stateMutability": "nonpayable",
      "type": "function"
    },
    {
      "inputs": [
        {
          "internalType": "address",
          "name": "account",
          "type": "address"
        },
        {
          "internalType": "uint256",
          "name": "amount",
          "type": "uint256"
        }
      ],
      "name": "burn",
      "outputs": [],
      "stateMutability": "nonpayable",
      "type": "function"
    },
    {
      "inputs": [
        {
          "internalType": "uint8",
          "name": "_mock_decimals",
          "type": "uint8"
        }
      ],
      "name": "setDecimals",
      "outputs": [],
      "stateMutability": "nonpayable",
      "type": "function"
    },
    {
      "inputs": [
        {
          "internalType": "uint256",
          "name": "",
          "type": "uint256"
        }
      ],
      "name": "withdraw",
      "outputs": [],
      "stateMutability": "nonpayable",
      "type": "function"
    }
  ],
  "bytecode": "0x608060405234610343576110ea8038038061001981610347565b9283398101906040818303126103435780516001600160401b038111610343578261004591830161036c565b60208201519092906001600160401b03811161034357610065920161036c565b5f8054336001600160a01b0319821681178355916001600160a01b03909116907f8be0079c531659141344cd1fd0a4f28419497f9722a3daafe3b4186f6b6457e09080a381516001600160401b03811161025657600454600181811c91168015610339575b602082101461023857601f81116102d6575b50602092601f821160011461027557928192935f9261026a575b50508160011b915f199060031b1c1916176004555b80516001600160401b03811161025657600554600181811c9116801561024c575b602082101461023857601f81116101f2575b50602091601f8211600114610192579181925f92610187575b50508160011b915f199060031b1c1916176005555b600660ff1981541617600655604051610d2c90816103be8239f35b015190505f80610157565b601f1982169260055f52805f20915f5b8581106101da575083600195106101c2575b505050811b0160055561016c565b01515f1960f88460031b161c191690555f80806101b4565b919260206001819286850151815501940192016101a2565b60055f5260205f20601f830160051c8101916020841061022e575b601f0160051c01905b818110610223575061013e565b5f8155600101610216565b909150819061020d565b634e487b7160e01b5f52602260045260245ffd5b90607f169061012c565b634e487b7160e01b5f52604160045260245ffd5b015190505f806100f6565b601f1982169360045f52805f20915f5b8681106102be57508360019596106102a6575b505050811b0160045561010b565b01515f1960f88460031b161c191690555f8080610298565b91926020600181928685015181550194019201610285565b60045f527f8a35acfbc15ff81a39ae7d344fd709f28e8600b4aa8c65c6b64bfe7fe36bd19b601f830160051c8101916020841061032f575b601f0160051c01905b81811061032457506100dc565b5f8155600101610317565b909150819061030e565b90607f16906100ca565b5f80fd5b6040519190601f01601f191682016001600160401b0381118382101761025657604052565b81601f82011215610343578051906001600160401b0382116102565761039b601f8301601f1916602001610347565b928284526020838301011161034357815f9260208093018386015e830101529056fe6080806040526004361015610012575f80fd5b5f3560e01c90816306fdde03146107f757508063095ea7b3146107d157806318160ddd146107b457806323b872dd146107035780632e1a7d4d146106f0578063313ce567146106d057806332424aa3146106d0578063395093511461068257806340c10f191461065b57806370a0823114610623578063715018a6146105cc5780637a1395aa1461059e578063893d20e8146105775780638da5cb5b1461057757806395d89b41146104735780639dc29fac14610350578063a0712d681461032b578063a457c2d714610296578063a9059cbb14610265578063c884ef8314610228578063dd62ed3e146101d85763f2fde38b1461010e575f80fd5b346101d45760203660031901126101d4576101276108d9565b61012f610c7f565b6001600160a01b03168015610180575f80546001600160a01b03198116831782556001600160a01b0316907f8be0079c531659141344cd1fd0a4f28419497f9722a3daafe3b4186f6b6457e09080a3005b60405162461bcd60e51b815260206004820152602660248201527f4f776e61626c653a206e6577206f776e657220697320746865207a65726f206160448201526564647265737360d01b6064820152608490fd5b5f80fd5b346101d45760403660031901126101d4576101f16108d9565b6101f96108ef565b6001600160a01b039182165f908152600260209081526040808320949093168252928352819020549051908152f35b346101d45760203660031901126101d4576001600160a01b036102496108d9565b165f526007602052602060ff60405f2054166040519015158152f35b346101d45760403660031901126101d45761028b6102816108d9565b6024359033610a3f565b602060405160018152f35b346101d45760403660031901126101d45761028b6102b26108d9565b335f52600260205260405f2060018060a01b0382165f5260205261032460405f2054604051906102e3606083610905565b602582527f42455032303a2064656372656173656420616c6c6f77616e63652062656c6f77602083015264207a65726f60d81b604083015260243590610bac565b903361093b565b346101d45760203660031901126101d457610344610c7f565b61028b60043533610bda565b346101d45760403660031901126101d4576103696108d9565b602435906001600160a01b0316801561042457805f5260016020526103d660405f2054836040519161039c606084610905565b602283527f42455032303a206275726e20616d6f756e7420657863656564732062616c616e602084015261636560f01b6040840152610bac565b815f52600160205260405f2055600354918083039283116104105760205f80516020610cd7833981519152915f94600355604051908152a3005b634e487b7160e01b5f52601160045260245ffd5b60405162461bcd60e51b815260206004820152602160248201527f42455032303a206275726e2066726f6d20746865207a65726f206164647265736044820152607360f81b6064820152608490fd5b346101d4575f3660031901126101d4576040515f6005548060011c9060018116801561056d575b6020831081146105595782855290811561053557506001146104d7575b6104d3836104c781850382610905565b604051918291826108af565b0390f35b60055f9081527f036b6384b5eca791c62761152d0c79bb0604c104a5fb6f4eb0703f3154bb3db0939250905b80821061051b575090915081016020016104c76104b7565b919260018160209254838588010152019101909291610503565b60ff191660208086019190915291151560051b840190910191506104c790506104b7565b634e487b7160e01b5f52602260045260245ffd5b91607f169161049a565b346101d4575f3660031901126101d4575f546040516001600160a01b039091168152602090f35b346101d45760203660031901126101d45760043560ff81168091036101d45760ff1960065416176006555f80f35b346101d4575f3660031901126101d4576105e4610c7f565b5f80546001600160a01b0319811682556001600160a01b03167f8be0079c531659141344cd1fd0a4f28419497f9722a3daafe3b4186f6b6457e08280a3005b346101d45760203660031901126101d4576001600160a01b036106446108d9565b165f526001602052602060405f2054604051908152f35b346101d45760403660031901126101d4576106806106776108d9565b60243590610bda565b005b346101d45760403660031901126101d45761069b6108d9565b335f52600260205260405f2060018060a01b0382165f5260205260405f205460243581018091116104105761028b913361093b565b346101d4575f3660031901126101d457602060ff60065416604051908152f35b346101d45760203660031901126101d457005b346101d45760603660031901126101d45761028b61071f6108d9565b6107ac61072a6108ef565b610738604435809285610a3f565b6001600160a01b0383165f90815260026020908152604080832033845290915290819020549051919061076c606084610905565b602883527f42455032303a207472616e7366657220616d6f756e74206578636565647320616020840152676c6c6f77616e636560c01b6040840152610bac565b90339061093b565b346101d4575f3660031901126101d4576020600354604051908152f35b346101d45760403660031901126101d45761028b6107ed6108d9565b602435903361093b565b346101d4575f3660031901126101d4575f6004548060011c906001811680156108a5575b602083108114610559578285529081156105355750600114610847576104d3836104c781850382610905565b60045f9081527f8a35acfbc15ff81a39ae7d344fd709f28e8600b4aa8c65c6b64bfe7fe36bd19b939250905b80821061088b575090915081016020016104c76104b7565b919260018160209254838588010152019101909291610873565b91607f169161081b565b602060409281835280519182918282860152018484015e5f828201840152601f01601f1916010190565b600435906001600160a01b03821682036101d457565b602435906001600160a01b03821682036101d457565b90601f8019910116810190811067ffffffffffffffff82111761092757604052565b634e487b7160e01b5f52604160045260245ffd5b6001600160a01b03169081156109ee576001600160a01b031691821561099e5760207f8c5be1e5ebec7d5bd14f71427d1e84f3dd0314c0f7b2291e5b200ac8c7c3b92591835f526002825260405f20855f5282528060405f2055604051908152a3565b60405162461bcd60e51b815260206004820152602260248201527f42455032303a20617070726f766520746f20746865207a65726f206164647265604482015261737360f01b6064820152608490fd5b60405162461bcd60e51b8152602060048201526024808201527f42455032303a20617070726f76652066726f6d20746865207a65726f206164646044820152637265737360e01b6064820152608490fd5b6001600160a01b0316908115610b59576001600160a01b0316918215610b0857815f526001602052610abd60405f20548260405191610a7f606084610905565b602683527f42455032303a207472616e7366657220616d6f756e7420657863656564732062602084015265616c616e636560d01b6040840152610bac565b825f52600160205260405f2055825f52600160205260405f2054818101809111610410575f80516020610cd783398151915291602091855f526001835260405f2055604051908152a3565b60405162461bcd60e51b815260206004820152602360248201527f42455032303a207472616e7366657220746f20746865207a65726f206164647260448201526265737360e81b6064820152608490fd5b60405162461bcd60e51b815260206004820152602560248201527f42455032303a207472616e736665722066726f6d20746865207a65726f206164604482015264647265737360d81b6064820152608490fd5b9091818311610bba57500390565b60405162461bcd60e51b8152908190610bd690600483016108af565b0390fd5b6001600160a01b0316908115610c3a5760035481810180911161041057600355815f52600160205260405f2054908082018092116104105760205f80516020610cd7833981519152915f93858552600183526040852055604051908152a3565b60405162461bcd60e51b815260206004820152601f60248201527f42455032303a206d696e7420746f20746865207a65726f2061646472657373006044820152606490fd5b5f546001600160a01b03163303610c9257565b606460405162461bcd60e51b815260206004820152602060248201527f4f776e61626c653a2063616c6c6572206973206e6f7420746865206f776e65726044820152fdfeddf252ad1be2c89b69c2b068fc378daa952ba7f163c4a11628f55a4df523b3efa2646970667358221220ffe949a45bd97c4d314f4798c1e812e12dbd0c68a178f98beb831fe7df3001e464736f6c634300081a0033",
  "immutableReferences": {},
  "source": "// SPDX-License-Identifier: MIT\npragma solidity >=0.4.22 <0.9.0;\n\nimport \"./BEP20.sol\";\n\n/**\n * @notice Mock BEP20 tokens used for testing.\n */\ncontract MockToken is BEP20 {\n    mapping(address => bool) public claimed;\n\n    constructor(string memory name, string memory symbol)\n        public\n        BEP20(name, symbol)\n    {}\n\n    function mint(address account, uint256 amount) public {\n        _mint(account, amount);\n    }\n\n    function burn(address account, uint256 amount) public {\n        _burn(account, amount);\n    }\n\n    function setDecimals(uint8 _mock_decimals) public {\n        _decimals = _mock_decimals;\n    }\n\n    function withdraw(uint256) external {}\n}\n",
  "sourcePath": "/Users/mingyuzhang/Downloads/stone-vault-v1/contracts/mock/MockToken.sol",
  "compiler": {
    "name": "solc",
    "version": "0.8.26+commit.8a97fa7a.Emscripten.clang"
  },
  "schemaVersion": "3.4.16",
  "updatedAt": "2024-06-07T05:41:32.654Z",
  "devdoc": {
    "events": {
      "Approval(address,address,uint256)": {
        "details": "Emitted when the allowance of a `spender` for an `owner` is set by a call to {approve}. `value` is the new allowance."
      },
      "Transfer(address,address,uint256)": {
        "details": "Emitted when `value` tokens are moved from one account (`from`) to another (`to`). Note that `value` may be zero."
      }
    },
    "kind": "dev",
    "methods": {
      "allowance(address,address)": {
        "details": "See {BEP20-allowance}."
      },
      "approve(address,uint256)": {
        "details": "See {BEP20-approve}. Requirements: - `spender` cannot be the zero address."
      },
      "balanceOf(address)": {
        "details": "See {BEP20-balanceOf}."
      },
      "decimals()": {
        "details": "Returns the token decimals."
      },
      "decreaseAllowance(address,uint256)": {
        "details": "Atomically decreases the allowance granted to `spender` by the caller. This is an alternative to {approve} that can be used as a mitigation for problems described in {BEP20-approve}. Emits an {Approval} event indicating the updated allowance. Requirements: - `spender` cannot be the zero address. - `spender` must have allowance for the caller of at least `subtractedValue`."
      },
      "getOwner()": {
        "details": "Returns the bep token owner."
      },
      "increaseAllowance(address,uint256)": {
        "details": "Atomically increases the allowance granted to `spender` by the caller. This is an alternative to {approve} that can be used as a mitigation for problems described in {BEP20-approve}. Emits an {Approval} event indicating the updated allowance. Requirements: - `spender` cannot be the zero address."
      },
      "mint(uint256)": {
        "details": "Creates `amount` tokens and assigns them to `msg.sender`, increasing the total supply. Requirements - `msg.sender` must be the token owner"
      },
      "name()": {
        "details": "Returns the token name."
      },
      "owner()": {
        "details": "Returns the address of the current owner."
      },
      "renounceOwnership()": {
        "details": "Leaves the contract without owner. It will not be possible to call `onlyOwner` functions. Can only be called by the current owner. NOTE: Renouncing ownership will leave the contract without an owner, thereby disabling any functionality that is only available to the owner."
      },
      "symbol()": {
        "details": "Returns the token symbol."
      },
      "totalSupply()": {
        "details": "See {BEP20-totalSupply}."
      },
      "transfer(address,uint256)": {
        "details": "See {BEP20-transfer}. Requirements: - `recipient` cannot be the zero address. - the caller must have a balance of at least `amount`."
      },
      "transferFrom(address,address,uint256)": {
        "details": "See {BEP20-transferFrom}. Emits an {Approval} event indicating the updated allowance. This is not required by the EIP. See the note at the beginning of {BEP20}; Requirements: - `sender` and `recipient` cannot be the zero address. - `sender` must have a balance of at least `amount`. - the caller must have allowance for `sender`'s tokens of at least `amount`."
      },
      "transferOwnership(address)": {
        "details": "Transfers ownership of the contract to a new account (`newOwner`). Can only be called by the current owner."
      }
    },
    "version": 1
  },
  "userdoc": {
    "kind": "user",
    "methods": {},
    "notice": "Mock BEP20 tokens used for testing.",
    "version": 1
  }
}