{
  "contractName": "MockDelegationManager",
  "abi": [
    {
      "anonymous": false,
      "inputs": [
        {
          "indexed": false,
          "internalType": "bytes32",
          "name": "withdrawalRoot",
          "type": "bytes32"
        },
        {
          "components": [
            {
              "internalType": "address",
              "name": "staker",
              "type": "address"
            },
            {
              "internalType": "address",
              "name": "delegatedTo",
              "type": "address"
            },
            {
              "internalType": "address",
              "name": "withdrawer",
              "type": "address"
            },
            {
              "internalType": "uint256",
              "name": "nonce",
              "type": "uint256"
            },
            {
              "internalType": "uint32",
              "name": "startBlock",
              "type": "uint32"
            },
            {
              "internalType": "address[]",
              "name": "strategies",
              "type": "address[]"
            },
            {
              "internalType": "uint256[]",
              "name": "shares",
              "type": "uint256[]"
            }
          ],
          "indexed": false,
          "internalType": "struct IDelegationManager.Withdrawal",
          "name": "withdrawal",
          "type": "tuple"
        }
      ],
      "name": "WithdrawalQueued",
      "type": "event"
    },
    {
      "inputs": [],
      "name": "_isDelegateToCalled",
      "outputs": [
        {
          "internalType": "bool",
          "name": "",
          "type": "bool"
        }
      ],
      "stateMutability": "view",
      "type": "function"
    },
    {
      "inputs": [],
      "name": "lastApproverSalt",
      "outputs": [
        {
          "internalType": "bytes32",
          "name": "",
          "type": "bytes32"
        }
      ],
      "stateMutability": "view",
      "type": "function"
    },
    {
      "inputs": [],
      "name": "lastApproverSignatureAndExpiry",
      "outputs": [
        {
          "internalType": "bytes",
          "name": "signature",
          "type": "bytes"
        },
        {
          "internalType": "uint256",
          "name": "expiry",
          "type": "uint256"
        }
      ],
      "stateMutability": "view",
      "type": "function"
    },
    {
      "inputs": [],
      "name": "lastOperator",
      "outputs": [
        {
          "internalType": "address",
          "name": "",
          "type": "address"
        }
      ],
      "stateMutability": "view",
      "type": "function"
    },
    {
      "inputs": [
        {
          "internalType": "address",
          "name": "operator",
          "type": "address"
        },
        {
          "components": [
            {
              "internalType": "bytes",
              "name": "signature",
              "type": "bytes"
            },
            {
              "internalType": "uint256",
              "name": "expiry",
              "type": "uint256"
            }
          ],
          "internalType": "struct IDelegationManager.SignatureWithExpiry",
          "name": "approverSignatureAndExpiry",
          "type": "tuple"
        },
        {
          "internalType": "bytes32",
          "name": "approverSalt",
          "type": "bytes32"
        }
      ],
      "name": "delegateTo",
      "outputs": [],
      "stateMutability": "nonpayable",
      "type": "function"
    },
    {
      "inputs": [],
      "name": "isDelegateToCalled",
      "outputs": [
        {
          "internalType": "bool",
          "name": "",
          "type": "bool"
        }
      ],
      "stateMutability": "view",
      "type": "function"
    },
    {
      "inputs": [
        {
          "internalType": "address",
          "name": "staker",
          "type": "address"
        }
      ],
      "name": "undelegate",
      "outputs": [
        {
          "internalType": "bytes32[]",
          "name": "withdrawalRoots",
          "type": "bytes32[]"
        }
      ],
      "stateMutability": "nonpayable",
      "type": "function"
    },
    {
      "inputs": [
        {
          "internalType": "bytes32[]",
          "name": "roots",
          "type": "bytes32[]"
        }
      ],
      "name": "setUndelegateResult",
      "outputs": [],
      "stateMutability": "nonpayable",
      "type": "function"
    },
    {
      "inputs": [],
      "name": "isUndelegateCalled",
      "outputs": [
        {
          "internalType": "bool",
          "name": "",
          "type": "bool"
        }
      ],
      "stateMutability": "view",
      "type": "function"
    },
    {
      "inputs": [
        {
          "components": [
            {
              "internalType": "address[]",
              "name": "strategies",
              "type": "address[]"
            },
            {
              "internalType": "uint256[]",
              "name": "shares",
              "type": "uint256[]"
            },
            {
              "internalType": "address",
              "name": "withdrawer",
              "type": "address"
            }
          ],
          "internalType": "struct IDelegationManager.QueuedWithdrawalParams[]",
          "name": "queuedWithdrawalParams",
          "type": "tuple[]"
        }
      ],
      "name": "queueWithdrawals",
      "outputs": [
        {
          "internalType": "bytes32[]",
          "name": "",
          "type": "bytes32[]"
        }
      ],
      "stateMutability": "nonpayable",
      "type": "function"
    },
    {
      "inputs": [
        {
          "components": [
            {
              "internalType": "address",
              "name": "staker",
              "type": "address"
            },
            {
              "internalType": "address",
              "name": "delegatedTo",
              "type": "address"
            },
            {
              "internalType": "address",
              "name": "withdrawer",
              "type": "address"
            },
            {
              "internalType": "uint256",
              "name": "nonce",
              "type": "uint256"
            },
            {
              "internalType": "uint32",
              "name": "startBlock",
              "type": "uint32"
            },
            {
              "internalType": "address[]",
              "name": "strategies",
              "type": "address[]"
            },
            {
              "internalType": "uint256[]",
              "name": "shares",
              "type": "uint256[]"
            }
          ],
          "internalType": "struct IDelegationManager.Withdrawal",
          "name": "withdrawal",
          "type": "tuple"
        },
        {
          "internalType": "contract IERC20[]",
          "name": "tokens",
          "type": "address[]"
        },
        {
          "internalType": "uint256",
          "name": "middlewareTimesIndex",
          "type": "uint256"
        },
        {
          "internalType": "bool",
          "name": "receiveAsTokens",
          "type": "bool"
        }
      ],
      "name": "completeQueuedWithdrawal",
      "outputs": [],
      "stateMutability": "nonpayable",
      "type": "function"
    },
    {
      "inputs": [
        {
          "internalType": "address",
          "name": "operator",
          "type": "address"
        }
      ],
      "name": "isOperator",
      "outputs": [
        {
          "internalType": "bool",
          "name": "",
          "type": "bool"
        }
      ],
      "stateMutability": "view",
      "type": "function"
    }
  ],
  "bytecode": "0x608080604052346100165761083b908161001b8239f35b5f80fdfe6080604090808252600480361015610015575f80fd5b5f91823560e01c9081630dd8dd02146106aa5750806360d7faed1461064f578063655291a2146105b65780636d70f7ae146106295780636eb3cd491461060157806375e07082146105da5780637c7b12e1146105b6578063935d529614610493578063a65576ea14610474578063d105cdb914610377578063da8be864146102e35763eea9064b146100a5575f80fd5b346102df57600319926060368501126102db576100c0610782565b906024948535916001600160401b03918284116102d757819084360301126102d357805181810190808210848311176102a757818352848701358481116102cf57850191366023840112156102cf5787830135968588116102bd57602097601f1994610133601f830187168b0185610798565b818452368d83830101116102b957818c928e606093018388013785010152818352958a013587830190815289546001600160a01b0319166001600160a01b0397909716969096178955519384116102a7579083929160019661019588546107cd565b601f8111610251575b508092601f86116001146101ec57505088936101df575b5050505f19600383901b1c191690831b1782555b51600255604435600355815460ff191617905580f35b01015190508680806101b5565b8896949392919416868b52848b20948b905b828210610236575050851161021c575b50505050811b0182556101c9565b0101515f1960f88460031b161c191690558680808061020e565b84840186015187558a989096019593840193908101906101fe565b909192939450878a52818a20601f870160051c81019183881061029d575b87969594939291601f8b920160051c01915b82811061028f57505061019e565b8c81558897508a9101610281565b909150819061026f565b634e487b7160e01b8852604187528888fd5b8b80fd5b634e487b7160e01b8a52604189528a8afd5b8880fd5b8580fd5b8680fd5b8280fd5b5080fd5b50503461037457602091826003193601126102df57600160a01b6001600160a01b0361030d610782565b1660018060a81b031960065416171760065580519182846005549182815201946005835280832092905b82821061035d57610359868661034f828b0383610798565b5191829182610748565b0390f35b835487529586019560019384019390910190610337565b80fd5b8284346102df57816003193601126102df578051918060018481549261039c846107cd565b928383526020948582821691825f14610454575050600114610418575b506103ca9250959492950384610798565b600254815194859383855285518094860152805b848110610401575060608096508486010152830152601f80199101168101030190f35b8087018301518882016060015287955082016103de565b8491508086528186209086915b85831061043c5750506103ca9350820101876103b9565b8054838b018501528994508693909201918101610425565b60ff1916858201526103ca95151560051b85010192508991506103b99050565b8284346102df57816003193601126102df576020906003549051908152f35b5082346102db57602090816003193601126105b2576001600160401b039280358481116102d357366023820112156102d357808201359085821161059f578160051b9351916104e486860184610798565b825284820160248195830101913683116102cf576024879101915b83831061058f57505050505193841161057c57600160401b841161057c575060055483600555808410610556575b50906005845280842090845b848110610544578580f35b83518382015592810192600101610539565b600585528383862091820191015b818110610571575061052d565b858155600101610564565b634e487b7160e01b855260419052602484fd5b82358152918101918791016104ff565b634e487b7160e01b875260418352602487fd5b8380fd5b509190346103745780600319360112610374575060ff602092541690519015158152f35b8284346102df57816003193601126102df5760209060ff60065460a01c1690519015158152f35b8284346102df57816003193601126102df57905490516001600160a01b039091168152602090f35b8284346102df5760203660031901126102df57602090610647610782565b505160018152f35b50346102df57600319906080368301126102db5780356001600160401b03928382116106a65760e091360301126102db576024359182116102db5761069691369101610714565b5050606435801515036103745780f35b8480fd5b9050838334610374576020366003190112610374576001600160401b0384358181116102db576106dd9036908701610714565b50506020840190811184821017610701576103599450825282525191829182610748565b634e487b7160e01b825260418552602482fd5b9181601f84011215610744578235916001600160401b038311610744576020808501948460051b01011161074457565b5f80fd5b602090816040818301928281528551809452019301915f5b82811061076e575050505090565b835185529381019392810192600101610760565b600435906001600160a01b038216820361074457565b90601f801991011681019081106001600160401b038211176107b957604052565b634e487b7160e01b5f52604160045260245ffd5b90600182811c921680156107fb575b60208310146107e757565b634e487b7160e01b5f52602260045260245ffd5b91607f16916107dc56fea2646970667358221220b124c908b20b41fc631dc01df0c607f279bca6ac6f9324e2508ca7c6810e0f3264736f6c63430008150033",
  "immutableReferences": {},
  "source": "// SPDX-License-Identifier: MIT\npragma solidity >=0.4.22 <0.9.0;\n\nimport \"../interfaces/IDelegationManager.sol\";\n\ncontract MockDelegationManager is IDelegationManager {\n    \n    address public lastOperator;\n    SignatureWithExpiry public lastApproverSignatureAndExpiry;\n    bytes32 public lastApproverSalt;\n    bool public _isDelegateToCalled;\n    bytes32[] private _undelegateResult;\n    address private _lastStaker;\n    bool private _isUndelegateCalled;\n\n    function delegateTo(\n        address operator,\n        SignatureWithExpiry memory approverSignatureAndExpiry,\n        bytes32 approverSalt\n    ) external override {\n       \n        lastOperator = operator;\n        lastApproverSignatureAndExpiry = approverSignatureAndExpiry;\n        lastApproverSalt = approverSalt;\n        \n        // 设置调用标志为 true\n        _isDelegateToCalled = true;\n    }\n\n    function isDelegateToCalled() external view returns (bool) {\n        return _isDelegateToCalled;\n    }\n\n    function undelegate(\n        address staker\n    ) external override returns (bytes32[] memory withdrawalRoots) {\n        _lastStaker = staker;\n        _isUndelegateCalled = true;\n        return _undelegateResult;\n    }\n    function setUndelegateResult(bytes32[] memory roots) external {\n        _undelegateResult = roots;\n    }\n    function isUndelegateCalled() external view returns (bool) {\n        return _isUndelegateCalled;\n    }\n    function queueWithdrawals(\n        QueuedWithdrawalParams[] calldata queuedWithdrawalParams\n    ) external returns (bytes32[] memory) {\n        return new bytes32[](0);\n    }\n\n    function completeQueuedWithdrawal(\n        Withdrawal calldata withdrawal,\n        IERC20[] calldata tokens,\n        uint256 middlewareTimesIndex,\n        bool receiveAsTokens\n    ) external {}\n\n    function isOperator(address operator) external view returns (bool) {\n        return true;\n    }\n}\n",
  "sourcePath": "/Users/mingyuzhang/Downloads/stone-vault-v1/contracts/mock/MockDelegationManager.sol",
  "compiler": {
    "name": "solc",
    "version": "0.8.21+commit.d9974bed.Emscripten.clang"
  },
  "schemaVersion": "3.4.16",
  "updatedAt": "2024-06-07T05:41:32.633Z",
  "devdoc": {
    "kind": "dev",
    "methods": {},
    "version": 1
  },
  "userdoc": {
    "kind": "user",
    "methods": {},
    "version": 1
  }
}