{
  "contractName": "MockSwappingAggregator",
  "abi": [
    {
      "inputs": [],
      "stateMutability": "nonpayable",
      "type": "constructor"
    },
    {
      "stateMutability": "payable",
      "type": "receive"
    },
    {
      "inputs": [
        {
          "internalType": "address",
          "name": "_token",
          "type": "address"
        },
        {
          "internalType": "uint256",
          "name": "_amount",
          "type": "uint256"
        },
        {
          "internalType": "bool",
          "name": "_isSell",
          "type": "bool"
        }
      ],
      "name": "swap",
      "outputs": [
        {
          "internalType": "uint256",
          "name": "",
          "type": "uint256"
        }
      ],
      "stateMutability": "payable",
      "type": "function"
    }
  ],
  "bytecode": "0x6080806040523461001657610262908161001b8239f35b5f80fdfe6080604090808252600480361015610021575b505050361561001f575f80fd5b005b5f803560e01c63919722bb146100375750610012565b606036600319011261013c578135906001600160a01b038216820361013c576024918235946044358015908115036101cb571561015557508551602081019063a9059cbb60e01b8252338582015286604482015260448152608081018181106001600160401b0382111761014357885251839283929083905af1906100ba6101cf565b90826100fb575b5050156100d45750506020915b51908152f35b906002606492602086519362461bcd60e51b85528401528201526114d560f21b6044820152fd5b9080925051918215928315610115575b5050505f806100c1565b81929350906020918101031261013f576020015190811515820361013c57505f808061010b565b80fd5b5080fd5b634e487b7160e01b8552604187528585fd5b9050602081018181106001600160401b038211176101b957865281905280808086335af16101816101cf565b50156101915750506020916100ce565b906003606492602086519362461bcd60e51b85528401528201526253544560e81b6044820152fd5b5050634e487b7160e01b815260418352fd5b8380fd5b3d15610227576001600160401b03903d8281116102135760405192601f8201601f19908116603f01168401908111848210176102135760405282523d5f602084013e565b634e487b7160e01b5f52604160045260245ffd5b60609056fea264697066735822122088dda992b9c4747eb9ac8eefe2c4a44576862ce1b643c55091d64fb97f72fb9f64736f6c63430008150033",
  "immutableReferences": {},
  "source": "// SPDX-License-Identifier: MIT\npragma solidity 0.8.21;\n\nimport {TransferHelper} from \"@uniswap/v3-periphery/contracts/libraries/TransferHelper.sol\";\n\ncontract MockSwappingAggregator {\n    constructor() {}\n\n    function swap(\n        address _token,\n        uint256 _amount,\n        bool _isSell\n    ) external payable returns (uint256) {\n        if (!_isSell) {\n            TransferHelper.safeTransfer(_token, msg.sender, _amount);\n        } else {\n            TransferHelper.safeTransferETH(msg.sender, _amount);\n        }\n        return _amount;\n    }\n        receive() external payable {}\n\n}",
  "sourcePath": "/Users/mingyuzhang/Downloads/stone-vault-v1/contracts/mock/MockSwappingAggregator.sol",
  "compiler": {
    "name": "solc",
    "version": "0.8.21+commit.d9974bed.Emscripten.clang"
  },
  "schemaVersion": "3.4.16",
  "updatedAt": "2024-06-07T05:41:32.634Z",
  "devdoc": {
    "kind": "dev",
    "methods": {},
    "version": 1
  },
  "userdoc": {
    "kind": "user",
    "methods": {},
    "version": 1
  }
}