{
  "contractName": "MockNullStrategy",
  "abi": [
    {
      "inputs": [
        {
          "internalType": "address payable",
          "name": "_controller",
          "type": "address"
        },
        {
          "internalType": "string",
          "name": "_name",
          "type": "string"
        }
      ],
      "stateMutability": "nonpayable",
      "type": "constructor"
    },
    {
      "anonymous": false,
      "inputs": [
        {
          "indexed": false,
          "internalType": "address",
          "name": "oldOwner",
          "type": "address"
        },
        {
          "indexed": false,
          "internalType": "address",
          "name": "newOwner",
          "type": "address"
        }
      ],
      "name": "TransferGovernance",
      "type": "event"
    },
    {
      "inputs": [],
      "name": "bufferTime",
      "outputs": [
        {
          "internalType": "uint256",
          "name": "",
          "type": "uint256"
        }
      ],
      "stateMutability": "view",
      "type": "function"
    },
    {
      "inputs": [],
      "name": "checkPendingStatus",
      "outputs": [
        {
          "internalType": "uint256",
          "name": "pending",
          "type": "uint256"
        },
        {
          "internalType": "uint256",
          "name": "executable",
          "type": "uint256"
        }
      ],
      "stateMutability": "nonpayable",
      "type": "function"
    },
    {
      "inputs": [],
      "name": "controller",
      "outputs": [
        {
          "internalType": "address payable",
          "name": "",
          "type": "address"
        }
      ],
      "stateMutability": "view",
      "type": "function"
    },
    {
      "inputs": [
        {
          "internalType": "uint256",
          "name": "_amount",
          "type": "uint256"
        }
      ],
      "name": "execPendingRequest",
      "outputs": [
        {
          "internalType": "uint256",
          "name": "amount",
          "type": "uint256"
        }
      ],
      "stateMutability": "nonpayable",
      "type": "function"
    },
    {
      "inputs": [],
      "name": "getPendingValue",
      "outputs": [
        {
          "internalType": "uint256",
          "name": "value",
          "type": "uint256"
        }
      ],
      "stateMutability": "nonpayable",
      "type": "function"
    },
    {
      "inputs": [],
      "name": "governance",
      "outputs": [
        {
          "internalType": "address",
          "name": "",
          "type": "address"
        }
      ],
      "stateMutability": "view",
      "type": "function"
    },
    {
      "inputs": [],
      "name": "latestUpdateTime",
      "outputs": [
        {
          "internalType": "uint256",
          "name": "",
          "type": "uint256"
        }
      ],
      "stateMutability": "view",
      "type": "function"
    },
    {
      "inputs": [],
      "name": "name",
      "outputs": [
        {
          "internalType": "string",
          "name": "",
          "type": "string"
        }
      ],
      "stateMutability": "view",
      "type": "function"
    },
    {
      "inputs": [
        {
          "internalType": "uint256",
          "name": "_time",
          "type": "uint256"
        }
      ],
      "name": "setBufferTime",
      "outputs": [],
      "stateMutability": "nonpayable",
      "type": "function"
    },
    {
      "inputs": [
        {
          "internalType": "address",
          "name": "governance_",
          "type": "address"
        }
      ],
      "name": "setGovernance",
      "outputs": [],
      "stateMutability": "nonpayable",
      "type": "function"
    },
    {
      "stateMutability": "payable",
      "type": "receive"
    },
    {
      "inputs": [],
      "name": "deposit",
      "outputs": [],
      "stateMutability": "payable",
      "type": "function"
    },
    {
      "inputs": [
        {
          "internalType": "uint256",
          "name": "_amount",
          "type": "uint256"
        }
      ],
      "name": "withdraw",
      "outputs": [
        {
          "internalType": "uint256",
          "name": "actualAmount",
          "type": "uint256"
        }
      ],
      "stateMutability": "nonpayable",
      "type": "function"
    },
    {
      "inputs": [
        {
          "internalType": "uint256",
          "name": "_amount",
          "type": "uint256"
        }
      ],
      "name": "mock_transfer",
      "outputs": [],
      "stateMutability": "payable",
      "type": "function"
    },
    {
      "inputs": [
        {
          "internalType": "uint256",
          "name": "_amount",
          "type": "uint256"
        }
      ],
      "name": "instantWithdraw",
      "outputs": [
        {
          "internalType": "uint256",
          "name": "actualAmount",
          "type": "uint256"
        }
      ],
      "stateMutability": "nonpayable",
      "type": "function"
    },
    {
      "inputs": [],
      "name": "clear",
      "outputs": [
        {
          "internalType": "uint256",
          "name": "amount",
          "type": "uint256"
        }
      ],
      "stateMutability": "nonpayable",
      "type": "function"
    },
    {
      "inputs": [],
      "name": "getAllValue",
      "outputs": [
        {
          "internalType": "uint256",
          "name": "value",
          "type": "uint256"
        }
      ],
      "stateMutability": "view",
      "type": "function"
    },
    {
      "inputs": [],
      "name": "getInvestedValue",
      "outputs": [
        {
          "internalType": "uint256",
          "name": "value",
          "type": "uint256"
        }
      ],
      "stateMutability": "view",
      "type": "function"
    }
  ],
  "bytecode": "0x60a060405234610274576109728038038061001981610278565b928339810190604081830312610274578051906001600160a01b038216808303610274576020828101516001600160401b0393919291848211610274570193601f9186838701121561027457855185811161021857601f199661008182860189168701610278565b98828a528683830101116102745785905f5b8381106102605750505f9189010152600c6002551561022c575f80546001600160a01b031916331790556080528451928311610218576003948554926001938481811c9116801561020e575b828210146101fa578381116101b7575b50809285116001146101585750839450908392915f9461014d575b50501b915f1990841b1c19161790555b6040516106d4908161029e823960805181818160ff0152818161015f015281816101de01528181610336015261038a0152f35b015192505f8061010a565b929484908116875f52845f20945f905b8883831061019d5750505010610186575b505050811b01905561011a565b01515f1983861b60f8161c191690555f8080610179565b858701518855909601959485019487935090810190610168565b875f52815f208480880160051c8201928489106101f1575b0160051c019085905b8281106101e65750506100ef565b5f81550185906101d8565b925081926101cf565b634e487b7160e01b5f52602260045260245ffd5b90607f16906100df565b634e487b7160e01b5f52604160045260245ffd5b60405162461bcd60e51b815260048101849052600c60248201526b5a45524f204144445245535360a01b6044820152606490fd5b8181018301518b8201840152879201610093565b5f80fd5b6040519190601f01601f191682016001600160401b038111838210176102185760405256fe60806040818152600480361015610020575b505050361561001e575f80fd5b005b5f92833560e01c9081621a5597146105105750806306fdde03146103eb5780631aac030c146103bd5780632e1a7d4d1461036c57806352efea6e146103115780635aa6e675146102e95780636c23ab4c146102c557806375421af3146102ca5780637654f7ab146102c5578063924f4f6e146102a9578063ab033ea91461022f578063ba7b670314610210578063d0e30db0146101cd578063dd07d288146101ae578063e65c62e114610192578063f77c47911461014a5763fd92bff203610011573461014657602036600319011261014657602092503590610140827f00000000000000000000000000000000000000000000000000000000000000006001600160a01b031661013b3382146101368161057d565b61057d565b6105ba565b51908152f35b8280fd5b50503461018e578160031936011261018e57517f00000000000000000000000000000000000000000000000000000000000000006001600160a01b03168152602090f35b5080fd5b8382602036600319011261018e576101ab9035336105ba565b80f35b50503461018e578160031936011261018e576020906001549051908152f35b838060031936011261020d576101ab7f00000000000000000000000000000000000000000000000000000000000000006001600160a01b0316331461057d565b80fd5b50503461018e578160031936011261018e576020906002549051908152f35b5034610146576020366003190112610146576001600160a01b03903581811692908390036102a5577f2276211a3f2c7bc1943fe83cc63f8f970204ff6a4b83c690df2bc54d8f2792ad908454928316610289338214610662565b8151908152846020820152a16001600160a01b03191617815580f35b8380fd5b50503461018e57602036600319011261018e5751908152602090f35b61055e565b82843461020d578060031936011261020d578151908082526020820152f35b50503461018e578160031936011261018e57905490516001600160a01b039091168152602090f35b82843461020d578060031936011261020d57602061013b836101406001600160a01b037f000000000000000000000000000000000000000000000000000000000000000016338114906103638261057d565b4794859261057d565b503461014657602036600319011261014657602092503590610140827f00000000000000000000000000000000000000000000000000000000000000006001600160a01b031661013b33821461057d565b83823461018e57602036600319011261018e576103e460018060a01b038354163314610662565b3560025580f35b50913461020d578060031936011261020d5781519080600354600181811c918181168015610506575b60209889851082146104f357509183918995938895865290815f146104d25750600114610494575b505061044e9250959392950382610529565b82519382859384528251928382860152825b84811061047e57505050828201840152601f01601f19168101030190f35b8181018301518882018801528795508201610460565b600386528486209492508591905b8183106104ba57508894505082010161044e5f61043c565b855488840185015294850194879450918301916104a2565b91505061044e94925060ff191682840152151560051b82010186925f61043c565b634e487b7160e01b875260229052602486fd5b92607f1692610414565b84903461018e578160031936011261018e576020918152f35b90601f801991011681019081106001600160401b0382111761054a57604052565b634e487b7160e01b5f52604160045260245ffd5b34610579575f36600319011261057957602047604051908152f35b5f80fd5b1561058457565b60405162461bcd60e51b815260206004820152600e60248201526d3737ba1031b7b73a3937b63632b960911b6044820152606490fd5b6040516001600160401b039190602081018381118282101761054a576040525f8080958194828095525af1913d1561065b573d918211610647576040519161060c601f8201601f191660200184610529565b825260203d92013e5b1561061c57565b60405162461bcd60e51b815260206004820152600360248201526253544560e81b6044820152606490fd5b634e487b7160e01b81526041600452602490fd5b5050610615565b1561066957565b60405162461bcd60e51b815260206004820152600d60248201526c6e6f7420676f7665726e61636560981b6044820152606490fdfea2646970667358221220acf1db122d4b16063a413b51830d2ac781d7876119388715ea4ea5eabbce030864736f6c63430008150033",
  "immutableReferences": {
    "21979": [
      {
        "length": 32,
        "start": 255
      },
      {
        "length": 32,
        "start": 351
      },
      {
        "length": 32,
        "start": 478
      },
      {
        "length": 32,
        "start": 822
      },
      {
        "length": 32,
        "start": 906
      }
    ]
  },
  "source": "// SPDX-License-Identifier: MIT\npragma solidity 0.8.21;\n\nimport {TransferHelper} from \"@uniswap/v3-periphery/contracts/libraries/TransferHelper.sol\";\nimport {SafeMath} from \"@openzeppelin/contracts/utils/math/SafeMath.sol\";\n\nimport {Strategy} from \"../strategies/Strategy.sol\";\nimport {StrategyController} from \"../strategies/StrategyController.sol\";\n\ncontract MockNullStrategy is Strategy {\n    using SafeMath for uint256;\n\n    constructor(\n        address payable _controller,\n        string memory _name\n    ) Strategy(_controller, _name) {}\n\n    function deposit() public payable override onlyController {}\n\n    function withdraw(\n        uint256 _amount\n    ) public override onlyController returns (uint256 actualAmount) {\n        StrategyController strategyController = StrategyController(controller);\n\n        TransferHelper.safeTransferETH(address(strategyController), _amount);\n\n        actualAmount = _amount;\n    }\n\n    function mock_transfer(uint256 _amount) public payable {\n        TransferHelper.safeTransferETH(msg.sender, _amount);\n    }\n\n    function instantWithdraw(\n        uint256 _amount\n    ) public virtual override onlyController returns (uint256 actualAmount) {\n        actualAmount = withdraw(_amount);\n    }\n\n    function clear() public override onlyController returns (uint256 amount) {\n        amount = withdraw(address(this).balance);\n    }\n\n    function getAllValue() public view override returns (uint256 value) {\n        return address(this).balance;\n    }\n\n    function getInvestedValue() public view override returns (uint256 value) {\n        return address(this).balance;\n    }\n\n    receive() external payable {}\n}\n",
  "sourcePath": "/Users/mingyuzhang/Downloads/stone-vault-v1/contracts/mock/MockNullStrategy.sol",
  "compiler": {
    "name": "solc",
    "version": "0.8.21+commit.d9974bed.Emscripten.clang"
  },
  "schemaVersion": "3.4.16",
  "updatedAt": "2024-06-07T05:41:32.633Z",
  "devdoc": {
    "kind": "dev",
    "methods": {},
    "version": 1
  },
  "userdoc": {
    "kind": "user",
    "methods": {},
    "version": 1
  }
}