{
  "contractName": "NativeLendingETHStrategy",
  "abi": [
    {
      "inputs": [
        {
          "internalType": "address payable",
          "name": "_controller",
          "type": "address"
        },
        {
          "internalType": "string",
          "name": "_name",
          "type": "string"
        },
        {
          "internalType": "address",
          "name": "_lptoken",
          "type": "address"
        },
        {
          "internalType": "address",
          "name": "_weth",
          "type": "address"
        }
      ],
      "stateMutability": "nonpayable",
      "type": "constructor"
    },
    {
      "anonymous": false,
      "inputs": [
        {
          "indexed": false,
          "internalType": "uint256",
          "name": "amount",
          "type": "uint256"
        }
      ],
      "name": "Clear",
      "type": "event"
    },
    {
      "anonymous": false,
      "inputs": [
        {
          "indexed": false,
          "internalType": "uint256",
          "name": "amount",
          "type": "uint256"
        },
        {
          "indexed": false,
          "internalType": "uint256",
          "name": "mintAmount",
          "type": "uint256"
        }
      ],
      "name": "Deposit",
      "type": "event"
    },
    {
      "anonymous": false,
      "inputs": [
        {
          "indexed": true,
          "internalType": "address",
          "name": "targetAddress",
          "type": "address"
        },
        {
          "indexed": false,
          "internalType": "uint256",
          "name": "value",
          "type": "uint256"
        },
        {
          "indexed": false,
          "internalType": "bytes",
          "name": "data",
          "type": "bytes"
        }
      ],
      "name": "Invoked",
      "type": "event"
    },
    {
      "anonymous": false,
      "inputs": [
        {
          "indexed": true,
          "internalType": "address",
          "name": "previousOwner",
          "type": "address"
        },
        {
          "indexed": true,
          "internalType": "address",
          "name": "newOwner",
          "type": "address"
        }
      ],
      "name": "OwnershipTransferStarted",
      "type": "event"
    },
    {
      "anonymous": false,
      "inputs": [
        {
          "indexed": true,
          "internalType": "address",
          "name": "previousOwner",
          "type": "address"
        },
        {
          "indexed": true,
          "internalType": "address",
          "name": "newOwner",
          "type": "address"
        }
      ],
      "name": "OwnershipTransferred",
      "type": "event"
    },
    {
      "anonymous": false,
      "inputs": [
        {
          "indexed": false,
          "internalType": "uint256",
          "name": "amount",
          "type": "uint256"
        },
        {
          "indexed": false,
          "internalType": "uint256",
          "name": "actualAmount",
          "type": "uint256"
        }
      ],
      "name": "Withdraw",
      "type": "event"
    },
    {
      "anonymous": false,
      "inputs": [
        {
          "indexed": false,
          "internalType": "uint256",
          "name": "amount",
          "type": "uint256"
        },
        {
          "indexed": false,
          "internalType": "uint256",
          "name": "withdrawAmount",
          "type": "uint256"
        }
      ],
      "name": "WithdrawByAmount",
      "type": "event"
    },
    {
      "anonymous": false,
      "inputs": [
        {
          "indexed": false,
          "internalType": "uint256",
          "name": "share",
          "type": "uint256"
        },
        {
          "indexed": false,
          "internalType": "uint256",
          "name": "withdrawAmount",
          "type": "uint256"
        }
      ],
      "name": "WithdrawByShare",
      "type": "event"
    },
    {
      "inputs": [],
      "name": "LPTOKEN",
      "outputs": [
        {
          "internalType": "address",
          "name": "",
          "type": "address"
        }
      ],
      "stateMutability": "view",
      "type": "function"
    },
    {
      "inputs": [],
      "name": "WETH",
      "outputs": [
        {
          "internalType": "contract IWETH9",
          "name": "",
          "type": "address"
        }
      ],
      "stateMutability": "view",
      "type": "function"
    },
    {
      "inputs": [],
      "name": "acceptOwnership",
      "outputs": [],
      "stateMutability": "nonpayable",
      "type": "function"
    },
    {
      "inputs": [],
      "name": "bufferTime",
      "outputs": [
        {
          "internalType": "uint256",
          "name": "",
          "type": "uint256"
        }
      ],
      "stateMutability": "view",
      "type": "function"
    },
    {
      "inputs": [],
      "name": "controller",
      "outputs": [
        {
          "internalType": "address payable",
          "name": "",
          "type": "address"
        }
      ],
      "stateMutability": "view",
      "type": "function"
    },
    {
      "inputs": [],
      "name": "getPendingValue",
      "outputs": [
        {
          "internalType": "uint256",
          "name": "value",
          "type": "uint256"
        }
      ],
      "stateMutability": "nonpayable",
      "type": "function"
    },
    {
      "inputs": [],
      "name": "latestUpdateTime",
      "outputs": [
        {
          "internalType": "uint256",
          "name": "",
          "type": "uint256"
        }
      ],
      "stateMutability": "view",
      "type": "function"
    },
    {
      "inputs": [],
      "name": "name",
      "outputs": [
        {
          "internalType": "string",
          "name": "",
          "type": "string"
        }
      ],
      "stateMutability": "view",
      "type": "function"
    },
    {
      "inputs": [],
      "name": "owner",
      "outputs": [
        {
          "internalType": "address",
          "name": "",
          "type": "address"
        }
      ],
      "stateMutability": "view",
      "type": "function"
    },
    {
      "inputs": [],
      "name": "pendingOwner",
      "outputs": [
        {
          "internalType": "address",
          "name": "",
          "type": "address"
        }
      ],
      "stateMutability": "view",
      "type": "function"
    },
    {
      "inputs": [],
      "name": "renounceOwnership",
      "outputs": [],
      "stateMutability": "nonpayable",
      "type": "function"
    },
    {
      "inputs": [
        {
          "internalType": "uint256",
          "name": "_time",
          "type": "uint256"
        }
      ],
      "name": "setBufferTime",
      "outputs": [],
      "stateMutability": "nonpayable",
      "type": "function"
    },
    {
      "inputs": [
        {
          "internalType": "address",
          "name": "newOwner",
          "type": "address"
        }
      ],
      "name": "transferOwnership",
      "outputs": [],
      "stateMutability": "nonpayable",
      "type": "function"
    },
    {
      "stateMutability": "payable",
      "type": "receive"
    },
    {
      "inputs": [
        {
          "internalType": "uint256",
          "name": "_amount",
          "type": "uint256"
        }
      ],
      "name": "depositIntoNative",
      "outputs": [
        {
          "internalType": "uint256",
          "name": "mintAmount",
          "type": "uint256"
        }
      ],
      "stateMutability": "nonpayable",
      "type": "function"
    },
    {
      "inputs": [
        {
          "internalType": "uint256",
          "name": "_amount",
          "type": "uint256"
        }
      ],
      "name": "withdrawFromNativeByAmount",
      "outputs": [
        {
          "internalType": "uint256",
          "name": "withdrawAmount",
          "type": "uint256"
        }
      ],
      "stateMutability": "nonpayable",
      "type": "function"
    },
    {
      "inputs": [
        {
          "internalType": "uint256",
          "name": "_share",
          "type": "uint256"
        }
      ],
      "name": "withdrawFromNativeByShare",
      "outputs": [
        {
          "internalType": "uint256",
          "name": "withdrawAmount",
          "type": "uint256"
        }
      ],
      "stateMutability": "nonpayable",
      "type": "function"
    },
    {
      "inputs": [],
      "name": "getAllValue",
      "outputs": [
        {
          "internalType": "uint256",
          "name": "value",
          "type": "uint256"
        }
      ],
      "stateMutability": "nonpayable",
      "type": "function"
    },
    {
      "inputs": [],
      "name": "getInvestedValue",
      "outputs": [
        {
          "internalType": "uint256",
          "name": "value",
          "type": "uint256"
        }
      ],
      "stateMutability": "nonpayable",
      "type": "function"
    },
    {
      "inputs": [],
      "name": "deposit",
      "outputs": [],
      "stateMutability": "payable",
      "type": "function"
    },
    {
      "inputs": [
        {
          "internalType": "uint256",
          "name": "_amount",
          "type": "uint256"
        }
      ],
      "name": "withdraw",
      "outputs": [
        {
          "internalType": "uint256",
          "name": "actualAmount",
          "type": "uint256"
        }
      ],
      "stateMutability": "nonpayable",
      "type": "function"
    },
    {
      "inputs": [
        {
          "internalType": "uint256",
          "name": "_amount",
          "type": "uint256"
        }
      ],
      "name": "instantWithdraw",
      "outputs": [
        {
          "internalType": "uint256",
          "name": "actualAmount",
          "type": "uint256"
        }
      ],
      "stateMutability": "nonpayable",
      "type": "function"
    },
    {
      "inputs": [],
      "name": "clear",
      "outputs": [
        {
          "internalType": "uint256",
          "name": "amount",
          "type": "uint256"
        }
      ],
      "stateMutability": "nonpayable",
      "type": "function"
    }
  ],
  "bytecode": "0x60e0604052346200032657620014f6803803806200001d816200032a565b9283398101608082820312620003265781516001600160a01b039182821690818303620003265760208581015190926001600160401b03918281116200032657870192601f9080828601121562000326578451848111620002fd57601f19956200008d828501881689016200032a565b92828452888383010111620003265787905f5b838110620003115750505f9183010152620000cc6060620000c460408c0162000350565b9a0162000350565b966200011d60018060a01b0319946001958087541687555f549033908216175f558b3391167f8be0079c531659141344cd1fd0a4f28419497f9722a3daafe3b4186f6b6457e05f80a3151562000365565b6080528051938411620002fd5760049586548481811c91168015620002f2575b82821014620002df5783811162000297575b5080928511600114620002325750839450908392915f9462000226575b50501b915f199060031b1c19161790555b8183161515806200021a575b620001949062000365565b1660c05260a0526040516111549081620003a28239608051818181610138015281816101aa015281816102a50152818161090b01528181610b9101526110eb015260a0518181816103a101528181610583015281816109d501528181610b440152610dd5015260c05181818161032c015281816103d6015281816105bf0152610a0a0152f35b50808216151562000189565b015192505f806200016c565b929484908116875f52845f20945f905b888383106200027c575050501062000263575b505050811b0190556200017d565b01515f1960f88460031b161c191690555f808062000255565b85870151885590960195948501948793509081019062000242565b875f52815f208480880160051c820192848910620002d5575b0160051c019085905b828110620002c95750506200014f565b5f8155018590620002b9565b92508192620002b0565b602288634e487b7160e01b5f525260245ffd5b90607f16906200013d565b634e487b7160e01b5f52604160045260245ffd5b818101830151858201840152899201620000a0565b5f80fd5b6040519190601f01601f191682016001600160401b03811183821017620002fd57604052565b51906001600160a01b03821682036200032657565b156200036d57565b60405162461bcd60e51b815260206004820152600c60248201526b5a45524f204144445245535360a01b6044820152606490fdfe6080604081815260049182361015610021575b505050361561001f575f80fd5b005b5f90813560e01c9081621a559714610d4a5750806306fdde0314610c235780631aac030c14610c015780632e1a7d4d14610b735780633544b74714610b2f5780633b97ad8a1461098e57806352efea6e146108f45780636c23ab4c1461088a578063715018a61461088f5780637654f7ab1461088a57806379ba5097146107c9578063866e0e62146105455780638da5cb5b1461051d578063958ee5211461035b578063ad5c464814610317578063ba7b6703146102f8578063d0e30db014610294578063dd07d28814610275578063e30c39781461024c578063f2fde38b146101dd578063f77c4791146101955763fd92bff2036100125734610192576020366003190112610192575060209161018b906101677f00000000000000000000000000000000000000000000000000000000000000006001600160a01b03163314610f7b565b61018161017960025460035490610f6e565b421015610fb8565b42600255356110d9565b9051908152f35b80fd5b5090346101d957816003193601126101d957517f00000000000000000000000000000000000000000000000000000000000000006001600160a01b03168152602090f35b5080fd5b5082346101d95760203660031901126101d957356001600160a01b03818116918290036102485761020c610ef6565b600180546001600160a01b031916831790558254167f38d16b8cac22d99fc7c124b9cd0de2d3fa1faef420bfe791d8c362d765e227008380a380f35b8280fd5b5090346101d957816003193601126101d95760015490516001600160a01b039091168152602090f35b5090346101d957816003193601126101d9576020906002549051908152f35b5080600319360112610192576102d47f00000000000000000000000000000000000000000000000000000000000000006001600160a01b03163314610f7b565b6102e661017960025460035490610f6e565b6102f1341515610ff8565b4260025580f35b5090346101d957816003193601126101d9576020906003549051908152f35b5090346101d957816003193601126101d957517f00000000000000000000000000000000000000000000000000000000000000006001600160a01b03168152602090f35b5090346101d957602092836003193601126102485780359261037b610ef6565b825163db006a7560e01b81528083018590524792906001600160a01b03908781602481877f000000000000000000000000000000000000000000000000000000000000000087165af180156104ea579088916104f4575b50507f000000000000000000000000000000000000000000000000000000000000000016908451906370a0823160e01b825230818301528782602481865afa9182156104ea5784926104b7575b50823b156104b35790602484928388519586948593632e1a7d4d60e01b85528401525af180156104a95790849291610491575b505061047f7f85149be6e45d59cc947d24c18a291670cc69f1187a6b6294df5bd81df941ef1c9247610f4d565b9381519081528486820152a151908152f35b81925061049d90610d63565b61019257808391610452565b84513d84823e3d90fd5b8380fd5b9091508781813d83116104e3575b6104cf8183610d8a565b810103126104df5751905f61041f565b5f80fd5b503d6104c5565b86513d86823e3d90fd5b813d8311610516575b6105078183610d8a565b810103126104df57865f6103d2565b503d6104fd565b5090346101d957816003193601126101d957905490516001600160a01b039091168152602090f35b50913461024857602091826003193601126104b357813591610565610ef6565b81516370a0823160e01b808252308383015290916001600160a01b037f0000000000000000000000000000000000000000000000000000000000000000811692908785602481875afa94851561073a57899561079a575b507f000000000000000000000000000000000000000000000000000000000000000016803b15610774578551630d0e30db60e41b8152898185818b865af180156107905761077f575b50878991604488518094819363095ea7b360e01b835289898401528c60248401525af1801561073a57610744575b50845163140e25ad60e31b815282810187905287816024818c885af1801561073a57908893929161070e575b5060249086519485938492835230908301525afa9081156107045783949596916106b1575b507fa3af609bf46297028ce551832669030f9effef2b02606d02cbbcc40fe6b47c55929161047f91610f4d565b809350868092503d83116106fd575b6106ca8183610d8a565b810103126104df5790518291907fa3af609bf46297028ce551832669030f9effef2b02606d02cbbcc40fe6b47c55610684565b503d6106c0565b83513d88823e3d90fd5b8391933d8311610733575b6107238183610d8a565b810103126104df5786915f61065f565b503d610719565b86513d8b823e3d90fd5b8781813d8311610778575b6107598183610d8a565b81010312610774575180151503610770575f610633565b8780fd5b8880fd5b503d61074f565b9861078a899a610d63565b98610605565b87513d8c823e3d90fd5b9094508781813d83116107c2575b6107b28183610d8a565b810103126107745751935f6105bc565b503d6107a8565b50919034610248578260031936011261024857600154916001600160a01b039133838516036108355750506001600160a01b031991821660015582543392811683178455167f8be0079c531659141344cd1fd0a4f28419497f9722a3daafe3b4186f6b6457e08380a380f35b906020608492519162461bcd60e51b8352820152602960248201527f4f776e61626c6532537465703a2063616c6c6572206973206e6f7420746865206044820152683732bb9037bbb732b960b91b6064820152fd5b610dab565b50346101925780600319360112610192576108a8610ef6565b600180546001600160a01b03199081169091558154908116825581906001600160a01b03167f8be0079c531659141344cd1fd0a4f28419497f9722a3daafe3b4186f6b6457e08280a380f35b5090346101d957816003193601126101d9576020917f00000000000000000000000000000000000000000000000000000000000000006001600160a01b03169190610940338414610f7b565b91479081610951575b505051908152f35b8193509061095e91611031565b7f6e4c858d91fb3af82ec04ba219c6b12542326a62accb6ffac4cf87ba00ba95a383838351908152a18380610949565b509190346102485760209283600319360112610192578235926109af610ef6565b825163852a12e360e01b81528181018590524792906001600160a01b03908781602481867f000000000000000000000000000000000000000000000000000000000000000087165af18015610afc57908891610b06575b50507f000000000000000000000000000000000000000000000000000000000000000016918451906370a0823160e01b825230818301528782602481875afa918215610afc578392610acd575b50833b156102485790602483928388519687948593632e1a7d4d60e01b85528401525af1908115610ac257507f83fd1ccaf49fe148652f73efc855336188a5d064779e9ff9d5d5bc41c1d12da492849261047f92610ab3575b5047610f4d565b610abc90610d63565b5f610aac565b8451903d90823e3d90fd5b9091508781813d8311610af5575b610ae58183610d8a565b810103126102485751905f610a53565b503d610adb565b86513d85823e3d90fd5b813d8311610b28575b610b198183610d8a565b810103126101d957865f610a06565b503d610b0f565b5090346101d957816003193601126101d957517f00000000000000000000000000000000000000000000000000000000000000006001600160a01b03168152602090f35b50913461024857602036600319011261024857602092503590610bc07f00000000000000000000000000000000000000000000000000000000000000006001600160a01b03163314610f7b565b610bd261017960025460035490610f6e565b426002557f56ca301a9219608c91e7bcee90e083c19671d2cdcc96752c7af291cee5f9c8c88161047f846110d9565b5082346101d95760203660031901126101d957610c1c610ef6565b3560035580f35b503461019257806003193601126101925781519080845494600186811c91818816978815610d40575b6020988985108114610d2d57918995939185938996875290815f14610d0a5750600114610ccd575b505050610c879250959392950382610d8a565b82519382859384528251928382860152825b848110610cb757505050828201840152601f01601f19168101030190f35b8181018301518882018801528795508201610c99565b86528486209492508591905b818310610cf2575088945050820101610c875f80610c74565b85548884018501529485019487945091830191610cd9565b92505050610c8794925060ff191682840152151560051b82010186925f80610c74565b634e487b7160e01b875260228352602487fd5b92607f1692610c4c565b9050346101d957816003193601126101d9576020918152f35b6001600160401b038111610d7657604052565b634e487b7160e01b5f52604160045260245ffd5b90601f801991011681019081106001600160401b03821117610d7657604052565b346104df575f80600319360112610192576040516370a0823160e01b8152306004820152602091907f00000000000000000000000000000000000000000000000000000000000000006001600160a01b03168382602481845afa918215610eeb5783929185918493610eb9575b5060046040518096819363bd6d894d60e01b83525af1928315610eae578293610e7f575b50828102928184041490151715610e6b5750610e6390670de0b6b3a7640000479104610f6e565b604051908152f35b634e487b7160e01b81526011600452602490fd5b9092508381813d8311610ea7575b610e978183610d8a565b810103126101d95751915f610e3c565b503d610e8d565b6040513d84823e3d90fd5b9250925081813d8311610ee4575b610ed18183610d8a565b810103126102485751829184905f610e18565b503d610ec7565b6040513d85823e3d90fd5b5f546001600160a01b03163303610f0957565b606460405162461bcd60e51b815260206004820152602060248201527f4f776e61626c653a2063616c6c6572206973206e6f7420746865206f776e65726044820152fd5b91908203918211610f5a57565b634e487b7160e01b5f52601160045260245ffd5b91908201809211610f5a57565b15610f8257565b60405162461bcd60e51b815260206004820152600e60248201526d3737ba1031b7b73a3937b63632b960911b6044820152606490fd5b15610fbf57565b60405162461bcd60e51b81526020600482015260116024820152706174207468652073616d6520626c6f636b60781b6044820152606490fd5b15610fff57565b60405162461bcd60e51b815260206004820152600a6024820152697a65726f2076616c756560b01b6044820152606490fd5b6040516001600160401b0391906020810183811182821017610d76576040525f8080958194828095525af1913d156110d2573d9182116110be5760405191611083601f8201601f191660200184610d8a565b825260203d92013e5b1561109357565b60405162461bcd60e51b815260206004820152600360248201526253544560e81b6044820152606490fd5b634e487b7160e01b81526041600452602490fd5b505061108c565b906110e5821515610ff8565b611118827f00000000000000000000000000000000000000000000000000000000000000006001600160a01b0316611031565b4260025556fea2646970667358221220a0e68fb8042cf2cfff181b28fd25e705d55f47cc38a5503e5782044b5f4ac66864736f6c63430008150033",
  "immutableReferences": {
    "1276": [
      {
        "length": 32,
        "start": 929
      },
      {
        "length": 32,
        "start": 1411
      },
      {
        "length": 32,
        "start": 2517
      },
      {
        "length": 32,
        "start": 2884
      },
      {
        "length": 32,
        "start": 3541
      }
    ],
    "1279": [
      {
        "length": 32,
        "start": 812
      },
      {
        "length": 32,
        "start": 982
      },
      {
        "length": 32,
        "start": 1471
      },
      {
        "length": 32,
        "start": 2570
      }
    ],
    "3011": [
      {
        "length": 32,
        "start": 312
      },
      {
        "length": 32,
        "start": 426
      },
      {
        "length": 32,
        "start": 677
      },
      {
        "length": 32,
        "start": 2315
      },
      {
        "length": 32,
        "start": 2961
      },
      {
        "length": 32,
        "start": 4331
      }
    ]
  },
  "source": "// SPDX-License-Identifier: MIT\npragma solidity 0.8.21;\n\nimport {TransferHelper} from \"@uniswap/v3-periphery/contracts/libraries/TransferHelper.sol\";\nimport {IERC20} from \"@openzeppelin/contracts/token/ERC20/IERC20.sol\";\nimport {StrategyV2} from \"../strategies/StrategyV2.sol\";\nimport {StrategyController} from \"../strategies/StrategyController.sol\";\nimport {IWETH9} from \"../interfaces/IWETH9.sol\";\nimport {IAquaLpToken} from \"../interfaces/IAquaLpToken.sol\";\n\ncontract NativeLendingETHStrategy is StrategyV2 {\n    address public immutable LPTOKEN;\n    IWETH9 public immutable WETH;\n\n    event Invoked(address indexed targetAddress, uint256 value, bytes data);\n    event Deposit(uint256 amount, uint256 mintAmount); // Add this event\n    event WithdrawByShare(uint256 share, uint256 withdrawAmount); // Emit the event\n    event WithdrawByAmount(uint256 amount, uint256 withdrawAmount); // Emit the event\n    event Clear(uint256 amount);\n    event Withdraw(uint256 amount, uint256 actualAmount);\n    constructor(\n        address payable _controller,\n        string memory _name,\n        address _lptoken,\n        address _weth\n    ) StrategyV2(_controller, _name) {\n        require(_lptoken != address(0) && _weth != address(0), \"ZERO ADDRESS\");\n        WETH = IWETH9(_weth);\n        LPTOKEN = _lptoken;\n    }\n\n    // owner functions\n\n    function depositIntoNative(\n        uint256 _amount\n    ) external onlyOwner returns (uint256 mintAmount) {\n        uint256 beforeLPBalance = IAquaLpToken(LPTOKEN).balanceOf(\n            address(this)\n        );\n        WETH.deposit{value: _amount}();\n        WETH.approve(LPTOKEN, _amount);\n        IAquaLpToken(LPTOKEN).mint(_amount);\n\n        mintAmount =\n            IAquaLpToken(LPTOKEN).balanceOf(address(this)) -\n            beforeLPBalance;\n        emit Deposit(_amount, mintAmount); // Emit the event\n    }\n\n    function withdrawFromNativeByAmount(\n        uint256 _amount\n    ) external onlyOwner returns (uint256 withdrawAmount) {\n        uint256 beforeBalance = address(this).balance;\n\n        IAquaLpToken(LPTOKEN).redeemUnderlying(_amount);\n\n        WETH.withdraw(WETH.balanceOf(address(this)));\n        withdrawAmount = address(this).balance - beforeBalance;\n        emit WithdrawByAmount(_amount, withdrawAmount); // Emit the event\n    }\n\n    function withdrawFromNativeByShare(\n        uint256 _share\n    ) external onlyOwner returns (uint256 withdrawAmount) {\n        uint256 beforeBalance = address(this).balance;\n\n        IAquaLpToken(LPTOKEN).redeem(_share);\n\n        WETH.withdraw(WETH.balanceOf(address(this)));\n\n        withdrawAmount = address(this).balance - beforeBalance;\n        emit WithdrawByShare(_share, withdrawAmount); // Emit the event\n    }\n\n    // public functions\n\n    function getAllValue() public override returns (uint256 value) {\n        value = getInvestedValue();\n    }\n\n    function getInvestedValue() public override returns (uint256 value) {\n        value =\n            (IERC20(LPTOKEN).balanceOf(address(this)) *\n                IAquaLpToken(LPTOKEN).exchangeRateCurrent()) /\n            1e18 +\n            address(this).balance;\n    }\n\n    receive() external payable {}\n\n    // controller functions\n\n    function deposit() public payable override onlyController notAtSameBlock {\n        require(msg.value != 0, \"zero value\");\n\n        latestUpdateTime = block.timestamp;\n    }\n\n    function withdraw(\n        uint256 _amount\n    )\n        public\n        override\n        onlyController\n        notAtSameBlock\n        returns (uint256 actualAmount)\n    {\n        actualAmount = _withdraw(_amount);\n        emit Withdraw(_amount, actualAmount); // Emit the event\n    }\n\n    function instantWithdraw(\n        uint256 _amount\n    )\n        public\n        override\n        onlyController\n        notAtSameBlock\n        returns (uint256 actualAmount)\n    {\n        actualAmount = _withdraw(_amount);\n    }\n\n    function clear() public override onlyController returns (uint256 amount) {\n        uint256 balance = address(this).balance;\n\n        if (balance != 0) {\n            TransferHelper.safeTransferETH(controller, balance);\n            amount = balance;\n            emit Clear(amount);\n        }\n    }\n\n    // internal function\n\n    function _withdraw(\n        uint256 _amount\n    ) internal returns (uint256 actualAmount) {\n        require(_amount != 0, \"zero value\");\n\n        actualAmount = _amount;\n\n        TransferHelper.safeTransferETH(controller, actualAmount);\n\n        latestUpdateTime = block.timestamp;\n    }\n}\n",
  "sourcePath": "/Users/mingyuzhang/Downloads/stone-vault-v1/contracts/strategies/NativeLendingETHStrategy.sol",
  "compiler": {
    "name": "solc",
    "version": "0.8.21+commit.d9974bed.Emscripten.clang"
  },
  "schemaVersion": "3.4.16",
  "updatedAt": "2024-06-09T14:06:08.012Z",
  "devdoc": {
    "kind": "dev",
    "methods": {
      "acceptOwnership()": {
        "details": "The new owner accepts the ownership transfer."
      },
      "owner()": {
        "details": "Returns the address of the current owner."
      },
      "pendingOwner()": {
        "details": "Returns the address of the pending owner."
      },
      "renounceOwnership()": {
        "details": "Leaves the contract without owner. It will not be possible to call `onlyOwner` functions. Can only be called by the current owner. NOTE: Renouncing ownership will leave the contract without an owner, thereby disabling any functionality that is only available to the owner."
      },
      "transferOwnership(address)": {
        "details": "Starts the ownership transfer of the contract to a new account. Replaces the pending transfer if there is one. Can only be called by the current owner."
      }
    },
    "version": 1
  },
  "userdoc": {
    "kind": "user",
    "methods": {},
    "version": 1
  }
}