{
  "contractName": "NFTMiningPool",
  "abi": [
    {
      "inputs": [
        {
          "internalType": "uint256",
          "name": "_cycle",
          "type": "uint256"
        },
        {
          "internalType": "address",
          "name": "_lp_token",
          "type": "address"
        },
        {
          "internalType": "address",
          "name": "_stone",
          "type": "address"
        },
        {
          "internalType": "address",
          "name": "_weth",
          "type": "address"
        }
      ],
      "stateMutability": "nonpayable",
      "type": "constructor"
    },
    {
      "anonymous": false,
      "inputs": [
        {
          "indexed": false,
          "internalType": "address",
          "name": "user",
          "type": "address"
        },
        {
          "indexed": false,
          "internalType": "uint256",
          "name": "id",
          "type": "uint256"
        }
      ],
      "name": "NFTStaked",
      "type": "event"
    },
    {
      "anonymous": false,
      "inputs": [
        {
          "indexed": false,
          "internalType": "address",
          "name": "user",
          "type": "address"
        },
        {
          "indexed": false,
          "internalType": "uint256",
          "name": "id",
          "type": "uint256"
        }
      ],
      "name": "NFTUnstaked",
      "type": "event"
    },
    {
      "anonymous": false,
      "inputs": [
        {
          "indexed": false,
          "internalType": "uint256",
          "name": "time",
          "type": "uint256"
        }
      ],
      "name": "Terminated",
      "type": "event"
    },
    {
      "anonymous": false,
      "inputs": [
        {
          "indexed": false,
          "internalType": "address",
          "name": "oldAddr",
          "type": "address"
        },
        {
          "indexed": false,
          "internalType": "address",
          "name": "newAddr",
          "type": "address"
        }
      ],
      "name": "TransferGovernance",
      "type": "event"
    },
    {
      "inputs": [],
      "name": "cycle",
      "outputs": [
        {
          "internalType": "uint256",
          "name": "",
          "type": "uint256"
        }
      ],
      "stateMutability": "view",
      "type": "function"
    },
    {
      "inputs": [],
      "name": "governance",
      "outputs": [
        {
          "internalType": "address",
          "name": "",
          "type": "address"
        }
      ],
      "stateMutability": "view",
      "type": "function"
    },
    {
      "inputs": [],
      "name": "lp_token",
      "outputs": [
        {
          "internalType": "address",
          "name": "",
          "type": "address"
        }
      ],
      "stateMutability": "view",
      "type": "function"
    },
    {
      "inputs": [],
      "name": "nft",
      "outputs": [
        {
          "internalType": "address",
          "name": "",
          "type": "address"
        }
      ],
      "stateMutability": "view",
      "type": "function"
    },
    {
      "inputs": [
        {
          "internalType": "uint256",
          "name": "",
          "type": "uint256"
        }
      ],
      "name": "ownedBy",
      "outputs": [
        {
          "internalType": "address",
          "name": "",
          "type": "address"
        }
      ],
      "stateMutability": "view",
      "type": "function"
    },
    {
      "inputs": [
        {
          "internalType": "address",
          "name": "",
          "type": "address"
        },
        {
          "internalType": "uint256",
          "name": "",
          "type": "uint256"
        }
      ],
      "name": "pendingNFT",
      "outputs": [
        {
          "internalType": "uint256",
          "name": "points",
          "type": "uint256"
        },
        {
          "internalType": "uint256",
          "name": "startTime",
          "type": "uint256"
        },
        {
          "internalType": "uint256",
          "name": "endTime",
          "type": "uint256"
        }
      ],
      "stateMutability": "view",
      "type": "function"
    },
    {
      "inputs": [
        {
          "internalType": "address",
          "name": "",
          "type": "address"
        }
      ],
      "name": "stakeTime",
      "outputs": [
        {
          "internalType": "uint256",
          "name": "",
          "type": "uint256"
        }
      ],
      "stateMutability": "view",
      "type": "function"
    },
    {
      "inputs": [
        {
          "internalType": "address",
          "name": "",
          "type": "address"
        },
        {
          "internalType": "uint256",
          "name": "",
          "type": "uint256"
        }
      ],
      "name": "stakedLPs",
      "outputs": [
        {
          "internalType": "uint256",
          "name": "",
          "type": "uint256"
        }
      ],
      "stateMutability": "view",
      "type": "function"
    },
    {
      "inputs": [],
      "name": "stone",
      "outputs": [
        {
          "internalType": "address",
          "name": "",
          "type": "address"
        }
      ],
      "stateMutability": "view",
      "type": "function"
    },
    {
      "inputs": [],
      "name": "terminateTime",
      "outputs": [
        {
          "internalType": "uint256",
          "name": "",
          "type": "uint256"
        }
      ],
      "stateMutability": "view",
      "type": "function"
    },
    {
      "inputs": [
        {
          "internalType": "address",
          "name": "",
          "type": "address"
        }
      ],
      "name": "updateTime",
      "outputs": [
        {
          "internalType": "uint256",
          "name": "",
          "type": "uint256"
        }
      ],
      "stateMutability": "view",
      "type": "function"
    },
    {
      "inputs": [],
      "name": "weth",
      "outputs": [
        {
          "internalType": "address",
          "name": "",
          "type": "address"
        }
      ],
      "stateMutability": "view",
      "type": "function"
    },
    {
      "inputs": [
        {
          "internalType": "uint256[]",
          "name": "_ids",
          "type": "uint256[]"
        }
      ],
      "name": "stake",
      "outputs": [],
      "stateMutability": "nonpayable",
      "type": "function"
    },
    {
      "inputs": [
        {
          "internalType": "address",
          "name": "_user",
          "type": "address"
        },
        {
          "internalType": "uint256[]",
          "name": "_ids",
          "type": "uint256[]"
        }
      ],
      "name": "stakeFor",
      "outputs": [],
      "stateMutability": "nonpayable",
      "type": "function"
    },
    {
      "inputs": [
        {
          "internalType": "uint256[]",
          "name": "_ids",
          "type": "uint256[]"
        }
      ],
      "name": "unstake",
      "outputs": [],
      "stateMutability": "nonpayable",
      "type": "function"
    },
    {
      "inputs": [],
      "name": "claim",
      "outputs": [],
      "stateMutability": "nonpayable",
      "type": "function"
    },
    {
      "inputs": [
        {
          "internalType": "address",
          "name": "_user",
          "type": "address"
        }
      ],
      "name": "refreshStakedLP",
      "outputs": [],
      "stateMutability": "nonpayable",
      "type": "function"
    },
    {
      "inputs": [
        {
          "internalType": "address",
          "name": "_user",
          "type": "address"
        }
      ],
      "name": "earned",
      "outputs": [
        {
          "internalType": "uint256",
          "name": "amount",
          "type": "uint256"
        }
      ],
      "stateMutability": "view",
      "type": "function"
    },
    {
      "inputs": [
        {
          "internalType": "address",
          "name": "_user",
          "type": "address"
        }
      ],
      "name": "getPendingNFTLength",
      "outputs": [
        {
          "internalType": "uint256",
          "name": "amount",
          "type": "uint256"
        }
      ],
      "stateMutability": "view",
      "type": "function"
    },
    {
      "inputs": [
        {
          "internalType": "address",
          "name": "_user",
          "type": "address"
        }
      ],
      "name": "checkPosition",
      "outputs": [
        {
          "internalType": "bool",
          "name": "",
          "type": "bool"
        }
      ],
      "stateMutability": "view",
      "type": "function"
    },
    {
      "inputs": [
        {
          "internalType": "address",
          "name": "_owner",
          "type": "address"
        }
      ],
      "name": "getIdsByOwner",
      "outputs": [
        {
          "internalType": "uint256[]",
          "name": "ids",
          "type": "uint256[]"
        }
      ],
      "stateMutability": "view",
      "type": "function"
    },
    {
      "inputs": [
        {
          "internalType": "uint256[]",
          "name": "_ids",
          "type": "uint256[]"
        }
      ],
      "name": "filterNFT",
      "outputs": [
        {
          "internalType": "uint256[]",
          "name": "ids",
          "type": "uint256[]"
        }
      ],
      "stateMutability": "view",
      "type": "function"
    },
    {
      "inputs": [
        {
          "internalType": "address",
          "name": "_user",
          "type": "address"
        }
      ],
      "name": "getStakedLP",
      "outputs": [
        {
          "internalType": "uint256[]",
          "name": "ids",
          "type": "uint256[]"
        }
      ],
      "stateMutability": "view",
      "type": "function"
    },
    {
      "inputs": [
        {
          "internalType": "address",
          "name": "_nft",
          "type": "address"
        }
      ],
      "name": "setNFT",
      "outputs": [],
      "stateMutability": "nonpayable",
      "type": "function"
    },
    {
      "inputs": [
        {
          "internalType": "address",
          "name": "_nft",
          "type": "address"
        }
      ],
      "name": "terminate",
      "outputs": [],
      "stateMutability": "nonpayable",
      "type": "function"
    },
    {
      "inputs": [
        {
          "internalType": "address",
          "name": "_governance",
          "type": "address"
        }
      ],
      "name": "setNewGovernance",
      "outputs": [],
      "stateMutability": "nonpayable",
      "type": "function"
    },
    {
      "inputs": [
        {
          "internalType": "address",
          "name": "operator",
          "type": "address"
        },
        {
          "internalType": "address",
          "name": "from",
          "type": "address"
        },
        {
          "internalType": "uint256",
          "name": "tokenId",
          "type": "uint256"
        },
        {
          "internalType": "bytes",
          "name": "data",
          "type": "bytes"
        }
      ],
      "name": "onERC721Received",
      "outputs": [
        {
          "internalType": "bytes4",
          "name": "",
          "type": "bytes4"
        }
      ],
      "stateMutability": "nonpayable",
      "type": "function"
    }
  ],
  "bytecode": "0x60e0346200012157601f62001ef038819003918201601f19168301916001600160401b0383118484101762000125578084926080946040528339810103126200012157805190620000536020820162000139565b6200006f6060620000676040850162000139565b930162000139565b60015f55600980546001600160a01b0319163317905560069390935560805260a05260c052604051611da190816200014f823960805181818161042f0152818161069401528181610ccb01528181610efd015281816110300152611218015260a0518181816102930152818161067001528181610cef0152611009015260c05181818161083c015281816108680152818161099201528181610e5f01528181610e8b0152818161110d01526111390152f35b5f80fd5b634e487b7160e01b5f52604160045260245ffd5b51906001600160a01b0382168203620001215756fe60806040526004361015610011575f80fd5b5f3560e01c80628cc262146101c35780630167eb85146101be5780630bdd9c02146101b95780630e282166146101b45780630fbf0a93146101af578063150b7a02146101aa5780632170e472146101a55780633fc8cef3146101a057806347ccca021461019b57806348f2f1fa146101965780634e71d92d146101915780635aa6e6751461018c5780635afb8fc4146101875780636190c9d514610182578063714635991461017d57806381fb12f31461017857806382c6306614610173578063a613e0e71461016e578063b2aee61b14610169578063b933fcaf14610164578063c18c9d931461015f578063c4a903ca1461015a578063e449f34114610155578063e7d460bb14610150578063ea2a94691461014b578063edb45529146101465763f56e9c6614610141575f80fd5b6114d0565b611463565b61143e565b6113c4565b6111fd565b6111c2565b611191565b610fe5565b610f77565b610f2c565b610ee8565b610c60565b610c25565b610c08565b610b81565b610b59565b610a06565b6109e9565b6109c1565b61097d565b610942565b6108d5565b610638565b6103e9565b610354565b61027e565b6101dd565b6001600160a01b038116036101d957565b5f80fd5b346101d95760203660031901126101d95760406004356101fc816101c8565b5f9060018060a01b0316815260056020522054600360205260405f20548061022e575b604051828152602090f35b0390f35b42906007548061026c575b508103908111610267576006549182156102625761022a9261025c920490611ac0565b9061021f565b611a8a565b611591565b91505f610239565b5f9103126101d957565b346101d9575f3660031901126101d9576040517f00000000000000000000000000000000000000000000000000000000000000006001600160a01b03168152602090f35b6001600160a01b03165f90815260016020526040902090565b6001600160a01b03165f90815260056020526040902090565b6001600160a01b03165f90815260036020526040902090565b6001600160a01b03165f90815260046020526040902090565b634e487b7160e01b5f52603260045260245ffd5b805482101561034f575f5260205f2001905f90565b610326565b346101d95760403660031901126101d957600435610371816101c8565b6001600160a01b03165f908152600160205260409020805460243591908210156101d9576020916103a19161033a565b90546040519160031b1c8152f35b602090816040818301928281528551809452019301915f5b8281106103d5575050505090565b8351855293810193928101926001016103c7565b346101d9576020806003193601126101d95760048035610408816101c8565b604080516370a0823160e01b81526001600160a01b038381168583019081529295919391927f000000000000000000000000000000000000000000000000000000000000000090911691908390859081906020010381855afa938415610506575f9461050b575b506104798461193e565b945f5b8581106104905787518061022a89826103af565b8751632f745c5960e01b8152908582806104ad848888840161177c565b0381885afa8015610506576104d4925f916104d9575b506104ce828a6115b3565b526115a5565b61047c565b6104f99150873d89116104ff575b6104f18183610556565b8101906118ce565b5f6104c3565b503d6104e7565b6116a9565b610523919450833d85116104ff576104f18183610556565b925f61046f565b634e487b7160e01b5f52604160045260245ffd5b6001600160401b03811161055157604052565b61052a565b90601f801991011681019081106001600160401b0382111761055157604052565b60405190606082018281106001600160401b0382111761055157604052565b6001600160401b0381116105515760051b60200190565b9080601f830112156101d95760209082356105c781610596565b936105d56040519586610556565b818552838086019260051b8201019283116101d9578301905b8282106105fc575050505090565b813581529083019083016105ee565b60206003198201126101d957600435906001600160401b0382116101d957610635916004016105ad565b90565b346101d9576106463661060b565b61064e611797565b61065a60075415611558565b61066333611b1e565b80516001600160a01b03917f00000000000000000000000000000000000000000000000000000000000000008316907f00000000000000000000000000000000000000000000000000000000000000008416905f5b8481106106ca576106c860015f55565b005b6106d481836115b3565b516040805163133f757160e31b815260048082018490529193929061018080826024818b5afa801561050657610745928c915f9182948392610891575b50610728916001600160801b0316151590506116b4565b16898c8183149384610863575b8415610823575b505050506116ef565b853b156101d9575f8161076e9386519485928392632142170760e11b8452309033908501611726565b0381838a5af190811561050657610805947f0cda5cf38f6592672c7b4a22ff3d50874d1913629bd5ffedc27b7b40503d60fd936107fd9361080a575b506107e0336107c1845f52600260205260405f2090565b80546001600160a01b0319166001600160a01b03909216919091179055565b6107f2826107ed336102c2565b611748565b51918291338361177c565b0390a16115a5565b6106b8565b8061081761081d9261053e565b80610274565b5f6107aa565b1614915081610837575b505f898c8261073c565b90508a7f000000000000000000000000000000000000000000000000000000000000000016145f61082d565b8181167f00000000000000000000000000000000000000000000000000000000000000008316149450610735565b61072895506108b9935080919250903d106108ce575b6108b18183610556565b810190611606565b5050505098955050505092509193905f610711565b503d6108a7565b346101d95760803660031901126101d9576108f16004356101c8565b6108fc6024356101c8565b6064356001600160401b038082116101d957366023830112156101d95781600401359081116101d957369101602401116101d957604051630a85bd0160e11b8152602090f35b346101d95760203660031901126101d95760043561095f816101c8565b60018060a01b03165f526003602052602060405f2054604051908152f35b346101d9575f3660031901126101d9576040517f00000000000000000000000000000000000000000000000000000000000000006001600160a01b03168152602090f35b346101d9575f3660031901126101d9576008546040516001600160a01b039091168152602090f35b346101d9575f3660031901126101d9576020600754604051908152f35b346101d9575f80600319360112610b5657610a1f611797565b60088054610a37906001600160a01b03161515611823565b610a4033611d13565b610b48575b610a4e336102db565b5490610a5b82151561185d565b825b828110610a825783610a76610a71336102db565b6118f0565b610a7f60015f55565b80f35b80610aa1610a9b610b0a93610a96336102db565b610f5e565b50611896565b8354610ac390610ab7906001600160a01b031681565b6001600160a01b031690565b6020828101516040938401519351632991fa3b60e21b81523360048201525f60248201526044810191909152606481019390935291938291859182908a9082906084820190565b03925af192831561050657610b2593610b2a575b50506115a5565b610a5d565b81610b4092903d106104ff576104f18183610556565b505f80610b1e565b610b5133611c70565b610a45565b80fd5b346101d9575f3660031901126101d9576009546040516001600160a01b039091168152602090f35b346101d9576020806003193601126101d957600435610b9f816101c8565b6001600160a01b03165f81815260018084526040808320549490929190610bc58661193e565b94835b878110610bdc5785518061022a89826103af565b610c0390828652848452610bf28188882061033a565b90549060031b1c6104ce828a6115b3565b610bc8565b346101d9575f3660031901126101d9576020600654604051908152f35b346101d95760203660031901126101d957600435610c42816101c8565b60018060a01b03165f526004602052602060405f2054604051908152f35b346101d9576040806003193601126101d9576004803590610c80826101c8565b6024356001600160401b0381116101d957610c9e90369083016105ad565b91610ca7611797565b610cb360075415611558565b610cbc81611b1e565b8251926001600160a01b0391907f00000000000000000000000000000000000000000000000000000000000000008316907f00000000000000000000000000000000000000000000000000000000000000008416905f5b878110610d23576106c860015f55565b610d2d81836115b3565b51895163133f757160e31b81528881018281529192916101809081908390819060200103818a5afa801561050657610d9f928a915f9182948392610eb4575b50610d83916001600160801b0316151590506116b4565b16868a8183149384610e86575b8415610e4657505050506116ef565b843b156101d9578951632142170760e11b81525f8180610dc386308c8f8501611726565b0381838a5af1801561050657610e2e937f0cda5cf38f6592672c7b4a22ff3d50874d1913629bd5ffedc27b7b40503d60fd926107fd92610e33575b50610e15896107c1835f52600260205260405f2090565b610e22816107ed8b6102c2565b8c519182918a8361177c565b610d13565b80610817610e409261053e565b5f610dfe565b1614915081610e5a575b505f868a8261073c565b9050887f000000000000000000000000000000000000000000000000000000000000000016145f610e50565b8181167f00000000000000000000000000000000000000000000000000000000000000008316149450610d90565b610d839550610ed3935080919250903d106108ce576108b18183610556565b5050505098955050505092509193905f610d6c565b346101d9575f3660031901126101d9576040517f00000000000000000000000000000000000000000000000000000000000000006001600160a01b03168152602090f35b346101d95760203660031901126101d9576004355f526002602052602060018060a01b0360405f205416604051908152f35b805482101561034f575f52600360205f20910201905f90565b346101d95760403660031901126101d957600435610f94816101c8565b6001600160a01b03165f908152600560205260409020805460243591908210156101d957606091610fc491610f5e565b50805490600260018201549101549060405192835260208301526040820152f35b346101d957610ff33661060b565b80515f610fff8261193e565b6001600160a01b037f00000000000000000000000000000000000000000000000000000000000000008116949193917f000000000000000000000000000000000000000000000000000000000000000082169190845b84811061106d578587526040518061022a89826103af565b61107781836115b3565b5160405163133f757160e31b81526004810182905261018092919083816024818a5afa908115610506576110d59487915f918294611162575b5050168b878183149384611134575b84156110f4575b505050506110da575b506115a5565b611055565b6110ed6110e6896115a5565b988a6115b3565b525f6110cf565b1614915081611108575b505f8b87826110c6565b9050857f000000000000000000000000000000000000000000000000000000000000000016145f6110fe565b8181167f000000000000000000000000000000000000000000000000000000000000000083161494506110bf565b61117d93945080919250903d106108ce576108b18183610556565b505050505050505093925090505f806110b0565b346101d95760203660031901126101d95760206111b86004356111b3816101c8565b611d13565b6040519015158152f35b346101d95760203660031901126101d9576004356111df816101c8565b60018060a01b03165f526005602052602060405f2054604051908152f35b346101d95761120b3661060b565b611213611797565b8051907f00000000000000000000000000000000000000000000000000000000000000006001600160a01b0316905f905b8382106112665761125433611970565b61125d33611b1e565b6106c860015f55565b61127082826115b3565b51936112a13361129b610ab761128e895f52600260205260405f2090565b546001600160a01b031690565b146117eb565b6112c66112b6865f52600260205260405f2090565b80546001600160a01b0319169055565b5f5b6112d1336102c2565b548110156113bb57856112f96112ef836112ea336102c2565b61033a565b90549060031b1c90565b1461130c57611307906115a5565b6112c8565b611321611331916112ea9794959397336102c2565b8154905f199060031b1b19169055565b833b156101d957604080516323b872dd60e01b815290925f828061135a84333060048501611726565b0381838a5af1908115610506576113a2947f963148346e3c93bb3eb4b4c296e2e13321ff22bf1118c91686cb1bfe4adcd918936107fd936113a8575b5051918291338361177c565b90611244565b806108176113b59261053e565b5f611396565b50939091611331565b346101d95760203660031901126101d9576004356113e1816101c8565b6009546001600160a01b03808216927f2276211a3f2c7bc1943fe83cc63f8f970204ff6a4b83c690df2bc54d8f2792ad91604091611420338714611d2f565b82519586521693846020820152a16001600160a01b03191617600955005b346101d95760203660031901126101d9576106c860043561145e816101c8565b611970565b346101d95760203660031901126101d95761147f6004356101c8565b61149460018060a01b03600954163314611d2f565b6114a060075415611558565b426007557f9a9cad27a1bdce3d7cb0602aaf727dfaad03ba6524d9bca7b9615867fa6802b46020604051428152a1005b346101d95760203660031901126101d9576004356114ed816101c8565b6009546001600160a01b03906115069082163314611d2f565b60085491818316611525576001600160a01b0319909216911617600855005b60405162461bcd60e51b815260206004820152600b60248201526a185b1c9958591e481cd95d60aa1b6044820152606490fd5b1561155f57565b60405162461bcd60e51b815260206004820152600a6024820152691d195c9b5a5b985d195960b21b6044820152606490fd5b634e487b7160e01b5f52601160045260245ffd5b5f1981146102675760010190565b805182101561034f5760209160051b010190565b51906115d2826101c8565b565b519062ffffff821682036101d957565b51908160020b82036101d957565b51906001600160801b03821682036101d957565b9190826101809103126101d95781516001600160601b03811681036101d95791611632602082016115c7565b9161163f604083016115c7565b9161164c606082016115c7565b91611659608083016115d4565b9161166660a082016115e4565b9161167360c083016115e4565b9161168060e082016115f2565b9161010082015191610120810151916106356101606116a261014085016115f2565b93016115f2565b6040513d5f823e3d90fd5b156116bb57565b60405162461bcd60e51b815260206004820152600c60248201526b6e6f206c697175696469747960a01b6044820152606490fd5b156116f657565b60405162461bcd60e51b8152602060048201526008602482015267077726f6e67206c760c41b6044820152606490fd5b6001600160a01b03918216815291166020820152604081019190915260600190565b8054600160401b811015610551576117659160018201815561033a565b819291549060031b91821b915f19901b1916179055565b6001600160a01b039091168152602081019190915260400190565b60025f54146117a65760025f55565b60405162461bcd60e51b815260206004820152601f60248201527f5265656e7472616e637947756172643a207265656e7472616e742063616c6c006044820152606490fd5b156117f257565b60405162461bcd60e51b81526020600482015260096024820152683737ba1037bbb732b960b91b6044820152606490fd5b1561182a57565b60405162461bcd60e51b815260206004820152600b60248201526a1a5b9d985b1a59081b999d60aa1b6044820152606490fd5b1561186457565b60405162461bcd60e51b815260206004820152600a6024820152696e6f207265776172647360b01b6044820152606490fd5b90604051606081018181106001600160401b038211176105515760405260406002829480548452600181015460208501520154910152565b908160209103126101d9575190565b8181029291811591840414171561026757565b80545f8083558161190057505050565b600392828402928484040361026757815260208120918201915b8281106119275750505050565b80828592558260018201558260028201550161191a565b9061194882610596565b6119556040519182610556565b8281528092611966601f1991610596565b0190602036910137565b6001600160a01b0381165f818152600160208181526040808420549295919391929061199b8261193e565b95835b838110611a3d5750505050906119b59184526102c2565b908251926001600160401b03841161055157600160401b841161055157818354858555808610611a13575b506119f09101925f5260205f2090565b905f5b848110611a0257505050505050565b8351838201559281019285016119f3565b845f528686835f2092830192015b828110611a2f5750506119e0565b5f8155859350889101611a21565b611a6590825f52898852611a5381855f2061033a565b90549060031b1c80611a6a57506115a5565b61199e565b6110ed611a76886115a5565b978b6115b3565b9190820391821161026757565b634e487b7160e01b5f52601260045260245ffd5b8115610262570490565b8115610262570690565b906001820180921161026757565b9190820180921161026757565b8054600160401b81101561055157611aea91600182018155610f5e565b919091611b0b57604081600292518455602081015160018501550151910155565b634e487b7160e01b5f525f60045260245ffd5b4260075480611c68575b50611b32826102f4565b541580611c60575b611c5157611b47826102f4565b54611b528183611a7d565b611b73600691611b6e611b6784548093611a9e565b9486611a7d565b611aa8565b82611bb5575b505050611b858261030d565b55611b96611b9282611d13565b1590565b611b9d5750565b611bb2815f611bac81946102f4565b5561030d565b55565b611bbf9084611a7d565b611bc8856102f4565b555f90815b838110611bda5750611b79565b611c4c90611c47611bea886102db565b611bf3896102f4565b5490611c2c611c17611c0486611ab2565b93611c11895480966118dd565b90611a7d565b92611c11611c248d6102f4565b5491876118dd565b611c34610577565b9288845260208401526040830152611acd565b6115a5565b611bcd565b908082611bac611bb2936102f4565b506001611b3a565b90505f611b28565b4260075480611d0b575b50611c84826102f4565b541580611d04575b611c5157611c99826102f4565b54611ca48183611a7d565b611cb9600691611b6e611b6784548093611a9e565b82611cca57505050611b858261030d565b611cd49084611a7d565b611cdd856102f4565b555f90815b838110611cef5750611b79565b611cff90611c47611bea886102db565b611ce2565b505f611c8c565b90505f611c7a565b6001600160a01b03165f90815260016020526040902054151590565b15611d3657565b60405162461bcd60e51b815260206004820152600d60248201526c6e6f7420676f7665726e61636560981b6044820152606490fdfea2646970667358221220dd0a0328dc03384264e7c4dc4dc4f78ead09f94435ba6dc9812a17f0d05a0b2364736f6c63430008150033",
  "immutableReferences": {
    "14628": [
      {
        "length": 32,
        "start": 1071
      },
      {
        "length": 32,
        "start": 1684
      },
      {
        "length": 32,
        "start": 3275
      },
      {
        "length": 32,
        "start": 3837
      },
      {
        "length": 32,
        "start": 4144
      },
      {
        "length": 32,
        "start": 4632
      }
    ],
    "14630": [
      {
        "length": 32,
        "start": 659
      },
      {
        "length": 32,
        "start": 1648
      },
      {
        "length": 32,
        "start": 3311
      },
      {
        "length": 32,
        "start": 4105
      }
    ],
    "14632": [
      {
        "length": 32,
        "start": 2108
      },
      {
        "length": 32,
        "start": 2152
      },
      {
        "length": 32,
        "start": 2450
      },
      {
        "length": 32,
        "start": 3679
      },
      {
        "length": 32,
        "start": 3723
      },
      {
        "length": 32,
        "start": 4365
      },
      {
        "length": 32,
        "start": 4409
      }
    ]
  },
  "source": "// SPDX-License-Identifier: MIT\npragma solidity 0.8.21;\n\nimport {TransferHelper} from \"@uniswap/v3-periphery/contracts/libraries/TransferHelper.sol\";\n\nimport {ReentrancyGuard} from \"@openzeppelin/contracts/security/ReentrancyGuard.sol\";\nimport {IERC20} from \"@openzeppelin/contracts/token/ERC20/IERC20.sol\";\nimport {IERC721Receiver} from \"@openzeppelin/contracts/token/ERC721/IERC721Receiver.sol\";\n\nimport {INonfungiblePositionManager} from \"../interfaces/INonfungiblePositionManager.sol\";\nimport {StoneNFT} from \"./StoneNFT.sol\";\n\ncontract NFTMiningPool is ReentrancyGuard, IERC721Receiver {\n    address public immutable lp_token;\n\n    address public immutable stone;\n    address public immutable weth;\n\n    mapping(address => uint256[]) public stakedLPs;\n    mapping(uint256 => address) public ownedBy;\n\n    mapping(address => uint256) public stakeTime;\n    mapping(address => uint256) public updateTime;\n\n    mapping(address => NFTDetail[]) public pendingNFT;\n\n    uint256 public cycle;\n\n    uint256 public terminateTime;\n\n    address public nft;\n    address public governance;\n\n    struct NFTDetail {\n        uint256 points;\n        uint256 startTime;\n        uint256 endTime;\n    }\n\n    modifier onlyGovernance() {\n        require(governance == msg.sender, \"not governace\");\n        _;\n    }\n\n    event TransferGovernance(address oldAddr, address newAddr);\n    event Terminated(uint256 time);\n    event NFTStaked(address user, uint256 id);\n    event NFTUnstaked(address user, uint256 id);\n\n    constructor(\n        uint256 _cycle,\n        address _lp_token,\n        address _stone,\n        address _weth\n    ) {\n        governance = msg.sender;\n\n        cycle = _cycle;\n        lp_token = _lp_token;\n        stone = _stone;\n        weth = _weth;\n    }\n\n    function stake(uint256[] memory _ids) external {\n        _stakeFor(msg.sender, _ids);\n    }\n\n    function stakeFor(address _user, uint256[] memory _ids) external {\n        _stakeFor(_user, _ids);\n    }\n\n    function _stakeFor(\n        address _user,\n        uint256[] memory _ids\n    ) internal nonReentrant {\n        require(terminateTime == 0, \"terminated\");\n\n        updateReward(_user, false);\n\n        INonfungiblePositionManager lpNFT = INonfungiblePositionManager(\n            lp_token\n        );\n\n        uint256 length = _ids.length;\n        for (uint256 i; i < length; i++) {\n            uint256 id = _ids[i];\n            (\n                ,\n                ,\n                address token0,\n                address token1,\n                ,\n                ,\n                ,\n                uint128 liquidity,\n                ,\n                ,\n                ,\n\n            ) = lpNFT.positions(id);\n\n            require(liquidity > 0, \"no liquidity\");\n\n            require(\n                (token0 == stone && token1 == weth) ||\n                    (token1 == stone && token0 == weth),\n                \"wrong lp\"\n            );\n            lpNFT.safeTransferFrom(_user, address(this), id);\n            ownedBy[id] = _user;\n            stakedLPs[_user].push(id);\n\n            emit NFTStaked(_user, id);\n        }\n    }\n\n    function unstake(uint256[] memory _ids) external nonReentrant {\n        INonfungiblePositionManager lpNFT = INonfungiblePositionManager(\n            lp_token\n        );\n\n        uint256 length = _ids.length;\n        for (uint256 i; i < length; i++) {\n            uint256 id = _ids[i];\n            address owner = ownedBy[id];\n\n            require(owner == msg.sender, \"not owner\");\n            ownedBy[id] = address(0);\n\n            for (uint256 j; j < stakedLPs[msg.sender].length; j++) {\n                uint256 oid = stakedLPs[msg.sender][j];\n                if (oid == id) {\n                    stakedLPs[msg.sender][j] = 0;\n                    break;\n                }\n            }\n\n            lpNFT.transferFrom(address(this), msg.sender, id);\n\n            emit NFTUnstaked(msg.sender, id);\n        }\n\n        refreshStakedLP(msg.sender);\n\n        updateReward(msg.sender, false);\n    }\n\n    function claim() external nonReentrant {\n        require(nft != address(0), \"invalid nft\");\n\n        if (checkPosition(msg.sender)) {\n            updateReward(msg.sender, true);\n        }\n\n        uint256 length = pendingNFT[msg.sender].length;\n\n        require(length > 0, \"no rewards\");\n\n        for (uint i; i < length; i++) {\n            NFTDetail memory detail = pendingNFT[msg.sender][i];\n\n            StoneNFT(nft).mint(msg.sender, 0, detail.startTime, detail.endTime);\n        }\n\n        delete pendingNFT[msg.sender];\n    }\n\n    function refreshStakedLP(address _user) public {\n        uint256 j;\n        uint256 length = stakedLPs[_user].length;\n\n        uint256[] memory ids = new uint256[](length);\n        for (uint256 i; i < length; i++) {\n            uint256 id = stakedLPs[_user][i];\n            if (id != 0) {\n                ids[j++] = id;\n            }\n        }\n\n        assembly {\n            mstore(ids, j)\n        }\n\n        stakedLPs[_user] = ids;\n    }\n\n    function updateReward(address _user, bool _isClaim) internal {\n        uint256 current = block.timestamp;\n        if (terminateTime != 0) {\n            current = terminateTime;\n        }\n\n        if (stakeTime[_user] == 0 && !_isClaim) {\n            stakeTime[_user] = current;\n            updateTime[_user] = current;\n            return;\n        }\n\n        uint256 previous = stakeTime[_user];\n        uint256 acc = (current - previous) / cycle;\n        uint256 remainder = (current - previous) % cycle;\n\n        if (acc > 0) {\n            stakeTime[_user] = current - remainder;\n\n            for (uint256 i; i < acc; i++) {\n                pendingNFT[_user].push(\n                    NFTDetail(\n                        0,\n                        stakeTime[_user] - (i + 1) * cycle,\n                        stakeTime[_user] - (i * cycle)\n                    )\n                );\n            }\n        }\n\n        updateTime[_user] = current;\n\n        if (!checkPosition(_user)) {\n            stakeTime[_user] = 0;\n            updateTime[_user] = 0;\n        }\n    }\n\n    function earned(address _user) public view returns (uint256 amount) {\n        amount = pendingNFT[_user].length;\n\n        uint256 previous = stakeTime[_user];\n\n        if (previous != 0) {\n            uint256 current = block.timestamp;\n            if (terminateTime > 0) {\n                current = terminateTime;\n            }\n            uint256 acc = (current - previous) / cycle;\n            amount += acc;\n        }\n    }\n\n    function getPendingNFTLength(\n        address _user\n    ) public view returns (uint256 amount) {\n        amount = pendingNFT[_user].length;\n    }\n\n    function checkPosition(address _user) public view returns (bool) {\n        return stakedLPs[_user].length > 0;\n    }\n\n    function getIdsByOwner(\n        address _owner\n    ) public view returns (uint256[] memory ids) {\n        INonfungiblePositionManager lpNFT = INonfungiblePositionManager(\n            lp_token\n        );\n\n        uint256 count = lpNFT.balanceOf(_owner);\n\n        ids = new uint256[](count);\n\n        for (uint i; i < count; i++) {\n            ids[i] = lpNFT.tokenOfOwnerByIndex(_owner, i);\n        }\n    }\n\n    function filterNFT(\n        uint256[] memory _ids\n    ) public view returns (uint256[] memory ids) {\n        uint256 j;\n        uint256 length = _ids.length;\n\n        ids = new uint256[](length);\n\n        INonfungiblePositionManager lpNFT = INonfungiblePositionManager(\n            lp_token\n        );\n        for (uint256 i; i < length; i++) {\n            uint256 id = _ids[i];\n            (, , address token0, address token1, , , , , , , , ) = lpNFT\n                .positions(id);\n            if (\n                (token0 == stone && token1 == weth) ||\n                (token1 == stone && token0 == weth)\n            ) {\n                ids[j++] = id;\n            }\n        }\n\n        assembly {\n            mstore(ids, j)\n        }\n    }\n\n    function getStakedLP(\n        address _user\n    ) external view returns (uint256[] memory ids) {\n        uint256 length = stakedLPs[_user].length;\n\n        ids = new uint256[](length);\n        for (uint256 i; i < length; i++) {\n            ids[i] = stakedLPs[_user][i];\n        }\n    }\n\n    function setNFT(address _nft) external onlyGovernance {\n        require(nft == address(0), \"already set\");\n\n        nft = _nft;\n    }\n\n    function terminate(address _nft) external onlyGovernance {\n        require(terminateTime == 0, \"terminated\");\n\n        terminateTime = block.timestamp;\n\n        emit Terminated(terminateTime);\n    }\n\n    function setNewGovernance(address _governance) external onlyGovernance {\n        emit TransferGovernance(governance, _governance);\n\n        governance = _governance;\n    }\n\n    function onERC721Received(\n        address operator,\n        address from,\n        uint256 tokenId,\n        bytes calldata data\n    ) external override returns (bytes4) {\n        return IERC721Receiver.onERC721Received.selector;\n    }\n}\n",
  "sourcePath": "/Users/mingyuzhang/Downloads/stone-vault-v1/contracts/mining/NFTMiningPool.sol",
  "compiler": {
    "name": "solc",
    "version": "0.8.21+commit.d9974bed.Emscripten.clang"
  },
  "schemaVersion": "3.4.16",
  "updatedAt": "2024-06-07T05:41:32.628Z",
  "devdoc": {
    "kind": "dev",
    "methods": {
      "onERC721Received(address,address,uint256,bytes)": {
        "details": "Whenever an {IERC721} `tokenId` token is transferred to this contract via {IERC721-safeTransferFrom} by `operator` from `from`, this function is called. It must return its Solidity selector to confirm the token transfer. If any other value is returned or the interface is not implemented by the recipient, the transfer will be reverted. The selector can be obtained in Solidity with `IERC721Receiver.onERC721Received.selector`."
      }
    },
    "version": 1
  },
  "userdoc": {
    "kind": "user",
    "methods": {},
    "version": 1
  }
}