{
  "contractName": "OFT",
  "abi": [
    {
      "inputs": [
        {
          "internalType": "string",
          "name": "_name",
          "type": "string"
        },
        {
          "internalType": "string",
          "name": "_symbol",
          "type": "string"
        },
        {
          "internalType": "address",
          "name": "_lzEndpoint",
          "type": "address"
        }
      ],
      "stateMutability": "nonpayable",
      "type": "constructor"
    },
    {
      "anonymous": false,
      "inputs": [
        {
          "indexed": true,
          "internalType": "address",
          "name": "owner",
          "type": "address"
        },
        {
          "indexed": true,
          "internalType": "address",
          "name": "spender",
          "type": "address"
        },
        {
          "indexed": false,
          "internalType": "uint256",
          "name": "value",
          "type": "uint256"
        }
      ],
      "name": "Approval",
      "type": "event"
    },
    {
      "anonymous": false,
      "inputs": [
        {
          "indexed": false,
          "internalType": "uint16",
          "name": "_srcChainId",
          "type": "uint16"
        },
        {
          "indexed": false,
          "internalType": "bytes",
          "name": "_srcAddress",
          "type": "bytes"
        },
        {
          "indexed": false,
          "internalType": "uint64",
          "name": "_nonce",
          "type": "uint64"
        },
        {
          "indexed": false,
          "internalType": "bytes",
          "name": "_payload",
          "type": "bytes"
        },
        {
          "indexed": false,
          "internalType": "bytes",
          "name": "_reason",
          "type": "bytes"
        }
      ],
      "name": "MessageFailed",
      "type": "event"
    },
    {
      "anonymous": false,
      "inputs": [
        {
          "indexed": true,
          "internalType": "address",
          "name": "previousOwner",
          "type": "address"
        },
        {
          "indexed": true,
          "internalType": "address",
          "name": "newOwner",
          "type": "address"
        }
      ],
      "name": "OwnershipTransferred",
      "type": "event"
    },
    {
      "anonymous": false,
      "inputs": [
        {
          "indexed": true,
          "internalType": "uint16",
          "name": "_srcChainId",
          "type": "uint16"
        },
        {
          "indexed": true,
          "internalType": "address",
          "name": "_to",
          "type": "address"
        },
        {
          "indexed": false,
          "internalType": "uint256",
          "name": "_amount",
          "type": "uint256"
        }
      ],
      "name": "ReceiveFromChain",
      "type": "event"
    },
    {
      "anonymous": false,
      "inputs": [
        {
          "indexed": false,
          "internalType": "uint16",
          "name": "_srcChainId",
          "type": "uint16"
        },
        {
          "indexed": false,
          "internalType": "bytes",
          "name": "_srcAddress",
          "type": "bytes"
        },
        {
          "indexed": false,
          "internalType": "uint64",
          "name": "_nonce",
          "type": "uint64"
        },
        {
          "indexed": false,
          "internalType": "bytes32",
          "name": "_payloadHash",
          "type": "bytes32"
        }
      ],
      "name": "RetryMessageSuccess",
      "type": "event"
    },
    {
      "anonymous": false,
      "inputs": [
        {
          "indexed": true,
          "internalType": "uint16",
          "name": "_dstChainId",
          "type": "uint16"
        },
        {
          "indexed": true,
          "internalType": "address",
          "name": "_from",
          "type": "address"
        },
        {
          "indexed": false,
          "internalType": "bytes",
          "name": "_toAddress",
          "type": "bytes"
        },
        {
          "indexed": false,
          "internalType": "uint256",
          "name": "_amount",
          "type": "uint256"
        }
      ],
      "name": "SendToChain",
      "type": "event"
    },
    {
      "anonymous": false,
      "inputs": [
        {
          "indexed": false,
          "internalType": "uint16",
          "name": "_dstChainId",
          "type": "uint16"
        },
        {
          "indexed": false,
          "internalType": "uint16",
          "name": "_type",
          "type": "uint16"
        },
        {
          "indexed": false,
          "internalType": "uint256",
          "name": "_minDstGas",
          "type": "uint256"
        }
      ],
      "name": "SetMinDstGas",
      "type": "event"
    },
    {
      "anonymous": false,
      "inputs": [
        {
          "indexed": false,
          "internalType": "address",
          "name": "precrime",
          "type": "address"
        }
      ],
      "name": "SetPrecrime",
      "type": "event"
    },
    {
      "anonymous": false,
      "inputs": [
        {
          "indexed": false,
          "internalType": "uint16",
          "name": "_remoteChainId",
          "type": "uint16"
        },
        {
          "indexed": false,
          "internalType": "bytes",
          "name": "_path",
          "type": "bytes"
        }
      ],
      "name": "SetTrustedRemote",
      "type": "event"
    },
    {
      "anonymous": false,
      "inputs": [
        {
          "indexed": false,
          "internalType": "uint16",
          "name": "_remoteChainId",
          "type": "uint16"
        },
        {
          "indexed": false,
          "internalType": "bytes",
          "name": "_remoteAddress",
          "type": "bytes"
        }
      ],
      "name": "SetTrustedRemoteAddress",
      "type": "event"
    },
    {
      "anonymous": false,
      "inputs": [
        {
          "indexed": false,
          "internalType": "bool",
          "name": "_useCustomAdapterParams",
          "type": "bool"
        }
      ],
      "name": "SetUseCustomAdapterParams",
      "type": "event"
    },
    {
      "anonymous": false,
      "inputs": [
        {
          "indexed": true,
          "internalType": "address",
          "name": "from",
          "type": "address"
        },
        {
          "indexed": true,
          "internalType": "address",
          "name": "to",
          "type": "address"
        },
        {
          "indexed": false,
          "internalType": "uint256",
          "name": "value",
          "type": "uint256"
        }
      ],
      "name": "Transfer",
      "type": "event"
    },
    {
      "inputs": [],
      "name": "DEFAULT_PAYLOAD_SIZE_LIMIT",
      "outputs": [
        {
          "internalType": "uint256",
          "name": "",
          "type": "uint256"
        }
      ],
      "stateMutability": "view",
      "type": "function"
    },
    {
      "inputs": [],
      "name": "NO_EXTRA_GAS",
      "outputs": [
        {
          "internalType": "uint256",
          "name": "",
          "type": "uint256"
        }
      ],
      "stateMutability": "view",
      "type": "function"
    },
    {
      "inputs": [],
      "name": "PT_SEND",
      "outputs": [
        {
          "internalType": "uint16",
          "name": "",
          "type": "uint16"
        }
      ],
      "stateMutability": "view",
      "type": "function"
    },
    {
      "inputs": [
        {
          "internalType": "address",
          "name": "owner",
          "type": "address"
        },
        {
          "internalType": "address",
          "name": "spender",
          "type": "address"
        }
      ],
      "name": "allowance",
      "outputs": [
        {
          "internalType": "uint256",
          "name": "",
          "type": "uint256"
        }
      ],
      "stateMutability": "view",
      "type": "function"
    },
    {
      "inputs": [
        {
          "internalType": "address",
          "name": "spender",
          "type": "address"
        },
        {
          "internalType": "uint256",
          "name": "amount",
          "type": "uint256"
        }
      ],
      "name": "approve",
      "outputs": [
        {
          "internalType": "bool",
          "name": "",
          "type": "bool"
        }
      ],
      "stateMutability": "nonpayable",
      "type": "function"
    },
    {
      "inputs": [
        {
          "internalType": "address",
          "name": "account",
          "type": "address"
        }
      ],
      "name": "balanceOf",
      "outputs": [
        {
          "internalType": "uint256",
          "name": "",
          "type": "uint256"
        }
      ],
      "stateMutability": "view",
      "type": "function"
    },
    {
      "inputs": [],
      "name": "decimals",
      "outputs": [
        {
          "internalType": "uint8",
          "name": "",
          "type": "uint8"
        }
      ],
      "stateMutability": "view",
      "type": "function"
    },
    {
      "inputs": [
        {
          "internalType": "address",
          "name": "spender",
          "type": "address"
        },
        {
          "internalType": "uint256",
          "name": "subtractedValue",
          "type": "uint256"
        }
      ],
      "name": "decreaseAllowance",
      "outputs": [
        {
          "internalType": "bool",
          "name": "",
          "type": "bool"
        }
      ],
      "stateMutability": "nonpayable",
      "type": "function"
    },
    {
      "inputs": [
        {
          "internalType": "uint16",
          "name": "_dstChainId",
          "type": "uint16"
        },
        {
          "internalType": "bytes",
          "name": "_toAddress",
          "type": "bytes"
        },
        {
          "internalType": "uint256",
          "name": "_amount",
          "type": "uint256"
        },
        {
          "internalType": "bool",
          "name": "_useZro",
          "type": "bool"
        },
        {
          "internalType": "bytes",
          "name": "_adapterParams",
          "type": "bytes"
        }
      ],
      "name": "estimateSendFee",
      "outputs": [
        {
          "internalType": "uint256",
          "name": "nativeFee",
          "type": "uint256"
        },
        {
          "internalType": "uint256",
          "name": "zroFee",
          "type": "uint256"
        }
      ],
      "stateMutability": "view",
      "type": "function"
    },
    {
      "inputs": [
        {
          "internalType": "uint16",
          "name": "",
          "type": "uint16"
        },
        {
          "internalType": "bytes",
          "name": "",
          "type": "bytes"
        },
        {
          "internalType": "uint64",
          "name": "",
          "type": "uint64"
        }
      ],
      "name": "failedMessages",
      "outputs": [
        {
          "internalType": "bytes32",
          "name": "",
          "type": "bytes32"
        }
      ],
      "stateMutability": "view",
      "type": "function"
    },
    {
      "inputs": [
        {
          "internalType": "uint16",
          "name": "_srcChainId",
          "type": "uint16"
        },
        {
          "internalType": "bytes",
          "name": "_srcAddress",
          "type": "bytes"
        }
      ],
      "name": "forceResumeReceive",
      "outputs": [],
      "stateMutability": "nonpayable",
      "type": "function"
    },
    {
      "inputs": [
        {
          "internalType": "uint16",
          "name": "_version",
          "type": "uint16"
        },
        {
          "internalType": "uint16",
          "name": "_chainId",
          "type": "uint16"
        },
        {
          "internalType": "address",
          "name": "",
          "type": "address"
        },
        {
          "internalType": "uint256",
          "name": "_configType",
          "type": "uint256"
        }
      ],
      "name": "getConfig",
      "outputs": [
        {
          "internalType": "bytes",
          "name": "",
          "type": "bytes"
        }
      ],
      "stateMutability": "view",
      "type": "function"
    },
    {
      "inputs": [
        {
          "internalType": "uint16",
          "name": "_remoteChainId",
          "type": "uint16"
        }
      ],
      "name": "getTrustedRemoteAddress",
      "outputs": [
        {
          "internalType": "bytes",
          "name": "",
          "type": "bytes"
        }
      ],
      "stateMutability": "view",
      "type": "function"
    },
    {
      "inputs": [
        {
          "internalType": "address",
          "name": "spender",
          "type": "address"
        },
        {
          "internalType": "uint256",
          "name": "addedValue",
          "type": "uint256"
        }
      ],
      "name": "increaseAllowance",
      "outputs": [
        {
          "internalType": "bool",
          "name": "",
          "type": "bool"
        }
      ],
      "stateMutability": "nonpayable",
      "type": "function"
    },
    {
      "inputs": [
        {
          "internalType": "uint16",
          "name": "_srcChainId",
          "type": "uint16"
        },
        {
          "internalType": "bytes",
          "name": "_srcAddress",
          "type": "bytes"
        }
      ],
      "name": "isTrustedRemote",
      "outputs": [
        {
          "internalType": "bool",
          "name": "",
          "type": "bool"
        }
      ],
      "stateMutability": "view",
      "type": "function"
    },
    {
      "inputs": [],
      "name": "lzEndpoint",
      "outputs": [
        {
          "internalType": "contract ILayerZeroEndpoint",
          "name": "",
          "type": "address"
        }
      ],
      "stateMutability": "view",
      "type": "function"
    },
    {
      "inputs": [
        {
          "internalType": "uint16",
          "name": "_srcChainId",
          "type": "uint16"
        },
        {
          "internalType": "bytes",
          "name": "_srcAddress",
          "type": "bytes"
        },
        {
          "internalType": "uint64",
          "name": "_nonce",
          "type": "uint64"
        },
        {
          "internalType": "bytes",
          "name": "_payload",
          "type": "bytes"
        }
      ],
      "name": "lzReceive",
      "outputs": [],
      "stateMutability": "nonpayable",
      "type": "function"
    },
    {
      "inputs": [
        {
          "internalType": "uint16",
          "name": "",
          "type": "uint16"
        },
        {
          "internalType": "uint16",
          "name": "",
          "type": "uint16"
        }
      ],
      "name": "minDstGasLookup",
      "outputs": [
        {
          "internalType": "uint256",
          "name": "",
          "type": "uint256"
        }
      ],
      "stateMutability": "view",
      "type": "function"
    },
    {
      "inputs": [],
      "name": "name",
      "outputs": [
        {
          "internalType": "string",
          "name": "",
          "type": "string"
        }
      ],
      "stateMutability": "view",
      "type": "function"
    },
    {
      "inputs": [
        {
          "internalType": "uint16",
          "name": "_srcChainId",
          "type": "uint16"
        },
        {
          "internalType": "bytes",
          "name": "_srcAddress",
          "type": "bytes"
        },
        {
          "internalType": "uint64",
          "name": "_nonce",
          "type": "uint64"
        },
        {
          "internalType": "bytes",
          "name": "_payload",
          "type": "bytes"
        }
      ],
      "name": "nonblockingLzReceive",
      "outputs": [],
      "stateMutability": "nonpayable",
      "type": "function"
    },
    {
      "inputs": [],
      "name": "owner",
      "outputs": [
        {
          "internalType": "address",
          "name": "",
          "type": "address"
        }
      ],
      "stateMutability": "view",
      "type": "function"
    },
    {
      "inputs": [
        {
          "internalType": "uint16",
          "name": "",
          "type": "uint16"
        }
      ],
      "name": "payloadSizeLimitLookup",
      "outputs": [
        {
          "internalType": "uint256",
          "name": "",
          "type": "uint256"
        }
      ],
      "stateMutability": "view",
      "type": "function"
    },
    {
      "inputs": [],
      "name": "precrime",
      "outputs": [
        {
          "internalType": "address",
          "name": "",
          "type": "address"
        }
      ],
      "stateMutability": "view",
      "type": "function"
    },
    {
      "inputs": [],
      "name": "renounceOwnership",
      "outputs": [],
      "stateMutability": "nonpayable",
      "type": "function"
    },
    {
      "inputs": [
        {
          "internalType": "uint16",
          "name": "_srcChainId",
          "type": "uint16"
        },
        {
          "internalType": "bytes",
          "name": "_srcAddress",
          "type": "bytes"
        },
        {
          "internalType": "uint64",
          "name": "_nonce",
          "type": "uint64"
        },
        {
          "internalType": "bytes",
          "name": "_payload",
          "type": "bytes"
        }
      ],
      "name": "retryMessage",
      "outputs": [],
      "stateMutability": "payable",
      "type": "function"
    },
    {
      "inputs": [
        {
          "internalType": "address",
          "name": "_from",
          "type": "address"
        },
        {
          "internalType": "uint16",
          "name": "_dstChainId",
          "type": "uint16"
        },
        {
          "internalType": "bytes",
          "name": "_toAddress",
          "type": "bytes"
        },
        {
          "internalType": "uint256",
          "name": "_amount",
          "type": "uint256"
        },
        {
          "internalType": "address payable",
          "name": "_refundAddress",
          "type": "address"
        },
        {
          "internalType": "address",
          "name": "_zroPaymentAddress",
          "type": "address"
        },
        {
          "internalType": "bytes",
          "name": "_adapterParams",
          "type": "bytes"
        }
      ],
      "name": "sendFrom",
      "outputs": [],
      "stateMutability": "payable",
      "type": "function"
    },
    {
      "inputs": [
        {
          "internalType": "uint16",
          "name": "_version",
          "type": "uint16"
        },
        {
          "internalType": "uint16",
          "name": "_chainId",
          "type": "uint16"
        },
        {
          "internalType": "uint256",
          "name": "_configType",
          "type": "uint256"
        },
        {
          "internalType": "bytes",
          "name": "_config",
          "type": "bytes"
        }
      ],
      "name": "setConfig",
      "outputs": [],
      "stateMutability": "nonpayable",
      "type": "function"
    },
    {
      "inputs": [
        {
          "internalType": "uint16",
          "name": "_dstChainId",
          "type": "uint16"
        },
        {
          "internalType": "uint16",
          "name": "_packetType",
          "type": "uint16"
        },
        {
          "internalType": "uint256",
          "name": "_minGas",
          "type": "uint256"
        }
      ],
      "name": "setMinDstGas",
      "outputs": [],
      "stateMutability": "nonpayable",
      "type": "function"
    },
    {
      "inputs": [
        {
          "internalType": "uint16",
          "name": "_dstChainId",
          "type": "uint16"
        },
        {
          "internalType": "uint256",
          "name": "_size",
          "type": "uint256"
        }
      ],
      "name": "setPayloadSizeLimit",
      "outputs": [],
      "stateMutability": "nonpayable",
      "type": "function"
    },
    {
      "inputs": [
        {
          "internalType": "address",
          "name": "_precrime",
          "type": "address"
        }
      ],
      "name": "setPrecrime",
      "outputs": [],
      "stateMutability": "nonpayable",
      "type": "function"
    },
    {
      "inputs": [
        {
          "internalType": "uint16",
          "name": "_version",
          "type": "uint16"
        }
      ],
      "name": "setReceiveVersion",
      "outputs": [],
      "stateMutability": "nonpayable",
      "type": "function"
    },
    {
      "inputs": [
        {
          "internalType": "uint16",
          "name": "_version",
          "type": "uint16"
        }
      ],
      "name": "setSendVersion",
      "outputs": [],
      "stateMutability": "nonpayable",
      "type": "function"
    },
    {
      "inputs": [
        {
          "internalType": "uint16",
          "name": "_remoteChainId",
          "type": "uint16"
        },
        {
          "internalType": "bytes",
          "name": "_path",
          "type": "bytes"
        }
      ],
      "name": "setTrustedRemote",
      "outputs": [],
      "stateMutability": "nonpayable",
      "type": "function"
    },
    {
      "inputs": [
        {
          "internalType": "uint16",
          "name": "_remoteChainId",
          "type": "uint16"
        },
        {
          "internalType": "bytes",
          "name": "_remoteAddress",
          "type": "bytes"
        }
      ],
      "name": "setTrustedRemoteAddress",
      "outputs": [],
      "stateMutability": "nonpayable",
      "type": "function"
    },
    {
      "inputs": [
        {
          "internalType": "bool",
          "name": "_useCustomAdapterParams",
          "type": "bool"
        }
      ],
      "name": "setUseCustomAdapterParams",
      "outputs": [],
      "stateMutability": "nonpayable",
      "type": "function"
    },
    {
      "inputs": [],
      "name": "symbol",
      "outputs": [
        {
          "internalType": "string",
          "name": "",
          "type": "string"
        }
      ],
      "stateMutability": "view",
      "type": "function"
    },
    {
      "inputs": [],
      "name": "totalSupply",
      "outputs": [
        {
          "internalType": "uint256",
          "name": "",
          "type": "uint256"
        }
      ],
      "stateMutability": "view",
      "type": "function"
    },
    {
      "inputs": [
        {
          "internalType": "address",
          "name": "to",
          "type": "address"
        },
        {
          "internalType": "uint256",
          "name": "amount",
          "type": "uint256"
        }
      ],
      "name": "transfer",
      "outputs": [
        {
          "internalType": "bool",
          "name": "",
          "type": "bool"
        }
      ],
      "stateMutability": "nonpayable",
      "type": "function"
    },
    {
      "inputs": [
        {
          "internalType": "address",
          "name": "from",
          "type": "address"
        },
        {
          "internalType": "address",
          "name": "to",
          "type": "address"
        },
        {
          "internalType": "uint256",
          "name": "amount",
          "type": "uint256"
        }
      ],
      "name": "transferFrom",
      "outputs": [
        {
          "internalType": "bool",
          "name": "",
          "type": "bool"
        }
      ],
      "stateMutability": "nonpayable",
      "type": "function"
    },
    {
      "inputs": [
        {
          "internalType": "address",
          "name": "newOwner",
          "type": "address"
        }
      ],
      "name": "transferOwnership",
      "outputs": [],
      "stateMutability": "nonpayable",
      "type": "function"
    },
    {
      "inputs": [
        {
          "internalType": "uint16",
          "name": "",
          "type": "uint16"
        }
      ],
      "name": "trustedRemoteLookup",
      "outputs": [
        {
          "internalType": "bytes",
          "name": "",
          "type": "bytes"
        }
      ],
      "stateMutability": "view",
      "type": "function"
    },
    {
      "inputs": [],
      "name": "useCustomAdapterParams",
      "outputs": [
        {
          "internalType": "bool",
          "name": "",
          "type": "bool"
        }
      ],
      "stateMutability": "view",
      "type": "function"
    },
    {
      "inputs": [
        {
          "internalType": "bytes4",
          "name": "interfaceId",
          "type": "bytes4"
        }
      ],
      "name": "supportsInterface",
      "outputs": [
        {
          "internalType": "bool",
          "name": "",
          "type": "bool"
        }
      ],
      "stateMutability": "view",
      "type": "function"
    },
    {
      "inputs": [],
      "name": "token",
      "outputs": [
        {
          "internalType": "address",
          "name": "",
          "type": "address"
        }
      ],
      "stateMutability": "view",
      "type": "function"
    },
    {
      "inputs": [],
      "name": "circulatingSupply",
      "outputs": [
        {
          "internalType": "uint256",
          "name": "",
          "type": "uint256"
        }
      ],
      "stateMutability": "view",
      "type": "function"
    }
  ],
  "bytecode": "0x60a060405234620003ab5762003167803803806200001d81620003b0565b928339810190606081830312620003ab5780516001600160401b039190828111620003ab578362000050918301620003ec565b9060209384820151848111620003ab5760409162000070918401620003ec565b9101516001600160a01b03919082811690819003620003ab5760008054336001600160a01b03198216811783559194167f8be0079c531659141344cd1fd0a4f28419497f9722a3daafe3b4186f6b6457e08580a3608052825191848311620002b257600a54926001948585811c95168015620003a0575b888610146200038c578190601f9586811162000338575b508890868311600114620002d2578492620002c6575b5050600019600383901b1c191690851b17600a555b8151948511620002b257600b548481811c91168015620002a7575b8782101462000293578381116200024a575b5085928511600114620001e1579394508492919083620001d5575b50501b916000199060031b1c191617600b555b604051612d0890816200045f823960805181818161039b0152818161068a015281816107ae01528181610a45015281816116810152818161179101528181611d8c01528181612287015261247c0152f35b01519250388062000171565b600b815285812093958591601f198316915b888383106200022f575050501062000215575b505050811b01600b5562000184565b015160001960f88460031b161c1916905538808062000206565b858701518855909601959485019487935090810190620001f3565b600b82528682208480880160051c82019289891062000289575b0160051c019085905b8281106200027d57505062000156565b8381550185906200026d565b9250819262000264565b634e487b7160e01b82526022600452602482fd5b90607f169062000144565b634e487b7160e01b81526041600452602490fd5b01519050388062000114565b600a85528985208894509190601f198416865b8c82821062000321575050841162000307575b505050811b01600a5562000129565b015160001960f88460031b161c19169055388080620002f8565b8385015186558b97909501949384019301620002e5565b909150600a84528884208680850160051c8201928b861062000382575b918991869594930160051c01915b82811062000373575050620000fe565b86815585945089910162000363565b9250819262000355565b634e487b7160e01b83526022600452602483fd5b94607f1694620000e7565b600080fd5b6040519190601f01601f191682016001600160401b03811183821017620003d657604052565b634e487b7160e01b600052604160045260246000fd5b919080601f84011215620003ab5782516001600160401b038111620003d65760209062000422601f8201601f19168301620003b0565b92818452828287010111620003ab5760005b8181106200044a57508260009394955001015290565b85810183015184820184015282016200043456fe6080604052600436101561001257600080fd5b60003560e01c80621d3567146102dc57806301ffc9a7146102d757806306fdde03146102d257806307e0db17146102cd578063095ea7b3146102c85780630df37483146102c357806310ddb137146102be57806318160ddd1461026957806323b872dd146102b95780632a205e3d146102b4578063313ce567146102af57806339509351146102aa5780633d8b38f6146102a55780633f1f4fa4146102a057806342d65a8d1461029b57806344770515146102965780634c42899a1461029657806351905636146102915780635b8c41e61461028c57806366ad5c8a1461028757806370a0823114610282578063715018a61461027d5780637533d788146102785780638cfd8f5c146102735780638da5cb5b1461026e5780639358928b14610269578063950c8a741461026457806395d89b411461025f5780639f38369a1461025a578063a457c2d714610255578063a6c3d16514610250578063a9059cbb1461024b578063b353aaa714610246578063baf3292d14610241578063c44618341461023c578063cbed8b9c14610237578063d1deba1f14610232578063dd62ed3e1461022d578063df2a5b3b14610228578063eab45d9c14610223578063eb8d72b71461021e578063ed629c5c14610219578063f2fde38b14610214578063f5ecbdbc1461020f5763fc0c546a1461020a57600080fd5b611df6565b611d22565b611c5b565b611c38565b611aee565b611a8c565b61199f565b611955565b611829565b61173d565b611720565b6116b0565b61166b565b611641565b6114be565b611412565b61136f565b6112cb565b6112a2565b61080f565b611279565b61121e565b6111c7565b61107f565b611042565b610e96565b610dfd565b610ac8565b610aac565b610a2b565b6109f2565b610996565b61090e565b6108f2565b61086d565b61082d565b610785565b610746565b610711565b610661565b610581565b61049a565b610384565b61ffff8116036102ed57565b600080fd5b9181601f840112156102ed578235916001600160401b0383116102ed57602083818601950101116102ed57565b9060806003198301126102ed57600435610338816102e1565b916001600160401b03906024358281116102ed5781610359916004016102f2565b9390939260443581811681036102ed57926064359182116102ed57610380916004016102f2565b9091565b346102ed576103923661031f565b929493919291907f00000000000000000000000000000000000000000000000000000000000000006001600160a01b031633036104555761041861042092610426976104116103f76103f28a61ffff166000526001602052604060002090565b6111aa565b805190818414918261044b575b5081610428575b50611e11565b3691610d88565b923691610d88565b92611f94565b005b9050610435368486610d88565b602081519101209060208151910120143861040b565b1515915038610404565b60405162461bcd60e51b815260206004820152601e60248201527f4c7a4170703a20696e76616c696420656e64706f696e742063616c6c657200006044820152606490fd5b346102ed5760203660031901126102ed5760043563ffffffff60e01b81168091036102ed578060209115908115610509575b81156104de575b506040519015158152f35b630a72677560e11b8114915081156104f8575b50386104d3565b6301ffc9a760e01b149050386104f1565b6336372b0760e01b811491506104cc565b60009103126102ed57565b60005b8381106105385750506000910152565b8181015183820152602001610528565b9060209161056181518092818552858086019101610525565b601f01601f1916010190565b90602061057e928181520190610548565b90565b346102ed5760008060031936011261065e5760405181600a546105a3816110da565b8084529060019081811690811561063657506001146105dd575b6105d9846105cd81880382610d4c565b6040519182918261056d565b0390f35b600a8352602094507fc65a7bb8d6351c1cf70c95a316cc6a92839c986682d98bc35f958f4883f9d2a85b82841061062357505050816105d9936105cd92820101936105bd565b8054858501870152928501928101610607565b6105d996506105cd9450602092508593915060ff191682840152151560051b820101936105bd565b80fd5b346102ed576000602036600319011261065e57600435610680816102e1565b61068861281e565b7f00000000000000000000000000000000000000000000000000000000000000006001600160a01b0316908290823b156106fc57602461ffff918360405195869485936307e0db1760e01b85521660048401525af180156106f7576106eb575080f35b6106f490610d19565b80f35b611ed3565b5080fd5b6001600160a01b038116036102ed57565b346102ed5760403660031901126102ed5761073b60043561073181610700565b6024359033612b09565b602060405160018152f35b346102ed5760403660031901126102ed5761ffff600435610766816102e1565b61076e61281e565b166000526003602052602435604060002055600080f35b346102ed576000602036600319011261065e576004356107a4816102e1565b6107ac61281e565b7f00000000000000000000000000000000000000000000000000000000000000006001600160a01b0316908290823b156106fc57602461ffff918360405195869485936310ddb13760e01b85521660048401525af180156106f7576106eb575080f35b346102ed5760003660031901126102ed576020600954604051908152f35b346102ed5760603660031901126102ed5761073b60043561084d81610700565b60243561085981610700565b60443591610868833383612c22565b61295a565b346102ed5760a03660031901126102ed5760043561088a816102e1565b6001600160401b03906024358281116102ed576108ab9036906004016102f2565b916064359081151582036102ed576084359485116102ed576108d46108e09536906004016102f2565b94909360443592612221565b60408051928352602083019190915290f35b346102ed5760003660031901126102ed57602060405160128152f35b346102ed5760403660031901126102ed5760043561092b81610700565b336000526008602052610942816040600020612890565b5460243581018091116109595761073b9133612b09565b611f6f565b9060406003198301126102ed57600435610977816102e1565b91602435906001600160401b0382116102ed57610380916004016102f2565b346102ed57602061ffff6109e36109ac3661095e565b93909116600052600184526109ce6109d5604060002060405192838092611114565b0382610d4c565b848151910120923691610d88565b82815191012014604051908152f35b346102ed5760203660031901126102ed5761ffff600435610a12816102e1565b1660005260036020526020604060002054604051908152f35b346102ed57610a393661095e565b9190610a4361281e565b7f00000000000000000000000000000000000000000000000000000000000000006001600160a01b031691823b156102ed57604051928380926342d65a8d60e01b825281610a9a6000988997889460048501611f00565b03925af180156106f7576106eb575080f35b346102ed5760003660031901126102ed57602060405160008152f35b60e03660031901126102ed57600435610ae081610700565b60243590610aed826102e1565b6001600160401b036044358181116102ed57610b0d9036906004016102f2565b91909260843591610b1d83610700565b60a43593610b2a85610700565b60c4359182116102ed57610b52610b48610b5a9336906004016102f2565b9790923691610d88565b953691610d88565b9160ff60065416600014610c77576022835110610c33577f39a4c66499bcf4b56d79f0dde8ed7a9d4925a0df55825206b2b8531e202be0d093610c17610c2e9285610bdc602261ffff980151888c166000526002602052610bc8604060002060008052602052604060002090565b5490610bd582151561268e565b10156126d7565b610be8606435876125ba565b938492610c0f8b610c01604051968792602084016123a6565b03601f198101865285610d4c565b34938c612438565b60405193849360018060a01b0316971695836123c9565b0390a3005b60405162461bcd60e51b815260206004820152601c60248201527b4c7a4170703a20696e76616c69642061646170746572506172616d7360201b6044820152606490fd5b8251610caf577f39a4c66499bcf4b56d79f0dde8ed7a9d4925a0df55825206b2b8531e202be0d093610c17610c2e9261ffff95610bdc565b60405162461bcd60e51b815260206004820152602660248201527f4f4654436f72653a205f61646170746572506172616d73206d7573742062652060448201526532b6b83a3c9760d11b6064820152608490fd5b634e487b7160e01b600052604160045260246000fd5b6001600160401b038111610d2c57604052565b610d03565b60c081019081106001600160401b03821117610d2c57604052565b90601f801991011681019081106001600160401b03821117610d2c57604052565b6001600160401b038111610d2c57601f01601f191660200190565b929192610d9482610d6d565b91610da26040519384610d4c565b8294818452818301116102ed578281602093846000960137010152565b602090610dd9928260405194838680955193849201610525565b82019081520301902090565b906001600160401b0316600052602052604060002090565b346102ed5760603660031901126102ed57600435610e1a816102e1565b6001600160401b036024358181116102ed57366023820112156102ed57610e4b903690602481600401359101610d88565b9060443590811681036102ed57610e80610e8592610e7a6105d99561ffff166000526005602052604060002090565b90610dbf565b610de5565b546040519081529081906020820190565b346102ed57610ea43661031f565b915091303303610fee57610ec593610ebd913691610d88565b503691610d88565b60208082019061ffff918281511615600014610faa5783518401906060858303126102ed57610ef490516102e1565b6040840151906001600160401b0382116102ed576060918380610f1b930191870101611e6c565b930151926014815110610f6d57015160601c927fbf551ec93859b170f9b2141bd9298bf3f64322c6f7beb2543a0cb669834118bf9190610f5b8486612a1d565b60405193845216918060208101610c2e565b60405162461bcd60e51b8152600481018390526015602482015274746f416464726573735f6f75744f66426f756e647360581b6044820152606490fd5b60405162461bcd60e51b815260048101839052601c60248201527b4f4654436f72653a20756e6b6e6f776e207061636b6574207479706560201b6044820152606490fd5b60405162461bcd60e51b815260206004820152602660248201527f4e6f6e626c6f636b696e674c7a4170703a2063616c6c6572206d7573742062656044820152650204c7a4170760d41b6064820152608490fd5b346102ed5760203660031901126102ed5760043561105f81610700565b60018060a01b031660005260076020526020604060002054604051908152f35b346102ed5760008060031936011261065e5761109961281e565b80546001600160a01b03198116825581906001600160a01b03167f8be0079c531659141344cd1fd0a4f28419497f9722a3daafe3b4186f6b6457e08280a380f35b90600182811c9216801561110a575b60208310146110f457565b634e487b7160e01b600052602260045260246000fd5b91607f16916110e9565b9060009291805491611125836110da565b9182825260019384811690816000146111875750600114611147575b50505050565b90919394506000526020928360002092846000945b838610611173575050505001019038808080611141565b80548587018301529401938590820161115c565b9294505050602093945060ff191683830152151560051b01019038808080611141565b906111c56111be9260405193848092611114565b0383610d4c565b565b346102ed5760203660031901126102ed5761ffff6004356111e7816102e1565b1660005260016020526105d96109ce61120a604060002060405192838092611114565b604051918291602083526020830190610548565b346102ed5760403660031901126102ed576020611270600435611240816102e1565b61ffff60243591611250836102e1565b166000526002835260406000209061ffff16600052602052604060002090565b54604051908152f35b346102ed5760003660031901126102ed576000546040516001600160a01b039091168152602090f35b346102ed5760003660031901126102ed576004546040516001600160a01b039091168152602090f35b346102ed5760008060031936011261065e5760405181600b546112ed816110da565b808452906001908181169081156106365750600114611316576105d9846105cd81880382610d4c565b600b8352602094507f0175b7a638427703f0dbe7bb9bbf987a2551717b34e79f33b5b1008d1fa01db95b82841061135c57505050816105d9936105cd92820101936105bd565b8054858501870152928501928101611340565b346102ed5760203660031901126102ed5761ffff60043561138f816102e1565b1660005260016020526109ce6113af604060002060405192838092611114565b8051156113cd576105cd816113c76105d99351611f85565b9061279e565b60405162461bcd60e51b815260206004820152601d60248201527f4c7a4170703a206e6f20747275737465642070617468207265636f72640000006044820152606490fd5b346102ed5760403660031901126102ed5760043561142f81610700565b6024359033600052600860205261144a816040600020612890565b549180831061146b5761145f92039033612b09565b60405160018152602090f35b60405162461bcd60e51b815260206004820152602560248201527f45524332303a2064656372656173656420616c6c6f77616e63652062656c6f77604482015264207a65726f60d81b6064820152608490fd5b346102ed576114cc3661095e565b906114d561281e565b604051926020928083858701376115016034868381013060601b88820152036014810188520186610d4c565b60009361ffff8316855260019081815260408620918751916001600160401b038311610d2c5761153b8361153586546110da565b86611f1b565b80601f84116001146115ab57509180809261159a9695948a9b7f8c0400cfe2d1199b1a725c78960bcc2a344d869b80590d0f2bd005db15a572ce9b946115a0575b50501b916000199060031b1c19161790555b60405193849384611f00565b0390a180f35b01519250388061157c565b91939498601f1984166115c387600052602060002090565b938a905b82821061162a575050917f8c0400cfe2d1199b1a725c78960bcc2a344d869b80590d0f2bd005db15a572ce999a9593918561159a98969410611611575b505050811b01905561158e565b015160001960f88460031b161c19169055388080611604565b8088869782949787015181550196019401906115c7565b346102ed5760403660031901126102ed5761073b60043561166181610700565b602435903361295a565b346102ed5760003660031901126102ed576040517f00000000000000000000000000000000000000000000000000000000000000006001600160a01b03168152602090f35b346102ed5760203660031901126102ed577f5db758e995a17ec1ad84bdef7e8c3293a0bd6179bcce400dff5d4c3d87db726b60206004356116f081610700565b6116f861281e565b600480546001600160a01b0319166001600160a01b03929092169182179055604051908152a1005b346102ed5760003660031901126102ed5760206040516127108152f35b346102ed5760803660031901126102ed5760043561175a816102e1565b602435611766816102e1565b6064356001600160401b0381116102ed576117859036906004016102f2565b909261178f61281e565b7f00000000000000000000000000000000000000000000000000000000000000006001600160a01b031690813b156102ed5760008094611806604051978896879586946332fb62e760e21b865261ffff80921660048701521660248501526044356044850152608060648501526084840191611edf565b03925af180156106f75761181657005b8061182361042692610d19565b8061051a565b6118323661031f565b9161ffff8694929616600052600560205261186681604060002060206040518092878b833787820190815203019020610de5565b54918215611904577fc264d91f3adc5588250e1551f547752ca0cfa8f6b530d243b9f9f4cab10ea8e5966118ff946118f3916118ed9160006118e187610e808d896118db8f6118c78f6118ba368c8e610d88565b6020815191012014612138565b61ffff166000526005602052604060002090565b9161211f565b55610ebd36868c610d88565b866122fc565b6040519586958661218e565b0390a1005b60405162461bcd60e51b815260206004820152602360248201527f4e6f6e626c6f636b696e674c7a4170703a206e6f2073746f726564206d65737360448201526261676560e81b6064820152608490fd5b346102ed5760403660031901126102ed57602061127060043561197781610700565b6024359061198482610700565b6001600160a01b031660009081526008845260409020612890565b346102ed5760603660031901126102ed576004356119bc816102e1565b6024356119c8816102e1565b604435916119d461281e565b8215611a4f576118ff7f9d5c7c0b934da8fefa9c7760c98383778a12dfbfc0c3b3106518f43fb9508ac09361ffff8316600052600260205280611a298560406000209061ffff16600052602052604060002090565b556040519384938460409194939294606082019561ffff80921683521660208201520152565b60405162461bcd60e51b81526020600482015260156024820152744c7a4170703a20696e76616c6964206d696e47617360581b6044820152606490fd5b346102ed5760203660031901126102ed576004358015158091036102ed5760207f1584ad594a70cbe1e6515592e1272a987d922b097ead875069cebe8b40c004a491611ad661281e565b60ff196006541660ff821617600655604051908152a1005b346102ed57611afc3661095e565b9190611b0661281e565b60009161ffff81168352600160209080825260408520916001600160401b038711610d2c57611b3f87611b3985546110da565b85611f1b565b8590601f8811600114611ba6575091868087989361159a957ffa41487ad5d6728f0b19276fa1eddc16558578f5109fc39d2dc33c3230470dab9993611b9b575b501b906000198460031b1c191617905560405193849384611f00565b880135925038611b7f565b90601f198816611bbb85600052602060002090565b9288905b828210611c21575050918893917ffa41487ad5d6728f0b19276fa1eddc16558578f5109fc39d2dc33c3230470dab989961159a969410611c07575b505082811b01905561158e565b870135600019600386901b60f8161c191690553880611bfa565b808685968294968c01358155019501930190611bbf565b346102ed5760003660031901126102ed57602060ff600654166040519015158152f35b346102ed5760203660031901126102ed57600435611c7881610700565b611c8061281e565b6001600160a01b039081168015611cce57600080546001600160a01b03198116831782559092167f8be0079c531659141344cd1fd0a4f28419497f9722a3daafe3b4186f6b6457e08380a380f35b60405162461bcd60e51b815260206004820152602660248201527f4f776e61626c653a206e6577206f776e657220697320746865207a65726f206160448201526564647265737360d01b6064820152608490fd5b346102ed5760803660031901126102ed57600435611d3f816102e1565b60243590611d4c826102e1565b611d57604435610700565b604051633d7b2f6f60e21b815261ffff91821660048201529116602482015230604482015260648035908201526000816084817f00000000000000000000000000000000000000000000000000000000000000006001600160a01b03165afa80156106f7576105d991600091611dd5575b506040519182918261056d565b611df0913d8091833e611de88183610d4c565b810190611eae565b38611dc8565b346102ed5760003660031901126102ed576020604051308152f35b15611e1857565b60405162461bcd60e51b815260206004820152602660248201527f4c7a4170703a20696e76616c696420736f757263652073656e64696e6720636f6044820152651b9d1c9858dd60d21b6064820152608490fd5b81601f820112156102ed578051611e8281610d6d565b92611e906040519485610d4c565b818452602082840101116102ed5761057e9160208085019101610525565b906020828203126102ed5781516001600160401b0381116102ed5761057e9201611e6c565b6040513d6000823e3d90fd5b908060209392818452848401376000828201840152601f01601f1916010190565b60409061ffff61057e95931681528160208201520191611edf565b90601f8111611f2957505050565b600091825260208220906020601f850160051c83019410611f65575b601f0160051c01915b828110611f5a57505050565b818155600101611f4e565b9092508290611f45565b634e487b7160e01b600052601160045260246000fd5b60131981019190821161095957565b9290915a604051633356ae4560e11b6020820190815261ffff8716602483015260806044830152949161200082611ff2611fd160a4830187610548565b6001600160401b038816606484015282810360231901608484015288610548565b03601f198101845283610d4c565b600080916040519761201189610d31565b609689528260208a019560a036883751923090f1903d9060968211612058575b6000908288523e15612045575b5050505050565b61204e94612061565b388080808061203e565b60969150612031565b919361210c7fe183f33de2837795525b4792ca4cd60535bd77c53b7e7030060bfcf5734d6b0c9561211a939561ffff815160208301209616958660005260056020526120d3836120c560208b60406000208260405194838680955193849201610525565b820190815203019020610de5565b556001600160401b036120f8604051988998895260a060208a015260a0890190610548565b921660408701528582036060870152610548565b908382036080850152610548565b0390a1565b6020919283604051948593843782019081520301902090565b1561213f57565b60405162461bcd60e51b815260206004820152602160248201527f4e6f6e626c6f636b696e674c7a4170703a20696e76616c6964207061796c6f616044820152601960fa1b6064820152608490fd5b916121ba9060609461ffff6001600160401b039499989799168552608060208601526080850191611edf565b951660408201520152565b91908260409103126102ed576020825192015190565b919261057e9694959361ffff61220c9316845260018060a01b0316602084015260a0604084015260a0830190610548565b93151560608201526080818503910152611edf565b9194956122839193949796612267604097889761225389519889936000602086015260608c8601526080850191611edf565b90606083015203601f198101875286610d4c565b855163040a7bb160e41b815298899586953090600488016121db565b03817f00000000000000000000000000000000000000000000000000000000000000006001600160a01b03165afa9283156106f75760009182946122c8575b50509190565b6122ec93945080919250903d106122f5575b6122e48183610d4c565b8101906121c5565b919038806122c2565b503d6122da565b9060208082019061ffff918281511615600014610faa5783518401906060858303126102ed5761232c90516102e1565b6040840151906001600160401b0382116102ed576060918380612353930191870101611e6c565b930151926014815110610f6d57015160601c927fbf551ec93859b170f9b2141bd9298bf3f64322c6f7beb2543a0cb669834118bf91906123938486612a1d565b604051938452169180602081015b0390a3565b9291906123c460409160008652606060208701526060860190610548565b930152565b9291906123c4602091604086526040860190610548565b9261240561057e97959361ffff6124139416865260c0602087015260c0860190610548565b908482036040860152610548565b6001600160a01b0391821660608401529316608082015280830360a090910152610548565b946124619193929561ffff81166000526001602052612468604060002060405194858092611114565b0384610d4c565b8251156124ed5761247a85518261254b565b7f00000000000000000000000000000000000000000000000000000000000000006001600160a01b031693843b156102ed576000966124cf91604051998a988997889662c5803160e81b8852600488016123e0565b03925af180156106f7576124e05750565b806118236111c592610d19565b60405162461bcd60e51b815260206004820152603060248201527f4c7a4170703a2064657374696e6174696f6e20636861696e206973206e6f742060448201526f61207472757374656420736f7572636560801b6064820152608490fd5b61ffff1660005260036020526040600020549081156125b0575b1161256c57565b606460405162461bcd60e51b815260206004820152602060248201527f4c7a4170703a207061796c6f61642073697a6520697320746f6f206c617267656044820152fd5b6127109150612565565b6001600160a01b038116338103612670575b801561262157816125f6846125e2600095612876565b546125ef82821015612ab2565b0391612876565b556126048360095403600955565b604051838152600080516020612cb383398151915290602090a390565b60405162461bcd60e51b815260206004820152602160248201527f45524332303a206275726e2066726f6d20746865207a65726f206164647265736044820152607360f81b6064820152608490fd5b61267b833384612c22565b6125cc565b90601f820180921161095957565b1561269557565b60405162461bcd60e51b815260206004820152601a602482015279131e905c1c0e881b5a5b91d85cd31a5b5a5d081b9bdd081cd95d60321b6044820152606490fd5b156126de57565b60405162461bcd60e51b815260206004820152601b60248201527a4c7a4170703a20676173206c696d697420697320746f6f206c6f7760281b6044820152606490fd5b1561272857565b60405162461bcd60e51b815260206004820152600e60248201526d736c6963655f6f766572666c6f7760901b6044820152606490fd5b1561276557565b60405162461bcd60e51b8152602060048201526011602482015270736c6963655f6f75744f66426f756e647360781b6044820152606490fd5b6127b2826127ab81612680565b1015612721565b6127bf828251101561275e565b816127d7575050604051600081526020810160405290565b60405191601f811691821560051b808486010193838501920101905b80841061280b5750508252601f01601f191660405290565b90928351815260208091019301906127f3565b6000546001600160a01b0316330361283257565b606460405162461bcd60e51b815260206004820152602060248201527f4f776e61626c653a2063616c6c6572206973206e6f7420746865206f776e65726044820152fd5b6001600160a01b0316600090815260076020526040902090565b9060018060a01b0316600052602052604060002090565b156128ae57565b60405162461bcd60e51b815260206004820152602360248201527f45524332303a207472616e7366657220746f20746865207a65726f206164647260448201526265737360e81b6064820152608490fd5b1561290657565b60405162461bcd60e51b815260206004820152602660248201527f45524332303a207472616e7366657220616d6f756e7420657863656564732062604482015265616c616e636560d01b6064820152608490fd5b916001600160a01b0380841692909183156129ca576129b482600080516020612cb3833981519152946123a19416966129948815156128a7565b6129ae846129a183612876565b546125ef828210156128ff565b55612876565b8054820190556040519081529081906020820190565b60405162461bcd60e51b815260206004820152602560248201527f45524332303a207472616e736665722066726f6d20746865207a65726f206164604482015264647265737360d81b6064820152608490fd5b6001600160a01b03811691908215612a6d576009549082820180921161095957600092612a5e602092600080516020612cb383398151915294600955612876565b818154019055604051908152a3565b60405162461bcd60e51b815260206004820152601f60248201527f45524332303a206d696e7420746f20746865207a65726f2061646472657373006044820152606490fd5b15612ab957565b60405162461bcd60e51b815260206004820152602260248201527f45524332303a206275726e20616d6f756e7420657863656564732062616c616e604482015261636560f01b6064820152608490fd5b6001600160a01b038082169291908315612bd1578216938415612b815780612b707f8c5be1e5ebec7d5bd14f71427d1e84f3dd0314c0f7b2291e5b200ac8c7c3b92594612b6b6123a19560018060a01b03166000526008602052604060002090565b612890565b556040519081529081906020820190565b60405162461bcd60e51b815260206004820152602260248201527f45524332303a20617070726f766520746f20746865207a65726f206164647265604482015261737360f01b6064820152608490fd5b60405162461bcd60e51b8152602060048201526024808201527f45524332303a20617070726f76652066726f6d20746865207a65726f206164646044820152637265737360e01b6064820152608490fd5b9060018060a01b0382166000526008602052612c42816040600020612890565b549260018401612c525750505050565b808410612c6d57612c64930391612b09565b38808080611141565b60405162461bcd60e51b815260206004820152601d60248201527f45524332303a20696e73756666696369656e7420616c6c6f77616e63650000006044820152606490fdfeddf252ad1be2c89b69c2b068fc378daa952ba7f163c4a11628f55a4df523b3efa264697066735822122036d2523b603c9b7f5caf451635c76d058dde5d9313c011d18901a8c67ba3f81e64736f6c63430008130033",
  "immutableReferences": {
    "211": [
      {
        "length": 32,
        "start": 923
      },
      {
        "length": 32,
        "start": 1674
      },
      {
        "length": 32,
        "start": 1966
      },
      {
        "length": 32,
        "start": 2629
      },
      {
        "length": 32,
        "start": 5761
      },
      {
        "length": 32,
        "start": 6033
      },
      {
        "length": 32,
        "start": 7564
      },
      {
        "length": 32,
        "start": 8839
      },
      {
        "length": 32,
        "start": 9340
      }
    ]
  },
  "source": "// SPDX-License-Identifier: MIT\n\npragma solidity ^0.8.0;\n\nimport \"@openzeppelin/contracts/token/ERC20/ERC20.sol\";\nimport \"@openzeppelin/contracts/utils/introspection/IERC165.sol\";\nimport \"./IOFT.sol\";\nimport \"./OFTCore.sol\";\n\n// override decimal() function is needed\ncontract OFT is OFTCore, ERC20, IOFT {\n    constructor(string memory _name, string memory _symbol, address _lzEndpoint) ERC20(_name, _symbol) OFTCore(_lzEndpoint) {}\n\n    function supportsInterface(bytes4 interfaceId) public view virtual override(OFTCore, IERC165) returns (bool) {\n        return interfaceId == type(IOFT).interfaceId || interfaceId == type(IERC20).interfaceId || super.supportsInterface(interfaceId);\n    }\n\n    function token() public view virtual override returns (address) {\n        return address(this);\n    }\n\n    function circulatingSupply() public view virtual override returns (uint) {\n        return totalSupply();\n    }\n\n    function _debitFrom(address _from, uint16, bytes memory, uint _amount) internal virtual override returns(uint) {\n        address spender = _msgSender();\n        if (_from != spender) _spendAllowance(_from, spender, _amount);\n        _burn(_from, _amount);\n        return _amount;\n    }\n\n    function _creditTo(uint16, address _toAddress, uint _amount) internal virtual override returns(uint) {\n        _mint(_toAddress, _amount);\n        return _amount;\n    }\n}\n",
  "sourcePath": "@layerzerolabs/solidity-examples/contracts/token/oft/OFT.sol",
  "compiler": {
    "name": "solc",
    "version": "0.8.19+commit.7dd6d404.Emscripten.clang"
  },
  "schemaVersion": "3.4.16",
  "updatedAt": "2024-06-07T05:41:32.592Z",
  "devdoc": {
    "events": {
      "Approval(address,address,uint256)": {
        "details": "Emitted when the allowance of a `spender` for an `owner` is set by a call to {approve}. `value` is the new allowance."
      },
      "ReceiveFromChain(uint16,address,uint256)": {
        "details": "Emitted when `_amount` tokens are received from `_srcChainId` into the `_toAddress` on the local chain. `_nonce` is the inbound nonce."
      },
      "SendToChain(uint16,address,bytes,uint256)": {
        "details": "Emitted when `_amount` tokens are moved from the `_sender` to (`_dstChainId`, `_toAddress`) `_nonce` is the outbound nonce"
      },
      "Transfer(address,address,uint256)": {
        "details": "Emitted when `value` tokens are moved from one account (`from`) to another (`to`). Note that `value` may be zero."
      }
    },
    "kind": "dev",
    "methods": {
      "allowance(address,address)": {
        "details": "See {IERC20-allowance}."
      },
      "approve(address,uint256)": {
        "details": "See {IERC20-approve}. NOTE: If `amount` is the maximum `uint256`, the allowance is not updated on `transferFrom`. This is semantically equivalent to an infinite approval. Requirements: - `spender` cannot be the zero address."
      },
      "balanceOf(address)": {
        "details": "See {IERC20-balanceOf}."
      },
      "circulatingSupply()": {
        "details": "returns the circulating amount of tokens on current chain"
      },
      "decimals()": {
        "details": "Returns the number of decimals used to get its user representation. For example, if `decimals` equals `2`, a balance of `505` tokens should be displayed to a user as `5.05` (`505 / 10 ** 2`). Tokens usually opt for a value of 18, imitating the relationship between Ether and Wei. This is the default value returned by this function, unless it's overridden. NOTE: This information is only used for _display_ purposes: it in no way affects any of the arithmetic of the contract, including {IERC20-balanceOf} and {IERC20-transfer}."
      },
      "decreaseAllowance(address,uint256)": {
        "details": "Atomically decreases the allowance granted to `spender` by the caller. This is an alternative to {approve} that can be used as a mitigation for problems described in {IERC20-approve}. Emits an {Approval} event indicating the updated allowance. Requirements: - `spender` cannot be the zero address. - `spender` must have allowance for the caller of at least `subtractedValue`."
      },
      "estimateSendFee(uint16,bytes,uint256,bool,bytes)": {
        "details": "estimate send token `_tokenId` to (`_dstChainId`, `_toAddress`) _dstChainId - L0 defined chain id to send tokens too _toAddress - dynamic bytes array which contains the address to whom you are sending tokens to on the dstChain _amount - amount of the tokens to transfer _useZro - indicates to use zro to pay L0 fees _adapterParam - flexible bytes array to indicate messaging adapter services in L0"
      },
      "increaseAllowance(address,uint256)": {
        "details": "Atomically increases the allowance granted to `spender` by the caller. This is an alternative to {approve} that can be used as a mitigation for problems described in {IERC20-approve}. Emits an {Approval} event indicating the updated allowance. Requirements: - `spender` cannot be the zero address."
      },
      "name()": {
        "details": "Returns the name of the token."
      },
      "owner()": {
        "details": "Returns the address of the current owner."
      },
      "renounceOwnership()": {
        "details": "Leaves the contract without owner. It will not be possible to call `onlyOwner` functions. Can only be called by the current owner. NOTE: Renouncing ownership will leave the contract without an owner, thereby disabling any functionality that is only available to the owner."
      },
      "sendFrom(address,uint16,bytes,uint256,address,address,bytes)": {
        "details": "send `_amount` amount of token to (`_dstChainId`, `_toAddress`) from `_from` `_from` the owner of token `_dstChainId` the destination chain identifier `_toAddress` can be any size depending on the `dstChainId`. `_amount` the quantity of tokens in wei `_refundAddress` the address LayerZero refunds if too much message fee is sent `_zroPaymentAddress` set to address(0x0) if not paying in ZRO (LayerZero Token) `_adapterParams` is a flexible bytes array to indicate messaging adapter services"
      },
      "symbol()": {
        "details": "Returns the symbol of the token, usually a shorter version of the name."
      },
      "token()": {
        "details": "returns the address of the ERC20 token"
      },
      "totalSupply()": {
        "details": "See {IERC20-totalSupply}."
      },
      "transfer(address,uint256)": {
        "details": "See {IERC20-transfer}. Requirements: - `to` cannot be the zero address. - the caller must have a balance of at least `amount`."
      },
      "transferFrom(address,address,uint256)": {
        "details": "See {IERC20-transferFrom}. Emits an {Approval} event indicating the updated allowance. This is not required by the EIP. See the note at the beginning of {ERC20}. NOTE: Does not update the allowance if the current allowance is the maximum `uint256`. Requirements: - `from` and `to` cannot be the zero address. - `from` must have a balance of at least `amount`. - the caller must have allowance for ``from``'s tokens of at least `amount`."
      },
      "transferOwnership(address)": {
        "details": "Transfers ownership of the contract to a new account (`newOwner`). Can only be called by the current owner."
      }
    },
    "version": 1
  },
  "userdoc": {
    "kind": "user",
    "methods": {},
    "version": 1
  }
}