{
  "contractName": "Proposal",
  "abi": [
    {
      "inputs": [
        {
          "internalType": "address payable",
          "name": "_stoneVault",
          "type": "address"
        }
      ],
      "stateMutability": "nonpayable",
      "type": "constructor"
    },
    {
      "anonymous": false,
      "inputs": [
        {
          "indexed": true,
          "internalType": "address",
          "name": "targetAddress",
          "type": "address"
        },
        {
          "indexed": false,
          "internalType": "bytes",
          "name": "data",
          "type": "bytes"
        }
      ],
      "name": "Invoked",
      "type": "event"
    },
    {
      "anonymous": false,
      "inputs": [
        {
          "indexed": false,
          "internalType": "address",
          "name": "proposal",
          "type": "address"
        }
      ],
      "name": "ProposalExecuted",
      "type": "event"
    },
    {
      "anonymous": false,
      "inputs": [
        {
          "indexed": false,
          "internalType": "address",
          "name": "proposal",
          "type": "address"
        }
      ],
      "name": "ProposalRevoked",
      "type": "event"
    },
    {
      "anonymous": false,
      "inputs": [
        {
          "indexed": false,
          "internalType": "address",
          "name": "proposal",
          "type": "address"
        },
        {
          "indexed": false,
          "internalType": "uint256",
          "name": "poll",
          "type": "uint256"
        }
      ],
      "name": "RetrieveToken",
      "type": "event"
    },
    {
      "anonymous": false,
      "inputs": [
        {
          "indexed": true,
          "internalType": "bytes32",
          "name": "role",
          "type": "bytes32"
        },
        {
          "indexed": true,
          "internalType": "bytes32",
          "name": "previousAdminRole",
          "type": "bytes32"
        },
        {
          "indexed": true,
          "internalType": "bytes32",
          "name": "newAdminRole",
          "type": "bytes32"
        }
      ],
      "name": "RoleAdminChanged",
      "type": "event"
    },
    {
      "anonymous": false,
      "inputs": [
        {
          "indexed": true,
          "internalType": "bytes32",
          "name": "role",
          "type": "bytes32"
        },
        {
          "indexed": true,
          "internalType": "address",
          "name": "account",
          "type": "address"
        },
        {
          "indexed": true,
          "internalType": "address",
          "name": "sender",
          "type": "address"
        }
      ],
      "name": "RoleGranted",
      "type": "event"
    },
    {
      "anonymous": false,
      "inputs": [
        {
          "indexed": true,
          "internalType": "bytes32",
          "name": "role",
          "type": "bytes32"
        },
        {
          "indexed": true,
          "internalType": "address",
          "name": "account",
          "type": "address"
        },
        {
          "indexed": true,
          "internalType": "address",
          "name": "sender",
          "type": "address"
        }
      ],
      "name": "RoleRevoked",
      "type": "event"
    },
    {
      "anonymous": false,
      "inputs": [
        {
          "indexed": false,
          "internalType": "uint256",
          "name": "period",
          "type": "uint256"
        }
      ],
      "name": "SetVotePeriod",
      "type": "event"
    },
    {
      "anonymous": false,
      "inputs": [
        {
          "indexed": false,
          "internalType": "address",
          "name": "proposal",
          "type": "address"
        },
        {
          "indexed": false,
          "internalType": "uint256",
          "name": "poll",
          "type": "uint256"
        },
        {
          "indexed": false,
          "internalType": "bool",
          "name": "flag",
          "type": "bool"
        }
      ],
      "name": "VoteFor",
      "type": "event"
    },
    {
      "inputs": [],
      "name": "DEFAULT_ADMIN_ROLE",
      "outputs": [
        {
          "internalType": "bytes32",
          "name": "",
          "type": "bytes32"
        }
      ],
      "stateMutability": "view",
      "type": "function"
    },
    {
      "inputs": [],
      "name": "EXECUTE_ROLE",
      "outputs": [
        {
          "internalType": "bytes32",
          "name": "",
          "type": "bytes32"
        }
      ],
      "stateMutability": "view",
      "type": "function"
    },
    {
      "inputs": [],
      "name": "PROPOSE_ROLE",
      "outputs": [
        {
          "internalType": "bytes32",
          "name": "",
          "type": "bytes32"
        }
      ],
      "stateMutability": "view",
      "type": "function"
    },
    {
      "inputs": [],
      "name": "REVOKE_ROLE",
      "outputs": [
        {
          "internalType": "bytes32",
          "name": "",
          "type": "bytes32"
        }
      ],
      "stateMutability": "view",
      "type": "function"
    },
    {
      "inputs": [],
      "name": "SET_PARAM_ROLE",
      "outputs": [
        {
          "internalType": "bytes32",
          "name": "",
          "type": "bytes32"
        }
      ],
      "stateMutability": "view",
      "type": "function"
    },
    {
      "inputs": [
        {
          "internalType": "bytes32",
          "name": "role",
          "type": "bytes32"
        }
      ],
      "name": "getRoleAdmin",
      "outputs": [
        {
          "internalType": "bytes32",
          "name": "",
          "type": "bytes32"
        }
      ],
      "stateMutability": "view",
      "type": "function"
    },
    {
      "inputs": [
        {
          "internalType": "bytes32",
          "name": "role",
          "type": "bytes32"
        },
        {
          "internalType": "uint256",
          "name": "index",
          "type": "uint256"
        }
      ],
      "name": "getRoleMember",
      "outputs": [
        {
          "internalType": "address",
          "name": "",
          "type": "address"
        }
      ],
      "stateMutability": "view",
      "type": "function"
    },
    {
      "inputs": [
        {
          "internalType": "bytes32",
          "name": "role",
          "type": "bytes32"
        }
      ],
      "name": "getRoleMemberCount",
      "outputs": [
        {
          "internalType": "uint256",
          "name": "",
          "type": "uint256"
        }
      ],
      "stateMutability": "view",
      "type": "function"
    },
    {
      "inputs": [
        {
          "internalType": "bytes32",
          "name": "role",
          "type": "bytes32"
        },
        {
          "internalType": "address",
          "name": "account",
          "type": "address"
        }
      ],
      "name": "grantRole",
      "outputs": [],
      "stateMutability": "nonpayable",
      "type": "function"
    },
    {
      "inputs": [
        {
          "internalType": "bytes32",
          "name": "role",
          "type": "bytes32"
        },
        {
          "internalType": "address",
          "name": "account",
          "type": "address"
        }
      ],
      "name": "hasRole",
      "outputs": [
        {
          "internalType": "bool",
          "name": "",
          "type": "bool"
        }
      ],
      "stateMutability": "view",
      "type": "function"
    },
    {
      "inputs": [],
      "name": "minVotePeriod",
      "outputs": [
        {
          "internalType": "uint256",
          "name": "",
          "type": "uint256"
        }
      ],
      "stateMutability": "view",
      "type": "function"
    },
    {
      "inputs": [
        {
          "internalType": "address",
          "name": "",
          "type": "address"
        },
        {
          "internalType": "address",
          "name": "",
          "type": "address"
        }
      ],
      "name": "polls",
      "outputs": [
        {
          "internalType": "uint256",
          "name": "",
          "type": "uint256"
        }
      ],
      "stateMutability": "view",
      "type": "function"
    },
    {
      "inputs": [
        {
          "internalType": "address",
          "name": "",
          "type": "address"
        }
      ],
      "name": "proposalDetails",
      "outputs": [
        {
          "internalType": "address",
          "name": "proposer",
          "type": "address"
        },
        {
          "internalType": "uint256",
          "name": "deadline",
          "type": "uint256"
        },
        {
          "internalType": "uint256",
          "name": "support",
          "type": "uint256"
        },
        {
          "internalType": "uint256",
          "name": "oppose",
          "type": "uint256"
        },
        {
          "internalType": "uint256",
          "name": "executedTime",
          "type": "uint256"
        },
        {
          "internalType": "bool",
          "name": "isRevoked",
          "type": "bool"
        },
        {
          "internalType": "bytes",
          "name": "data",
          "type": "bytes"
        }
      ],
      "stateMutability": "view",
      "type": "function"
    },
    {
      "inputs": [
        {
          "internalType": "bytes32",
          "name": "role",
          "type": "bytes32"
        },
        {
          "internalType": "address",
          "name": "account",
          "type": "address"
        }
      ],
      "name": "renounceRole",
      "outputs": [],
      "stateMutability": "nonpayable",
      "type": "function"
    },
    {
      "inputs": [
        {
          "internalType": "bytes32",
          "name": "role",
          "type": "bytes32"
        },
        {
          "internalType": "address",
          "name": "account",
          "type": "address"
        }
      ],
      "name": "revokeRole",
      "outputs": [],
      "stateMutability": "nonpayable",
      "type": "function"
    },
    {
      "inputs": [],
      "name": "stoneToken",
      "outputs": [
        {
          "internalType": "address",
          "name": "",
          "type": "address"
        }
      ],
      "stateMutability": "view",
      "type": "function"
    },
    {
      "inputs": [],
      "name": "stoneVault",
      "outputs": [
        {
          "internalType": "address",
          "name": "",
          "type": "address"
        }
      ],
      "stateMutability": "view",
      "type": "function"
    },
    {
      "inputs": [
        {
          "internalType": "bytes4",
          "name": "interfaceId",
          "type": "bytes4"
        }
      ],
      "name": "supportsInterface",
      "outputs": [
        {
          "internalType": "bool",
          "name": "",
          "type": "bool"
        }
      ],
      "stateMutability": "view",
      "type": "function"
    },
    {
      "inputs": [],
      "name": "votePeriod",
      "outputs": [
        {
          "internalType": "uint256",
          "name": "",
          "type": "uint256"
        }
      ],
      "stateMutability": "view",
      "type": "function"
    },
    {
      "inputs": [
        {
          "internalType": "bytes",
          "name": "_data",
          "type": "bytes"
        }
      ],
      "name": "propose",
      "outputs": [],
      "stateMutability": "nonpayable",
      "type": "function"
    },
    {
      "inputs": [
        {
          "internalType": "address",
          "name": "_proposal",
          "type": "address"
        }
      ],
      "name": "revokePeoposal",
      "outputs": [],
      "stateMutability": "nonpayable",
      "type": "function"
    },
    {
      "inputs": [
        {
          "internalType": "address",
          "name": "_proposal",
          "type": "address"
        },
        {
          "internalType": "uint256",
          "name": "_poll",
          "type": "uint256"
        },
        {
          "internalType": "bool",
          "name": "_flag",
          "type": "bool"
        }
      ],
      "name": "voteFor",
      "outputs": [],
      "stateMutability": "nonpayable",
      "type": "function"
    },
    {
      "inputs": [
        {
          "internalType": "address",
          "name": "_proposal",
          "type": "address"
        }
      ],
      "name": "retrieveTokenFor",
      "outputs": [],
      "stateMutability": "nonpayable",
      "type": "function"
    },
    {
      "inputs": [],
      "name": "retrieveAllToken",
      "outputs": [],
      "stateMutability": "nonpayable",
      "type": "function"
    },
    {
      "inputs": [
        {
          "internalType": "address",
          "name": "_proposal",
          "type": "address"
        }
      ],
      "name": "execProposal",
      "outputs": [],
      "stateMutability": "nonpayable",
      "type": "function"
    },
    {
      "inputs": [
        {
          "internalType": "uint256",
          "name": "_period",
          "type": "uint256"
        }
      ],
      "name": "setVotePeriod",
      "outputs": [],
      "stateMutability": "nonpayable",
      "type": "function"
    },
    {
      "inputs": [
        {
          "internalType": "uint256",
          "name": "_i",
          "type": "uint256"
        }
      ],
      "name": "getProposal",
      "outputs": [
        {
          "internalType": "address",
          "name": "addr",
          "type": "address"
        }
      ],
      "stateMutability": "view",
      "type": "function"
    },
    {
      "inputs": [],
      "name": "getProposals",
      "outputs": [
        {
          "internalType": "address[]",
          "name": "addrs",
          "type": "address[]"
        }
      ],
      "stateMutability": "view",
      "type": "function"
    },
    {
      "inputs": [
        {
          "internalType": "address",
          "name": "_proposal",
          "type": "address"
        }
      ],
      "name": "canVote",
      "outputs": [
        {
          "internalType": "bool",
          "name": "result",
          "type": "bool"
        }
      ],
      "stateMutability": "view",
      "type": "function"
    },
    {
      "inputs": [
        {
          "internalType": "address",
          "name": "_proposal",
          "type": "address"
        }
      ],
      "name": "canExec",
      "outputs": [
        {
          "internalType": "bool",
          "name": "result",
          "type": "bool"
        }
      ],
      "stateMutability": "view",
      "type": "function"
    }
  ],
  "bytecode": "0x60c060409080825234620001c557806200238c8038038091620000238285620001c9565b8339602092839181010312620001c557516001600160a01b03919082811690819003620001c5578160049162093a806002558060a0528551928380926303aa30b960e11b82525afa8015620001bb5782915f9162000199575b506004855180958193630167eb8560e01b8352165afa80156200018f576001925f916200015b575b506080525f80525f8152825f20335f52815260ff835f2054161562000113575b5f805252620000d633825f2062000222565b50516120de9081620002ae82396080518181816102a90152818161043e01528181610fca0152611113015260a051818181610f1a0152611fd90152f35b5f80525f8152825f20335f528152825f208260ff1982541617905533335f7f2f8788117e7eff1d82e926ec794901d17c78024a50270940304540a733656f0d8180a4620000c4565b620001809150823d841162000187575b620001778183620001c9565b81019062000201565b5f620000a4565b503d6200016b565b83513d5f823e3d90fd5b620001b49150823d84116200018757620001778183620001c9565b5f6200007c565b84513d5f823e3d90fd5b5f80fd5b601f909101601f19168101906001600160401b03821190821017620001ed57604052565b634e487b7160e01b5f52604160045260245ffd5b90816020910312620001c557516001600160a01b0381168103620001c55790565b9190600183015f90828252806020526040822054155f14620002a757845494680100000000000000008610156200029357600186018082558610156200027f57836040949596828552602085200155549382526020522055600190565b634e487b7160e01b83526032600452602483fd5b634e487b7160e01b83526041600452602483fd5b5092505056fe60806040526004361015610011575f80fd5b5f3560e01c806301ffc9a7146101f4578063248a9ca3146101ef5780632a042f40146101ea5780632f2ff15d146101e557806331547ea6146101e057806336568abe146101db57806337558af5146101d65780633b23c36d146101d157806341e937ec146101cc5780634d6561c1146101c7578063528e61ae146101c25780635fa5e4e6146101bd57806362564c48146101b85780636258bfd3146101b357806367b11630146101ae5780638b38b514146101a95780639010d07c146101a457806391d148541461019f578063a217fddf1461019a578063a781358714610195578063adfaa72e14610190578063afda35cb1461018b578063b95b54b014610186578063ba93ec2914610181578063c38862f11461017c578063c7f758a814610177578063ca15c87314610172578063d547741f1461016d578063d8e27bd0146101685763dc56171814610163575f80fd5b6110eb565b6110b1565b611075565b61104b565b61102d565b610f49565b610f05565b610e50565b610e2d565b610e00565b610de3565b610dc9565b610d8c565b610d47565b610d20565b610bd4565b610bad565b610b07565b610a8a565b610a3f565b610a22565b610953565b6108ba565b6105b9565b610525565b6103da565b610304565b610294565b610268565b346102645760203660031901126102645760043563ffffffff60e01b811680910361026457602090635a05180f60e01b8114908115610239575b506040519015158152f35b637965db0b60e01b811491508115610253575b505f61022e565b6301ffc9a760e01b1490505f61024c565b5f80fd5b34610264576020366003190112610264576004355f525f6020526020600160405f200154604051908152f35b34610264575f366003190112610264576040517f00000000000000000000000000000000000000000000000000000000000000006001600160a01b03168152602090f35b602435906001600160a01b038216820361026457565b600435906001600160a01b038216820361026457565b346102645760403660031901126102645760043561036f6103236102d8565b61036a5f938085528460205261033f60016040872001546113fb565b8085528460205260ff6103558460408820610716565b541615610373575f52600160205260405f2090565b6117f9565b5080f35b808552846020526103878360408720610716565b805460ff19166001179055336001600160a01b038416827f2f8788117e7eff1d82e926ec794901d17c78024a50270940304540a733656f0d8880a45f52600160205260405f2090565b8015150361026457565b34610264576060366003190112610264576103f36102ee565b60243560443591610403836103d0565b61040c81611e58565b156104f2576104d87fdf4863bb3c37bd8d486548a8abd33fb356c8536cbb1111b676b1810d64447544936104628430337f0000000000000000000000000000000000000000000000000000000000000000611c81565b61046b836106e4565b81156104dd5760020161047f85825461156f565b90555b61049e8461049885610493336106fd565b610716565b5461156f565b6104ab84610493336106fd565b55604080516001600160a01b03909416845260208401949094521515928201929092529081906060820190565b0390a1005b6003016104eb85825461156f565b9055610482565b60405162461bcd60e51b815260206004820152600b60248201526a63616e6e6f7420766f746560a81b6044820152606490fd5b346102645760403660031901126102645761053e6102d8565b336001600160a01b0382160361055c5761055a906004356114ca565b005b60405162461bcd60e51b815260206004820152602f60248201527f416363657373436f6e74726f6c3a2063616e206f6e6c792072656e6f756e636560448201526e103937b632b9903337b91039b2b63360891b6064820152608490fd5b34610264576020366003190112610264576001600160401b0360043581811161026457366023820112156102645780600401359182116102645760248101906024833692010111610264576106e190610610611319565b6106dc61061f6002544261156f565b916106d261067461066861066288604051610652816106448b60208301958b87611a2b565b03601f1981018352826107b2565b5190206001600160601b03191690565b60601c90565b6001600160a01b031690565b9161069f6001600160a01b03841661069a61069561069183611932565b1590565b611a3b565b611856565b506106a8611581565b3381529460208601525f968760408701528760608701528760808701528760a08701523691611a79565b60c08401526106e4565b611bcd565b80f35b6001600160a01b03165f90815260056020526040902090565b6001600160a01b03165f90815260066020526040902090565b9060018060a01b03165f5260205260405f2090565b90600182811c92168015610759575b602083101461074557565b634e487b7160e01b5f52602260045260245ffd5b91607f169161073a565b634e487b7160e01b5f52604160045260245ffd5b60e081019081106001600160401b0382111761079257604052565b610763565b60a081019081106001600160401b0382111761079257604052565b90601f801991011681019081106001600160401b0382111761079257604052565b9060405191825f82546107e58161072b565b9081845260209460019182811690815f146108525750600114610814575b505050610812925003836107b2565b565b5f90815285812095935091905b81831061083a57505061081293508201015f8080610803565b85548884018501529485019487945091830191610821565b9250505061081294925060ff191682840152151560051b8201015f8080610803565b5f5b8381106108855750505f910152565b8181015183820152602001610876565b906020916108ae81518092818552858086019101610874565b601f01601f1916010190565b34610264576020366003190112610264576001600160a01b03806108dc6102ee565b165f52600560205260405f209081541661094f600183015492600281015490600381015460048201549061091a600660ff60058601541694016107d3565b9360405197889788526020880152604087015260608601526080850152151560a084015260e060c084015260e0830190610895565b0390f35b346102645760203660031901126102645761096c6102ee565b6109746111f3565b61097d81611f1b565b156109ef576104d87f077e00e56e5d36ae097a95cb003427416253dd9bb4491393d3eb4cf8f63fd41e9160018060a01b0381165f5260056020526109d46109cf600660405f20426004820155016107d3565b611fd6565b506040516001600160a01b0390911681529081906020820190565b60405162461bcd60e51b815260206004820152600b60248201526a63616e6e6f74206578656360a81b6044820152606490fd5b34610264575f366003190112610264576020604051620151808152f35b34610264576040366003190112610264576020610a81610a5d6102ee565b610a656102d8565b6001600160a01b039091165f9081526006845260409020610716565b54604051908152f35b34610264575f3660031901126102645760206040517fcebf517aa4440d1d125e0355aae64401211d0848a23c02cc5d29a14822580ba48152f35b602090816040818301928281528551809452019301915f5b828110610aea575050505090565b83516001600160a01b031685529381019392810192600101610adc565b34610264575f3660031901126102645760038054610b2481611e41565b90610b3260405192836107b2565b808252610b3e81611e41565b60209390601f190136848601375f5b828110610b62576040518061094f8682610ac4565b610b6b8161180c565b9054855191841b1c6001600160a01b03169190811015610ba8576001600160a01b03909116600582901b8501860152610ba390611e33565b610b4d565b6115d4565b34610264575f3660031901126102645760206040515f805160206120898339815191528152f35b346102645760208060031936011261026457600435905f805160206120898339815191525f525f815260ff610c0c3360405f20610716565b541615610c8b57620151808210610c4c57817f9d70b337ea85048e06183986a746d19b4ac6d2f9d9415cdc6bf221b1aefaf0bd92600255604051908152a1005b6064906040519062461bcd60e51b8252600482015260186024820152771d1bdbc81cda1bdc9d08199bdc8818481c1c9bdc1bdcd85b60421b6044820152fd5b610ce1610d04610d1c92610644610ca13361166d565b6048610cab6116fd565b91604051968576020b1b1b2b9b9a1b7b73a3937b61d1030b1b1b7bab73a1604d1b89978801528251928391603789019101610874565b84017001034b99036b4b9b9b4b733903937b6329607d1b6037820152019061149f565b60405162461bcd60e51b8152918291600483016114b6565b0390fd5b34610264575f3660031901126102645760206040515f805160206120698339815191528152f35b34610264576040366003190112610264576004355f5260016020526020610d7360243560405f20611824565b905460405160039290921b1c6001600160a01b03168152f35b3461026457604036600319011261026457602060ff610dbd610dac6102d8565b6004355f525f845260405f20610716565b54166040519015158152f35b34610264575f3660031901126102645760206040515f8152f35b34610264575f366003190112610264576020600254604051908152f35b34610264576020366003190112610264576020610e23610e1e6102ee565b611e58565b6040519015158152f35b34610264576020366003190112610264576020610e23610e4b6102ee565b611f1b565b346102645760208060031936011261026457610e6a6102ee565b905f915f80516020612069833981519152835282825260ff610e8f3360408620610716565b541615610ee5576001600160a01b031680835260058083526040808520909101805460ff19166001179055519081527fbe730e9835fb6f5a231cbdc6b9ca52112e0bba0841dc8b0ab52902e9435c364d9190a180f35b610d1c610ce1610d0484610644610efb3361166d565b6048610cab61177b565b34610264575f366003190112610264576040517f00000000000000000000000000000000000000000000000000000000000000006001600160a01b03168152602090f35b3461026457602036600319011261026457610f626102ee565b335f526006602052610f778160405f20610716565b548015610ffd5781610fb4610faf6106917fed03f54a50c611ac89863bc7a9e033d805d743265603c12cdbf1da71d5eef14d95611e58565b611d37565b5f610fc282610493336106fd565b55610fee82337f0000000000000000000000000000000000000000000000000000000000000000611d96565b6104d860405192839283611d7b565b60405162461bcd60e51b81526020600482015260086024820152676e6f7420766f746560c01b6044820152606490fd5b34610264576020366003190112610264576020610d7360043561180c565b34610264576020366003190112610264576004355f526001602052602060405f2054604051908152f35b346102645760403660031901126102645761055a6004356110946102d8565b90805f525f6020526110ac600160405f2001546113fb565b6114ca565b34610264575f3660031901126102645760206040517f656d9d7d4f760af42e80a43383d080c6ceb7cb0edbf596b18d3129b17a420cb08152f35b34610264575f806003193601126111f057806003805490835b82811061113757846106e185337f0000000000000000000000000000000000000000000000000000000000000000611d96565b6111586106686111468361180c565b90546001600160a01b0391861b1c1690565b61116581610493336106fd565b5461117261069183611e58565b806111e7575b61118d575b505061118890611e33565b611104565b806111cd7fed03f54a50c611ac89863bc7a9e033d805d743265603c12cdbf1da71d5eef14d9284988a6111c76111889897610493336106fd565b5561156f565b966111dd60405192839283611d7b565b0390a1905f61117d565b50801515611178565b80fd5b7fcebf517aa4440d1d125e0355aae64401211d0848a23c02cc5d29a14822580ba45f81815260205260ff611247337ff5cf74e4983f9ad10ecd34f09bbc28020abddb21cb19766801accaab0ed70cfa610716565b5416156112515750565b61125a3361166d565b6112626115a9565b91603061126e846115e8565b53607861127a846115f5565b5360415b600181116112d757610d1c6048610d04856106448861129d8815611622565b60405194859376020b1b1b2b9b9a1b7b73a3937b61d1030b1b1b7bab73a1604d1b6020860152610ce1815180926020603789019101610874565b90600f8116906010821015610ba857611314916f181899199a1a9b1b9c1cb0b131b232b360811b901a61130a8487611605565b5360041c91611616565b61127e565b7f656d9d7d4f760af42e80a43383d080c6ceb7cb0edbf596b18d3129b17a420cb05f81815260205260ff61136d337ff6f245276e3b331bcf06506aa1e1a4222ba13e18e7b5a05cd7bdd407b29dd4f4610716565b5416156113775750565b6113803361166d565b6113886115a9565b916030611394846115e8565b5360786113a0846115f5565b5360415b600181116113c357610d1c6048610d04856106448861129d8815611622565b90600f8116906010821015610ba8576113f6916f181899199a1a9b1b9c1cb0b131b232b360811b901a61130a8487611605565b6113a4565b805f525f60205260ff6114113360405f20610716565b54161561141b5750565b6114243361166d565b61142c6115a9565b916030611438846115e8565b536078611444846115f5565b5360415b6001811161146757610d1c6048610d04856106448861129d8815611622565b90600f8116906010821015610ba85761149a916f181899199a1a9b1b9c1cb0b131b232b360811b901a61130a8487611605565b611448565b906114b260209282815194859201610874565b0190565b9060206114c7928181520190610895565b90565b906040611508925f908082528160205260ff6114e885858520610716565b541661150b575b81526001602052206001600160a01b0390911690611980565b50565b8082528160205261151e84848420610716565b805460ff19169055336001600160a01b038516827ff6391f5c32d9c69d2a47ea670b442974b53935d1edc7fd64eb21e047a839171b8580a46114ef565b634e487b7160e01b5f52601160045260245ffd5b9190820180921161157c57565b61155b565b6040519061081282610777565b6001600160401b03811161079257601f01601f191660200190565b60405190608082018281106001600160401b0382111761079257604052604282526060366020840137565b634e487b7160e01b5f52603260045260245ffd5b805115610ba85760200190565b805160011015610ba85760210190565b908151811015610ba8570160200190565b801561157c575f190190565b1561162957565b606460405162461bcd60e51b815260206004820152602060248201527f537472696e67733a20686578206c656e67746820696e73756666696369656e746044820152fd5b60405190606082018281106001600160401b0382111761079257604052602a8252604036602084013760306116a1836115e8565b5360786116ad836115f5565b536029905b600182116116c5576114c7915015611622565b600f8116906010821015610ba8576116f7916f181899199a1a9b1b9c1cb0b131b232b360811b901a61130a8486611605565b906116b2565b5f805160206120898339815191526117136115a9565b90603061171f836115e8565b53607861172b836115f5565b536041905b60018211611743576114c7915015611622565b600f8116906010821015610ba857611775916f181899199a1a9b1b9c1cb0b131b232b360811b901a61130a8486611605565b90611730565b5f805160206120698339815191526117916115a9565b90603061179d836115e8565b5360786117a9836115f5565b536041905b600182116117c1576114c7915015611622565b600f8116906010821015610ba8576117f3916f181899199a1a9b1b9c1cb0b131b232b360811b901a61130a8486611605565b906117ae565b6114c7916001600160a01b0316906118c8565b600354811015610ba85760035f5260205f2001905f90565b8054821015610ba8575f5260205f2001905f90565b916118529183549060031b91821b915f19901b19161790565b9055565b5f818152600460205260408120546118c35760035490600160401b821015610792576001820180600355821015610ba8577fc2575a0e9e593c00f959f8c92f12db2869c3395a3b0502d05e2516446f71f85b90910182905560035491815260046020526040902055600190565b905090565b6001810190825f528160205260405f2054155f1461192b578054600160401b81101561079257611918611902826001879401855584611824565b819391549060031b91821b915f19901b19161790565b905554915f5260205260405f2055600190565b5050505f90565b5f52600460205260405f2054151590565b805490811561196c575f199182019161195c8383611824565b909182549160031b1b1916905555565b634e487b7160e01b5f52603160045260245ffd5b6001810191805f528260205260405f2054928315155f14611a23575f19928484019085821161157c57805494850194851161157c575f9585836119cf946119dc98036119e2575b505050611943565b905f5260205260405f2090565b55600190565b611a0c611a06916119f6611a1a9487611824565b90549060031b1c92839187611824565b90611839565b85905f5260205260405f2090565b555f80806119c7565b505050505f90565b8260209493928237019081520190565b15611a4257565b60405162461bcd60e51b815260206004820152600f60248201526e70726f706f73616c2065786973747360881b6044820152606490fd5b929192611a858261158e565b91611a9360405193846107b2565b829481845281830111610264578281602093845f960137010152565b90601f8111611abd57505050565b5f91825260208220906020601f850160051c83019410611af8575b601f0160051c01915b828110611aed57505050565b818155600101611ae1565b9092508290611ad8565b91909182516001600160401b03811161079257611b2981611b23845461072b565b84611aaf565b602080601f8311600114611b66575081906118529394955f92611b5b575b50508160011b915f199060031b1c19161790565b015190505f80611b47565b90601f19831695611b7a855f5260205f2090565b925f905b888210611bb557505083600195969710611b9d575b505050811b019055565b01515f1960f88460031b161c191690555f8080611b93565b80600185968294968601518155019501930190611b7e565b600660c06108129360018060a01b0381511660018060a01b031985541617845560208101516001850155604081015160028501556060810151600385015560808101516004850155611c3460a08201511515600586019060ff801983541691151516179055565b01519101611b02565b3d15611c67573d90611c4e8261158e565b91611c5c60405193846107b2565b82523d5f602084013e565b606090565b9081602091031261026457516114c7816103d0565b90915f80949381946040519160208301946323b872dd60e01b865260018060a01b038092166024850152166044830152606482015260648152611cc381610797565b51925af1611ccf611c3d565b81611d08575b5015611cdd57565b60405162461bcd60e51b815260206004820152600360248201526229aa2360e91b6044820152606490fd5b8051801592508215611d1d575b50505f611cd5565b611d309250602080918301019101611c6c565b5f80611d15565b15611d3e57565b60405162461bcd60e51b815260206004820152601560248201527470726f706f73616c207374696c6c2061637469766560581b6044820152606490fd5b6001600160a01b039091168152602081019190915260400190565b5f929183610644611dc08295604051928391602083019663a9059cbb60e01b885260248401611d7b565b51925af1611dcc611c3d565b81611e04575b5015611dda57565b60405162461bcd60e51b815260206004820152600260248201526114d560f21b6044820152606490fd5b8051801592508215611e19575b50505f611dd2565b611e2c9250602080918301019101611c6c565b5f80611e11565b5f19811461157c5760010190565b6001600160401b0381116107925760051b60200190565b60018060a01b03809116805f526005602052611eee61069160405f2092611e9560405195611e8587610777565b8554166001600160a01b03168652565b6001840154946020810195865260028501546040820152600385015460608201526004850154608082015260c0611ee66006611ed5600589015460ff1690565b151560a08501908152975b016107d3565b910152611932565b908115611f10575b50611f0b57515f904210156114c75750600190565b505f90565b51151590505f611ef6565b611f24816106e4565b604051611f3081610777565b60018060a01b039182815416825260018101549060208301918252611fa561069160028301549560408601968752600384015497606087019889526004850154966080810197885260c0611f9c6006611f8d60058a015460ff1690565b151560a0850190815298611ee0565b91015216611932565b908115611fcb575b50611a235751421061192b5751611fc5575190511090565b50505f90565b51151590505f611fad565b907f0000000000000000000000000000000000000000000000000000000000000000915f92838083516020850182855af193612010611c3d565b9415612060575060405160208082526001600160a01b03909216927fd8409df930d12a0a0389858e14f44d42b5eb54ebd2a16aaecc951d99839000dd92829161205b91830190610895565b0390a2565b3d81803e3d90fdfe5297e68f3a27f04914f2c6db0ad63b5e5c8173cebcc1a5341df045cf6dad7adcd8f968fbda207880b95eda662660952067329cfd40eb5941e82ad401796b2f0fa26469706673582212204f5a90972784e93675c63bbdff73d17f90d757de9f3a219cabfeba1c09d9123564736f6c63430008150033",
  "immutableReferences": {
    "10420": [
      {
        "length": 32,
        "start": 681
      },
      {
        "length": 32,
        "start": 1086
      },
      {
        "length": 32,
        "start": 4042
      },
      {
        "length": 32,
        "start": 4371
      }
    ],
    "10422": [
      {
        "length": 32,
        "start": 3866
      },
      {
        "length": 32,
        "start": 8153
      }
    ]
  },
  "source": "// SPDX-License-Identifier: MIT\npragma solidity 0.8.21;\n\nimport {SafeMath} from \"@openzeppelin/contracts/utils/math/SafeMath.sol\";\nimport {EnumerableSet} from \"@openzeppelin/contracts/utils/structs/EnumerableSet.sol\";\nimport {AccessControlEnumerable} from \"@openzeppelin/contracts/access/AccessControlEnumerable.sol\";\nimport {TransferHelper} from \"@uniswap/v3-periphery/contracts/libraries/TransferHelper.sol\";\n\nimport {Minter} from \"../token/Minter.sol\";\nimport {StoneVault} from \"../StoneVault.sol\";\n\ncontract Proposal is AccessControlEnumerable {\n    using EnumerableSet for EnumerableSet.AddressSet;\n    using SafeMath for uint256;\n\n    address public immutable stoneToken;\n\n    address public immutable stoneVault;\n\n    bytes32 public constant PROPOSE_ROLE = keccak256(\"PROPOSE_ROLE\");\n    bytes32 public constant REVOKE_ROLE = keccak256(\"REVOKE_ROLE\");\n    bytes32 public constant EXECUTE_ROLE = keccak256(\"EXECUTE_ROLE\");\n    bytes32 public constant SET_PARAM_ROLE = keccak256(\"SET_PARAM_ROLE\");\n\n    uint256 public votePeriod = 7 * 24 * 60 * 60;\n\n    uint256 public constant minVotePeriod = 24 * 60 * 60;\n\n    EnumerableSet.AddressSet private proposals;\n    mapping(address => ProposalDetail) public proposalDetails;\n\n    mapping(address => mapping(address => uint256)) public polls; // user => proposal => polls\n\n    struct ProposalDetail {\n        address proposer;\n        uint256 deadline;\n        uint256 support;\n        uint256 oppose;\n        uint256 executedTime;\n        bool isRevoked;\n        bytes data;\n    }\n\n    event VoteFor(address proposal, uint256 poll, bool flag);\n    event RetrieveToken(address proposal, uint256 poll);\n    event SetVotePeriod(uint256 period);\n    event ProposalRevoked(address proposal);\n    event ProposalExecuted(address proposal);\n    event Invoked(address indexed targetAddress, bytes data);\n\n    constructor(address payable _stoneVault) {\n        stoneVault = _stoneVault;\n        address minter = StoneVault(_stoneVault).minter();\n        stoneToken = Minter(minter).stone();\n\n        _grantRole(DEFAULT_ADMIN_ROLE, msg.sender);\n    }\n\n    function propose(bytes calldata _data) external onlyRole(PROPOSE_ROLE) {\n        uint256 deadline = block.timestamp + votePeriod;\n\n        bytes32 data = keccak256(abi.encodePacked(_data, deadline));\n        address proposalAddr = address(uint160(bytes20(data)));\n\n        require(!proposals.contains(proposalAddr), \"proposal exists\");\n        proposals.add(proposalAddr);\n\n        proposalDetails[proposalAddr] = ProposalDetail(\n            msg.sender,\n            deadline,\n            0,\n            0,\n            0,\n            false,\n            _data\n        );\n    }\n\n    function revokePeoposal(address _proposal) external onlyRole(REVOKE_ROLE) {\n        ProposalDetail storage detail = proposalDetails[_proposal];\n\n        detail.isRevoked = true;\n\n        emit ProposalRevoked(_proposal);\n    }\n\n    function voteFor(address _proposal, uint256 _poll, bool _flag) external {\n        require(canVote(_proposal), \"cannot vote\");\n\n        TransferHelper.safeTransferFrom(\n            stoneToken,\n            msg.sender,\n            address(this),\n            _poll\n        );\n\n        ProposalDetail storage detail = proposalDetails[_proposal];\n        if (_flag) {\n            detail.support = detail.support.add(_poll);\n        } else {\n            detail.oppose = detail.oppose.add(_poll);\n        }\n\n        polls[msg.sender][_proposal] = polls[msg.sender][_proposal].add(_poll);\n\n        emit VoteFor(_proposal, _poll, _flag);\n    }\n\n    function retrieveTokenFor(address _proposal) external {\n        uint256 voteAmount = polls[msg.sender][_proposal];\n        require(voteAmount != 0, \"not vote\");\n        require(!canVote(_proposal), \"proposal still active\");\n\n        polls[msg.sender][_proposal] = 0;\n\n        TransferHelper.safeTransfer(stoneToken, msg.sender, voteAmount);\n\n        emit RetrieveToken(_proposal, voteAmount);\n    }\n\n    function retrieveAllToken() external {\n        uint256 withAmount;\n\n        uint256 length = proposals.length();\n        for (uint i; i < length; i++) {\n            address addr = proposals.at(i);\n            uint256 voteAmount = polls[msg.sender][addr];\n\n            if (!canVote(addr) && voteAmount != 0) {\n                polls[msg.sender][addr] = 0;\n                withAmount = withAmount.add(voteAmount);\n\n                emit RetrieveToken(addr, voteAmount);\n            }\n        }\n        TransferHelper.safeTransfer(stoneToken, msg.sender, withAmount);\n    }\n\n    function execProposal(address _proposal) external onlyRole(EXECUTE_ROLE) {\n        require(canExec(_proposal), \"cannot exec\");\n\n        ProposalDetail storage detail = proposalDetails[_proposal];\n\n        detail.executedTime = block.timestamp;\n\n        invoke(detail.data);\n\n        emit ProposalExecuted(_proposal);\n    }\n\n    function setVotePeriod(uint256 _period) external onlyRole(SET_PARAM_ROLE) {\n        require(_period >= minVotePeriod, \"too short for a proposal\");\n        votePeriod = _period;\n\n        emit SetVotePeriod(_period);\n    }\n\n    function getProposal(uint256 _i) public view returns (address addr) {\n        return proposals.at(_i);\n    }\n\n    function getProposals() public view returns (address[] memory addrs) {\n        uint256 length = proposals.length();\n\n        addrs = new address[](length);\n\n        for (uint256 i; i < length; i++) {\n            addrs[i] = proposals.at(i);\n        }\n    }\n\n    function canVote(address _proposal) public view returns (bool result) {\n        ProposalDetail memory detail = proposalDetails[_proposal];\n\n        if (!proposals.contains(_proposal) || detail.isRevoked) {\n            return false;\n        }\n        return block.timestamp < detail.deadline ? true : false;\n    }\n\n    function canExec(address _proposal) public view returns (bool result) {\n        ProposalDetail memory detail = proposalDetails[_proposal];\n\n        if (!proposals.contains(_proposal) || detail.isRevoked) {\n            return false;\n        }\n\n        if (block.timestamp < detail.deadline) {\n            return false;\n        }\n        if (detail.executedTime != 0) {\n            return false;\n        }\n\n        return detail.support > detail.oppose;\n    }\n\n    function invoke(bytes memory data) internal returns (bytes memory result) {\n        bool success;\n        (success, result) = stoneVault.call{value: 0}(data);\n        if (!success) {\n            // solhint-disable-next-line no-inline-assembly\n            assembly {\n                returndatacopy(0, 0, returndatasize())\n                revert(0, returndatasize())\n            }\n        }\n        emit Invoked(stoneVault, data);\n    }\n}\n",
  "sourcePath": "/Users/mingyuzhang/Downloads/stone-vault-v1/contracts/governance/Proposal.sol",
  "compiler": {
    "name": "solc",
    "version": "0.8.21+commit.d9974bed.Emscripten.clang"
  },
  "schemaVersion": "3.4.16",
  "updatedAt": "2024-06-07T05:41:32.615Z",
  "devdoc": {
    "events": {
      "RoleAdminChanged(bytes32,bytes32,bytes32)": {
        "details": "Emitted when `newAdminRole` is set as ``role``'s admin role, replacing `previousAdminRole` `DEFAULT_ADMIN_ROLE` is the starting admin for all roles, despite {RoleAdminChanged} not being emitted signaling this. _Available since v3.1._"
      },
      "RoleGranted(bytes32,address,address)": {
        "details": "Emitted when `account` is granted `role`. `sender` is the account that originated the contract call, an admin role bearer except when using {AccessControl-_setupRole}."
      },
      "RoleRevoked(bytes32,address,address)": {
        "details": "Emitted when `account` is revoked `role`. `sender` is the account that originated the contract call:   - if using `revokeRole`, it is the admin role bearer   - if using `renounceRole`, it is the role bearer (i.e. `account`)"
      }
    },
    "kind": "dev",
    "methods": {
      "getRoleAdmin(bytes32)": {
        "details": "Returns the admin role that controls `role`. See {grantRole} and {revokeRole}. To change a role's admin, use {_setRoleAdmin}."
      },
      "getRoleMember(bytes32,uint256)": {
        "details": "Returns one of the accounts that have `role`. `index` must be a value between 0 and {getRoleMemberCount}, non-inclusive. Role bearers are not sorted in any particular way, and their ordering may change at any point. WARNING: When using {getRoleMember} and {getRoleMemberCount}, make sure you perform all queries on the same block. See the following https://forum.openzeppelin.com/t/iterating-over-elements-on-enumerableset-in-openzeppelin-contracts/2296[forum post] for more information."
      },
      "getRoleMemberCount(bytes32)": {
        "details": "Returns the number of accounts that have `role`. Can be used together with {getRoleMember} to enumerate all bearers of a role."
      },
      "grantRole(bytes32,address)": {
        "details": "Grants `role` to `account`. If `account` had not been already granted `role`, emits a {RoleGranted} event. Requirements: - the caller must have ``role``'s admin role. May emit a {RoleGranted} event."
      },
      "hasRole(bytes32,address)": {
        "details": "Returns `true` if `account` has been granted `role`."
      },
      "renounceRole(bytes32,address)": {
        "details": "Revokes `role` from the calling account. Roles are often managed via {grantRole} and {revokeRole}: this function's purpose is to provide a mechanism for accounts to lose their privileges if they are compromised (such as when a trusted device is misplaced). If the calling account had been revoked `role`, emits a {RoleRevoked} event. Requirements: - the caller must be `account`. May emit a {RoleRevoked} event."
      },
      "revokeRole(bytes32,address)": {
        "details": "Revokes `role` from `account`. If `account` had been granted `role`, emits a {RoleRevoked} event. Requirements: - the caller must have ``role``'s admin role. May emit a {RoleRevoked} event."
      },
      "supportsInterface(bytes4)": {
        "details": "See {IERC165-supportsInterface}."
      }
    },
    "version": 1
  },
  "userdoc": {
    "kind": "user",
    "methods": {},
    "version": 1
  }
}