{
  "contractName": "RETHBalancerAuraStrategy",
  "abi": [
    {
      "inputs": [
        {
          "internalType": "address payable",
          "name": "_controller",
          "type": "address"
        },
        {
          "internalType": "address payable",
          "name": "_swap",
          "type": "address"
        },
        {
          "internalType": "address",
          "name": "_WETH",
          "type": "address"
        },
        {
          "internalType": "address",
          "name": "_RETH",
          "type": "address"
        },
        {
          "internalType": "address",
          "name": "_VAULT",
          "type": "address"
        },
        {
          "internalType": "address",
          "name": "_LP_TOKEN",
          "type": "address"
        },
        {
          "internalType": "address",
          "name": "_AURA_REWARD_POOL",
          "type": "address"
        },
        {
          "internalType": "address",
          "name": "_BAL_TOKEN",
          "type": "address"
        },
        {
          "internalType": "address",
          "name": "_AURA_TOKEN",
          "type": "address"
        },
        {
          "internalType": "address",
          "name": "_EXTRA_REWARD",
          "type": "address"
        },
        {
          "internalType": "bytes32",
          "name": "_poolId",
          "type": "bytes32"
        }
      ],
      "stateMutability": "nonpayable",
      "type": "constructor"
    },
    {
      "anonymous": false,
      "inputs": [
        {
          "indexed": false,
          "internalType": "address",
          "name": "oldOwner",
          "type": "address"
        },
        {
          "indexed": false,
          "internalType": "address",
          "name": "newOwner",
          "type": "address"
        }
      ],
      "name": "TransferGovernance",
      "type": "event"
    },
    {
      "inputs": [],
      "name": "AURA_REWARD_POOL",
      "outputs": [
        {
          "internalType": "address",
          "name": "",
          "type": "address"
        }
      ],
      "stateMutability": "view",
      "type": "function"
    },
    {
      "inputs": [],
      "name": "AURA_TOKEN",
      "outputs": [
        {
          "internalType": "address",
          "name": "",
          "type": "address"
        }
      ],
      "stateMutability": "view",
      "type": "function"
    },
    {
      "inputs": [],
      "name": "BAL_TOKEN",
      "outputs": [
        {
          "internalType": "address",
          "name": "",
          "type": "address"
        }
      ],
      "stateMutability": "view",
      "type": "function"
    },
    {
      "inputs": [],
      "name": "EXTRA_REWARD",
      "outputs": [
        {
          "internalType": "address",
          "name": "",
          "type": "address"
        }
      ],
      "stateMutability": "view",
      "type": "function"
    },
    {
      "inputs": [],
      "name": "LP_TOKEN",
      "outputs": [
        {
          "internalType": "address",
          "name": "",
          "type": "address"
        }
      ],
      "stateMutability": "view",
      "type": "function"
    },
    {
      "inputs": [],
      "name": "RETH",
      "outputs": [
        {
          "internalType": "address",
          "name": "",
          "type": "address"
        }
      ],
      "stateMutability": "view",
      "type": "function"
    },
    {
      "inputs": [],
      "name": "SWAPPING",
      "outputs": [
        {
          "internalType": "address payable",
          "name": "",
          "type": "address"
        }
      ],
      "stateMutability": "view",
      "type": "function"
    },
    {
      "inputs": [],
      "name": "VAULT",
      "outputs": [
        {
          "internalType": "address",
          "name": "",
          "type": "address"
        }
      ],
      "stateMutability": "view",
      "type": "function"
    },
    {
      "inputs": [],
      "name": "WETH",
      "outputs": [
        {
          "internalType": "address",
          "name": "",
          "type": "address"
        }
      ],
      "stateMutability": "view",
      "type": "function"
    },
    {
      "inputs": [],
      "name": "bufferTime",
      "outputs": [
        {
          "internalType": "uint256",
          "name": "",
          "type": "uint256"
        }
      ],
      "stateMutability": "view",
      "type": "function"
    },
    {
      "inputs": [],
      "name": "controller",
      "outputs": [
        {
          "internalType": "address payable",
          "name": "",
          "type": "address"
        }
      ],
      "stateMutability": "view",
      "type": "function"
    },
    {
      "inputs": [
        {
          "internalType": "uint256",
          "name": "_amount",
          "type": "uint256"
        }
      ],
      "name": "execPendingRequest",
      "outputs": [
        {
          "internalType": "uint256",
          "name": "amount",
          "type": "uint256"
        }
      ],
      "stateMutability": "nonpayable",
      "type": "function"
    },
    {
      "inputs": [],
      "name": "governance",
      "outputs": [
        {
          "internalType": "address",
          "name": "",
          "type": "address"
        }
      ],
      "stateMutability": "view",
      "type": "function"
    },
    {
      "inputs": [],
      "name": "latestUpdateTime",
      "outputs": [
        {
          "internalType": "uint256",
          "name": "",
          "type": "uint256"
        }
      ],
      "stateMutability": "view",
      "type": "function"
    },
    {
      "inputs": [],
      "name": "name",
      "outputs": [
        {
          "internalType": "string",
          "name": "",
          "type": "string"
        }
      ],
      "stateMutability": "view",
      "type": "function"
    },
    {
      "inputs": [
        {
          "internalType": "uint256",
          "name": "_time",
          "type": "uint256"
        }
      ],
      "name": "setBufferTime",
      "outputs": [],
      "stateMutability": "nonpayable",
      "type": "function"
    },
    {
      "inputs": [
        {
          "internalType": "address",
          "name": "governance_",
          "type": "address"
        }
      ],
      "name": "setGovernance",
      "outputs": [],
      "stateMutability": "nonpayable",
      "type": "function"
    },
    {
      "stateMutability": "payable",
      "type": "receive"
    },
    {
      "inputs": [],
      "name": "deposit",
      "outputs": [],
      "stateMutability": "payable",
      "type": "function"
    },
    {
      "inputs": [
        {
          "internalType": "uint256",
          "name": "_amount",
          "type": "uint256"
        }
      ],
      "name": "withdraw",
      "outputs": [
        {
          "internalType": "uint256",
          "name": "actualAmount",
          "type": "uint256"
        }
      ],
      "stateMutability": "nonpayable",
      "type": "function"
    },
    {
      "inputs": [
        {
          "internalType": "uint256",
          "name": "_amount",
          "type": "uint256"
        }
      ],
      "name": "instantWithdraw",
      "outputs": [
        {
          "internalType": "uint256",
          "name": "actualAmount",
          "type": "uint256"
        }
      ],
      "stateMutability": "nonpayable",
      "type": "function"
    },
    {
      "inputs": [],
      "name": "clear",
      "outputs": [
        {
          "internalType": "uint256",
          "name": "amount",
          "type": "uint256"
        }
      ],
      "stateMutability": "nonpayable",
      "type": "function"
    },
    {
      "inputs": [],
      "name": "getExtraRewards",
      "outputs": [
        {
          "internalType": "uint256",
          "name": "bal",
          "type": "uint256"
        },
        {
          "internalType": "uint256",
          "name": "aura",
          "type": "uint256"
        }
      ],
      "stateMutability": "view",
      "type": "function"
    },
    {
      "inputs": [],
      "name": "claimRewards",
      "outputs": [],
      "stateMutability": "nonpayable",
      "type": "function"
    },
    {
      "inputs": [],
      "name": "getAllValue",
      "outputs": [
        {
          "internalType": "uint256",
          "name": "value",
          "type": "uint256"
        }
      ],
      "stateMutability": "nonpayable",
      "type": "function"
    },
    {
      "inputs": [],
      "name": "getInvestedValue",
      "outputs": [
        {
          "internalType": "uint256",
          "name": "value",
          "type": "uint256"
        }
      ],
      "stateMutability": "nonpayable",
      "type": "function"
    },
    {
      "inputs": [],
      "name": "getPendingValue",
      "outputs": [
        {
          "internalType": "uint256",
          "name": "value",
          "type": "uint256"
        }
      ],
      "stateMutability": "nonpayable",
      "type": "function"
    },
    {
      "inputs": [],
      "name": "checkPendingStatus",
      "outputs": [
        {
          "internalType": "uint256",
          "name": "pending",
          "type": "uint256"
        },
        {
          "internalType": "uint256",
          "name": "executable",
          "type": "uint256"
        }
      ],
      "stateMutability": "nonpayable",
      "type": "function"
    },
    {
      "inputs": [],
      "name": "getOnchainLpPrice",
      "outputs": [
        {
          "internalType": "uint256",
          "name": "",
          "type": "uint256"
        }
      ],
      "stateMutability": "view",
      "type": "function"
    },
    {
      "inputs": [
        {
          "internalType": "uint256",
          "name": "_slippage",
          "type": "uint256"
        }
      ],
      "name": "setSlippage",
      "outputs": [],
      "stateMutability": "nonpayable",
      "type": "function"
    },
    {
      "inputs": [
        {
          "internalType": "address",
          "name": "_aggregator",
          "type": "address"
        }
      ],
      "name": "setAggregator",
      "outputs": [],
      "stateMutability": "nonpayable",
      "type": "function"
    }
  ],
  "bytecode": "0x61020034620004b5576001600160401b039062002975601f1938829003601f8101821684019084821086831117620004a1578085946040938452853961016093849181010312620004b5576200005584620004b9565b9260209062000066868301620004b9565b9562000074848201620004b9565b936200008360608301620004b9565b936200009260808401620004b9565b620000a060a08501620004b9565b90620000af60c08601620004b9565b96620000be60e08701620004b9565b986101009d8e8801620000d190620004b9565b9b6101209e8f8a01620000e490620004b9565b9e610140809b0151988a51948b860186811082821117620004a1578c52601586527f526f636b657420506f6f6c20455448287245544829000000000000000000000082870152600c6002556001600160a01b0394620001478487161515620004ce565b60018060a01b0319965f94338987541617865560805280519283116200048d576003948554946001958681811c9116801562000482575b828210146200046e57601f811162000423575b508093601f8611600114620003bf57505091839491849394620003b3575b50501b915f1990841b1c19161790555b670de0b6b3a764000060a052620f424060c052620f2eb86004557f1e19cf2d73a72ef1332c882f20534b6519be027600020000000000000000011260e05216906200020c821515620004ce565b60055416176005558d528b52845284526101809485526101a09586526101c09687526101e097885260e052519661246a98896200050b8a3960805189818161019001528181610766015281816109db01528181610fc701526114e2015260a05189818161021f0152611c98015260c0518981816101f801528181610a890152611541015260e05189818161057001528181610b6d015281816112dd015261185b01525188818161030e015281816104db01528181610de6015281816110a4015281816112500152818161162a01526117ce0152518781816104ad01528181610b0401528181610eea0152818161122201526117a001525186818161043f01528181610a23015281816111b40152818161140201526117300152518581816102c201528181610bc301528181610d8301528181611058015281816115de015261236601525184818161025d015281816107ce01528181610c2701528181610f5201528181610ff901528181611464015281816115880152611c430152518381816119e601526120d6015251828181610993015261211c015251818181610815015261090c0152f35b015192505f80620001af565b8783528183209493928692918316915b88838310620004085750505010620003f0575b505050811b019055620001bf565b01515f1983861b60f8161c191690555f8080620003e2565b858701518855909601959485019487935090810190620003cf565b878352818320601f870160051c81019183881062000463575b601f0160051c019087905b8281106200045757505062000191565b84815501879062000447565b90915081906200043c565b634e487b7160e01b83526022600452602483fd5b90607f16906200017e565b634e487b7160e01b85526041600452602485fd5b634e487b7160e01b5f52604160045260245ffd5b5f80fd5b51906001600160a01b0382168203620004b557565b15620004d657565b60405162461bcd60e51b815260206004820152600c60248201526b5a45524f204144445245535360a01b6044820152606490fdfe6080604081815260049081361015610021575b505050361561001f575f80fd5b005b5f92833560e01c9081621a559714611b3f5750806306fdde0314611a435780631aac030c14611a155780632abc2a99146119d15780632e1a7d4d146114c2578063372500ab14611431578063411557d1146113ed57806352efea6e14610fa95780635aa6e67514610f8157806365882a7914610f3d5780636c23ab4c14610f1957806375421af314610f1e5780637654f7ab14610f195780638265b12114610ed55780638abd97fb14610eac578063924f4f6e14610e90578063ab033ea914610e15578063ad5c464814610dd1578063ba7b670314610db2578063bfd9041b14610d6e578063d0e30db0146109c2578063d1e1a8671461097e578063d83e3f7c1461095a578063dd07d2881461093b578063e8d4aa05146108f7578063f0fa55a9146108c9578063f28cb98214610795578063f77c479114610751578063f9120af6146107015763fd92bff20361001257346106fd57602092836003193601126103ef57506001600160a01b037f0000000000000000000000000000000000000000000000000000000000000000811692908135906101c1338614611d07565b6101db6101d360015460025490611d44565b421015611d65565b5f9081906101ea841515611da5565b61025a61024c61024461021d7f000000000000000000000000000000000000000000000000000000000000000088612320565b7f000000000000000000000000000000000000000000000000000000000000000090612320565b875490612333565b610254612351565b90612333565b817f000000000000000000000000000000000000000000000000000000000000000016918751926370a0823160e01b9283855230898601526024948c818781865afa9081156106f357908d929189916106be575b50811015610665575b80610606575b5050507f000000000000000000000000000000000000000000000000000000000000000088519083825230898301528b8286818685165afa9182156105fc5787926105cd575b5081610439575b50507f000000000000000000000000000000000000000000000000000000000000000016918751918252308783015289828281865afa91821561042f578492610400575b5081610396575b505050610376935080610388575b50818111156103805750925b4790612046565b4260015551908152f35b90509261036f565b6103906120ab565b50610363565b9180945095909294953b156103fc57908492918388519586948593632e1a7d4d60e01b85528401525af180156103f2576103db575b5090816103769247915f80610355565b6103e58291611b87565b6103ef575f6103cb565b80fd5b84513d84823e3d90fd5b8480fd5b9091508981813d8311610428575b6104188183611bb5565b810103126103fc5751905f61034e565b503d61040e565b88513d86823e3d90fd5b610467827f000000000000000000000000000000000000000000000000000000000000000085811693611f9b565b8951878d820152828b820152600160608201526060815261048781611b58565b8c6105238c519461049786611b9a565b600286528d36848801376104aa86611dde565b877f00000000000000000000000000000000000000000000000000000000000000001690526104d886611dff565b877f00000000000000000000000000000000000000000000000000000000000000001690528d80519361050a85611b9a565b6002855236908501378a61051d84611dde565b526123da565b61052c82611dff565b528b519361053985611b58565b84528d8401528a830152866060830152803b156105c9576105979187918a838d51809681958294638bdb391360e01b8452309030907f0000000000000000000000000000000000000000000000000000000000000000908601611f2b565b03925af180156105bf576105ac575b8061030a565b6105b7919450611b87565b83925f6105a6565b89513d88823e3d90fd5b8680fd5b9091508b81813d83116105f5575b6105e58183611bb5565b810103126105c95751905f610303565b503d6105db565b8a513d89823e3d90fd5b60448a898d519586948593636197390160e11b855284015260018a8401525af180156105bf57610638575b8a816102bd565b610657908b3d8d1161065e575b61064f8183611bb5565b810190611ef8565b505f610631565b503d610645565b5050885183815230898201528b818681855afa9081156105fc57908c91889161068f575b506102b7565b82819392503d83116106b7575b6106a68183611bb5565b810103126105c9578b90515f610689565b503d61069c565b8381939492503d83116106ec575b6106d68183611bb5565b810103126106e857908c91515f6102ae565b8780fd5b503d6106cc565b8b513d8a823e3d90fd5b8280fd5b50503461074d57602036600319011261074d57356001600160a01b03818116918290036106fd576107369083541633146123f8565b600580546001600160a01b03191691909117905580f35b5080fd5b83823461074d578160031936011261074d57517f00000000000000000000000000000000000000000000000000000000000000006001600160a01b03168152602090f35b5091346103ef57806003193601126103ef5782516246613160e11b808252308285015290926020916001600160a01b03919083866024817f000000000000000000000000000000000000000000000000000000000000000087165afa9586156108bf57859661088d575b50906024849288519485938492835230908301527f0000000000000000000000000000000000000000000000000000000000000000165afa928315610882579261084f575b508351928352820152f35b9080925081813d831161087b575b6108678183611bb5565b810103126108775751905f610844565b5f80fd5b503d61085d565b8551903d90823e3d90fd5b919095508382813d83116108b8575b6108a68183611bb5565b810103126108775790519460246107ff565b503d61089c565b87513d87823e3d90fd5b50503461074d57602036600319011261074d576108f060018060a01b0383541633146123f8565b8035905580f35b83823461074d578160031936011261074d57517f00000000000000000000000000000000000000000000000000000000000000006001600160a01b03168152602090f35b83823461074d578160031936011261074d576020906001549051908152f35b83823461074d578160031936011261074d57602090610977612351565b9051908152f35b83823461074d578160031936011261074d57517f00000000000000000000000000000000000000000000000000000000000000006001600160a01b03168152602090f35b50826003193601126106fd576001600160a01b03610a037f000000000000000000000000000000000000000000000000000000000000000082163314611d07565b610a156101d360015460025490611d44565b610a20341515611da5565b807f00000000000000000000000000000000000000000000000000000000000000001690848351610a5081611b9a565b6002815260209385368684013782610a6783611dde565b5234610a7283611dff565b52610aae61024c610a8761021d8a5434612320565b7f000000000000000000000000000000000000000000000000000000000000000090612333565b610ae28751809260018983015260608a830152610ace6080830187611e0f565b90606083015203601f198101835282611bb5565b865192610aee84611b9a565b60028452873688860137610b0184611dde565b867f000000000000000000000000000000000000000000000000000000000000000016905284610b3085611dff565b52875193610b3d85611b58565b84528684015286830152826060830152803b156106fd57610bad9183918751808095819463172b958560e31b83527f00000000000000000000000000000000000000000000000000000000000000008d840152306024840152306044840152608060648401526084830190611e42565b039134905af18015610d6457610d50575b5050807f00000000000000000000000000000000000000000000000000000000000000001693858451926370a0823160e01b8452308385015284846024818a5afa938415610d46578294610d13575b50610c19841515611ebf565b855163095ea7b360e01b81527f00000000000000000000000000000000000000000000000000000000000000009786908290818681610c5b8b8f8c8401611f10565b03925af18015610d0957916044939187969593610cec575b5087519889958694636e553f6560e01b8652850152306024850152165af1918215610ce357508391610cb3575b83610cac831515611ebf565b4260015580f35b905081813d8311610cdc575b610cc98183611bb5565b8101031261087757610cac90515f610ca0565b503d610cbf565b513d85823e3d90fd5b610d0290873d891161065e5761064f8183611bb5565b505f610c73565b87513d85823e3d90fd5b85809295508193503d8311610d3f575b610d2d8183611bb5565b8101031261087757869051925f610c0d565b503d610d23565b86513d84823e3d90fd5b610d5990611b87565b6103fc57845f610bbe565b85513d84823e3d90fd5b83823461074d578160031936011261074d57517f00000000000000000000000000000000000000000000000000000000000000006001600160a01b03168152602090f35b83823461074d578160031936011261074d576020906002549051908152f35b83823461074d578160031936011261074d57517f00000000000000000000000000000000000000000000000000000000000000006001600160a01b03168152602090f35b5090346106fd5760203660031901126106fd576001600160a01b0390358181169290839003610e8c577f2276211a3f2c7bc1943fe83cc63f8f970204ff6a4b83c690df2bc54d8f2792ad908454928316610e703382146123f8565b8151908152846020820152a16001600160a01b03191617815580f35b8380fd5b83823461074d57602036600319011261074d5751908152602090f35b83823461074d578160031936011261074d5760055490516001600160a01b039091168152602090f35b83823461074d578160031936011261074d57517f00000000000000000000000000000000000000000000000000000000000000006001600160a01b03168152602090f35b611c14565b5082346103ef57806003193601126103ef578151908082526020820152f35b83823461074d578160031936011261074d57517f00000000000000000000000000000000000000000000000000000000000000006001600160a01b03168152602090f35b83823461074d578160031936011261074d57905490516001600160a01b039091168152602090f35b5082903461074d578160031936011261074d576001600160a01b03927f0000000000000000000000000000000000000000000000000000000000000000841692610ff4338514611d07565b8091857f0000000000000000000000000000000000000000000000000000000000000000168451966370a0823160e01b9182895230848a01526020988981602481855afa90811561135d57918a91879384916113b9575b5080611367575b505050507f00000000000000000000000000000000000000000000000000000000000000008651838152308582015289816024818686165afa90811561135d578691611330575b50806111ae575b50507f00000000000000000000000000000000000000000000000000000000000000001691855191825230818301528782602481865afa9182156111a4578492611175575b5081611113575b5050505061110561110d916110ff6120ab565b90611d44565b924790612046565b51908152f35b9091809394503b15610e8c5790602484928387519586948593632e1a7d4d60e01b85528401525af1801561116b57611157575b505061110d611105479186806110ec565b6111618291611b87565b6103ef5780611146565b83513d84823e3d90fd5b9091508781813d831161119d575b61118d8183611bb5565b81010312610877575190886110e5565b503d611183565b86513d86823e3d90fd5b6111dc817f000000000000000000000000000000000000000000000000000000000000000085811694611f9b565b8751868b820152818982015260016060820152606081526111fc81611b58565b8a6112928a519361120c85611b9a565b600285528b368487013761121f85611dde565b877f000000000000000000000000000000000000000000000000000000000000000016905261124d85611dff565b877f00000000000000000000000000000000000000000000000000000000000000001690528b80519361127f85611b9a565b6002855236908501378961051d84611dde565b61129b82611dff565b528951926112a884611b58565b83528b83015288820152856060820152813b1561132c57611304869283928a51948580948193638bdb391360e01b835230308d7f0000000000000000000000000000000000000000000000000000000000000000908601611f2b565b03925af180156108bf57611319575b806110a0565b61132590949194611b87565b9288611313565b8580fd5b90508981813d8311611356575b6113478183611bb5565b8101031261132c57518a611099565b503d61133d565b88513d88823e3d90fd5b6044908a519485938492636197390160e11b84528a840152600160248401525af180156108bf5761139c575b88818692611052565b6113b290893d8b1161065e5761064f8183611bb5565b5088611393565b92809294508391503d83116113e6575b6113d38183611bb5565b8101031261132c5785918a91518c61104b565b503d6113c9565b83823461074d578160031936011261074d57517f00000000000000000000000000000000000000000000000000000000000000006001600160a01b03168152602090f35b50346106fd57826003193601126106fd578051636197390160e11b815291820183905260016024830152602082604481867f00000000000000000000000000000000000000000000000000000000000000006001600160a01b03165af19081156114b9575061149e575080f35b6114b59060203d811161065e5761064f8183611bb5565b5080f35b513d84823e3d90fd5b5082903461074d57602092836003193601126106fd576001600160a01b037f000000000000000000000000000000000000000000000000000000000000000081169382359190611513338714611d07565b6115256101d360015460025490611d44565b809181611533851515611da5565b61156e61024c61156661021d7f000000000000000000000000000000000000000000000000000000000000000089612320565b885490612333565b87516370a0823160e01b80825230898301529360249290917f0000000000000000000000000000000000000000000000000000000000000000831691908d818681865afa9081156119c757908e92918791611996575b5081101561193d575b8b8b87836118ed575b5050505050507f0000000000000000000000000000000000000000000000000000000000000000895190858252308a8301528c8285818685165afa9182156118e35785926118b4575b508161172a575b50507f00000000000000000000000000000000000000000000000000000000000000001692885190815230888201528a818381875afa9283156117205785936116ee575b505081611695575b50505061037693506116826120ab565b5050818111156103805750924790612046565b9180945095909294953b156103fc57908492918388519586948593632e1a7d4d60e01b85528401525af180156103f2576116da575b5090610376914790878080611672565b6116e48291611b87565b6103ef57856116ca565b909192508a82813d8311611719575b6117078183611bb5565b810103126103ef575051908a8061166a565b503d6116fd565b89513d87823e3d90fd5b611758827f000000000000000000000000000000000000000000000000000000000000000085811693611f9b565b8c8b80519187818401528482840152600160608401526060835261177b83611b58565b61180f82519561178a87611b9a565b6002875283368489013761179d87611dde565b887f00000000000000000000000000000000000000000000000000000000000000001690526117cb87611dff565b887f00000000000000000000000000000000000000000000000000000000000000001690528351936117fc85611b9a565b6002855236848601378961051d85611dde565b61181883611dff565b528d519461182586611b58565b85528401528b830152846060830152803b156103fc576118829185918b838e51809681958294638bdb391360e01b8452309030907f0000000000000000000000000000000000000000000000000000000000000000908601611f2b565b03925af180156118aa57611897575b80611626565b6118a2919550611b87565b81938b611891565b8a513d86823e3d90fd5b9091508c81813d83116118dc575b6118cc8183611bb5565b810103126103fc5751908d61161f565b503d6118c2565b8b513d87823e3d90fd5b604492519586948593636197390160e11b85528401526001898401525af180156118aa57611920575b8b818b8b876115d6565b611936908c8d3d1061065e5761064f8183611bb5565b508b611916565b50508951858152308a8201528c818581855afa9081156118e357908d918691611967575b506115cd565b82819392503d831161198f575b61197e8183611bb5565b810103126103fc578c90518e611961565b503d611974565b8381939492503d83116119c0575b6119ae8183611bb5565b8101031261132c57908d91518f6115c4565b503d6119a4565b8c513d88823e3d90fd5b83823461074d578160031936011261074d57517f00000000000000000000000000000000000000000000000000000000000000006001600160a01b03168152602090f35b50503461074d57602036600319011261074d57611a3c60018060a01b0383541633146123f8565b3560025580f35b5082346103ef57806003193601126103ef578151918160035492600184811c91818616958615611b35575b6020968785108114611b22578899509688969785829a5291825f14611afb575050600114611abd575b505050611ab99291611aaa910385611bb5565b51928284938452830190611bd6565b0390f35b9190869350600383528383205b828410611ae35750505082010181611aaa611ab9611a97565b8054848a018601528895508794909301928101611aca565b60ff19168782015293151560051b86019093019350849250611aaa9150611ab99050611a97565b634e487b7160e01b835260228a52602483fd5b92607f1692611a6e565b84903461074d578160031936011261074d576020918152f35b608081019081106001600160401b03821117611b7357604052565b634e487b7160e01b5f52604160045260245ffd5b6001600160401b038111611b7357604052565b606081019081106001600160401b03821117611b7357604052565b90601f801991011681019081106001600160401b03821117611b7357604052565b91908251928382525f5b848110611c00575050825f602080949584010152601f8019910116010190565b602081830181015184830182015201611be0565b34610877575f806003193601126103ef576040516370a0823160e01b81523060048201524791906020816024817f00000000000000000000000000000000000000000000000000000000000000006001600160a01b03165afa918215611cfb578092611cc5575b6020611cbd856110ff611c9687611c90612351565b90612320565b7f000000000000000000000000000000000000000000000000000000000000000090612333565b604051908152f35b9091506020823d8211611cf3575b81611ce060209383611bb5565b810103126103ef575051816110ff611c7b565b3d9150611cd3565b604051903d90823e3d90fd5b15611d0e57565b60405162461bcd60e51b815260206004820152600e60248201526d3737ba1031b7b73a3937b63632b960911b6044820152606490fd5b91908201809211611d5157565b634e487b7160e01b5f52601160045260245ffd5b15611d6c57565b60405162461bcd60e51b81526020600482015260116024820152706174207468652073616d6520626c6f636b60781b6044820152606490fd5b15611dac57565b60405162461bcd60e51b815260206004820152600a6024820152697a65726f2076616c756560b01b6044820152606490fd5b805115611deb5760200190565b634e487b7160e01b5f52603260045260245ffd5b805160011015611deb5760400190565b9081518082526020808093019301915f5b828110611e2e575050505090565b835185529381019392810192600101611e20565b9060808101825160808352805180925260a08301916020809201905f5b818110611ea257505050611e97611e856060938385948801519087830390880152611e0f565b60408601518582036040870152611bd6565b930151151591015290565b82516001600160a01b031685529383019391830191600101611e5f565b15611ec657565b60405162461bcd60e51b815260206004820152600a60248201526936b4b73a1032b93937b960b11b6044820152606490fd5b90816020910312610877575180151581036108775790565b6001600160a01b039091168152602081019190915260400190565b9081526001600160a01b03918216602082015291166040820152608060608201819052611f5a92910190611e42565b90565b3d15611f96573d906001600160401b038211611b735760405191611f8b601f8201601f191660200184611bb5565b82523d5f602084013e565b606090565b5f929183611fc5611fd38295604051928391602083019663095ea7b360e01b885260248401611f10565b03601f198101835282611bb5565b51925af1611fdf611f5d565b81612017575b5015611fed57565b60405162461bcd60e51b8152602060048201526002602482015261534160f01b6044820152606490fd5b805180159250821561202c575b50505f611fe5565b61203f9250602080918301019101611ef8565b5f80612024565b60405160208101908082106001600160401b03831117611b73575f938493848094938194604052525af1612078611f5d565b501561208057565b60405162461bcd60e51b815260206004820152600360248201526253544560e81b6044820152606490fd5b604080516370a0823160e01b8082523060048301525f9392849290916001600160a01b0391602091907f000000000000000000000000000000000000000000000000000000000000000084811691908482602481865afa9182156123165788926122e7575b5081612256575b5050507f0000000000000000000000000000000000000000000000000000000000000000928084169385519283523060048401528383602481885afa92831561224c57879361221d575b5082612171575b50505050505050565b8161218a8460649387969560059d9a9b9d541690611f9b565b6005541694898851968794859363919722bb60e01b855260048501526024840152600160448401525af1938415612214575085936121dd575b50506121d0929350611d44565b905f808080808080612168565b9080929350813d831161220d575b6121f58183611bb5565b81010312610e8c576121d0929350519083925f6121c3565b503d6121eb565b513d87823e3d90fd5b9092508381813d8311612245575b6122358183611bb5565b810103126105c95751915f612161565b503d61222b565b86513d89823e3d90fd5b84929399508161226b91876005541690611f9b565b6064856005541693888851958694859363919722bb60e01b855260048501526024840152600160448401525af19081156122dd5785916122b0575b50955f8080612117565b90508181813d83116122d6575b6122c78183611bb5565b810103126103fc57515f6122a6565b503d6122bd565b84513d87823e3d90fd5b9091508481813d831161230f575b6122ff8183611bb5565b810103126106e85751905f612110565b503d6122f5565b87513d8a823e3d90fd5b81810292918115918404141715611d5157565b811561233d570490565b634e487b7160e01b5f52601260045260245ffd5b6040516333cd77e760e11b81526020816004817f00000000000000000000000000000000000000000000000000000000000000006001600160a01b03165afa9081156123cf575f916123a1575090565b906020823d82116123c7575b816123ba60209383611bb5565b810103126103ef57505190565b3d91506123ad565b6040513d5f823e3d90fd5b611c96610a876123f0611f5a9360045490612320565b611c90612351565b156123ff57565b60405162461bcd60e51b815260206004820152600d60248201526c6e6f7420676f7665726e61636560981b6044820152606490fdfea2646970667358221220da9a4e25cec712dd5ae964363cb25cfe6cf0b634a453af0dc0b9fb7c452f40da64736f6c63430008150033",
  "immutableReferences": {
    "19159": [
      {
        "length": 32,
        "start": 543
      },
      {
        "length": 32,
        "start": 7320
      }
    ],
    "19162": [
      {
        "length": 32,
        "start": 504
      },
      {
        "length": 32,
        "start": 2697
      },
      {
        "length": 32,
        "start": 5441
      }
    ],
    "19168": [
      {
        "length": 32,
        "start": 1392
      },
      {
        "length": 32,
        "start": 2925
      },
      {
        "length": 32,
        "start": 4829
      },
      {
        "length": 32,
        "start": 6235
      }
    ],
    "19170": [
      {
        "length": 32,
        "start": 782
      },
      {
        "length": 32,
        "start": 1243
      },
      {
        "length": 32,
        "start": 3558
      },
      {
        "length": 32,
        "start": 4260
      },
      {
        "length": 32,
        "start": 4688
      },
      {
        "length": 32,
        "start": 5674
      },
      {
        "length": 32,
        "start": 6094
      }
    ],
    "19172": [
      {
        "length": 32,
        "start": 1197
      },
      {
        "length": 32,
        "start": 2820
      },
      {
        "length": 32,
        "start": 3818
      },
      {
        "length": 32,
        "start": 4642
      },
      {
        "length": 32,
        "start": 6048
      }
    ],
    "19174": [
      {
        "length": 32,
        "start": 1087
      },
      {
        "length": 32,
        "start": 2595
      },
      {
        "length": 32,
        "start": 4532
      },
      {
        "length": 32,
        "start": 5122
      },
      {
        "length": 32,
        "start": 5936
      }
    ],
    "19176": [
      {
        "length": 32,
        "start": 706
      },
      {
        "length": 32,
        "start": 3011
      },
      {
        "length": 32,
        "start": 3459
      },
      {
        "length": 32,
        "start": 4184
      },
      {
        "length": 32,
        "start": 5598
      },
      {
        "length": 32,
        "start": 9062
      }
    ],
    "19178": [
      {
        "length": 32,
        "start": 605
      },
      {
        "length": 32,
        "start": 1998
      },
      {
        "length": 32,
        "start": 3111
      },
      {
        "length": 32,
        "start": 3922
      },
      {
        "length": 32,
        "start": 4089
      },
      {
        "length": 32,
        "start": 5220
      },
      {
        "length": 32,
        "start": 5512
      },
      {
        "length": 32,
        "start": 7235
      }
    ],
    "19180": [
      {
        "length": 32,
        "start": 6630
      },
      {
        "length": 32,
        "start": 8406
      }
    ],
    "19182": [
      {
        "length": 32,
        "start": 2451
      },
      {
        "length": 32,
        "start": 8476
      }
    ],
    "19184": [
      {
        "length": 32,
        "start": 2069
      },
      {
        "length": 32,
        "start": 2316
      }
    ],
    "21979": [
      {
        "length": 32,
        "start": 400
      },
      {
        "length": 32,
        "start": 1894
      },
      {
        "length": 32,
        "start": 2523
      },
      {
        "length": 32,
        "start": 4039
      },
      {
        "length": 32,
        "start": 5346
      }
    ]
  },
  "source": "// SPDX-License-Identifier: MIT\npragma solidity 0.8.21;\n\nimport {TransferHelper} from \"@uniswap/v3-periphery/contracts/libraries/TransferHelper.sol\";\nimport {IERC20} from \"@openzeppelin/contracts/token/ERC20/IERC20.sol\";\n\nimport {IBalancerVault} from \"../interfaces/IBalancerVault.sol\";\nimport {IAuraRewardPool} from \"../interfaces/IAuraRewardPool.sol\";\nimport {IMetaStablePool} from \"../interfaces/IMetaStablePool.sol\";\nimport {IWstETH} from \"../interfaces/IWstETH.sol\";\nimport {IWETH9} from \"../interfaces/IWETH9.sol\";\n\nimport {Strategy} from \"./Strategy.sol\";\nimport {SwappingAggregator} from \"./SwappingAggregator.sol\";\n\ncontract RETHBalancerAuraStrategy is Strategy {\n    uint256 internal immutable MULTIPLIER = 1e18;\n    uint256 internal immutable PERCENTAGE = 1e6;\n    uint256 internal SLIPPAGE = 995000;\n\n    bytes32 internal immutable poolId =\n        0x1e19cf2d73a72ef1332c882f20534b6519be0276000200000000000000000112;\n\n    address public immutable WETH;\n    address public immutable RETH;\n    address public immutable VAULT;\n    address public immutable LP_TOKEN;\n\n    address public immutable AURA_REWARD_POOL;\n    address public immutable BAL_TOKEN;\n    address public immutable AURA_TOKEN;\n    address public immutable EXTRA_REWARD;\n\n    address payable public SWAPPING;\n\n    constructor(\n        address payable _controller,\n        address payable _swap,\n        address _WETH,\n        address _RETH,\n        address _VAULT,\n        address _LP_TOKEN,\n        address _AURA_REWARD_POOL,\n        address _BAL_TOKEN,\n        address _AURA_TOKEN,\n        address _EXTRA_REWARD,\n        bytes32 _poolId\n    ) Strategy(_controller, \"Rocket Pool ETH(rETH)\") {\n        require(_swap != address(0), \"ZERO ADDRESS\");\n\n        SWAPPING = _swap;\n        WETH = _WETH;\n        RETH = _RETH;\n        VAULT = _VAULT;\n        LP_TOKEN = _LP_TOKEN;\n        AURA_REWARD_POOL = _AURA_REWARD_POOL;\n        BAL_TOKEN = _BAL_TOKEN;\n        AURA_TOKEN = _AURA_TOKEN;\n        EXTRA_REWARD = _EXTRA_REWARD;\n        poolId = _poolId;\n    }\n\n    function deposit() public payable override onlyController notAtSameBlock {\n        uint256 amount = msg.value;\n        require(amount != 0, \"zero value\");\n\n        IBalancerVault vault = IBalancerVault(VAULT);\n\n        uint256[] memory amountsIn = new uint256[](2);\n        amountsIn[0] = 0;\n        amountsIn[1] = amount;\n\n        uint256 minimumBPT = getMinLPOutAmount(amount);\n        bytes memory userData = abi.encode(\n            IBalancerVault.JoinKind.EXACT_TOKENS_IN_FOR_BPT_OUT,\n            amountsIn,\n            minimumBPT\n        );\n\n        address[] memory assets = new address[](2);\n        assets[0] = RETH;\n        assets[1] = address(0);\n\n        IBalancerVault.JoinPoolRequest memory joinPoolRequest = IBalancerVault\n            .JoinPoolRequest(assets, amountsIn, userData, false);\n\n        vault.joinPool{value: amount}(\n            poolId,\n            address(this),\n            address(this),\n            joinPoolRequest\n        );\n\n        IERC20 lp = IERC20(LP_TOKEN);\n        uint256 minted = lp.balanceOf(address(this));\n        require(minted > 0, \"mint error\");\n\n        lp.approve(AURA_REWARD_POOL, minted);\n        uint256 share = IAuraRewardPool(AURA_REWARD_POOL).deposit(\n            minted,\n            address(this)\n        );\n\n        require(share > 0, \"mint error\");\n\n        latestUpdateTime = block.timestamp;\n    }\n\n    function withdraw(\n        uint256 _amount\n    )\n        public\n        override\n        onlyController\n        notAtSameBlock\n        returns (uint256 actualAmount)\n    {\n        actualAmount = _withdraw(_amount, false);\n    }\n\n    function instantWithdraw(\n        uint256 _amount\n    )\n        public\n        override\n        onlyController\n        notAtSameBlock\n        returns (uint256 actualAmount)\n    {\n        actualAmount = _withdraw(_amount, true);\n    }\n\n    function _withdraw(\n        uint256 _amount,\n        bool _isInstant\n    ) internal returns (uint256 actualAmount) {\n        require(_amount != 0, \"zero value\");\n\n        uint256 lpOut = getMaxLPOutAmount(_amount);\n        lpOut = lpOut < IERC20(AURA_REWARD_POOL).balanceOf(address(this))\n            ? lpOut\n            : IERC20(AURA_REWARD_POOL).balanceOf(address(this));\n\n        if (lpOut != 0) {\n            IAuraRewardPool rewardPool = IAuraRewardPool(AURA_REWARD_POOL);\n            rewardPool.withdrawAndUnwrap(lpOut, true);\n        }\n\n        uint256 lpBalance = IERC20(LP_TOKEN).balanceOf(address(this));\n        if (lpBalance != 0) {\n            IBalancerVault vault = IBalancerVault(VAULT);\n\n            TransferHelper.safeApprove(LP_TOKEN, VAULT, lpBalance);\n\n            bytes memory userData = abi.encode(\n                IBalancerVault.ExitKind.EXACT_BPT_IN_FOR_ONE_TOKEN_OUT,\n                lpBalance,\n                1\n            );\n\n            address[] memory assets = new address[](2);\n            assets[0] = RETH;\n            assets[1] = WETH;\n\n            uint256[] memory minAmountsOut = new uint256[](2);\n            minAmountsOut[0] = 0;\n            minAmountsOut[1] = getMinTokenOutAmount(lpBalance);\n\n            IBalancerVault.ExitPoolRequest\n                memory exitPoolRequest = IBalancerVault.ExitPoolRequest(\n                    assets,\n                    minAmountsOut,\n                    userData,\n                    false\n                );\n\n            vault.exitPool(\n                poolId,\n                address(this),\n                payable(address(this)),\n                exitPoolRequest\n            );\n        }\n\n        uint256 balance = IERC20(WETH).balanceOf(address(this));\n        if (balance != 0) {\n            IWETH9(WETH).withdraw(balance);\n            actualAmount = address(this).balance;\n        }\n        if (!_isInstant) {\n            sellAllRewards();\n        }\n        actualAmount = actualAmount > _amount ? _amount : actualAmount;\n        TransferHelper.safeTransferETH(controller, address(this).balance);\n\n        latestUpdateTime = block.timestamp;\n    }\n\n    function sellAllRewards() internal returns (uint256 actualAmount) {\n        uint256 balance = IERC20(BAL_TOKEN).balanceOf(address(this));\n        if (balance != 0) {\n            TransferHelper.safeApprove(BAL_TOKEN, SWAPPING, balance);\n            actualAmount = SwappingAggregator(SWAPPING).swap(\n                BAL_TOKEN,\n                balance,\n                true\n            );\n        }\n        balance = IERC20(AURA_TOKEN).balanceOf(address(this));\n        if (balance != 0) {\n            TransferHelper.safeApprove(AURA_TOKEN, SWAPPING, balance);\n            actualAmount =\n                actualAmount +\n                SwappingAggregator(SWAPPING).swap(AURA_TOKEN, balance, true);\n        }\n    }\n\n    function clear() public override onlyController returns (uint256 amount) {\n        uint256 lpOut = IERC20(AURA_REWARD_POOL).balanceOf(address(this));\n        if (lpOut != 0) {\n            IAuraRewardPool rewardPool = IAuraRewardPool(AURA_REWARD_POOL);\n            rewardPool.withdrawAndUnwrap(lpOut, true);\n        }\n        uint256 lpBalance = IERC20(LP_TOKEN).balanceOf(address(this));\n        if (lpBalance != 0) {\n            IBalancerVault vault = IBalancerVault(VAULT);\n\n            TransferHelper.safeApprove(LP_TOKEN, VAULT, lpBalance);\n\n            bytes memory userData = abi.encode(\n                IBalancerVault.ExitKind.EXACT_BPT_IN_FOR_ONE_TOKEN_OUT,\n                lpBalance,\n                1\n            );\n\n            address[] memory assets = new address[](2);\n            assets[0] = RETH;\n            assets[1] = WETH;\n\n            uint256[] memory minAmountsOut = new uint256[](2);\n            minAmountsOut[0] = 0;\n            minAmountsOut[1] = getMinTokenOutAmount(lpBalance);\n\n            IBalancerVault.ExitPoolRequest\n                memory exitPoolRequest = IBalancerVault.ExitPoolRequest(\n                    assets,\n                    minAmountsOut,\n                    userData,\n                    false\n                );\n\n            vault.exitPool(\n                poolId,\n                address(this),\n                payable(address(this)),\n                exitPoolRequest\n            );\n        }\n\n        uint256 balance = IERC20(WETH).balanceOf(address(this));\n        if (balance != 0) {\n            IWETH9(WETH).withdraw(balance);\n            amount = address(this).balance;\n        }\n\n        amount = amount + sellAllRewards();\n        TransferHelper.safeTransferETH(controller, address(this).balance);\n    }\n\n    function getExtraRewards() public view returns (uint256 bal, uint256 aura) {\n        bal = IAuraRewardPool(AURA_REWARD_POOL).earned(address(this));\n        aura = IAuraRewardPool(EXTRA_REWARD).earned(address(this));\n    }\n\n    function claimRewards() public {\n        IAuraRewardPool rewardPool = IAuraRewardPool(AURA_REWARD_POOL);\n        rewardPool.withdrawAndUnwrap(0, true);\n    }\n\n    function getAllValue() public override returns (uint256 value) {\n        value = getInvestedValue();\n    }\n\n    function getInvestedValue() public override returns (uint256 value) {\n        return\n            address(this).balance +\n            (IERC20(AURA_REWARD_POOL).balanceOf(address(this)) *\n                getOnchainLpPrice()) /\n            MULTIPLIER;\n    }\n\n    function getPendingValue() public override returns (uint256 value) {\n        return 0;\n    }\n\n    function checkPendingStatus()\n        public\n        override\n        returns (uint256 pending, uint256 executable)\n    {\n        return (0, 0);\n    }\n\n    function getOnchainLpPrice() public view returns (uint256) {\n        return IMetaStablePool(LP_TOKEN).getRate();\n    }\n\n    function getMinLPOutAmount(uint256 _eAmount) internal returns (uint256) {\n        return\n            (_eAmount * SLIPPAGE * MULTIPLIER) /\n            PERCENTAGE /\n            getOnchainLpPrice();\n    }\n\n    function getMaxLPOutAmount(uint256 _eAmount) internal returns (uint256) {\n        return\n            (_eAmount * PERCENTAGE * MULTIPLIER) /\n            SLIPPAGE /\n            getOnchainLpPrice();\n    }\n\n    function getMinTokenOutAmount(\n        uint256 _lpAmount\n    ) internal returns (uint256) {\n        return\n            (_lpAmount * SLIPPAGE * getOnchainLpPrice()) /\n            PERCENTAGE /\n            MULTIPLIER;\n    }\n\n    function setSlippage(uint256 _slippage) external onlyGovernance {\n        SLIPPAGE = _slippage;\n    }\n\n    function setAggregator(address _aggregator) external onlyGovernance {\n        SWAPPING = payable(_aggregator);\n    }\n\n    receive() external payable {}\n}\n",
  "sourcePath": "/Users/mingyuzhang/Downloads/stone-vault-v1/contracts/strategies/RETHBalancerAuraStrategy.sol",
  "compiler": {
    "name": "solc",
    "version": "0.8.21+commit.d9974bed.Emscripten.clang"
  },
  "schemaVersion": "3.4.16",
  "updatedAt": "2024-06-07T05:41:32.637Z",
  "devdoc": {
    "kind": "dev",
    "methods": {},
    "version": 1
  },
  "userdoc": {
    "kind": "user",
    "methods": {},
    "version": 1
  }
}