{
  "contractName": "RETHHoldingStrategy",
  "abi": [
    {
      "inputs": [
        {
          "internalType": "address payable",
          "name": "_controller",
          "type": "address"
        },
        {
          "internalType": "address payable",
          "name": "_swap",
          "type": "address"
        },
        {
          "internalType": "string",
          "name": "_name",
          "type": "string"
        }
      ],
      "stateMutability": "nonpayable",
      "type": "constructor"
    },
    {
      "anonymous": false,
      "inputs": [
        {
          "indexed": false,
          "internalType": "address",
          "name": "oldOwner",
          "type": "address"
        },
        {
          "indexed": false,
          "internalType": "address",
          "name": "newOwner",
          "type": "address"
        }
      ],
      "name": "TransferGovernance",
      "type": "event"
    },
    {
      "inputs": [],
      "name": "RETH",
      "outputs": [
        {
          "internalType": "address",
          "name": "",
          "type": "address"
        }
      ],
      "stateMutability": "view",
      "type": "function"
    },
    {
      "inputs": [],
      "name": "ROCKET_DEPOSIT_POOL",
      "outputs": [
        {
          "internalType": "address",
          "name": "",
          "type": "address"
        }
      ],
      "stateMutability": "view",
      "type": "function"
    },
    {
      "inputs": [],
      "name": "SWAPPING",
      "outputs": [
        {
          "internalType": "address payable",
          "name": "",
          "type": "address"
        }
      ],
      "stateMutability": "view",
      "type": "function"
    },
    {
      "inputs": [],
      "name": "bufferTime",
      "outputs": [
        {
          "internalType": "uint256",
          "name": "",
          "type": "uint256"
        }
      ],
      "stateMutability": "view",
      "type": "function"
    },
    {
      "inputs": [],
      "name": "buyOnDex",
      "outputs": [
        {
          "internalType": "bool",
          "name": "",
          "type": "bool"
        }
      ],
      "stateMutability": "view",
      "type": "function"
    },
    {
      "inputs": [],
      "name": "controller",
      "outputs": [
        {
          "internalType": "address payable",
          "name": "",
          "type": "address"
        }
      ],
      "stateMutability": "view",
      "type": "function"
    },
    {
      "inputs": [
        {
          "internalType": "uint256",
          "name": "_amount",
          "type": "uint256"
        }
      ],
      "name": "execPendingRequest",
      "outputs": [
        {
          "internalType": "uint256",
          "name": "amount",
          "type": "uint256"
        }
      ],
      "stateMutability": "nonpayable",
      "type": "function"
    },
    {
      "inputs": [],
      "name": "governance",
      "outputs": [
        {
          "internalType": "address",
          "name": "",
          "type": "address"
        }
      ],
      "stateMutability": "view",
      "type": "function"
    },
    {
      "inputs": [],
      "name": "latestUpdateTime",
      "outputs": [
        {
          "internalType": "uint256",
          "name": "",
          "type": "uint256"
        }
      ],
      "stateMutability": "view",
      "type": "function"
    },
    {
      "inputs": [],
      "name": "name",
      "outputs": [
        {
          "internalType": "string",
          "name": "",
          "type": "string"
        }
      ],
      "stateMutability": "view",
      "type": "function"
    },
    {
      "inputs": [],
      "name": "sellOnDex",
      "outputs": [
        {
          "internalType": "bool",
          "name": "",
          "type": "bool"
        }
      ],
      "stateMutability": "view",
      "type": "function"
    },
    {
      "inputs": [
        {
          "internalType": "uint256",
          "name": "_time",
          "type": "uint256"
        }
      ],
      "name": "setBufferTime",
      "outputs": [],
      "stateMutability": "nonpayable",
      "type": "function"
    },
    {
      "inputs": [
        {
          "internalType": "address",
          "name": "governance_",
          "type": "address"
        }
      ],
      "name": "setGovernance",
      "outputs": [],
      "stateMutability": "nonpayable",
      "type": "function"
    },
    {
      "stateMutability": "payable",
      "type": "receive"
    },
    {
      "inputs": [],
      "name": "deposit",
      "outputs": [],
      "stateMutability": "payable",
      "type": "function"
    },
    {
      "inputs": [
        {
          "internalType": "uint256",
          "name": "_amount",
          "type": "uint256"
        }
      ],
      "name": "withdraw",
      "outputs": [
        {
          "internalType": "uint256",
          "name": "actualAmount",
          "type": "uint256"
        }
      ],
      "stateMutability": "nonpayable",
      "type": "function"
    },
    {
      "inputs": [
        {
          "internalType": "uint256",
          "name": "_amount",
          "type": "uint256"
        }
      ],
      "name": "instantWithdraw",
      "outputs": [
        {
          "internalType": "uint256",
          "name": "actualAmount",
          "type": "uint256"
        }
      ],
      "stateMutability": "nonpayable",
      "type": "function"
    },
    {
      "inputs": [],
      "name": "clear",
      "outputs": [
        {
          "internalType": "uint256",
          "name": "actualAmount",
          "type": "uint256"
        }
      ],
      "stateMutability": "nonpayable",
      "type": "function"
    },
    {
      "inputs": [],
      "name": "getAllValue",
      "outputs": [
        {
          "internalType": "uint256",
          "name": "value",
          "type": "uint256"
        }
      ],
      "stateMutability": "nonpayable",
      "type": "function"
    },
    {
      "inputs": [],
      "name": "getInvestedValue",
      "outputs": [
        {
          "internalType": "uint256",
          "name": "value",
          "type": "uint256"
        }
      ],
      "stateMutability": "nonpayable",
      "type": "function"
    },
    {
      "inputs": [],
      "name": "getPendingValue",
      "outputs": [
        {
          "internalType": "uint256",
          "name": "value",
          "type": "uint256"
        }
      ],
      "stateMutability": "nonpayable",
      "type": "function"
    },
    {
      "inputs": [],
      "name": "checkPendingStatus",
      "outputs": [
        {
          "internalType": "uint256",
          "name": "pending",
          "type": "uint256"
        },
        {
          "internalType": "uint256",
          "name": "executable",
          "type": "uint256"
        }
      ],
      "stateMutability": "nonpayable",
      "type": "function"
    },
    {
      "inputs": [
        {
          "internalType": "bool",
          "name": "_buyOnDex",
          "type": "bool"
        },
        {
          "internalType": "bool",
          "name": "_sellOnDex",
          "type": "bool"
        }
      ],
      "name": "setRouter",
      "outputs": [],
      "stateMutability": "nonpayable",
      "type": "function"
    }
  ],
  "bytecode": "0x610100604052346200031f5762001541803803806200001e8162000323565b92833981016060828203126200031f57620000398262000349565b60206200004881850162000349565b60408501516001600160401b03959194918682116200031f570190601f908082840112156200031f578251878111620002f657601f1993620000908285018616870162000323565b928284528683830101116200031f5785905f5b8381106200030a5750505f9183010152600c6002556001600160a01b0394620000d081871615156200035e565b5f80546001600160a01b031916331790556080528051968711620002f6576003938454936001948581811c91168015620002eb575b83821014620002d7578481116200028f575b50819389116001146200022857505095809281926200018397985f946200021c575b50501b915f1990841b1c19161790555b73dd3f50f8a6cafbe9b31a427582963f465e745af860a05273ae78736cd615f374d3085123a210448e74fc639360c052821615156200035e565b60e0526040516111a690816200039b82396080518181816101380152818161018c015281816101f901528181610641015281816106b901528181610afb0152610f22015260a05181818161025101526106fd015260c05181818161036f0152818161059501528181610a0501528181610e920152611053015260e0518181816103a30152818161055101528181610b560152610f720152f35b015192505f8062000139565b88939192981697855f52825f20925f905b8a82106200027757505083620001839899106200025f575b505050811b01905562000149565b01515f1983861b60f8161c191690555f808062000251565b80878596829496860151815501950193019062000239565b865f52825f2085808c0160051c820192858d10620002cd575b0160051c019086905b828110620002c157505062000117565b5f8155018690620002b1565b92508192620002a8565b634e487b7160e01b5f52602260045260245ffd5b90607f169062000105565b634e487b7160e01b5f52604160045260245ffd5b818101830151858201840152879201620000a3565b5f80fd5b6040519190601f01601f191682016001600160401b03811183821017620002f657604052565b51906001600160a01b03821682036200031f57565b156200036657565b60405162461bcd60e51b815260206004820152600c60248201526b5a45524f204144445245535360a01b6044820152606490fdfe6080604081815260049182361015610021575b505050361561001f575f80fd5b005b5f90813560e01c9081621a55971461087e5750806306fdde031461075a5780631aac030c1461072c5780632dcd62ac146106e85780632e1a7d4d1461069a57806334dfd55c1461067857806352efea6e146106275780635aa6e675146105ff5780636c23ab4c146105c457806375421af3146105e15780637654f7ab146105c45780638265b121146105805780638abd97fb1461053c5780638c9bd7c614610517578063924f4f6e146104fb578063a7ea3b11146104a1578063ab033ea914610426578063ba7b670314610407578063d0e30db0146101de578063dd07d288146101bf578063f77c4791146101775763fd92bff2036100125734610174576020366003190112610174575060209161016d906101677f00000000000000000000000000000000000000000000000000000000000000006001600160a01b031633146108df565b356109b6565b9051908152f35b80fd5b5090346101bb57816003193601126101bb57517f00000000000000000000000000000000000000000000000000000000000000006001600160a01b03168152602090f35b5080fd5b5090346101bb57816003193601126101bb576020906001549051908152f35b50919082600319360112610403576001600160a01b036102217f0000000000000000000000000000000000000000000000000000000000000000821633146108df565b61023b6102336001546002549061091c565b42101561093d565b61024634151561097d565b825460ff16610356577f0000000000000000000000000000000000000000000000000000000000000000168151630f6edb1360e11b81526020818581855afa90811561034c578591610317575b503410156102e7578084913b156101bb578251630d0e30db60e41b8152938491829034905af19081156102de57506102cf575b505b4260015580f35b6102d890610897565b5f6102c6565b513d84823e3d90fd5b815162461bcd60e51b8152602081850152600a6024820152690caf0c6cacac840dac2f60b31b6044820152606490fd5b90506020813d8211610344575b81610331602093836108be565b8101031261034057515f610293565b8480fd5b3d9150610324565b83513d87823e3d90fd5b91602090606483518095819363919722bb60e01b8352817f0000000000000000000000000000000000000000000000000000000000000000169083015234602483015287604483015234907f0000000000000000000000000000000000000000000000000000000000000000165af19081156102de57506103d8575b506102c8565b602090813d81116103fc575b6103ee81836108be565b81010312610174575f6103d2565b503d6103e4565b8280fd5b5090346101bb57816003193601126101bb576020906002549051908152f35b509134610403576020366003190112610403576001600160a01b039035818116929083900361049d577f2276211a3f2c7bc1943fe83cc63f8f970204ff6a4b83c690df2bc54d8f2792ad908454928316610481338214611134565b8151908152846020820152a16001600160a01b03191617815580f35b8380fd5b50919034610403573660031901126101bb5780358015158091036104035760243580151580910361049d576104e060018060a01b038554163314611134565b60ff61ff0084549260081b1692169061ffff19161717905580f35b5090346101bb5760203660031901126101bb5751908152602090f35b50346101745780600319360112610174575060ff6020925460081c1690519015158152f35b5090346101bb57816003193601126101bb57517f00000000000000000000000000000000000000000000000000000000000000006001600160a01b03168152602090f35b5090346101bb57816003193601126101bb57517f00000000000000000000000000000000000000000000000000000000000000006001600160a01b03168152602090f35b5090346101bb57816003193601126101bb5760209061016d61103e565b50346101745780600319360112610174578151908082526020820152f35b5090346101bb57816003193601126101bb57905490516001600160a01b039091168152602090f35b5090346101bb57816003193601126101bb576020906106707f00000000000000000000000000000000000000000000000000000000000000006001600160a01b031633146108df565b61016d610e72565b50346101745780600319360112610174575060ff602092541690519015158152f35b5034610174576020366003190112610174575060209161016d906101677f00000000000000000000000000000000000000000000000000000000000000006001600160a01b031633146108df565b5090346101bb57816003193601126101bb57517f00000000000000000000000000000000000000000000000000000000000000006001600160a01b03168152602090f35b5082346101bb5760203660031901126101bb5761075360018060a01b038354163314611134565b3560025580f35b503461017457806003193601126101745781519080600354600181811c918181168015610874575b602098898510821461086157509183918995938895865290815f146108405750600114610802575b50506107bc92509593929503826108be565b82519382859384528251928382860152825b8481106107ec57505050828201840152601f01601f19168101030190f35b81810183015188820188015287955082016107ce565b600386528486209492508591905b8183106108285750889450508201016107bc5f6107aa565b85548884018501529485019487945091830191610810565b9150506107bc94925060ff191682840152151560051b82010186925f6107aa565b634e487b7160e01b875260229052602486fd5b92607f1692610782565b9050346101bb57816003193601126101bb576020918152f35b6001600160401b0381116108aa57604052565b634e487b7160e01b5f52604160045260245ffd5b90601f801991011681019081106001600160401b038211176108aa57604052565b156108e657565b60405162461bcd60e51b815260206004820152600e60248201526d3737ba1031b7b73a3937b63632b960911b6044820152606490fd5b9190820180921161092957565b634e487b7160e01b5f52601160045260245ffd5b1561094457565b60405162461bcd60e51b81526020600482015260116024820152706174207468652073616d6520626c6f636b60781b6044820152606490fd5b1561098457565b60405162461bcd60e51b815260206004820152600a6024820152697a65726f2076616c756560b01b6044820152606490fd5b6109d1906109cc6102336001546002549061091c565b6109d4565b90565b905f916109e281151561097d565b604080516321a3781f60e11b80825260048083018590526001600160a01b0396937f000000000000000000000000000000000000000000000000000000000000000088811694919390926024929091602091828186818b5afa908115610cee578991610cbd575b5086516370a0823160e01b808252308683015291848288818d5afa918215610cb3578b92610c80575b501015610c2b575085519081528883820152818185818a5afa908115610c21578891610bf0575b50935b8415610be35787908b60ff855460081c16155f14610b435750505050843b15610b3f57908592918385519687948593630852cd8d60e31b85528401525af19081156102de5750610b30575b505b5047811015610b2657610b20905b80937f000000000000000000000000000000000000000000000000000000000000000016610e0d565b42600155565b50610b2047610af7565b610b3990610897565b5f610ae7565b8580fd5b9086610b7d859a96949398606496989a997f0000000000000000000000000000000000000000000000000000000000000000168094610d36565b8751988996879563919722bb60e01b8752860152840152600160448401525af1908115610bda5750610bb1575b5050610ae9565b813d8311610bd3575b610bc481836108be565b81010312610174575f80610baa565b503d610bba565b513d85823e3d90fd5b5095985050505050505050565b90508181813d8311610c1a575b610c0781836108be565b81010312610c1657515f610a99565b8780fd5b503d610bfd565b86513d8a823e3d90fd5b905085519081523083820152818185818a5afa908115610c21578891610c53575b5093610a9c565b90508181813d8311610c79575b610c6a81836108be565b81010312610c1657515f610c4c565b503d610c60565b9091508481813d8311610cac575b610c9881836108be565b81010312610ca85751905f610a72565b8a80fd5b503d610c8e565b89513d8d823e3d90fd5b90508281813d8311610ce7575b610cd481836108be565b81010312610ce357515f610a49565b8880fd5b503d610cca565b87513d8b823e3d90fd5b3d15610d31573d906001600160401b0382116108aa5760405191610d26601f8201601f1916602001846108be565b82523d5f602084013e565b606090565b60405163095ea7b360e01b602082019081526001600160a01b03909316602482015260448082019490945292835291608081016001600160401b038111828210176108aa576040525f92839283809351925af190610d92610cf8565b9082610dcc575b505015610da257565b60405162461bcd60e51b8152602060048201526002602482015261534160f01b6044820152606490fd5b9080925051918215928315610de6575b5050505f80610d99565b8192935090602091810103126101bb576020015190811515820361017457505f8080610ddc565b60405160208101908082106001600160401b038311176108aa575f938493848094938194604052525af1610e3f610cf8565b5015610e4757565b60405162461bcd60e51b815260206004820152600360248201526253544560e81b6044820152606490fd5b604080516370a0823160e01b81523060048201526001600160a01b0392917f000000000000000000000000000000000000000000000000000000000000000084811692906020908183602481885afa928315611034575f93611005575b508215610ffb5760045460081c60ff16610f65575050823b15610f61575f926024849284519586938492630852cd8d60e31b845260048401525af1908115610f585750610f49575b505b610f47479247907f000000000000000000000000000000000000000000000000000000000000000016610e0d565b565b610f5290610897565b5f610f17565b513d5f823e3d90fd5b5f80fd5b929160648295610f99838a7f0000000000000000000000000000000000000000000000000000000000000000168098610d36565b5f8551968794859363919722bb60e01b855260048501526024840152600160448401525af1908115610f585750610fd2575b5050610f19565b813d8311610ff4575b610fe581836108be565b81010312610f61575f80610fcb565b503d610fdb565b505f955050505050565b90928282813d831161102d575b61101c81836108be565b81010312610174575051915f610ecf565b503d611012565b84513d5f823e3d90fd5b6040516370a0823160e01b81523060048201527f00000000000000000000000000000000000000000000000000000000000000006001600160a01b0316906020908181602481865afa80156110fb5782915f91611106575b50602460405180958193638b32fa2360e01b835260048301525afa9081156110fb575f916110cc575b506109d19150479061091c565b82813d83116110f4575b6110e081836108be565b8101031261017457506109d190515f6110bf565b503d6110d6565b6040513d5f823e3d90fd5b9182813d831161112d575b61111b81836108be565b8101031261017457508190515f611096565b503d611111565b1561113b57565b60405162461bcd60e51b815260206004820152600d60248201526c6e6f7420676f7665726e61636560981b6044820152606490fdfea26469706673582212201ec55a8a9f6ec7ad902e3152d170d129596c3e5d97c5cb36ed9ce50144a9fa0b64736f6c63430008150033",
  "immutableReferences": {
    "20265": [
      {
        "length": 32,
        "start": 593
      },
      {
        "length": 32,
        "start": 1789
      }
    ],
    "20268": [
      {
        "length": 32,
        "start": 879
      },
      {
        "length": 32,
        "start": 1429
      },
      {
        "length": 32,
        "start": 2565
      },
      {
        "length": 32,
        "start": 3730
      },
      {
        "length": 32,
        "start": 4179
      }
    ],
    "20270": [
      {
        "length": 32,
        "start": 931
      },
      {
        "length": 32,
        "start": 1361
      },
      {
        "length": 32,
        "start": 2902
      },
      {
        "length": 32,
        "start": 3954
      }
    ],
    "21979": [
      {
        "length": 32,
        "start": 312
      },
      {
        "length": 32,
        "start": 396
      },
      {
        "length": 32,
        "start": 505
      },
      {
        "length": 32,
        "start": 1601
      },
      {
        "length": 32,
        "start": 1721
      },
      {
        "length": 32,
        "start": 2811
      },
      {
        "length": 32,
        "start": 3874
      }
    ]
  },
  "source": "// SPDX-License-Identifier: MIT\npragma solidity 0.8.21;\n\nimport {TransferHelper} from \"@uniswap/v3-periphery/contracts/libraries/TransferHelper.sol\";\n\nimport {IRocketDepositPool} from \"../interfaces/IRocketDepositPool.sol\";\nimport {IRocketTokenRETH} from \"../interfaces/IRocketTokenRETH.sol\";\n\nimport {Strategy} from \"./Strategy.sol\";\nimport {SwappingAggregator} from \"./SwappingAggregator.sol\";\n\ncontract RETHHoldingStrategy is Strategy {\n    address public immutable ROCKET_DEPOSIT_POOL =\n        0xDD3f50F8A6CafbE9b31a427582963f465E745AF8;\n\n    address public immutable RETH = 0xae78736Cd615f374D3085123A210448E74Fc6393;\n\n    address payable public immutable SWAPPING;\n\n    bool public buyOnDex;\n    bool public sellOnDex;\n\n    constructor(\n        address payable _controller,\n        address payable _swap,\n        string memory _name\n    ) Strategy(_controller, _name) {\n        require(_swap != address(0), \"ZERO ADDRESS\");\n\n        SWAPPING = _swap;\n    }\n\n    function deposit() public payable override onlyController notAtSameBlock {\n        uint256 amount = msg.value;\n        require(amount != 0, \"zero value\");\n\n        if (!buyOnDex) {\n            IRocketDepositPool pool = IRocketDepositPool(ROCKET_DEPOSIT_POOL);\n            uint256 max = pool.getMaximumDepositAmount();\n            require(amount < max, \"exceed max\");\n\n            pool.deposit{value: amount}();\n        } else {\n            SwappingAggregator(SWAPPING).swap{value: amount}(\n                RETH,\n                amount,\n                false\n            );\n        }\n\n        latestUpdateTime = block.timestamp;\n    }\n\n    function withdraw(\n        uint256 _amount\n    )\n        public\n        override\n        onlyController\n        notAtSameBlock\n        returns (uint256 actualAmount)\n    {\n        actualAmount = _withdraw(_amount);\n    }\n\n    function instantWithdraw(\n        uint256 _amount\n    )\n        public\n        override\n        onlyController\n        notAtSameBlock\n        returns (uint256 actualAmount)\n    {\n        actualAmount = _withdraw(_amount);\n    }\n\n    function _withdraw(\n        uint256 _amount\n    ) internal returns (uint256 actualAmount) {\n        require(_amount != 0, \"zero value\");\n\n        IRocketTokenRETH rETH = IRocketTokenRETH(RETH);\n\n        uint256 rETHAmount = rETH.getRethValue(_amount) <\n            IRocketTokenRETH(RETH).balanceOf(address(this))\n            ? rETH.getRethValue(_amount)\n            : IRocketTokenRETH(RETH).balanceOf(address(this));\n\n        if (rETHAmount == 0) {\n            return 0;\n        }\n\n        if (!sellOnDex) {\n            rETH.burn(rETHAmount);\n        } else {\n            TransferHelper.safeApprove(RETH, SWAPPING, rETHAmount);\n            SwappingAggregator(SWAPPING).swap(RETH, rETHAmount, true);\n        }\n\n        actualAmount = address(this).balance > _amount\n            ? _amount\n            : address(this).balance;\n\n        TransferHelper.safeTransferETH(controller, actualAmount);\n\n        latestUpdateTime = block.timestamp;\n    }\n\n    function clear()\n        public\n        override\n        onlyController\n        returns (uint256 actualAmount)\n    {\n        IRocketTokenRETH rETH = IRocketTokenRETH(RETH);\n        uint256 amount = rETH.balanceOf(address(this));\n\n        if (amount == 0) {\n            return 0;\n        }\n\n        if (!sellOnDex) {\n            rETH.burn(amount);\n        } else {\n            TransferHelper.safeApprove(RETH, SWAPPING, amount);\n            SwappingAggregator(SWAPPING).swap(RETH, amount, true);\n        }\n\n        actualAmount = address(this).balance;\n        TransferHelper.safeTransferETH(controller, address(this).balance);\n    }\n\n    function getAllValue() public override returns (uint256 value) {\n        value = getInvestedValue() + getPendingValue();\n    }\n\n    function getInvestedValue() public override returns (uint256 value) {\n        IRocketTokenRETH rETH = IRocketTokenRETH(RETH);\n\n        value =\n            rETH.getEthValue(rETH.balanceOf(address(this))) +\n            address(this).balance;\n    }\n\n    function getPendingValue() public override returns (uint256 value) {\n        return 0;\n    }\n\n    function checkPendingStatus()\n        public\n        override\n        returns (uint256 pending, uint256 executable)\n    {\n        return (0, 0);\n    }\n\n    function setRouter(\n        bool _buyOnDex,\n        bool _sellOnDex\n    ) external onlyGovernance {\n        buyOnDex = _buyOnDex;\n        sellOnDex = _sellOnDex;\n    }\n\n    receive() external payable {}\n}\n",
  "sourcePath": "/Users/mingyuzhang/Downloads/stone-vault-v1/contracts/strategies/RETHHoldingStrategy.sol",
  "compiler": {
    "name": "solc",
    "version": "0.8.21+commit.d9974bed.Emscripten.clang"
  },
  "schemaVersion": "3.4.16",
  "updatedAt": "2024-06-07T05:41:32.639Z",
  "devdoc": {
    "kind": "dev",
    "methods": {},
    "version": 1
  },
  "userdoc": {
    "kind": "user",
    "methods": {},
    "version": 1
  }
}