{
  "contractName": "SFraxETHHoldingStrategy",
  "abi": [
    {
      "inputs": [
        {
          "internalType": "address payable",
          "name": "_controller",
          "type": "address"
        },
        {
          "internalType": "address payable",
          "name": "_swap",
          "type": "address"
        },
        {
          "internalType": "string",
          "name": "_name",
          "type": "string"
        }
      ],
      "stateMutability": "nonpayable",
      "type": "constructor"
    },
    {
      "anonymous": false,
      "inputs": [
        {
          "indexed": false,
          "internalType": "address",
          "name": "oldOwner",
          "type": "address"
        },
        {
          "indexed": false,
          "internalType": "address",
          "name": "newOwner",
          "type": "address"
        }
      ],
      "name": "TransferGovernance",
      "type": "event"
    },
    {
      "inputs": [],
      "name": "FRXETH",
      "outputs": [
        {
          "internalType": "address",
          "name": "",
          "type": "address"
        }
      ],
      "stateMutability": "view",
      "type": "function"
    },
    {
      "inputs": [],
      "name": "FRXETH_MINTER",
      "outputs": [
        {
          "internalType": "address",
          "name": "",
          "type": "address"
        }
      ],
      "stateMutability": "view",
      "type": "function"
    },
    {
      "inputs": [],
      "name": "SFRXETH",
      "outputs": [
        {
          "internalType": "address",
          "name": "",
          "type": "address"
        }
      ],
      "stateMutability": "view",
      "type": "function"
    },
    {
      "inputs": [],
      "name": "SWAPPING",
      "outputs": [
        {
          "internalType": "address payable",
          "name": "",
          "type": "address"
        }
      ],
      "stateMutability": "view",
      "type": "function"
    },
    {
      "inputs": [],
      "name": "bufferTime",
      "outputs": [
        {
          "internalType": "uint256",
          "name": "",
          "type": "uint256"
        }
      ],
      "stateMutability": "view",
      "type": "function"
    },
    {
      "inputs": [],
      "name": "buyOnDex",
      "outputs": [
        {
          "internalType": "bool",
          "name": "",
          "type": "bool"
        }
      ],
      "stateMutability": "view",
      "type": "function"
    },
    {
      "inputs": [],
      "name": "controller",
      "outputs": [
        {
          "internalType": "address payable",
          "name": "",
          "type": "address"
        }
      ],
      "stateMutability": "view",
      "type": "function"
    },
    {
      "inputs": [
        {
          "internalType": "uint256",
          "name": "_amount",
          "type": "uint256"
        }
      ],
      "name": "execPendingRequest",
      "outputs": [
        {
          "internalType": "uint256",
          "name": "amount",
          "type": "uint256"
        }
      ],
      "stateMutability": "nonpayable",
      "type": "function"
    },
    {
      "inputs": [],
      "name": "governance",
      "outputs": [
        {
          "internalType": "address",
          "name": "",
          "type": "address"
        }
      ],
      "stateMutability": "view",
      "type": "function"
    },
    {
      "inputs": [],
      "name": "latestUpdateTime",
      "outputs": [
        {
          "internalType": "uint256",
          "name": "",
          "type": "uint256"
        }
      ],
      "stateMutability": "view",
      "type": "function"
    },
    {
      "inputs": [],
      "name": "name",
      "outputs": [
        {
          "internalType": "string",
          "name": "",
          "type": "string"
        }
      ],
      "stateMutability": "view",
      "type": "function"
    },
    {
      "inputs": [],
      "name": "sellOnDex",
      "outputs": [
        {
          "internalType": "bool",
          "name": "",
          "type": "bool"
        }
      ],
      "stateMutability": "view",
      "type": "function"
    },
    {
      "inputs": [
        {
          "internalType": "uint256",
          "name": "_time",
          "type": "uint256"
        }
      ],
      "name": "setBufferTime",
      "outputs": [],
      "stateMutability": "nonpayable",
      "type": "function"
    },
    {
      "inputs": [
        {
          "internalType": "address",
          "name": "governance_",
          "type": "address"
        }
      ],
      "name": "setGovernance",
      "outputs": [],
      "stateMutability": "nonpayable",
      "type": "function"
    },
    {
      "stateMutability": "payable",
      "type": "receive"
    },
    {
      "inputs": [],
      "name": "deposit",
      "outputs": [],
      "stateMutability": "payable",
      "type": "function"
    },
    {
      "inputs": [
        {
          "internalType": "uint256",
          "name": "_amount",
          "type": "uint256"
        }
      ],
      "name": "withdraw",
      "outputs": [
        {
          "internalType": "uint256",
          "name": "actualAmount",
          "type": "uint256"
        }
      ],
      "stateMutability": "nonpayable",
      "type": "function"
    },
    {
      "inputs": [
        {
          "internalType": "uint256",
          "name": "_amount",
          "type": "uint256"
        }
      ],
      "name": "instantWithdraw",
      "outputs": [
        {
          "internalType": "uint256",
          "name": "actualAmount",
          "type": "uint256"
        }
      ],
      "stateMutability": "nonpayable",
      "type": "function"
    },
    {
      "inputs": [],
      "name": "clear",
      "outputs": [
        {
          "internalType": "uint256",
          "name": "amount",
          "type": "uint256"
        }
      ],
      "stateMutability": "nonpayable",
      "type": "function"
    },
    {
      "inputs": [],
      "name": "getAllValue",
      "outputs": [
        {
          "internalType": "uint256",
          "name": "value",
          "type": "uint256"
        }
      ],
      "stateMutability": "nonpayable",
      "type": "function"
    },
    {
      "inputs": [],
      "name": "getInvestedValue",
      "outputs": [
        {
          "internalType": "uint256",
          "name": "value",
          "type": "uint256"
        }
      ],
      "stateMutability": "nonpayable",
      "type": "function"
    },
    {
      "inputs": [],
      "name": "getPendingValue",
      "outputs": [
        {
          "internalType": "uint256",
          "name": "value",
          "type": "uint256"
        }
      ],
      "stateMutability": "nonpayable",
      "type": "function"
    },
    {
      "inputs": [],
      "name": "checkPendingStatus",
      "outputs": [
        {
          "internalType": "uint256",
          "name": "pending",
          "type": "uint256"
        },
        {
          "internalType": "uint256",
          "name": "executable",
          "type": "uint256"
        }
      ],
      "stateMutability": "view",
      "type": "function"
    },
    {
      "inputs": [
        {
          "internalType": "bool",
          "name": "_buyOnDex",
          "type": "bool"
        },
        {
          "internalType": "bool",
          "name": "_sellOnDex",
          "type": "bool"
        }
      ],
      "name": "setRouter",
      "outputs": [],
      "stateMutability": "nonpayable",
      "type": "function"
    }
  ],
  "bytecode": "0x610120604052346200034f57620015e2803803806200001e8162000353565b92833981016060828203126200034f57620000398262000379565b60206200004881850162000379565b60408501516001600160401b03959194918682116200034f570190601f908082840112156200034f5782518781116200032657601f1993620000908285018616870162000353565b928284528683830101116200034f5785905f5b8381106200033a5750505f9183010152600c6002556001600160a01b0394620000d081871615156200038e565b5f80546001600160a01b03191633179055608052805196871162000326576003938454936001948581811c911680156200031b575b838210146200030757848111620002bf575b50819389116001146200025857505095809281926200019b97985f946200024c575b50501b915f1990841b1c19161790555b735e8422345238f34275888049021821e8e08caa1f60a05273bafa44efe7901e04e39dad13167d089c559c113860c05273ac3e018457b222d93114458476f3e3416abbe38f60e052821615156200038e565b6101009081526040516112179182620003cb83396080518281816101430152818161019701528181610249015281816106e0015281816109a50152610ea4015260a0518281816101df0152818161032e015281816107930152610edc015260c0518281816102bd0152610a17015260e0518281816103e8015281816107250152818161093501528181610de8015261112101525181818161037c01528181610631015281816107b60152610eff0152f35b015192505f8062000139565b88939192981697855f52825f20925f905b8a8210620002a7575050836200019b9899106200028f575b505050811b01905562000149565b01515f1983861b60f8161c191690555f808062000281565b80878596829496860151815501950193019062000269565b865f52825f2085808c0160051c820192858d10620002fd575b0160051c019086905b828110620002f157505062000117565b5f8155018690620002e1565b92508192620002d8565b634e487b7160e01b5f52602260045260245ffd5b90607f169062000105565b634e487b7160e01b5f52604160045260245ffd5b818101830151858201840152879201620000a3565b5f80fd5b6040519190601f01601f191682016001600160401b038111838210176200032657604052565b51906001600160a01b03821682036200034f57565b156200039657565b60405162461bcd60e51b815260206004820152600c60248201526b5a45524f204144445245535360a01b6044820152606490fdfe6080604081815260049182361015610021575b505050361561001f575f80fd5b005b5f90813560e01c9081621a559714610b6a5750806306fdde0314610a4657806313b285e514610a025780631aac030c146109d45780632e1a7d4d1461098657806334dfd55c1461096457806335da603d1461092057806352efea6e146106c35780635aa6e6751461069b5780636c23ab4c1461066057806375421af31461067d5780637654f7ab146106605780638abd97fb1461061c5780638c9bd7c6146105f7578063924f4f6e146105db578063a7ea3b1114610581578063ab033ea91461050a578063ba7b6703146104eb578063d0e30db01461022d578063dd07d2881461020e578063ea64f90d146101ca578063f77c4791146101825763fd92bff203610012573461017f57602036600319011261017f5750602091610178906101727f00000000000000000000000000000000000000000000000000000000000000006001600160a01b03163314610bb8565b35610da4565b9051908152f35b80fd5b5090346101c657816003193601126101c657517f00000000000000000000000000000000000000000000000000000000000000006001600160a01b03168152602090f35b5080fd5b5090346101c657816003193601126101c657517f00000000000000000000000000000000000000000000000000000000000000006001600160a01b03168152602090f35b5090346101c657816003193601126101c6576020906001549051908152f35b509190826003193601126104e7576001600160a01b03916102717f000000000000000000000000000000000000000000000000000000000000000084163314610bb8565b61028b61028360015460025490610bf5565b421015610c16565b610296341515610c56565b805460ff16610329576020906024835180958193634dcd454760e01b8352309083015234907f0000000000000000000000000000000000000000000000000000000000000000165af190811561032057506102f5575b505b4260015580f35b602090813d8111610319575b61030b8183610b83565b8101031261017f575f6102ec565b503d610301565b513d84823e3d90fd5b9190837f00000000000000000000000000000000000000000000000000000000000000009282519463919722bb60e01b8652818516918282880152346024880152836044880152602096878160648134867f0000000000000000000000000000000000000000000000000000000000000000165af180156104dd579088916104b4575b5085516370a0823160e01b8152308482015293849060249082905afa9283156104aa5790879392918593610471575b509382939461040e6044947f0000000000000000000000000000000000000000000000000000000000000000809a610ccd565b86519788958694636e553f6560e01b8652850152306024850152165af1908115610468575061043f575b50506102ee565b813d8311610461575b6104528183610b83565b8101031261017f575f80610438565b503d610448565b513d85823e3d90fd5b8093508491943d83116104a3575b6104898183610b83565b8101031261049f579051869290919060446103db565b8380fd5b503d61047f565b85513d86823e3d90fd5b813d83116104d6575b6104c78183610b83565b8101031261049f57865f6103ac565b503d6104bd565b86513d87823e3d90fd5b8280fd5b5090346101c657816003193601126101c6576020906002549051908152f35b5091346104e75760203660031901126104e7576001600160a01b039035818116929083900361049f577f2276211a3f2c7bc1943fe83cc63f8f970204ff6a4b83c690df2bc54d8f2792ad9084549283166105653382146111a5565b8151908152846020820152a16001600160a01b03191617815580f35b509190346104e7573660031901126101c65780358015158091036104e75760243580151580910361049f576105c060018060a01b0385541633146111a5565b60ff61ff0084549260081b1692169061ffff19161717905580f35b5090346101c65760203660031901126101c65751908152602090f35b503461017f578060031936011261017f575060ff6020925460081c1690519015158152f35b5090346101c657816003193601126101c657517f00000000000000000000000000000000000000000000000000000000000000006001600160a01b03168152602090f35b5090346101c657816003193601126101c657602090610178611106565b503461017f578060031936011261017f578151908082526020820152f35b5090346101c657816003193601126101c657905490516001600160a01b039091168152602090f35b5090346101c657816003193601126101c6576001600160a01b03927f000000000000000000000000000000000000000000000000000000000000000084169061070d338314610bb8565b82516370a0823160e01b8152308282015260209585917f000000000000000000000000000000000000000000000000000000000000000082168882602481845afa9182156109165789939291859182936108e1575b50819280610861575b50505080610787575b828888610781478a6110a1565b51908152f35b836064929394959698507f000000000000000000000000000000000000000000000000000000000000000091847f000000000000000000000000000000000000000000000000000000000000000016906107e2818386610ccd565b8951988996879563919722bb60e01b875216908501526024840152600160448401525af1908115610856578091610824575b509290506107815f858180610774565b90508482813d831161084f575b61083b8183610b83565b8101031261017f575061078190515f610814565b503d610831565b8351903d90823e3d90fd5b8951635d043b2960e11b81529495935084928391829061088790309081908d8501611081565b03925af19081156108d7579088929184916108a6575b50835f8061076b565b8381939492503d83116108d0575b6108be8183610b83565b810103126104e757908791515f61089d565b503d6108b4565b86513d85823e3d90fd5b92509293905081813d831161090f575b6108fb8183610b83565b8101031261049f575188929184905f610762565b503d6108f1565b87513d86823e3d90fd5b5090346101c657816003193601126101c657517f00000000000000000000000000000000000000000000000000000000000000006001600160a01b03168152602090f35b503461017f578060031936011261017f575060ff602092541690519015158152f35b503461017f57602036600319011261017f5750602091610178906101727f00000000000000000000000000000000000000000000000000000000000000006001600160a01b03163314610bb8565b5082346101c65760203660031901126101c6576109fb60018060a01b0383541633146111a5565b3560025580f35b5090346101c657816003193601126101c657517f00000000000000000000000000000000000000000000000000000000000000006001600160a01b03168152602090f35b503461017f578060031936011261017f5781519080600354600181811c918181168015610b60575b6020988985108214610b4d57509183918995938895865290815f14610b2c5750600114610aee575b5050610aa89250959392950382610b83565b82519382859384528251928382860152825b848110610ad857505050828201840152601f01601f19168101030190f35b8181018301518882018801528795508201610aba565b600386528486209492508591905b818310610b14575088945050820101610aa85f610a96565b85548884018501529485019487945091830191610afc565b915050610aa894925060ff191682840152151560051b82010186925f610a96565b634e487b7160e01b875260229052602486fd5b92607f1692610a6e565b9050346101c657816003193601126101c6576020918152f35b90601f801991011681019081106001600160401b03821117610ba457604052565b634e487b7160e01b5f52604160045260245ffd5b15610bbf57565b60405162461bcd60e51b815260206004820152600e60248201526d3737ba1031b7b73a3937b63632b960911b6044820152606490fd5b91908201809211610c0257565b634e487b7160e01b5f52601160045260245ffd5b15610c1d57565b60405162461bcd60e51b81526020600482015260116024820152706174207468652073616d6520626c6f636b60781b6044820152606490fd5b15610c5d57565b60405162461bcd60e51b815260206004820152600a6024820152697a65726f2076616c756560b01b6044820152606490fd5b3d15610cc8573d906001600160401b038211610ba45760405191610cbd601f8201601f191660200184610b83565b82523d5f602084013e565b606090565b60405163095ea7b360e01b602082019081526001600160a01b03909316602482015260448082019490945292835291608081016001600160401b03811182821017610ba4576040525f92839283809351925af190610d29610c8f565b9082610d63575b505015610d3957565b60405162461bcd60e51b8152602060048201526002602482015261534160f01b6044820152606490fd5b9080925051918215928315610d7d575b5050505f80610d30565b8192935090602091810103126101c6576020015190811515820361017f57505f8080610d73565b610db661028360015460025490610bf5565b5f90610dc3811515610c56565b604080516363737ac960e11b8152600481018390526001600160a01b039260209290917f00000000000000000000000000000000000000000000000000000000000000008516908481602481855afa908115611077578791611046575b5082516370a0823160e01b81523060048201528581602481865afa90811561103c579188939187938591611001575b50610e7f92919080821015610ffa57505b8551948580948193635d043b2960e11b83523090309060048501611081565b03925af1908115610ff0578691610fbf575b5080610ed0575b50505050610ec99047907f0000000000000000000000000000000000000000000000000000000000000000166110a1565b4260015590565b838560649793949596977f000000000000000000000000000000000000000000000000000000000000000085837f000000000000000000000000000000000000000000000000000000000000000016610f2a878285610ccd565b8851968795869463919722bb60e01b86521660048501526024840152600160448401525af1928315610fb457508192610f80575b50610ec993505081811115610f7957505b91905f8080610e98565b9050610f6f565b809250849193943d8311610fad575b610f998183610b83565b810103126101c65751610ec992915f610f5e565b503d610f8f565b51913d9150823e3d90fd5b90508381813d8311610fe9575b610fd68183610b83565b81010312610fe557515f610e91565b8580fd5b503d610fcc565b82513d88823e3d90fd5b9050610e60565b929450509181813d8311611035575b61101a8183610b83565b810103126110315751879286929091610e7f610e4f565b8780fd5b503d611010565b84513d8a823e3d90fd5b90508481813d8311611070575b61105d8183610b83565b8101031261106c57515f610e20565b8680fd5b503d611053565b83513d89823e3d90fd5b9081526001600160a01b0391821660208201529116604082015260600190565b60405160208101908082106001600160401b03831117610ba4575f938493848094938194604052525af16110d3610c8f565b50156110db57565b60405162461bcd60e51b815260206004820152600360248201526253544560e81b6044820152606490fd5b60405163ce96cb7760e01b81523060048201526020816024817f00000000000000000000000000000000000000000000000000000000000000006001600160a01b03165afa801561119a575f90611167575b61116491504790610bf5565b90565b6020823d8211611192575b8161117f60209383610b83565b8101031261017f57506111649051611158565b3d9150611172565b6040513d5f823e3d90fd5b156111ac57565b60405162461bcd60e51b815260206004820152600d60248201526c6e6f7420676f7665726e61636560981b6044820152606490fdfea2646970667358221220b958299219e55afa3cf05b0231d4293a4f4305fe1f1590882aa7b9e288cea91864736f6c63430008150033",
  "immutableReferences": {
    "20718": [
      {
        "length": 32,
        "start": 479
      },
      {
        "length": 32,
        "start": 814
      },
      {
        "length": 32,
        "start": 1939
      },
      {
        "length": 32,
        "start": 3804
      }
    ],
    "20721": [
      {
        "length": 32,
        "start": 701
      },
      {
        "length": 32,
        "start": 2583
      }
    ],
    "20724": [
      {
        "length": 32,
        "start": 1000
      },
      {
        "length": 32,
        "start": 1829
      },
      {
        "length": 32,
        "start": 2357
      },
      {
        "length": 32,
        "start": 3560
      },
      {
        "length": 32,
        "start": 4385
      }
    ],
    "20726": [
      {
        "length": 32,
        "start": 892
      },
      {
        "length": 32,
        "start": 1585
      },
      {
        "length": 32,
        "start": 1974
      },
      {
        "length": 32,
        "start": 3839
      }
    ],
    "21979": [
      {
        "length": 32,
        "start": 323
      },
      {
        "length": 32,
        "start": 407
      },
      {
        "length": 32,
        "start": 585
      },
      {
        "length": 32,
        "start": 1760
      },
      {
        "length": 32,
        "start": 2469
      },
      {
        "length": 32,
        "start": 3748
      }
    ]
  },
  "source": "// SPDX-License-Identifier: MIT\npragma solidity 0.8.21;\n\nimport {TransferHelper} from \"@uniswap/v3-periphery/contracts/libraries/TransferHelper.sol\";\nimport {IERC20} from \"@openzeppelin/contracts/token/ERC20/IERC20.sol\";\n\nimport {IFrxETHMinter} from \"../interfaces/IFrxETHMinter.sol\";\nimport {ISfrxETH} from \"../interfaces/ISfrxETH.sol\";\n\nimport {Strategy} from \"./Strategy.sol\";\nimport {SwappingAggregator} from \"./SwappingAggregator.sol\";\n\ncontract SFraxETHHoldingStrategy is Strategy {\n    address public immutable FRXETH =\n        0x5E8422345238F34275888049021821E8E08CAa1f;\n    address public immutable FRXETH_MINTER =\n        0xbAFA44EFE7901E04E39Dad13167D089C559c1138;\n    address public immutable SFRXETH =\n        0xac3E018457B222d93114458476f3E3416Abbe38F;\n    address payable public immutable SWAPPING;\n\n    bool public buyOnDex;\n    bool public sellOnDex;\n\n    constructor(\n        address payable _controller,\n        address payable _swap,\n        string memory _name\n    ) Strategy(_controller, _name) {\n        require(_swap != address(0), \"ZERO ADDRESS\");\n\n        SWAPPING = _swap;\n    }\n\n    function deposit() public payable override onlyController notAtSameBlock {\n        uint256 amount = msg.value;\n        require(amount != 0, \"zero value\");\n\n        if (!buyOnDex) {\n            IFrxETHMinter(FRXETH_MINTER).submitAndDeposit{value: amount}(\n                address(this)\n            );\n        } else {\n            SwappingAggregator(SWAPPING).swap{value: amount}(\n                FRXETH,\n                amount,\n                false\n            );\n\n            uint256 balance = IERC20(FRXETH).balanceOf(address(this));\n\n            TransferHelper.safeApprove(FRXETH, SFRXETH, balance);\n\n            ISfrxETH(SFRXETH).deposit(balance, address(this));\n        }\n\n        latestUpdateTime = block.timestamp;\n    }\n\n    function withdraw(\n        uint256 _amount\n    )\n        public\n        override\n        onlyController\n        notAtSameBlock\n        returns (uint256 actualAmount)\n    {\n        actualAmount = _withdraw(_amount);\n    }\n\n    function instantWithdraw(\n        uint256 _amount\n    )\n        public\n        override\n        onlyController\n        notAtSameBlock\n        returns (uint256 actualAmount)\n    {\n        actualAmount = _withdraw(_amount);\n    }\n\n    function _withdraw(\n        uint256 _amount\n    ) internal returns (uint256 actualAmount) {\n        require(_amount != 0, \"zero value\");\n\n        ISfrxETH sfrxETH = ISfrxETH(SFRXETH);\n\n        uint256 convertedShares = sfrxETH.convertToShares(_amount);\n        uint256 balance = ISfrxETH(SFRXETH).balanceOf(address(this));\n\n        uint256 shares = convertedShares < balance ? convertedShares : balance;\n        uint256 assets = sfrxETH.redeem(shares, address(this), address(this));\n\n        if (assets != 0) {\n            TransferHelper.safeApprove(FRXETH, SWAPPING, assets);\n            actualAmount = SwappingAggregator(SWAPPING).swap(\n                FRXETH,\n                assets,\n                true\n            );\n            actualAmount = actualAmount > _amount ? _amount : actualAmount;\n        }\n        TransferHelper.safeTransferETH(controller, address(this).balance);\n\n        latestUpdateTime = block.timestamp;\n    }\n\n    function clear() public override onlyController returns (uint256 amount) {\n        ISfrxETH sfrxETH = ISfrxETH(SFRXETH);\n        uint256 max = sfrxETH.balanceOf(address(this));\n\n        uint256 assets;\n        if (max != 0) {\n            assets = sfrxETH.redeem(max, address(this), address(this));\n        }\n\n        if (assets != 0) {\n            TransferHelper.safeApprove(FRXETH, SWAPPING, assets);\n            amount = SwappingAggregator(SWAPPING).swap(FRXETH, assets, true);\n        }\n\n        TransferHelper.safeTransferETH(controller, address(this).balance);\n    }\n\n    function getAllValue() public override returns (uint256 value) {\n        value = getInvestedValue() + getPendingValue();\n    }\n\n    function getInvestedValue() public override returns (uint256 value) {\n        value =\n            ISfrxETH(SFRXETH).maxWithdraw(address(this)) +\n            address(this).balance;\n    }\n\n    function getPendingValue() public override returns (uint256 value) {\n        return 0;\n    }\n\n    function checkPendingStatus()\n        public\n        view\n        override\n        returns (uint256 pending, uint256 executable)\n    {\n        return (0, 0);\n    }\n\n    function setRouter(\n        bool _buyOnDex,\n        bool _sellOnDex\n    ) external onlyGovernance {\n        buyOnDex = _buyOnDex;\n        sellOnDex = _sellOnDex;\n    }\n\n    receive() external payable {}\n}\n",
  "sourcePath": "/Users/mingyuzhang/Downloads/stone-vault-v1/contracts/strategies/SFraxETHHoldingStrategy.sol",
  "compiler": {
    "name": "solc",
    "version": "0.8.21+commit.d9974bed.Emscripten.clang"
  },
  "schemaVersion": "3.4.16",
  "updatedAt": "2024-06-07T05:41:32.640Z",
  "devdoc": {
    "kind": "dev",
    "methods": {},
    "version": 1
  },
  "userdoc": {
    "kind": "user",
    "methods": {},
    "version": 1
  }
}