{
  "contractName": "STETHHoldingStrategy",
  "abi": [
    {
      "inputs": [
        {
          "internalType": "address payable",
          "name": "_controller",
          "type": "address"
        },
        {
          "internalType": "string",
          "name": "_name",
          "type": "string"
        },
        {
          "internalType": "address",
          "name": "_stETH",
          "type": "address"
        },
        {
          "internalType": "address",
          "name": "_lidoWithdrawalQueue",
          "type": "address"
        },
        {
          "internalType": "address payable",
          "name": "_swap",
          "type": "address"
        }
      ],
      "stateMutability": "nonpayable",
      "type": "constructor"
    },
    {
      "anonymous": false,
      "inputs": [
        {
          "indexed": false,
          "internalType": "uint256",
          "name": "length",
          "type": "uint256"
        },
        {
          "indexed": false,
          "internalType": "uint256",
          "name": "amount",
          "type": "uint256"
        }
      ],
      "name": "SetWithdrawQueueParams",
      "type": "event"
    },
    {
      "anonymous": false,
      "inputs": [
        {
          "indexed": false,
          "internalType": "address",
          "name": "oldOwner",
          "type": "address"
        },
        {
          "indexed": false,
          "internalType": "address",
          "name": "newOwner",
          "type": "address"
        }
      ],
      "name": "TransferGovernance",
      "type": "event"
    },
    {
      "inputs": [],
      "name": "LidoWithdrawalQueue",
      "outputs": [
        {
          "internalType": "address",
          "name": "",
          "type": "address"
        }
      ],
      "stateMutability": "view",
      "type": "function"
    },
    {
      "inputs": [],
      "name": "MAX_WITHDRAW_QUEUE_LENGTH",
      "outputs": [
        {
          "internalType": "uint256",
          "name": "",
          "type": "uint256"
        }
      ],
      "stateMutability": "view",
      "type": "function"
    },
    {
      "inputs": [],
      "name": "MINIMUM_WITHDRAW_QUEUE_AMOUNT",
      "outputs": [
        {
          "internalType": "uint256",
          "name": "",
          "type": "uint256"
        }
      ],
      "stateMutability": "view",
      "type": "function"
    },
    {
      "inputs": [],
      "name": "STETH",
      "outputs": [
        {
          "internalType": "address",
          "name": "",
          "type": "address"
        }
      ],
      "stateMutability": "view",
      "type": "function"
    },
    {
      "inputs": [],
      "name": "SWAPPING",
      "outputs": [
        {
          "internalType": "address payable",
          "name": "",
          "type": "address"
        }
      ],
      "stateMutability": "view",
      "type": "function"
    },
    {
      "inputs": [],
      "name": "bufferTime",
      "outputs": [
        {
          "internalType": "uint256",
          "name": "",
          "type": "uint256"
        }
      ],
      "stateMutability": "view",
      "type": "function"
    },
    {
      "inputs": [],
      "name": "buyOnDex",
      "outputs": [
        {
          "internalType": "bool",
          "name": "",
          "type": "bool"
        }
      ],
      "stateMutability": "view",
      "type": "function"
    },
    {
      "inputs": [],
      "name": "controller",
      "outputs": [
        {
          "internalType": "address payable",
          "name": "",
          "type": "address"
        }
      ],
      "stateMutability": "view",
      "type": "function"
    },
    {
      "inputs": [
        {
          "internalType": "uint256",
          "name": "_amount",
          "type": "uint256"
        }
      ],
      "name": "execPendingRequest",
      "outputs": [
        {
          "internalType": "uint256",
          "name": "amount",
          "type": "uint256"
        }
      ],
      "stateMutability": "nonpayable",
      "type": "function"
    },
    {
      "inputs": [],
      "name": "governance",
      "outputs": [
        {
          "internalType": "address",
          "name": "",
          "type": "address"
        }
      ],
      "stateMutability": "view",
      "type": "function"
    },
    {
      "inputs": [],
      "name": "latestUpdateTime",
      "outputs": [
        {
          "internalType": "uint256",
          "name": "",
          "type": "uint256"
        }
      ],
      "stateMutability": "view",
      "type": "function"
    },
    {
      "inputs": [],
      "name": "name",
      "outputs": [
        {
          "internalType": "string",
          "name": "",
          "type": "string"
        }
      ],
      "stateMutability": "view",
      "type": "function"
    },
    {
      "inputs": [],
      "name": "sellOnDex",
      "outputs": [
        {
          "internalType": "bool",
          "name": "",
          "type": "bool"
        }
      ],
      "stateMutability": "view",
      "type": "function"
    },
    {
      "inputs": [
        {
          "internalType": "uint256",
          "name": "_time",
          "type": "uint256"
        }
      ],
      "name": "setBufferTime",
      "outputs": [],
      "stateMutability": "nonpayable",
      "type": "function"
    },
    {
      "inputs": [
        {
          "internalType": "address",
          "name": "governance_",
          "type": "address"
        }
      ],
      "name": "setGovernance",
      "outputs": [],
      "stateMutability": "nonpayable",
      "type": "function"
    },
    {
      "stateMutability": "payable",
      "type": "receive"
    },
    {
      "inputs": [],
      "name": "deposit",
      "outputs": [],
      "stateMutability": "payable",
      "type": "function"
    },
    {
      "inputs": [
        {
          "internalType": "uint256",
          "name": "_amount",
          "type": "uint256"
        }
      ],
      "name": "withdraw",
      "outputs": [
        {
          "internalType": "uint256",
          "name": "actualAmount",
          "type": "uint256"
        }
      ],
      "stateMutability": "nonpayable",
      "type": "function"
    },
    {
      "inputs": [
        {
          "internalType": "uint256",
          "name": "_amount",
          "type": "uint256"
        }
      ],
      "name": "instantWithdraw",
      "outputs": [
        {
          "internalType": "uint256",
          "name": "actualAmount",
          "type": "uint256"
        }
      ],
      "stateMutability": "nonpayable",
      "type": "function"
    },
    {
      "inputs": [],
      "name": "clear",
      "outputs": [
        {
          "internalType": "uint256",
          "name": "amount",
          "type": "uint256"
        }
      ],
      "stateMutability": "nonpayable",
      "type": "function"
    },
    {
      "inputs": [],
      "name": "getAllValue",
      "outputs": [
        {
          "internalType": "uint256",
          "name": "value",
          "type": "uint256"
        }
      ],
      "stateMutability": "nonpayable",
      "type": "function"
    },
    {
      "inputs": [],
      "name": "getInvestedValue",
      "outputs": [
        {
          "internalType": "uint256",
          "name": "value",
          "type": "uint256"
        }
      ],
      "stateMutability": "nonpayable",
      "type": "function"
    },
    {
      "inputs": [],
      "name": "getPendingValue",
      "outputs": [
        {
          "internalType": "uint256",
          "name": "value",
          "type": "uint256"
        }
      ],
      "stateMutability": "nonpayable",
      "type": "function"
    },
    {
      "inputs": [],
      "name": "getClaimableValue",
      "outputs": [
        {
          "internalType": "uint256",
          "name": "value",
          "type": "uint256"
        }
      ],
      "stateMutability": "nonpayable",
      "type": "function"
    },
    {
      "inputs": [],
      "name": "checkPendingStatus",
      "outputs": [
        {
          "internalType": "uint256",
          "name": "pending",
          "type": "uint256"
        },
        {
          "internalType": "uint256",
          "name": "executable",
          "type": "uint256"
        }
      ],
      "stateMutability": "nonpayable",
      "type": "function"
    },
    {
      "inputs": [
        {
          "internalType": "uint256[]",
          "name": "_ids",
          "type": "uint256[]"
        }
      ],
      "name": "claimPendingAssets",
      "outputs": [],
      "stateMutability": "nonpayable",
      "type": "function"
    },
    {
      "inputs": [],
      "name": "claimAllPendingAssets",
      "outputs": [],
      "stateMutability": "nonpayable",
      "type": "function"
    },
    {
      "inputs": [],
      "name": "checkPendingAssets",
      "outputs": [
        {
          "internalType": "uint256[]",
          "name": "ids",
          "type": "uint256[]"
        },
        {
          "internalType": "uint256",
          "name": "totalClaimable",
          "type": "uint256"
        },
        {
          "internalType": "uint256",
          "name": "totalPending",
          "type": "uint256"
        }
      ],
      "stateMutability": "nonpayable",
      "type": "function"
    },
    {
      "inputs": [
        {
          "internalType": "uint256",
          "name": "_length",
          "type": "uint256"
        },
        {
          "internalType": "uint256",
          "name": "_amount",
          "type": "uint256"
        }
      ],
      "name": "setWithdrawQueueParams",
      "outputs": [],
      "stateMutability": "nonpayable",
      "type": "function"
    },
    {
      "inputs": [
        {
          "internalType": "bool",
          "name": "_buyOnDex",
          "type": "bool"
        },
        {
          "internalType": "bool",
          "name": "_sellOnDex",
          "type": "bool"
        }
      ],
      "name": "setRouter",
      "outputs": [],
      "stateMutability": "nonpayable",
      "type": "function"
    }
  ],
  "bytecode": "0x610100604052346200037b5762001f70803803806200001e816200037f565b928339810160a0828203126200037b576200003982620003a5565b6020808401516001600160401b039492908581116200037b57830191601f928584820112156200037b5780518781116200035257601f199162000082828701841685016200037f565b978289528483830101116200037b5783905f5b838110620003665750505f9188010152620000b360408601620003a5565b93620000d06080620000c860608901620003a5565b9701620003a5565b600c600255966001600160a01b0394620000ee8187161515620003ba565b5f80546001600160a01b03191633179055608052805198891162000352576003938454936001948581811c9116801562000347575b83821014620003335780858d9211620002e9575b505081938b11600114620002805750509780928192620001989798999a5f9462000274575b50501b915f1990841b1c19161790555b6014600455678ac7230489e800006005558083161515908162000267575b816200025a575b50620003ba565b60a05260e05260c052604051611b799081620003f782396080518181816105010152818161078f01528181610cb201528181610f0101528181611005015281816113cb01526117b0015260a0518181816105f1015281816107be01528181610d3601528181610d9b01528181610e67015281816114170152611678015260c05181818161083201528181610a2001528181610de401526114a9015260e0518181816102450152818161055a01528181610ebe0152818161176901526119770152f35b9050841615155f62000191565b848116151591506200018a565b015192505f806200015c565b8a9391929a1699855f52825f20925f905b8c8210620002d1575050836200019898999a9b10620002b9575b505050811b0190556200016c565b01515f1983861b60f8161c191690555f8080620002ab565b80878596829496860151815501950193019062000291565b875f5285845f20918582850160051c8401941062000329575b0160051c019086905b8281106200031d57508c915062000137565b5f81550186906200030b565b9250819262000302565b634e487b7160e01b5f52602260045260245ffd5b90607f169062000123565b634e487b7160e01b5f52604160045260245ffd5b8181018301518a820184015285920162000095565b5f80fd5b6040519190601f01601f191682016001600160401b038111838210176200035257604052565b51906001600160a01b03821682036200037b57565b15620003c257565b60405162461bcd60e51b815260206004820152600c60248201526b5a45524f204144445245535360a01b6044820152606490fdfe6080604052600436101561001a575b3615610018575f80fd5b005b5f3560e01c80621a5597146101e857806304e7b516146101e357806306fdde03146101de5780631aac030c146101d95780631c2ca2fd146101d45780632e1a7d4d146101cf57806334dfd55c146101ca57806352efea6e146101c55780635aa6e675146101c05780636c23ab4c146101bb57806375421af3146101b65780637654f7ab146101b1578063855d408d146101ac5780638abd97fb146101a75780638c9bd7c6146101a2578063924f4f6e1461019d578063a7ea3b1114610198578063ab033ea914610193578063ad6a71251461018e578063ae59b2b414610189578063ae74083d14610184578063ba7b67031461017f578063c00f60c41461017a578063d0e30db014610175578063dd07d28814610170578063e00bfe501461016b578063eea94dab14610166578063f77c4791146101615763fd92bff20361000e57611034565b610ff0565b610e96565b610e52565b610e35565b610c9a565b610c75565b610c58565b610c3b565b610c1e565b610b98565b610b09565b610a99565b610a74565b610a4f565b610a0b565b610995565b610961565b610935565b61091b565b6108f4565b610773565b610751565b6104e6565b6104a8565b610448565b61033e565b610230565b6101fb565b5f9103126101f757565b5f80fd5b346101f7575f3660031901126101f75760206102156116dc565b604051908152f35b6001600160a01b03909116815260200190565b346101f7575f3660031901126101f7576040517f00000000000000000000000000000000000000000000000000000000000000006001600160a01b03168152602090f35b634e487b7160e01b5f52604160045260245ffd5b6001600160401b03811161029b57604052565b610274565b60c081019081106001600160401b0382111761029b57604052565b602081019081106001600160401b0382111761029b57604052565b90601f801991011681019081106001600160401b0382111761029b57604052565b602080825282518183018190529093925f5b82811061032a57505060409293505f838284010152601f8019910116010190565b818101860151848201604001528501610309565b346101f7575f806003193601126104455760405190806003549060019180831c9280821692831561043b575b602092838610851461042757858852602088019490811561040657506001146103ae575b6103aa8761039e818903826102d6565b604051918291826102f7565b0390f35b60035f5294509192917fc2575a0e9e593c00f959f8c92f12db2869c3395a3b0502d05e2516446f71f85b5b8386106103f5575050509101905061039e826103aa5f8061038e565b8054858701529482019481016103d9565b60ff191685525050505090151560051b01905061039e826103aa5f8061038e565b634e487b7160e01b82526022600452602482fd5b93607f169361036a565b80fd5b346101f75760203660031901126101f75761046d60018060a01b035f54163314611b07565b600435600255005b9081518082526020808093019301915f5b828110610494575050505090565b835185529381019392810192600101610486565b346101f7575f3660031901126101f7576104d76104c3611963565b604051938493606085526060850190610475565b91602084015260408301520390f35b346101f75760203660031901126101f7576001600160a01b037f00000000000000000000000000000000000000000000000000000000000000008116600435610530338314611052565b600154600254810180911161074c5761054b904210156110b0565b5f926105588215156110f0565b7f000000000000000000000000000000000000000000000000000000000000000081811694604051637d031b6560e01b815281818061059a306004830161021d565b03818a5afa9182156106c0578092610731575b50506005548411908115610724575b5080610709575b156106f357826105ed926020925f60405180968195829463095ea7b360e01b8452600484016111f6565b03927f0000000000000000000000000000000000000000000000000000000000000000165af180156106c0575f948592610658926106c5575b5061062f611211565b8461063982611297565b52604051968780948193636b34082160e11b83523090600484016112bd565b03925af19081156106c05761067e610686926103aa955f9161069f575b505115156112e5565b91479061136f565b61068f42600155565b6040519081529081906020820190565b6106ba913d8091833e6106b281836102d6565b810190611165565b5f610675565b61115a565b6106e59060203d81116106ec575b6106dd81836102d6565b8101906111de565b505f610626565b503d6106d3565b50506103aa925061070491506113c0565b610686565b5060065461071f9060081c60ff161590565b1590565b6105c3565b905051600454115f6105bc565b61074592503d8091833e6106b281836102d6565b5f806105ad565b61108f565b346101f7575f3660031901126101f757602060ff600654166040519015158152f35b346101f7575f80600319360112610445576001600160a01b03907f000000000000000000000000000000000000000000000000000000000000000082166107bb338214611052565b817f0000000000000000000000000000000000000000000000000000000000000000604051906370a0823160e01b82526020958683806107fe306004830161021d565b03818486165afa9283156106c05784936108d5575b5082610825575b604051868152602090f35b61087b93949550908692917f0000000000000000000000000000000000000000000000000000000000000000169061085e8383836115b2565b8560405180968195829463919722bb60e01b845260048401611138565b03925af19081156106c0576103aa9461089e93926108a8575b505091479061136f565b5f8080808061081a565b6108c79250803d106108ce575b6108bf81836102d6565b810190611129565b5f80610894565b503d6108b5565b6108ed919350873d89116108ce576108bf81836102d6565b915f610813565b346101f7575f3660031901126101f7575f546040516001600160a01b039091168152602090f35b346101f7575f3660031901126101f757602061021561165d565b346101f7575f3660031901126101f75761094d611963565b604080519182526020820192909252909150f35b346101f7575f3660031901126101f75761097961165d565b6109816116dc565b810180911161074c57602090604051908152f35b346101f75760403660031901126101f7577ffe72c6fda6a2cbeff93c22911c8fac1006dcc4f9a5c32091763929315e0ca57d600435602435906109e260018060a01b035f54163314611b07565b8060045581600555610a066040519283928360209093929193604081019481520152565b0390a1005b346101f7575f3660031901126101f7576040517f00000000000000000000000000000000000000000000000000000000000000006001600160a01b03168152602090f35b346101f7575f3660031901126101f757602060ff60065460081c166040519015158152f35b346101f75760203660031901126101f75760206040515f8152f35b801515036101f757565b346101f75760403660031901126101f757600435610ab681610a8f565b602435610ac281610a8f565b610ad660018060a01b035f54163314611b07565b60ff61ff0060065492151560081b16921515169061ffff191617176006555f80f35b6001600160a01b038116036101f757565b346101f75760203660031901126101f757600435610b2681610af8565b5f546001600160a01b03808216927f2276211a3f2c7bc1943fe83cc63f8f970204ff6a4b83c690df2bc54d8f2792ad91604091610b64338714611b07565b82519586521693846020820152a16001600160a01b031916175f55005b6001600160401b03811161029b5760051b60200190565b346101f7576020806003193601126101f7576004356001600160401b0381116101f757366023820112156101f757806004013590610bd582610b81565b91610be360405193846102d6565b80835260248484019160051b830101913683116101f757602401905b828210610c0f5761001884611751565b81358152908401908401610bff565b346101f7575f3660031901126101f7576020600554604051908152f35b346101f7575f3660031901126101f7576020600454604051908152f35b346101f7575f3660031901126101f7576020600254604051908152f35b346101f7575f3660031901126101f7576020610c8f611963565b509050604051908152f35b5f3660031901126101f7576001600160a01b03610cda7f000000000000000000000000000000000000000000000000000000000000000082163314611052565b600154600254810180911161074c57610cf5904210156110b0565b610d003415156110f0565b610d0f61071b60065460ff1690565b15610d8c5760405163a1903eab60e01b81525f6004820152906020908290602490829034907f0000000000000000000000000000000000000000000000000000000000000000165af180156106c057610d6e575b505b61001842600155565b610d859060203d81116108ce576108bf81836102d6565b505f610d63565b60405163919722bb60e01b81527f00000000000000000000000000000000000000000000000000000000000000006001600160a01b0316600482015234602482018190525f60448301529091602091839160649183917f0000000000000000000000000000000000000000000000000000000000000000165af180156106c057610e17575b50610d65565b610e2e9060203d81116108ce576108bf81836102d6565b505f610e11565b346101f7575f3660031901126101f7576020600154604051908152f35b346101f7575f3660031901126101f7576040517f00000000000000000000000000000000000000000000000000000000000000006001600160a01b03168152602090f35b346101f7575f8060031936011261044557610eaf611963565b505080516001600160a01b03917f0000000000000000000000000000000000000000000000000000000000000000831690845b838110610f7257604051637b0c1f2960e01b81528690866020826004817f000000000000000000000000000000000000000000000000000000000000000085165afa9081156106c057610f3f928492610f42575b5047911661136f565b80f35b610f6491925060203d8111610f6b575b610f5c81836102d6565b81019061173c565b9084610f36565b503d610f52565b610f7c81836112a9565b5115610fe757610f8c81836112a9565b519086843b1561044557604051637c22221b60e11b815260048101939093528260248183885af19182156106c057610fc992610fce575b5061172e565b610ee2565b80610fdb610fe192610288565b806101ed565b5f610fc3565b610fc99061172e565b346101f7575f3660031901126101f7576040517f00000000000000000000000000000000000000000000000000000000000000006001600160a01b03168152602090f35b346101f75760203660031901126101f75760206102156004356113c0565b1561105957565b60405162461bcd60e51b815260206004820152600e60248201526d3737ba1031b7b73a3937b63632b960911b6044820152606490fd5b634e487b7160e01b5f52601160045260245ffd5b9190820180921161074c57565b156110b757565b60405162461bcd60e51b81526020600482015260116024820152706174207468652073616d6520626c6f636b60781b6044820152606490fd5b156110f757565b60405162461bcd60e51b815260206004820152600a6024820152697a65726f2076616c756560b01b6044820152606490fd5b908160209103126101f7575190565b6001600160a01b03909116815260208101919091526001604082015260600190565b6040513d5f823e3d90fd5b60209081818403126101f7578051906001600160401b0382116101f757019180601f840112156101f757825161119a81610b81565b936111a860405195866102d6565b818552838086019260051b8201019283116101f7578301905b8282106111cf575050505090565b815181529083019083016111c1565b908160209103126101f757516111f381610a8f565b90565b6001600160a01b039091168152602081019190915260400190565b60405190604082018281106001600160401b0382111761029b576040526001825260203681840137565b604051611247816102bb565b5f8152905f368137565b9061125b82610b81565b61126860405191826102d6565b8281528092611279601f1991610b81565b0190602036910137565b634e487b7160e01b5f52603260045260245ffd5b8051156112a45760200190565b611283565b80518210156112a45760209160051b010190565b906112d5602091949394604084526040840190610475565b6001600160a01b03909416910152565b156112ec57565b60405162461bcd60e51b815260206004820152601d60248201527f4c69646f2072657175657374207769746864726177616c206572726f720000006044820152606490fd5b3d1561136a573d906001600160401b03821161029b576040519161135f601f8201601f1916602001846102d6565b82523d5f602084013e565b606090565b5f808093819382604051611382816102bb565b525af161138d611331565b501561139557565b60405162461bcd60e51b815260206004820152600360248201526253544560e81b6044820152606490fd5b6001600160a01b03907f00000000000000000000000000000000000000000000000000000000000000008216906113f8338314611052565b600154600254810180911161074c57611413904210156110b0565b5f927f000000000000000000000000000000000000000000000000000000000000000081811692604051936370a0823160e01b9485815260209586828061145d306004830161021d565b0381865afa80156106c05787928a91611595575b5084101561154557505050915b8261149c575b5050505061149390479061136f565b6111f342600155565b9282819596926114f294957f000000000000000000000000000000000000000000000000000000000000000016906114d58383836115b2565b8460405180978195829463919722bb60e01b845260048401611138565b03925af19182156106c057611493948293611526575b5050508181111561151f57505b91905f8080611484565b9050611515565b61153d929350803d106108ce576108bf81836102d6565b905f80611508565b6040519081529250908290818061155f306004830161021d565b03915afa9081156106c0578691611578575b509161147e565b61158f9150843d86116108ce576108bf81836102d6565b5f611571565b6115ac9150833d85116108ce576108bf81836102d6565b5f611471565b5f9291836115dc6115ea8295604051928391602083019663095ea7b360e01b8852602484016111f6565b03601f1981018352826102d6565b51925af16115f6611331565b8161162e575b501561160457565b60405162461bcd60e51b8152602060048201526002602482015261534160f01b6044820152606490fd5b8051801592508215611643575b50505f6115fc565b61165692506020809183010191016111de565b5f8061163b565b6040516370a0823160e01b81523060048201526020816024817f00000000000000000000000000000000000000000000000000000000000000006001600160a01b03165afa9081156106c0575f916116be575b5047810180911161074c5790565b6116d6915060203d81116108ce576108bf81836102d6565b5f6116b0565b6116e4611963565b81019150811061074c5790565b156116f857565b60405162461bcd60e51b815260206004820152600e60248201526d0d2dcecc2d8d2c840d8cadccee8d60931b6044820152606490fd5b5f19811461074c5760010190565b908160209103126101f757516111f381610af8565b805161175e8115156116f1565b6001600160a01b03917f0000000000000000000000000000000000000000000000000000000000000000831691905f5b82811061180e575050505060405190637b0c1f2960e01b8252602082600481847f0000000000000000000000000000000000000000000000000000000000000000165afa9081156106c0576117ec925f926117ee575047911661136f565b565b61180791925060203d8111610f6b57610f5c81836102d6565b905f610f36565b61181881836112a9565b51156118695761182881836112a9565b5190843b156101f757604051637c22221b60e11b815260048101929092525f8260248183895af19182156106c05761186492610fce575061172e565b61178e565b6118649061172e565b60209081818403126101f7578051906001600160401b0382116101f7570182601f820112156101f7578051916118a783610b81565b9360406118b6815196876102d6565b848652828601918360c0809702860101948186116101f7578401925b8584106118e3575050505050505090565b86848303126101f75784879184516118fa816102a0565b8651815282870151838201528587015161191381610af8565b86820152606080880151908201526080808801519061193182610a8f565b82015260a0808801519061194482610a8f565b8201528152019301926118d2565b9060206111f3928181520190610475565b604051637d031b6560e01b8152905f9081907f00000000000000000000000000000000000000000000000000000000000000006001600160a01b0316828086806119b0306004830161021d565b0381855afa9586156106c0578196611aeb575b50855115611ad8576119d58651611251565b95816040518094635c625c2d60e11b825281806119f58660048301611952565b03915afa9283156106c0578293611ab4575b50919080879193835191935b828510611a2257505050905052565b919397909294611a3289846112a9565b5190611a4160a0830151151590565b611aa757608082015115611a8e5791611a7e91611a8493611a76611a658d896112a9565b5191611a708161172e565b9a6112a9565b5251906110a3565b9761172e565b9290918892611a13565b9550611a84919897611aa19151906110a3565b9661172e565b95505096611a849061172e565b611ad19193503d8084833e611ac981836102d6565b810190611872565b915f611a07565b935050925050611ae661123b565b918190565b611b009196503d8088833e6106b281836102d6565b945f6119c3565b15611b0e57565b60405162461bcd60e51b815260206004820152600d60248201526c6e6f7420676f7665726e61636560981b6044820152606490fdfea2646970667358221220a02dc8e24dc47b0bc075424f69bee2437b6649604863e35b0ffc2efaff2493c764736f6c63430008150033",
  "immutableReferences": {
    "21186": [
      {
        "length": 32,
        "start": 1521
      },
      {
        "length": 32,
        "start": 1982
      },
      {
        "length": 32,
        "start": 3382
      },
      {
        "length": 32,
        "start": 3483
      },
      {
        "length": 32,
        "start": 3687
      },
      {
        "length": 32,
        "start": 5143
      },
      {
        "length": 32,
        "start": 5752
      }
    ],
    "21188": [
      {
        "length": 32,
        "start": 2098
      },
      {
        "length": 32,
        "start": 2592
      },
      {
        "length": 32,
        "start": 3556
      },
      {
        "length": 32,
        "start": 5289
      }
    ],
    "21190": [
      {
        "length": 32,
        "start": 581
      },
      {
        "length": 32,
        "start": 1370
      },
      {
        "length": 32,
        "start": 3774
      },
      {
        "length": 32,
        "start": 5993
      },
      {
        "length": 32,
        "start": 6519
      }
    ],
    "21979": [
      {
        "length": 32,
        "start": 1281
      },
      {
        "length": 32,
        "start": 1935
      },
      {
        "length": 32,
        "start": 3250
      },
      {
        "length": 32,
        "start": 3841
      },
      {
        "length": 32,
        "start": 4101
      },
      {
        "length": 32,
        "start": 5067
      },
      {
        "length": 32,
        "start": 6064
      }
    ]
  },
  "source": "// SPDX-License-Identifier: MIT\npragma solidity 0.8.21;\n\nimport {TransferHelper} from \"@uniswap/v3-periphery/contracts/libraries/TransferHelper.sol\";\nimport {IERC20} from \"@openzeppelin/contracts/token/ERC20/IERC20.sol\";\n\nimport {Strategy} from \"../strategies/Strategy.sol\";\nimport {StrategyController} from \"../strategies/StrategyController.sol\";\nimport {SwappingAggregator} from \"./SwappingAggregator.sol\";\nimport {ILido} from \"../interfaces/ILido.sol\";\nimport {ILidoWithdrawalQueue} from \"../interfaces/ILidoWithdrawalQueue.sol\";\nimport {IStableSwap} from \"../interfaces/IStableSwap.sol\";\n\ncontract STETHHoldingStrategy is Strategy {\n    address public immutable STETH;\n\n    address payable public immutable SWAPPING;\n\n    address public immutable LidoWithdrawalQueue;\n\n    uint256 public MAX_WITHDRAW_QUEUE_LENGTH = 20;\n    uint256 public MINIMUM_WITHDRAW_QUEUE_AMOUNT = 1e19;\n\n    bool public buyOnDex;\n    bool public sellOnDex;\n\n    event SetWithdrawQueueParams(uint256 length, uint256 amount);\n\n    constructor(\n        address payable _controller,\n        string memory _name,\n        address _stETH,\n        address _lidoWithdrawalQueue,\n        address payable _swap\n    ) Strategy(_controller, _name) {\n        require(\n            _stETH != address(0) &&\n                _lidoWithdrawalQueue != address(0) &&\n                _swap != address(0),\n            \"ZERO ADDRESS\"\n        );\n\n        STETH = _stETH;\n        LidoWithdrawalQueue = _lidoWithdrawalQueue;\n        SWAPPING = _swap;\n    }\n\n    function deposit() public payable override onlyController notAtSameBlock {\n        uint256 amount = msg.value;\n        require(amount != 0, \"zero value\");\n\n        if (!buyOnDex) {\n            ILido(STETH).submit{value: amount}(address(0));\n        } else {\n            SwappingAggregator(SWAPPING).swap{value: amount}(\n                STETH,\n                amount,\n                false\n            );\n        }\n\n        latestUpdateTime = block.timestamp;\n    }\n\n    function withdraw(\n        uint256 _amount\n    )\n        public\n        override\n        onlyController\n        notAtSameBlock\n        returns (uint256 actualAmount)\n    {\n        require(_amount != 0, \"zero value\");\n\n        ILido lido = ILido(STETH);\n        ILidoWithdrawalQueue withdrawalQueue = ILidoWithdrawalQueue(\n            LidoWithdrawalQueue\n        );\n\n        uint256[] memory allIds = withdrawalQueue.getWithdrawalRequests(\n            address(this)\n        );\n\n        if (\n            (_amount > MINIMUM_WITHDRAW_QUEUE_AMOUNT ||\n                allIds.length < MAX_WITHDRAW_QUEUE_LENGTH) && !sellOnDex\n        ) {\n            lido.approve(LidoWithdrawalQueue, _amount);\n\n            uint256[] memory amounts = new uint256[](1);\n            amounts[0] = _amount;\n            uint256[] memory ids = withdrawalQueue.requestWithdrawals(\n                amounts,\n                address(this)\n            );\n\n            require(ids.length != 0, \"Lido request withdrawal error\");\n\n            actualAmount = _amount;\n\n            TransferHelper.safeTransferETH(controller, address(this).balance);\n        } else {\n            actualAmount = instantWithdraw(_amount);\n        }\n\n        latestUpdateTime = block.timestamp;\n    }\n\n    function instantWithdraw(\n        uint256 _amount\n    )\n        public\n        override\n        onlyController\n        notAtSameBlock\n        returns (uint256 actualAmount)\n    {\n        _amount = _amount < IERC20(STETH).balanceOf(address(this))\n            ? _amount\n            : IERC20(STETH).balanceOf(address(this));\n        if (_amount != 0) {\n            TransferHelper.safeApprove(STETH, SWAPPING, _amount);\n            actualAmount = SwappingAggregator(SWAPPING).swap(\n                STETH,\n                _amount,\n                true\n            );\n            actualAmount = actualAmount > _amount ? _amount : actualAmount;\n        }\n        TransferHelper.safeTransferETH(controller, address(this).balance);\n\n        latestUpdateTime = block.timestamp;\n    }\n\n    function clear() public override onlyController returns (uint256 amount) {\n        uint256 balance = IERC20(STETH).balanceOf(address(this));\n\n        if (balance != 0) {\n            TransferHelper.safeApprove(STETH, SWAPPING, balance);\n            amount = SwappingAggregator(SWAPPING).swap(STETH, balance, true);\n\n            TransferHelper.safeTransferETH(controller, address(this).balance);\n        }\n    }\n\n    function getAllValue() public override returns (uint256 value) {\n        value = getInvestedValue() + getPendingValue();\n    }\n\n    function getInvestedValue() public override returns (uint256 value) {\n        value = IERC20(STETH).balanceOf(address(this)) + address(this).balance;\n    }\n\n    function getPendingValue() public override returns (uint256 value) {\n        (, uint256 totalClaimable, uint256 totalPending) = checkPendingAssets();\n\n        value = totalClaimable + totalPending;\n    }\n\n    function getClaimableValue() public returns (uint256 value) {\n        (, value, ) = checkPendingAssets();\n    }\n\n    function checkPendingStatus()\n        public\n        override\n        returns (uint256 pending, uint256 executable)\n    {\n        (, executable, pending) = checkPendingAssets();\n    }\n\n    function claimPendingAssets(uint256[] memory _ids) external {\n        uint256 length = _ids.length;\n        require(length != 0, \"invalid length\");\n\n        for (uint256 i; i < length; i++) {\n            if (_ids[i] == 0) continue;\n            ILidoWithdrawalQueue(LidoWithdrawalQueue).claimWithdrawal(_ids[i]);\n        }\n\n        TransferHelper.safeTransferETH(\n            StrategyController(controller).assetsVault(),\n            address(this).balance\n        );\n    }\n\n    function claimAllPendingAssets() external {\n        (uint256[] memory ids, , ) = checkPendingAssets();\n\n        uint256 length = ids.length;\n        for (uint256 i; i < length; i++) {\n            if (ids[i] == 0) continue;\n            ILidoWithdrawalQueue(LidoWithdrawalQueue).claimWithdrawal(ids[i]);\n        }\n\n        TransferHelper.safeTransferETH(\n            StrategyController(controller).assetsVault(),\n            address(this).balance\n        );\n    }\n\n    function checkPendingAssets()\n        public\n        returns (\n            uint256[] memory ids,\n            uint256 totalClaimable,\n            uint256 totalPending\n        )\n    {\n        ILidoWithdrawalQueue queue = ILidoWithdrawalQueue(LidoWithdrawalQueue);\n\n        uint256[] memory allIds = queue.getWithdrawalRequests(address(this));\n\n        if (allIds.length == 0) {\n            return (new uint256[](0), 0, 0);\n        }\n\n        ids = new uint256[](allIds.length);\n\n        ILidoWithdrawalQueue.WithdrawalRequestStatus[] memory statuses = queue\n            .getWithdrawalStatus(allIds);\n\n        uint256 j;\n        uint256 length = statuses.length;\n        for (uint256 i; i < length; i++) {\n            ILidoWithdrawalQueue.WithdrawalRequestStatus\n                memory status = statuses[i];\n            if (status.isClaimed) {\n                continue;\n            }\n            if (status.isFinalized) {\n                ids[j++] = allIds[i];\n                totalClaimable = totalClaimable + status.amountOfStETH;\n            } else {\n                totalPending = totalPending + status.amountOfStETH;\n            }\n        }\n\n        assembly {\n            mstore(ids, j)\n        }\n    }\n\n    function setWithdrawQueueParams(\n        uint256 _length,\n        uint256 _amount\n    ) external onlyGovernance {\n        MAX_WITHDRAW_QUEUE_LENGTH = _length;\n        MINIMUM_WITHDRAW_QUEUE_AMOUNT = _amount;\n\n        emit SetWithdrawQueueParams(_length, _amount);\n    }\n\n    function setRouter(\n        bool _buyOnDex,\n        bool _sellOnDex\n    ) external onlyGovernance {\n        buyOnDex = _buyOnDex;\n        sellOnDex = _sellOnDex;\n    }\n\n    receive() external payable {}\n}\n",
  "sourcePath": "/Users/mingyuzhang/Downloads/stone-vault-v1/contracts/strategies/STETHHoldingStrategy.sol",
  "compiler": {
    "name": "solc",
    "version": "0.8.21+commit.d9974bed.Emscripten.clang"
  },
  "schemaVersion": "3.4.16",
  "updatedAt": "2024-06-07T05:41:32.641Z",
  "devdoc": {
    "kind": "dev",
    "methods": {},
    "version": 1
  },
  "userdoc": {
    "kind": "user",
    "methods": {},
    "version": 1
  }
}