{
  "contractName": "Stone",
  "abi": [
    {
      "inputs": [
        {
          "internalType": "address",
          "name": "_minter",
          "type": "address"
        },
        {
          "internalType": "address",
          "name": "_layerZeroEndpoint",
          "type": "address"
        },
        {
          "internalType": "uint256",
          "name": "_cap",
          "type": "uint256"
        }
      ],
      "stateMutability": "nonpayable",
      "type": "constructor"
    },
    {
      "anonymous": false,
      "inputs": [
        {
          "indexed": true,
          "internalType": "address",
          "name": "owner",
          "type": "address"
        },
        {
          "indexed": true,
          "internalType": "address",
          "name": "spender",
          "type": "address"
        },
        {
          "indexed": false,
          "internalType": "uint256",
          "name": "value",
          "type": "uint256"
        }
      ],
      "name": "Approval",
      "type": "event"
    },
    {
      "anonymous": false,
      "inputs": [
        {
          "indexed": true,
          "internalType": "uint16",
          "name": "dstChainId",
          "type": "uint16"
        },
        {
          "indexed": true,
          "internalType": "address",
          "name": "from",
          "type": "address"
        },
        {
          "indexed": false,
          "internalType": "bytes",
          "name": "toAddress",
          "type": "bytes"
        },
        {
          "indexed": false,
          "internalType": "uint256",
          "name": "price",
          "type": "uint256"
        }
      ],
      "name": "FeedToChain",
      "type": "event"
    },
    {
      "anonymous": false,
      "inputs": [
        {
          "indexed": false,
          "internalType": "uint16",
          "name": "_srcChainId",
          "type": "uint16"
        },
        {
          "indexed": false,
          "internalType": "bytes",
          "name": "_srcAddress",
          "type": "bytes"
        },
        {
          "indexed": false,
          "internalType": "uint64",
          "name": "_nonce",
          "type": "uint64"
        },
        {
          "indexed": false,
          "internalType": "bytes",
          "name": "_payload",
          "type": "bytes"
        },
        {
          "indexed": false,
          "internalType": "bytes",
          "name": "_reason",
          "type": "bytes"
        }
      ],
      "name": "MessageFailed",
      "type": "event"
    },
    {
      "anonymous": false,
      "inputs": [
        {
          "indexed": true,
          "internalType": "address",
          "name": "previousOwner",
          "type": "address"
        },
        {
          "indexed": true,
          "internalType": "address",
          "name": "newOwner",
          "type": "address"
        }
      ],
      "name": "OwnershipTransferred",
      "type": "event"
    },
    {
      "anonymous": false,
      "inputs": [
        {
          "indexed": true,
          "internalType": "uint16",
          "name": "_srcChainId",
          "type": "uint16"
        },
        {
          "indexed": true,
          "internalType": "address",
          "name": "_to",
          "type": "address"
        },
        {
          "indexed": false,
          "internalType": "uint256",
          "name": "_amount",
          "type": "uint256"
        }
      ],
      "name": "ReceiveFromChain",
      "type": "event"
    },
    {
      "anonymous": false,
      "inputs": [
        {
          "indexed": false,
          "internalType": "uint16",
          "name": "_srcChainId",
          "type": "uint16"
        },
        {
          "indexed": false,
          "internalType": "bytes",
          "name": "_srcAddress",
          "type": "bytes"
        },
        {
          "indexed": false,
          "internalType": "uint64",
          "name": "_nonce",
          "type": "uint64"
        },
        {
          "indexed": false,
          "internalType": "bytes32",
          "name": "_payloadHash",
          "type": "bytes32"
        }
      ],
      "name": "RetryMessageSuccess",
      "type": "event"
    },
    {
      "anonymous": false,
      "inputs": [
        {
          "indexed": true,
          "internalType": "uint16",
          "name": "_dstChainId",
          "type": "uint16"
        },
        {
          "indexed": true,
          "internalType": "address",
          "name": "_from",
          "type": "address"
        },
        {
          "indexed": false,
          "internalType": "bytes",
          "name": "_toAddress",
          "type": "bytes"
        },
        {
          "indexed": false,
          "internalType": "uint256",
          "name": "_amount",
          "type": "uint256"
        }
      ],
      "name": "SendToChain",
      "type": "event"
    },
    {
      "anonymous": false,
      "inputs": [
        {
          "indexed": true,
          "internalType": "uint16",
          "name": "dstChainId",
          "type": "uint16"
        },
        {
          "indexed": false,
          "internalType": "bytes",
          "name": "toAddress",
          "type": "bytes"
        },
        {
          "indexed": false,
          "internalType": "uint256",
          "name": "cap",
          "type": "uint256"
        }
      ],
      "name": "SetCapFor",
      "type": "event"
    },
    {
      "anonymous": false,
      "inputs": [
        {
          "indexed": true,
          "internalType": "uint16",
          "name": "dstChainId",
          "type": "uint16"
        },
        {
          "indexed": false,
          "internalType": "bytes",
          "name": "toAddress",
          "type": "bytes"
        },
        {
          "indexed": false,
          "internalType": "bool",
          "name": "flag",
          "type": "bool"
        }
      ],
      "name": "SetEnableFor",
      "type": "event"
    },
    {
      "anonymous": false,
      "inputs": [
        {
          "indexed": false,
          "internalType": "uint16",
          "name": "_dstChainId",
          "type": "uint16"
        },
        {
          "indexed": false,
          "internalType": "uint16",
          "name": "_type",
          "type": "uint16"
        },
        {
          "indexed": false,
          "internalType": "uint256",
          "name": "_minDstGas",
          "type": "uint256"
        }
      ],
      "name": "SetMinDstGas",
      "type": "event"
    },
    {
      "anonymous": false,
      "inputs": [
        {
          "indexed": false,
          "internalType": "address",
          "name": "precrime",
          "type": "address"
        }
      ],
      "name": "SetPrecrime",
      "type": "event"
    },
    {
      "anonymous": false,
      "inputs": [
        {
          "indexed": false,
          "internalType": "uint16",
          "name": "_remoteChainId",
          "type": "uint16"
        },
        {
          "indexed": false,
          "internalType": "bytes",
          "name": "_path",
          "type": "bytes"
        }
      ],
      "name": "SetTrustedRemote",
      "type": "event"
    },
    {
      "anonymous": false,
      "inputs": [
        {
          "indexed": false,
          "internalType": "uint16",
          "name": "_remoteChainId",
          "type": "uint16"
        },
        {
          "indexed": false,
          "internalType": "bytes",
          "name": "_remoteAddress",
          "type": "bytes"
        }
      ],
      "name": "SetTrustedRemoteAddress",
      "type": "event"
    },
    {
      "anonymous": false,
      "inputs": [
        {
          "indexed": false,
          "internalType": "bool",
          "name": "_useCustomAdapterParams",
          "type": "bool"
        }
      ],
      "name": "SetUseCustomAdapterParams",
      "type": "event"
    },
    {
      "anonymous": false,
      "inputs": [
        {
          "indexed": true,
          "internalType": "address",
          "name": "from",
          "type": "address"
        },
        {
          "indexed": true,
          "internalType": "address",
          "name": "to",
          "type": "address"
        },
        {
          "indexed": false,
          "internalType": "uint256",
          "name": "value",
          "type": "uint256"
        }
      ],
      "name": "Transfer",
      "type": "event"
    },
    {
      "inputs": [],
      "name": "DAY_INTERVAL",
      "outputs": [
        {
          "internalType": "uint256",
          "name": "",
          "type": "uint256"
        }
      ],
      "stateMutability": "view",
      "type": "function"
    },
    {
      "inputs": [],
      "name": "DEFAULT_PAYLOAD_SIZE_LIMIT",
      "outputs": [
        {
          "internalType": "uint256",
          "name": "",
          "type": "uint256"
        }
      ],
      "stateMutability": "view",
      "type": "function"
    },
    {
      "inputs": [],
      "name": "NO_EXTRA_GAS",
      "outputs": [
        {
          "internalType": "uint256",
          "name": "",
          "type": "uint256"
        }
      ],
      "stateMutability": "view",
      "type": "function"
    },
    {
      "inputs": [],
      "name": "PT_FEED",
      "outputs": [
        {
          "internalType": "uint16",
          "name": "",
          "type": "uint16"
        }
      ],
      "stateMutability": "view",
      "type": "function"
    },
    {
      "inputs": [],
      "name": "PT_SEND",
      "outputs": [
        {
          "internalType": "uint16",
          "name": "",
          "type": "uint16"
        }
      ],
      "stateMutability": "view",
      "type": "function"
    },
    {
      "inputs": [],
      "name": "PT_SET_CAP",
      "outputs": [
        {
          "internalType": "uint16",
          "name": "",
          "type": "uint16"
        }
      ],
      "stateMutability": "view",
      "type": "function"
    },
    {
      "inputs": [],
      "name": "PT_SET_ENABLE",
      "outputs": [
        {
          "internalType": "uint16",
          "name": "",
          "type": "uint16"
        }
      ],
      "stateMutability": "view",
      "type": "function"
    },
    {
      "inputs": [
        {
          "internalType": "address",
          "name": "owner",
          "type": "address"
        },
        {
          "internalType": "address",
          "name": "spender",
          "type": "address"
        }
      ],
      "name": "allowance",
      "outputs": [
        {
          "internalType": "uint256",
          "name": "",
          "type": "uint256"
        }
      ],
      "stateMutability": "view",
      "type": "function"
    },
    {
      "inputs": [
        {
          "internalType": "address",
          "name": "spender",
          "type": "address"
        },
        {
          "internalType": "uint256",
          "name": "amount",
          "type": "uint256"
        }
      ],
      "name": "approve",
      "outputs": [
        {
          "internalType": "bool",
          "name": "",
          "type": "bool"
        }
      ],
      "stateMutability": "nonpayable",
      "type": "function"
    },
    {
      "inputs": [
        {
          "internalType": "address",
          "name": "account",
          "type": "address"
        }
      ],
      "name": "balanceOf",
      "outputs": [
        {
          "internalType": "uint256",
          "name": "",
          "type": "uint256"
        }
      ],
      "stateMutability": "view",
      "type": "function"
    },
    {
      "inputs": [],
      "name": "cap",
      "outputs": [
        {
          "internalType": "uint256",
          "name": "",
          "type": "uint256"
        }
      ],
      "stateMutability": "view",
      "type": "function"
    },
    {
      "inputs": [],
      "name": "circulatingSupply",
      "outputs": [
        {
          "internalType": "uint256",
          "name": "",
          "type": "uint256"
        }
      ],
      "stateMutability": "view",
      "type": "function"
    },
    {
      "inputs": [],
      "name": "decimals",
      "outputs": [
        {
          "internalType": "uint8",
          "name": "",
          "type": "uint8"
        }
      ],
      "stateMutability": "view",
      "type": "function"
    },
    {
      "inputs": [
        {
          "internalType": "address",
          "name": "spender",
          "type": "address"
        },
        {
          "internalType": "uint256",
          "name": "subtractedValue",
          "type": "uint256"
        }
      ],
      "name": "decreaseAllowance",
      "outputs": [
        {
          "internalType": "bool",
          "name": "",
          "type": "bool"
        }
      ],
      "stateMutability": "nonpayable",
      "type": "function"
    },
    {
      "inputs": [],
      "name": "enable",
      "outputs": [
        {
          "internalType": "bool",
          "name": "",
          "type": "bool"
        }
      ],
      "stateMutability": "view",
      "type": "function"
    },
    {
      "inputs": [
        {
          "internalType": "uint16",
          "name": "_dstChainId",
          "type": "uint16"
        },
        {
          "internalType": "bytes",
          "name": "_toAddress",
          "type": "bytes"
        },
        {
          "internalType": "uint256",
          "name": "_amount",
          "type": "uint256"
        },
        {
          "internalType": "bool",
          "name": "_useZro",
          "type": "bool"
        },
        {
          "internalType": "bytes",
          "name": "_adapterParams",
          "type": "bytes"
        }
      ],
      "name": "estimateSendFee",
      "outputs": [
        {
          "internalType": "uint256",
          "name": "nativeFee",
          "type": "uint256"
        },
        {
          "internalType": "uint256",
          "name": "zroFee",
          "type": "uint256"
        }
      ],
      "stateMutability": "view",
      "type": "function"
    },
    {
      "inputs": [
        {
          "internalType": "uint16",
          "name": "",
          "type": "uint16"
        },
        {
          "internalType": "bytes",
          "name": "",
          "type": "bytes"
        },
        {
          "internalType": "uint64",
          "name": "",
          "type": "uint64"
        }
      ],
      "name": "failedMessages",
      "outputs": [
        {
          "internalType": "bytes32",
          "name": "",
          "type": "bytes32"
        }
      ],
      "stateMutability": "view",
      "type": "function"
    },
    {
      "inputs": [
        {
          "internalType": "uint16",
          "name": "_srcChainId",
          "type": "uint16"
        },
        {
          "internalType": "bytes",
          "name": "_srcAddress",
          "type": "bytes"
        }
      ],
      "name": "forceResumeReceive",
      "outputs": [],
      "stateMutability": "nonpayable",
      "type": "function"
    },
    {
      "inputs": [
        {
          "internalType": "uint16",
          "name": "_version",
          "type": "uint16"
        },
        {
          "internalType": "uint16",
          "name": "_chainId",
          "type": "uint16"
        },
        {
          "internalType": "address",
          "name": "",
          "type": "address"
        },
        {
          "internalType": "uint256",
          "name": "_configType",
          "type": "uint256"
        }
      ],
      "name": "getConfig",
      "outputs": [
        {
          "internalType": "bytes",
          "name": "",
          "type": "bytes"
        }
      ],
      "stateMutability": "view",
      "type": "function"
    },
    {
      "inputs": [
        {
          "internalType": "uint16",
          "name": "_remoteChainId",
          "type": "uint16"
        }
      ],
      "name": "getTrustedRemoteAddress",
      "outputs": [
        {
          "internalType": "bytes",
          "name": "",
          "type": "bytes"
        }
      ],
      "stateMutability": "view",
      "type": "function"
    },
    {
      "inputs": [
        {
          "internalType": "address",
          "name": "spender",
          "type": "address"
        },
        {
          "internalType": "uint256",
          "name": "addedValue",
          "type": "uint256"
        }
      ],
      "name": "increaseAllowance",
      "outputs": [
        {
          "internalType": "bool",
          "name": "",
          "type": "bool"
        }
      ],
      "stateMutability": "nonpayable",
      "type": "function"
    },
    {
      "inputs": [
        {
          "internalType": "uint16",
          "name": "_srcChainId",
          "type": "uint16"
        },
        {
          "internalType": "bytes",
          "name": "_srcAddress",
          "type": "bytes"
        }
      ],
      "name": "isTrustedRemote",
      "outputs": [
        {
          "internalType": "bool",
          "name": "",
          "type": "bool"
        }
      ],
      "stateMutability": "view",
      "type": "function"
    },
    {
      "inputs": [],
      "name": "lzEndpoint",
      "outputs": [
        {
          "internalType": "contract ILayerZeroEndpoint",
          "name": "",
          "type": "address"
        }
      ],
      "stateMutability": "view",
      "type": "function"
    },
    {
      "inputs": [
        {
          "internalType": "uint16",
          "name": "_srcChainId",
          "type": "uint16"
        },
        {
          "internalType": "bytes",
          "name": "_srcAddress",
          "type": "bytes"
        },
        {
          "internalType": "uint64",
          "name": "_nonce",
          "type": "uint64"
        },
        {
          "internalType": "bytes",
          "name": "_payload",
          "type": "bytes"
        }
      ],
      "name": "lzReceive",
      "outputs": [],
      "stateMutability": "nonpayable",
      "type": "function"
    },
    {
      "inputs": [
        {
          "internalType": "uint16",
          "name": "",
          "type": "uint16"
        },
        {
          "internalType": "uint16",
          "name": "",
          "type": "uint16"
        }
      ],
      "name": "minDstGasLookup",
      "outputs": [
        {
          "internalType": "uint256",
          "name": "",
          "type": "uint256"
        }
      ],
      "stateMutability": "view",
      "type": "function"
    },
    {
      "inputs": [],
      "name": "minter",
      "outputs": [
        {
          "internalType": "address",
          "name": "",
          "type": "address"
        }
      ],
      "stateMutability": "view",
      "type": "function"
    },
    {
      "inputs": [],
      "name": "name",
      "outputs": [
        {
          "internalType": "string",
          "name": "",
          "type": "string"
        }
      ],
      "stateMutability": "view",
      "type": "function"
    },
    {
      "inputs": [
        {
          "internalType": "uint16",
          "name": "_srcChainId",
          "type": "uint16"
        },
        {
          "internalType": "bytes",
          "name": "_srcAddress",
          "type": "bytes"
        },
        {
          "internalType": "uint64",
          "name": "_nonce",
          "type": "uint64"
        },
        {
          "internalType": "bytes",
          "name": "_payload",
          "type": "bytes"
        }
      ],
      "name": "nonblockingLzReceive",
      "outputs": [],
      "stateMutability": "nonpayable",
      "type": "function"
    },
    {
      "inputs": [],
      "name": "owner",
      "outputs": [
        {
          "internalType": "address",
          "name": "",
          "type": "address"
        }
      ],
      "stateMutability": "view",
      "type": "function"
    },
    {
      "inputs": [
        {
          "internalType": "uint16",
          "name": "",
          "type": "uint16"
        }
      ],
      "name": "payloadSizeLimitLookup",
      "outputs": [
        {
          "internalType": "uint256",
          "name": "",
          "type": "uint256"
        }
      ],
      "stateMutability": "view",
      "type": "function"
    },
    {
      "inputs": [],
      "name": "precrime",
      "outputs": [
        {
          "internalType": "address",
          "name": "",
          "type": "address"
        }
      ],
      "stateMutability": "view",
      "type": "function"
    },
    {
      "inputs": [
        {
          "internalType": "uint256",
          "name": "",
          "type": "uint256"
        }
      ],
      "name": "quota",
      "outputs": [
        {
          "internalType": "uint256",
          "name": "",
          "type": "uint256"
        }
      ],
      "stateMutability": "view",
      "type": "function"
    },
    {
      "inputs": [],
      "name": "renounceOwnership",
      "outputs": [],
      "stateMutability": "nonpayable",
      "type": "function"
    },
    {
      "inputs": [
        {
          "internalType": "uint16",
          "name": "_srcChainId",
          "type": "uint16"
        },
        {
          "internalType": "bytes",
          "name": "_srcAddress",
          "type": "bytes"
        },
        {
          "internalType": "uint64",
          "name": "_nonce",
          "type": "uint64"
        },
        {
          "internalType": "bytes",
          "name": "_payload",
          "type": "bytes"
        }
      ],
      "name": "retryMessage",
      "outputs": [],
      "stateMutability": "payable",
      "type": "function"
    },
    {
      "inputs": [
        {
          "internalType": "uint16",
          "name": "_version",
          "type": "uint16"
        },
        {
          "internalType": "uint16",
          "name": "_chainId",
          "type": "uint16"
        },
        {
          "internalType": "uint256",
          "name": "_configType",
          "type": "uint256"
        },
        {
          "internalType": "bytes",
          "name": "_config",
          "type": "bytes"
        }
      ],
      "name": "setConfig",
      "outputs": [],
      "stateMutability": "nonpayable",
      "type": "function"
    },
    {
      "inputs": [
        {
          "internalType": "uint16",
          "name": "_dstChainId",
          "type": "uint16"
        },
        {
          "internalType": "uint16",
          "name": "_packetType",
          "type": "uint16"
        },
        {
          "internalType": "uint256",
          "name": "_minGas",
          "type": "uint256"
        }
      ],
      "name": "setMinDstGas",
      "outputs": [],
      "stateMutability": "nonpayable",
      "type": "function"
    },
    {
      "inputs": [
        {
          "internalType": "uint16",
          "name": "_dstChainId",
          "type": "uint16"
        },
        {
          "internalType": "uint256",
          "name": "_size",
          "type": "uint256"
        }
      ],
      "name": "setPayloadSizeLimit",
      "outputs": [],
      "stateMutability": "nonpayable",
      "type": "function"
    },
    {
      "inputs": [
        {
          "internalType": "address",
          "name": "_precrime",
          "type": "address"
        }
      ],
      "name": "setPrecrime",
      "outputs": [],
      "stateMutability": "nonpayable",
      "type": "function"
    },
    {
      "inputs": [
        {
          "internalType": "uint16",
          "name": "_version",
          "type": "uint16"
        }
      ],
      "name": "setReceiveVersion",
      "outputs": [],
      "stateMutability": "nonpayable",
      "type": "function"
    },
    {
      "inputs": [
        {
          "internalType": "uint16",
          "name": "_version",
          "type": "uint16"
        }
      ],
      "name": "setSendVersion",
      "outputs": [],
      "stateMutability": "nonpayable",
      "type": "function"
    },
    {
      "inputs": [
        {
          "internalType": "uint16",
          "name": "_remoteChainId",
          "type": "uint16"
        },
        {
          "internalType": "bytes",
          "name": "_path",
          "type": "bytes"
        }
      ],
      "name": "setTrustedRemote",
      "outputs": [],
      "stateMutability": "nonpayable",
      "type": "function"
    },
    {
      "inputs": [
        {
          "internalType": "uint16",
          "name": "_remoteChainId",
          "type": "uint16"
        },
        {
          "internalType": "bytes",
          "name": "_remoteAddress",
          "type": "bytes"
        }
      ],
      "name": "setTrustedRemoteAddress",
      "outputs": [],
      "stateMutability": "nonpayable",
      "type": "function"
    },
    {
      "inputs": [
        {
          "internalType": "bool",
          "name": "_useCustomAdapterParams",
          "type": "bool"
        }
      ],
      "name": "setUseCustomAdapterParams",
      "outputs": [],
      "stateMutability": "nonpayable",
      "type": "function"
    },
    {
      "inputs": [
        {
          "internalType": "bytes4",
          "name": "interfaceId",
          "type": "bytes4"
        }
      ],
      "name": "supportsInterface",
      "outputs": [
        {
          "internalType": "bool",
          "name": "",
          "type": "bool"
        }
      ],
      "stateMutability": "view",
      "type": "function"
    },
    {
      "inputs": [],
      "name": "symbol",
      "outputs": [
        {
          "internalType": "string",
          "name": "",
          "type": "string"
        }
      ],
      "stateMutability": "view",
      "type": "function"
    },
    {
      "inputs": [],
      "name": "token",
      "outputs": [
        {
          "internalType": "address",
          "name": "",
          "type": "address"
        }
      ],
      "stateMutability": "view",
      "type": "function"
    },
    {
      "inputs": [],
      "name": "totalSupply",
      "outputs": [
        {
          "internalType": "uint256",
          "name": "",
          "type": "uint256"
        }
      ],
      "stateMutability": "view",
      "type": "function"
    },
    {
      "inputs": [
        {
          "internalType": "address",
          "name": "to",
          "type": "address"
        },
        {
          "internalType": "uint256",
          "name": "amount",
          "type": "uint256"
        }
      ],
      "name": "transfer",
      "outputs": [
        {
          "internalType": "bool",
          "name": "",
          "type": "bool"
        }
      ],
      "stateMutability": "nonpayable",
      "type": "function"
    },
    {
      "inputs": [
        {
          "internalType": "address",
          "name": "from",
          "type": "address"
        },
        {
          "internalType": "address",
          "name": "to",
          "type": "address"
        },
        {
          "internalType": "uint256",
          "name": "amount",
          "type": "uint256"
        }
      ],
      "name": "transferFrom",
      "outputs": [
        {
          "internalType": "bool",
          "name": "",
          "type": "bool"
        }
      ],
      "stateMutability": "nonpayable",
      "type": "function"
    },
    {
      "inputs": [
        {
          "internalType": "address",
          "name": "newOwner",
          "type": "address"
        }
      ],
      "name": "transferOwnership",
      "outputs": [],
      "stateMutability": "nonpayable",
      "type": "function"
    },
    {
      "inputs": [
        {
          "internalType": "uint16",
          "name": "",
          "type": "uint16"
        }
      ],
      "name": "trustedRemoteLookup",
      "outputs": [
        {
          "internalType": "bytes",
          "name": "",
          "type": "bytes"
        }
      ],
      "stateMutability": "view",
      "type": "function"
    },
    {
      "inputs": [],
      "name": "useCustomAdapterParams",
      "outputs": [
        {
          "internalType": "bool",
          "name": "",
          "type": "bool"
        }
      ],
      "stateMutability": "view",
      "type": "function"
    },
    {
      "inputs": [
        {
          "internalType": "address",
          "name": "_to",
          "type": "address"
        },
        {
          "internalType": "uint256",
          "name": "_amount",
          "type": "uint256"
        }
      ],
      "name": "mint",
      "outputs": [],
      "stateMutability": "nonpayable",
      "type": "function"
    },
    {
      "inputs": [
        {
          "internalType": "address",
          "name": "_from",
          "type": "address"
        },
        {
          "internalType": "uint256",
          "name": "_amount",
          "type": "uint256"
        }
      ],
      "name": "burn",
      "outputs": [],
      "stateMutability": "nonpayable",
      "type": "function"
    },
    {
      "inputs": [
        {
          "internalType": "address",
          "name": "_from",
          "type": "address"
        },
        {
          "internalType": "uint16",
          "name": "_dstChainId",
          "type": "uint16"
        },
        {
          "internalType": "bytes",
          "name": "_toAddress",
          "type": "bytes"
        },
        {
          "internalType": "uint256",
          "name": "_amount",
          "type": "uint256"
        },
        {
          "internalType": "address payable",
          "name": "_refundAddress",
          "type": "address"
        },
        {
          "internalType": "address",
          "name": "_zroPaymentAddress",
          "type": "address"
        },
        {
          "internalType": "bytes",
          "name": "_adapterParams",
          "type": "bytes"
        }
      ],
      "name": "sendFrom",
      "outputs": [],
      "stateMutability": "payable",
      "type": "function"
    },
    {
      "inputs": [
        {
          "internalType": "uint16",
          "name": "_dstChainId",
          "type": "uint16"
        },
        {
          "internalType": "bytes",
          "name": "_toAddress",
          "type": "bytes"
        }
      ],
      "name": "updatePrice",
      "outputs": [
        {
          "internalType": "uint256",
          "name": "price",
          "type": "uint256"
        }
      ],
      "stateMutability": "payable",
      "type": "function"
    },
    {
      "inputs": [
        {
          "internalType": "uint16",
          "name": "_dstChainId",
          "type": "uint16"
        },
        {
          "internalType": "bool",
          "name": "_flag",
          "type": "bool"
        },
        {
          "internalType": "bytes",
          "name": "_toAddress",
          "type": "bytes"
        }
      ],
      "name": "setEnableFor",
      "outputs": [],
      "stateMutability": "payable",
      "type": "function"
    },
    {
      "inputs": [
        {
          "internalType": "uint16",
          "name": "_dstChainId",
          "type": "uint16"
        },
        {
          "internalType": "uint256",
          "name": "_cap",
          "type": "uint256"
        },
        {
          "internalType": "bytes",
          "name": "_toAddress",
          "type": "bytes"
        }
      ],
      "name": "setCapFor",
      "outputs": [],
      "stateMutability": "payable",
      "type": "function"
    },
    {
      "inputs": [],
      "name": "tokenPrice",
      "outputs": [
        {
          "internalType": "uint256",
          "name": "price",
          "type": "uint256"
        }
      ],
      "stateMutability": "nonpayable",
      "type": "function"
    },
    {
      "inputs": [],
      "name": "getQuota",
      "outputs": [
        {
          "internalType": "uint256",
          "name": "",
          "type": "uint256"
        }
      ],
      "stateMutability": "view",
      "type": "function"
    }
  ],
  "bytecode": "0x60a0346200041d57601f90601f19906001600160401b0362003a34388190038581018516840191908383118584101762000421578085926060946040528339810103126200041d57620000528262000455565b9060209060406200006583860162000455565b940151956200007362000435565b92601084526f29ba30b5b2a9ba37b7329022ba3432b960811b818501526200009a62000435565b600581526453544f4e4560d81b828201525f8054336001600160a01b0319808316821784559a6001600160a01b039a9495939490928b929083167f8be0079c531659141344cd1fd0a4f28419497f9722a3daafe3b4186f6b6457e08780a31660805286518681116200040957600a54976001988981811c91168015620003fe575b85821014620003ea5790818884931162000396575b5084908883116001146200033457869262000328575b50505f19600383901b1c191690881b17600a555b83519586116200031457600b548781811c9116801562000309575b83821014620002f5579081868897969594931162000299575b5081948611600114620002345750509262000228575b50505f19600383901b1c191690821b17600b555b60ff19600e541617600e551690600c541617600c55600d556040516135c990816200046b823960805181818161048c0152818161077c0152818161089c01528181610c3a01528181611a2d01528181611b57015281816121a2015281816126900152818161303e015261313c0152f35b015190505f80620001a4565b600b83528183208897909594939116915b8282106200027f575050841162000266575b505050811b01600b55620001b8565b01515f1960f88460031b161c191690555f808062000257565b848401518655889790950194938401939081019062000245565b90919293949550600b84528284208680890160051c820192858a10620002eb575b9189988b929897969594930160051c01915b828110620002dc5750506200018e565b8581558998508a9101620002cc565b92508192620002ba565b634e487b7160e01b84526022600452602484fd5b90607f169062000175565b634e487b7160e01b83526041600452602483fd5b015190505f8062000146565b90848b941691600a885286882092885b888282106200037f575050841162000366575b505050811b01600a556200015a565b01515f1960f88460031b161c191690555f808062000357565b8385015186558e9790950194938401930162000344565b909150600a86528486208880850160051c820192878610620003e0575b918c91869594930160051c01915b828110620003d157505062000130565b8881558594508c9101620003c1565b92508192620003b3565b634e487b7160e01b86526022600452602486fd5b90607f16906200011b565b634e487b7160e01b84526041600452602484fd5b5f80fd5b634e487b7160e01b5f52604160045260245ffd5b60408051919082016001600160401b038111838210176200042157604052565b51906001600160a01b03821682036200041d5756fe60806040526004361015610011575f80fd5b5f3560e01c80621d3567146103ce57806301ffc9a7146103c957806306fdde03146103c457806307546172146103bf57806307e0db17146103ba578063095ea7b3146103b55780630df37483146103b057806310ddb137146103ab57806318160ddd146103a65780631df8ba77146103a157806323b872dd1461039c5780632a205e3d14610397578063313ce56714610392578063355274ea1461038d57806339509351146103885780633d8b38f6146103835780633f1f4fa41461037e57806340c10f191461037957806342d65a8d14610374578063447705151461036a578063471744d11461036f5780634c42899a1461036a57806351905636146103655780635b8c41e61461036057806366ad5c8a1461035b57806368322ff5146103565780636abe0abf1461035157806370a082311461034c578063715018a6146103475780637533d788146103425780637ff9b5961461033d5780638cfd8f5c146103385780638da5cb5b1461033357806390e9097a1461032e5780639358928b14610329578063950c8a741461032457806395d89b411461031f5780639dc29fac1461031a5780639f38369a14610315578063a162b0a214610310578063a3907d711461030b578063a457c2d714610306578063a6c3d16514610301578063a9059cbb146102fc578063b353aaa7146102f7578063baf3292d146102f2578063c4461834146102ed578063ca5ea406146102e8578063cbed8b9c146102e3578063d1b4a2d8146102de578063d1deba1f146102d9578063dd62ed3e146102d4578063df2a5b3b146102cf578063e3ec18ae146102ca578063eab45d9c146102c5578063eb8d72b7146102c0578063ed629c5c146102bb578063f2fde38b146102b6578063f5ecbdbc146102b15763fc0c546a146102ac575f80fd5b61220b565b612139565b612073565b612051565b611f11565b611eaf565b611e94565b611dab565b611d62565b611c3b565b611bee565b611b03565b611ae8565b611acc565b611a5c565b611a18565b6119ee565b611866565b6117bc565b61179a565b611770565b6116cf565b6115ee565b611565565b61153d565b611512565b611419565b6113f2565b61139b565b611381565b61132c565b6111ed565b6111b2565b611195565b61113f565b610f92565b610f12565b610cd5565b610ca0565b610cba565b610c20565b610b50565b610b19565b610abf565b610a39565b610a1c565b610a01565b61097c565b61093c565b61091a565b6108fd565b610874565b610838565b610803565b610754565b61072c565b61066d565b610589565b610475565b61ffff8116036103df57565b5f80fd5b9181601f840112156103df578235916001600160401b0383116103df57602083818601950101116103df57565b9060806003198301126103df57600435610429816103d3565b916001600160401b03906024358281116103df578161044a916004016103e3565b9390939260443581811681036103df57926064359182116103df57610471916004016103e3565b9091565b346103df5761048336610410565b929493919291907f00000000000000000000000000000000000000000000000000000000000000006001600160a01b031633036105445761050761050f92610515976105006104e66104e18a61ffff165f52600160205260405f2090565b61130f565b805190818414918261053a575b5081610517575b50612225565b3691610e85565b923691610e85565b926123a3565b005b9050610524368486610e85565b602081519101209060208151910120145f6104fa565b151591505f6104f3565b60405162461bcd60e51b815260206004820152601e60248201527f4c7a4170703a20696e76616c696420656e64706f696e742063616c6c657200006044820152606490fd5b346103df5760203660031901126103df5760043563ffffffff60e01b81168091036103df5780602091159081156105f8575b81156105cd575b506040519015158152f35b630a72677560e11b8114915081156105e7575b505f6105c2565b6301ffc9a760e01b1490505f6105e0565b6336372b0760e01b811491506105bb565b5f9103126103df57565b5f5b8381106106245750505f910152565b8181015183820152602001610615565b9060209161064d81518092818552858086019101610613565b601f01601f1916010190565b90602061066a928181520190610634565b90565b346103df575f806003193601126107295760405181600a5461068e81611247565b9081845260209260019182811690815f1461070757506001146106cc575b6106c8856106bc81890382610e49565b60405191829182610659565b0390f35b929450600a83528483205b8284106106f457505050816106c8936106bc92820101935f6106ac565b80548585018701529285019281016106d7565b60ff191686860152505050151560051b82010191506106bc816106c85f6106ac565b80fd5b346103df575f3660031901126103df57600c546040516001600160a01b039091168152602090f35b346103df575f602036600319011261072957600435610772816103d3565b61077a6128f1565b7f00000000000000000000000000000000000000000000000000000000000000006001600160a01b0316908290823b156107ee57602461ffff918360405195869485936307e0db1760e01b85521660048401525af180156107e9576107dd575080f35b6107e690610e16565b80f35b6122e7565b5080fd5b6001600160a01b038116036103df57565b346103df5760403660031901126103df5761082d600435610823816107f2565b6024359033612ad5565b602060405160018152f35b346103df5760403660031901126103df5761ffff600435610858816103d3565b6108606128f1565b165f52600360205260243560405f20555f80f35b346103df575f602036600319011261072957600435610892816103d3565b61089a6128f1565b7f00000000000000000000000000000000000000000000000000000000000000006001600160a01b0316908290823b156107ee57602461ffff918360405195869485936310ddb13760e01b85521660048401525af180156107e9576107dd575080f35b346103df575f3660031901126103df576020600954604051908152f35b346103df575f3660031901126103df57602061093461352e565b604051908152f35b346103df5760603660031901126103df5761082d60043561095c816107f2565b602435610968816107f2565b60443591610977833383612bec565b612a29565b346103df5760a03660031901126103df57600435610999816103d3565b6001600160401b03906024358281116103df576109ba9036906004016103e3565b916064359081151582036103df576084359485116103df576109e36109ef9536906004016103e3565b9490936044359261262b565b60408051928352602083019190915290f35b346103df575f3660031901126103df57602060405160128152f35b346103df575f3660031901126103df576020600d54604051908152f35b346103df5760403660031901126103df57600435610a56816107f2565b335f526008602052610a6b8160405f20612961565b546024358101809111610a825761082d9133612ad5565b612380565b9060406003198301126103df57600435610aa0816103d3565b91602435906001600160401b0382116103df57610471916004016103e3565b346103df57602061ffff610b0a610ad536610a87565b939091165f5260018452610af5610afc60405f206040519283809261127f565b0382610e49565b848151910120923691610e85565b82815191012014604051908152f35b346103df5760203660031901126103df5761ffff600435610b39816103d3565b165f526003602052602060405f2054604051908152f35b346103df5760403660031901126103df57600435610b6d816107f2565b6024359060018060a01b03610b8781600c54163314612c7b565b8116918215610bdb57610bd681610bc05f94610bbb610bb65f80516020613574833981519152966009546127c6565b600955565b612948565b8054820190556040519081529081906020820190565b0390a3005b60405162461bcd60e51b815260206004820152601f60248201527f45524332303a206d696e7420746f20746865207a65726f2061646472657373006044820152606490fd5b346103df57610c2e36610a87565b9190610c386128f1565b7f00000000000000000000000000000000000000000000000000000000000000006001600160a01b031691823b156103df57604051928380926342d65a8d60e01b825281610c8e5f988997889460048501612312565b03925af180156107e9576107dd575080f35b346103df575f3660031901126103df5760206040515f8152f35b346103df575f3660031901126103df57602060405160018152f35b60e03660031901126103df57600435610ced816107f2565b602435610cf9816103d3565b6001600160401b03906044358281116103df57610d1a9036906004016103e3565b60649391933560843591610d2d836107f2565b60a43593610d3a856107f2565b60c4359081116103df57610d529036906004016103e3565b969095610d6360ff600e5416612d03565b610d7361ffff8216461415612d39565b62015180420498895f52600f60205260405f20548501808611610a8257600d5410610dd05789610dca610dbb87610db56105159e5f52600f60205260405f2090565b546127c6565b915f52600f60205260405f2090565b55612d72565b60405162461bcd60e51b815260206004820152600a6024820152690457863656564206361760b41b6044820152606490fd5b634e487b7160e01b5f52604160045260245ffd5b6001600160401b038111610e2957604052565b610e02565b60c081019081106001600160401b03821117610e2957604052565b90601f801991011681019081106001600160401b03821117610e2957604052565b6001600160401b038111610e2957601f01601f191660200190565b929192610e9182610e6a565b91610e9f6040519384610e49565b8294818452818301116103df578281602093845f960137010152565b9080601f830112156103df5781602061066a93359101610e85565b602090610ef0928260405194838680955193849201610613565b82019081520301902090565b906001600160401b03165f5260205260405f2090565b346103df5760603660031901126103df57600435610f2f816103d3565b6001600160401b036024358181116103df57610f4f903690600401610ebb565b9060443590811681036103df57610f7c610f819261ffff6106c895165f52600560205260405f2090610ed6565b610efc565b546040519081529081906020820190565b346103df57610fa036610410565b9150913033036110eb57610fc193610fb9913691610e85565b503691610e85565b9060208083019061ffff9182815116155f146110a75784518501906060868303126103df57610ff090516103d3565b6040850151906001600160401b0382116103df576060918380611017930191880101612280565b94015193601481511061106a577fbf551ec93859b170f9b2141bd9298bf3f64322c6f7beb2543a0cb669834118bf929161105791015160601c94856127ad565b6040519081529216918060208101610bd6565b60405162461bcd60e51b8152600481018390526015602482015274746f416464726573735f6f75744f66426f756e647360581b6044820152606490fd5b60405162461bcd60e51b815260048101839052601c60248201527b4f4654436f72653a20756e6b6e6f776e207061636b6574207479706560201b6044820152606490fd5b60405162461bcd60e51b815260206004820152602660248201527f4e6f6e626c6f636b696e674c7a4170703a2063616c6c6572206d7573742062656044820152650204c7a4170760d41b6064820152608490fd5b60603660031901126103df57600435611157816103d3565b6024359081151582036103df57604435916001600160401b0383116103df57611187610515933690600401610ebb565b916111906128f1565b613338565b346103df575f3660031901126103df576020604051620151808152f35b346103df5760203660031901126103df576004356111cf816107f2565b60018060a01b03165f526007602052602060405f2054604051908152f35b346103df575f80600319360112610729576112066128f1565b80546001600160a01b03198116825581906001600160a01b03167f8be0079c531659141344cd1fd0a4f28419497f9722a3daafe3b4186f6b6457e08280a380f35b90600182811c92168015611275575b602083101461126157565b634e487b7160e01b5f52602260045260245ffd5b91607f1691611256565b80545f939261128d82611247565b9182825260209360019182811690815f146112f057506001146112b2575b5050505050565b90939495505f92919252835f2092845f945b8386106112dc57505050500101905f808080806112ab565b8054858701830152940193859082016112c4565b60ff19168685015250505090151560051b010191505f808080806112ab565b9061132a611323926040519384809261127f565b0383610e49565b565b346103df5760203660031901126103df5761ffff60043561134c816103d3565b165f5260016020526106c8610af561136d60405f206040519283809261127f565b604051918291602083526020830190610634565b346103df575f3660031901126103df5760206109346134c7565b346103df5760403660031901126103df5760206113e96004356113bd816103d3565b61ffff602435916113cd836103d3565b165f526002835260405f209061ffff165f5260205260405f2090565b54604051908152f35b346103df575f3660031901126103df575f546040516001600160a01b039091168152602090f35b60403660031901126103df57600435611431816103d3565b602435906001600160401b0382116103df576114546106c8923690600401610ebb565b61146260ff600e5416612d03565b61ffff821661147381461415612d39565b6114ce61147e6134c7565b936040519060016020830152608060408301526114bc826114a260a0820188610634565b88606083015242608083015203601f198101845283610e49565b6114c46128cf565b9034923391612fec565b7fa9abd88cb9207ea146a8c570a7c926ee640d4ef1eed13893a603f574d762f881604051806114ff86339683612f70565b0390a36040519081529081906020820190565b346103df575f3660031901126103df576020600954305f526007825260405f20549003604051908152f35b346103df575f3660031901126103df576004546040516001600160a01b039091168152602090f35b346103df575f806003193601126107295760405181600b5461158681611247565b9081845260209260019182811690815f1461070757506001146115b3576106c8856106bc81890382610e49565b929450600b83528483205b8284106115db57505050816106c8936106bc92820101935f6106ac565b80548585018701529285019281016115be565b346103df5760403660031901126103df5760043561160b816107f2565b60243560018060a01b0361162481600c54163314612c7b565b821690811561168057610bd681846116625f805160206135748339815191529461164e5f98612948565b5461165b82821015612cac565b0391612948565b556116708160095403600955565b6040519081529081906020820190565b60405162461bcd60e51b815260206004820152602160248201527f45524332303a206275726e2066726f6d20746865207a65726f206164647265736044820152607360f81b6064820152608490fd5b346103df5760203660031901126103df5761ffff6004356116ef816103d3565b165f526001602052610af561170d60405f206040519283809261127f565b80511561172b576106bc816117256106c89351612394565b90612850565b60405162461bcd60e51b815260206004820152601d60248201527f4c7a4170703a206e6f20747275737465642070617468207265636f72640000006044820152606490fd5b346103df5760203660031901126103df576004355f52600f602052602060405f2054604051908152f35b346103df575f3660031901126103df57602060ff600e54166040519015158152f35b346103df5760403660031901126103df576004356117d9816107f2565b60243590335f5260086020526117f28160405f20612961565b54918083106118135761180792039033612ad5565b60405160018152602090f35b60405162461bcd60e51b815260206004820152602560248201527f45524332303a2064656372656173656420616c6c6f77616e63652062656c6f77604482015264207a65726f60d81b6064820152608490fd5b346103df5761187436610a87565b919061187e6128f1565b604051916020928483858301376118aa6034828781013060601b88820152036014810184520182610e49565b5f9361ffff8316855260019081815260408620928051926001600160401b038411610e29576118e3846118dd8754611247565b8761232d565b82601f851160011461195a57505082879893611949959361193a937f8c0400cfe2d1199b1a725c78960bcc2a344d869b80590d0f2bd005db15a572ce9a9261194f575b50508160011b915f199060031b1c19161790565b90555b60405193849384612312565b0390a180f35b015190505f80611926565b91601f94939194198416611971875f5260205f2090565b938a905b8282106119d7575050917f8c0400cfe2d1199b1a725c78960bcc2a344d869b80590d0f2bd005db15a572ce999a95939185611949989694106119bf575b505050811b01905561193d565b01515f1960f88460031b161c191690555f80806119b2565b808886978294978701518155019601940190611975565b346103df5760403660031901126103df5761082d600435611a0e816107f2565b6024359033612a29565b346103df575f3660031901126103df576040517f00000000000000000000000000000000000000000000000000000000000000006001600160a01b03168152602090f35b346103df5760203660031901126103df577f5db758e995a17ec1ad84bdef7e8c3293a0bd6179bcce400dff5d4c3d87db726b6020600435611a9c816107f2565b611aa46128f1565b600480546001600160a01b0319166001600160a01b03929092169182179055604051908152a1005b346103df575f3660031901126103df5760206040516127108152f35b346103df575f3660031901126103df57602060405160028152f35b346103df5760803660031901126103df57600435611b20816103d3565b602435611b2c816103d3565b6064356001600160401b0381116103df57611b4b9036906004016103e3565b9092611b556128f1565b7f00000000000000000000000000000000000000000000000000000000000000006001600160a01b031690813b156103df575f8094611bcb604051978896879586946332fb62e760e21b865261ffff809216600487015216602485015260443560448501526080606485015260848401916122f2565b03925af180156107e957611bdb57005b80611be861051592610e16565b80610609565b60603660031901126103df57600435611c06816103d3565b604435906001600160401b0382116103df57611c29610515923690600401610ebb565b90611c326128f1565b60243590613412565b611c4436610410565b9161ffff86949296165f526005602052611c768160405f2060206040518092878b833787820190815203019020610efc565b54918215611d11577fc264d91f3adc5588250e1551f547752ca0cfa8f6b530d243b9f9f4cab10ea8e596611d0c94611d0091611cfa915f611cee87610f7c8d89611ce88f611cd68f611cc9368c8e610e85565b6020815191012014612542565b61ffff165f52600560205260405f2090565b91612529565b55610fb936868c610e85565b86612704565b60405195869586612598565b0390a1005b60405162461bcd60e51b815260206004820152602360248201527f4e6f6e626c6f636b696e674c7a4170703a206e6f2073746f726564206d65737360448201526261676560e81b6064820152608490fd5b346103df5760403660031901126103df5760206113e9600435611d84816107f2565b60243590611d91826107f2565b6001600160a01b03165f9081526008845260409020612961565b346103df5760603660031901126103df57600435611dc8816103d3565b602435611dd4816103d3565b60443591611de06128f1565b8215611e5757611d0c7f9d5c7c0b934da8fefa9c7760c98383778a12dfbfc0c3b3106518f43fb9508ac09361ffff83165f52600260205280611e318560405f209061ffff165f5260205260405f2090565b556040519384938460409194939294606082019561ffff80921683521660208201520152565b60405162461bcd60e51b81526020600482015260156024820152744c7a4170703a20696e76616c6964206d696e47617360581b6044820152606490fd5b346103df575f3660031901126103df57602060405160038152f35b346103df5760203660031901126103df576004358015158091036103df5760207f1584ad594a70cbe1e6515592e1272a987d922b097ead875069cebe8b40c004a491611ef96128f1565b60ff196006541660ff821617600655604051908152a1005b346103df57611f1f36610a87565b9190611f296128f1565b5f9161ffff811683526001602081815260408520916001600160401b038711610e2957611f6087611f5a8554611247565b8561232d565b8591601f8811600114611fc1575050946119499161193a828088997ffa41487ad5d6728f0b19276fa1eddc16558578f5109fc39d2dc33c3230470dab9991611fb6575b508160011b915f199060031b1c19161790565b90508701355f611fa3565b9091601f198816611fd5855f5260205f2090565b9288905b82821061203a575050918893917ffa41487ad5d6728f0b19276fa1eddc16558578f5109fc39d2dc33c3230470dab9899611949969410612021575b505082811b01905561193d565b8701355f19600386901b60f8161c191690555f80612014565b808685968294968c01358155019501930190611fd9565b346103df575f3660031901126103df57602060ff600654166040519015158152f35b346103df5760203660031901126103df57600435612090816107f2565b6120986128f1565b6001600160a01b0390811680156120e5575f80546001600160a01b03198116831782559092167f8be0079c531659141344cd1fd0a4f28419497f9722a3daafe3b4186f6b6457e08380a380f35b60405162461bcd60e51b815260206004820152602660248201527f4f776e61626c653a206e6577206f776e657220697320746865207a65726f206160448201526564647265737360d01b6064820152608490fd5b346103df5760803660031901126103df57600435612156816103d3565b60243590612163826103d3565b61216e6044356107f2565b604051633d7b2f6f60e21b815261ffff91821660048201529116602482015230604482015260648035908201525f816084817f00000000000000000000000000000000000000000000000000000000000000006001600160a01b03165afa80156107e9576106c8915f916121ea575b5060405191829182610659565b612205913d8091833e6121fd8183610e49565b8101906122c2565b5f6121dd565b346103df575f3660031901126103df576020604051308152f35b1561222c57565b60405162461bcd60e51b815260206004820152602660248201527f4c7a4170703a20696e76616c696420736f757263652073656e64696e6720636f6044820152651b9d1c9858dd60d21b6064820152608490fd5b81601f820112156103df57805161229681610e6a565b926122a46040519485610e49565b818452602082840101116103df5761066a9160208085019101610613565b906020828203126103df5781516001600160401b0381116103df5761066a9201612280565b6040513d5f823e3d90fd5b908060209392818452848401375f828201840152601f01601f1916010190565b60409061ffff61066a959316815281602082015201916122f2565b90601f811161233b57505050565b5f91825260208220906020601f850160051c83019410612376575b601f0160051c01915b82811061236b57505050565b81815560010161235f565b9092508290612356565b634e487b7160e01b5f52601160045260245ffd5b601319810191908211610a8257565b9290915a604051633356ae4560e11b6020820190815261ffff8716602483015260806044830152949161240f826124016123e060a4830187610634565b6001600160401b038816606484015282810360231901608484015288610634565b03601f198101845283610e49565b5f80916040519761241f89610e2e565b609689528260208a019560a036883751923090f1903d9060968211612464575b5f908288523e15612451575050505050565b61245a9461246d565b5f808080806112ab565b6096915061243f565b91936125167fe183f33de2837795525b4792ca4cd60535bd77c53b7e7030060bfcf5734d6b0c95612524939561ffff81516020830120961695865f5260056020526124dd836124cf60208b60405f208260405194838680955193849201610613565b820190815203019020610efc565b556001600160401b03612502604051988998895260a060208a015260a0890190610634565b921660408701528582036060870152610634565b908382036080850152610634565b0390a1565b6020919283604051948593843782019081520301902090565b1561254957565b60405162461bcd60e51b815260206004820152602160248201527f4e6f6e626c6f636b696e674c7a4170703a20696e76616c6964207061796c6f616044820152601960fa1b6064820152608490fd5b916125c49060609461ffff6001600160401b0394999897991685526080602086015260808501916122f2565b951660408201520152565b91908260409103126103df576020825192015190565b919261066a9694959361ffff6126169316845260018060a01b0316602084015260a0604084015260a0830190610634565b931515606082015260808185039101526122f2565b91949561268c9193949796612670604097889761265c89519889935f602086015260608c86015260808501916122f2565b90606083015203601f198101875286610e49565b855163040a7bb160e41b815298899586953090600488016125e5565b03817f00000000000000000000000000000000000000000000000000000000000000006001600160a01b03165afa9283156107e9575f9182946126d0575b50509190565b6126f493945080919250903d106126fd575b6126ec8183610e49565b8101906125cf565b91905f806126ca565b503d6126e2565b60208083019061ffff9182815116155f146110a75784518501906060868303126103df5761273290516103d3565b6040850151906001600160401b0382116103df576060918380612759930191880101612280565b94015193601481511061106a577fbf551ec93859b170f9b2141bd9298bf3f64322c6f7beb2543a0cb669834118bf929161279991015160601c94856127ad565b60405190815292169180602081015b0390a3565b8161066a9130612a29565b90601f8201809211610a8257565b91908201809211610a8257565b156127da57565b60405162461bcd60e51b815260206004820152600e60248201526d736c6963655f6f766572666c6f7760901b6044820152606490fd5b1561281757565b60405162461bcd60e51b8152602060048201526011602482015270736c6963655f6f75744f66426f756e647360781b6044820152606490fd5b6128648261285d816127b8565b10156127d3565b6128718282511015612810565b816128885750506040515f81526020810160405290565b60405191601f811691821560051b808486010193838501920101905b8084106128bc5750508252601f01601f191660405290565b90928351815260208091019301906128a4565b60405190602082018281106001600160401b03821117610e29576040525f8252565b5f546001600160a01b0316330361290457565b606460405162461bcd60e51b815260206004820152602060248201527f4f776e61626c653a2063616c6c6572206973206e6f7420746865206f776e65726044820152fd5b6001600160a01b03165f90815260076020526040902090565b9060018060a01b03165f5260205260405f2090565b1561297d57565b60405162461bcd60e51b815260206004820152602360248201527f45524332303a207472616e7366657220746f20746865207a65726f206164647260448201526265737360e81b6064820152608490fd5b156129d557565b60405162461bcd60e51b815260206004820152602660248201527f45524332303a207472616e7366657220616d6f756e7420657863656564732062604482015265616c616e636560d01b6064820152608490fd5b916001600160a01b038084169290918315612a8257610bc0825f80516020613574833981519152946127a8941696612a62881515612976565b612a7c84612a6f83612948565b5461165b828210156129ce565b55612948565b60405162461bcd60e51b815260206004820152602560248201527f45524332303a207472616e736665722066726f6d20746865207a65726f206164604482015264647265737360d81b6064820152608490fd5b6001600160a01b038082169291908315612b9b578216938415612b4b5780612b3a7f8c5be1e5ebec7d5bd14f71427d1e84f3dd0314c0f7b2291e5b200ac8c7c3b92594612b356127a89560018060a01b03165f52600860205260405f2090565b612961565b556040519081529081906020820190565b60405162461bcd60e51b815260206004820152602260248201527f45524332303a20617070726f766520746f20746865207a65726f206164647265604482015261737360f01b6064820152608490fd5b60405162461bcd60e51b8152602060048201526024808201527f45524332303a20617070726f76652066726f6d20746865207a65726f206164646044820152637265737360e01b6064820152608490fd5b9060018060a01b0382165f526008602052612c0a8160405f20612961565b549260018401612c1b575b50505050565b808410612c3657612c2d930391612ad5565b5f808080612c15565b60405162461bcd60e51b815260206004820152601d60248201527f45524332303a20696e73756666696369656e7420616c6c6f77616e63650000006044820152606490fd5b15612c8257565b60405162461bcd60e51b81526020600482015260026024820152614e4d60f01b6044820152606490fd5b15612cb357565b60405162461bcd60e51b815260206004820152602260248201527f45524332303a206275726e20616d6f756e7420657863656564732062616c616e604482015261636560f01b6064820152608490fd5b15612d0a57565b60405162461bcd60e51b81526020600482015260076024820152661a5b9d985b1a5960ca1b6044820152606490fd5b15612d4057565b60405162461bcd60e51b815260206004820152600a60248201526939b0b6b29031b430b4b760b11b6044820152606490fd5b939592612d9092612d8891999892993691610e85565b963691610e85565b9060ff600654165f14612ea1576022825110612e5d57612e4661ffff9483612e177f39a4c66499bcf4b56d79f0dde8ed7a9d4925a0df55825206b2b8531e202be0d098612e118c8a60226127a89a015191165f526002602052612dfd60405f205f805260205260405f2090565b5490612e0a821515613238565b1015613281565b876132cb565b938492612e3e8b612e3060405196879260208401612f30565b03601f198101865285610e49565b34938c6130f3565b60405193849360018060a01b031697169583612f70565b60405162461bcd60e51b815260206004820152601c60248201527b4c7a4170703a20696e76616c69642061646170746572506172616d7360201b6044820152606490fd5b8151612edc57612e4661ffff946127a893612e177f39a4c66499bcf4b56d79f0dde8ed7a9d4925a0df55825206b2b8531e202be0d098612e11565b60405162461bcd60e51b815260206004820152602660248201527f4f4654436f72653a205f61646170746572506172616d73206d7573742062652060448201526532b6b83a3c9760d11b6064820152608490fd5b929190612f4d6040915f8652606060208701526060860190610634565b930152565b929190612f4d60409160038652606060208701526060860190610634565b929190612f4d602091604086526040860190610634565b15612f8e57565b60405162461bcd60e51b815260206004820152603060248201527f4c7a4170703a2064657374696e6174696f6e20636861696e206973206e6f742060448201526f61207472757374656420736f7572636560801b6064820152608490fd5b9390926130199261ffff8616916130345f97848952600160205261302060408a206040519889809261127f565b0388610e49565b61302c87511515612f87565b8751906131cb565b6001600160a01b037f000000000000000000000000000000000000000000000000000000000000000081169690873b156130ef57926130a39694926130d1926130b69a9997956040519b8c9a8b998a9862c5803160e81b8a5260048a015260c060248a015260c4890190610634565b60031993848983030160448a0152610634565b931660648601528960848601528483030160a4850152610634565b03925af180156107e9576130e25750565b80611be861132a92610e16565b8880fd5b9461311e91949561313161ffff821691825f52600160205261312560405f206040519687809261127f565b0386610e49565b61302c85511515612f87565b6001600160a01b03947f0000000000000000000000000000000000000000000000000000000000000000861694853b156103df576131b0985f98886130d19461319d9a6040519d8e9c8d9b8c9a62c5803160e81b8c5260048c015260c060248c015260c48b0190610634565b60031995868b83030160448c0152610634565b951660648801521660848601528483030160a4850152610634565b61ffff165f52600360205260405f205490811561322e575b116131ea57565b606460405162461bcd60e51b815260206004820152602060248201527f4c7a4170703a207061796c6f61642073697a6520697320746f6f206c617267656044820152fd5b61271091506131e3565b1561323f57565b60405162461bcd60e51b815260206004820152601a602482015279131e905c1c0e881b5a5b91d85cd31a5b5a5d081b9bdd081cd95d60321b6044820152606490fd5b1561328857565b60405162461bcd60e51b815260206004820152601b60248201527a4c7a4170703a20676173206c696d697420697320746f6f206c6f7760281b6044820152606490fd5b61066a908290336001600160a01b038216036132e9575b3090612a29565b6132f4823383612bec565b6132e2565b90613311602091949394604084526040840190610634565b931515910152565b9061331160409194939460028452606060208501526060840190610634565b9061ffff821692468414613395576133817f8bf89adedf6e5cb38caf3b2cc7e255e668fec50ffeee80e627d7ee7ff42ea89f93604051906114bc82612401878760208401613319565b613390604051928392836132f9565b0390a2565b506133ad915060ff8019600e54169115151617600e55565b6040513060601b6001600160601b03191660208201527f8bf89adedf6e5cb38caf3b2cc7e255e668fec50ffeee80e627d7ee7ff42ea89f906133fc81603481015b03601f198101835282610e49565b600e5460ff1690613390604051928392836132f9565b9061ffff82169246841461346a5761345b7ffba6058f70462ebfb18b3e74d307def7438209fc600413e1fc842c59b0ba5bf493604051906114bc82612401878760208401612f52565b61339060405192839283612f70565b50600d55506040513060601b6001600160601b03191660208201527ffba6058f70462ebfb18b3e74d307def7438209fc600413e1fc842c59b0ba5bf4906134b481603481016133ee565b600d549061339060405192839283612f70565b600c546040516325ca7a8760e11b815290602090829060049082905f906001600160a01b03165af19081156107e9575f91613500575090565b906020823d8211613526575b8161351960209383610e49565b8101031261072957505190565b3d915061350c565b5f906201518042045f52600f60205260405f2054600d549080821180613567575b613557575050565b908092935003908111610a825790565b5060ff600e541661354f56feddf252ad1be2c89b69c2b068fc378daa952ba7f163c4a11628f55a4df523b3efa26469706673582212204b2ad957516a7edcf9a605ce46c821dce5ab8318fd30acaa16abe315c4fede4864736f6c63430008150033",
  "immutableReferences": {
    "383": [
      {
        "length": 32,
        "start": 1164
      },
      {
        "length": 32,
        "start": 1916
      },
      {
        "length": 32,
        "start": 2204
      },
      {
        "length": 32,
        "start": 3130
      },
      {
        "length": 32,
        "start": 6701
      },
      {
        "length": 32,
        "start": 6999
      },
      {
        "length": 32,
        "start": 8610
      },
      {
        "length": 32,
        "start": 9872
      },
      {
        "length": 32,
        "start": 12350
      },
      {
        "length": 32,
        "start": 12604
      }
    ]
  },
  "source": "// SPDX-License-Identifier: MIT\npragma solidity 0.8.21;\n\nimport \"@layerzerolabs/solidity-examples/contracts/token/oft/extension/BasedOFT.sol\";\n\nimport {Minter} from \"./Minter.sol\";\n\ncontract Stone is BasedOFT {\n    uint256 public constant DAY_INTERVAL = 24 * 60 * 60;\n\n    address public minter;\n\n    uint16 public constant PT_FEED = 1;\n    uint16 public constant PT_SET_ENABLE = 2;\n    uint16 public constant PT_SET_CAP = 3;\n\n    uint256 public cap;\n    bool public enable = true;\n\n    mapping(uint256 => uint256) public quota;\n\n    event FeedToChain(\n        uint16 indexed dstChainId,\n        address indexed from,\n        bytes toAddress,\n        uint price\n    );\n    event SetCapFor(uint16 indexed dstChainId, bytes toAddress, uint cap);\n    event SetEnableFor(uint16 indexed dstChainId, bytes toAddress, bool flag);\n\n    constructor(\n        address _minter,\n        address _layerZeroEndpoint,\n        uint256 _cap\n    ) BasedOFT(\"StakeStone Ether\", \"STONE\", _layerZeroEndpoint) {\n        minter = _minter;\n        cap = _cap;\n    }\n\n    modifier onlyMinter() {\n        require(msg.sender == minter, \"NM\");\n        _;\n    }\n\n    function mint(address _to, uint256 _amount) external onlyMinter {\n        _mint(_to, _amount);\n    }\n\n    function burn(address _from, uint256 _amount) external onlyMinter {\n        _burn(_from, _amount);\n    }\n\n    function sendFrom(\n        address _from,\n        uint16 _dstChainId,\n        bytes calldata _toAddress,\n        uint _amount,\n        address payable _refundAddress,\n        address _zroPaymentAddress,\n        bytes calldata _adapterParams\n    ) public payable override(IOFTCore, OFTCore) {\n        require(enable, \"invalid\");\n\n        uint256 id;\n        assembly {\n            id := chainid()\n        }\n        require(id != _dstChainId, \"same chain\");\n\n        uint256 day = block.timestamp / DAY_INTERVAL;\n        require(_amount + quota[day] <= cap, \"Exceed cap\");\n\n        quota[day] = quota[day] + _amount;\n\n        super.sendFrom(\n            _from,\n            _dstChainId,\n            _toAddress,\n            _amount,\n            _refundAddress,\n            _zroPaymentAddress,\n            _adapterParams\n        );\n    }\n\n    function updatePrice(\n        uint16 _dstChainId,\n        bytes memory _toAddress\n    ) external payable returns (uint256 price) {\n        require(enable, \"invalid\");\n\n        uint256 id;\n        assembly {\n            id := chainid()\n        }\n        require(id != _dstChainId, \"same chain\");\n\n        price = tokenPrice();\n\n        bytes memory lzPayload = abi.encode(\n            PT_FEED,\n            _toAddress,\n            price,\n            block.timestamp\n        );\n\n        _lzSend(\n            _dstChainId,\n            lzPayload,\n            payable(msg.sender),\n            address(0),\n            bytes(\"\"),\n            msg.value\n        );\n\n        emit FeedToChain(_dstChainId, msg.sender, _toAddress, price);\n    }\n\n    function setEnableFor(\n        uint16 _dstChainId,\n        bool _flag,\n        bytes memory _toAddress\n    ) external payable onlyOwner {\n        uint256 id;\n        assembly {\n            id := chainid()\n        }\n\n        if (_dstChainId == id) {\n            enable = _flag;\n\n            emit SetEnableFor(\n                _dstChainId,\n                abi.encodePacked(address(this)),\n                enable\n            );\n            return;\n        }\n\n        bytes memory lzPayload = abi.encode(PT_SET_ENABLE, _toAddress, _flag);\n        _lzSend(\n            _dstChainId,\n            lzPayload,\n            payable(msg.sender),\n            address(0),\n            bytes(\"\"),\n            msg.value\n        );\n\n        emit SetEnableFor(_dstChainId, _toAddress, _flag);\n    }\n\n    function setCapFor(\n        uint16 _dstChainId,\n        uint256 _cap,\n        bytes memory _toAddress\n    ) external payable onlyOwner {\n        uint256 id;\n        assembly {\n            id := chainid()\n        }\n\n        if (_dstChainId == id) {\n            cap = _cap;\n\n            emit SetCapFor(_dstChainId, abi.encodePacked(address(this)), cap);\n            return;\n        }\n\n        bytes memory lzPayload = abi.encode(PT_SET_CAP, _toAddress, _cap);\n        _lzSend(\n            _dstChainId,\n            lzPayload,\n            payable(msg.sender),\n            address(0),\n            bytes(\"\"),\n            msg.value\n        );\n\n        emit SetCapFor(_dstChainId, _toAddress, _cap);\n    }\n\n    function tokenPrice() public returns (uint256 price) {\n        price = Minter(minter).getTokenPrice();\n    }\n\n    function getQuota() external view returns (uint256) {\n        uint256 amount = quota[block.timestamp / DAY_INTERVAL];\n        if (cap > amount && enable) {\n            return cap - amount;\n        }\n    }\n}\n",
  "sourcePath": "/Users/mingyuzhang/Downloads/stone-vault-v1/contracts/token/Stone.sol",
  "compiler": {
    "name": "solc",
    "version": "0.8.21+commit.d9974bed.Emscripten.clang"
  },
  "schemaVersion": "3.4.16",
  "updatedAt": "2024-06-07T05:41:32.651Z",
  "devdoc": {
    "events": {
      "Approval(address,address,uint256)": {
        "details": "Emitted when the allowance of a `spender` for an `owner` is set by a call to {approve}. `value` is the new allowance."
      },
      "ReceiveFromChain(uint16,address,uint256)": {
        "details": "Emitted when `_amount` tokens are received from `_srcChainId` into the `_toAddress` on the local chain. `_nonce` is the inbound nonce."
      },
      "SendToChain(uint16,address,bytes,uint256)": {
        "details": "Emitted when `_amount` tokens are moved from the `_sender` to (`_dstChainId`, `_toAddress`) `_nonce` is the outbound nonce"
      },
      "Transfer(address,address,uint256)": {
        "details": "Emitted when `value` tokens are moved from one account (`from`) to another (`to`). Note that `value` may be zero."
      }
    },
    "kind": "dev",
    "methods": {
      "allowance(address,address)": {
        "details": "See {IERC20-allowance}."
      },
      "approve(address,uint256)": {
        "details": "See {IERC20-approve}. NOTE: If `amount` is the maximum `uint256`, the allowance is not updated on `transferFrom`. This is semantically equivalent to an infinite approval. Requirements: - `spender` cannot be the zero address."
      },
      "balanceOf(address)": {
        "details": "See {IERC20-balanceOf}."
      },
      "circulatingSupply()": {
        "details": "returns the circulating amount of tokens on current chain"
      },
      "decimals()": {
        "details": "Returns the number of decimals used to get its user representation. For example, if `decimals` equals `2`, a balance of `505` tokens should be displayed to a user as `5.05` (`505 / 10 ** 2`). Tokens usually opt for a value of 18, imitating the relationship between Ether and Wei. This is the default value returned by this function, unless it's overridden. NOTE: This information is only used for _display_ purposes: it in no way affects any of the arithmetic of the contract, including {IERC20-balanceOf} and {IERC20-transfer}."
      },
      "decreaseAllowance(address,uint256)": {
        "details": "Atomically decreases the allowance granted to `spender` by the caller. This is an alternative to {approve} that can be used as a mitigation for problems described in {IERC20-approve}. Emits an {Approval} event indicating the updated allowance. Requirements: - `spender` cannot be the zero address. - `spender` must have allowance for the caller of at least `subtractedValue`."
      },
      "estimateSendFee(uint16,bytes,uint256,bool,bytes)": {
        "details": "estimate send token `_tokenId` to (`_dstChainId`, `_toAddress`) _dstChainId - L0 defined chain id to send tokens too _toAddress - dynamic bytes array which contains the address to whom you are sending tokens to on the dstChain _amount - amount of the tokens to transfer _useZro - indicates to use zro to pay L0 fees _adapterParam - flexible bytes array to indicate messaging adapter services in L0"
      },
      "increaseAllowance(address,uint256)": {
        "details": "Atomically increases the allowance granted to `spender` by the caller. This is an alternative to {approve} that can be used as a mitigation for problems described in {IERC20-approve}. Emits an {Approval} event indicating the updated allowance. Requirements: - `spender` cannot be the zero address."
      },
      "name()": {
        "details": "Returns the name of the token."
      },
      "owner()": {
        "details": "Returns the address of the current owner."
      },
      "renounceOwnership()": {
        "details": "Leaves the contract without owner. It will not be possible to call `onlyOwner` functions. Can only be called by the current owner. NOTE: Renouncing ownership will leave the contract without an owner, thereby disabling any functionality that is only available to the owner."
      },
      "symbol()": {
        "details": "Returns the symbol of the token, usually a shorter version of the name."
      },
      "token()": {
        "details": "returns the address of the ERC20 token"
      },
      "totalSupply()": {
        "details": "See {IERC20-totalSupply}."
      },
      "transfer(address,uint256)": {
        "details": "See {IERC20-transfer}. Requirements: - `to` cannot be the zero address. - the caller must have a balance of at least `amount`."
      },
      "transferFrom(address,address,uint256)": {
        "details": "See {IERC20-transferFrom}. Emits an {Approval} event indicating the updated allowance. This is not required by the EIP. See the note at the beginning of {ERC20}. NOTE: Does not update the allowance if the current allowance is the maximum `uint256`. Requirements: - `from` and `to` cannot be the zero address. - `from` must have a balance of at least `amount`. - the caller must have allowance for ``from``'s tokens of at least `amount`."
      },
      "transferOwnership(address)": {
        "details": "Transfers ownership of the contract to a new account (`newOwner`). Can only be called by the current owner."
      }
    },
    "version": 1
  },
  "userdoc": {
    "kind": "user",
    "methods": {},
    "version": 1
  }
}