{
  "contractName": "StoneCarnivalETH",
  "abi": [
    {
      "inputs": [
        {
          "internalType": "address",
          "name": "_stoneAddr",
          "type": "address"
        },
        {
          "internalType": "address",
          "name": "_stoneVaultAddr",
          "type": "address"
        },
        {
          "internalType": "address",
          "name": "_stoneCarvivalAddr",
          "type": "address"
        },
        {
          "internalType": "uint256",
          "name": "_minEtherAllowed",
          "type": "uint256"
        }
      ],
      "stateMutability": "nonpayable",
      "type": "constructor"
    },
    {
      "anonymous": false,
      "inputs": [
        {
          "indexed": false,
          "internalType": "address",
          "name": "_user",
          "type": "address"
        },
        {
          "indexed": false,
          "internalType": "uint256",
          "name": "_amount",
          "type": "uint256"
        }
      ],
      "name": "CStoneClaimed",
      "type": "event"
    },
    {
      "anonymous": false,
      "inputs": [
        {
          "indexed": false,
          "internalType": "uint256",
          "name": "_ethAmount",
          "type": "uint256"
        },
        {
          "indexed": false,
          "internalType": "uint256",
          "name": "_stoneAmount",
          "type": "uint256"
        },
        {
          "indexed": false,
          "internalType": "uint256",
          "name": "_cStoneAmount",
          "type": "uint256"
        },
        {
          "indexed": false,
          "internalType": "uint256",
          "name": "_round",
          "type": "uint256"
        }
      ],
      "name": "DepositMade",
      "type": "event"
    },
    {
      "anonymous": false,
      "inputs": [
        {
          "indexed": false,
          "internalType": "uint256",
          "name": "_round",
          "type": "uint256"
        }
      ],
      "name": "DepositPause",
      "type": "event"
    },
    {
      "anonymous": false,
      "inputs": [
        {
          "indexed": false,
          "internalType": "address",
          "name": "_user",
          "type": "address"
        },
        {
          "indexed": false,
          "internalType": "uint256",
          "name": "_amount",
          "type": "uint256"
        },
        {
          "indexed": false,
          "internalType": "uint256",
          "name": "round",
          "type": "uint256"
        }
      ],
      "name": "EtherDeposited",
      "type": "event"
    },
    {
      "anonymous": false,
      "inputs": [
        {
          "indexed": true,
          "internalType": "address",
          "name": "previousOwner",
          "type": "address"
        },
        {
          "indexed": true,
          "internalType": "address",
          "name": "newOwner",
          "type": "address"
        }
      ],
      "name": "OwnershipTransferStarted",
      "type": "event"
    },
    {
      "anonymous": false,
      "inputs": [
        {
          "indexed": true,
          "internalType": "address",
          "name": "previousOwner",
          "type": "address"
        },
        {
          "indexed": true,
          "internalType": "address",
          "name": "newOwner",
          "type": "address"
        }
      ],
      "name": "OwnershipTransferred",
      "type": "event"
    },
    {
      "inputs": [],
      "name": "acceptOwnership",
      "outputs": [],
      "stateMutability": "nonpayable",
      "type": "function"
    },
    {
      "inputs": [
        {
          "internalType": "address",
          "name": "",
          "type": "address"
        },
        {
          "internalType": "uint256",
          "name": "",
          "type": "uint256"
        }
      ],
      "name": "cStoneClaimedByRound",
      "outputs": [
        {
          "internalType": "bool",
          "name": "",
          "type": "bool"
        }
      ],
      "stateMutability": "view",
      "type": "function"
    },
    {
      "inputs": [
        {
          "internalType": "uint256",
          "name": "",
          "type": "uint256"
        }
      ],
      "name": "cStoneReceivedByRound",
      "outputs": [
        {
          "internalType": "uint256",
          "name": "",
          "type": "uint256"
        }
      ],
      "stateMutability": "view",
      "type": "function"
    },
    {
      "inputs": [],
      "name": "depositPaused",
      "outputs": [
        {
          "internalType": "bool",
          "name": "",
          "type": "bool"
        }
      ],
      "stateMutability": "view",
      "type": "function"
    },
    {
      "inputs": [
        {
          "internalType": "address",
          "name": "",
          "type": "address"
        },
        {
          "internalType": "uint256",
          "name": "",
          "type": "uint256"
        }
      ],
      "name": "etherDeposited",
      "outputs": [
        {
          "internalType": "uint256",
          "name": "",
          "type": "uint256"
        }
      ],
      "stateMutability": "view",
      "type": "function"
    },
    {
      "inputs": [
        {
          "internalType": "uint256",
          "name": "",
          "type": "uint256"
        }
      ],
      "name": "etherDepositedByRound",
      "outputs": [
        {
          "internalType": "uint256",
          "name": "",
          "type": "uint256"
        }
      ],
      "stateMutability": "view",
      "type": "function"
    },
    {
      "inputs": [],
      "name": "minEtherAllowed",
      "outputs": [
        {
          "internalType": "uint256",
          "name": "",
          "type": "uint256"
        }
      ],
      "stateMutability": "view",
      "type": "function"
    },
    {
      "inputs": [],
      "name": "owner",
      "outputs": [
        {
          "internalType": "address",
          "name": "",
          "type": "address"
        }
      ],
      "stateMutability": "view",
      "type": "function"
    },
    {
      "inputs": [],
      "name": "pendingOwner",
      "outputs": [
        {
          "internalType": "address",
          "name": "",
          "type": "address"
        }
      ],
      "stateMutability": "view",
      "type": "function"
    },
    {
      "inputs": [],
      "name": "renounceOwnership",
      "outputs": [],
      "stateMutability": "nonpayable",
      "type": "function"
    },
    {
      "inputs": [],
      "name": "round",
      "outputs": [
        {
          "internalType": "uint256",
          "name": "",
          "type": "uint256"
        }
      ],
      "stateMutability": "view",
      "type": "function"
    },
    {
      "inputs": [],
      "name": "stoneAddr",
      "outputs": [
        {
          "internalType": "address",
          "name": "",
          "type": "address"
        }
      ],
      "stateMutability": "view",
      "type": "function"
    },
    {
      "inputs": [],
      "name": "stoneCarvivalAddr",
      "outputs": [
        {
          "internalType": "address",
          "name": "",
          "type": "address"
        }
      ],
      "stateMutability": "view",
      "type": "function"
    },
    {
      "inputs": [],
      "name": "stoneVaultAddr",
      "outputs": [
        {
          "internalType": "address",
          "name": "",
          "type": "address"
        }
      ],
      "stateMutability": "view",
      "type": "function"
    },
    {
      "inputs": [
        {
          "internalType": "address",
          "name": "newOwner",
          "type": "address"
        }
      ],
      "name": "transferOwnership",
      "outputs": [],
      "stateMutability": "nonpayable",
      "type": "function"
    },
    {
      "inputs": [],
      "name": "depositETH",
      "outputs": [],
      "stateMutability": "payable",
      "type": "function"
    },
    {
      "inputs": [
        {
          "internalType": "uint256[]",
          "name": "rounds",
          "type": "uint256[]"
        }
      ],
      "name": "claimCStoneByRound",
      "outputs": [
        {
          "internalType": "uint256",
          "name": "claimed",
          "type": "uint256"
        }
      ],
      "stateMutability": "nonpayable",
      "type": "function"
    },
    {
      "inputs": [],
      "name": "makeDeposit",
      "outputs": [],
      "stateMutability": "nonpayable",
      "type": "function"
    },
    {
      "inputs": [],
      "name": "makeDepositAndRoll",
      "outputs": [],
      "stateMutability": "nonpayable",
      "type": "function"
    },
    {
      "inputs": [],
      "name": "pauseDeposit",
      "outputs": [],
      "stateMutability": "nonpayable",
      "type": "function"
    }
  ],
  "bytecode": "0x6101003461012e57601f6111ec38819003918201601f19168301916001600160401b038311848410176101325780849260809460405283398101031261012e5761004881610146565b9061005560208201610146565b90606061006460408301610146565b9101519160018060a01b03199384600154166001555f549433908616175f5560405194339060018060a01b03167f8be0079c531659141344cd1fd0a4f28419497f9722a3daafe3b4186f6b6457e05f80a3600160025560805260a05260c05260e052611091908161015b823960805181818161030f01528181610589015261093e015260a0518181816104f5015281816108c10152610b64015260c051818181610533015281816108f501528181610c660152610e88015260e05181818161012401526102d70152f35b5f80fd5b634e487b7160e01b5f52604160045260245ffd5b51906001600160a01b038216820361012e5756fe60806040818152600480361015610014575f80fd5b5f92833560e01c90816302befd2414610eb757508063049c721614610e73578063087d427d14610bb2578063146ca53114610b935780632e09300a14610b4f57806336359bef14610b0857806340732c89146108805780634de483451461083f578063567faf6e1461081857806369026e88146107b65780636d6c9afb146104b3578063715018a61461044e57806379ba50971461038d5780638da5cb5b14610365578063a202a2e81461033e578063aeebda7e146102fa578063d4d4347d146102bf578063e30c397814610292578063f2fde38b146102225763f6326fb3146100fc575f80fd5b8260031936011261021e5761011560ff82541615610f7e565b60028054146101dc57600280557f000000000000000000000000000000000000000000000000000000000000000034106101ac575060607fef51b4c870b8b0100eae2072e91db01222a303072af3728e58c9d4d2da33127f913384526005602052808420600354855260205280842061018f348254610fbb565b9055600354815191338352346020840152820152a1600160025580f35b6020606492519162461bcd60e51b8352820152600b60248201526a1b9bdd08185b1b1bddd95960aa1b6044820152fd5b6020606492519162461bcd60e51b8352820152601f60248201527f5265656e7472616e637947756172643a207265656e7472616e742063616c6c006044820152fd5b8280fd5b833461028f57602036600319011261028f5761023c610f0d565b610244610f27565b600180546001600160a01b0319166001600160a01b0392831690811790915582549091167f38d16b8cac22d99fc7c124b9cd0de2d3fa1faef420bfe791d8c362d765e227008380a380f35b80fd5b5050346102bb57816003193601126102bb5760015490516001600160a01b039091168152602090f35b5080fd5b5050346102bb57816003193601126102bb57602090517f00000000000000000000000000000000000000000000000000000000000000008152f35b5050346102bb57816003193601126102bb57517f00000000000000000000000000000000000000000000000000000000000000006001600160a01b03168152602090f35b503461021e57602036600319011261021e5760209282913581526007845220549051908152f35b5050346102bb57816003193601126102bb57905490516001600160a01b039091168152602090f35b50903461021e578260031936011261021e57600154916001600160a01b039133838516036103f957505060018060a01b03198092166001555f549133908316175f553391167f8be0079c531659141344cd1fd0a4f28419497f9722a3daafe3b4186f6b6457e05f80a380f35b906020608492519162461bcd60e51b8352820152602960248201527f4f776e61626c6532537465703a2063616c6c6572206973206e6f7420746865206044820152683732bb9037bbb732b960b91b6064820152fd5b833461028f578060031936011261028f57610467610f27565b600180546001600160a01b03199081169091555f80549182168155906001600160a01b03167f8be0079c531659141344cd1fd0a4f28419497f9722a3daafe3b4186f6b6457e08280a380f35b509190346102bb57816003193601126102bb576104ce610f27565b6104d6610f27565b47928315610787578151630d0e30db60e41b81526001600160a01b03947f00000000000000000000000000000000000000000000000000000000000000008616916020908181868186885af190811561077d57879161074c575b507f0000000000000000000000000000000000000000000000000000000000000000878088518581019063095ea7b360e01b825261058481610576888860248401610fea565b03601f198101835282610ed8565b5190827f00000000000000000000000000000000000000000000000000000000000000005af16105b2611005565b8161071c575b50156106f4579082889960248a948a519586938492630acb452960e21b8452878d850152165af19182156106ea5788926106b5575b5061064f937fee3ad54d0e96073bc1fb6a26d9bb92792dfdbf00358eb0ae9af753d5e478da9a926080926003548b5260078652828a8c20556003548b5260088652808a8c2055600354958a5193845283015288820152836060820152a1610fdc565b600355803b156106b057839082845180968193635069fb5760e01b83525af180156106a65761067c578380f35b6001600160401b0383116106935750525f80808380f35b634e487b7160e01b845260419052602483fd5b82513d86823e3d90fd5b505050fd5b9091508281813d83116106e3575b6106cd8183610ed8565b810103126106df57519061064f6105ed565b8780fd5b503d6106c3565b87513d8a823e3d90fd5b865162461bcd60e51b81528087018490526002602482015261534160f01b6044820152606490fd5b80518015925085908315610734575b5050505f6105b8565b6107449350820181019101611043565b5f848161072b565b90508181813d8311610776575b6107638183610ed8565b8101031261077257515f610530565b8680fd5b503d610759565b86513d89823e3d90fd5b6020606492519162461bcd60e51b8352820152600a6024820152696e6f2062616c616e636560b01b6044820152fd5b503461021e578260031936011261021e577fe239024a023ea7c58b3973fa745ab8e45e2733ebb10f3e5c41112cfe754493f6916020916107f4610f27565b6001815461080560ff821615610f7e565b60ff19161790556003549051908152a180f35b503461021e57602036600319011261021e5760209282913581526008845220549051908152f35b5050346102bb57806003193601126102bb5760209181906001600160a01b03610866610f0d565b168152600584528181206024358252845220549051908152f35b503461021e578260031936011261021e57610899610f27565b478015610ad8578251630d0e30db60e41b8152926020926001600160a01b03919084868281877f000000000000000000000000000000000000000000000000000000000000000088165af1958615610ace578796610a9f575b507f000000000000000000000000000000000000000000000000000000000000000092878084518881019063095ea7b360e01b8252610939816105768d8b60248401610fea565b5190827f00000000000000000000000000000000000000000000000000000000000000005af1610967611005565b81610a6f575b5015610a48576024869289899386519788958694630acb452960e21b8652850152165af1918215610a3e578692610a07575b50916080917fee3ad54d0e96073bc1fb6a26d9bb92792dfdbf00358eb0ae9af753d5e478da9a93610a019660035489526007875283828a205560035489526008875280828a2055600354968251948552840152820152836060820152a1610fdc565b60035580f35b9150918382813d8311610a37575b610a1f8183610ed8565b81010312610a335790519091610a0161099f565b8580fd5b503d610a15565b81513d88823e3d90fd5b5084606492519162461bcd60e51b83528201526002602482015261534160f01b6044820152fd5b80518015925088908315610a87575b5050505f61096d565b610a979350820181019101611043565b5f8781610a7e565b9095508481813d8311610ac7575b610ab78183610ed8565b810103126107725751945f6108f2565b503d610aad565b82513d89823e3d90fd5b506020606492519162461bcd60e51b8352820152600a6024820152696e6f2062616c616e636560b01b6044820152fd5b5050346102bb57806003193601126102bb5760209160ff9082906001600160a01b03610b32610f0d565b168152600685528181206024358252855220541690519015158152f35b5050346102bb57816003193601126102bb57517f00000000000000000000000000000000000000000000000000000000000000006001600160a01b03168152602090f35b5050346102bb57816003193601126102bb576020906003549051908152f35b509190346102bb576020928360031936011261021e578035926001600160401b039081851161028f573660238601121561028f57848301356024928111610e625760059581871b865192610c088a830185610ed8565b8352848984019183010191368311610e5e5790858a9201905b838210610e4f5750505050819582918051925b838110610d2a57505050508084518781019063a9059cbb60e01b8252610c61816105768a33898401610fea565b5190827f00000000000000000000000000000000000000000000000000000000000000005af1610c8f611005565b81610cfa575b5015610cd55750507f27320376f94b85ba9fe3b61c27cbf27e9b45ed80d13ab84882b75a67b5a01302815180610ccc853383610fea565b0390a151908152f35b60029085606494519362461bcd60e51b85528401528201526114d560f21b6044820152fd5b80518015925087908315610d12575b5050505f610c95565b610d229350820181019101611043565b5f8681610d09565b8151811015610e3d578981841b83010151600354811015610e0b57338652600690818c528987208188528c5260ff8a8820541615610d73575b5050610d6e90610fdc565b610c34565b9099338752848c528987208288528c528987205460088d528a88205490818102918183041490151715610df95782885260078d528a882054908115610de75791610dc491610d6e9594930490610fbb565b3388529a8c528987209087528b52888620805460ff19166001179055905f610d63565b634e487b7160e01b895260128b528989fd5b634e487b7160e01b885260118a528888fd5b885162461bcd60e51b81528089018c9052600d818901526c1a5b9d985b1a59081c9bdd5b99609a1b6044820152606490fd5b634e487b7160e01b8552603287528585fd5b81358152908201908201610c21565b8480fd5b50634e487b7160e01b815260418352fd5b5050346102bb57816003193601126102bb57517f00000000000000000000000000000000000000000000000000000000000000006001600160a01b03168152602090f35b9050833461028f578060031936011261028f575060ff602092541615158152f35b90601f801991011681019081106001600160401b03821117610ef957604052565b634e487b7160e01b5f52604160045260245ffd5b600435906001600160a01b0382168203610f2357565b5f80fd5b5f546001600160a01b03163303610f3a57565b606460405162461bcd60e51b815260206004820152602060248201527f4f776e61626c653a2063616c6c6572206973206e6f7420746865206f776e65726044820152fd5b15610f8557565b60405162461bcd60e51b815260206004820152600e60248201526d19195c1bdcda5d081c185d5cd95960921b6044820152606490fd5b91908201809211610fc857565b634e487b7160e01b5f52601160045260245ffd5b5f198114610fc85760010190565b6001600160a01b039091168152602081019190915260400190565b3d1561103e573d906001600160401b038211610ef95760405191611033601f8201601f191660200184610ed8565b82523d5f602084013e565b606090565b90816020910312610f2357518015158103610f23579056fea26469706673582212204bd38be61c68a79435caa27950cc89ce06c7e4f7f6a1a69e5f25fb9ef233f69964736f6c63430008150033",
  "immutableReferences": {
    "16292": [
      {
        "length": 32,
        "start": 783
      },
      {
        "length": 32,
        "start": 1417
      },
      {
        "length": 32,
        "start": 2366
      }
    ],
    "16294": [
      {
        "length": 32,
        "start": 1269
      },
      {
        "length": 32,
        "start": 2241
      },
      {
        "length": 32,
        "start": 2916
      }
    ],
    "16296": [
      {
        "length": 32,
        "start": 1331
      },
      {
        "length": 32,
        "start": 2293
      },
      {
        "length": 32,
        "start": 3174
      },
      {
        "length": 32,
        "start": 3720
      }
    ],
    "16298": [
      {
        "length": 32,
        "start": 292
      },
      {
        "length": 32,
        "start": 727
      }
    ]
  },
  "source": "// SPDX-License-Identifier: MIT\npragma solidity 0.8.21;\n\nimport {IStoneVault} from \"../interfaces/IStoneVault.sol\";\n\nimport {StoneCarnival} from \"./StoneCarnival.sol\";\n\nimport {ReentrancyGuard} from \"@openzeppelin/contracts/security/ReentrancyGuard.sol\";\nimport {Ownable2Step} from \"@openzeppelin/contracts/access/Ownable2Step.sol\";\nimport {TransferHelper} from \"@uniswap/v3-periphery/contracts/libraries/TransferHelper.sol\";\n\ncontract StoneCarnivalETH is Ownable2Step, ReentrancyGuard {\n    address public immutable stoneAddr;\n    address public immutable stoneVaultAddr;\n    address public immutable stoneCarvivalAddr;\n    uint256 public immutable minEtherAllowed;\n\n    uint256 public round;\n\n    bool public depositPaused;\n\n    mapping(address => mapping(uint256 => uint256)) public etherDeposited;\n    mapping(address => mapping(uint256 => bool)) public cStoneClaimedByRound;\n    mapping(uint256 => uint256) public etherDepositedByRound;\n    mapping(uint256 => uint256) public cStoneReceivedByRound;\n\n    event EtherDeposited(address _user, uint256 _amount, uint256 round);\n    event CStoneClaimed(address _user, uint256 _amount);\n    event DepositMade(\n        uint256 _ethAmount,\n        uint256 _stoneAmount,\n        uint256 _cStoneAmount,\n        uint256 _round\n    );\n    event DepositPause(uint256 _round);\n\n    modifier DepositNotPaused() {\n        require(!depositPaused, \"deposit paused\");\n        _;\n    }\n\n    constructor(\n        address _stoneAddr,\n        address _stoneVaultAddr,\n        address _stoneCarvivalAddr,\n        uint256 _minEtherAllowed\n    ) {\n        stoneAddr = _stoneAddr;\n\n        stoneVaultAddr = _stoneVaultAddr;\n        stoneCarvivalAddr = _stoneCarvivalAddr;\n        minEtherAllowed = _minEtherAllowed;\n    }\n\n    function depositETH() external payable {\n        _depositETH(msg.sender, msg.value);\n    }\n\n    function _depositETH(\n        address _user,\n        uint256 _amount\n    ) internal DepositNotPaused nonReentrant {\n        require(_amount >= minEtherAllowed, \"not allowed\");\n\n        etherDeposited[_user][round] += _amount;\n\n        emit EtherDeposited(_user, _amount, round);\n    }\n\n    function claimCStoneByRound(\n        uint256[] memory rounds\n    ) public returns (uint256 claimed) {\n        uint256 i;\n        uint256 len = rounds.length;\n\n        for (i; i < len; i++) {\n            uint256 r = rounds[i];\n            require(r < round, \"invalid round\");\n\n            if (!cStoneClaimedByRound[msg.sender][r]) {\n                uint256 cStoneAmount = (etherDeposited[msg.sender][r] *\n                    cStoneReceivedByRound[r]) / etherDepositedByRound[r];\n                claimed += cStoneAmount;\n\n                cStoneClaimedByRound[msg.sender][r] = true;\n            }\n        }\n\n        TransferHelper.safeTransfer(stoneCarvivalAddr, msg.sender, claimed);\n\n        emit CStoneClaimed(msg.sender, claimed);\n    }\n\n    function makeDeposit() public onlyOwner {\n        uint256 balance = address(this).balance;\n        require(balance != 0, \"no balance\");\n\n        uint256 stoneReceived = IStoneVault(payable(stoneVaultAddr)).deposit{\n            value: balance\n        }();\n\n        TransferHelper.safeApprove(stoneAddr, stoneCarvivalAddr, stoneReceived);\n\n        uint256 cStoneReceived = StoneCarnival(payable(stoneCarvivalAddr))\n            .depositStone(stoneReceived);\n\n        etherDepositedByRound[round] = balance;\n        cStoneReceivedByRound[round] = stoneReceived;\n\n        emit DepositMade(balance, stoneReceived, cStoneReceived, round);\n\n        round++;\n    }\n\n    function makeDepositAndRoll() public onlyOwner {\n        makeDeposit();\n        IStoneVault(payable(stoneVaultAddr)).rollToNextRound();\n    }\n\n    function pauseDeposit() external onlyOwner DepositNotPaused {\n        depositPaused = true;\n\n        emit DepositPause(round);\n    }\n}\n",
  "sourcePath": "/Users/mingyuzhang/Downloads/stone-vault-v1/contracts/mining/StoneCarnivalETH.sol",
  "compiler": {
    "name": "solc",
    "version": "0.8.21+commit.d9974bed.Emscripten.clang"
  },
  "schemaVersion": "3.4.16",
  "updatedAt": "2024-06-07T05:41:32.631Z",
  "devdoc": {
    "kind": "dev",
    "methods": {
      "acceptOwnership()": {
        "details": "The new owner accepts the ownership transfer."
      },
      "owner()": {
        "details": "Returns the address of the current owner."
      },
      "pendingOwner()": {
        "details": "Returns the address of the pending owner."
      },
      "renounceOwnership()": {
        "details": "Leaves the contract without owner. It will not be possible to call `onlyOwner` functions. Can only be called by the current owner. NOTE: Renouncing ownership will leave the contract without an owner, thereby disabling any functionality that is only available to the owner."
      },
      "transferOwnership(address)": {
        "details": "Starts the ownership transfer of the contract to a new account. Replaces the pending transfer if there is one. Can only be called by the current owner."
      }
    },
    "version": 1
  },
  "userdoc": {
    "kind": "user",
    "methods": {},
    "version": 1
  }
}