{
  "contractName": "StoneCross",
  "abi": [
    {
      "inputs": [
        {
          "internalType": "address",
          "name": "_layerZeroEndpoint",
          "type": "address"
        },
        {
          "internalType": "uint256",
          "name": "_cap",
          "type": "uint256"
        }
      ],
      "stateMutability": "nonpayable",
      "type": "constructor"
    },
    {
      "anonymous": false,
      "inputs": [
        {
          "indexed": true,
          "internalType": "address",
          "name": "owner",
          "type": "address"
        },
        {
          "indexed": true,
          "internalType": "address",
          "name": "spender",
          "type": "address"
        },
        {
          "indexed": false,
          "internalType": "uint256",
          "name": "value",
          "type": "uint256"
        }
      ],
      "name": "Approval",
      "type": "event"
    },
    {
      "anonymous": false,
      "inputs": [
        {
          "indexed": false,
          "internalType": "uint16",
          "name": "_srcChainId",
          "type": "uint16"
        },
        {
          "indexed": false,
          "internalType": "bytes",
          "name": "_srcAddress",
          "type": "bytes"
        },
        {
          "indexed": false,
          "internalType": "uint64",
          "name": "_nonce",
          "type": "uint64"
        },
        {
          "indexed": false,
          "internalType": "bytes",
          "name": "_payload",
          "type": "bytes"
        },
        {
          "indexed": false,
          "internalType": "bytes",
          "name": "_reason",
          "type": "bytes"
        }
      ],
      "name": "MessageFailed",
      "type": "event"
    },
    {
      "anonymous": false,
      "inputs": [
        {
          "indexed": true,
          "internalType": "address",
          "name": "previousOwner",
          "type": "address"
        },
        {
          "indexed": true,
          "internalType": "address",
          "name": "newOwner",
          "type": "address"
        }
      ],
      "name": "OwnershipTransferred",
      "type": "event"
    },
    {
      "anonymous": false,
      "inputs": [
        {
          "indexed": true,
          "internalType": "uint16",
          "name": "_srcChainId",
          "type": "uint16"
        },
        {
          "indexed": true,
          "internalType": "address",
          "name": "_to",
          "type": "address"
        },
        {
          "indexed": false,
          "internalType": "uint256",
          "name": "_amount",
          "type": "uint256"
        }
      ],
      "name": "ReceiveFromChain",
      "type": "event"
    },
    {
      "anonymous": false,
      "inputs": [
        {
          "indexed": false,
          "internalType": "uint16",
          "name": "_srcChainId",
          "type": "uint16"
        },
        {
          "indexed": false,
          "internalType": "bytes",
          "name": "_srcAddress",
          "type": "bytes"
        },
        {
          "indexed": false,
          "internalType": "uint64",
          "name": "_nonce",
          "type": "uint64"
        },
        {
          "indexed": false,
          "internalType": "bytes32",
          "name": "_payloadHash",
          "type": "bytes32"
        }
      ],
      "name": "RetryMessageSuccess",
      "type": "event"
    },
    {
      "anonymous": false,
      "inputs": [
        {
          "indexed": true,
          "internalType": "uint16",
          "name": "_dstChainId",
          "type": "uint16"
        },
        {
          "indexed": true,
          "internalType": "address",
          "name": "_from",
          "type": "address"
        },
        {
          "indexed": false,
          "internalType": "bytes",
          "name": "_toAddress",
          "type": "bytes"
        },
        {
          "indexed": false,
          "internalType": "uint256",
          "name": "_amount",
          "type": "uint256"
        }
      ],
      "name": "SendToChain",
      "type": "event"
    },
    {
      "anonymous": false,
      "inputs": [
        {
          "indexed": false,
          "internalType": "uint16",
          "name": "_dstChainId",
          "type": "uint16"
        },
        {
          "indexed": false,
          "internalType": "uint16",
          "name": "_type",
          "type": "uint16"
        },
        {
          "indexed": false,
          "internalType": "uint256",
          "name": "_minDstGas",
          "type": "uint256"
        }
      ],
      "name": "SetMinDstGas",
      "type": "event"
    },
    {
      "anonymous": false,
      "inputs": [
        {
          "indexed": false,
          "internalType": "address",
          "name": "precrime",
          "type": "address"
        }
      ],
      "name": "SetPrecrime",
      "type": "event"
    },
    {
      "anonymous": false,
      "inputs": [
        {
          "indexed": false,
          "internalType": "uint16",
          "name": "_remoteChainId",
          "type": "uint16"
        },
        {
          "indexed": false,
          "internalType": "bytes",
          "name": "_path",
          "type": "bytes"
        }
      ],
      "name": "SetTrustedRemote",
      "type": "event"
    },
    {
      "anonymous": false,
      "inputs": [
        {
          "indexed": false,
          "internalType": "uint16",
          "name": "_remoteChainId",
          "type": "uint16"
        },
        {
          "indexed": false,
          "internalType": "bytes",
          "name": "_remoteAddress",
          "type": "bytes"
        }
      ],
      "name": "SetTrustedRemoteAddress",
      "type": "event"
    },
    {
      "anonymous": false,
      "inputs": [
        {
          "indexed": false,
          "internalType": "bool",
          "name": "_useCustomAdapterParams",
          "type": "bool"
        }
      ],
      "name": "SetUseCustomAdapterParams",
      "type": "event"
    },
    {
      "anonymous": false,
      "inputs": [
        {
          "indexed": true,
          "internalType": "address",
          "name": "from",
          "type": "address"
        },
        {
          "indexed": true,
          "internalType": "address",
          "name": "to",
          "type": "address"
        },
        {
          "indexed": false,
          "internalType": "uint256",
          "name": "value",
          "type": "uint256"
        }
      ],
      "name": "Transfer",
      "type": "event"
    },
    {
      "inputs": [],
      "name": "DAY_INTERVAL",
      "outputs": [
        {
          "internalType": "uint256",
          "name": "",
          "type": "uint256"
        }
      ],
      "stateMutability": "view",
      "type": "function"
    },
    {
      "inputs": [],
      "name": "DEFAULT_PAYLOAD_SIZE_LIMIT",
      "outputs": [
        {
          "internalType": "uint256",
          "name": "",
          "type": "uint256"
        }
      ],
      "stateMutability": "view",
      "type": "function"
    },
    {
      "inputs": [],
      "name": "NO_EXTRA_GAS",
      "outputs": [
        {
          "internalType": "uint256",
          "name": "",
          "type": "uint256"
        }
      ],
      "stateMutability": "view",
      "type": "function"
    },
    {
      "inputs": [],
      "name": "PT_FEED",
      "outputs": [
        {
          "internalType": "uint16",
          "name": "",
          "type": "uint16"
        }
      ],
      "stateMutability": "view",
      "type": "function"
    },
    {
      "inputs": [],
      "name": "PT_SEND",
      "outputs": [
        {
          "internalType": "uint16",
          "name": "",
          "type": "uint16"
        }
      ],
      "stateMutability": "view",
      "type": "function"
    },
    {
      "inputs": [],
      "name": "PT_SET_CAP",
      "outputs": [
        {
          "internalType": "uint16",
          "name": "",
          "type": "uint16"
        }
      ],
      "stateMutability": "view",
      "type": "function"
    },
    {
      "inputs": [],
      "name": "PT_SET_ENABLE",
      "outputs": [
        {
          "internalType": "uint16",
          "name": "",
          "type": "uint16"
        }
      ],
      "stateMutability": "view",
      "type": "function"
    },
    {
      "inputs": [
        {
          "internalType": "address",
          "name": "owner",
          "type": "address"
        },
        {
          "internalType": "address",
          "name": "spender",
          "type": "address"
        }
      ],
      "name": "allowance",
      "outputs": [
        {
          "internalType": "uint256",
          "name": "",
          "type": "uint256"
        }
      ],
      "stateMutability": "view",
      "type": "function"
    },
    {
      "inputs": [
        {
          "internalType": "address",
          "name": "spender",
          "type": "address"
        },
        {
          "internalType": "uint256",
          "name": "amount",
          "type": "uint256"
        }
      ],
      "name": "approve",
      "outputs": [
        {
          "internalType": "bool",
          "name": "",
          "type": "bool"
        }
      ],
      "stateMutability": "nonpayable",
      "type": "function"
    },
    {
      "inputs": [
        {
          "internalType": "address",
          "name": "account",
          "type": "address"
        }
      ],
      "name": "balanceOf",
      "outputs": [
        {
          "internalType": "uint256",
          "name": "",
          "type": "uint256"
        }
      ],
      "stateMutability": "view",
      "type": "function"
    },
    {
      "inputs": [],
      "name": "cap",
      "outputs": [
        {
          "internalType": "uint256",
          "name": "",
          "type": "uint256"
        }
      ],
      "stateMutability": "view",
      "type": "function"
    },
    {
      "inputs": [],
      "name": "circulatingSupply",
      "outputs": [
        {
          "internalType": "uint256",
          "name": "",
          "type": "uint256"
        }
      ],
      "stateMutability": "view",
      "type": "function"
    },
    {
      "inputs": [],
      "name": "decimals",
      "outputs": [
        {
          "internalType": "uint8",
          "name": "",
          "type": "uint8"
        }
      ],
      "stateMutability": "view",
      "type": "function"
    },
    {
      "inputs": [
        {
          "internalType": "address",
          "name": "spender",
          "type": "address"
        },
        {
          "internalType": "uint256",
          "name": "subtractedValue",
          "type": "uint256"
        }
      ],
      "name": "decreaseAllowance",
      "outputs": [
        {
          "internalType": "bool",
          "name": "",
          "type": "bool"
        }
      ],
      "stateMutability": "nonpayable",
      "type": "function"
    },
    {
      "inputs": [],
      "name": "enable",
      "outputs": [
        {
          "internalType": "bool",
          "name": "",
          "type": "bool"
        }
      ],
      "stateMutability": "view",
      "type": "function"
    },
    {
      "inputs": [
        {
          "internalType": "uint16",
          "name": "_dstChainId",
          "type": "uint16"
        },
        {
          "internalType": "bytes",
          "name": "_toAddress",
          "type": "bytes"
        },
        {
          "internalType": "uint256",
          "name": "_amount",
          "type": "uint256"
        },
        {
          "internalType": "bool",
          "name": "_useZro",
          "type": "bool"
        },
        {
          "internalType": "bytes",
          "name": "_adapterParams",
          "type": "bytes"
        }
      ],
      "name": "estimateSendFee",
      "outputs": [
        {
          "internalType": "uint256",
          "name": "nativeFee",
          "type": "uint256"
        },
        {
          "internalType": "uint256",
          "name": "zroFee",
          "type": "uint256"
        }
      ],
      "stateMutability": "view",
      "type": "function"
    },
    {
      "inputs": [
        {
          "internalType": "uint16",
          "name": "",
          "type": "uint16"
        },
        {
          "internalType": "bytes",
          "name": "",
          "type": "bytes"
        },
        {
          "internalType": "uint64",
          "name": "",
          "type": "uint64"
        }
      ],
      "name": "failedMessages",
      "outputs": [
        {
          "internalType": "bytes32",
          "name": "",
          "type": "bytes32"
        }
      ],
      "stateMutability": "view",
      "type": "function"
    },
    {
      "inputs": [
        {
          "internalType": "uint16",
          "name": "_srcChainId",
          "type": "uint16"
        },
        {
          "internalType": "bytes",
          "name": "_srcAddress",
          "type": "bytes"
        }
      ],
      "name": "forceResumeReceive",
      "outputs": [],
      "stateMutability": "nonpayable",
      "type": "function"
    },
    {
      "inputs": [
        {
          "internalType": "uint16",
          "name": "_version",
          "type": "uint16"
        },
        {
          "internalType": "uint16",
          "name": "_chainId",
          "type": "uint16"
        },
        {
          "internalType": "address",
          "name": "",
          "type": "address"
        },
        {
          "internalType": "uint256",
          "name": "_configType",
          "type": "uint256"
        }
      ],
      "name": "getConfig",
      "outputs": [
        {
          "internalType": "bytes",
          "name": "",
          "type": "bytes"
        }
      ],
      "stateMutability": "view",
      "type": "function"
    },
    {
      "inputs": [
        {
          "internalType": "uint16",
          "name": "_remoteChainId",
          "type": "uint16"
        }
      ],
      "name": "getTrustedRemoteAddress",
      "outputs": [
        {
          "internalType": "bytes",
          "name": "",
          "type": "bytes"
        }
      ],
      "stateMutability": "view",
      "type": "function"
    },
    {
      "inputs": [
        {
          "internalType": "address",
          "name": "spender",
          "type": "address"
        },
        {
          "internalType": "uint256",
          "name": "addedValue",
          "type": "uint256"
        }
      ],
      "name": "increaseAllowance",
      "outputs": [
        {
          "internalType": "bool",
          "name": "",
          "type": "bool"
        }
      ],
      "stateMutability": "nonpayable",
      "type": "function"
    },
    {
      "inputs": [
        {
          "internalType": "uint16",
          "name": "_srcChainId",
          "type": "uint16"
        },
        {
          "internalType": "bytes",
          "name": "_srcAddress",
          "type": "bytes"
        }
      ],
      "name": "isTrustedRemote",
      "outputs": [
        {
          "internalType": "bool",
          "name": "",
          "type": "bool"
        }
      ],
      "stateMutability": "view",
      "type": "function"
    },
    {
      "inputs": [],
      "name": "lzEndpoint",
      "outputs": [
        {
          "internalType": "contract ILayerZeroEndpoint",
          "name": "",
          "type": "address"
        }
      ],
      "stateMutability": "view",
      "type": "function"
    },
    {
      "inputs": [
        {
          "internalType": "uint16",
          "name": "_srcChainId",
          "type": "uint16"
        },
        {
          "internalType": "bytes",
          "name": "_srcAddress",
          "type": "bytes"
        },
        {
          "internalType": "uint64",
          "name": "_nonce",
          "type": "uint64"
        },
        {
          "internalType": "bytes",
          "name": "_payload",
          "type": "bytes"
        }
      ],
      "name": "lzReceive",
      "outputs": [],
      "stateMutability": "nonpayable",
      "type": "function"
    },
    {
      "inputs": [
        {
          "internalType": "uint16",
          "name": "",
          "type": "uint16"
        },
        {
          "internalType": "uint16",
          "name": "",
          "type": "uint16"
        }
      ],
      "name": "minDstGasLookup",
      "outputs": [
        {
          "internalType": "uint256",
          "name": "",
          "type": "uint256"
        }
      ],
      "stateMutability": "view",
      "type": "function"
    },
    {
      "inputs": [],
      "name": "name",
      "outputs": [
        {
          "internalType": "string",
          "name": "",
          "type": "string"
        }
      ],
      "stateMutability": "view",
      "type": "function"
    },
    {
      "inputs": [
        {
          "internalType": "uint16",
          "name": "_srcChainId",
          "type": "uint16"
        },
        {
          "internalType": "bytes",
          "name": "_srcAddress",
          "type": "bytes"
        },
        {
          "internalType": "uint64",
          "name": "_nonce",
          "type": "uint64"
        },
        {
          "internalType": "bytes",
          "name": "_payload",
          "type": "bytes"
        }
      ],
      "name": "nonblockingLzReceive",
      "outputs": [],
      "stateMutability": "nonpayable",
      "type": "function"
    },
    {
      "inputs": [],
      "name": "owner",
      "outputs": [
        {
          "internalType": "address",
          "name": "",
          "type": "address"
        }
      ],
      "stateMutability": "view",
      "type": "function"
    },
    {
      "inputs": [
        {
          "internalType": "uint16",
          "name": "",
          "type": "uint16"
        }
      ],
      "name": "payloadSizeLimitLookup",
      "outputs": [
        {
          "internalType": "uint256",
          "name": "",
          "type": "uint256"
        }
      ],
      "stateMutability": "view",
      "type": "function"
    },
    {
      "inputs": [],
      "name": "precrime",
      "outputs": [
        {
          "internalType": "address",
          "name": "",
          "type": "address"
        }
      ],
      "stateMutability": "view",
      "type": "function"
    },
    {
      "inputs": [
        {
          "internalType": "uint256",
          "name": "",
          "type": "uint256"
        }
      ],
      "name": "quota",
      "outputs": [
        {
          "internalType": "uint256",
          "name": "",
          "type": "uint256"
        }
      ],
      "stateMutability": "view",
      "type": "function"
    },
    {
      "inputs": [],
      "name": "renounceOwnership",
      "outputs": [],
      "stateMutability": "nonpayable",
      "type": "function"
    },
    {
      "inputs": [
        {
          "internalType": "uint16",
          "name": "_srcChainId",
          "type": "uint16"
        },
        {
          "internalType": "bytes",
          "name": "_srcAddress",
          "type": "bytes"
        },
        {
          "internalType": "uint64",
          "name": "_nonce",
          "type": "uint64"
        },
        {
          "internalType": "bytes",
          "name": "_payload",
          "type": "bytes"
        }
      ],
      "name": "retryMessage",
      "outputs": [],
      "stateMutability": "payable",
      "type": "function"
    },
    {
      "inputs": [
        {
          "internalType": "uint16",
          "name": "_version",
          "type": "uint16"
        },
        {
          "internalType": "uint16",
          "name": "_chainId",
          "type": "uint16"
        },
        {
          "internalType": "uint256",
          "name": "_configType",
          "type": "uint256"
        },
        {
          "internalType": "bytes",
          "name": "_config",
          "type": "bytes"
        }
      ],
      "name": "setConfig",
      "outputs": [],
      "stateMutability": "nonpayable",
      "type": "function"
    },
    {
      "inputs": [
        {
          "internalType": "uint16",
          "name": "_dstChainId",
          "type": "uint16"
        },
        {
          "internalType": "uint16",
          "name": "_packetType",
          "type": "uint16"
        },
        {
          "internalType": "uint256",
          "name": "_minGas",
          "type": "uint256"
        }
      ],
      "name": "setMinDstGas",
      "outputs": [],
      "stateMutability": "nonpayable",
      "type": "function"
    },
    {
      "inputs": [
        {
          "internalType": "uint16",
          "name": "_dstChainId",
          "type": "uint16"
        },
        {
          "internalType": "uint256",
          "name": "_size",
          "type": "uint256"
        }
      ],
      "name": "setPayloadSizeLimit",
      "outputs": [],
      "stateMutability": "nonpayable",
      "type": "function"
    },
    {
      "inputs": [
        {
          "internalType": "address",
          "name": "_precrime",
          "type": "address"
        }
      ],
      "name": "setPrecrime",
      "outputs": [],
      "stateMutability": "nonpayable",
      "type": "function"
    },
    {
      "inputs": [
        {
          "internalType": "uint16",
          "name": "_version",
          "type": "uint16"
        }
      ],
      "name": "setReceiveVersion",
      "outputs": [],
      "stateMutability": "nonpayable",
      "type": "function"
    },
    {
      "inputs": [
        {
          "internalType": "uint16",
          "name": "_version",
          "type": "uint16"
        }
      ],
      "name": "setSendVersion",
      "outputs": [],
      "stateMutability": "nonpayable",
      "type": "function"
    },
    {
      "inputs": [
        {
          "internalType": "uint16",
          "name": "_remoteChainId",
          "type": "uint16"
        },
        {
          "internalType": "bytes",
          "name": "_path",
          "type": "bytes"
        }
      ],
      "name": "setTrustedRemote",
      "outputs": [],
      "stateMutability": "nonpayable",
      "type": "function"
    },
    {
      "inputs": [
        {
          "internalType": "uint16",
          "name": "_remoteChainId",
          "type": "uint16"
        },
        {
          "internalType": "bytes",
          "name": "_remoteAddress",
          "type": "bytes"
        }
      ],
      "name": "setTrustedRemoteAddress",
      "outputs": [],
      "stateMutability": "nonpayable",
      "type": "function"
    },
    {
      "inputs": [
        {
          "internalType": "bool",
          "name": "_useCustomAdapterParams",
          "type": "bool"
        }
      ],
      "name": "setUseCustomAdapterParams",
      "outputs": [],
      "stateMutability": "nonpayable",
      "type": "function"
    },
    {
      "inputs": [
        {
          "internalType": "bytes4",
          "name": "interfaceId",
          "type": "bytes4"
        }
      ],
      "name": "supportsInterface",
      "outputs": [
        {
          "internalType": "bool",
          "name": "",
          "type": "bool"
        }
      ],
      "stateMutability": "view",
      "type": "function"
    },
    {
      "inputs": [],
      "name": "symbol",
      "outputs": [
        {
          "internalType": "string",
          "name": "",
          "type": "string"
        }
      ],
      "stateMutability": "view",
      "type": "function"
    },
    {
      "inputs": [],
      "name": "token",
      "outputs": [
        {
          "internalType": "address",
          "name": "",
          "type": "address"
        }
      ],
      "stateMutability": "view",
      "type": "function"
    },
    {
      "inputs": [],
      "name": "tokenPrice",
      "outputs": [
        {
          "internalType": "uint256",
          "name": "",
          "type": "uint256"
        }
      ],
      "stateMutability": "view",
      "type": "function"
    },
    {
      "inputs": [],
      "name": "totalSupply",
      "outputs": [
        {
          "internalType": "uint256",
          "name": "",
          "type": "uint256"
        }
      ],
      "stateMutability": "view",
      "type": "function"
    },
    {
      "inputs": [
        {
          "internalType": "address",
          "name": "to",
          "type": "address"
        },
        {
          "internalType": "uint256",
          "name": "amount",
          "type": "uint256"
        }
      ],
      "name": "transfer",
      "outputs": [
        {
          "internalType": "bool",
          "name": "",
          "type": "bool"
        }
      ],
      "stateMutability": "nonpayable",
      "type": "function"
    },
    {
      "inputs": [
        {
          "internalType": "address",
          "name": "from",
          "type": "address"
        },
        {
          "internalType": "address",
          "name": "to",
          "type": "address"
        },
        {
          "internalType": "uint256",
          "name": "amount",
          "type": "uint256"
        }
      ],
      "name": "transferFrom",
      "outputs": [
        {
          "internalType": "bool",
          "name": "",
          "type": "bool"
        }
      ],
      "stateMutability": "nonpayable",
      "type": "function"
    },
    {
      "inputs": [
        {
          "internalType": "address",
          "name": "newOwner",
          "type": "address"
        }
      ],
      "name": "transferOwnership",
      "outputs": [],
      "stateMutability": "nonpayable",
      "type": "function"
    },
    {
      "inputs": [
        {
          "internalType": "uint16",
          "name": "",
          "type": "uint16"
        }
      ],
      "name": "trustedRemoteLookup",
      "outputs": [
        {
          "internalType": "bytes",
          "name": "",
          "type": "bytes"
        }
      ],
      "stateMutability": "view",
      "type": "function"
    },
    {
      "inputs": [],
      "name": "updatedTime",
      "outputs": [
        {
          "internalType": "uint256",
          "name": "",
          "type": "uint256"
        }
      ],
      "stateMutability": "view",
      "type": "function"
    },
    {
      "inputs": [],
      "name": "useCustomAdapterParams",
      "outputs": [
        {
          "internalType": "bool",
          "name": "",
          "type": "bool"
        }
      ],
      "stateMutability": "view",
      "type": "function"
    },
    {
      "inputs": [
        {
          "internalType": "address",
          "name": "_from",
          "type": "address"
        },
        {
          "internalType": "uint16",
          "name": "_dstChainId",
          "type": "uint16"
        },
        {
          "internalType": "bytes",
          "name": "_toAddress",
          "type": "bytes"
        },
        {
          "internalType": "uint256",
          "name": "_amount",
          "type": "uint256"
        },
        {
          "internalType": "address payable",
          "name": "_refundAddress",
          "type": "address"
        },
        {
          "internalType": "address",
          "name": "_zroPaymentAddress",
          "type": "address"
        },
        {
          "internalType": "bytes",
          "name": "_adapterParams",
          "type": "bytes"
        }
      ],
      "name": "sendFrom",
      "outputs": [],
      "stateMutability": "payable",
      "type": "function"
    },
    {
      "inputs": [],
      "name": "getQuota",
      "outputs": [
        {
          "internalType": "uint256",
          "name": "",
          "type": "uint256"
        }
      ],
      "stateMutability": "nonpayable",
      "type": "function"
    }
  ],
  "bytecode": "0x60a034620003f957601f601f196001600160401b036200368d3881900384810184168601919083831187841017620003fe578087926040948552833981010312620003f95783516001600160a01b03939084811690819003620003f957602080960151946200006d62000414565b94601086526f29ba30b5b2a9ba37b7329022ba3432b960811b888701526200009462000414565b600581526453544f4e4560d81b8982015260008054336001600160a01b031982168117835592959194919291167f8be0079c531659141344cd1fd0a4f28419497f9722a3daafe3b4186f6b6457e08580a36080528551858111620003e557600a54966001978881811c91168015620003da575b8b821014620003c65790818784931162000372575b508a908783116001146200030d57859262000301575b5050600019600383901b1c191690871b17600a555b8251948511620002ed57600b548681811c91168015620002e2575b89821014620002ce5784811162000285575b50879385116001146200021e575083949596509262000212575b5050600019600383901b1c191690821b17600b555b670de0b6b3a7640000600c5560ff19601054161760105542600e55600d55604051613258908162000435823960805181818161043b0152818161072a0152818161084e015281816109ff01528181610bf2015281816117ea0152818161191601528181611f2d0152612b990152f35b0151905038806200018e565b84939291931696600b845280842093905b8882106200026d575050838596971062000253575b505050811b01600b55620001a3565b015160001960f88460031b161c1916905538808062000244565b8087859682949686015181550195019301906200022f565b600b83528883208580880160051c8201928b8910620002c4575b0160051c019087905b828110620002b857505062000174565b848155018790620002a8565b925081926200029f565b634e487b7160e01b83526022600452602483fd5b90607f169062000162565b634e487b7160e01b82526041600452602482fd5b01519050388062000132565b90848a941691600a87528c8720928d88905b8282106200035a575050841162000340575b505050811b01600a5562000147565b015160001960f88460031b161c1916905538808062000331565b8385015186558d979095019493840193018e6200031f565b909150600a85528a85208780850160051c8201928d8610620003bc575b918b91869594930160051c01915b828110620003ad5750506200011c565b8781558594508b91016200039d565b925081926200038f565b634e487b7160e01b85526022600452602485fd5b90607f169062000107565b634e487b7160e01b83526041600452602483fd5b600080fd5b634e487b7160e01b600052604160045260246000fd5b60408051919082016001600160401b03811183821017620003fe5760405256fe6080604052600436101561001257600080fd5b60003560e01c80621d35671461037c57806301ffc9a71461037757806306fdde031461037257806307e0db171461036d578063095ea7b3146103685780630df374831461036357806310ddb1371461035e57806318160ddd146102eb5780631df8ba771461035957806323b872dd146103545780632a205e3d1461034f578063313ce5671461034a578063355274ea1461034557806339509351146103405780633d8b38f61461033b5780633f1f4fa41461033657806342d65a8d1461033157806343bdfb721461032c5780634477051514610322578063471744d1146103275780634c42899a14610322578063519056361461031d5780635b8c41e61461031857806366ad5c8a146103135780636abe0abf1461030e57806370a0823114610309578063715018a6146103045780637533d788146102ff5780637ff9b596146102fa5780638cfd8f5c146102f55780638da5cb5b146102f05780639358928b146102eb578063950c8a74146102e657806395d89b41146102e15780639f38369a146102dc578063a162b0a2146102d7578063a3907d71146102d2578063a457c2d7146102cd578063a6c3d165146102c8578063a9059cbb146102c3578063b353aaa7146102be578063baf3292d146102b9578063c4461834146102b4578063ca5ea406146102af578063cbed8b9c146102aa578063d1deba1f146102a5578063dd62ed3e146102a0578063df2a5b3b1461029b578063e3ec18ae14610296578063eab45d9c14610291578063eb8d72b71461028c578063ed629c5c14610287578063f2fde38b14610282578063f5ecbdbc1461027d5763fc0c546a1461027857600080fd5b611f97565b611ec3565b611dfc565b611dd9565b611c8f565b611c2d565b611c11565b611b24565b611ada565b6119ae565b6118c2565b6118a6565b611889565b611819565b6117d4565b6117aa565b611627565b61157b565b611558565b61152c565b611489565b6113e5565b6113bc565b6108af565b611393565b611338565b61131a565b6112c3565b61117b565b61113e565b611120565b610f79565b610ee0565b610caf565b610c77565b610c93565b610c59565b610bd8565b610b9f565b610b43565b610abb565b610a9d565b610a81565b61093a565b6108f0565b6108cd565b610825565b6107e6565b6107b1565b610701565b610621565b61053a565b610424565b61ffff81160361038d57565b600080fd5b9181601f8401121561038d578235916001600160401b03831161038d576020838186019501011161038d57565b90608060031983011261038d576004356103d881610381565b916001600160401b039060243582811161038d57816103f991600401610392565b93909392604435818116810361038d579260643591821161038d5761042091600401610392565b9091565b3461038d57610432366103bf565b929493919291907f00000000000000000000000000000000000000000000000000000000000000006001600160a01b031633036104f5576104b86104c0926104c6976104b16104976104928a61ffff166000526001602052604060002090565b6112a6565b80519081841491826104eb575b50816104c8575b50611fb2565b3691610e6b565b923691610e6b565b92612135565b005b90506104d5368486610e6b565b60208151910120906020815191012014386104ab565b15159150386104a4565b60405162461bcd60e51b815260206004820152601e60248201527f4c7a4170703a20696e76616c696420656e64706f696e742063616c6c657200006044820152606490fd5b3461038d57602036600319011261038d5760043563ffffffff60e01b811680910361038d5780602091159081156105a9575b811561057e575b506040519015158152f35b630a72677560e11b811491508115610598575b5038610573565b6301ffc9a760e01b14905038610591565b6336372b0760e01b8114915061056c565b600091031261038d57565b60005b8381106105d85750506000910152565b81810151838201526020016105c8565b90602091610601815180928185528580860191016105c5565b601f01601f1916010190565b90602061061e9281815201906105e8565b90565b3461038d576000806003193601126106fe5760405181600a54610643816111d6565b808452906001908181169081156106d6575060011461067d575b6106798461066d81880382610e2f565b6040519182918261060d565b0390f35b600a8352602094507fc65a7bb8d6351c1cf70c95a316cc6a92839c986682d98bc35f958f4883f9d2a85b8284106106c357505050816106799361066d928201019361065d565b80548585018701529285019281016106a7565b610679965061066d9450602092508593915060ff191682840152151560051b8201019361065d565b80fd5b3461038d57600060203660031901126106fe5760043561072081610381565b6107286124da565b7f00000000000000000000000000000000000000000000000000000000000000006001600160a01b0316908290823b1561079c57602461ffff918360405195869485936307e0db1760e01b85521660048401525af180156107975761078b575080f35b61079490610dfc565b80f35b612074565b5080fd5b6001600160a01b0381160361038d57565b3461038d57604036600319011261038d576107db6004356107d1816107a0565b60243590336126e5565b602060405160018152f35b3461038d57604036600319011261038d5761ffff60043561080681610381565b61080e6124da565b166000526003602052602435604060002055600080f35b3461038d57600060203660031901126106fe5760043561084481610381565b61084c6124da565b7f00000000000000000000000000000000000000000000000000000000000000006001600160a01b0316908290823b1561079c57602461ffff918360405195869485936310ddb13760e01b85521660048401525af180156107975761078b575080f35b3461038d57600036600319011261038d576020600954604051908152f35b3461038d57600036600319011261038d5760206108e86131ba565b604051908152f35b3461038d57606036600319011261038d576107db600435610910816107a0565b60243561091c816107a0565b6044359161092b8333836127fe565b612616565b8015150361038d57565b3461038d5760a036600319011261038d5760043561095781610381565b6001600160401b039060243582811161038d57610978903690600401610392565b906064359261098684610930565b60843594851161038d576109fb6109a46109df963690600401610392565b9060409788966109c988519788926000602085015260608b8501526080840191612080565b604435606083015203601f198101875286610e2f565b855163040a7bb160e41b8152968795869530906004880161237c565b03817f00000000000000000000000000000000000000000000000000000000000000006001600160a01b03165afa918215610797576000918293610a4c575b50519081526020810191909152604090f35b81610a7292945061067993503d8511610a7a575b610a6a8183610e2f565b810190612366565b929091610a3a565b503d610a60565b3461038d57600036600319011261038d57602060405160128152f35b3461038d57600036600319011261038d576020600d54604051908152f35b3461038d57604036600319011261038d57600435610ad8816107a0565b336000526008602052610aef81604060002061254c565b546024358101809111610b06576107db91336126e5565b612110565b90604060031983011261038d57600435610b2481610381565b91602435906001600160401b03821161038d5761042091600401610392565b3461038d57602061ffff610b90610b5936610b0b565b9390911660005260018452610b7b610b82604060002060405192838092611210565b0382610e2f565b848151910120923691610e6b565b82815191012014604051908152f35b3461038d57602036600319011261038d5761ffff600435610bbf81610381565b1660005260036020526020604060002054604051908152f35b3461038d57610be636610b0b565b9190610bf06124da565b7f00000000000000000000000000000000000000000000000000000000000000006001600160a01b031691823b1561038d57604051928380926342d65a8d60e01b825281610c4760009889978894600485016120a1565b03925af180156107975761078b575080f35b3461038d57600036600319011261038d576020600e54604051908152f35b3461038d57600036600319011261038d57602060405160008152f35b3461038d57600036600319011261038d57602060405160018152f35b60e036600319011261038d57600435610cc7816107a0565b602435610cd381610381565b6001600160401b039060443582811161038d57610cf4903690600401610392565b60649391933560843591610d07836107a0565b60a43593610d14856107a0565b60c43590811161038d57610d2c903690600401610392565b96909560ff6010541615610db7576104c698610d4e61ffff831646141561288e565b620151804204610d7f610d75610d6e83600052600f602052604060002090565b54886123d0565b600d5410156128c7565b610db1610da087610d9a84600052600f602052604060002090565b546123d0565b91600052600f602052604060002090565b55612900565b60405162461bcd60e51b81526020600482015260076024820152661a5b9d985b1a5960ca1b6044820152606490fd5b634e487b7160e01b600052604160045260246000fd5b6001600160401b038111610e0f57604052565b610de6565b60c081019081106001600160401b03821117610e0f57604052565b90601f801991011681019081106001600160401b03821117610e0f57604052565b6001600160401b038111610e0f57601f01601f191660200190565b929192610e7782610e50565b91610e856040519384610e2f565b82948184528183011161038d578281602093846000960137010152565b602090610ebc9282604051948386809551938492016105c5565b82019081520301902090565b906001600160401b0316600052602052604060002090565b3461038d57606036600319011261038d57600435610efd81610381565b6001600160401b0360243581811161038d573660238201121561038d57610f2e903690602481600401359101610e6b565b90604435908116810361038d57610f63610f6892610f5d6106799561ffff166000526005602052604060002090565b90610ea2565b610ec8565b546040519081529081906020820190565b3461038d57610f87366103bf565b9150913033036110cc57610fa893610fa0913691610e6b565b503691610e6b565b906020820161ffff8151168015600014610fc8575050906104c691613072565b909150600181036110255750611020610fee61100e926020856104c69651010190612f44565b949092509030906001600160a01b03906110079061316a565b1614612ebf565b61101b600e548411612f8a565b600c55565b600e55565b6002810361106e575061104561105c916020846104c69551010190612eff565b92915030906001600160a01b03906110079061316a565b60ff8019601054169115151617601055565b6003036110915761104561108c916020846104c69551010190612e80565b600d55565b60405162461bcd60e51b8152602060048201526013602482015272756e6b6e6f776e207061636b6574207479706560681b6044820152606490fd5b60405162461bcd60e51b815260206004820152602660248201527f4e6f6e626c6f636b696e674c7a4170703a2063616c6c6572206d7573742062656044820152650204c7a4170760d41b6064820152608490fd5b3461038d57600036600319011261038d576020604051620151808152f35b3461038d57602036600319011261038d5760043561115b816107a0565b60018060a01b031660005260076020526020604060002054604051908152f35b3461038d576000806003193601126106fe576111956124da565b80546001600160a01b03198116825581906001600160a01b03167f8be0079c531659141344cd1fd0a4f28419497f9722a3daafe3b4186f6b6457e08280a380f35b90600182811c92168015611206575b60208310146111f057565b634e487b7160e01b600052602260045260246000fd5b91607f16916111e5565b9060009291805491611221836111d6565b9182825260019384811690816000146112835750600114611243575b50505050565b90919394506000526020928360002092846000945b83861061126f57505050500101903880808061123d565b805485870183015294019385908201611258565b9294505050602093945060ff191683830152151560051b0101903880808061123d565b906112c16112ba9260405193848092611210565b0383610e2f565b565b3461038d57602036600319011261038d5761ffff6004356112e381610381565b166000526001602052610679610b7b611306604060002060405192838092611210565b6040519182916020835260208301906105e8565b3461038d57600036600319011261038d576020600c54604051908152f35b3461038d57604036600319011261038d57602061138a60043561135a81610381565b61ffff6024359161136a83610381565b166000526002835260406000209061ffff16600052602052604060002090565b54604051908152f35b3461038d57600036600319011261038d576000546040516001600160a01b039091168152602090f35b3461038d57600036600319011261038d576004546040516001600160a01b039091168152602090f35b3461038d576000806003193601126106fe5760405181600b54611407816111d6565b808452906001908181169081156106d65750600114611430576106798461066d81880382610e2f565b600b8352602094507f0175b7a638427703f0dbe7bb9bbf987a2551717b34e79f33b5b1008d1fa01db95b82841061147657505050816106799361066d928201019361065d565b805485850187015292850192810161145a565b3461038d57602036600319011261038d5761ffff6004356114a981610381565b166000526001602052610b7b6114c9604060002060405192838092611210565b8051156114e75761066d816114e16106799351612126565b9061245a565b60405162461bcd60e51b815260206004820152601d60248201527f4c7a4170703a206e6f20747275737465642070617468207265636f72640000006044820152606490fd5b3461038d57602036600319011261038d57600435600052600f6020526020604060002054604051908152f35b3461038d57600036600319011261038d57602060ff601054166040519015158152f35b3461038d57604036600319011261038d57600435611598816107a0565b602435903360005260086020526115b381604060002061254c565b54918083106115d4576115c8920390336126e5565b60405160018152602090f35b60405162461bcd60e51b815260206004820152602560248201527f45524332303a2064656372656173656420616c6c6f77616e63652062656c6f77604482015264207a65726f60d81b6064820152608490fd5b3461038d5761163536610b0b565b9061163e6124da565b6040519260209280838587013761166a6034868381013060601b88820152036014810188520186610e2f565b60009361ffff8316855260019081815260408620918751916001600160401b038311610e0f576116a48361169e86546111d6565b866120bc565b80601f84116001146117145750918080926117039695948a9b7f8c0400cfe2d1199b1a725c78960bcc2a344d869b80590d0f2bd005db15a572ce9b94611709575b50501b916000199060031b1c19161790555b604051938493846120a1565b0390a180f35b0151925038806116e5565b91939498601f19841661172c87600052602060002090565b938a905b828210611793575050917f8c0400cfe2d1199b1a725c78960bcc2a344d869b80590d0f2bd005db15a572ce999a959391856117039896941061177a575b505050811b0190556116f7565b015160001960f88460031b161c1916905538808061176d565b808886978294978701518155019601940190611730565b3461038d57604036600319011261038d576107db6004356117ca816107a0565b6024359033612616565b3461038d57600036600319011261038d576040517f00000000000000000000000000000000000000000000000000000000000000006001600160a01b03168152602090f35b3461038d57602036600319011261038d577f5db758e995a17ec1ad84bdef7e8c3293a0bd6179bcce400dff5d4c3d87db726b6020600435611859816107a0565b6118616124da565b600480546001600160a01b0319166001600160a01b03929092169182179055604051908152a1005b3461038d57600036600319011261038d5760206040516127108152f35b3461038d57600036600319011261038d57602060405160028152f35b3461038d57608036600319011261038d576004356118df81610381565b6024356118eb81610381565b6064356001600160401b03811161038d5761190a903690600401610392565b90926119146124da565b7f00000000000000000000000000000000000000000000000000000000000000006001600160a01b031690813b1561038d576000809461198b604051978896879586946332fb62e760e21b865261ffff80921660048701521660248501526044356044850152608060648501526084840191612080565b03925af180156107975761199b57005b806119a86104c692610dfc565b806105ba565b6119b7366103bf565b9161ffff869492961660005260056020526119eb81604060002060206040518092878b833787820190815203019020610ec8565b54918215611a89577fc264d91f3adc5588250e1551f547752ca0cfa8f6b530d243b9f9f4cab10ea8e596611a8494611a7891611a72916000611a6687610f638d89611a608f611a4c8f611a3f368c8e610e6b565b60208151910120146122d9565b61ffff166000526005602052604060002090565b916122c0565b55610fa036868c610e6b565b86612fc4565b6040519586958661232f565b0390a1005b60405162461bcd60e51b815260206004820152602360248201527f4e6f6e626c6f636b696e674c7a4170703a206e6f2073746f726564206d65737360448201526261676560e81b6064820152608490fd5b3461038d57604036600319011261038d57602061138a600435611afc816107a0565b60243590611b09826107a0565b6001600160a01b03166000908152600884526040902061254c565b3461038d57606036600319011261038d57600435611b4181610381565b602435611b4d81610381565b60443591611b596124da565b8215611bd457611a847f9d5c7c0b934da8fefa9c7760c98383778a12dfbfc0c3b3106518f43fb9508ac09361ffff8316600052600260205280611bae8560406000209061ffff16600052602052604060002090565b556040519384938460409194939294606082019561ffff80921683521660208201520152565b60405162461bcd60e51b81526020600482015260156024820152744c7a4170703a20696e76616c6964206d696e47617360581b6044820152606490fd5b3461038d57600036600319011261038d57602060405160038152f35b3461038d57602036600319011261038d577f1584ad594a70cbe1e6515592e1272a987d922b097ead875069cebe8b40c004a46020600435611c6d81610930565b611c756124da565b151560ff196006541660ff821617600655604051908152a1005b3461038d57611c9d36610b0b565b9190611ca76124da565b60009161ffff81168352600160209080825260408520916001600160401b038711610e0f57611ce087611cda85546111d6565b856120bc565b8590601f8811600114611d475750918680879893611703957ffa41487ad5d6728f0b19276fa1eddc16558578f5109fc39d2dc33c3230470dab9993611d3c575b501b906000198460031b1c1916179055604051938493846120a1565b880135925038611d20565b90601f198816611d5c85600052602060002090565b9288905b828210611dc2575050918893917ffa41487ad5d6728f0b19276fa1eddc16558578f5109fc39d2dc33c3230470dab9899611703969410611da8575b505082811b0190556116f7565b870135600019600386901b60f8161c191690553880611d9b565b808685968294968c01358155019501930190611d60565b3461038d57600036600319011261038d57602060ff600654166040519015158152f35b3461038d57602036600319011261038d57600435611e19816107a0565b611e216124da565b6001600160a01b039081168015611e6f57600080546001600160a01b03198116831782559092167f8be0079c531659141344cd1fd0a4f28419497f9722a3daafe3b4186f6b6457e08380a380f35b60405162461bcd60e51b815260206004820152602660248201527f4f776e61626c653a206e6577206f776e657220697320746865207a65726f206160448201526564647265737360d01b6064820152608490fd5b3461038d57608036600319011261038d57600435611ee081610381565b60243590611eed82610381565b611ef86044356107a0565b604051633d7b2f6f60e21b815261ffff91821660048201529116602482015230604482015260648035908201526000816084817f00000000000000000000000000000000000000000000000000000000000000006001600160a01b03165afa80156107975761067991600091611f76575b506040519182918261060d565b611f91913d8091833e611f898183610e2f565b81019061204f565b38611f69565b3461038d57600036600319011261038d576020604051308152f35b15611fb957565b60405162461bcd60e51b815260206004820152602660248201527f4c7a4170703a20696e76616c696420736f757263652073656e64696e6720636f6044820152651b9d1c9858dd60d21b6064820152608490fd5b81601f8201121561038d57805161202381610e50565b926120316040519485610e2f565b8184526020828401011161038d5761061e91602080850191016105c5565b9060208282031261038d5781516001600160401b03811161038d5761061e920161200d565b6040513d6000823e3d90fd5b908060209392818452848401376000828201840152601f01601f1916010190565b60409061ffff61061e95931681528160208201520191612080565b90601f81116120ca57505050565b600091825260208220906020601f850160051c83019410612106575b601f0160051c01915b8281106120fb57505050565b8181556001016120ef565b90925082906120e6565b634e487b7160e01b600052601160045260246000fd5b601319810191908211610b0657565b9290915a604051633356ae4560e11b6020820190815261ffff871660248301526080604483015294916121a18261219361217260a48301876105e8565b6001600160401b0388166064840152828103602319016084840152886105e8565b03601f198101845283610e2f565b60008091604051976121b289610e14565b609689528260208a019560a036883751923090f1903d90609682116121f9575b6000908288523e156121e6575b5050505050565b6121ef94612202565b38808080806121df565b609691506121d2565b91936122ad7fe183f33de2837795525b4792ca4cd60535bd77c53b7e7030060bfcf5734d6b0c956122bb939561ffff815160208301209616958660005260056020526122748361226660208b604060002082604051948386809551938492016105c5565b820190815203019020610ec8565b556001600160401b03612299604051988998895260a060208a015260a08901906105e8565b9216604087015285820360608701526105e8565b9083820360808501526105e8565b0390a1565b6020919283604051948593843782019081520301902090565b156122e057565b60405162461bcd60e51b815260206004820152602160248201527f4e6f6e626c6f636b696e674c7a4170703a20696e76616c6964207061796c6f616044820152601960fa1b6064820152608490fd5b9161235b9060609461ffff6001600160401b039499989799168552608060208601526080850191612080565b951660408201520152565b919082604091031261038d576020825192015190565b919261061e9694959361ffff6123ad9316845260018060a01b0316602084015260a0604084015260a08301906105e8565b93151560608201526080818503910152612080565b90601f8201809211610b0657565b91908201809211610b0657565b156123e457565b60405162461bcd60e51b815260206004820152600e60248201526d736c6963655f6f766572666c6f7760901b6044820152606490fd5b1561242157565b60405162461bcd60e51b8152602060048201526011602482015270736c6963655f6f75744f66426f756e647360781b6044820152606490fd5b61246e82612467816123c2565b10156123dd565b61247b828251101561241a565b81612493575050604051600081526020810160405290565b60405191601f811691821560051b808486010193838501920101905b8084106124c75750508252601f01601f191660405290565b90928351815260208091019301906124af565b6000546001600160a01b031633036124ee57565b606460405162461bcd60e51b815260206004820152602060248201527f4f776e61626c653a2063616c6c6572206973206e6f7420746865206f776e65726044820152fd5b6001600160a01b0316600090815260076020526040902090565b9060018060a01b0316600052602052604060002090565b1561256a57565b60405162461bcd60e51b815260206004820152602360248201527f45524332303a207472616e7366657220746f20746865207a65726f206164647260448201526265737360e81b6064820152608490fd5b156125c257565b60405162461bcd60e51b815260206004820152602660248201527f45524332303a207472616e7366657220616d6f756e7420657863656564732062604482015265616c616e636560d01b6064820152608490fd5b916001600160a01b03808416929091831561269257612677826000805160206132038339815191529461268d941696612650881515612563565b6126718461265d83612532565b5461266a828210156125bb565b0391612532565b55612532565b8054820190556040519081529081906020820190565b0390a3565b60405162461bcd60e51b815260206004820152602560248201527f45524332303a207472616e736665722066726f6d20746865207a65726f206164604482015264647265737360d81b6064820152608490fd5b6001600160a01b0380821692919083156127ad57821693841561275d578061274c7f8c5be1e5ebec7d5bd14f71427d1e84f3dd0314c0f7b2291e5b200ac8c7c3b9259461274761268d9560018060a01b03166000526008602052604060002090565b61254c565b556040519081529081906020820190565b60405162461bcd60e51b815260206004820152602260248201527f45524332303a20617070726f766520746f20746865207a65726f206164647265604482015261737360f01b6064820152608490fd5b60405162461bcd60e51b8152602060048201526024808201527f45524332303a20617070726f76652066726f6d20746865207a65726f206164646044820152637265737360e01b6064820152608490fd5b9060018060a01b038216600052600860205261281e81604060002061254c565b54926001840161282e5750505050565b808410612849576128409303916126e5565b3880808061123d565b60405162461bcd60e51b815260206004820152601d60248201527f45524332303a20696e73756666696369656e7420616c6c6f77616e63650000006044820152606490fd5b1561289557565b60405162461bcd60e51b815260206004820152600a60248201526939b0b6b29031b430b4b760b11b6044820152606490fd5b156128ce57565b60405162461bcd60e51b815260206004820152600a6024820152690457863656564206361760b41b6044820152606490fd5b93959261291e9261291691999892993691610e6b565b963691610e6b565b9060ff60065416600014612a345760228251106129f0576129d961ffff94836129aa7f39a4c66499bcf4b56d79f0dde8ed7a9d4925a0df55825206b2b8531e202be0d0986129a48c8a602261268d9a015191166000526002602052612990604060002060008052602052604060002090565b549061299d821515612d96565b1015612ddf565b87612cd7565b9384926129d18b6129c360405196879260208401612ac3565b03601f198101865285610e2f565b34938c612b55565b60405193849360018060a01b031697169583612ae6565b60405162461bcd60e51b815260206004820152601c60248201527b4c7a4170703a20696e76616c69642061646170746572506172616d7360201b6044820152606490fd5b8151612a6f576129d961ffff9461268d936129aa7f39a4c66499bcf4b56d79f0dde8ed7a9d4925a0df55825206b2b8531e202be0d0986129a4565b60405162461bcd60e51b815260206004820152602660248201527f4f4654436f72653a205f61646170746572506172616d73206d7573742062652060448201526532b6b83a3c9760d11b6064820152608490fd5b929190612ae1604091600086526060602087015260608601906105e8565b930152565b929190612ae16020916040865260408601906105e8565b92612b2261061e97959361ffff612b309416865260c0602087015260c08601906105e8565b9084820360408601526105e8565b6001600160a01b0391821660608401529316608082015280830360a0909101526105e8565b94612b7e9193929561ffff81166000526001602052612b85604060002060405194858092611210565b0384610e2f565b825115612c0a57612b97855182612c68565b7f00000000000000000000000000000000000000000000000000000000000000006001600160a01b031693843b1561038d57600096612bec91604051998a988997889662c5803160e81b885260048801612afd565b03925af1801561079757612bfd5750565b806119a86112c192610dfc565b60405162461bcd60e51b815260206004820152603060248201527f4c7a4170703a2064657374696e6174696f6e20636861696e206973206e6f742060448201526f61207472757374656420736f7572636560801b6064820152608490fd5b61ffff166000526003602052604060002054908115612ccd575b11612c8957565b606460405162461bcd60e51b815260206004820152602060248201527f4c7a4170703a207061796c6f61642073697a6520697320746f6f206c617267656044820152fd5b6127109150612c82565b6001600160a01b038116338103612d86575b8015612d375781612d0c84612cff600095612532565b5461266a82821015612e29565b55612d1a8360095403600955565b60405183815260008051602061320383398151915290602090a390565b60405162461bcd60e51b815260206004820152602160248201527f45524332303a206275726e2066726f6d20746865207a65726f206164647265736044820152607360f81b6064820152608490fd5b612d918333846127fe565b612ce9565b15612d9d57565b60405162461bcd60e51b815260206004820152601a602482015279131e905c1c0e881b5a5b91d85cd31a5b5a5d081b9bdd081cd95d60321b6044820152606490fd5b15612de657565b60405162461bcd60e51b815260206004820152601b60248201527a4c7a4170703a20676173206c696d697420697320746f6f206c6f7760281b6044820152606490fd5b15612e3057565b60405162461bcd60e51b815260206004820152602260248201527f45524332303a206275726e20616d6f756e7420657863656564732062616c616e604482015261636560f01b6064820152608490fd5b909160608284031261038d578151612e9781610381565b9260208301516001600160401b03811161038d57604091612eb991850161200d565b92015190565b15612ec657565b60405162461bcd60e51b81526020600482015260116024820152701b9bdd081d1a1a5cc818dbdb9d1c9858dd607a1b6044820152606490fd5b909160608284031261038d578151612f1681610381565b9260208301516001600160401b03811161038d57604091612f3891850161200d565b92015161061e81610930565b91909160808184031261038d578051612f5c81610381565b926020820151906001600160401b03821161038d57612f7c91830161200d565b916060604083015192015190565b15612f9157565b60405162461bcd60e51b815260206004820152600b60248201526a7374616c6520707269636560a81b6044820152606490fd5b90602081019161ffff8351168015600014612fe457506112c19250613072565b905060018103613026575061102061301661300c6112c19460208561100e9651010190612f44565b959250929061316a565b6001600160a01b03163014612ebf565b60028103613051575061105c6130496112c1936020846130169551010190612eff565b93915061316a565b6003036110915761108c6130496112c1936020846130169551010190612e80565b906130896130919160208082518301019101612e80565b92915061316a565b6001600160a01b03811692908315613125577fbf551ec93859b170f9b2141bd9298bf3f64322c6f7beb2543a0cb669834118bf916130e561ffff926130e06130db876009546123d0565b600955565b612532565b8481540190558460006000805160206132038339815191526040518061311089829190602083019252565b0390a36040519384521691806020810161268d565b60405162461bcd60e51b815260206004820152601f60248201527f45524332303a206d696e7420746f20746865207a65726f2061646472657373006044820152606490fd5b601481511061317d576020015160601c90565b60405162461bcd60e51b8152602060048201526015602482015274746f416464726573735f6f75744f66426f756e647360581b6044820152606490fd5b600090620151804204600052600f602052604060002054600d5490808211806131f6575b6131e6575050565b908092935003908111610b065790565b5060ff601054166131de56feddf252ad1be2c89b69c2b068fc378daa952ba7f163c4a11628f55a4df523b3efa26469706673582212203f44da0292293b80737ee2ca3ca969b9ccce380fc179e417bdc83b66f25bb50f64736f6c63430008130033",
  "immutableReferences": {
    "211": [
      {
        "length": 32,
        "start": 1083
      },
      {
        "length": 32,
        "start": 1834
      },
      {
        "length": 32,
        "start": 2126
      },
      {
        "length": 32,
        "start": 2559
      },
      {
        "length": 32,
        "start": 3058
      },
      {
        "length": 32,
        "start": 6122
      },
      {
        "length": 32,
        "start": 6422
      },
      {
        "length": 32,
        "start": 7981
      },
      {
        "length": 32,
        "start": 11161
      }
    ]
  },
  "source": "// SPDX-License-Identifier: MIT\npragma solidity 0.8.19;\n\nimport \"@layerzerolabs/solidity-examples/contracts/token/oft/OFT.sol\";\n\ncontract StoneCross is OFT {\n    using BytesLib for bytes;\n\n    uint256 public constant DAY_INTERVAL = 24 * 60 * 60;\n\n    uint16 public constant PT_FEED = 1;\n    uint16 public constant PT_SET_ENABLE = 2;\n    uint16 public constant PT_SET_CAP = 3;\n\n    uint256 public tokenPrice = 1e18;\n    uint256 public cap;\n    uint256 public updatedTime;\n\n    mapping(uint256 => uint256) public quota;\n\n    bool public enable = true;\n\n    constructor(\n        address _layerZeroEndpoint,\n        uint256 _cap\n    ) OFT(\"StakeStone Ether\", \"STONE\", _layerZeroEndpoint) {\n        updatedTime = block.timestamp;\n        cap = _cap;\n    }\n\n    function sendFrom(\n        address _from,\n        uint16 _dstChainId,\n        bytes calldata _toAddress,\n        uint _amount,\n        address payable _refundAddress,\n        address _zroPaymentAddress,\n        bytes calldata _adapterParams\n    ) public payable override(IOFTCore, OFTCore) {\n        require(enable, \"invalid\");\n\n        uint256 id;\n        assembly {\n            id := chainid()\n        }\n        require(id != _dstChainId, \"same chain\");\n\n        uint256 day = block.timestamp / DAY_INTERVAL;\n        require(_amount + quota[day] <= cap, \"Exceed cap\");\n\n        quota[day] = quota[day] + _amount;\n\n        super.sendFrom(\n            _from,\n            _dstChainId,\n            _toAddress,\n            _amount,\n            _refundAddress,\n            _zroPaymentAddress,\n            _adapterParams\n        );\n    }\n\n    function _nonblockingLzReceive(\n        uint16 _srcChainId,\n        bytes memory _srcAddress,\n        uint64 _nonce,\n        bytes memory _payload\n    ) internal virtual override {\n        uint16 packetType;\n        assembly {\n            packetType := mload(add(_payload, 32))\n        }\n\n        if (packetType == PT_SEND) {\n            _sendAck(_srcChainId, _srcAddress, _nonce, _payload);\n        } else if (packetType == PT_FEED) {\n            (, bytes memory toAddressBytes, uint256 price, uint256 time) = abi\n                .decode(_payload, (uint16, bytes, uint256, uint256));\n\n            address to = toAddressBytes.toAddress(0);\n            require(to == address(this), \"not this contract\");\n            require(time > updatedTime, \"stale price\");\n\n            tokenPrice = price;\n            updatedTime = time;\n        } else if (packetType == PT_SET_ENABLE) {\n            (, bytes memory toAddressBytes, bool flag) = abi.decode(\n                _payload,\n                (uint16, bytes, bool)\n            );\n\n            address to = toAddressBytes.toAddress(0);\n            require(to == address(this), \"not this contract\");\n\n            enable = flag;\n        } else if (packetType == PT_SET_CAP) {\n            (, bytes memory toAddressBytes, uint256 _cap) = abi.decode(\n                _payload,\n                (uint16, bytes, uint256)\n            );\n\n            address to = toAddressBytes.toAddress(0);\n            require(to == address(this), \"not this contract\");\n\n            cap = _cap;\n        } else {\n            revert(\"unknown packet type\");\n        }\n    }\n\n    function getQuota() external returns (uint256) {\n        uint256 amount = quota[block.timestamp / DAY_INTERVAL];\n        if (cap > amount && enable) {\n            return cap - amount;\n        }\n    }\n}\n",
  "sourcePath": "/Users/mingyuzhang/Downloads/stone-vault-v1/contracts/token/StoneCross.sol",
  "compiler": {
    "name": "solc",
    "version": "0.8.19+commit.7dd6d404.Emscripten.clang"
  },
  "schemaVersion": "3.4.16",
  "updatedAt": "2024-06-07T05:41:32.654Z",
  "devdoc": {
    "events": {
      "Approval(address,address,uint256)": {
        "details": "Emitted when the allowance of a `spender` for an `owner` is set by a call to {approve}. `value` is the new allowance."
      },
      "ReceiveFromChain(uint16,address,uint256)": {
        "details": "Emitted when `_amount` tokens are received from `_srcChainId` into the `_toAddress` on the local chain. `_nonce` is the inbound nonce."
      },
      "SendToChain(uint16,address,bytes,uint256)": {
        "details": "Emitted when `_amount` tokens are moved from the `_sender` to (`_dstChainId`, `_toAddress`) `_nonce` is the outbound nonce"
      },
      "Transfer(address,address,uint256)": {
        "details": "Emitted when `value` tokens are moved from one account (`from`) to another (`to`). Note that `value` may be zero."
      }
    },
    "kind": "dev",
    "methods": {
      "allowance(address,address)": {
        "details": "See {IERC20-allowance}."
      },
      "approve(address,uint256)": {
        "details": "See {IERC20-approve}. NOTE: If `amount` is the maximum `uint256`, the allowance is not updated on `transferFrom`. This is semantically equivalent to an infinite approval. Requirements: - `spender` cannot be the zero address."
      },
      "balanceOf(address)": {
        "details": "See {IERC20-balanceOf}."
      },
      "circulatingSupply()": {
        "details": "returns the circulating amount of tokens on current chain"
      },
      "decimals()": {
        "details": "Returns the number of decimals used to get its user representation. For example, if `decimals` equals `2`, a balance of `505` tokens should be displayed to a user as `5.05` (`505 / 10 ** 2`). Tokens usually opt for a value of 18, imitating the relationship between Ether and Wei. This is the default value returned by this function, unless it's overridden. NOTE: This information is only used for _display_ purposes: it in no way affects any of the arithmetic of the contract, including {IERC20-balanceOf} and {IERC20-transfer}."
      },
      "decreaseAllowance(address,uint256)": {
        "details": "Atomically decreases the allowance granted to `spender` by the caller. This is an alternative to {approve} that can be used as a mitigation for problems described in {IERC20-approve}. Emits an {Approval} event indicating the updated allowance. Requirements: - `spender` cannot be the zero address. - `spender` must have allowance for the caller of at least `subtractedValue`."
      },
      "estimateSendFee(uint16,bytes,uint256,bool,bytes)": {
        "details": "estimate send token `_tokenId` to (`_dstChainId`, `_toAddress`) _dstChainId - L0 defined chain id to send tokens too _toAddress - dynamic bytes array which contains the address to whom you are sending tokens to on the dstChain _amount - amount of the tokens to transfer _useZro - indicates to use zro to pay L0 fees _adapterParam - flexible bytes array to indicate messaging adapter services in L0"
      },
      "increaseAllowance(address,uint256)": {
        "details": "Atomically increases the allowance granted to `spender` by the caller. This is an alternative to {approve} that can be used as a mitigation for problems described in {IERC20-approve}. Emits an {Approval} event indicating the updated allowance. Requirements: - `spender` cannot be the zero address."
      },
      "name()": {
        "details": "Returns the name of the token."
      },
      "owner()": {
        "details": "Returns the address of the current owner."
      },
      "renounceOwnership()": {
        "details": "Leaves the contract without owner. It will not be possible to call `onlyOwner` functions. Can only be called by the current owner. NOTE: Renouncing ownership will leave the contract without an owner, thereby disabling any functionality that is only available to the owner."
      },
      "symbol()": {
        "details": "Returns the symbol of the token, usually a shorter version of the name."
      },
      "token()": {
        "details": "returns the address of the ERC20 token"
      },
      "totalSupply()": {
        "details": "See {IERC20-totalSupply}."
      },
      "transfer(address,uint256)": {
        "details": "See {IERC20-transfer}. Requirements: - `to` cannot be the zero address. - the caller must have a balance of at least `amount`."
      },
      "transferFrom(address,address,uint256)": {
        "details": "See {IERC20-transferFrom}. Emits an {Approval} event indicating the updated allowance. This is not required by the EIP. See the note at the beginning of {ERC20}. NOTE: Does not update the allowance if the current allowance is the maximum `uint256`. Requirements: - `from` and `to` cannot be the zero address. - `from` must have a balance of at least `amount`. - the caller must have allowance for ``from``'s tokens of at least `amount`."
      },
      "transferOwnership(address)": {
        "details": "Transfers ownership of the contract to a new account (`newOwner`). Can only be called by the current owner."
      }
    },
    "version": 1
  },
  "userdoc": {
    "kind": "user",
    "methods": {},
    "version": 1
  }
}