{
  "contractName": "StoneAdapter",
  "abi": [
    {
      "inputs": [
        {
          "internalType": "uint256",
          "name": "_amount",
          "type": "uint256"
        }
      ],
      "name": "getStoneValue",
      "outputs": [
        {
          "internalType": "uint256",
          "name": "value",
          "type": "uint256"
        }
      ],
      "stateMutability": "view",
      "type": "function"
    }
  ],
  "bytecode": "0x60808060405234601457607690816100198239f35b5f80fdfe60808060405260043610156011575f80fd5b5f3560e01c6303fab65c146023575f80fd5b34603c576020366003190112603c576020906004358152f35b5f80fdfea26469706673582212202c5415bde74203032254aa42d158a44fea358f60f2fe3762fda72d356339c55b64736f6c63430008150033",
  "immutableReferences": {},
  "source": "// SPDX-License-Identifier: MIT\npragma solidity 0.8.21;\n\nimport {IMiningPoolTokenAdapter} from \"../interfaces/IMiningPoolTokenAdapter.sol\";\n\ncontract StoneAdapter is IMiningPoolTokenAdapter {\n    function getStoneValue(\n        uint256 _amount\n    ) external view override returns (uint256 value) {\n        value = _amount;\n    }\n}\n",
  "sourcePath": "/Users/mingyuzhang/Downloads/stone-vault-v1/contracts/mining/StoneAdapter.sol",
  "compiler": {
    "name": "solc",
    "version": "0.8.21+commit.d9974bed.Emscripten.clang"
  },
  "schemaVersion": "3.4.16",
  "updatedAt": "2024-06-07T05:41:32.629Z",
  "devdoc": {
    "kind": "dev",
    "methods": {},
    "version": 1
  },
  "userdoc": {
    "kind": "user",
    "methods": {},
    "version": 1
  }
}