{
  "contractName": "StoneNFT",
  "abi": [
    {
      "inputs": [
        {
          "internalType": "address",
          "name": "_pool",
          "type": "address"
        }
      ],
      "stateMutability": "nonpayable",
      "type": "constructor"
    },
    {
      "anonymous": false,
      "inputs": [
        {
          "indexed": true,
          "internalType": "address",
          "name": "owner",
          "type": "address"
        },
        {
          "indexed": true,
          "internalType": "address",
          "name": "approved",
          "type": "address"
        },
        {
          "indexed": true,
          "internalType": "uint256",
          "name": "tokenId",
          "type": "uint256"
        }
      ],
      "name": "Approval",
      "type": "event"
    },
    {
      "anonymous": false,
      "inputs": [
        {
          "indexed": true,
          "internalType": "address",
          "name": "owner",
          "type": "address"
        },
        {
          "indexed": true,
          "internalType": "address",
          "name": "operator",
          "type": "address"
        },
        {
          "indexed": false,
          "internalType": "bool",
          "name": "approved",
          "type": "bool"
        }
      ],
      "name": "ApprovalForAll",
      "type": "event"
    },
    {
      "anonymous": false,
      "inputs": [
        {
          "indexed": true,
          "internalType": "address",
          "name": "previousOwner",
          "type": "address"
        },
        {
          "indexed": true,
          "internalType": "address",
          "name": "newOwner",
          "type": "address"
        }
      ],
      "name": "OwnershipTransferred",
      "type": "event"
    },
    {
      "anonymous": false,
      "inputs": [
        {
          "indexed": true,
          "internalType": "address",
          "name": "from",
          "type": "address"
        },
        {
          "indexed": true,
          "internalType": "address",
          "name": "to",
          "type": "address"
        },
        {
          "indexed": true,
          "internalType": "uint256",
          "name": "tokenId",
          "type": "uint256"
        }
      ],
      "name": "Transfer",
      "type": "event"
    },
    {
      "inputs": [
        {
          "internalType": "address",
          "name": "to",
          "type": "address"
        },
        {
          "internalType": "uint256",
          "name": "tokenId",
          "type": "uint256"
        }
      ],
      "name": "approve",
      "outputs": [],
      "stateMutability": "nonpayable",
      "type": "function"
    },
    {
      "inputs": [
        {
          "internalType": "address",
          "name": "owner",
          "type": "address"
        }
      ],
      "name": "balanceOf",
      "outputs": [
        {
          "internalType": "uint256",
          "name": "",
          "type": "uint256"
        }
      ],
      "stateMutability": "view",
      "type": "function"
    },
    {
      "inputs": [
        {
          "internalType": "uint256",
          "name": "tokenId",
          "type": "uint256"
        }
      ],
      "name": "getApproved",
      "outputs": [
        {
          "internalType": "address",
          "name": "",
          "type": "address"
        }
      ],
      "stateMutability": "view",
      "type": "function"
    },
    {
      "inputs": [
        {
          "internalType": "address",
          "name": "owner",
          "type": "address"
        },
        {
          "internalType": "address",
          "name": "operator",
          "type": "address"
        }
      ],
      "name": "isApprovedForAll",
      "outputs": [
        {
          "internalType": "bool",
          "name": "",
          "type": "bool"
        }
      ],
      "stateMutability": "view",
      "type": "function"
    },
    {
      "inputs": [],
      "name": "miningPool",
      "outputs": [
        {
          "internalType": "address",
          "name": "",
          "type": "address"
        }
      ],
      "stateMutability": "view",
      "type": "function"
    },
    {
      "inputs": [],
      "name": "name",
      "outputs": [
        {
          "internalType": "string",
          "name": "",
          "type": "string"
        }
      ],
      "stateMutability": "view",
      "type": "function"
    },
    {
      "inputs": [],
      "name": "owner",
      "outputs": [
        {
          "internalType": "address",
          "name": "",
          "type": "address"
        }
      ],
      "stateMutability": "view",
      "type": "function"
    },
    {
      "inputs": [
        {
          "internalType": "uint256",
          "name": "tokenId",
          "type": "uint256"
        }
      ],
      "name": "ownerOf",
      "outputs": [
        {
          "internalType": "address",
          "name": "",
          "type": "address"
        }
      ],
      "stateMutability": "view",
      "type": "function"
    },
    {
      "inputs": [
        {
          "internalType": "uint256",
          "name": "",
          "type": "uint256"
        }
      ],
      "name": "propertiesById",
      "outputs": [
        {
          "internalType": "uint256",
          "name": "points",
          "type": "uint256"
        },
        {
          "internalType": "address",
          "name": "minter",
          "type": "address"
        },
        {
          "internalType": "uint256",
          "name": "startTime",
          "type": "uint256"
        },
        {
          "internalType": "uint256",
          "name": "endTime",
          "type": "uint256"
        }
      ],
      "stateMutability": "view",
      "type": "function"
    },
    {
      "inputs": [],
      "name": "renounceOwnership",
      "outputs": [],
      "stateMutability": "nonpayable",
      "type": "function"
    },
    {
      "inputs": [
        {
          "internalType": "address",
          "name": "from",
          "type": "address"
        },
        {
          "internalType": "address",
          "name": "to",
          "type": "address"
        },
        {
          "internalType": "uint256",
          "name": "tokenId",
          "type": "uint256"
        }
      ],
      "name": "safeTransferFrom",
      "outputs": [],
      "stateMutability": "nonpayable",
      "type": "function"
    },
    {
      "inputs": [
        {
          "internalType": "address",
          "name": "from",
          "type": "address"
        },
        {
          "internalType": "address",
          "name": "to",
          "type": "address"
        },
        {
          "internalType": "uint256",
          "name": "tokenId",
          "type": "uint256"
        },
        {
          "internalType": "bytes",
          "name": "data",
          "type": "bytes"
        }
      ],
      "name": "safeTransferFrom",
      "outputs": [],
      "stateMutability": "nonpayable",
      "type": "function"
    },
    {
      "inputs": [
        {
          "internalType": "address",
          "name": "operator",
          "type": "address"
        },
        {
          "internalType": "bool",
          "name": "approved",
          "type": "bool"
        }
      ],
      "name": "setApprovalForAll",
      "outputs": [],
      "stateMutability": "nonpayable",
      "type": "function"
    },
    {
      "inputs": [],
      "name": "symbol",
      "outputs": [
        {
          "internalType": "string",
          "name": "",
          "type": "string"
        }
      ],
      "stateMutability": "view",
      "type": "function"
    },
    {
      "inputs": [
        {
          "internalType": "uint256",
          "name": "index",
          "type": "uint256"
        }
      ],
      "name": "tokenByIndex",
      "outputs": [
        {
          "internalType": "uint256",
          "name": "",
          "type": "uint256"
        }
      ],
      "stateMutability": "view",
      "type": "function"
    },
    {
      "inputs": [
        {
          "internalType": "address",
          "name": "owner",
          "type": "address"
        },
        {
          "internalType": "uint256",
          "name": "index",
          "type": "uint256"
        }
      ],
      "name": "tokenOfOwnerByIndex",
      "outputs": [
        {
          "internalType": "uint256",
          "name": "",
          "type": "uint256"
        }
      ],
      "stateMutability": "view",
      "type": "function"
    },
    {
      "inputs": [],
      "name": "totalSupply",
      "outputs": [
        {
          "internalType": "uint256",
          "name": "",
          "type": "uint256"
        }
      ],
      "stateMutability": "view",
      "type": "function"
    },
    {
      "inputs": [
        {
          "internalType": "address",
          "name": "from",
          "type": "address"
        },
        {
          "internalType": "address",
          "name": "to",
          "type": "address"
        },
        {
          "internalType": "uint256",
          "name": "tokenId",
          "type": "uint256"
        }
      ],
      "name": "transferFrom",
      "outputs": [],
      "stateMutability": "nonpayable",
      "type": "function"
    },
    {
      "inputs": [
        {
          "internalType": "address",
          "name": "newOwner",
          "type": "address"
        }
      ],
      "name": "transferOwnership",
      "outputs": [],
      "stateMutability": "nonpayable",
      "type": "function"
    },
    {
      "inputs": [
        {
          "internalType": "address",
          "name": "_to",
          "type": "address"
        },
        {
          "internalType": "uint256",
          "name": "_points",
          "type": "uint256"
        },
        {
          "internalType": "uint256",
          "name": "_startTime",
          "type": "uint256"
        },
        {
          "internalType": "uint256",
          "name": "_endTime",
          "type": "uint256"
        }
      ],
      "name": "mint",
      "outputs": [
        {
          "internalType": "uint256",
          "name": "tokenId",
          "type": "uint256"
        }
      ],
      "stateMutability": "nonpayable",
      "type": "function"
    },
    {
      "inputs": [
        {
          "internalType": "address",
          "name": "_pool",
          "type": "address"
        }
      ],
      "name": "setPool",
      "outputs": [],
      "stateMutability": "nonpayable",
      "type": "function"
    },
    {
      "inputs": [
        {
          "internalType": "uint256",
          "name": "_tokenId",
          "type": "uint256"
        }
      ],
      "name": "tokenURI",
      "outputs": [
        {
          "internalType": "string",
          "name": "",
          "type": "string"
        }
      ],
      "stateMutability": "view",
      "type": "function"
    },
    {
      "inputs": [
        {
          "internalType": "address",
          "name": "_owner",
          "type": "address"
        }
      ],
      "name": "getIdsByOwner",
      "outputs": [
        {
          "internalType": "uint256[]",
          "name": "ids",
          "type": "uint256[]"
        }
      ],
      "stateMutability": "view",
      "type": "function"
    },
    {
      "inputs": [
        {
          "internalType": "bytes4",
          "name": "interfaceId",
          "type": "bytes4"
        }
      ],
      "name": "supportsInterface",
      "outputs": [
        {
          "internalType": "bool",
          "name": "",
          "type": "bool"
        }
      ],
      "stateMutability": "view",
      "type": "function"
    }
  ],
  "bytecode": "0x608034620003b257601f906001600160401b03601f196200206d3881900385810183168501848111868210176200039e57859282916040528339602094859181010312620003b257516001600160a01b03948582169391849003620003b25762000068620003b6565b94601986527f47656e65736973204e4654206f66205374616b6553746f6e6500000000000000818701526200009c620003b6565b90600582526411cb53919560da1b818301528651948486116200039e575f958654986001998a81811c9116801562000393575b858210146200037f579081878493116200032c575b508490878311600114620002cc578992620002c0575b50505f19600383901b1c191690891b1786555b8251948511620002ac5787548881811c91168015620002a1575b838210146200028d5790818587969594931162000234575b5081938511600114620001d05750508492620001c4575b50505f19600383901b1c191690841b1783555b600a5460018060a01b0319913383831617600a557f8be0079c531659141344cd1fd0a4f28419497f9722a3daafe3b4186f6b6457e0604051963393169180a3600c541617600c55600b5401600b55611c969081620003d78239f35b015190505f8062000156565b889593929193168587528387209387905b8282106200021a575050841162000201575b505050811b01835562000169565b01515f1960f88460031b161c191690555f8080620001f3565b8484015186558a97909501949384019390810190620001e1565b9091929394508887528287208580880160051c82019285891062000283575b9188978c9297969594930160051c01915b828110620002745750506200013f565b8981558897508b910162000264565b9250819262000253565b634e487b7160e01b87526022600452602487fd5b90607f169062000127565b634e487b7160e01b86526041600452602486fd5b015190505f80620000fa565b90848c9416918a8052868b20928b5b88828210620003155750508411620002fc575b505050811b0186556200010d565b01515f1960f88460031b161c191690555f8080620002ee565b8385015186558f97909501949384019301620002db565b9091508880528489208780850160051c82019287861062000375575b918d91869594930160051c01915b82811062000366575050620000e4565b8b81558594508d910162000356565b9250819262000348565b634e487b7160e01b89526022600452602489fd5b90607f1690620000cf565b634e487b7160e01b5f52604160045260245ffd5b5f80fd5b60408051919082016001600160401b038111838210176200039e5760405256fe6080806040526004361015610012575f80fd5b5f3560e01c90816301ffc9a7146110f35750806306fdde03146110d8578063081812fc146110ba578063095ea7b314610f465780630e28216614610e7d57806318160ddd14610e6057806323b872dd14610e375780632f745c5914610e1057806342842e0e14610dd85780634437152a14610d955780634e1495bf14610d415780634f6ccce714610cb05780636352211e14610c8057806370a0823114610c55578063715018a614610bfa5780637339759714610bd25780638da5cb5b14610baa57806395d89b4114610ac2578063a22cb465146109f8578063a647e8ec146107ef578063b88d4fde14610766578063c87b56dd1461023c578063e985e9c5146101ea5763f2fde38b14610124575f80fd5b346101e65760203660031901126101e65761013d6111be565b610145611291565b6001600160a01b0390811690811561019257600a80546001600160a01b031981168417909155167f8be0079c531659141344cd1fd0a4f28419497f9722a3daafe3b4186f6b6457e05f80a3005b60405162461bcd60e51b815260206004820152602660248201527f4f776e61626c653a206e6577206f776e657220697320746865207a65726f206160448201526564647265737360d01b6064820152608490fd5b5f80fd5b346101e65760403660031901126101e6576102036111be565b61020b6111d4565b9060018060a01b038091165f52600560205260405f2091165f52602052602060ff60405f2054166040519015158152f35b346101e65760203660031901126101e657600435610259816118a0565b1561072e576102666113ca565b61026f82611aca565b906102cc603c60405180947a47656e65736973204e4654206f66205374616b6553746f6e65202360281b60208301526102b2815180926020603b86019101611178565b8101601760f91b603b82015203601c810185520183611255565b604051916102d98361123a565b602183527f68747470733a2f2f6170692e7374616b6573746f6e652e696f2f6170692f6e666020840152601d60fa1b604084015261031684611aca565b935f52600d60205260405f2093604051906103308261121f565b85548252600360018060a01b036001880154169687602085015260028101546040850152015460608301526040518060408101106001600160401b0360408301111761071a5760408101604052601081526f181899199a1a9b1b9c1cb0b131b232b360811b6020820152604051966103a78861123a565b602a885260403660208a0137875115610706576030602089015387516001101561070657607860218901535f5b6014811061063b5761063761061361062360368b8b6105e28f8d605d918e6105c98f6104ec60556104058551611aca565b61041f60606104176040890151611aca565b970151611aca565b60405196879260208401996a3d9136b4b73a32b9111d1160a91b8b5261044f815180926020602b89019101611178565b84016b1116113837b4b73a39911d1160a11b602b82015261047a825180936020603785019101611178565b016e11161139ba30b93a2a34b6b2911d1160891b60378201526104a7825180936020604685019101611178565b016c11161132b7322a34b6b2911d1160991b60468201526104d2825180936020605385019101611178565b0161227d60f01b6053820152036035810186520184611255565b6040519889956020870199683d913730b6b2911d1160b91b8b5261051a81518092602060298c019101611178565b870171111610113232b9b1b934b83a34b7b7111d1160711b602982015261054b825180936020603b85019101611178565b016b11161134b6b0b3b2911d101160a11b603b820152610575825180936020604785019101611178565b01602f60f81b6047820152610594825180936020604885019101611178565b0191650b9c1b99c88b60d21b60488401526d011383937b832b93a34b2b9911d160951b604e840152518093605c840190611178565b01607d60f81b605c82015203603d810185520183611255565b6040519485927519185d184e985c1c1b1a58d85d1a5bdb8bda9cdbdb8b60521b602085015251809285850190611178565b8101036016810184520182611255565b604051918291602083526020830190611199565b0390f35b600c810181116106f2576020600c82011015610706576001600160f81b0319610670600c830184901a60041c600f1685611c4f565b5116818060011b04600214821517156106f2578160011b6002016002116106f2575f1a6106a38260011b6002018b611c4f565b536001600160f81b03196106c0600c830184901a600f1685611c4f565b5116908060011b6003016003116106f2576106ed915f1a6106e78260011b6003018c611c4f565b53611c41565b6103d4565b634e487b7160e01b5f52601160045260245ffd5b634e487b7160e01b5f52603260045260245ffd5b634e487b7160e01b5f52604160045260245ffd5b60405162461bcd60e51b815260206004820152601060248201526f125b9d985b1a5908151bdad95b88125160821b6044820152606490fd5b346101e65760803660031901126101e65761077f6111be565b6107876111d4565b606435916001600160401b0383116101e657366023840112156101e6578260040135916107b383611276565b926107c16040519485611255565b80845236602482870101116101e6576020815f9260246107ed980183880137850101526044359161151e565b005b346101e65760803660031901126101e6576108086111be565b600c546001600160a01b0390811633036109c857600b5460405161082b8161121f565b60243581526020938482019160038583169586855260408301604435815260608401916064358352875f52600d8a5260405f2094518555600185019651169560018060a01b03199687825416179055516002840155519101556001600b5401600b55831580610985576108a66108a0856118a0565b15611a7f565b600854845f52600987528060405f2055600160401b81101561071a57846108d68260016108ee9401600855611a67565b90919082549060031b91821b915f19901b1916179055565b15610954575b506109016108a0836118a0565b825f526003845260405f2060018154019055815f52600284528260405f209182541617905580604051925f7fddf252ad1be2c89b69c2b068fc378daa952ba7f163c4a11628f55a4df523b3ef8180a48152f35b61095d906112e9565b835f526006855260405f20815f5285528260405f2055825f526007855260405f2055846108f4565b6064866040519062461bcd60e51b825280600483015260248201527f4552433732313a206d696e7420746f20746865207a65726f20616464726573736044820152fd5b60405162461bcd60e51b81526020600482015260086024820152671b9bdd081c1bdbdb60c21b6044820152606490fd5b346101e65760403660031901126101e657610a116111be565b602435908115158092036101e6576001600160a01b031690338214610a8157335f52600560205260405f20825f5260205260405f2060ff1981541660ff83161790556040519081527f17307eab39ab6107e8899845ad3d59bd9653f200f220920489ca2b5937696c3160203392a3005b60405162461bcd60e51b815260206004820152601960248201527822a9219b99189d1030b8383937bb32903a379031b0b63632b960391b6044820152606490fd5b346101e6575f3660031901126101e6576040515f60019081549182811c91818416918215610ba0575b6020948585108414610b8c5785879486865291825f14610b6c575050600114610b30575b50610b1c92500383611255565b610637604051928284938452830190611199565b849150805f52815f20905f915b858310610b54575050610b1c935082010185610b0f565b80548389018501528794508693909201918101610b3d565b60ff191685820152610b1c95151560051b8501019250879150610b0f9050565b634e487b7160e01b5f52602260045260245ffd5b92607f1692610aeb565b346101e6575f3660031901126101e657600a546040516001600160a01b039091168152602090f35b346101e6575f3660031901126101e657600c546040516001600160a01b039091168152602090f35b346101e6575f3660031901126101e657610c12611291565b600a80546001600160a01b031981169091555f906001600160a01b03167f8be0079c531659141344cd1fd0a4f28419497f9722a3daafe3b4186f6b6457e08280a3005b346101e65760203660031901126101e6576020610c78610c736111be565b6112e9565b604051908152f35b346101e65760203660031901126101e6576020610c9e6004356113a5565b6040516001600160a01b039091168152f35b346101e65760203660031901126101e657600435600854811015610ce757610cd9602091611a67565b90546040519160031b1c8152f35b60405162461bcd60e51b815260206004820152602c60248201527f455243373231456e756d657261626c653a20676c6f62616c20696e646578206f60448201526b7574206f6620626f756e647360a01b6064820152608490fd5b346101e65760203660031901126101e6576004355f52600d602052608060405f2080549060018060a01b03600182015416906003600282015491015491604051938452602084015260408301526060820152f35b346101e65760203660031901126101e657610dae6111be565b610db6611291565b600c80546001600160a01b0319166001600160a01b0392909216919091179055005b346101e657610de6366111ea565b6040519160208301938385106001600160401b0386111761071a576107ed946040525f845261151e565b346101e65760403660031901126101e6576020610c78610e2e6111be565b602435906119dd565b346101e6576107ed610e48366111ea565b91610e5b610e5684336115b9565b6114bc565b61167d565b346101e6575f3660031901126101e6576020600854604051908152f35b346101e6576020806003193601126101e657610e976111be565b610ea0816112e9565b610ea981611c2a565b90610eb76040519283611255565b808252610ec381611c2a565b8285019390601f19013685375f5b828110610f1b575050509060405192839281840190828552518091526040840192915f5b828110610f0457505050500390f35b835185528695509381019392810192600101610ef5565b610f2581836119dd565b90845181101561070657610f4191878260051b87010152611c41565b610ed1565b346101e65760403660031901126101e657610f5f6111be565b602435906001600160a01b038080610f76856113a5565b1692169180831461106b5780331490811561104a575b5015610fdf575f83815260046020526040902080546001600160a01b03191683179055610fb8836113a5565b167f8c5be1e5ebec7d5bd14f71427d1e84f3dd0314c0f7b2291e5b200ac8c7c3b9255f80a4005b60405162461bcd60e51b815260206004820152603d60248201527f4552433732313a20617070726f76652063616c6c6572206973206e6f7420746f60448201527f6b656e206f776e6572206f7220617070726f76656420666f7220616c6c0000006064820152608490fd5b90505f52600560205260405f20335f5260205260ff60405f20541684610f8c565b60405162461bcd60e51b815260206004820152602160248201527f4552433732313a20617070726f76616c20746f2063757272656e74206f776e656044820152603960f91b6064820152608490fd5b346101e65760203660031901126101e6576020610c9e600435611491565b346101e6575f3660031901126101e6576106376106236113ca565b346101e65760203660031901126101e6576004359063ffffffff60e01b82168092036101e65760209163780e9d6360e01b8114908115611135575b5015158152f35b6380ac58cd60e01b811491508115611167575b8115611156575b508361112e565b6301ffc9a760e01b1490508361114f565b635b5e139f60e01b81149150611148565b5f5b8381106111895750505f910152565b818101518382015260200161117a565b906020916111b281518092818552858086019101611178565b601f01601f1916010190565b600435906001600160a01b03821682036101e657565b602435906001600160a01b03821682036101e657565b60609060031901126101e6576001600160a01b039060043582811681036101e6579160243590811681036101e6579060443590565b608081019081106001600160401b0382111761071a57604052565b606081019081106001600160401b0382111761071a57604052565b90601f801991011681019081106001600160401b0382111761071a57604052565b6001600160401b03811161071a57601f01601f191660200190565b600a546001600160a01b031633036112a557565b606460405162461bcd60e51b815260206004820152602060248201527f4f776e61626c653a2063616c6c6572206973206e6f7420746865206f776e65726044820152fd5b6001600160a01b03168015611307575f52600360205260405f205490565b60405162461bcd60e51b815260206004820152602960248201527f4552433732313a2061646472657373207a65726f206973206e6f7420612076616044820152683634b21037bbb732b960b91b6064820152608490fd5b1561136557565b60405162461bcd60e51b8152602060048201526018602482015277115490cdcc8c4e881a5b9d985b1a59081d1bdad95b88125160421b6044820152606490fd5b5f908152600260205260409020546001600160a01b03166113c781151561135e565b90565b604051905f805490600182811c90808416938415611487575b602094858410811461147357838852879493929181156114535750600114611416575b505061141492500383611255565b565b5f80805285812095935091905b81831061143b57505061141493508201015f80611406565b85548884018501529485019487945091830191611423565b91505061141494925060ff191682840152151560051b8201015f80611406565b634e487b7160e01b85526022600452602485fd5b91607f16916113e3565b6114a261149d826118a0565b61135e565b5f908152600460205260409020546001600160a01b031690565b156114c357565b60405162461bcd60e51b815260206004820152602d60248201527f4552433732313a2063616c6c6572206973206e6f7420746f6b656e206f776e6560448201526c1c881bdc88185c1c1c9bdd9959609a1b6064820152608490fd5b90611542939291611532610e5684336115b9565b61153d83838361167d565b6118bc565b1561154957565b60405162461bcd60e51b81528061156260048201611566565b0390fd5b60809060208152603260208201527f4552433732313a207472616e7366657220746f206e6f6e20455243373231526560408201527131b2b4bb32b91034b6b83632b6b2b73a32b960711b60608201520190565b906001600160a01b0380806115cd846113a5565b16931691838314938415611600575b5083156115ea575b50505090565b6115f691929350611491565b16145f80806115e4565b9093505f52600560205260405f20825f5260205260ff60405f205416925f6115dc565b1561162a57565b60405162461bcd60e51b815260206004820152602560248201527f4552433732313a207472616e736665722066726f6d20696e636f72726563742060448201526437bbb732b960d91b6064820152608490fd5b6116a19161168a846113a5565b6001600160a01b0393848416939185168414611623565b83821693841561184f578391826117ae57506008545f8781526009602052604090208190559150600160401b82101561071a57611706926116ed876108d6856001899701600855611a67565b82860361177c575b506116ff866113a5565b1614611623565b7fddf252ad1be2c89b69c2b068fc378daa952ba7f163c4a11628f55a4df523b3ef5f84815260046020526040812060018060a01b0319908181541690558382526003602052604082205f1981540190558482526040822060018154019055858252600260205284604083209182541617905580a4565b611785906112e9565b60405f87815260066020528181208382526020528882822055888152600760205220555f6116f5565b8583036117c0575b50611706926116ed565b6117cb9192506112e9565b5f198101919082116106f2576117069284925f908882526020906007825260409182842054828103611818575b508a845283838120558684526006815282842091845252812055926117b6565b878552600682528385208386528252838520548886526006835284862082875283528085872055855260078252838520555f6117f8565b60405162461bcd60e51b8152602060048201526024808201527f4552433732313a207472616e7366657220746f20746865207a65726f206164646044820152637265737360e01b6064820152608490fd5b5f908152600260205260409020546001600160a01b0316151590565b9293919290803b156119d3576119109460018060a01b039460405192839187630a85bd0160e11b9687855233600486015216602484015260448301526080606483015281806020998a956084830190611199565b03915f988991165af184918161198f575b5061197e575050503d5f14611976573d61193a81611276565b906119486040519283611255565b81528091833d92013e5b805191826119735760405162461bcd60e51b81528061156260048201611566565b01fd5b506060611952565b6001600160e01b0319161492509050565b9091508581813d83116119cc575b6119a78183611255565b810103126119c857516001600160e01b0319811681036119c857905f611921565b8480fd5b503d61199d565b5050915050600190565b6119e6816112e9565b821015611a0e5760018060a01b03165f52600660205260405f20905f5260205260405f205490565b60405162461bcd60e51b815260206004820152602b60248201527f455243373231456e756d657261626c653a206f776e657220696e646578206f7560448201526a74206f6620626f756e647360a81b6064820152608490fd5b6008548110156107065760085f5260205f2001905f90565b15611a8657565b60405162461bcd60e51b815260206004820152601c60248201527b115490cdcc8c4e881d1bdad95b88185b1c9958591e481b5a5b9d195960221b6044820152606490fd5b5f908072184f03e93ff9f4daa797ed6e38ed64bf6a1f0160401b80821015611c1c575b506904ee2d6d415b85acef8160201b80831015611c0d575b50662386f26fc1000080831015611bfe575b506305f5e10080831015611bef575b5061271080831015611be0575b506064821015611bd0575b600a80921015611bc6575b60019081602181860195611b5c87611276565b96611b6a6040519889611255565b808852611b79601f1991611276565b01366020890137860101905b611b91575b5050505090565b5f19019083906f181899199a1a9b1b9c1cb0b131b232b360811b8282061a835304918215611bc157919082611b85565b611b8a565b9160010191611b49565b9190606460029104910191611b3e565b6004919392049101915f611b33565b6008919392049101915f611b26565b6010919392049101915f611b17565b6020919392049101915f611b05565b60409350810491505f611aed565b6001600160401b03811161071a5760051b60200190565b5f1981146106f25760010190565b90815181101561070657016020019056fea2646970667358221220c5b1ac813f9a4847e219d10cf28a8d5a02f6797961bebce78f9d26ea4ba7090764736f6c63430008150033",
  "immutableReferences": {},
  "source": "// SPDX-License-Identifier: MIT\npragma solidity 0.8.21;\n\nimport {ERC721} from \"@openzeppelin/contracts/token/ERC721/ERC721.sol\";\nimport {ERC721Enumerable} from \"@openzeppelin/contracts/token/ERC721/extensions/ERC721Enumerable.sol\";\nimport {Counters} from \"@openzeppelin/contracts/utils/Counters.sol\";\nimport {Strings} from \"@openzeppelin/contracts/utils/Strings.sol\";\nimport {Ownable} from \"@openzeppelin/contracts/access/Ownable.sol\";\n\ncontract StoneNFT is ERC721, ERC721Enumerable, Ownable {\n    using Counters for Counters.Counter;\n    using Strings for uint256;\n\n    Counters.Counter private _tokenIdCounter;\n\n    address public miningPool;\n\n    mapping(uint256 => NFTDetail) public propertiesById;\n\n    struct NFTDetail {\n        uint256 points;\n        address minter;\n        uint256 startTime;\n        uint256 endTime;\n    }\n\n    constructor(address _pool) ERC721(\"Genesis NFT of StakeStone\", \"G-NFT\") {\n        miningPool = _pool;\n        _tokenIdCounter.increment();\n    }\n\n    function mint(\n        address _to,\n        uint256 _points,\n        uint256 _startTime,\n        uint256 _endTime\n    ) external returns (uint256 tokenId) {\n        require(msg.sender == miningPool, \"not pool\");\n\n        tokenId = _tokenIdCounter.current();\n        propertiesById[tokenId] = NFTDetail(_points, _to, _startTime, _endTime);\n        _tokenIdCounter.increment();\n        _mint(_to, tokenId);\n    }\n\n    function setPool(address _pool) external onlyOwner {\n        miningPool = _pool;\n    }\n\n    function tokenURI(\n        uint256 _tokenId\n    ) public view virtual override returns (string memory) {\n        require(_exists(_tokenId), \"Invalid Token ID\");\n        return\n            string(\n                abi.encodePacked(\n                    \"data:application/json,\",\n                    abi.encodePacked(\n                        '{\"name\":\"',\n                        name(),\n                        '\", \"description\":\"',\n                        description(_tokenId),\n                        '\",\"image\": \"',\n                        _baseURI(),\n                        \"/\",\n                        _tokenId.toString(),\n                        '.png\",',\n                        '\"properties\": ',\n                        properties(_tokenId),\n                        \"}\"\n                    )\n                )\n            );\n    }\n\n    function description(uint256 tokenId) internal view returns (bytes memory) {\n        return\n            abi.encodePacked(\n                \"Genesis NFT of StakeStone #\",\n                tokenId.toString(),\n                \".\"\n            );\n    }\n\n    function properties(uint256 _tokenId) internal view returns (bytes memory) {\n        NFTDetail memory detail = propertiesById[_tokenId];\n\n        bytes memory data = abi.encodePacked(\n            '{\"minter\":\"',\n            addressToString(detail.minter),\n            '\",\"points\":\"',\n            detail.points.toString(),\n            '\",\"startTime\":\"',\n            detail.startTime.toString(),\n            '\",\"endTime\":\"',\n            detail.endTime.toString(),\n            '\"}'\n        );\n\n        return data;\n    }\n\n    function getIdsByOwner(\n        address _owner\n    ) public view returns (uint256[] memory ids) {\n        uint256 count = balanceOf(_owner);\n\n        ids = new uint256[](count);\n\n        for (uint i; i < count; i++) {\n            ids[i] = tokenOfOwnerByIndex(_owner, i);\n        }\n    }\n\n    function _baseURI() internal view virtual override returns (string memory) {\n        return \"https://api.stakestone.io/api/nft\";\n    }\n\n    function supportsInterface(\n        bytes4 interfaceId\n    ) public view override(ERC721, ERC721Enumerable) returns (bool) {\n        return super.supportsInterface(interfaceId);\n    }\n\n    function _beforeTokenTransfer(\n        address from,\n        address to,\n        uint256 tokenId,\n        uint256 batchSize\n    ) internal override(ERC721, ERC721Enumerable) {\n        super._beforeTokenTransfer(from, to, tokenId, 1);\n    }\n\n    function addressToString(\n        address _addr\n    ) internal pure returns (string memory) {\n        bytes32 value = bytes32(uint256(uint160(_addr)));\n        bytes memory alphabet = \"0123456789abcdef\";\n\n        bytes memory str = new bytes(42);\n        str[0] = \"0\";\n        str[1] = \"x\";\n        for (uint256 i = 0; i < 20; i++) {\n            str[2 + i * 2] = alphabet[uint8(value[i + 12] >> 4)];\n            str[3 + i * 2] = alphabet[uint8(value[i + 12] & 0x0f)];\n        }\n        return string(str);\n    }\n}\n",
  "sourcePath": "/Users/mingyuzhang/Downloads/stone-vault-v1/contracts/mining/StoneNFT.sol",
  "compiler": {
    "name": "solc",
    "version": "0.8.21+commit.d9974bed.Emscripten.clang"
  },
  "schemaVersion": "3.4.16",
  "updatedAt": "2024-06-07T05:41:32.632Z",
  "devdoc": {
    "events": {
      "Approval(address,address,uint256)": {
        "details": "Emitted when `owner` enables `approved` to manage the `tokenId` token."
      },
      "ApprovalForAll(address,address,bool)": {
        "details": "Emitted when `owner` enables or disables (`approved`) `operator` to manage all of its assets."
      },
      "Transfer(address,address,uint256)": {
        "details": "Emitted when `tokenId` token is transferred from `from` to `to`."
      }
    },
    "kind": "dev",
    "methods": {
      "approve(address,uint256)": {
        "details": "See {IERC721-approve}."
      },
      "balanceOf(address)": {
        "details": "See {IERC721-balanceOf}."
      },
      "getApproved(uint256)": {
        "details": "See {IERC721-getApproved}."
      },
      "isApprovedForAll(address,address)": {
        "details": "See {IERC721-isApprovedForAll}."
      },
      "name()": {
        "details": "See {IERC721Metadata-name}."
      },
      "owner()": {
        "details": "Returns the address of the current owner."
      },
      "ownerOf(uint256)": {
        "details": "See {IERC721-ownerOf}."
      },
      "renounceOwnership()": {
        "details": "Leaves the contract without owner. It will not be possible to call `onlyOwner` functions. Can only be called by the current owner. NOTE: Renouncing ownership will leave the contract without an owner, thereby disabling any functionality that is only available to the owner."
      },
      "safeTransferFrom(address,address,uint256)": {
        "details": "See {IERC721-safeTransferFrom}."
      },
      "safeTransferFrom(address,address,uint256,bytes)": {
        "details": "See {IERC721-safeTransferFrom}."
      },
      "setApprovalForAll(address,bool)": {
        "details": "See {IERC721-setApprovalForAll}."
      },
      "symbol()": {
        "details": "See {IERC721Metadata-symbol}."
      },
      "tokenByIndex(uint256)": {
        "details": "See {IERC721Enumerable-tokenByIndex}."
      },
      "tokenOfOwnerByIndex(address,uint256)": {
        "details": "See {IERC721Enumerable-tokenOfOwnerByIndex}."
      },
      "totalSupply()": {
        "details": "See {IERC721Enumerable-totalSupply}."
      },
      "transferFrom(address,address,uint256)": {
        "details": "See {IERC721-transferFrom}."
      },
      "transferOwnership(address)": {
        "details": "Transfers ownership of the contract to a new account (`newOwner`). Can only be called by the current owner."
      }
    },
    "version": 1
  },
  "userdoc": {
    "kind": "user",
    "methods": {},
    "version": 1
  }
}