{
  "contractName": "StoneVault",
  "abi": [
    {
      "inputs": [
        {
          "internalType": "address",
          "name": "_minter",
          "type": "address"
        },
        {
          "internalType": "address",
          "name": "_proposal",
          "type": "address"
        },
        {
          "internalType": "address payable",
          "name": "_assetsVault",
          "type": "address"
        },
        {
          "internalType": "uint256",
          "name": "_rebaseTime",
          "type": "uint256"
        },
        {
          "internalType": "address[]",
          "name": "_strategies",
          "type": "address[]"
        },
        {
          "internalType": "uint256[]",
          "name": "_ratios",
          "type": "uint256[]"
        }
      ],
      "stateMutability": "nonpayable",
      "type": "constructor"
    },
    {
      "anonymous": false,
      "inputs": [
        {
          "indexed": true,
          "internalType": "address",
          "name": "account",
          "type": "address"
        },
        {
          "indexed": false,
          "internalType": "uint256",
          "name": "amount",
          "type": "uint256"
        },
        {
          "indexed": false,
          "internalType": "uint256",
          "name": "round",
          "type": "uint256"
        }
      ],
      "name": "CancelWithdraw",
      "type": "event"
    },
    {
      "anonymous": false,
      "inputs": [
        {
          "indexed": true,
          "internalType": "address",
          "name": "account",
          "type": "address"
        },
        {
          "indexed": false,
          "internalType": "uint256",
          "name": "amount",
          "type": "uint256"
        },
        {
          "indexed": false,
          "internalType": "uint256",
          "name": "mint",
          "type": "uint256"
        },
        {
          "indexed": false,
          "internalType": "uint256",
          "name": "round",
          "type": "uint256"
        }
      ],
      "name": "Deposit",
      "type": "event"
    },
    {
      "anonymous": false,
      "inputs": [
        {
          "indexed": true,
          "internalType": "address",
          "name": "account",
          "type": "address"
        },
        {
          "indexed": false,
          "internalType": "uint256",
          "name": "amount",
          "type": "uint256"
        }
      ],
      "name": "FeeCharged",
      "type": "event"
    },
    {
      "anonymous": false,
      "inputs": [
        {
          "indexed": true,
          "internalType": "address",
          "name": "account",
          "type": "address"
        },
        {
          "indexed": false,
          "internalType": "uint256",
          "name": "shares",
          "type": "uint256"
        },
        {
          "indexed": false,
          "internalType": "uint256",
          "name": "round",
          "type": "uint256"
        }
      ],
      "name": "InitiateWithdraw",
      "type": "event"
    },
    {
      "anonymous": false,
      "inputs": [
        {
          "indexed": true,
          "internalType": "address",
          "name": "previousOwner",
          "type": "address"
        },
        {
          "indexed": true,
          "internalType": "address",
          "name": "newOwner",
          "type": "address"
        }
      ],
      "name": "OwnershipTransferred",
      "type": "event"
    },
    {
      "anonymous": false,
      "inputs": [
        {
          "indexed": false,
          "internalType": "address[]",
          "name": "strategies",
          "type": "address[]"
        },
        {
          "indexed": false,
          "internalType": "uint256[]",
          "name": "ratios",
          "type": "uint256[]"
        }
      ],
      "name": "PortfolioConfigUpdated",
      "type": "event"
    },
    {
      "anonymous": false,
      "inputs": [
        {
          "indexed": false,
          "internalType": "uint256",
          "name": "round",
          "type": "uint256"
        },
        {
          "indexed": false,
          "internalType": "uint256",
          "name": "vaultIn",
          "type": "uint256"
        },
        {
          "indexed": false,
          "internalType": "uint256",
          "name": "vaultOut",
          "type": "uint256"
        },
        {
          "indexed": false,
          "internalType": "uint256",
          "name": "sharePrice",
          "type": "uint256"
        }
      ],
      "name": "RollToNextRound",
      "type": "event"
    },
    {
      "anonymous": false,
      "inputs": [
        {
          "indexed": false,
          "internalType": "address",
          "name": "oldAddr",
          "type": "address"
        },
        {
          "indexed": false,
          "internalType": "address",
          "name": "newAddr",
          "type": "address"
        }
      ],
      "name": "SetFeeRecipient",
      "type": "event"
    },
    {
      "anonymous": false,
      "inputs": [
        {
          "indexed": false,
          "internalType": "uint256",
          "name": "interval",
          "type": "uint256"
        }
      ],
      "name": "SetRebaseInterval",
      "type": "event"
    },
    {
      "anonymous": false,
      "inputs": [
        {
          "indexed": false,
          "internalType": "uint256",
          "name": "oldRate",
          "type": "uint256"
        },
        {
          "indexed": false,
          "internalType": "uint256",
          "name": "newRate",
          "type": "uint256"
        }
      ],
      "name": "SetWithdrawFeeRate",
      "type": "event"
    },
    {
      "anonymous": false,
      "inputs": [
        {
          "indexed": false,
          "internalType": "address",
          "name": "strategy",
          "type": "address"
        }
      ],
      "name": "StragetyAdded",
      "type": "event"
    },
    {
      "anonymous": false,
      "inputs": [
        {
          "indexed": false,
          "internalType": "address",
          "name": "strategy",
          "type": "address"
        }
      ],
      "name": "StragetyCleared",
      "type": "event"
    },
    {
      "anonymous": false,
      "inputs": [
        {
          "indexed": false,
          "internalType": "address",
          "name": "strategy",
          "type": "address"
        }
      ],
      "name": "StragetyDestroyed",
      "type": "event"
    },
    {
      "anonymous": false,
      "inputs": [
        {
          "indexed": true,
          "internalType": "address",
          "name": "account",
          "type": "address"
        },
        {
          "indexed": false,
          "internalType": "uint256",
          "name": "amount",
          "type": "uint256"
        },
        {
          "indexed": false,
          "internalType": "uint256",
          "name": "round",
          "type": "uint256"
        }
      ],
      "name": "Withdrawn",
      "type": "event"
    },
    {
      "anonymous": false,
      "inputs": [
        {
          "indexed": true,
          "internalType": "address",
          "name": "account",
          "type": "address"
        },
        {
          "indexed": false,
          "internalType": "uint256",
          "name": "amount",
          "type": "uint256"
        },
        {
          "indexed": false,
          "internalType": "uint256",
          "name": "actualAmount",
          "type": "uint256"
        },
        {
          "indexed": false,
          "internalType": "uint256",
          "name": "round",
          "type": "uint256"
        }
      ],
      "name": "WithdrawnFromStrategy",
      "type": "event"
    },
    {
      "inputs": [],
      "name": "VERSION",
      "outputs": [
        {
          "internalType": "uint256",
          "name": "",
          "type": "uint256"
        }
      ],
      "stateMutability": "view",
      "type": "function"
    },
    {
      "inputs": [],
      "name": "assetsVault",
      "outputs": [
        {
          "internalType": "address payable",
          "name": "",
          "type": "address"
        }
      ],
      "stateMutability": "view",
      "type": "function"
    },
    {
      "inputs": [],
      "name": "feeRecipient",
      "outputs": [
        {
          "internalType": "address",
          "name": "",
          "type": "address"
        }
      ],
      "stateMutability": "view",
      "type": "function"
    },
    {
      "inputs": [],
      "name": "latestRoundID",
      "outputs": [
        {
          "internalType": "uint256",
          "name": "",
          "type": "uint256"
        }
      ],
      "stateMutability": "view",
      "type": "function"
    },
    {
      "inputs": [],
      "name": "minter",
      "outputs": [
        {
          "internalType": "address",
          "name": "",
          "type": "address"
        }
      ],
      "stateMutability": "view",
      "type": "function"
    },
    {
      "inputs": [],
      "name": "owner",
      "outputs": [
        {
          "internalType": "address",
          "name": "",
          "type": "address"
        }
      ],
      "stateMutability": "view",
      "type": "function"
    },
    {
      "inputs": [],
      "name": "proposal",
      "outputs": [
        {
          "internalType": "address",
          "name": "",
          "type": "address"
        }
      ],
      "stateMutability": "view",
      "type": "function"
    },
    {
      "inputs": [],
      "name": "rebaseTime",
      "outputs": [
        {
          "internalType": "uint256",
          "name": "",
          "type": "uint256"
        }
      ],
      "stateMutability": "view",
      "type": "function"
    },
    {
      "inputs": [],
      "name": "rebaseTimeInterval",
      "outputs": [
        {
          "internalType": "uint256",
          "name": "",
          "type": "uint256"
        }
      ],
      "stateMutability": "view",
      "type": "function"
    },
    {
      "inputs": [],
      "name": "renounceOwnership",
      "outputs": [],
      "stateMutability": "nonpayable",
      "type": "function"
    },
    {
      "inputs": [
        {
          "internalType": "uint256",
          "name": "",
          "type": "uint256"
        }
      ],
      "name": "roundPricePerShare",
      "outputs": [
        {
          "internalType": "uint256",
          "name": "",
          "type": "uint256"
        }
      ],
      "stateMutability": "view",
      "type": "function"
    },
    {
      "inputs": [
        {
          "internalType": "uint256",
          "name": "",
          "type": "uint256"
        }
      ],
      "name": "settlementTime",
      "outputs": [
        {
          "internalType": "uint256",
          "name": "",
          "type": "uint256"
        }
      ],
      "stateMutability": "view",
      "type": "function"
    },
    {
      "inputs": [],
      "name": "stone",
      "outputs": [
        {
          "internalType": "address",
          "name": "",
          "type": "address"
        }
      ],
      "stateMutability": "view",
      "type": "function"
    },
    {
      "inputs": [],
      "name": "strategyController",
      "outputs": [
        {
          "internalType": "address payable",
          "name": "",
          "type": "address"
        }
      ],
      "stateMutability": "view",
      "type": "function"
    },
    {
      "inputs": [
        {
          "internalType": "address",
          "name": "newOwner",
          "type": "address"
        }
      ],
      "name": "transferOwnership",
      "outputs": [],
      "stateMutability": "nonpayable",
      "type": "function"
    },
    {
      "inputs": [
        {
          "internalType": "address",
          "name": "",
          "type": "address"
        }
      ],
      "name": "userReceipts",
      "outputs": [
        {
          "internalType": "uint256",
          "name": "withdrawRound",
          "type": "uint256"
        },
        {
          "internalType": "uint256",
          "name": "withdrawShares",
          "type": "uint256"
        },
        {
          "internalType": "uint256",
          "name": "withdrawableAmount",
          "type": "uint256"
        }
      ],
      "stateMutability": "view",
      "type": "function"
    },
    {
      "inputs": [],
      "name": "withdrawFeeRate",
      "outputs": [
        {
          "internalType": "uint256",
          "name": "",
          "type": "uint256"
        }
      ],
      "stateMutability": "view",
      "type": "function"
    },
    {
      "inputs": [],
      "name": "withdrawableAmountInPast",
      "outputs": [
        {
          "internalType": "uint256",
          "name": "",
          "type": "uint256"
        }
      ],
      "stateMutability": "view",
      "type": "function"
    },
    {
      "inputs": [],
      "name": "withdrawingSharesInPast",
      "outputs": [
        {
          "internalType": "uint256",
          "name": "",
          "type": "uint256"
        }
      ],
      "stateMutability": "view",
      "type": "function"
    },
    {
      "inputs": [],
      "name": "withdrawingSharesInRound",
      "outputs": [
        {
          "internalType": "uint256",
          "name": "",
          "type": "uint256"
        }
      ],
      "stateMutability": "view",
      "type": "function"
    },
    {
      "stateMutability": "payable",
      "type": "receive"
    },
    {
      "inputs": [],
      "name": "deposit",
      "outputs": [
        {
          "internalType": "uint256",
          "name": "mintAmount",
          "type": "uint256"
        }
      ],
      "stateMutability": "payable",
      "type": "function"
    },
    {
      "inputs": [
        {
          "internalType": "address",
          "name": "_user",
          "type": "address"
        }
      ],
      "name": "depositFor",
      "outputs": [
        {
          "internalType": "uint256",
          "name": "mintAmount",
          "type": "uint256"
        }
      ],
      "stateMutability": "payable",
      "type": "function"
    },
    {
      "inputs": [
        {
          "internalType": "uint256",
          "name": "_shares",
          "type": "uint256"
        }
      ],
      "name": "requestWithdraw",
      "outputs": [],
      "stateMutability": "nonpayable",
      "type": "function"
    },
    {
      "inputs": [
        {
          "internalType": "uint256",
          "name": "_shares",
          "type": "uint256"
        }
      ],
      "name": "cancelWithdraw",
      "outputs": [],
      "stateMutability": "nonpayable",
      "type": "function"
    },
    {
      "inputs": [
        {
          "internalType": "uint256",
          "name": "_amount",
          "type": "uint256"
        },
        {
          "internalType": "uint256",
          "name": "_shares",
          "type": "uint256"
        }
      ],
      "name": "instantWithdraw",
      "outputs": [
        {
          "internalType": "uint256",
          "name": "actualWithdrawn",
          "type": "uint256"
        }
      ],
      "stateMutability": "nonpayable",
      "type": "function"
    },
    {
      "inputs": [],
      "name": "rollToNextRound",
      "outputs": [],
      "stateMutability": "nonpayable",
      "type": "function"
    },
    {
      "inputs": [
        {
          "internalType": "address",
          "name": "_strategy",
          "type": "address"
        }
      ],
      "name": "addStrategy",
      "outputs": [],
      "stateMutability": "nonpayable",
      "type": "function"
    },
    {
      "inputs": [
        {
          "internalType": "address",
          "name": "_strategy",
          "type": "address"
        }
      ],
      "name": "destroyStrategy",
      "outputs": [],
      "stateMutability": "nonpayable",
      "type": "function"
    },
    {
      "inputs": [
        {
          "internalType": "address",
          "name": "_strategy",
          "type": "address"
        }
      ],
      "name": "clearStrategy",
      "outputs": [],
      "stateMutability": "nonpayable",
      "type": "function"
    },
    {
      "inputs": [
        {
          "internalType": "address[]",
          "name": "_strategies",
          "type": "address[]"
        },
        {
          "internalType": "uint256[]",
          "name": "_ratios",
          "type": "uint256[]"
        }
      ],
      "name": "updatePortfolioConfig",
      "outputs": [],
      "stateMutability": "nonpayable",
      "type": "function"
    },
    {
      "inputs": [
        {
          "internalType": "address",
          "name": "_proposal",
          "type": "address"
        }
      ],
      "name": "updateProposal",
      "outputs": [],
      "stateMutability": "nonpayable",
      "type": "function"
    },
    {
      "inputs": [],
      "name": "currentSharePrice",
      "outputs": [
        {
          "internalType": "uint256",
          "name": "price",
          "type": "uint256"
        }
      ],
      "stateMutability": "nonpayable",
      "type": "function"
    },
    {
      "inputs": [],
      "name": "getVaultAvailableAmount",
      "outputs": [
        {
          "internalType": "uint256",
          "name": "idleAmount",
          "type": "uint256"
        },
        {
          "internalType": "uint256",
          "name": "investedAmount",
          "type": "uint256"
        }
      ],
      "stateMutability": "nonpayable",
      "type": "function"
    },
    {
      "inputs": [
        {
          "internalType": "uint256",
          "name": "_withdrawFeeRate",
          "type": "uint256"
        }
      ],
      "name": "setWithdrawFeeRate",
      "outputs": [],
      "stateMutability": "nonpayable",
      "type": "function"
    },
    {
      "inputs": [
        {
          "internalType": "address",
          "name": "_feeRecipient",
          "type": "address"
        }
      ],
      "name": "setFeeRecipient",
      "outputs": [],
      "stateMutability": "nonpayable",
      "type": "function"
    },
    {
      "inputs": [
        {
          "internalType": "uint256",
          "name": "_interval",
          "type": "uint256"
        }
      ],
      "name": "setRebaseInterval",
      "outputs": [],
      "stateMutability": "nonpayable",
      "type": "function"
    }
  ],
  "bytecode": "0x61010060409080825234620004c357620042888038038091620000238285620004e2565b833981019060c081830312620004c3576200003e816200051a565b906200004d602082016200051a565b81850151909390916001600160a01b0383168303620004c357606081015160808201516001600160401b038111620004c357820183601f82011215620004c3578051926200009b846200052f565b91620000aa8a519384620004e2565b848352602083016020819660051b83010191878311620004c357602001905b828210620004c75750505060a0810151906001600160401b038211620004c357019184601f84011215620004c35782519462000105866200052f565b93620001148b519586620004e2565b86855260208501906020829860051b820101928311620004c357602001905b828210620004b257505060015f8181558154336001600160a01b031982168117909355909a92506001600160a01b03167f8be0079c531659141344cd1fd0a4f28419497f9722a3daafe3b4186f6b6457e08b80a3620151806002556001600160a01b03881697881515806200049f575b806200048c575b620001b59062000547565b83518a5b81811062000427575050608052600380546001600160a01b03929092166001600160a01b031992831617905560e087905260048054339216919091179055600a558751946118a780870192908784106001600160401b0385111762000413579087969594939291620029e18839606083019160018060a01b031683526060602084015251809152608082019390895b818110620003f05750505090818960209385039101525191828152019190865b818110620003d657505050039083f08015620003cc576001600160a01b031660c0528251630167eb8560e01b815290602090829060049082905afa908115620003cc57829162000386575b5060a052808052600b602052670de0b6b3a7640000828220556005555161245d90816200058482396080518181816106ed015281816110b501528181611a860152611dc2015260a051818181610d5e015281816110d901528181611aca0152612015015260c0518181816102e1015281816109b201528181610fa901528181611401015281816115830152818161191e01528181611b0d015281816120ba0152612288015260e0518181816106c901528181610f4b015281816115c301528181611d740152818161207001526122290152f35b90506020813d602011620003c3575b81620003a460209383620004e2565b81010312620003bf57620003b8906200051a565b5f620002b3565b5080fd5b3d915062000395565b83513d84823e3d90fd5b825184528594506020938401939092019160010162000268565b82516001600160a01b031686528897506020958601959092019160010162000248565b634e487b7160e01b8a52604160045260248afd5b85518110156200047857600581901b86016020015162000452906001600160a01b0316151562000547565b5f1981146200046457600101620001b9565b634e487b7160e01b8c52601160045260248cfd5b634e487b7160e01b8c52603260045260248cfd5b506001600160a01b0388161515620001aa565b506001600160a01b0382161515620001a3565b815181526020918201910162000133565b5f80fd5b60208091620004d6846200051a565b815201910190620000c9565b601f909101601f19168101906001600160401b038211908210176200050657604052565b634e487b7160e01b5f52604160045260245ffd5b51906001600160a01b0382168203620004c357565b6001600160401b038111620005065760051b60200190565b156200054f57565b60405162461bcd60e51b815260206004820152600c60248201526b5a45524f204144445245535360a01b6044820152606490fdfe6080604081815260049182361015610021575b505050361561001f575f80fd5b005b5f92833560e01c918262258d6b14611af9575081630167eb8514611ab55781630754617214611a71578163096015b0146119de578163223e5479146118e857816324f3082a146118c957816328a79576146118a55781633c49fc0f1461187d57816346904840146118555781635069fb571461155057816351b77fb31461153157816360e760d514611512578163715018a6146114b55781637155133614611496578163717dd445146113d2578163745400c914611067578163753ec1031461103e578163768aac5d14610f7a5781637b0c1f2914610f3657816382f1631f14610f0f57816387153eb114610ee75781638da5cb5b14610ebe5781639f01f7ba14610ccd578163a4786f3d14610c7e578163aa67c91914610c51578163b18f2e9114610686578163d0e30db014610659578163e74b981b146105af578163e8ac623a14610563578163ea99e68914610544578163ef037fb9146104bd578163f2fde38b146103f7578163f76339dc146103d8578163fccbebf5146101f757508063fe735117146101d95763ffa1ad74146101bb5780610012565b346101d557816003193601126101d5576020905160018152f35b5080fd5b50346101d557816003193601126101d5576020906006549051908152f35b90503461039357816003193601126103935780356001600160401b03918282116103d457366023830112156103d4578181013561023381611bb0565b9261024086519485611b8f565b81845260209160248386019160051b830101913683116103a957602401905b8282106103b1575050506024359384116103ad57366023850112156103ad57838201359361028c85611bb0565b9461029987519687611b8f565b80865260248387019160051b830101913683116103a957906024899594939201905b8282106103975750506003546001600160a01b0392506102df915082163314611f40565b7f000000000000000000000000000000000000000000000000000000000000000016803b1561039357848391858361032b958a5196879586948593633fea70a760e01b85528401611f7b565b03925af1801561038957610371575b505061036b7fb08ed47ad81ee926c18b77f6be44a5d49bf687355a669936e1f02cfe4e2c84f7935192839283611f7b565b0390a180f35b61037a90611b68565b61038557835f61033a565b8380fd5b85513d84823e3d90fd5b8280fd5b813581528995509083019083016102bb565b8880fd5b8580fd5b81356001600160a01b03811681036103d057815290830190830161025f565b5f80fd5b8480fd5b5050346101d557816003193601126101d5576020906005549051908152f35b90503461039357602036600319011261039357610412611b3c565b9061041b611bc7565b6001600160a01b0391821692831561046b575050600180546001600160a01b031981168417909155167f8be0079c531659141344cd1fd0a4f28419497f9722a3daafe3b4186f6b6457e05f80a380f35b906020608492519162461bcd60e51b8352820152602660248201527f4f776e61626c653a206e6577206f776e657220697320746865207a65726f206160448201526564647265737360d01b6064820152fd5b91905034610393576020366003190112610393578135916104dc611bc7565b62093a8083116105185750816020917f73b75c75399b0450cd07a0e5188f0e06ce9e484fea18044b25e0326feb8e0e2a9360025551908152a180f35b6020606492519162461bcd60e51b835282015260076024820152661a5b9d985b1a5960ca1b6044820152fd5b5050346101d557816003193601126101d5576020906009549051908152f35b83346105ac5760203660031901126105ac5761057d611b3c565b600354906001600160a01b03906105978284163314611f40565b6001600160a01b031990921691161760035580f35b80fd5b91905034610393576020366003190112610393576105cb611b3c565b6105d3611bc7565b6001600160a01b03908116918215610628577fd9d6b85b6d670cd443496fc6d03390f739bbff47f96a8e33fb0cdd52ad26f5c29084549281519084168152846020820152a16001600160a01b03191617905580f35b5162461bcd60e51b8152602081850152600c60248201526b7a65726f206164647265737360a01b6044820152606490fd5b5050816003193601126101d55790602091610672611c1f565b600161067e3334611d18565b925551908152f35b8383346101d557806003193601126101d557823591602435936106a7611c1f565b819380159586158097610c48575b6106be90611c73565b6001600160a01b03967f00000000000000000000000000000000000000000000000000000000000000008816927f0000000000000000000000000000000000000000000000000000000000000000891690610717612207565b5092610ad5575b50826108d7575b50508451629032ff60e51b8152602097915087818581865afa9081156108675790879186916108a6575b50106108715783600954806107ce575b5061076b915086611cab565b91813b15610385579183916107969383875180968195829463f3fef3a360e01b845233908401611cfd565b03925af180156107c4576107b0575b506001905551908152f35b6107ba8291611b68565b6105ac57846107a5565b83513d84823e3d90fd5b620f424091506107de9088611ccc565b0490835416823b156103d4578482610809928851938492839263f3fef3a360e01b8452898401611cfd565b038183875af1801561086757908591610853575b505061076b9085518181527f55bb3cade9d43b798a4fe5ffdd05024b2d7870df53920673bfc7e68047cd0ab1893392a28861075f565b61085c90611b68565b61038557838861081d565b86513d87823e3d90fd5b845162461bcd60e51b8152808401889052600f60248201526e1cdd1a5b1b081b995959081dd85a5d608a1b6044820152606490fd5b809250898092503d83116108d0575b6108bf8183611b8f565b810103126103d0578690518961074f565b503d6108b5565b600554929792610a88576108f4670de0b6b3a76400005b896123a3565b97813b15610a845761091e879283928a51948580948193632770a7eb60e21b8352338d8401611cfd565b03925af18015610a7a578892918791610a61575b5050808211610981575061094591611edd565b94600554855191825260208201527f92ccf450a286a957af52509bc1c9939d1a6a481783e142e41e2499f0bb66ebc6853392a25b868080610725565b90506109908161099693611edd565b96611cab565b8451630fcc56f760e01b815283810182905295602087602481887f00000000000000000000000000000000000000000000000000000000000000008d165af1968715610867578597610a2c575b50610a0f877f1b84e2f0660a601edc93ceed0d08fa5e9b3cbe4e2450c262f2ea8531d2c52e9592611edd565b9660055490610a248851928392339684611b52565b0390a2610979565b9096506020813d8211610a59575b81610a4760209383611b8f565b810103126103d0575195610a0f6109e3565b3d9150610a3a565b610a6d91929350611b68565b6103d4578690858a610932565b87513d88823e3d90fd5b8680fd5b610a90611ff4565b6005545f198101908111610ac2578752600b602052878720546108f49180821015610abb57506108ee565b90506108ee565b634e487b7160e01b885260118752602488fd5b9750338652600d602052868620805460055481141580610c3f575b610b8f575b506002018054898110610b565789610b0c91611cab565b9055610b1a88600654611cab565b60065587600554885191825260208201527f92ccf450a286a957af52509bc1c9939d1a6a481783e142e41e2499f0bb66ebc6883392a28961071e565b885162461bcd60e51b8152602081890152601360248201527265786365656420776974686472617761626c6560681b6044820152606490fd5b600182018054918952600b602052610baa8a8a2054836123a3565b91843b15610c3b578a51632770a7eb60e21b8152939291908a9085908190610bd590308e8401611cfd565b038183895af18015610c3157908a91610c18575b60029450610bfb600754825490611cab565b60075555610c0d838301918254611edd565b905587815590610af5565b919293610c2490611b68565b6103a95790888392610be9565b8b513d8c823e3d90fd5b8980fd5b50801515610af0565b508015156106b5565b505060203660031901126101d55790602091600161067e610c70611b3c565b610c78611c1f565b34611d18565b5050346101d55760203660031901126101d5579081906001600160a01b03610ca4611b3c565b168152600d6020522090610cc982549160026001850154940154905193849384611b52565b0390f35b919050346103935760208060031936011261038557823592610ced611c1f565b610cf8841515611c73565b338552600d825282852090815460055403610e855760018201908154868110610e485786610d2591611cab565b8255868086518681019063a9059cbb60e01b8252610d5981610d4b8c3360248401611cfd565b03601f198101835282611b8f565b5190827f00000000000000000000000000000000000000000000000000000000000000005af1610d87611eea565b81610e18575b5015610df057507f39e2e01794006bc1f63835af5c05db790beca4bfb40de3f02cc3ddf22dccc0fb93929186915415610de8575b5050610dcf84600854611cab565b6008556005549082519485528401523392a26001815580f35b55845f610dc1565b845162461bcd60e51b8152908101849052600260248201526114d560f21b6044820152606490fd5b80518015925086908315610e30575b5050505f610d8d565b610e409350820181019101611f28565b5f8581610e27565b855162461bcd60e51b815280830186905260176024820152766578636565642070656e64696e6720776974686472617760481b6044820152606490fd5b835162461bcd60e51b815290810183905260136024820152726e6f2070656e64696e6720776974686472617760681b6044820152606490fd5b5050346101d557816003193601126101d55760015490516001600160a01b039091168152602090f35b905034610393576020366003190112610393576020928291358152600b845220549051908152f35b8284346105ac57806003193601126105ac5750610f2a612207565b82519182526020820152f35b5050346101d557816003193601126101d557517f00000000000000000000000000000000000000000000000000000000000000006001600160a01b03168152602090f35b919050346103935760203660031901126103935782610f97611b3c565b610f9f611bc7565b6001600160a01b037f000000000000000000000000000000000000000000000000000000000000000081169190823b156103855760248492838751958694859363768aac5d60e01b855216809a8401525af180156107c45761102a575b507f700c330a34830acb29f2b4927829f605fae4e5b7197df45a7973d246039e1e016020848451908152a180f35b61103390611b68565b61039357825f610ffc565b5050346101d557816003193601126101d55760035490516001600160a01b039091168152602090f35b905034610393576020918260031936011261038557813592611087611c1f565b611092841515611c73565b600554156113955781516370a0823160e01b815233848201526001600160a01b037f00000000000000000000000000000000000000000000000000000000000000008116917f00000000000000000000000000000000000000000000000000000000000000009184908290602490829086165afa90811561138b57908791899161135a575b5010611326578351838101906323b872dd60e01b82523360248201523060448201528760648201526064815260a081018181106001600160401b0382111761131357865251889283929083905af161116d611eea565b816112e3575b50156112bb5761118585600854611edd565b600855338652600d8252828620908682549160055483145f146111dc575050505f8051602061240883398151915293506001016111c3858254611edd565b90555b6005549082519485528401523392a26001815580f35b82611204575050505f80516020612408833981519152935084600182015560055490556111c6565b60018401968754938352600b865261121f87842054856123a3565b93823b1561038557611249928492838a51809681958294632770a7eb60e21b845230908401611cfd565b03925af180156112b1579088929161129a575b50505f805160206124088339815191529561127b600754825490611cab565b6007555561128e60028301918254611edd565b905560055490556111c6565b6112a5919250611b68565b610a845785875f61125c565b86513d84823e3d90fd5b50905162461bcd60e51b815291820152600360248201526229aa2360e91b6044820152606490fd5b805180159250849083156112fb575b5050505f611173565b61130b9350820181019101611f28565b5f83816112f2565b604188634e487b7160e01b5f525260245ffd5b835162461bcd60e51b8152808601849052600e60248201526d6578636565642062616c616e636560901b6044820152606490fd5b809250858092503d8311611384575b6113738183611b8f565b810103126103d0578690515f611117565b503d611369565b85513d8a823e3d90fd5b905162461bcd60e51b815291820152601960248201527873686f756c6420776974686472617720696e7374616e746c7960381b6044820152606490fd5b9190503461039357602036600319011261039357826113ef611b3c565b6113f7611bc7565b6001600160a01b037f000000000000000000000000000000000000000000000000000000000000000081169190823b156103855760248492838751958694859363717dd44560e01b855216809a8401525af180156107c457611482575b507feed65fb1c2451c54bb6eb3a6f3fe2fbe77ffd432b1f447c171237f36b89472026020848451908152a180f35b61148b90611b68565b61039357825f611454565b5050346101d557816003193601126101d5576020906002549051908152f35b83346105ac57806003193601126105ac576114ce611bc7565b600180546001600160a01b031981169091555f906001600160a01b03167f8be0079c531659141344cd1fd0a4f28419497f9722a3daafe3b4186f6b6457e08280a380f35b5050346101d557816003193601126101d5576020906008549051908152f35b5050346101d557816003193601126101d5576020906007549051908152f35b8383346101d557816003193601126101d557611571600a5460025490611edd565b421115611821576001600160a01b03907f000000000000000000000000000000000000000000000000000000000000000082166115ac611ff4565b9180518094629032ff60e51b8252818860209788937f0000000000000000000000000000000000000000000000000000000000000000165afa9081156118175786916117ea575b5061160b611603856008546123a3565b600654611edd565b8251631e83af4360e31b8152939086858a818b865af19485156117e05788956117b1575b50879288958282115f146117795750611649929350611cab565b905b803b15610a8457868260448a8387519586948593630ecc3e7160e21b85528401528960248401525af1801561176f5790879161175b575b505061168c611ff4565b9384811015611754575b6005548752600b8652828720556005548652600c85524282872055600554946001860195868111611741579160809593916117228896947fd2792f2bd70f462289b37051570ea123ec2faa689d0966f04ea499497c47aea49960055561171c6007546117056008548092611edd565b600755600654928d52600b8552868d2054906123a3565b90611edd565b6006558860085542600a5582519586528501528301526060820152a180f35b634e487b7160e01b885260118952602488fd5b5083611696565b61176490611b68565b6103ad578588611682565b83513d89823e3d90fd5b91806117858484611edd565b10611793575b50505061164b565b6117a8939650906117a391611cab565b611cab565b9288808061178b565b9094508681813d83116117d9575b6117c98183611b8f565b810103126103d05751938961162f565b503d6117bf565b84513d8a823e3d90fd5b90508481813d8311611810575b6118018183611b8f565b810103126103d05751876115f3565b503d6117f7565b82513d88823e3d90fd5b5162461bcd60e51b8152602081840152600f60248201526e185b1c9958591e481c9958985cd959608a1b6044820152606490fd5b9050346103935782600319360112610393575490516001600160a01b03909116815260209150f35b905034610393576020366003190112610393576020928291358152600c845220549051908152f35b5050346101d557816003193601126101d5576020906118c2611ff4565b9051908152f35b5050346101d557816003193601126101d557602090600a549051908152f35b9190503461039357602036600319011261039357611904611b3c565b8360018060a01b0361191b81600354163314611f40565b807f00000000000000000000000000000000000000000000000000000000000000001692833b1561039357602490838651958694859363223e547960e01b85521680998401525af180156119d45761199c575b507f75ccacf0275778be70cc58a56b78401d8e60a7c1e153fd4338738dd08f26605e9160209151908152a180f35b91602091936119cb7f75ccacf0275778be70cc58a56b78401d8e60a7c1e153fd4338738dd08f26605e94611b68565b9391509161196e565b82513d86823e3d90fd5b91905034610393576020366003190112610393578135916119fd611bc7565b6127108311611a3e57507f4b3c5e4d7a59d85563d40eacdce201f42b27dd0f184fc2aef47c140a9775617d906009548151908152836020820152a160095580f35b6020606492519162461bcd60e51b8352820152600e60248201526d657863656564206d6178696d756d60901b6044820152fd5b5050346101d557816003193601126101d557517f00000000000000000000000000000000000000000000000000000000000000006001600160a01b03168152602090f35b5050346101d557816003193601126101d557517f00000000000000000000000000000000000000000000000000000000000000006001600160a01b03168152602090f35b8490346101d557816003193601126101d5577f00000000000000000000000000000000000000000000000000000000000000006001600160a01b03168152602090f35b600435906001600160a01b03821682036103d057565b6040919493926060820195825260208201520152565b6001600160401b038111611b7b57604052565b634e487b7160e01b5f52604160045260245ffd5b90601f801991011681019081106001600160401b03821117611b7b57604052565b6001600160401b038111611b7b5760051b60200190565b6001546001600160a01b03163303611bdb57565b606460405162461bcd60e51b815260206004820152602060248201527f4f776e61626c653a2063616c6c6572206973206e6f7420746865206f776e65726044820152fd5b60025f5414611c2e5760025f55565b60405162461bcd60e51b815260206004820152601f60248201527f5265656e7472616e637947756172643a207265656e7472616e742063616c6c006044820152606490fd5b15611c7a57565b60405162461bcd60e51b81526020600482015260096024820152681d1bdbc81cdb585b1b60ba1b6044820152606490fd5b91908203918211611cb857565b634e487b7160e01b5f52601160045260245ffd5b81810292918115918404141715611cb857565b8115611ce9570490565b634e487b7160e01b5f52601260045260245ffd5b6001600160a01b039091168152602081019190915260400190565b9190915f8115611d288115611c73565b611d30611ff4565b60055480611e9a575050670de0b6b3a7640000905b670de0b6b3a76400009081850291858304141715611e865790611d6791611cdf565b936001600160a01b0391477f00000000000000000000000000000000000000000000000000000000000000008416803b15610393578290600460405180948193630d0e30db60e41b83525af18015611e6c57611e77575b50827f000000000000000000000000000000000000000000000000000000000000000016803b156101d5578160405180926340c10f1960e01b8252818381611e0a8d8a60048401611cfd565b03925af18015611e6c57611e58575b5050907f36af321ec8d3c75236829c5317affd40ddb308863a1236d2d277a4025cccee1e91611e5360055487604051948594169684611b52565b0390a2565b611e628291611b68565b6105ac5780611e19565b6040513d84823e3d90fd5b611e8090611b68565b5f611dbe565b634e487b7160e01b83526011600452602483fd5b5f198101908111611ec9578352600b60205260408320549080821115611ec257505b90611d45565b9050611ebc565b634e487b7160e01b84526011600452602484fd5b91908201809211611cb857565b3d15611f23573d906001600160401b038211611b7b5760405191611f18601f8201601f191660200184611b8f565b82523d5f602084013e565b606090565b908160209103126103d0575180151581036103d05790565b15611f4757565b60405162461bcd60e51b815260206004820152600c60248201526b1b9bdd081c1c9bdc1bdcd85b60a21b6044820152606490fd5b604081019060408152825180925260608101916020809401905f5b818110611fd757505050828183039101528180845192838152019301915f5b828110611fc3575050505090565b835185529381019392810192600101611fb5565b82516001600160a01b031685529385019391850191600101611f96565b604080516318160ddd60e01b8152906001600160a01b0390602080846004817f000000000000000000000000000000000000000000000000000000000000000087165afa9384156121fd575f946121ce575b506005541580156121c6575b80156121bb575b6121ab578151629032ff60e51b81529281846004817f000000000000000000000000000000000000000000000000000000000000000085165afa9384156121a1575f94612172575b5090805f926004855180958193634e920f3d60e11b83527f0000000000000000000000000000000000000000000000000000000000000000165af192831561216957505f92612136575b50506120fd6121069161211093611edd565b60065490611cab565b9160075490611cab565b670de0b6b3a764000091828102928184041490151715611cb85761213391611cdf565b90565b81819392933d8311612162575b61214d8183611b8f565b810103126105ac5750516120fd6121106120eb565b503d612143565b513d5f823e3d90fd5b90938282813d831161219a575b6121898183611b8f565b810103126105ac57505192816120a1565b503d61217f565b83513d5f823e3d90fd5b50505050670de0b6b3a764000090565b506007548414612059565b508315612052565b90938482813d83116121f6575b6121e58183611b8f565b810103126105ac575051925f612046565b503d6121db565b82513d5f823e3d90fd5b60408051629032ff60e51b8082525f93929184916020916001600160a01b03917f00000000000000000000000000000000000000000000000000000000000000008316908483600481855afa928315610a7a578693612374575b506006548093116122fb575b50505090808392600486518096819363f837df2560e01b83527f0000000000000000000000000000000000000000000000000000000000000000165af19384156122f0575081936122bf575b50505090565b9091809350813d83116122e9575b6122d78183611b8f565b810103126105ac5750515f80806122b9565b503d6122cd565b51913d9150823e3d90fd5b849192939850600487518094819382525afa90811561236a5790849392918491612335575b50829161232c91611cab565b9691925f61226d565b8380955081939492503d8311612363575b6123508183611b8f565b8101031261038557518392919082612320565b503d612346565b85513d86823e3d90fd5b9092508481813d831161239c575b61238c8183611b8f565b810103126103ad5751915f612261565b503d612382565b60018211156123c357670de0b6b3a7640000916123bf91611ccc565b0490565b606460405162461bcd60e51b815260206004820152602060248201527f5661756c74204c69623a20696e76616c696420617373657450657253686172656044820152fdfe0c53c82ad07e2d592d88ece3b066777dd60f1118e2a081b380efc4358f0d9e2aa2646970667358221220ebd879b3b561895cab946a4b15b0ea0ec436e56ee945e60ca66cac6edd88d33f64736f6c63430008150033604060a0815234620002a957620018a7803803806200001e81620002c7565b928339810190606081830312620002a95780516001600160a01b03808216939091848103620002a9576020848101519095906001600160401b0390818111620002a95786019584601f88011215620002a95786519662000088620000828962000301565b620002c7565b9789808a838152019160051b83010191878311620002a9578a01905b828210620002ad5750505088810151918211620002a957019280601f85011215620002a9578351620000da620000828262000301565b94888087848152019260051b820101928311620002a95788809101915b8383106200029857505050506200011090151562000319565b83515f5b8181106200026c5750505f80546001600160a01b031916331790556080528251815103620002375790915f9181519183945b838610620001b1578787620f424087116200018157505161149490816200041382396080518181816103fc01528181610c8e01526111b20152f35b606491519062461bcd60e51b82526004820152600b60248201526a657863656564203130302560a81b6044820152fd5b90919293620001ce82620001c6888662000364565b51166200038d565b50620001db868562000364565b5182620001e9888662000364565b51165f5260038852885f205562000201868562000364565b518101809111620002235762000218909562000355565b949392919062000146565b634e487b7160e01b5f52601160045260245ffd5b845162461bcd60e51b815260048101859052600e60248201526d0d2dcecc2d8d2c840d8cadccee8d60931b6044820152606490fd5b806200028c866200028262000292948a62000364565b5116151562000319565b62000355565b62000114565b8251815291810191899101620000f7565b5f80fd5b81518981168103620002a9578152908a01908a01620000a4565b6040519190601f01601f191682016001600160401b03811183821017620002ed57604052565b634e487b7160e01b5f52604160045260245ffd5b6001600160401b038111620002ed5760051b60200190565b156200032157565b60405162461bcd60e51b815260206004820152600c60248201526b5a45524f204144445245535360a01b6044820152606490fd5b5f198114620002235760010190565b8051821015620003795760209160051b010190565b634e487b7160e01b5f52603260045260245ffd5b5f9080825260026020526040822054155f146200040e57600191825468010000000000000000811015620003fa57838101808555811015620003e657908260409285835260208320015583549281526002602052205590565b634e487b7160e01b82526032600452602482fd5b634e487b7160e01b82526041600452602482fd5b509056fe6040608081526004908136101561001f575b5050361561001d575f80fd5b005b5f91823560e01c9081630fcc56f714610e07578163223e547914610d8057816324c71ece14610d485781633b30f9c4146108c75781633fea70a7146105c0578163717dd445146104ce578163768aac5d1461042b575080637b0c1f29146103e85780639841ab00146103c35780639d241e7a1461036a578063b49a60bb14610228578063ba93ec2914610201578063e7b77f70146101b7578063f111a5c314610192578063f25ddb621461016d578063f41d7a18146101085763f837df250361001157346101045781600319360112610104576020906100fd61132b565b9051908152f35b5080fd5b50346101045781600319360112610104578190600154925b838110610131576020838351908152f35b916101626101689161015c6101458661109d565b905460039190911b1c6001600160a01b03166112f6565b90611090565b92611144565b610120565b5034610104576020366003190112610104576020906100fd61018d610fa7565b6112c0565b5034610104576020366003190112610104576020906100fd6101b2610fa7565b6112f6565b82346101fe5760203660031901126101fe576101d1610fa7565b8154906001600160a01b03906101ea8284163314611037565b6001600160a01b0319909216911617815580f35b80fd5b5034610104578160031936011261010457905490516001600160a01b039091168152602090f35b5034610104578160031936011261010457600180549261024784611020565b9261025481519485610fff565b84845261026085611020565b601f19956020868101939092880136853761027a82611020565b9161028782519384610fff565b80835261029381611020565b8385019901368a37855b81811061031257505080519681880191885251809152606087019390855b8181106102f657505050858303868301525180835291810195925b8281106102e35785870386f35b83518752958101959281019284016102d6565b82516001600160a01b03168652948401949184019187016102bb565b80610345818b61032b61035e959e9c9e9b999a9b61109d565b905460039491851b1c6001600160a01b0316928392611165565b5287528752838620546103588287611165565b52611144565b9896989594939561029d565b50346101045781600319360112610104578190600154925b838110610393576020838351908152f35b916101626103be9161015c6103a78661109d565b905460039190911b1c6001600160a01b0316611251565b610382565b5034610104576020366003190112610104576020906100fd6103e3610fa7565b611251565b5034610104578160031936011261010457517f00000000000000000000000000000000000000000000000000000000000000006001600160a01b03168152602090f35b919050346104ca5760203660031901126104ca5760205f9261044b610fa7565b85546001600160a01b039291906104659084163314611037565b8451632977f53760e11b81529586938492165af19081156104c15750610492575b5061048f611179565b80f35b602090813d81116104ba575b6104a88183610fff565b810103126104b6575f610486565b5f80fd5b503d61049e565b513d5f823e3d90fd5b8280fd5b9050346104ca576020806003193601126105bc576104ea610fa7565b84546001600160a01b0391906105039083163314611037565b169283855260038252808520541580610556575b15610526578461048685611376565b5162461bcd60e51b815291820152600c60248201526b7374696c6c2061637469766560a01b604482015260649150fd5b508051637654f7ab60e01b81528281858189895af180156105b2578690610583575b612710915010610517565b508281813d83116105ab575b6105998183610fff565b810103126104b6576127109051610578565b503d61058f565b82513d88823e3d90fd5b8380fd5b919050346104ca57806003193601126104ca578135906001600160401b03908183116108c357366023840112156108c357828401359160249361060284611020565b9061060f84519283610fff565b848252602094868684019160051b8301019136831161089c578701905b8282106108a45750505084359182116108a057366023830112156108a057818601359161065883611020565b9261066585519485610fff565b808452868685019160051b8301019136831161089c5787879101915b83831061088c57505088546001600160a01b039492506106a5915084163314611037565b81519181518303610859579190600154895b818110610826575050889289945b83861061070c5750505050620f42409150116106df578480f35b5162461bcd60e51b815292830152600b908201526a657863656564203130302560a81b6044820152606490fd5b9091929389888361071d8987611165565b511689519283809263f77c479160e01b82525afa90811561081c578c916107e2575b5082309116036107aa5761079a6107a0916107658461075e8a88611165565b51166110c9565b508c896107728a89611165565b51918661077f8c8a611165565b5116815260038d5220556107938887611165565b5190611090565b95611144565b94939291906106c5565b865162461bcd60e51b8152808b018990526013818b0152720c6dedce8e4ded8d8cae440dad2e6dac2e8c6d606b1b6044820152606490fd5b90508881813d8311610815575b6107f98183610fff565b8101031261081157518281168103610811575f61073f565b8b80fd5b503d6107ef565b88513d8e823e3d90fd5b8086610838610850939795969761109d565b919054600392831b1c168d5289528b88812055611144565b939291936106b7565b845162461bcd60e51b8152808901879052600e818901526d0d2dcecc2d8d2c840d8cadccee8d60931b6044820152606490fd5b8235815291810191879101610681565b8980fd5b8680fd5b81356001600160a01b03811681036104b657815290860190860161062c565b8480fd5b9050816003193601126104ca57803591602480359360018060a01b03946108f2868854163314611037565b811580159081610d40575b15610d0357610c8a575b61090f61132b565b81811015610c725750505084935b60019485549061092c82611020565b9661093986519889610fff565b828852601f1961094884611020565b01895b818110610c4b575089925f199150848201858111610c39578b9485949392905b878710610aa0575050505050505050845194865b86811061098f578761048f611179565b8761099a8284611165565b51848782019182518015610a925760208281015190919015610a2757505047835111610a1f575b5116905190803b156104ca57829089895180948193630d0e30db60e41b83525af18015610a15576109fd575b50506109f890611144565b61097f565b610a0690610fbd565b610a1157875f6109ed565b8780fd5b87513d84823e3d90fd5b4783526109c1565b93509350908391511691878a8d8b519586948593632e1a7d4d60e01b85528401525af18015610a8857610a5f5750506109f890611144565b813d8311610a81575b610a728183610fff565b810103126104b6575f806109ed565b503d610a68565b87513d8c823e3d90fd5b50505050506109f890611144565b8c8c8c8b610aad8b61109d565b919054600392831b1c1692838b52602092828452808c205415610bbe575050828a5281528d620f4240610ae3828c205488611152565b04610aed846112c0565b80821015610b475793610b35938795938d610b10610b3b9995610b419b9761106f565b92825194610b1d86610fe4565b8552840152820152610b2f8383611165565b52611165565b50611144565b96611144565b9561096b565b959b949290918a83888b979511610b6a575b50505050505050610b419150611144565b610b789798610b109161106f565b5082158015610b8f575b838e82808f8a8796610b59565b9093949550919091610bac578c9493929083019190610b41610b82565b634e487b7160e01b8d5260118b52888dfd5b90915082959b969798999a505f94509291925180948193632977f53760e11b83525af18015610c2f57908f97969594939291610c00575b5050610b4190611144565b90809297503d8311610c28575b610c178183610fff565b810103126104b6578c945f80610bf5565b503d610c0d565b8c513d5f823e3d90fd5b634e487b7160e01b8c5260118a52878cfd5b6020908851610c5981610fe4565b8c8152828d818301528d8b830152828d0101520161094b565b610c8492610c7f91611090565b61106f565b9361091d565b86867f000000000000000000000000000000000000000000000000000000000000000016803b15610104578190604487518094819363f3fef3a360e01b8352308c840152888a8401525af18015610cf957610ce6575b50610907565b610cf290979197610fbd565b955f610ce0565b85513d8a823e3d90fd5b845162461bcd60e51b8152602081880152601881860152776f6e6c79206465706f736974206f7220776974686472617760401b6044820152606490fd5b5081156108fd565b5050346101045760203660031901126101045760209181906001600160a01b03610d70610fa7565b1681526003845220549051908152f35b9050346104ca5760203660031901126104ca57610d9b610fa7565b83546001600160a01b039190610db49083163314611037565b1691828452600260205280842054610dd45783610dd0846110c9565b5080f35b906020606492519162461bcd60e51b8352820152600d60248201526c185b1c9958591e48195e1a5cdd609a1b6044820152fd5b8284346101fe57602092836003193601126101045781548135926001600160a01b0391610e379083163314611037565b4791848310610e5257505050506100fd611179565b51908152f35b90919295949383610e629161106f565b918096600154938290835b868110610f785750835b868110610e9e5750505050505050610e98919293610e93611179565b611090565b90610e4c565b85610ea88261109d565b919054600392831b1c16908187528b52610ec58a87205484611152565b8415610f655784900480610ee4575b5050610edf90611144565b610e77565b869160248d92949e948d519485938492637ec95ff960e11b84528b8401525af1908115610f5b578691610f28575b50610edf91610f2091611090565b9a908c610ed4565b90508a81813d8311610f54575b610f3f8183610fff565b81010312610f505751610edf610f12565b8580fd5b503d610f35565b8a513d88823e3d90fd5b634e487b7160e01b875260128652602487fd5b91610162610fa29187610f8a8661109d565b919054600392831b1c1688528c528a87205490611090565b610e6d565b600435906001600160a01b03821682036104b657565b6001600160401b038111610fd057604052565b634e487b7160e01b5f52604160045260245ffd5b606081019081106001600160401b03821117610fd057604052565b90601f801991011681019081106001600160401b03821117610fd057604052565b6001600160401b038111610fd05760051b60200190565b1561103e57565b60405162461bcd60e51b81526020600482015260096024820152681b9bdd081d985d5b1d60ba1b6044820152606490fd5b9190820391821161107c57565b634e487b7160e01b5f52601160045260245ffd5b9190820180921161107c57565b6001548110156110b55760015f5260205f2001905f90565b634e487b7160e01b5f52603260045260245ffd5b5f8181526002602052604081205461113f57600154600160401b81101561112b5790826111176111018460016040960160015561109d565b819391549060031b91821b915f19901b19161790565b905560015492815260026020522055600190565b634e487b7160e01b82526041600452602482fd5b905090565b5f19811461107c5760010190565b8181029291811591840414171561107c57565b80518210156110b55760209160051b010190565b4761118057565b4760405160208101906001600160401b039181811083821117610fd0576040525f808080958180955260018060a01b037f0000000000000000000000000000000000000000000000000000000000000000165af1913d1561124a573d91821161123657604051916111fb601f8201601f191660200184610fff565b825260203d92013e5b1561120b57565b60405162461bcd60e51b815260206004820152600360248201526253544560e81b6044820152606490fd5b634e487b7160e01b81526041600452602490fd5b5050611204565b604051637654f7ab60e01b815290602090829060049082905f906001600160a01b03165af19081156112b5575f91611287575090565b906020823d82116112ad575b816112a060209383610fff565b810103126101fe57505190565b3d9150611293565b6040513d5f823e3d90fd5b604051631b08ead360e21b815290602090829060049082905f906001600160a01b03165af19081156112b5575f91611287575090565b604051621a559760e01b815290602090829060049082905f906001600160a01b03165af19081156112b5575f91611287575090565b5f906001545f905b80821061133e575050565b909261136a6113709161015c6113538761109d565b905460039190911b1c6001600160a01b03166112c0565b93611144565b90611333565b5f818152600260205260408120549091908015611459575f19908082018181116114455760015490838201918211611431578082036113fd575b50505060015480156113e9578101906113c88261109d565b909182549160031b1b19169055600155815260026020526040812055600190565b634e487b7160e01b84526031600452602484fd5b61141b61140c6111019361109d565b90549060031b1c92839261109d565b90558452600260205260408420555f80806113b0565b634e487b7160e01b86526011600452602486fd5b634e487b7160e01b85526011600452602485fd5b50509056fea26469706673582212208af23117c4ea509a038488e05413c83b2919c8e678c5f910a30cdf3d8867f43e64736f6c63430008150033",
  "immutableReferences": {
    "8323": [
      {
        "length": 32,
        "start": 1773
      },
      {
        "length": 32,
        "start": 4277
      },
      {
        "length": 32,
        "start": 6790
      },
      {
        "length": 32,
        "start": 7618
      }
    ],
    "8325": [
      {
        "length": 32,
        "start": 3422
      },
      {
        "length": 32,
        "start": 4313
      },
      {
        "length": 32,
        "start": 6858
      },
      {
        "length": 32,
        "start": 8213
      }
    ],
    "8327": [
      {
        "length": 32,
        "start": 737
      },
      {
        "length": 32,
        "start": 2482
      },
      {
        "length": 32,
        "start": 4009
      },
      {
        "length": 32,
        "start": 5121
      },
      {
        "length": 32,
        "start": 5507
      },
      {
        "length": 32,
        "start": 6430
      },
      {
        "length": 32,
        "start": 6925
      },
      {
        "length": 32,
        "start": 8378
      },
      {
        "length": 32,
        "start": 8840
      }
    ],
    "8329": [
      {
        "length": 32,
        "start": 1737
      },
      {
        "length": 32,
        "start": 3915
      },
      {
        "length": 32,
        "start": 5571
      },
      {
        "length": 32,
        "start": 7540
      },
      {
        "length": 32,
        "start": 8304
      },
      {
        "length": 32,
        "start": 8745
      }
    ]
  },
  "source": "// SPDX-License-Identifier: MIT\npragma solidity 0.8.21;\n\nimport {ReentrancyGuard} from \"@openzeppelin/contracts/security/ReentrancyGuard.sol\";\nimport {Ownable} from \"@openzeppelin/contracts/access/Ownable.sol\";\nimport {TransferHelper} from \"@uniswap/v3-periphery/contracts/libraries/TransferHelper.sol\";\n\nimport {Minter} from \"./token/Minter.sol\";\nimport {Stone} from \"./token/Stone.sol\";\nimport {AssetsVault} from \"./AssetsVault.sol\";\nimport {StrategyController} from \"./strategies/StrategyController.sol\";\n\nimport {VaultMath} from \"./libraries/VaultMath.sol\";\n\ncontract StoneVault is ReentrancyGuard, Ownable {\n    uint256 internal constant MULTIPLIER = 1e18;\n    uint256 internal constant ONE_HUNDRED_PERCENT = 1e6;\n    uint256 internal constant MAXMIUM_FEE_RATE = ONE_HUNDRED_PERCENT / 100; // 1%\n    uint256 internal constant MINIMUM_REBASE_INTERVAL = 7 * 24 * 60 * 60;\n\n    uint256 public constant VERSION = 1;\n\n    uint256 public rebaseTimeInterval = 24 * 60 * 60;\n\n    address public immutable minter;\n    address public immutable stone;\n    address payable public immutable strategyController;\n    address payable public immutable assetsVault;\n\n    address public proposal;\n\n    address public feeRecipient;\n\n    uint256 public latestRoundID;\n\n    uint256 public withdrawableAmountInPast;\n    uint256 public withdrawingSharesInPast;\n    uint256 public withdrawingSharesInRound;\n\n    uint256 public withdrawFeeRate;\n\n    uint256 public rebaseTime;\n\n    mapping(uint256 => uint256) public roundPricePerShare;\n    mapping(uint256 => uint256) public settlementTime;\n\n    mapping(address => UserReceipt) public userReceipts;\n\n    struct UserReceipt {\n        uint256 withdrawRound;\n        uint256 withdrawShares;\n        uint256 withdrawableAmount;\n    }\n\n    event Deposit(\n        address indexed account,\n        uint256 amount,\n        uint256 mint,\n        uint256 round\n    );\n    event InitiateWithdraw(\n        address indexed account,\n        uint256 shares,\n        uint256 round\n    );\n    event CancelWithdraw(\n        address indexed account,\n        uint256 amount,\n        uint256 round\n    );\n    event Withdrawn(address indexed account, uint256 amount, uint256 round);\n    event WithdrawnFromStrategy(\n        address indexed account,\n        uint256 amount,\n        uint256 actualAmount,\n        uint256 round\n    );\n    event RollToNextRound(\n        uint256 round,\n        uint256 vaultIn,\n        uint256 vaultOut,\n        uint256 sharePrice\n    );\n    event StragetyAdded(address strategy);\n    event StragetyDestroyed(address strategy);\n    event StragetyCleared(address strategy);\n    event PortfolioConfigUpdated(address[] strategies, uint256[] ratios);\n    event FeeCharged(address indexed account, uint256 amount);\n    event SetWithdrawFeeRate(uint256 oldRate, uint256 newRate);\n    event SetFeeRecipient(address oldAddr, address newAddr);\n    event SetRebaseInterval(uint256 interval);\n\n    modifier onlyProposal() {\n        require(proposal == msg.sender, \"not proposal\");\n        _;\n    }\n\n    constructor(\n        address _minter,\n        address _proposal,\n        address payable _assetsVault,\n        uint256 _rebaseTime,\n        address[] memory _strategies,\n        uint256[] memory _ratios\n    ) {\n        require(\n            _minter != address(0) &&\n                _proposal != address(0) &&\n                _assetsVault != address(0),\n            \"ZERO ADDRESS\"\n        );\n\n        uint256 length = _strategies.length;\n        for (uint256 i; i < length; i++) {\n            require(_strategies[i] != address(0), \"ZERO ADDRESS\");\n        }\n\n        minter = _minter;\n        proposal = _proposal;\n        assetsVault = _assetsVault;\n\n        feeRecipient = msg.sender;\n\n        rebaseTime = _rebaseTime;\n\n        StrategyController controller = new StrategyController(\n            _assetsVault,\n            _strategies,\n            _ratios\n        );\n        strategyController = payable(address(controller));\n        stone = Minter(_minter).stone();\n\n        roundPricePerShare[0] = MULTIPLIER;\n        latestRoundID = 0;\n    }\n\n    function deposit()\n        external\n        payable\n        nonReentrant\n        returns (uint256 mintAmount)\n    {\n        mintAmount = _depositFor(msg.value, msg.sender);\n    }\n\n    function depositFor(\n        address _user\n    ) external payable nonReentrant returns (uint256 mintAmount) {\n        mintAmount = _depositFor(msg.value, _user);\n    }\n\n    function _depositFor(\n        uint256 _amount,\n        address _user\n    ) internal returns (uint256 mintAmount) {\n        require(_amount != 0, \"too small\");\n\n        uint256 sharePrice;\n        uint256 currSharePrice = currentSharePrice();\n        if (latestRoundID == 0) {\n            sharePrice = MULTIPLIER;\n        } else {\n            uint256 latestSharePrice = roundPricePerShare[latestRoundID - 1];\n            sharePrice = latestSharePrice > currSharePrice\n                ? latestSharePrice\n                : currSharePrice;\n        }\n\n        mintAmount = (_amount * MULTIPLIER) / sharePrice;\n\n        AssetsVault(assetsVault).deposit{value: address(this).balance}();\n        Minter(minter).mint(_user, mintAmount);\n\n        emit Deposit(_user, _amount, mintAmount, latestRoundID);\n    }\n\n    function requestWithdraw(uint256 _shares) external nonReentrant {\n        require(_shares != 0, \"too small\");\n        require(latestRoundID != 0, \"should withdraw instantly\");\n        Stone stoneToken = Stone(stone);\n        Minter stoneMinter = Minter(minter);\n\n        require(stoneToken.balanceOf(msg.sender) >= _shares, \"exceed balance\");\n\n        TransferHelper.safeTransferFrom(\n            stone,\n            msg.sender,\n            address(this),\n            _shares\n        );\n\n        withdrawingSharesInRound = withdrawingSharesInRound + _shares;\n\n        UserReceipt storage receipt = userReceipts[msg.sender];\n\n        if (receipt.withdrawRound == latestRoundID) {\n            receipt.withdrawShares = receipt.withdrawShares + _shares;\n        } else if (receipt.withdrawRound == 0) {\n            receipt.withdrawShares = _shares;\n            receipt.withdrawRound = latestRoundID;\n        } else {\n            // Withdraw previous round share first\n            uint256 withdrawAmount = VaultMath.sharesToAsset(\n                receipt.withdrawShares,\n                roundPricePerShare[receipt.withdrawRound]\n            );\n\n            stoneMinter.burn(address(this), receipt.withdrawShares);\n            withdrawingSharesInPast =\n                withdrawingSharesInPast -\n                receipt.withdrawShares;\n\n            receipt.withdrawShares = _shares;\n            receipt.withdrawableAmount =\n                receipt.withdrawableAmount +\n                withdrawAmount;\n            receipt.withdrawRound = latestRoundID;\n        }\n\n        emit InitiateWithdraw(msg.sender, _shares, latestRoundID);\n    }\n\n    function cancelWithdraw(uint256 _shares) external nonReentrant {\n        require(_shares != 0, \"too small\");\n\n        UserReceipt storage receipt = userReceipts[msg.sender];\n        require(receipt.withdrawRound == latestRoundID, \"no pending withdraw\");\n        require(receipt.withdrawShares >= _shares, \"exceed pending withdraw\");\n\n        receipt.withdrawShares = receipt.withdrawShares - _shares;\n\n        TransferHelper.safeTransfer(stone, msg.sender, _shares);\n\n        if (receipt.withdrawShares == 0) {\n            receipt.withdrawRound = 0;\n        }\n\n        withdrawingSharesInRound = withdrawingSharesInRound - _shares;\n\n        emit CancelWithdraw(msg.sender, _shares, latestRoundID);\n    }\n\n    function instantWithdraw(\n        uint256 _amount,\n        uint256 _shares\n    ) external nonReentrant returns (uint256 actualWithdrawn) {\n        require(_amount != 0 || _shares != 0, \"too small\");\n\n        AssetsVault aVault = AssetsVault(assetsVault);\n        Minter stoneMinter = Minter(minter);\n\n        (uint256 idleAmount, ) = getVaultAvailableAmount();\n\n        if (_amount != 0) {\n            UserReceipt storage receipt = userReceipts[msg.sender];\n\n            if (\n                receipt.withdrawRound != latestRoundID &&\n                receipt.withdrawRound != 0\n            ) {\n                // Withdraw previous round share first\n                uint256 withdrawAmount = VaultMath.sharesToAsset(\n                    receipt.withdrawShares,\n                    roundPricePerShare[receipt.withdrawRound]\n                );\n\n                stoneMinter.burn(address(this), receipt.withdrawShares);\n\n                withdrawingSharesInPast =\n                    withdrawingSharesInPast -\n                    receipt.withdrawShares;\n                receipt.withdrawShares = 0;\n                receipt.withdrawableAmount =\n                    receipt.withdrawableAmount +\n                    withdrawAmount;\n                receipt.withdrawRound = 0;\n            }\n\n            require(\n                receipt.withdrawableAmount >= _amount,\n                \"exceed withdrawable\"\n            );\n\n            receipt.withdrawableAmount = receipt.withdrawableAmount - _amount;\n            withdrawableAmountInPast = withdrawableAmountInPast - _amount;\n            actualWithdrawn = _amount;\n\n            emit Withdrawn(msg.sender, _amount, latestRoundID);\n        }\n\n        if (_shares != 0) {\n            uint256 sharePrice;\n\n            if (latestRoundID == 0) {\n                sharePrice = MULTIPLIER;\n            } else {\n                uint256 currSharePrice = currentSharePrice();\n                uint256 latestSharePrice = roundPricePerShare[\n                    latestRoundID - 1\n                ];\n\n                sharePrice = latestSharePrice < currSharePrice\n                    ? latestSharePrice\n                    : currSharePrice;\n            }\n\n            uint256 ethAmount = VaultMath.sharesToAsset(_shares, sharePrice);\n\n            stoneMinter.burn(msg.sender, _shares);\n\n            if (ethAmount <= idleAmount) {\n                actualWithdrawn = actualWithdrawn + ethAmount;\n\n                emit Withdrawn(msg.sender, ethAmount, latestRoundID);\n            } else {\n                actualWithdrawn = actualWithdrawn + idleAmount;\n                ethAmount = ethAmount - idleAmount;\n\n                StrategyController controller = StrategyController(\n                    strategyController\n                );\n                uint256 actualAmount = controller.forceWithdraw(ethAmount);\n\n                actualWithdrawn = actualWithdrawn + actualAmount;\n\n                emit WithdrawnFromStrategy(\n                    msg.sender,\n                    ethAmount,\n                    actualAmount,\n                    latestRoundID\n                );\n            }\n        }\n\n        require(aVault.getBalance() >= actualWithdrawn, \"still need wait\");\n\n        uint256 withFee;\n        if (withdrawFeeRate != 0) {\n            withFee = (actualWithdrawn * withdrawFeeRate) / ONE_HUNDRED_PERCENT;\n            aVault.withdraw(feeRecipient, withFee);\n\n            emit FeeCharged(msg.sender, withFee);\n        }\n        aVault.withdraw(msg.sender, actualWithdrawn - withFee);\n    }\n\n    function rollToNextRound() external {\n        require(\n            block.timestamp > rebaseTime + rebaseTimeInterval,\n            \"already rebased\"\n        );\n\n        StrategyController controller = StrategyController(strategyController);\n        AssetsVault aVault = AssetsVault(assetsVault);\n        uint256 previewSharePrice = currentSharePrice();\n\n        uint256 vaultBalance = aVault.getBalance();\n        uint256 amountToWithdraw = VaultMath.sharesToAsset(\n            withdrawingSharesInRound,\n            previewSharePrice\n        );\n        uint256 amountVaultNeed = withdrawableAmountInPast + amountToWithdraw;\n        uint256 allPendingValue = controller.getAllStrategyPendingValue();\n\n        uint256 vaultIn;\n        uint256 vaultOut;\n\n        if (vaultBalance > amountVaultNeed) {\n            vaultIn = vaultBalance - amountVaultNeed;\n        } else if (vaultBalance + allPendingValue < amountVaultNeed) {\n            vaultOut = amountVaultNeed - vaultBalance - allPendingValue;\n        }\n\n        controller.rebaseStrategies(vaultIn, vaultOut);\n\n        uint256 newSharePrice = currentSharePrice();\n        roundPricePerShare[latestRoundID] = previewSharePrice < newSharePrice\n            ? previewSharePrice\n            : newSharePrice;\n\n        settlementTime[latestRoundID] = block.timestamp;\n        latestRoundID = latestRoundID + 1;\n\n        withdrawingSharesInPast =\n            withdrawingSharesInPast +\n            withdrawingSharesInRound;\n        withdrawableAmountInPast =\n            withdrawableAmountInPast +\n            VaultMath.sharesToAsset(\n                withdrawingSharesInRound,\n                roundPricePerShare[latestRoundID - 1]\n            );\n        withdrawingSharesInRound = 0;\n        rebaseTime = block.timestamp;\n\n        emit RollToNextRound(latestRoundID, vaultIn, vaultOut, newSharePrice);\n    }\n\n    function addStrategy(address _strategy) external onlyProposal {\n        StrategyController controller = StrategyController(strategyController);\n\n        controller.addStrategy(_strategy);\n        emit StragetyAdded(_strategy);\n    }\n\n    function destroyStrategy(address _strategy) external onlyOwner {\n        StrategyController controller = StrategyController(strategyController);\n\n        controller.destroyStrategy(_strategy);\n        emit StragetyDestroyed(_strategy);\n    }\n\n    function clearStrategy(address _strategy) external onlyOwner {\n        StrategyController controller = StrategyController(strategyController);\n\n        controller.clearStrategy(_strategy);\n        emit StragetyCleared(_strategy);\n    }\n\n    function updatePortfolioConfig(\n        address[] memory _strategies,\n        uint256[] memory _ratios\n    ) external onlyProposal {\n        StrategyController controller = StrategyController(strategyController);\n\n        controller.setStrategies(_strategies, _ratios);\n\n        emit PortfolioConfigUpdated(_strategies, _ratios);\n    }\n\n    function updateProposal(address _proposal) external onlyProposal {\n        proposal = _proposal;\n    }\n\n    function currentSharePrice() public returns (uint256 price) {\n        Stone stoneToken = Stone(stone);\n        uint256 totalStone = stoneToken.totalSupply();\n        if (\n            latestRoundID == 0 ||\n            totalStone == 0 ||\n            totalStone == withdrawingSharesInPast\n        ) {\n            return MULTIPLIER;\n        }\n\n        uint256 etherAmount = AssetsVault(assetsVault).getBalance() +\n            StrategyController(strategyController).getAllStrategiesValue() -\n            withdrawableAmountInPast;\n        uint256 activeShare = totalStone - withdrawingSharesInPast;\n\n        return (etherAmount * MULTIPLIER) / activeShare;\n    }\n\n    function getVaultAvailableAmount()\n        public\n        returns (uint256 idleAmount, uint256 investedAmount)\n    {\n        AssetsVault vault = AssetsVault(assetsVault);\n\n        if (vault.getBalance() > withdrawableAmountInPast) {\n            idleAmount = vault.getBalance() - withdrawableAmountInPast;\n        }\n\n        investedAmount = StrategyController(strategyController)\n            .getAllStrategyValidValue();\n    }\n\n    function setWithdrawFeeRate(uint256 _withdrawFeeRate) external onlyOwner {\n        require(_withdrawFeeRate <= MAXMIUM_FEE_RATE, \"exceed maximum\");\n\n        emit SetWithdrawFeeRate(withdrawFeeRate, _withdrawFeeRate);\n\n        withdrawFeeRate = _withdrawFeeRate;\n    }\n\n    function setFeeRecipient(address _feeRecipient) external onlyOwner {\n        require(_feeRecipient != address(0), \"zero address\");\n\n        emit SetFeeRecipient(feeRecipient, _feeRecipient);\n\n        feeRecipient = _feeRecipient;\n    }\n\n    function setRebaseInterval(uint256 _interval) external onlyOwner {\n        require(_interval <= MINIMUM_REBASE_INTERVAL, \"invalid\");\n\n        rebaseTimeInterval = _interval;\n        emit SetRebaseInterval(rebaseTimeInterval);\n    }\n\n    receive() external payable {}\n}\n",
  "sourcePath": "/Users/mingyuzhang/Downloads/stone-vault-v1/contracts/StoneVault.sol",
  "compiler": {
    "name": "solc",
    "version": "0.8.21+commit.d9974bed.Emscripten.clang"
  },
  "schemaVersion": "3.4.16",
  "updatedAt": "2024-06-07T05:41:32.611Z",
  "devdoc": {
    "kind": "dev",
    "methods": {
      "owner()": {
        "details": "Returns the address of the current owner."
      },
      "renounceOwnership()": {
        "details": "Leaves the contract without owner. It will not be possible to call `onlyOwner` functions. Can only be called by the current owner. NOTE: Renouncing ownership will leave the contract without an owner, thereby disabling any functionality that is only available to the owner."
      },
      "transferOwnership(address)": {
        "details": "Transfers ownership of the contract to a new account (`newOwner`). Can only be called by the current owner."
      }
    },
    "version": 1
  },
  "userdoc": {
    "kind": "user",
    "methods": {},
    "version": 1
  }
}