{
  "contractName": "StoneCarnival",
  "abi": [
    {
      "inputs": [
        {
          "internalType": "address",
          "name": "_stoneAddr",
          "type": "address"
        },
        {
          "internalType": "address",
          "name": "_stoneVaultAddr",
          "type": "address"
        },
        {
          "internalType": "uint256",
          "name": "_cap",
          "type": "uint256"
        },
        {
          "internalType": "uint256",
          "name": "_minStoneAllowed",
          "type": "uint256"
        }
      ],
      "stateMutability": "nonpayable",
      "type": "constructor"
    },
    {
      "anonymous": false,
      "inputs": [
        {
          "indexed": true,
          "internalType": "address",
          "name": "owner",
          "type": "address"
        },
        {
          "indexed": true,
          "internalType": "address",
          "name": "spender",
          "type": "address"
        },
        {
          "indexed": false,
          "internalType": "uint256",
          "name": "value",
          "type": "uint256"
        }
      ],
      "name": "Approval",
      "type": "event"
    },
    {
      "anonymous": false,
      "inputs": [
        {
          "indexed": false,
          "internalType": "uint256",
          "name": "_ethAmount",
          "type": "uint256"
        },
        {
          "indexed": false,
          "internalType": "uint256",
          "name": "_stoneAmount",
          "type": "uint256"
        }
      ],
      "name": "DepositMade",
      "type": "event"
    },
    {
      "anonymous": false,
      "inputs": [
        {
          "indexed": false,
          "internalType": "uint256",
          "name": "totalStone",
          "type": "uint256"
        }
      ],
      "name": "DepositPause",
      "type": "event"
    },
    {
      "anonymous": false,
      "inputs": [
        {
          "indexed": false,
          "internalType": "uint256",
          "name": "_amount",
          "type": "uint256"
        }
      ],
      "name": "ETHWithdrawn",
      "type": "event"
    },
    {
      "anonymous": false,
      "inputs": [
        {
          "indexed": true,
          "internalType": "address",
          "name": "previousOwner",
          "type": "address"
        },
        {
          "indexed": true,
          "internalType": "address",
          "name": "newOwner",
          "type": "address"
        }
      ],
      "name": "OwnershipTransferStarted",
      "type": "event"
    },
    {
      "anonymous": false,
      "inputs": [
        {
          "indexed": true,
          "internalType": "address",
          "name": "previousOwner",
          "type": "address"
        },
        {
          "indexed": true,
          "internalType": "address",
          "name": "newOwner",
          "type": "address"
        }
      ],
      "name": "OwnershipTransferred",
      "type": "event"
    },
    {
      "anonymous": false,
      "inputs": [
        {
          "indexed": false,
          "internalType": "uint256",
          "name": "_amount",
          "type": "uint256"
        }
      ],
      "name": "RequestMade",
      "type": "event"
    },
    {
      "anonymous": false,
      "inputs": [
        {
          "indexed": false,
          "internalType": "uint256",
          "name": "oldCap",
          "type": "uint256"
        },
        {
          "indexed": false,
          "internalType": "uint256",
          "name": "newCap",
          "type": "uint256"
        }
      ],
      "name": "SetCap",
      "type": "event"
    },
    {
      "anonymous": false,
      "inputs": [
        {
          "indexed": false,
          "internalType": "address",
          "name": "_user",
          "type": "address"
        },
        {
          "indexed": false,
          "internalType": "uint256",
          "name": "_amount",
          "type": "uint256"
        }
      ],
      "name": "StoneDeposited",
      "type": "event"
    },
    {
      "anonymous": false,
      "inputs": [
        {
          "indexed": false,
          "internalType": "address",
          "name": "_user",
          "type": "address"
        },
        {
          "indexed": false,
          "internalType": "uint256",
          "name": "_amount",
          "type": "uint256"
        },
        {
          "indexed": false,
          "internalType": "uint256",
          "name": "_burnAmount",
          "type": "uint256"
        },
        {
          "indexed": false,
          "internalType": "uint256",
          "name": "_withAmount",
          "type": "uint256"
        }
      ],
      "name": "StoneWithdrawn",
      "type": "event"
    },
    {
      "anonymous": false,
      "inputs": [
        {
          "indexed": false,
          "internalType": "uint256",
          "name": "timestamp",
          "type": "uint256"
        }
      ],
      "name": "Terminate",
      "type": "event"
    },
    {
      "anonymous": false,
      "inputs": [
        {
          "indexed": true,
          "internalType": "address",
          "name": "from",
          "type": "address"
        },
        {
          "indexed": true,
          "internalType": "address",
          "name": "to",
          "type": "address"
        },
        {
          "indexed": false,
          "internalType": "uint256",
          "name": "value",
          "type": "uint256"
        }
      ],
      "name": "Transfer",
      "type": "event"
    },
    {
      "anonymous": false,
      "inputs": [
        {
          "indexed": false,
          "internalType": "uint256",
          "name": "_amount",
          "type": "uint256"
        }
      ],
      "name": "WithdrawalCancelled",
      "type": "event"
    },
    {
      "inputs": [],
      "name": "acceptOwnership",
      "outputs": [],
      "stateMutability": "nonpayable",
      "type": "function"
    },
    {
      "inputs": [
        {
          "internalType": "address",
          "name": "owner",
          "type": "address"
        },
        {
          "internalType": "address",
          "name": "spender",
          "type": "address"
        }
      ],
      "name": "allowance",
      "outputs": [
        {
          "internalType": "uint256",
          "name": "",
          "type": "uint256"
        }
      ],
      "stateMutability": "view",
      "type": "function"
    },
    {
      "inputs": [
        {
          "internalType": "address",
          "name": "spender",
          "type": "address"
        },
        {
          "internalType": "uint256",
          "name": "amount",
          "type": "uint256"
        }
      ],
      "name": "approve",
      "outputs": [
        {
          "internalType": "bool",
          "name": "",
          "type": "bool"
        }
      ],
      "stateMutability": "nonpayable",
      "type": "function"
    },
    {
      "inputs": [
        {
          "internalType": "address",
          "name": "account",
          "type": "address"
        }
      ],
      "name": "balanceOf",
      "outputs": [
        {
          "internalType": "uint256",
          "name": "",
          "type": "uint256"
        }
      ],
      "stateMutability": "view",
      "type": "function"
    },
    {
      "inputs": [],
      "name": "cap",
      "outputs": [
        {
          "internalType": "uint256",
          "name": "",
          "type": "uint256"
        }
      ],
      "stateMutability": "view",
      "type": "function"
    },
    {
      "inputs": [],
      "name": "decimals",
      "outputs": [
        {
          "internalType": "uint8",
          "name": "",
          "type": "uint8"
        }
      ],
      "stateMutability": "view",
      "type": "function"
    },
    {
      "inputs": [
        {
          "internalType": "address",
          "name": "spender",
          "type": "address"
        },
        {
          "internalType": "uint256",
          "name": "subtractedValue",
          "type": "uint256"
        }
      ],
      "name": "decreaseAllowance",
      "outputs": [
        {
          "internalType": "bool",
          "name": "",
          "type": "bool"
        }
      ],
      "stateMutability": "nonpayable",
      "type": "function"
    },
    {
      "inputs": [],
      "name": "depositPaused",
      "outputs": [
        {
          "internalType": "bool",
          "name": "",
          "type": "bool"
        }
      ],
      "stateMutability": "view",
      "type": "function"
    },
    {
      "inputs": [],
      "name": "finalStoneAmount",
      "outputs": [
        {
          "internalType": "uint256",
          "name": "",
          "type": "uint256"
        }
      ],
      "stateMutability": "view",
      "type": "function"
    },
    {
      "inputs": [
        {
          "internalType": "address",
          "name": "spender",
          "type": "address"
        },
        {
          "internalType": "uint256",
          "name": "addedValue",
          "type": "uint256"
        }
      ],
      "name": "increaseAllowance",
      "outputs": [
        {
          "internalType": "bool",
          "name": "",
          "type": "bool"
        }
      ],
      "stateMutability": "nonpayable",
      "type": "function"
    },
    {
      "inputs": [],
      "name": "lockPeriod",
      "outputs": [
        {
          "internalType": "uint256",
          "name": "",
          "type": "uint256"
        }
      ],
      "stateMutability": "view",
      "type": "function"
    },
    {
      "inputs": [],
      "name": "minStoneAllowed",
      "outputs": [
        {
          "internalType": "uint256",
          "name": "",
          "type": "uint256"
        }
      ],
      "stateMutability": "view",
      "type": "function"
    },
    {
      "inputs": [],
      "name": "name",
      "outputs": [
        {
          "internalType": "string",
          "name": "",
          "type": "string"
        }
      ],
      "stateMutability": "view",
      "type": "function"
    },
    {
      "inputs": [],
      "name": "owner",
      "outputs": [
        {
          "internalType": "address",
          "name": "",
          "type": "address"
        }
      ],
      "stateMutability": "view",
      "type": "function"
    },
    {
      "inputs": [],
      "name": "pendingOwner",
      "outputs": [
        {
          "internalType": "address",
          "name": "",
          "type": "address"
        }
      ],
      "stateMutability": "view",
      "type": "function"
    },
    {
      "inputs": [],
      "name": "renounceOwnership",
      "outputs": [],
      "stateMutability": "nonpayable",
      "type": "function"
    },
    {
      "inputs": [],
      "name": "startTime",
      "outputs": [
        {
          "internalType": "uint256",
          "name": "",
          "type": "uint256"
        }
      ],
      "stateMutability": "view",
      "type": "function"
    },
    {
      "inputs": [],
      "name": "stoneAddr",
      "outputs": [
        {
          "internalType": "address",
          "name": "",
          "type": "address"
        }
      ],
      "stateMutability": "view",
      "type": "function"
    },
    {
      "inputs": [
        {
          "internalType": "address",
          "name": "",
          "type": "address"
        }
      ],
      "name": "stoneDeposited",
      "outputs": [
        {
          "internalType": "uint256",
          "name": "",
          "type": "uint256"
        }
      ],
      "stateMutability": "view",
      "type": "function"
    },
    {
      "inputs": [],
      "name": "stoneVaultAddr",
      "outputs": [
        {
          "internalType": "address",
          "name": "",
          "type": "address"
        }
      ],
      "stateMutability": "view",
      "type": "function"
    },
    {
      "inputs": [],
      "name": "symbol",
      "outputs": [
        {
          "internalType": "string",
          "name": "",
          "type": "string"
        }
      ],
      "stateMutability": "view",
      "type": "function"
    },
    {
      "inputs": [],
      "name": "terminated",
      "outputs": [
        {
          "internalType": "bool",
          "name": "",
          "type": "bool"
        }
      ],
      "stateMutability": "view",
      "type": "function"
    },
    {
      "inputs": [],
      "name": "totalStoneDeposited",
      "outputs": [
        {
          "internalType": "uint256",
          "name": "",
          "type": "uint256"
        }
      ],
      "stateMutability": "view",
      "type": "function"
    },
    {
      "inputs": [],
      "name": "totalSupply",
      "outputs": [
        {
          "internalType": "uint256",
          "name": "",
          "type": "uint256"
        }
      ],
      "stateMutability": "view",
      "type": "function"
    },
    {
      "inputs": [
        {
          "internalType": "address",
          "name": "to",
          "type": "address"
        },
        {
          "internalType": "uint256",
          "name": "amount",
          "type": "uint256"
        }
      ],
      "name": "transfer",
      "outputs": [
        {
          "internalType": "bool",
          "name": "",
          "type": "bool"
        }
      ],
      "stateMutability": "nonpayable",
      "type": "function"
    },
    {
      "inputs": [
        {
          "internalType": "address",
          "name": "from",
          "type": "address"
        },
        {
          "internalType": "address",
          "name": "to",
          "type": "address"
        },
        {
          "internalType": "uint256",
          "name": "amount",
          "type": "uint256"
        }
      ],
      "name": "transferFrom",
      "outputs": [
        {
          "internalType": "bool",
          "name": "",
          "type": "bool"
        }
      ],
      "stateMutability": "nonpayable",
      "type": "function"
    },
    {
      "inputs": [
        {
          "internalType": "address",
          "name": "newOwner",
          "type": "address"
        }
      ],
      "name": "transferOwnership",
      "outputs": [],
      "stateMutability": "nonpayable",
      "type": "function"
    },
    {
      "stateMutability": "payable",
      "type": "receive"
    },
    {
      "inputs": [
        {
          "internalType": "uint256",
          "name": "_amount",
          "type": "uint256"
        }
      ],
      "name": "depositStone",
      "outputs": [
        {
          "internalType": "uint256",
          "name": "cStoneAmount",
          "type": "uint256"
        }
      ],
      "stateMutability": "nonpayable",
      "type": "function"
    },
    {
      "inputs": [
        {
          "internalType": "address",
          "name": "_user",
          "type": "address"
        },
        {
          "internalType": "uint256",
          "name": "_amount",
          "type": "uint256"
        }
      ],
      "name": "depositStoneFor",
      "outputs": [
        {
          "internalType": "uint256",
          "name": "cStoneAmount",
          "type": "uint256"
        }
      ],
      "stateMutability": "nonpayable",
      "type": "function"
    },
    {
      "inputs": [],
      "name": "withdrawStone",
      "outputs": [],
      "stateMutability": "nonpayable",
      "type": "function"
    },
    {
      "inputs": [],
      "name": "terminate",
      "outputs": [],
      "stateMutability": "nonpayable",
      "type": "function"
    },
    {
      "inputs": [
        {
          "internalType": "uint256",
          "name": "_cap",
          "type": "uint256"
        }
      ],
      "name": "setCap",
      "outputs": [],
      "stateMutability": "nonpayable",
      "type": "function"
    },
    {
      "inputs": [],
      "name": "forceTerminate",
      "outputs": [],
      "stateMutability": "nonpayable",
      "type": "function"
    },
    {
      "inputs": [],
      "name": "pauseDeposit",
      "outputs": [],
      "stateMutability": "nonpayable",
      "type": "function"
    },
    {
      "inputs": [
        {
          "internalType": "uint256",
          "name": "_amount",
          "type": "uint256"
        }
      ],
      "name": "makeRequest",
      "outputs": [],
      "stateMutability": "nonpayable",
      "type": "function"
    },
    {
      "inputs": [
        {
          "internalType": "uint256",
          "name": "_amount",
          "type": "uint256"
        }
      ],
      "name": "withdrawETH",
      "outputs": [],
      "stateMutability": "nonpayable",
      "type": "function"
    },
    {
      "inputs": [
        {
          "internalType": "uint256",
          "name": "_amount",
          "type": "uint256"
        }
      ],
      "name": "cancelWithdraw",
      "outputs": [],
      "stateMutability": "nonpayable",
      "type": "function"
    },
    {
      "inputs": [
        {
          "internalType": "uint256",
          "name": "_amount",
          "type": "uint256"
        }
      ],
      "name": "makeDeposit",
      "outputs": [],
      "stateMutability": "nonpayable",
      "type": "function"
    }
  ],
  "bytecode": "0x6101203462000487576001600160401b0390601f19601f620022f53881900382810184168501919086831186841017620003965780869260809460405283398101031262000487576200005283620004ab565b90602062000062818601620004ab565b936060604087015196015196620000786200048b565b936011855270053544f4e45204361726e6976616c204c5607c1b84860152620000a06200048b565b9460068652656353544f4e4560d01b85870152805191838311620003965760039283546001938482811c921680156200047c575b898310146200046857818484931162000415575b508890848311600114620003b6575f92620003aa575b50505f1982861b1c191690831b1783555b8651938411620003965760049687548381811c911680156200038b575b88821014620003785782811162000330575b5086918511600114620002cb57849550908492915f95620002bf575b50501b925f19911b1c19161782555b600680546001600160a01b03199081169091556005805433928116831790915560405193916001600160a01b039182167f8be0079c531659141344cd1fd0a4f28419497f9722a3daafe3b4186f6b6457e05f80a36276a70060c05280851615159081620002b2575b5015620002845750505060805260a0526007554260e052610100908152604051611e349182620004c1833960805182818161041f0152818161049f015281816107a701528181610bad01528181610edc015281816110a60152611489015260a0518281816102a3015281816105d801528181610bf001528181610e5d01526112d5015260c051828181610b3b015261103f015260e05182818161096301526110600152518181816104670152611c080152f35b62461bcd60e51b8352820152600c60248201526b34b73b30b634b21030b2323960a11b604482015260649150fd5b9050851615155f620001d1565b015193505f806200015a565b929194841692875f5284875f20945f5b8989838310620003185750505010620002fe575b50505050811b01825562000169565b01519060f8845f19921b161c191690555f808080620002ef565b868601518955909701969485019488935001620002db565b885f52875f208380880160051c8201928a89106200036e575b0160051c019084905b828110620003625750506200013e565b5f815501849062000352565b9250819262000349565b602289634e487b7160e01b5f525260245ffd5b90607f16906200012c565b634e487b7160e01b5f52604160045260245ffd5b015190505f80620000fe565b908886941691875f528a5f20925f5b8c828210620003fe5750508411620003e6575b505050811b0183556200010f565b01515f1983881b60f8161c191690555f8080620003d8565b8385015186558997909501949384019301620003c5565b909150855f52885f208480850160051c8201928b86106200045e575b918791869594930160051c01915b8281106200044f575050620000e8565b5f81558594508791016200043f565b9250819262000431565b634e487b7160e01b5f52602260045260245ffd5b91607f1691620000d4565b5f80fd5b60408051919082016001600160401b038111838210176200039657604052565b51906001600160a01b0382168203620004875756fe6080604090808252600480361015610021575b505050361561001f575f80fd5b005b5f92833560e01c928363018d5861146116a85750826302befd24146116845782630517f8b9146113ca578263059a500c1461128657826306fdde03146111af578263095ea7b3146111855782630c08bf881461101457826318160ddd14610ff5578263194307bf14610fce57826323b872dd14610f065782632b2d14a414610eab5782632c0f6d7f14610e8c5782632e09300a14610e48578263313ce56714610e2c578263355274ea14610e0d5782633950935114610dbd5782633b40075d14610b5e5782633fd8b02f14610b2357826347786d3714610ac057826369026e8814610a5c57826370a0823114610a25578263715018a6146109be578263726425d31461098657826378e979251461094b57826379ba5097146108875782638da5cb5b1461085e57826393a965121461076157826395d89b411461067b5782639f01f7ba146105a3578263a457c2d7146104ff578263a9059cbb146104ce578263aeebda7e1461048a578263b491cb641461044f578263cafc06c5146103e4578263dd62ed3e14610397578263e30c39781461036a578263f14210a61461024457505063f2fde38b146101d4578080610012565b34610241576020366003190112610241576101ed61170b565b6101f5611737565b600680546001600160a01b0319166001600160a01b039283169081179091556005549091167f38d16b8cac22d99fc7c124b9cd0de2d3fa1faef420bfe791d8c362d765e227008380a380f35b80fd5b90915034610366576020908160031936011261036257610262611737565b61027f60ff600a54610275828216611d9d565b60081c1615611d63565b805163b18f2e9160e01b8152833593810193909352602483018490528183604481877f00000000000000000000000000000000000000000000000000000000000000006001600160a01b03165af1908115610359578491610306575b7f043f607a14d3b4f0a11a0b2e192bbfcd894298ba5abf22553be6081406db28aa935051908152a180f35b90508183813d8311610352575b61031d81836117b6565b8101031261034e577f043f607a14d3b4f0a11a0b2e192bbfcd894298ba5abf22553be6081406db28aa9251906102db565b5f80fd5b503d610313565b513d85823e3d90fd5b8380fd5b8280fd5b83903461039357816003193601126103935760065490516001600160a01b039091168152602090f35b5080fd5b8390346103935780600319360112610393576020916103b461170b565b826103bd611721565b6001600160a01b03928316845260018652922091165f908152908352819020549051908152f35b83903461039357806003193601126103935760209061044861040461170b565b6024359061041760ff600a541615611a50565b6104438230337f0000000000000000000000000000000000000000000000000000000000000000611ae3565b611bca565b9051908152f35b839034610393578160031936011261039357602090517f00000000000000000000000000000000000000000000000000000000000000008152f35b839034610393578160031936011261039357517f00000000000000000000000000000000000000000000000000000000000000006001600160a01b03168152602090f35b8390346103935780600319360112610393576020906104f86104ee61170b565b60243590336117f8565b5160018152f35b90833461024157826003193601126102415761051961170b565b91836024359233815260016020522060018060a01b0384165f52602052835f205490828210610552576020856104f88585038733611952565b608490602086519162461bcd60e51b8352820152602560248201527f45524332303a2064656372656173656420616c6c6f77616e63652062656c6f77604482015264207a65726f60d81b6064820152fd5b9091503461036657602036600319011261036657828235926105c3611737565b6105d660ff600a54610275828216611d9d565b7f00000000000000000000000000000000000000000000000000000000000000006001600160a01b031690813b156103665784602484928387519586948593634f80fbdd60e11b85528401525af180156106715761065d575b507fe8de1e631ea541ac8e6cb398aafb71b991eb58d489298f7bc93ba7e17fa2042b6020848451908152a180f35b6106669061178f565b61036657825f61062f565b83513d84823e3d90fd5b839034610393578160031936011261039357805191809380549160019083821c92828516948515610757575b60209586861081146107445785895290811561072057506001146106e5575b6106e187876106d7828c03836117b6565b51918291826116c4565b0390f35b9080949750528583205b82841061070d57505050826106e1946106d7928201019486806106c6565b80548685018801529286019281016106ef565b60ff19168887015250505050151560051b83010192506106d7826106e186806106c6565b634e487b7160e01b845260228352602484fd5b93607f16936106a7565b91503461036657826003193601126103665761077b611737565b600a549061078b60ff8316611d9d565b82516370a0823160e01b815230918101919091526020816024817f00000000000000000000000000000000000000000000000000000000000000006001600160a01b03165afa90811561085157849161081c575b5060095561ffff191661010117600a55514281527fd681175168470800567b22d50d831df189686adc5b155827823a5ada6a97a4fe90602090a180f35b9290506020833d8211610849575b81610837602093836117b6565b8101031261034e5791516101016107df565b3d915061082a565b50505051903d90823e3d90fd5b83903461039357816003193601126103935760055490516001600160a01b039091168152602090f35b90915034610366578260031936011261036657600654916001600160a01b039133838516036108f65750506001600160a01b031991821660065560058054339381168417909155167f8be0079c531659141344cd1fd0a4f28419497f9722a3daafe3b4186f6b6457e05f80a380f35b906020608492519162461bcd60e51b8352820152602960248201527f4f776e61626c6532537465703a2063616c6c6572206973206e6f7420746865206044820152683732bb9037bbb732b960b91b6064820152fd5b839034610393578160031936011261039357602090517f00000000000000000000000000000000000000000000000000000000000000008152f35b8390346103935760203660031901126103935760209181906001600160a01b036109ae61170b565b168152600b845220549051908152f35b83346102415780600319360112610241576109d7611737565b600680546001600160a01b03199081169091556005805491821690555f906001600160a01b03167f8be0079c531659141344cd1fd0a4f28419497f9722a3daafe3b4186f6b6457e08280a380f35b8390346103935760203660031901126103935760209181906001600160a01b03610a4d61170b565b16815280845220549051908152f35b83903461039357816003193601126103935760207fe239024a023ea7c58b3973fa745ab8e45e2733ebb10f3e5c41112cfe754493f691610a9a611737565b6001600a54610aac60ff821615611a50565b60ff191617600a556008549051908152a180f35b915034610366576020366003190112610366577fdbbbb176683582b710ef3349793b8d62658724a9d9b54deccf193c4b0aa90c4c903591610aff611737565b610b0e60ff600a541615611a50565b6007548151908152836020820152a160075580f35b839034610393578160031936011261039357602090517f00000000000000000000000000000000000000000000000000000000000000008152f35b838234610393576020908160031936011261036657803590610b7e611737565b610b9160ff600a54610275828216611d9d565b84516370a0823160e01b815230828201526001600160a01b03907f00000000000000000000000000000000000000000000000000000000000000009085816024818686165afa908115610db3578791610d82575b508411610d4c5785807f0000000000000000000000000000000000000000000000000000000000000000928951828982019163095ea7b360e01b8352610c4181610c338c8a60248401611baf565b03601f1981018352826117b6565b51925af1610c4d611a8d565b81610d1c575b5015610cf4571690813b15610cf0578260248692838951958694859363745400c960e01b85528401525af18015610ce657610cb5575b507f3943fa4974de4196c692c87397a511446a82f2d2e61be40d73ecaae88fc7331c929351908152a180f35b92610ce07f3943fa4974de4196c692c87397a511446a82f2d2e61be40d73ecaae88fc7331c9461178f565b92610c89565b85513d86823e3d90fd5b8480fd5b865162461bcd60e51b81528084018690526002602482015261534160f01b6044820152606490fd5b80518015925087908315610d34575b50505088610c53565b610d449350820181019101611acb565b888681610d2b565b865162461bcd60e51b8152808401869052601060248201526f0a6a89e9c8a40dcdee840cadcdeeaced60831b6044820152606490fd5b90508581813d8311610dac575b610d9981836117b6565b81010312610da8575188610be5565b8680fd5b503d610d8f565b88513d89823e3d90fd5b8390346103935780600319360112610393576104f8602092610e06610de061170b565b338352600186528483206001600160a01b038216845286529184902054602435906117d7565b9033611952565b8390346103935781600319360112610393576020906007549051908152f35b8390346103935781600319360112610393576020905160128152f35b839034610393578160031936011261039357517f00000000000000000000000000000000000000000000000000000000000000006001600160a01b03168152602090f35b8390346103935781600319360112610393576020906008549051908152f35b8334610241576020366003190112610241575061044860209235610ed460ff600a541615611a50565b610f008130337f0000000000000000000000000000000000000000000000000000000000000000611ae3565b33611bca565b83823461039357606036600319011261039357610f2161170b565b610f29611721565b91846044359460018060a01b038416815260016020528181203382526020522054905f198203610f62575b6020866104f88787876117f8565b848210610f8b5750918391610f80602096956104f895033383611952565b919394819350610f54565b606490602087519162461bcd60e51b8352820152601d60248201527f45524332303a20696e73756666696369656e7420616c6c6f77616e63650000006044820152fd5b83903461039357816003193601126103935760209060ff600a5460081c1690519015158152f35b8390346103935781600319360112610393576020906002549051908152f35b915034610366578260031936011261036657600a549061103a60ff8360081c1615611d63565b6110847f00000000000000000000000000000000000000000000000000000000000000007f00000000000000000000000000000000000000000000000000000000000000006117d7565b421061114f5782516370a0823160e01b815230918101919091526020816024817f00000000000000000000000000000000000000000000000000000000000000006001600160a01b03165afa90811561085157849161111a575060095561ffff191661010117600a55514281527fd681175168470800567b22d50d831df189686adc5b155827823a5ada6a97a4fe90602090a180f35b9290506020833d8211611147575b81611135602093836117b6565b810103126103625791516101016107df565b3d9150611128565b606490602084519162461bcd60e51b8352820152601060248201526f63616e6e6f74207465726d696e61746560801b6044820152fd5b8390346103935780600319360112610393576020906104f86111a561170b565b6024359033611952565b90915034610366578260031936011261036657805191836003549060019082821c92828116801561127c575b60209586861082146112695750848852908115611247575060011461120c575b6106e186866106d7828b03836117b6565b929550600383528583205b82841061123457505050826106e1946106d792820101945f6111fb565b8054868501880152928601928101611217565b60ff191687860152505050151560051b83010192506106d7826106e15f6111fb565b634e487b7160e01b845260229052602483fd5b93607f16936111db565b9091503461036657602080600319360112610362578235906112a6611737565b6112b960ff600a54610275828216611d9d565b478211611395578251630d0e30db60e41b8152938190859081857f00000000000000000000000000000000000000000000000000000000000000006001600160a01b03165af190811561138b57859161133c575b7f0793979a87d9a8a3698d9afc4736042bcc2a41b10151127638dcdef36ede4ce194508351928352820152a180f35b80915084813d8311611384575b61135381836117b6565b81010312610cf0577f0793979a87d9a8a3698d9afc4736042bcc2a41b10151127638dcdef36ede4ce193519061130d565b503d611349565b83513d87823e3d90fd5b8360649184519162461bcd60e51b8352820152601060248201526f0cae8d0cae440dcdee840cadcdeeaced60831b6044820152fd5b83823461039357816003193601126103935760ff600a5460081c1615611650573382526020908282528383205460095480820290828204148215171561163d5760085490811561162a57049182156115f95733156115ac573385528484528585205482811061155e578290338752868652038686205581600254036002558486518381525f80516020611ddf833981519152863392a3848087518681019063a9059cbb60e01b825261148481610c33893360248401611baf565b5190827f00000000000000000000000000000000000000000000000000000000000000005af16114b2611a8d565b8161152e575b50156115065750916080917f5a13a50356887b0a6bec5f812e539967cf56e9bd2bf6c79671790f7eab11b8b19386338752600b8452808720548151943386528501528301526060820152a180f35b855162461bcd60e51b8152908101849052600260248201526114d560f21b6044820152606490fd5b80518015925086908315611546575b505050876114b8565b6115569350820181019101611acb565b87858161153d565b865162461bcd60e51b8152808301869052602260248201527f45524332303a206275726e20616d6f756e7420657863656564732062616c616e604482015261636560f01b6064820152608490fd5b855162461bcd60e51b8152908101849052602160248201527f45524332303a206275726e2066726f6d20746865207a65726f206164647265736044820152607360f81b6064820152608490fd5b855162461bcd60e51b8152908101849052600b60248201526a1e995c9bc8185b5bdd5b9d60aa1b6044820152606490fd5b634e487b7160e01b865260128452602486fd5b634e487b7160e01b855260118352602485fd5b606490602084519162461bcd60e51b8352820152600e60248201526d1b9bdd081d195c9b5a5b985d195960921b6044820152fd5b83903461039357816003193601126103935760209060ff600a541690519015158152f35b8490346103935781600319360112610393576020906009548152f35b602080825282518183018190529093925f5b8281106116f757505060409293505f838284010152601f8019910116010190565b8181018601518482016040015285016116d6565b600435906001600160a01b038216820361034e57565b602435906001600160a01b038216820361034e57565b6005546001600160a01b0316330361174b57565b606460405162461bcd60e51b815260206004820152602060248201527f4f776e61626c653a2063616c6c6572206973206e6f7420746865206f776e65726044820152fd5b6001600160401b0381116117a257604052565b634e487b7160e01b5f52604160045260245ffd5b90601f801991011681019081106001600160401b038211176117a257604052565b919082018092116117e457565b634e487b7160e01b5f52601160045260245ffd5b6001600160a01b039081169182156118ff57169182156118ae575f8281528060205260408120549180831061185a57604082825f80516020611ddf833981519152958760209652828652038282205586815220818154019055604051908152a3565b60405162461bcd60e51b815260206004820152602660248201527f45524332303a207472616e7366657220616d6f756e7420657863656564732062604482015265616c616e636560d01b6064820152608490fd5b60405162461bcd60e51b815260206004820152602360248201527f45524332303a207472616e7366657220746f20746865207a65726f206164647260448201526265737360e81b6064820152608490fd5b60405162461bcd60e51b815260206004820152602560248201527f45524332303a207472616e736665722066726f6d20746865207a65726f206164604482015264647265737360d81b6064820152608490fd5b6001600160a01b039081169182156119ff57169182156119af5760207f8c5be1e5ebec7d5bd14f71427d1e84f3dd0314c0f7b2291e5b200ac8c7c3b92591835f526001825260405f20855f5282528060405f2055604051908152a3565b60405162461bcd60e51b815260206004820152602260248201527f45524332303a20617070726f766520746f20746865207a65726f206164647265604482015261737360f01b6064820152608490fd5b60405162461bcd60e51b8152602060048201526024808201527f45524332303a20617070726f76652066726f6d20746865207a65726f206164646044820152637265737360e01b6064820152608490fd5b15611a5757565b60405162461bcd60e51b815260206004820152600e60248201526d19195c1bdcda5d081c185d5cd95960921b6044820152606490fd5b3d15611ac6573d906001600160401b0382116117a25760405191611abb601f8201601f1916602001846117b6565b82523d5f602084013e565b606090565b9081602091031261034e5751801515810361034e5790565b6040516323b872dd60e01b602082019081526001600160a01b03938416602483015292909316604484015260648084019490945292825260a0820192906001600160401b038411838510176117a2575f809493819460405251925af1611b47611a8d565b81611b80575b5015611b5557565b60405162461bcd60e51b815260206004820152600360248201526229aa2360e91b6044820152606490fd5b8051801592508215611b95575b50505f611b4d565b611ba89250602080918301019101611acb565b5f80611b8d565b6001600160a01b039091168152602081019190915260400190565b9091600754611bdb600854856117d7565b11611d385760018060a01b038216925f92848452602094600b8652604094611c0686822054856117d7565b7f000000000000000000000000000000000000000000000000000000000000000011611d0657818152600b8752858120611c418582546117d7565b9055611c4f846008546117d7565b6008558115611cc2575f80516020611ddf8339815191527ff087a71b778a7c3b329d6a6978cd75fa110d939b6979d54e7def8ce8018f7d53959697611c96866002546117d7565b6002558383528281528883208681540190558851868152a3611cbd82955192839283611baf565b0390a1565b855162461bcd60e51b815260048101889052601f60248201527f45524332303a206d696e7420746f20746865207a65726f2061646472657373006044820152606490fd5b855162461bcd60e51b815260048101889052600b60248201526a1b9bdd08185b1b1bddd95960aa1b6044820152606490fd5b60405162461bcd60e51b815260206004820152600360248201526206361760ec1b6044820152606490fd5b15611d6a57565b60405162461bcd60e51b815260206004820152600b60248201526a081d195c9b5a5b985d195960aa1b6044820152606490fd5b15611da457565b60405162461bcd60e51b815260206004820152601260248201527119195c1bdcda5d081b9bdd081c185d5cd95960721b6044820152606490fdfeddf252ad1be2c89b69c2b068fc378daa952ba7f163c4a11628f55a4df523b3efa2646970667358221220d390ce184a0db63d66d9df3e32e0173e71bc6f32618e3a8965289b3280cbcd8c64736f6c63430008150033",
  "immutableReferences": {
    "15692": [
      {
        "length": 32,
        "start": 1055
      },
      {
        "length": 32,
        "start": 1183
      },
      {
        "length": 32,
        "start": 1959
      },
      {
        "length": 32,
        "start": 2989
      },
      {
        "length": 32,
        "start": 3804
      },
      {
        "length": 32,
        "start": 4262
      },
      {
        "length": 32,
        "start": 5257
      }
    ],
    "15694": [
      {
        "length": 32,
        "start": 675
      },
      {
        "length": 32,
        "start": 1496
      },
      {
        "length": 32,
        "start": 3056
      },
      {
        "length": 32,
        "start": 3677
      },
      {
        "length": 32,
        "start": 4821
      }
    ],
    "15697": [
      {
        "length": 32,
        "start": 2875
      },
      {
        "length": 32,
        "start": 4159
      }
    ],
    "15699": [
      {
        "length": 32,
        "start": 2403
      },
      {
        "length": 32,
        "start": 4192
      }
    ],
    "15701": [
      {
        "length": 32,
        "start": 1127
      },
      {
        "length": 32,
        "start": 7176
      }
    ]
  },
  "source": "// SPDX-License-Identifier: MIT\npragma solidity 0.8.21;\n\nimport {IStoneVault} from \"../interfaces/IStoneVault.sol\";\nimport {IERC20} from \"@openzeppelin/contracts/token/ERC20/IERC20.sol\";\nimport {ERC20} from \"@openzeppelin/contracts/token/ERC20/ERC20.sol\";\n\nimport {TransferHelper} from \"@uniswap/v3-periphery/contracts/libraries/TransferHelper.sol\";\nimport {Ownable2Step} from \"@openzeppelin/contracts/access/Ownable2Step.sol\";\n\ncontract StoneCarnival is ERC20, Ownable2Step {\n    address public immutable stoneAddr;\n    address public immutable stoneVaultAddr;\n\n    uint256 public immutable lockPeriod = 90 days;\n    uint256 public immutable startTime;\n    uint256 public immutable minStoneAllowed;\n\n    uint256 public cap;\n    uint256 public totalStoneDeposited;\n    uint256 public finalStoneAmount;\n\n    bool public depositPaused;\n    bool public terminated;\n\n    mapping(address => uint256) public stoneDeposited;\n\n    event StoneDeposited(address _user, uint256 _amount);\n    event StoneWithdrawn(\n        address _user,\n        uint256 _amount,\n        uint256 _burnAmount,\n        uint256 _withAmount\n    );\n    event RequestMade(uint256 _amount);\n    event DepositMade(uint256 _ethAmount, uint256 _stoneAmount);\n    event ETHWithdrawn(uint256 _amount);\n    event DepositPause(uint256 totalStone);\n    event WithdrawalCancelled(uint256 _amount);\n    event Terminate(uint256 timestamp);\n    event SetCap(uint256 oldCap, uint256 newCap);\n\n    constructor(\n        address _stoneAddr,\n        address _stoneVaultAddr,\n        uint256 _cap,\n        uint256 _minStoneAllowed\n    ) ERC20(\"STONE Carnival LP\", \"cSTONE\") {\n        require(\n            _stoneAddr != address(0) && _stoneVaultAddr != address(0),\n            \"invalid addr\"\n        );\n\n        stoneAddr = _stoneAddr;\n        stoneVaultAddr = _stoneVaultAddr;\n        cap = _cap;\n        startTime = block.timestamp;\n        minStoneAllowed = _minStoneAllowed;\n    }\n\n    modifier DepositNotPaused() {\n        require(!depositPaused, \"deposit paused\");\n        _;\n    }\n\n    modifier DepositPaused() {\n        require(depositPaused, \"deposit not paused\");\n        _;\n    }\n\n    modifier OnlyTerminated() {\n        require(terminated, \"not terminated\");\n        _;\n    }\n\n    modifier NotTerminated() {\n        require(!terminated, \" terminated\");\n        _;\n    }\n\n    function depositStone(\n        uint256 _amount\n    ) external DepositNotPaused returns (uint256 cStoneAmount) {\n        TransferHelper.safeTransferFrom(\n            stoneAddr,\n            msg.sender,\n            address(this),\n            _amount\n        );\n\n        cStoneAmount = _depositStone(msg.sender, _amount);\n    }\n\n    function depositStoneFor(\n        address _user,\n        uint256 _amount\n    ) external DepositNotPaused returns (uint256 cStoneAmount) {\n        TransferHelper.safeTransferFrom(\n            stoneAddr,\n            msg.sender,\n            address(this),\n            _amount\n        );\n\n        cStoneAmount = _depositStone(_user, _amount);\n    }\n\n    function _depositStone(\n        address _user,\n        uint256 _amount\n    ) internal returns (uint256 cStoneAmount) {\n        require(cap >= _amount + totalStoneDeposited, \"cap\");\n        require(\n            _amount + stoneDeposited[_user] >= minStoneAllowed,\n            \"not allowed\"\n        );\n\n        stoneDeposited[_user] += _amount;\n        totalStoneDeposited += _amount;\n\n        _mint(_user, _amount);\n\n        cStoneAmount = _amount;\n\n        emit StoneDeposited(_user, _amount);\n    }\n\n    function withdrawStone() external OnlyTerminated {\n        uint256 stoneShare = balanceOf(msg.sender);\n\n        uint256 stoneAmountWith = (stoneShare * finalStoneAmount) /\n            totalStoneDeposited;\n\n        require(stoneAmountWith != 0, \"zero amount\");\n\n        _burn(msg.sender, stoneShare);\n\n        TransferHelper.safeTransfer(stoneAddr, msg.sender, stoneAmountWith);\n\n        emit StoneWithdrawn(\n            msg.sender,\n            stoneDeposited[msg.sender],\n            stoneShare,\n            stoneAmountWith\n        );\n    }\n\n    function terminate() external NotTerminated {\n        require(block.timestamp >= startTime + lockPeriod, \"cannot terminate\");\n\n        finalStoneAmount = IERC20(stoneAddr).balanceOf(address(this));\n\n        depositPaused = true;\n        terminated = true;\n\n        emit Terminate(block.timestamp);\n    }\n\n    function setCap(uint256 _cap) external onlyOwner DepositNotPaused {\n        emit SetCap(cap, _cap);\n        cap = _cap;\n    }\n\n    function forceTerminate() external onlyOwner DepositPaused {\n        finalStoneAmount = IERC20(stoneAddr).balanceOf(address(this));\n\n        depositPaused = true;\n        terminated = true;\n\n        emit Terminate(block.timestamp);\n    }\n\n    function pauseDeposit() external onlyOwner DepositNotPaused {\n        depositPaused = true;\n\n        emit DepositPause(totalStoneDeposited);\n    }\n\n    function makeRequest(\n        uint256 _amount\n    ) external onlyOwner DepositPaused NotTerminated {\n        require(\n            _amount <= IERC20(stoneAddr).balanceOf(address(this)),\n            \"STONE not enough\"\n        );\n\n        TransferHelper.safeApprove(stoneAddr, stoneVaultAddr, _amount);\n        IStoneVault(stoneVaultAddr).requestWithdraw(_amount);\n\n        emit RequestMade(_amount);\n    }\n\n    function withdrawETH(\n        uint256 _amount\n    ) external onlyOwner DepositPaused NotTerminated {\n        uint256 amount = IStoneVault(stoneVaultAddr).instantWithdraw(\n            _amount,\n            0\n        );\n\n        emit ETHWithdrawn(amount);\n    }\n\n    function cancelWithdraw(\n        uint256 _amount\n    ) external onlyOwner DepositPaused NotTerminated {\n        IStoneVault(stoneVaultAddr).cancelWithdraw(_amount);\n\n        emit WithdrawalCancelled(_amount);\n    }\n\n    function makeDeposit(\n        uint256 _amount\n    ) external onlyOwner DepositPaused NotTerminated {\n        require(_amount <= address(this).balance, \"ether not enough\");\n\n        uint256 stoneAmount = IStoneVault(stoneVaultAddr).deposit{\n            value: _amount\n        }();\n\n        emit DepositMade(_amount, stoneAmount);\n    }\n\n    receive() external payable {}\n}\n",
  "sourcePath": "/Users/mingyuzhang/Downloads/stone-vault-v1/contracts/mining/StoneCarnival.sol",
  "compiler": {
    "name": "solc",
    "version": "0.8.21+commit.d9974bed.Emscripten.clang"
  },
  "schemaVersion": "3.4.16",
  "updatedAt": "2024-06-07T05:41:32.630Z",
  "devdoc": {
    "events": {
      "Approval(address,address,uint256)": {
        "details": "Emitted when the allowance of a `spender` for an `owner` is set by a call to {approve}. `value` is the new allowance."
      },
      "Transfer(address,address,uint256)": {
        "details": "Emitted when `value` tokens are moved from one account (`from`) to another (`to`). Note that `value` may be zero."
      }
    },
    "kind": "dev",
    "methods": {
      "acceptOwnership()": {
        "details": "The new owner accepts the ownership transfer."
      },
      "allowance(address,address)": {
        "details": "See {IERC20-allowance}."
      },
      "approve(address,uint256)": {
        "details": "See {IERC20-approve}. NOTE: If `amount` is the maximum `uint256`, the allowance is not updated on `transferFrom`. This is semantically equivalent to an infinite approval. Requirements: - `spender` cannot be the zero address."
      },
      "balanceOf(address)": {
        "details": "See {IERC20-balanceOf}."
      },
      "decimals()": {
        "details": "Returns the number of decimals used to get its user representation. For example, if `decimals` equals `2`, a balance of `505` tokens should be displayed to a user as `5.05` (`505 / 10 ** 2`). Tokens usually opt for a value of 18, imitating the relationship between Ether and Wei. This is the default value returned by this function, unless it's overridden. NOTE: This information is only used for _display_ purposes: it in no way affects any of the arithmetic of the contract, including {IERC20-balanceOf} and {IERC20-transfer}."
      },
      "decreaseAllowance(address,uint256)": {
        "details": "Atomically decreases the allowance granted to `spender` by the caller. This is an alternative to {approve} that can be used as a mitigation for problems described in {IERC20-approve}. Emits an {Approval} event indicating the updated allowance. Requirements: - `spender` cannot be the zero address. - `spender` must have allowance for the caller of at least `subtractedValue`."
      },
      "increaseAllowance(address,uint256)": {
        "details": "Atomically increases the allowance granted to `spender` by the caller. This is an alternative to {approve} that can be used as a mitigation for problems described in {IERC20-approve}. Emits an {Approval} event indicating the updated allowance. Requirements: - `spender` cannot be the zero address."
      },
      "name()": {
        "details": "Returns the name of the token."
      },
      "owner()": {
        "details": "Returns the address of the current owner."
      },
      "pendingOwner()": {
        "details": "Returns the address of the pending owner."
      },
      "renounceOwnership()": {
        "details": "Leaves the contract without owner. It will not be possible to call `onlyOwner` functions. Can only be called by the current owner. NOTE: Renouncing ownership will leave the contract without an owner, thereby disabling any functionality that is only available to the owner."
      },
      "symbol()": {
        "details": "Returns the symbol of the token, usually a shorter version of the name."
      },
      "totalSupply()": {
        "details": "See {IERC20-totalSupply}."
      },
      "transfer(address,uint256)": {
        "details": "See {IERC20-transfer}. Requirements: - `to` cannot be the zero address. - the caller must have a balance of at least `amount`."
      },
      "transferFrom(address,address,uint256)": {
        "details": "See {IERC20-transferFrom}. Emits an {Approval} event indicating the updated allowance. This is not required by the EIP. See the note at the beginning of {ERC20}. NOTE: Does not update the allowance if the current allowance is the maximum `uint256`. Requirements: - `from` and `to` cannot be the zero address. - `from` must have a balance of at least `amount`. - the caller must have allowance for ``from``'s tokens of at least `amount`."
      },
      "transferOwnership(address)": {
        "details": "Starts the ownership transfer of the contract to a new account. Replaces the pending transfer if there is one. Can only be called by the current owner."
      }
    },
    "version": 1
  },
  "userdoc": {
    "kind": "user",
    "methods": {},
    "version": 1
  }
}