{
  "contractName": "StrategyController",
  "abi": [
    {
      "inputs": [
        {
          "internalType": "address payable",
          "name": "_assetsVault",
          "type": "address"
        },
        {
          "internalType": "address[]",
          "name": "_strategies",
          "type": "address[]"
        },
        {
          "internalType": "uint256[]",
          "name": "_ratios",
          "type": "uint256[]"
        }
      ],
      "stateMutability": "nonpayable",
      "type": "constructor"
    },
    {
      "inputs": [],
      "name": "assetsVault",
      "outputs": [
        {
          "internalType": "address payable",
          "name": "",
          "type": "address"
        }
      ],
      "stateMutability": "view",
      "type": "function"
    },
    {
      "inputs": [
        {
          "internalType": "address",
          "name": "",
          "type": "address"
        }
      ],
      "name": "ratios",
      "outputs": [
        {
          "internalType": "uint256",
          "name": "",
          "type": "uint256"
        }
      ],
      "stateMutability": "view",
      "type": "function"
    },
    {
      "inputs": [],
      "name": "stoneVault",
      "outputs": [
        {
          "internalType": "address",
          "name": "",
          "type": "address"
        }
      ],
      "stateMutability": "view",
      "type": "function"
    },
    {
      "stateMutability": "payable",
      "type": "receive"
    },
    {
      "inputs": [
        {
          "internalType": "uint256",
          "name": "_amount",
          "type": "uint256"
        }
      ],
      "name": "forceWithdraw",
      "outputs": [
        {
          "internalType": "uint256",
          "name": "actualAmount",
          "type": "uint256"
        }
      ],
      "stateMutability": "nonpayable",
      "type": "function"
    },
    {
      "inputs": [
        {
          "internalType": "address[]",
          "name": "_strategies",
          "type": "address[]"
        },
        {
          "internalType": "uint256[]",
          "name": "_ratios",
          "type": "uint256[]"
        }
      ],
      "name": "setStrategies",
      "outputs": [],
      "stateMutability": "nonpayable",
      "type": "function"
    },
    {
      "inputs": [
        {
          "internalType": "address",
          "name": "_strategy",
          "type": "address"
        }
      ],
      "name": "addStrategy",
      "outputs": [],
      "stateMutability": "nonpayable",
      "type": "function"
    },
    {
      "inputs": [
        {
          "internalType": "uint256",
          "name": "_in",
          "type": "uint256"
        },
        {
          "internalType": "uint256",
          "name": "_out",
          "type": "uint256"
        }
      ],
      "name": "rebaseStrategies",
      "outputs": [],
      "stateMutability": "payable",
      "type": "function"
    },
    {
      "inputs": [
        {
          "internalType": "address",
          "name": "_strategy",
          "type": "address"
        }
      ],
      "name": "destroyStrategy",
      "outputs": [],
      "stateMutability": "nonpayable",
      "type": "function"
    },
    {
      "inputs": [
        {
          "internalType": "address",
          "name": "_strategy",
          "type": "address"
        }
      ],
      "name": "getStrategyValue",
      "outputs": [
        {
          "internalType": "uint256",
          "name": "_value",
          "type": "uint256"
        }
      ],
      "stateMutability": "nonpayable",
      "type": "function"
    },
    {
      "inputs": [
        {
          "internalType": "address",
          "name": "_strategy",
          "type": "address"
        }
      ],
      "name": "getStrategyValidValue",
      "outputs": [
        {
          "internalType": "uint256",
          "name": "_value",
          "type": "uint256"
        }
      ],
      "stateMutability": "nonpayable",
      "type": "function"
    },
    {
      "inputs": [
        {
          "internalType": "address",
          "name": "_strategy",
          "type": "address"
        }
      ],
      "name": "getStrategyPendingValue",
      "outputs": [
        {
          "internalType": "uint256",
          "name": "_value",
          "type": "uint256"
        }
      ],
      "stateMutability": "nonpayable",
      "type": "function"
    },
    {
      "inputs": [],
      "name": "getAllStrategiesValue",
      "outputs": [
        {
          "internalType": "uint256",
          "name": "_value",
          "type": "uint256"
        }
      ],
      "stateMutability": "nonpayable",
      "type": "function"
    },
    {
      "inputs": [],
      "name": "getAllStrategyValidValue",
      "outputs": [
        {
          "internalType": "uint256",
          "name": "_value",
          "type": "uint256"
        }
      ],
      "stateMutability": "nonpayable",
      "type": "function"
    },
    {
      "inputs": [],
      "name": "getAllStrategyPendingValue",
      "outputs": [
        {
          "internalType": "uint256",
          "name": "_value",
          "type": "uint256"
        }
      ],
      "stateMutability": "nonpayable",
      "type": "function"
    },
    {
      "inputs": [],
      "name": "getStrategies",
      "outputs": [
        {
          "internalType": "address[]",
          "name": "addrs",
          "type": "address[]"
        },
        {
          "internalType": "uint256[]",
          "name": "portions",
          "type": "uint256[]"
        }
      ],
      "stateMutability": "view",
      "type": "function"
    },
    {
      "inputs": [
        {
          "internalType": "address",
          "name": "_strategy",
          "type": "address"
        }
      ],
      "name": "clearStrategy",
      "outputs": [],
      "stateMutability": "nonpayable",
      "type": "function"
    },
    {
      "inputs": [
        {
          "internalType": "address",
          "name": "_vault",
          "type": "address"
        }
      ],
      "name": "setNewVault",
      "outputs": [],
      "stateMutability": "nonpayable",
      "type": "function"
    }
  ],
  "bytecode": "0x604060a0815234620002a957620018a7803803806200001e81620002c7565b928339810190606081830312620002a95780516001600160a01b03808216939091848103620002a9576020848101519095906001600160401b0390818111620002a95786019584601f88011215620002a95786519662000088620000828962000301565b620002c7565b9789808a838152019160051b83010191878311620002a9578a01905b828210620002ad5750505088810151918211620002a957019280601f85011215620002a9578351620000da620000828262000301565b94888087848152019260051b820101928311620002a95788809101915b8383106200029857505050506200011090151562000319565b83515f5b8181106200026c5750505f80546001600160a01b031916331790556080528251815103620002375790915f9181519183945b838610620001b1578787620f424087116200018157505161149490816200041382396080518181816103fc01528181610c8e01526111b20152f35b606491519062461bcd60e51b82526004820152600b60248201526a657863656564203130302560a81b6044820152fd5b90919293620001ce82620001c6888662000364565b51166200038d565b50620001db868562000364565b5182620001e9888662000364565b51165f5260038852885f205562000201868562000364565b518101809111620002235762000218909562000355565b949392919062000146565b634e487b7160e01b5f52601160045260245ffd5b845162461bcd60e51b815260048101859052600e60248201526d0d2dcecc2d8d2c840d8cadccee8d60931b6044820152606490fd5b806200028c866200028262000292948a62000364565b5116151562000319565b62000355565b62000114565b8251815291810191899101620000f7565b5f80fd5b81518981168103620002a9578152908a01908a01620000a4565b6040519190601f01601f191682016001600160401b03811183821017620002ed57604052565b634e487b7160e01b5f52604160045260245ffd5b6001600160401b038111620002ed5760051b60200190565b156200032157565b60405162461bcd60e51b815260206004820152600c60248201526b5a45524f204144445245535360a01b6044820152606490fd5b5f198114620002235760010190565b8051821015620003795760209160051b010190565b634e487b7160e01b5f52603260045260245ffd5b5f9080825260026020526040822054155f146200040e57600191825468010000000000000000811015620003fa57838101808555811015620003e657908260409285835260208320015583549281526002602052205590565b634e487b7160e01b82526032600452602482fd5b634e487b7160e01b82526041600452602482fd5b509056fe6040608081526004908136101561001f575b5050361561001d575f80fd5b005b5f91823560e01c9081630fcc56f714610e07578163223e547914610d8057816324c71ece14610d485781633b30f9c4146108c75781633fea70a7146105c0578163717dd445146104ce578163768aac5d1461042b575080637b0c1f29146103e85780639841ab00146103c35780639d241e7a1461036a578063b49a60bb14610228578063ba93ec2914610201578063e7b77f70146101b7578063f111a5c314610192578063f25ddb621461016d578063f41d7a18146101085763f837df250361001157346101045781600319360112610104576020906100fd61132b565b9051908152f35b5080fd5b50346101045781600319360112610104578190600154925b838110610131576020838351908152f35b916101626101689161015c6101458661109d565b905460039190911b1c6001600160a01b03166112f6565b90611090565b92611144565b610120565b5034610104576020366003190112610104576020906100fd61018d610fa7565b6112c0565b5034610104576020366003190112610104576020906100fd6101b2610fa7565b6112f6565b82346101fe5760203660031901126101fe576101d1610fa7565b8154906001600160a01b03906101ea8284163314611037565b6001600160a01b0319909216911617815580f35b80fd5b5034610104578160031936011261010457905490516001600160a01b039091168152602090f35b5034610104578160031936011261010457600180549261024784611020565b9261025481519485610fff565b84845261026085611020565b601f19956020868101939092880136853761027a82611020565b9161028782519384610fff565b80835261029381611020565b8385019901368a37855b81811061031257505080519681880191885251809152606087019390855b8181106102f657505050858303868301525180835291810195925b8281106102e35785870386f35b83518752958101959281019284016102d6565b82516001600160a01b03168652948401949184019187016102bb565b80610345818b61032b61035e959e9c9e9b999a9b61109d565b905460039491851b1c6001600160a01b0316928392611165565b5287528752838620546103588287611165565b52611144565b9896989594939561029d565b50346101045781600319360112610104578190600154925b838110610393576020838351908152f35b916101626103be9161015c6103a78661109d565b905460039190911b1c6001600160a01b0316611251565b610382565b5034610104576020366003190112610104576020906100fd6103e3610fa7565b611251565b5034610104578160031936011261010457517f00000000000000000000000000000000000000000000000000000000000000006001600160a01b03168152602090f35b919050346104ca5760203660031901126104ca5760205f9261044b610fa7565b85546001600160a01b039291906104659084163314611037565b8451632977f53760e11b81529586938492165af19081156104c15750610492575b5061048f611179565b80f35b602090813d81116104ba575b6104a88183610fff565b810103126104b6575f610486565b5f80fd5b503d61049e565b513d5f823e3d90fd5b8280fd5b9050346104ca576020806003193601126105bc576104ea610fa7565b84546001600160a01b0391906105039083163314611037565b169283855260038252808520541580610556575b15610526578461048685611376565b5162461bcd60e51b815291820152600c60248201526b7374696c6c2061637469766560a01b604482015260649150fd5b508051637654f7ab60e01b81528281858189895af180156105b2578690610583575b612710915010610517565b508281813d83116105ab575b6105998183610fff565b810103126104b6576127109051610578565b503d61058f565b82513d88823e3d90fd5b8380fd5b919050346104ca57806003193601126104ca578135906001600160401b03908183116108c357366023840112156108c357828401359160249361060284611020565b9061060f84519283610fff565b848252602094868684019160051b8301019136831161089c578701905b8282106108a45750505084359182116108a057366023830112156108a057818601359161065883611020565b9261066585519485610fff565b808452868685019160051b8301019136831161089c5787879101915b83831061088c57505088546001600160a01b039492506106a5915084163314611037565b81519181518303610859579190600154895b818110610826575050889289945b83861061070c5750505050620f42409150116106df578480f35b5162461bcd60e51b815292830152600b908201526a657863656564203130302560a81b6044820152606490fd5b9091929389888361071d8987611165565b511689519283809263f77c479160e01b82525afa90811561081c578c916107e2575b5082309116036107aa5761079a6107a0916107658461075e8a88611165565b51166110c9565b508c896107728a89611165565b51918661077f8c8a611165565b5116815260038d5220556107938887611165565b5190611090565b95611144565b94939291906106c5565b865162461bcd60e51b8152808b018990526013818b0152720c6dedce8e4ded8d8cae440dad2e6dac2e8c6d606b1b6044820152606490fd5b90508881813d8311610815575b6107f98183610fff565b8101031261081157518281168103610811575f61073f565b8b80fd5b503d6107ef565b88513d8e823e3d90fd5b8086610838610850939795969761109d565b919054600392831b1c168d5289528b88812055611144565b939291936106b7565b845162461bcd60e51b8152808901879052600e818901526d0d2dcecc2d8d2c840d8cadccee8d60931b6044820152606490fd5b8235815291810191879101610681565b8980fd5b8680fd5b81356001600160a01b03811681036104b657815290860190860161062c565b8480fd5b9050816003193601126104ca57803591602480359360018060a01b03946108f2868854163314611037565b811580159081610d40575b15610d0357610c8a575b61090f61132b565b81811015610c725750505084935b60019485549061092c82611020565b9661093986519889610fff565b828852601f1961094884611020565b01895b818110610c4b575089925f199150848201858111610c39578b9485949392905b878710610aa0575050505050505050845194865b86811061098f578761048f611179565b8761099a8284611165565b51848782019182518015610a925760208281015190919015610a2757505047835111610a1f575b5116905190803b156104ca57829089895180948193630d0e30db60e41b83525af18015610a15576109fd575b50506109f890611144565b61097f565b610a0690610fbd565b610a1157875f6109ed565b8780fd5b87513d84823e3d90fd5b4783526109c1565b93509350908391511691878a8d8b519586948593632e1a7d4d60e01b85528401525af18015610a8857610a5f5750506109f890611144565b813d8311610a81575b610a728183610fff565b810103126104b6575f806109ed565b503d610a68565b87513d8c823e3d90fd5b50505050506109f890611144565b8c8c8c8b610aad8b61109d565b919054600392831b1c1692838b52602092828452808c205415610bbe575050828a5281528d620f4240610ae3828c205488611152565b04610aed846112c0565b80821015610b475793610b35938795938d610b10610b3b9995610b419b9761106f565b92825194610b1d86610fe4565b8552840152820152610b2f8383611165565b52611165565b50611144565b96611144565b9561096b565b959b949290918a83888b979511610b6a575b50505050505050610b419150611144565b610b789798610b109161106f565b5082158015610b8f575b838e82808f8a8796610b59565b9093949550919091610bac578c9493929083019190610b41610b82565b634e487b7160e01b8d5260118b52888dfd5b90915082959b969798999a505f94509291925180948193632977f53760e11b83525af18015610c2f57908f97969594939291610c00575b5050610b4190611144565b90809297503d8311610c28575b610c178183610fff565b810103126104b6578c945f80610bf5565b503d610c0d565b8c513d5f823e3d90fd5b634e487b7160e01b8c5260118a52878cfd5b6020908851610c5981610fe4565b8c8152828d818301528d8b830152828d0101520161094b565b610c8492610c7f91611090565b61106f565b9361091d565b86867f000000000000000000000000000000000000000000000000000000000000000016803b15610104578190604487518094819363f3fef3a360e01b8352308c840152888a8401525af18015610cf957610ce6575b50610907565b610cf290979197610fbd565b955f610ce0565b85513d8a823e3d90fd5b845162461bcd60e51b8152602081880152601881860152776f6e6c79206465706f736974206f7220776974686472617760401b6044820152606490fd5b5081156108fd565b5050346101045760203660031901126101045760209181906001600160a01b03610d70610fa7565b1681526003845220549051908152f35b9050346104ca5760203660031901126104ca57610d9b610fa7565b83546001600160a01b039190610db49083163314611037565b1691828452600260205280842054610dd45783610dd0846110c9565b5080f35b906020606492519162461bcd60e51b8352820152600d60248201526c185b1c9958591e48195e1a5cdd609a1b6044820152fd5b8284346101fe57602092836003193601126101045781548135926001600160a01b0391610e379083163314611037565b4791848310610e5257505050506100fd611179565b51908152f35b90919295949383610e629161106f565b918096600154938290835b868110610f785750835b868110610e9e5750505050505050610e98919293610e93611179565b611090565b90610e4c565b85610ea88261109d565b919054600392831b1c16908187528b52610ec58a87205484611152565b8415610f655784900480610ee4575b5050610edf90611144565b610e77565b869160248d92949e948d519485938492637ec95ff960e11b84528b8401525af1908115610f5b578691610f28575b50610edf91610f2091611090565b9a908c610ed4565b90508a81813d8311610f54575b610f3f8183610fff565b81010312610f505751610edf610f12565b8580fd5b503d610f35565b8a513d88823e3d90fd5b634e487b7160e01b875260128652602487fd5b91610162610fa29187610f8a8661109d565b919054600392831b1c1688528c528a87205490611090565b610e6d565b600435906001600160a01b03821682036104b657565b6001600160401b038111610fd057604052565b634e487b7160e01b5f52604160045260245ffd5b606081019081106001600160401b03821117610fd057604052565b90601f801991011681019081106001600160401b03821117610fd057604052565b6001600160401b038111610fd05760051b60200190565b1561103e57565b60405162461bcd60e51b81526020600482015260096024820152681b9bdd081d985d5b1d60ba1b6044820152606490fd5b9190820391821161107c57565b634e487b7160e01b5f52601160045260245ffd5b9190820180921161107c57565b6001548110156110b55760015f5260205f2001905f90565b634e487b7160e01b5f52603260045260245ffd5b5f8181526002602052604081205461113f57600154600160401b81101561112b5790826111176111018460016040960160015561109d565b819391549060031b91821b915f19901b19161790565b905560015492815260026020522055600190565b634e487b7160e01b82526041600452602482fd5b905090565b5f19811461107c5760010190565b8181029291811591840414171561107c57565b80518210156110b55760209160051b010190565b4761118057565b4760405160208101906001600160401b039181811083821117610fd0576040525f808080958180955260018060a01b037f0000000000000000000000000000000000000000000000000000000000000000165af1913d1561124a573d91821161123657604051916111fb601f8201601f191660200184610fff565b825260203d92013e5b1561120b57565b60405162461bcd60e51b815260206004820152600360248201526253544560e81b6044820152606490fd5b634e487b7160e01b81526041600452602490fd5b5050611204565b604051637654f7ab60e01b815290602090829060049082905f906001600160a01b03165af19081156112b5575f91611287575090565b906020823d82116112ad575b816112a060209383610fff565b810103126101fe57505190565b3d9150611293565b6040513d5f823e3d90fd5b604051631b08ead360e21b815290602090829060049082905f906001600160a01b03165af19081156112b5575f91611287575090565b604051621a559760e01b815290602090829060049082905f906001600160a01b03165af19081156112b5575f91611287575090565b5f906001545f905b80821061133e575050565b909261136a6113709161015c6113538761109d565b905460039190911b1c6001600160a01b03166112c0565b93611144565b90611333565b5f818152600260205260408120549091908015611459575f19908082018181116114455760015490838201918211611431578082036113fd575b50505060015480156113e9578101906113c88261109d565b909182549160031b1b19169055600155815260026020526040812055600190565b634e487b7160e01b84526031600452602484fd5b61141b61140c6111019361109d565b90549060031b1c92839261109d565b90558452600260205260408420555f80806113b0565b634e487b7160e01b86526011600452602486fd5b634e487b7160e01b85526011600452602485fd5b50509056fea26469706673582212208af23117c4ea509a038488e05413c83b2919c8e678c5f910a30cdf3d8867f43e64736f6c63430008150033",
  "immutableReferences": {
    "1923": [
      {
        "length": 32,
        "start": 1020
      },
      {
        "length": 32,
        "start": 3214
      },
      {
        "length": 32,
        "start": 4530
      }
    ]
  },
  "source": "// SPDX-License-Identifier: MIT\npragma solidity 0.8.21;\n\nimport {EnumerableSet} from \"@openzeppelin/contracts/utils/structs/EnumerableSet.sol\";\nimport {TransferHelper} from \"@uniswap/v3-periphery/contracts/libraries/TransferHelper.sol\";\n\nimport {Strategy} from \"./Strategy.sol\";\nimport {AssetsVault} from \"../AssetsVault.sol\";\n\ncontract StrategyController {\n    using EnumerableSet for EnumerableSet.AddressSet;\n\n    uint256 internal constant ONE_HUNDRED_PERCENT = 1e6;\n\n    address public stoneVault;\n    address payable public immutable assetsVault;\n\n    EnumerableSet.AddressSet private strategies;\n\n    mapping(address => uint256) public ratios;\n\n    struct StrategyDiff {\n        address strategy;\n        bool isDeposit;\n        uint256 amount;\n    }\n\n    modifier onlyVault() {\n        require(stoneVault == msg.sender, \"not vault\");\n        _;\n    }\n\n    constructor(\n        address payable _assetsVault,\n        address[] memory _strategies,\n        uint256[] memory _ratios\n    ) {\n        require(_assetsVault != address(0), \"ZERO ADDRESS\");\n\n        uint256 length = _strategies.length;\n        for (uint256 i; i < length; i++) {\n            require(_strategies[i] != address(0), \"ZERO ADDRESS\");\n        }\n\n        stoneVault = msg.sender;\n        assetsVault = _assetsVault;\n\n        _initStrategies(_strategies, _ratios);\n    }\n\n    function forceWithdraw(\n        uint256 _amount\n    ) external onlyVault returns (uint256 actualAmount) {\n        uint256 balanceBeforeRepay = address(this).balance;\n\n        if (balanceBeforeRepay >= _amount) {\n            _repayToVault();\n\n            actualAmount = _amount;\n        } else {\n            actualAmount =\n                _forceWithdraw(_amount - balanceBeforeRepay) +\n                balanceBeforeRepay;\n        }\n    }\n\n    function setStrategies(\n        address[] memory _strategies,\n        uint256[] memory _ratios\n    ) external onlyVault {\n        _setStrategies(_strategies, _ratios);\n    }\n\n    function addStrategy(address _strategy) external onlyVault {\n        require(!strategies.contains(_strategy), \"already exist\");\n\n        strategies.add(_strategy);\n    }\n\n    function rebaseStrategies(\n        uint256 _in,\n        uint256 _out\n    ) external payable onlyVault {\n        _rebase(_in, _out);\n    }\n\n    function destroyStrategy(address _strategy) external onlyVault {\n        _destoryStrategy(_strategy);\n    }\n\n    function _rebase(uint256 _in, uint256 _out) internal {\n        require(_in == 0 || _out == 0, \"only deposit or withdraw\");\n\n        if (_in != 0) {\n            AssetsVault(assetsVault).withdraw(address(this), _in);\n        }\n        uint256 total = getAllStrategyValidValue();\n        if (total < _out) {\n            total = 0;\n        } else {\n            total = total + _in - _out;\n        }\n\n        uint256 length = strategies.length();\n        StrategyDiff[] memory diffs = new StrategyDiff[](length);\n        uint256 head;\n        uint256 tail = length - 1;\n        for (uint i; i < length; i++) {\n            address strategy = strategies.at(i);\n            if (ratios[strategy] == 0) {\n                _clearStrategy(strategy, true);\n                continue;\n            }\n            uint256 newPosition = (total * ratios[strategy]) /\n                ONE_HUNDRED_PERCENT;\n            uint256 position = getStrategyValidValue(strategy);\n\n            if (newPosition < position) {\n                diffs[head] = StrategyDiff(\n                    strategy,\n                    false,\n                    position - newPosition\n                );\n                head++;\n            } else if (newPosition > position) {\n                diffs[tail] = StrategyDiff(\n                    strategy,\n                    true,\n                    newPosition - position\n                );\n                if (tail != 0) {\n                    tail--;\n                }\n            }\n        }\n\n        length = diffs.length;\n        for (uint256 i; i < length; i++) {\n            StrategyDiff memory diff = diffs[i];\n\n            if (diff.amount == 0) {\n                continue;\n            }\n\n            if (diff.isDeposit) {\n                if (address(this).balance < diff.amount) {\n                    diff.amount = address(this).balance;\n                }\n                _depositToStrategy(diff.strategy, diff.amount);\n            } else {\n                _withdrawFromStrategy(diff.strategy, diff.amount);\n            }\n        }\n\n        _repayToVault();\n    }\n\n    function _repayToVault() internal {\n        if (address(this).balance != 0) {\n            TransferHelper.safeTransferETH(assetsVault, address(this).balance);\n        }\n    }\n\n    function _depositToStrategy(address _strategy, uint256 _amount) internal {\n        Strategy(_strategy).deposit{value: _amount}();\n    }\n\n    function _withdrawFromStrategy(\n        address _strategy,\n        uint256 _amount\n    ) internal {\n        Strategy(_strategy).withdraw(_amount);\n    }\n\n    function _forceWithdraw(\n        uint256 _amount\n    ) internal returns (uint256 actualAmount) {\n        uint256 length = strategies.length();\n\n        uint256 allRatios;\n        for (uint i; i < length; i++) {\n            address strategy = strategies.at(i);\n            allRatios += ratios[strategy];\n        }\n\n        for (uint i; i < length; i++) {\n            address strategy = strategies.at(i);\n\n            uint256 withAmount = (_amount * ratios[strategy]) / allRatios;\n\n            if (withAmount != 0) {\n                actualAmount =\n                    Strategy(strategy).instantWithdraw(withAmount) +\n                    actualAmount;\n            }\n        }\n\n        _repayToVault();\n    }\n\n    function getStrategyValue(\n        address _strategy\n    ) public returns (uint256 _value) {\n        return Strategy(_strategy).getAllValue();\n    }\n\n    function getStrategyValidValue(\n        address _strategy\n    ) public returns (uint256 _value) {\n        return Strategy(_strategy).getInvestedValue();\n    }\n\n    function getStrategyPendingValue(\n        address _strategy\n    ) public returns (uint256 _value) {\n        return Strategy(_strategy).getPendingValue();\n    }\n\n    function getAllStrategiesValue() public returns (uint256 _value) {\n        uint256 length = strategies.length();\n        for (uint i; i < length; i++) {\n            _value = _value + getStrategyValue(strategies.at(i));\n        }\n    }\n\n    function getAllStrategyValidValue() public returns (uint256 _value) {\n        uint256 length = strategies.length();\n        for (uint i; i < length; i++) {\n            _value = _value + getStrategyValidValue(strategies.at(i));\n        }\n    }\n\n    function getAllStrategyPendingValue() public returns (uint256 _value) {\n        uint256 length = strategies.length();\n        for (uint i; i < length; i++) {\n            _value = _value + getStrategyPendingValue(strategies.at(i));\n        }\n    }\n\n    function getStrategies()\n        public\n        view\n        returns (address[] memory addrs, uint256[] memory portions)\n    {\n        uint256 length = strategies.length();\n\n        addrs = new address[](length);\n        portions = new uint256[](length);\n\n        for (uint256 i; i < length; i++) {\n            address addr = strategies.at(i);\n            addrs[i] = addr;\n            portions[i] = ratios[addr];\n        }\n    }\n\n    function _initStrategies(\n        address[] memory _strategies,\n        uint256[] memory _ratios\n    ) internal {\n        require(_strategies.length == _ratios.length, \"invalid length\");\n\n        uint256 totalRatio;\n        uint256 length = _strategies.length;\n        for (uint i; i < length; i++) {\n            strategies.add(_strategies[i]);\n            ratios[_strategies[i]] = _ratios[i];\n            totalRatio = totalRatio + _ratios[i];\n        }\n        require(totalRatio <= ONE_HUNDRED_PERCENT, \"exceed 100%\");\n    }\n\n    function _setStrategies(\n        address[] memory _strategies,\n        uint256[] memory _ratios\n    ) internal {\n        uint256 length = _strategies.length;\n        require(length == _ratios.length, \"invalid length\");\n\n        uint256 oldLength = strategies.length();\n        for (uint i; i < oldLength; i++) {\n            ratios[strategies.at(i)] = 0;\n        }\n        uint256 totalRatio;\n        for (uint i; i < length; i++) {\n            require(\n                Strategy(_strategies[i]).controller() == address(this),\n                \"controller mismatch\"\n            );\n            strategies.add(_strategies[i]);\n            ratios[_strategies[i]] = _ratios[i];\n            totalRatio = totalRatio + _ratios[i];\n        }\n        require(totalRatio <= ONE_HUNDRED_PERCENT, \"exceed 100%\");\n    }\n\n    function clearStrategy(address _strategy) public onlyVault {\n        _clearStrategy(_strategy, false);\n    }\n\n    function _clearStrategy(address _strategy, bool _isRebase) internal {\n        Strategy(_strategy).clear();\n\n        if (!_isRebase) {\n            _repayToVault();\n        }\n    }\n\n    function _destoryStrategy(address _strategy) internal {\n        require(_couldDestroyStrategy(_strategy), \"still active\");\n\n        strategies.remove(_strategy);\n\n        _repayToVault();\n    }\n\n    function _couldDestroyStrategy(\n        address _strategy\n    ) internal returns (bool status) {\n        return\n            ratios[_strategy] == 0 && Strategy(_strategy).getAllValue() < 1e4;\n    }\n\n    function setNewVault(address _vault) external onlyVault {\n        stoneVault = _vault;\n    }\n\n    receive() external payable {}\n}\n",
  "sourcePath": "/Users/mingyuzhang/Downloads/stone-vault-v1/contracts/strategies/StrategyController.sol",
  "compiler": {
    "name": "solc",
    "version": "0.8.21+commit.d9974bed.Emscripten.clang"
  },
  "schemaVersion": "3.4.16",
  "updatedAt": "2024-06-09T14:06:08.015Z",
  "devdoc": {
    "kind": "dev",
    "methods": {},
    "version": 1
  },
  "userdoc": {
    "kind": "user",
    "methods": {},
    "version": 1
  }
}