{
  "contractName": "Swap",
  "abi": [
    {
      "inputs": [
        {
          "internalType": "address",
          "name": "_token",
          "type": "address"
        },
        {
          "internalType": "address",
          "name": "_aggregator",
          "type": "address"
        },
        {
          "internalType": "address",
          "name": "_strategy",
          "type": "address"
        },
        {
          "internalType": "address",
          "name": "_assetVault",
          "type": "address"
        }
      ],
      "stateMutability": "nonpayable",
      "type": "constructor"
    },
    {
      "anonymous": false,
      "inputs": [
        {
          "indexed": false,
          "internalType": "uint256",
          "name": "tokenAmount",
          "type": "uint256"
        },
        {
          "indexed": false,
          "internalType": "uint256",
          "name": "ethAmount",
          "type": "uint256"
        }
      ],
      "name": "Convert",
      "type": "event"
    },
    {
      "anonymous": false,
      "inputs": [
        {
          "indexed": false,
          "internalType": "address",
          "name": "user",
          "type": "address"
        },
        {
          "indexed": false,
          "internalType": "uint256",
          "name": "amount",
          "type": "uint256"
        }
      ],
      "name": "Deposit",
      "type": "event"
    },
    {
      "anonymous": false,
      "inputs": [
        {
          "indexed": true,
          "internalType": "address",
          "name": "previousOwner",
          "type": "address"
        },
        {
          "indexed": true,
          "internalType": "address",
          "name": "newOwner",
          "type": "address"
        }
      ],
      "name": "OwnershipTransferStarted",
      "type": "event"
    },
    {
      "anonymous": false,
      "inputs": [
        {
          "indexed": true,
          "internalType": "address",
          "name": "previousOwner",
          "type": "address"
        },
        {
          "indexed": true,
          "internalType": "address",
          "name": "newOwner",
          "type": "address"
        }
      ],
      "name": "OwnershipTransferred",
      "type": "event"
    },
    {
      "anonymous": false,
      "inputs": [
        {
          "indexed": false,
          "internalType": "address",
          "name": "user",
          "type": "address"
        },
        {
          "indexed": false,
          "internalType": "uint256",
          "name": "ethAmount",
          "type": "uint256"
        },
        {
          "indexed": false,
          "internalType": "uint256",
          "name": "tokenAmount",
          "type": "uint256"
        }
      ],
      "name": "Withdrawn",
      "type": "event"
    },
    {
      "inputs": [],
      "name": "MULTIPLIER",
      "outputs": [
        {
          "internalType": "uint256",
          "name": "",
          "type": "uint256"
        }
      ],
      "stateMutability": "view",
      "type": "function"
    },
    {
      "inputs": [],
      "name": "STETH",
      "outputs": [
        {
          "internalType": "address",
          "name": "",
          "type": "address"
        }
      ],
      "stateMutability": "view",
      "type": "function"
    },
    {
      "inputs": [],
      "name": "acceptOwnership",
      "outputs": [],
      "stateMutability": "nonpayable",
      "type": "function"
    },
    {
      "inputs": [],
      "name": "aggregator",
      "outputs": [
        {
          "internalType": "address",
          "name": "",
          "type": "address"
        }
      ],
      "stateMutability": "view",
      "type": "function"
    },
    {
      "inputs": [],
      "name": "assetVault",
      "outputs": [
        {
          "internalType": "address",
          "name": "",
          "type": "address"
        }
      ],
      "stateMutability": "view",
      "type": "function"
    },
    {
      "inputs": [
        {
          "internalType": "address",
          "name": "",
          "type": "address"
        }
      ],
      "name": "depositAmount",
      "outputs": [
        {
          "internalType": "uint256",
          "name": "",
          "type": "uint256"
        }
      ],
      "stateMutability": "view",
      "type": "function"
    },
    {
      "inputs": [],
      "name": "owner",
      "outputs": [
        {
          "internalType": "address",
          "name": "",
          "type": "address"
        }
      ],
      "stateMutability": "view",
      "type": "function"
    },
    {
      "inputs": [],
      "name": "pendingOwner",
      "outputs": [
        {
          "internalType": "address",
          "name": "",
          "type": "address"
        }
      ],
      "stateMutability": "view",
      "type": "function"
    },
    {
      "inputs": [],
      "name": "rate",
      "outputs": [
        {
          "internalType": "uint256",
          "name": "",
          "type": "uint256"
        }
      ],
      "stateMutability": "view",
      "type": "function"
    },
    {
      "inputs": [],
      "name": "renounceOwnership",
      "outputs": [],
      "stateMutability": "nonpayable",
      "type": "function"
    },
    {
      "inputs": [],
      "name": "strategy",
      "outputs": [
        {
          "internalType": "address",
          "name": "",
          "type": "address"
        }
      ],
      "stateMutability": "view",
      "type": "function"
    },
    {
      "inputs": [
        {
          "internalType": "address",
          "name": "newOwner",
          "type": "address"
        }
      ],
      "name": "transferOwnership",
      "outputs": [],
      "stateMutability": "nonpayable",
      "type": "function"
    },
    {
      "inputs": [
        {
          "internalType": "address",
          "name": "",
          "type": "address"
        }
      ],
      "name": "whitelist",
      "outputs": [
        {
          "internalType": "bool",
          "name": "",
          "type": "bool"
        }
      ],
      "stateMutability": "view",
      "type": "function"
    },
    {
      "stateMutability": "payable",
      "type": "receive"
    },
    {
      "inputs": [],
      "name": "deposit",
      "outputs": [],
      "stateMutability": "payable",
      "type": "function"
    },
    {
      "inputs": [
        {
          "internalType": "uint256",
          "name": "_amount",
          "type": "uint256"
        },
        {
          "internalType": "bool",
          "name": "_isEth",
          "type": "bool"
        }
      ],
      "name": "withdraw",
      "outputs": [],
      "stateMutability": "nonpayable",
      "type": "function"
    },
    {
      "inputs": [
        {
          "internalType": "uint256",
          "name": "i",
          "type": "uint256"
        }
      ],
      "name": "coins",
      "outputs": [
        {
          "internalType": "address",
          "name": "",
          "type": "address"
        }
      ],
      "stateMutability": "view",
      "type": "function"
    },
    {
      "inputs": [
        {
          "internalType": "address[]",
          "name": "_users",
          "type": "address[]"
        },
        {
          "internalType": "bool[]",
          "name": "_flags",
          "type": "bool[]"
        }
      ],
      "name": "updateWhitelist",
      "outputs": [],
      "stateMutability": "nonpayable",
      "type": "function"
    },
    {
      "inputs": [
        {
          "internalType": "uint256[2]",
          "name": "",
          "type": "uint256[2]"
        },
        {
          "internalType": "bool",
          "name": "",
          "type": "bool"
        }
      ],
      "name": "calc_token_amount",
      "outputs": [
        {
          "internalType": "uint256",
          "name": "",
          "type": "uint256"
        }
      ],
      "stateMutability": "view",
      "type": "function"
    },
    {
      "inputs": [],
      "name": "fee",
      "outputs": [
        {
          "internalType": "uint256",
          "name": "",
          "type": "uint256"
        }
      ],
      "stateMutability": "view",
      "type": "function"
    },
    {
      "inputs": [],
      "name": "admin_fee",
      "outputs": [
        {
          "internalType": "uint256",
          "name": "",
          "type": "uint256"
        }
      ],
      "stateMutability": "view",
      "type": "function"
    },
    {
      "inputs": [
        {
          "internalType": "uint256",
          "name": "_token_amount",
          "type": "uint256"
        },
        {
          "internalType": "int128",
          "name": "i",
          "type": "int128"
        }
      ],
      "name": "calc_withdraw_one_coin",
      "outputs": [
        {
          "internalType": "uint256",
          "name": "",
          "type": "uint256"
        }
      ],
      "stateMutability": "view",
      "type": "function"
    },
    {
      "inputs": [],
      "name": "lp_token",
      "outputs": [
        {
          "internalType": "address",
          "name": "",
          "type": "address"
        }
      ],
      "stateMutability": "view",
      "type": "function"
    },
    {
      "inputs": [
        {
          "internalType": "uint256",
          "name": "i",
          "type": "uint256"
        },
        {
          "internalType": "uint256",
          "name": "j",
          "type": "uint256"
        },
        {
          "internalType": "uint256",
          "name": "dx",
          "type": "uint256"
        }
      ],
      "name": "get_dy",
      "outputs": [
        {
          "internalType": "uint256",
          "name": "",
          "type": "uint256"
        }
      ],
      "stateMutability": "view",
      "type": "function"
    },
    {
      "inputs": [
        {
          "internalType": "int128",
          "name": "i",
          "type": "int128"
        },
        {
          "internalType": "int128",
          "name": "j",
          "type": "int128"
        },
        {
          "internalType": "uint256",
          "name": "dx",
          "type": "uint256"
        }
      ],
      "name": "get_dy",
      "outputs": [
        {
          "internalType": "uint256",
          "name": "",
          "type": "uint256"
        }
      ],
      "stateMutability": "view",
      "type": "function"
    },
    {
      "inputs": [
        {
          "internalType": "uint256[2]",
          "name": "_amounts",
          "type": "uint256[2]"
        },
        {
          "internalType": "uint256",
          "name": "_max_burn_amount",
          "type": "uint256"
        }
      ],
      "name": "remove_liquidity_imbalance",
      "outputs": [
        {
          "internalType": "uint256",
          "name": "",
          "type": "uint256"
        }
      ],
      "stateMutability": "nonpayable",
      "type": "function"
    },
    {
      "inputs": [
        {
          "internalType": "uint256",
          "name": "_token_amount",
          "type": "uint256"
        },
        {
          "internalType": "int128",
          "name": "i",
          "type": "int128"
        },
        {
          "internalType": "uint256",
          "name": "_min_amount",
          "type": "uint256"
        }
      ],
      "name": "remove_liquidity_one_coin",
      "outputs": [
        {
          "internalType": "uint256",
          "name": "",
          "type": "uint256"
        }
      ],
      "stateMutability": "nonpayable",
      "type": "function"
    },
    {
      "inputs": [
        {
          "internalType": "uint256[2]",
          "name": "amounts",
          "type": "uint256[2]"
        },
        {
          "internalType": "uint256",
          "name": "min_mint_amount",
          "type": "uint256"
        }
      ],
      "name": "add_liquidity",
      "outputs": [
        {
          "internalType": "uint256",
          "name": "",
          "type": "uint256"
        }
      ],
      "stateMutability": "payable",
      "type": "function"
    },
    {
      "inputs": [
        {
          "internalType": "int128",
          "name": "i",
          "type": "int128"
        },
        {
          "internalType": "int128",
          "name": "j",
          "type": "int128"
        },
        {
          "internalType": "uint256",
          "name": "dx",
          "type": "uint256"
        },
        {
          "internalType": "uint256",
          "name": "min_dy",
          "type": "uint256"
        }
      ],
      "name": "exchange",
      "outputs": [
        {
          "internalType": "uint256",
          "name": "",
          "type": "uint256"
        }
      ],
      "stateMutability": "payable",
      "type": "function"
    },
    {
      "inputs": [
        {
          "internalType": "uint256",
          "name": "i",
          "type": "uint256"
        },
        {
          "internalType": "uint256",
          "name": "j",
          "type": "uint256"
        },
        {
          "internalType": "uint256",
          "name": "dx",
          "type": "uint256"
        },
        {
          "internalType": "uint256",
          "name": "min_dy",
          "type": "uint256"
        }
      ],
      "name": "exchange",
      "outputs": [
        {
          "internalType": "uint256",
          "name": "",
          "type": "uint256"
        }
      ],
      "stateMutability": "payable",
      "type": "function"
    }
  ],
  "bytecode": "0x6101403461017a57601f620015a238819003918201601f19168301916001600160401b0383118484101761017e5780849260809460405283398101031261017a5761004981610192565b9061005660208201610192565b9161006f606061006860408501610192565b9301610192565b60018060a01b03199283600154166001555f549333908516175f5560405193339060018060a01b03167f8be0079c531659141344cd1fd0a4f28419497f9722a3daafe3b4186f6b6457e05f80a3600160025561010094620f42408652610120936103e8855260805260a05260c05260e0526113fb9283620001a784396080518381816102b3015281816103c7015281816106e8015281816107900152610a5a015260a0518381816106040152610d7e015260c051838181610400015261071c015260e05183818161018b0152818161074701526107d00152518281816106a8015281816108d40152610df4015251818181610675015281816108ad01528181610a220152610d470152f35b5f80fd5b634e487b7160e01b5f52604160045260245ffd5b51906001600160a01b038216820361017a5756fe6080604081815260049081361015610021575b505050361561001f575f80fd5b005b5f91823560e01c938463059f8b1614610ddd575083630b4c7e4d14610dc75783631a4d01d214610dad578363245a7bfc14610d6a5783632c4e722e14610d3057836333320de314610b8557836338d07436146109595783633df021241461094457836350f62da714610910578363556d6e9f146108755783635b41b908146105ef5783635e0d443f146105cc578363715018a61461056757836379ba5097146104a857836382c63066146104935783638da5cb5b1461046c5783639b19251a1461042f578363a8c62e76146103ec578363c661065714610384578363cc2b27d71461036c578363d0e30db0146102e257508263ddca3f4314610173578263e00bfe50146102a0578263e30c397814610279578263e310327314610258578263ed8e84f31461022e578263f2fde38b146101be578263f61ebc361461017857505063fee3f7f914610173575f8080610012565b610eee565b346101ba57816003193601126101ba57517f00000000000000000000000000000000000000000000000000000000000000006001600160a01b03168152602090f35b5080fd5b503461022b57602036600319011261022b576101d8610ed8565b6101e0610f03565b600180546001600160a01b0319166001600160a01b0392831690811790915582549091167f38d16b8cac22d99fc7c124b9cd0de2d3fa1faef420bfe791d8c362d765e227008380a380f35b80fd5b503461022b57606036600319011261022b5761024936610e4c565b50604435801515146113725780fd5b503461022b57606036600319011261022b5761027336610e4c565b50611372565b346101ba57816003193601126101ba5760015490516001600160a01b039091168152602090f35b346101ba57816003193601126101ba57517f00000000000000000000000000000000000000000000000000000000000000006001600160a01b03168152602090f35b9082600319360112610368577fe1fffcc4923d04b559f4d29a8bfc6cda04eb5b0d3c460751c2402c5c5cc9109c91338452600360205261032760ff8386205416610f5a565b61032f61100a565b61033a341515610f93565b33845260205280832061034e348254610fce565b9055518061035d343383610fef565b0390a1600160025580f35b8280fd5b50346101ba5736600319011261022b57610273610ea1565b346103685760203660031901126103685760209250356103c55773eeeeeeeeeeeeeeeeeeeeeeeeeeeeeeeeeeeeeeee905b516001600160a01b039091168152f35b7f0000000000000000000000000000000000000000000000000000000000000000906103b5565b50346101ba57816003193601126101ba57517f00000000000000000000000000000000000000000000000000000000000000006001600160a01b03168152602090f35b50346101ba5760203660031901126101ba5760209160ff9082906001600160a01b03610459610ed8565b1681526003855220541690519015158152f35b50346101ba57816003193601126101ba57905490516001600160a01b039091168152602090f35b823461022b5780600319360112156113725780fd5b9034610368578260031936011261036857600154916001600160a01b039133838516036105125750506001600160a01b031991821660015582543392811683178455167f8be0079c531659141344cd1fd0a4f28419497f9722a3daafe3b4186f6b6457e08380a380f35b906020608492519162461bcd60e51b8352820152602960248201527f4f776e61626c6532537465703a2063616c6c6572206973206e6f7420746865206044820152683732bb9037bbb732b960b91b6064820152fd5b823461022b578060031936011261022b57610580610f03565b600180546001600160a01b03199081169091558154908116825581906001600160a01b03167f8be0079c531659141344cd1fd0a4f28419497f9722a3daafe3b4186f6b6457e08280a380f35b823461022b57606036600319011261022b576105e6610eb1565b50610273610ea1565b829060803660031901126101ba5760443590337f00000000000000000000000000000000000000000000000000000000000000006001600160a01b03160361084157600181351480610837575b61064590611245565b81156108035750917f82362fa3e3713df176f0fe72e07d8a2a4cdb629f1815b54c6aeb7b413b7d293c81602094477f00000000000000000000000000000000000000000000000000000000000000009161069f838361105e565b6106d3836106ce7f00000000000000000000000000000000000000000000000000000000000000008094611071565b610fce565b938483111561077c57505061074190610719847f0000000000000000000000000000000000000000000000000000000000000000926107148130338761127e565b6110d2565b907f000000000000000000000000000000000000000000000000000000000000000090611135565b61076b817f00000000000000000000000000000000000000000000000000000000000000006111e0565b825191825286820152a15b51908152f35b8294506107ca93506107b46107c4929330337f000000000000000000000000000000000000000000000000000000000000000061127e565b6107be838661105e565b92610fce565b90611071565b6107f4817f00000000000000000000000000000000000000000000000000000000000000006111e0565b825191825286820152a1610776565b606490602085519162461bcd60e51b8352820152600e60248201526d1a5b9d985b1a5908185b5bdd5b9d60921b6044820152fd5b506024351561063c565b606490602085519162461bcd60e51b8352820152600e60248201526d3737ba1030b3b3b932b3b0ba37b960911b6044820152fd5b913461022b57606036600319011261022b57506108ff602092600160443591351480610906575b6108a590611245565b6108f96108d27f00000000000000000000000000000000000000000000000000000000000000008361105e565b7f000000000000000000000000000000000000000000000000000000000000000090611071565b906110d2565b9051908152f35b506024351561089c565b346103685760203660031901126103685760209282916001600160a01b03610936610ed8565b168252845220549051908152f35b82608036600319011261022b576105e6610eb1565b90346103685780600319360112610368576024359082358215158303610b81573385526020926003845261099260ff8488205416610f5a565b61099a61100a565b6109a5821515610f93565b338652848452828620548211610b46578592919015610a14579060609392915f805160206113a6833981519152956109df4783111561108f565b33845284528183206109f28282546110d2565b90556109fe81336111e0565b815193338552840152820152a15b600160025580f35b9150610a47826106ce6108d27f00000000000000000000000000000000000000000000000000000000000000008361105e565b81516370a0823160e01b815230818701527f0000000000000000000000000000000000000000000000000000000000000000959193919085816024816001600160a01b038b165afa908115610b3c578891610af3575b50935f805160206113a683398151915296819493610ae093610ac46060999885111561108f565b338b528752610ad7858b209182546110d2565b90553390611135565b85815193338552840152820152a1610a0c565b9050858181969594973d8311610b35575b610b0e8183610e17565b81010312610b315751939492939192915f805160206113a6833981519152610a9d565b8780fd5b503d610b04565b84513d8a823e3d90fd5b50505162461bcd60e51b8152918201526015602482015274195e18d959590819195c1bdcda5d08185b5bdd5b9d605a1b604482015260649150fd5b8480fd5b823461022b578260031936011261022b576001600160401b0391803583811161036857366023820112156103685760249482820135610bc381610ec1565b92610bd083519485610e17565b818452602091888386019160051b83010191368311610b31578901905b828210610d11575050508635958611610b815736602387011215610b81578584013595610c1987610ec1565b96610c2684519889610e17565b808852888389019160051b83010191368311610b31578901905b828210610cf557505050610c52610f03565b8251865103610cc357845b8351811015610cbf57610c70818861134a565b5115156001600160a01b03610c85838761134a565b51168752600383528387209060ff801983541691161790555f198114610cad57600101610c5d565b634e487b7160e01b8652601185528786fd5b8580f35b600e878592606494519362461bcd60e51b85528401528201526d0d2dcecc2d8d2c840d8cadccee8d60931b6044820152fd5b81358015158103610d0d578152908301908301610c40565b8880fd5b81356001600160a01b0381168103610d0d578152908301908301610bed565b50346101ba57816003193601126101ba57602090517f00000000000000000000000000000000000000000000000000000000000000008152f35b50346101ba57816003193601126101ba57517f00000000000000000000000000000000000000000000000000000000000000006001600160a01b03168152602090f35b823461022b57606036600319011261022b57610273610ea1565b82606036600319011261022b5761027336610e4c565b8390346101ba57816003193601126101ba576020907f00000000000000000000000000000000000000000000000000000000000000008152f35b90601f801991011681019081106001600160401b03821117610e3857604052565b634e487b7160e01b5f52604160045260245ffd5b8060231215610e9d5760405190604082018281106001600160401b03821117610e3857604052816044918211610e9d576004905b828210610e8d5750505090565b8135815260209182019101610e80565b5f80fd5b6024359081600f0b8203610e9d57565b6004359081600f0b8203610e9d57565b6001600160401b038111610e385760051b60200190565b600435906001600160a01b0382168203610e9d57565b34610e9d575f36600319011215611372575f80fd5b5f546001600160a01b03163303610f1657565b606460405162461bcd60e51b815260206004820152602060248201527f4f776e61626c653a2063616c6c6572206973206e6f7420746865206f776e65726044820152fd5b15610f6157565b60405162461bcd60e51b815260206004820152600a6024820152691b9bdd081c195c9b5a5d60b21b6044820152606490fd5b15610f9a57565b60405162461bcd60e51b815260206004820152600c60248201526b1ddc9bdb99c8185b5bdd5b9d60a21b6044820152606490fd5b91908201809211610fdb57565b634e487b7160e01b5f52601160045260245ffd5b6001600160a01b039091168152602081019190915260400190565b60028054146110195760028055565b60405162461bcd60e51b815260206004820152601f60248201527f5265656e7472616e637947756172643a207265656e7472616e742063616c6c006044820152606490fd5b81810292918115918404141715610fdb57565b811561107b570490565b634e487b7160e01b5f52601260045260245ffd5b1561109657565b60405162461bcd60e51b8152602060048201526014602482015273657863656564207661756c742062616c616e636560601b6044820152606490fd5b91908203918211610fdb57565b3d15611118573d906001600160401b038211610e38576040519161110d601f8201601f191660200184610e17565b82523d5f602084013e565b606090565b90816020910312610e9d57518015158103610e9d5790565b5f92918361115f61116d8295604051928391602083019663a9059cbb60e01b885260248401610fef565b03601f198101835282610e17565b51925af16111796110df565b816111b1575b501561118757565b60405162461bcd60e51b815260206004820152600260248201526114d560f21b6044820152606490fd5b80518015925082156111c6575b50505f61117f565b6111d9925060208091830101910161111d565b5f806111be565b60405160208101908082106001600160401b03831117610e38575f938493848094938194604052525af16112126110df565b501561121a57565b60405162461bcd60e51b815260206004820152600360248201526253544560e81b6044820152606490fd5b1561124c57565b60405162461bcd60e51b815260206004820152600a6024820152690696e76616c6964206f760b41b6044820152606490fd5b6040516323b872dd60e01b602082019081526001600160a01b03938416602483015292909316604484015260648084019490945292825260a0820192906001600160401b03841183851017610e38575f809493819460405251925af16112e26110df565b8161131b575b50156112f057565b60405162461bcd60e51b815260206004820152600360248201526229aa2360e91b6044820152606490fd5b8051801592508215611330575b50505f6112e8565b611343925060208091830101910161111d565b5f80611328565b805182101561135e5760209160051b010190565b634e487b7160e01b5f52603260045260245ffd5b60405162461bcd60e51b815260206004820152600b60248201526a139bdd0814dd5c1c1bdc9d60aa1b6044820152606490fdfe92ccf450a286a957af52509bc1c9939d1a6a481783e142e41e2499f0bb66ebc6a26469706673582212204da8b98c613103bd6dd44048191350425e43501221de9f2c89fba59c653a9afb64736f6c63430008150033",
  "immutableReferences": {
    "9770": [
      {
        "length": 32,
        "start": 691
      },
      {
        "length": 32,
        "start": 967
      },
      {
        "length": 32,
        "start": 1768
      },
      {
        "length": 32,
        "start": 1936
      },
      {
        "length": 32,
        "start": 2650
      }
    ],
    "9772": [
      {
        "length": 32,
        "start": 1540
      },
      {
        "length": 32,
        "start": 3454
      }
    ],
    "9774": [
      {
        "length": 32,
        "start": 1024
      },
      {
        "length": 32,
        "start": 1820
      }
    ],
    "9776": [
      {
        "length": 32,
        "start": 395
      },
      {
        "length": 32,
        "start": 1863
      },
      {
        "length": 32,
        "start": 2000
      }
    ],
    "9779": [
      {
        "length": 32,
        "start": 1704
      },
      {
        "length": 32,
        "start": 2260
      },
      {
        "length": 32,
        "start": 3572
      }
    ],
    "9782": [
      {
        "length": 32,
        "start": 1653
      },
      {
        "length": 32,
        "start": 2221
      },
      {
        "length": 32,
        "start": 2594
      },
      {
        "length": 32,
        "start": 3399
      }
    ]
  },
  "source": "// SPDX-License-Identifier: MIT\npragma solidity 0.8.21;\n\nimport {ReentrancyGuard} from \"@openzeppelin/contracts/security/ReentrancyGuard.sol\";\nimport {TransferHelper} from \"@uniswap/v3-periphery/contracts/libraries/TransferHelper.sol\";\nimport {Ownable2Step} from \"@openzeppelin/contracts/access/Ownable2Step.sol\";\nimport {IERC20} from \"@openzeppelin/contracts/token/ERC20/IERC20.sol\";\n\nimport {IStableSwap} from \"../interfaces/IStableSwap.sol\";\n\ncontract Swap is Ownable2Step, ReentrancyGuard, IStableSwap {\n    address public immutable STETH;\n    address public immutable aggregator;\n    address public immutable strategy;\n    address public immutable assetVault;\n\n    uint256 public immutable MULTIPLIER = 1e6;\n    uint256 public immutable rate = 1000; // 1000 div 1e6, means 0.1%\n\n    mapping(address => bool) public whitelist;\n    mapping(address => uint256) public depositAmount;\n\n    event Convert(uint256 tokenAmount, uint256 ethAmount);\n    event Deposit(address user, uint256 amount);\n    event Withdrawn(address user, uint256 ethAmount, uint256 tokenAmount);\n\n    modifier onlyAggregator() {\n        require(aggregator == msg.sender, \"not aggregator\");\n        _;\n    }\n\n    modifier onlyPermit() {\n        require(whitelist[msg.sender], \"not permit\");\n        _;\n    }\n\n    constructor(\n        address _token,\n        address _aggregator,\n        address _strategy,\n        address _assetVault\n    ) {\n        STETH = _token;\n        aggregator = _aggregator;\n        strategy = _strategy;\n        assetVault = _assetVault;\n    }\n\n    function deposit() external payable onlyPermit nonReentrant {\n        require(msg.value > 0, \"wrong amount\");\n\n        depositAmount[msg.sender] += msg.value;\n\n        emit Deposit(msg.sender, msg.value);\n    }\n\n    function withdraw(\n        uint256 _amount,\n        bool _isEth\n    ) external onlyPermit nonReentrant {\n        require(_amount > 0, \"wrong amount\");\n        require(_amount <= depositAmount[msg.sender], \"exceed deposit amount\");\n\n        if (_isEth) {\n            require(_amount <= address(this).balance, \"exceed vault balance\");\n\n            depositAmount[msg.sender] -= _amount;\n\n            TransferHelper.safeTransferETH(msg.sender, _amount);\n\n            emit Withdrawn(msg.sender, _amount, 0);\n        } else {\n            uint256 tokenAmount = (_amount * rate) / MULTIPLIER + _amount;\n\n            require(\n                tokenAmount <= IERC20(STETH).balanceOf(address(this)),\n                \"exceed vault balance\"\n            );\n\n            depositAmount[msg.sender] -= _amount;\n\n            TransferHelper.safeTransfer(STETH, msg.sender, tokenAmount);\n\n            emit Withdrawn(msg.sender, 0, tokenAmount);\n        }\n    }\n\n    function coins(uint256 i) external view override returns (address) {\n        return i == 0 ? 0xEeeeeEeeeEeEeeEeEeEeeEEEeeeeEeeeeeeeEEeE : STETH;\n    }\n\n    function get_dy(\n        uint256 i,\n        uint256 j,\n        uint256 dx\n    ) external view override returns (uint256) {\n        require(i == 1 && j == 0, \"invalid op\");\n\n        uint256 discount = (dx * rate) / MULTIPLIER;\n\n        return dx - discount;\n    }\n\n    function exchange(\n        uint256 i,\n        uint256 j,\n        uint256 dx,\n        uint256 min_dy\n    ) external payable override onlyAggregator returns (uint256) {\n        require(i == 1 && j == 0, \"invalid op\");\n        require(dx > 0, \"invalid amount\");\n\n        uint256 ethBalance = address(this).balance;\n        uint256 maxTokenSwap = (ethBalance * rate) / MULTIPLIER + ethBalance;\n\n        // 101 stETH == 100 ETH\n        if (dx > maxTokenSwap) {\n            TransferHelper.safeTransferFrom(\n                STETH,\n                msg.sender,\n                address(this),\n                dx\n            );\n\n            TransferHelper.safeTransfer(STETH, strategy, dx - maxTokenSwap);\n            TransferHelper.safeTransferETH(assetVault, ethBalance);\n\n            emit Convert(maxTokenSwap, ethBalance);\n        } else {\n            TransferHelper.safeTransferFrom(\n                STETH,\n                msg.sender,\n                address(this),\n                dx\n            );\n\n            uint256 ethNeed = (dx * MULTIPLIER) / (MULTIPLIER + rate);\n\n            TransferHelper.safeTransferETH(assetVault, ethNeed);\n\n            emit Convert(dx, ethNeed);\n        }\n    }\n\n    function updateWhitelist(\n        address[] memory _users,\n        bool[] memory _flags\n    ) external onlyOwner {\n        require(_users.length == _flags.length, \"invalid length\");\n\n        uint256 i;\n        for (i; i < _users.length; i++) {\n            whitelist[_users[i]] = _flags[i];\n        }\n    }\n\n    function calc_token_amount(\n        uint256[2] memory,\n        bool\n    ) external view override returns (uint256) {\n        revert(\"Not Support\");\n    }\n\n    function fee() external view override returns (uint256) {\n        revert(\"Not Support\");\n    }\n\n    function admin_fee() external view override returns (uint256) {\n        revert(\"Not Support\");\n    }\n\n    function calc_withdraw_one_coin(\n        uint256 _token_amount,\n        int128 i\n    ) external view override returns (uint256) {\n        revert(\"Not Support\");\n    }\n\n    function lp_token() external view override returns (address) {\n        revert(\"Not Support\");\n    }\n\n    function get_dy(\n        int128 i,\n        int128 j,\n        uint256 dx\n    ) external view override returns (uint256) {\n        revert(\"Not Support\");\n    }\n\n    function remove_liquidity_imbalance(\n        uint256[2] memory _amounts,\n        uint256 _max_burn_amount\n    ) external override returns (uint256) {\n        revert(\"Not Support\");\n    }\n\n    function remove_liquidity_one_coin(\n        uint256 _token_amount,\n        int128 i,\n        uint256 _min_amount\n    ) external override returns (uint256) {\n        revert(\"Not Support\");\n    }\n\n    function add_liquidity(\n        uint256[2] memory amounts,\n        uint256 min_mint_amount\n    ) external payable override returns (uint256) {\n        revert(\"Not Support\");\n    }\n\n    function exchange(\n        int128 i,\n        int128 j,\n        uint256 dx,\n        uint256 min_dy\n    ) external payable override returns (uint256) {\n        revert(\"Not Support\");\n    }\n\n    receive() external payable {}\n}\n",
  "sourcePath": "/Users/mingyuzhang/Downloads/stone-vault-v1/contracts/external/Swap.sol",
  "compiler": {
    "name": "solc",
    "version": "0.8.21+commit.d9974bed.Emscripten.clang"
  },
  "schemaVersion": "3.4.16",
  "updatedAt": "2024-06-07T05:41:32.613Z",
  "devdoc": {
    "kind": "dev",
    "methods": {
      "acceptOwnership()": {
        "details": "The new owner accepts the ownership transfer."
      },
      "owner()": {
        "details": "Returns the address of the current owner."
      },
      "pendingOwner()": {
        "details": "Returns the address of the pending owner."
      },
      "renounceOwnership()": {
        "details": "Leaves the contract without owner. It will not be possible to call `onlyOwner` functions. Can only be called by the current owner. NOTE: Renouncing ownership will leave the contract without an owner, thereby disabling any functionality that is only available to the owner."
      },
      "transferOwnership(address)": {
        "details": "Starts the ownership transfer of the contract to a new account. Replaces the pending transfer if there is one. Can only be called by the current owner."
      }
    },
    "version": 1
  },
  "userdoc": {
    "kind": "user",
    "methods": {},
    "version": 1
  }
}