{
  "contractName": "SwappingAggregator",
  "abi": [
    {
      "inputs": [
        {
          "internalType": "address",
          "name": "_wETH",
          "type": "address"
        },
        {
          "internalType": "address[]",
          "name": "_tokens",
          "type": "address[]"
        },
        {
          "internalType": "address[]",
          "name": "_uniPools",
          "type": "address[]"
        },
        {
          "internalType": "address[]",
          "name": "_curvePools",
          "type": "address[]"
        },
        {
          "internalType": "uint8[]",
          "name": "_curvePoolTypes",
          "type": "uint8[]"
        },
        {
          "internalType": "uint256[]",
          "name": "_slippages",
          "type": "uint256[]"
        },
        {
          "internalType": "uint24[]",
          "name": "_fees",
          "type": "uint24[]"
        }
      ],
      "stateMutability": "nonpayable",
      "type": "constructor"
    },
    {
      "anonymous": false,
      "inputs": [
        {
          "indexed": true,
          "internalType": "address",
          "name": "token",
          "type": "address"
        },
        {
          "indexed": false,
          "internalType": "uint256",
          "name": "oldSlippage",
          "type": "uint256"
        },
        {
          "indexed": false,
          "internalType": "uint256",
          "name": "newSlippage",
          "type": "uint256"
        }
      ],
      "name": "SetSlippage",
      "type": "event"
    },
    {
      "anonymous": false,
      "inputs": [
        {
          "indexed": false,
          "internalType": "address",
          "name": "oldAddr",
          "type": "address"
        },
        {
          "indexed": false,
          "internalType": "address",
          "name": "newAddr",
          "type": "address"
        }
      ],
      "name": "TransferGovernance",
      "type": "event"
    },
    {
      "inputs": [
        {
          "internalType": "address",
          "name": "",
          "type": "address"
        }
      ],
      "name": "curvePoolType",
      "outputs": [
        {
          "internalType": "uint8",
          "name": "",
          "type": "uint8"
        }
      ],
      "stateMutability": "view",
      "type": "function"
    },
    {
      "inputs": [
        {
          "internalType": "address",
          "name": "",
          "type": "address"
        }
      ],
      "name": "curvePools",
      "outputs": [
        {
          "internalType": "address",
          "name": "",
          "type": "address"
        }
      ],
      "stateMutability": "view",
      "type": "function"
    },
    {
      "inputs": [
        {
          "internalType": "address",
          "name": "",
          "type": "address"
        }
      ],
      "name": "fees",
      "outputs": [
        {
          "internalType": "uint24",
          "name": "",
          "type": "uint24"
        }
      ],
      "stateMutability": "view",
      "type": "function"
    },
    {
      "inputs": [],
      "name": "governance",
      "outputs": [
        {
          "internalType": "address",
          "name": "",
          "type": "address"
        }
      ],
      "stateMutability": "view",
      "type": "function"
    },
    {
      "inputs": [
        {
          "internalType": "address",
          "name": "",
          "type": "address"
        }
      ],
      "name": "slippage",
      "outputs": [
        {
          "internalType": "uint256",
          "name": "",
          "type": "uint256"
        }
      ],
      "stateMutability": "view",
      "type": "function"
    },
    {
      "inputs": [
        {
          "internalType": "address",
          "name": "",
          "type": "address"
        }
      ],
      "name": "uniV3Pools",
      "outputs": [
        {
          "internalType": "address",
          "name": "",
          "type": "address"
        }
      ],
      "stateMutability": "view",
      "type": "function"
    },
    {
      "stateMutability": "payable",
      "type": "receive"
    },
    {
      "inputs": [
        {
          "internalType": "address",
          "name": "_token",
          "type": "address"
        },
        {
          "internalType": "uint256",
          "name": "_amount",
          "type": "uint256"
        },
        {
          "internalType": "bool",
          "name": "_isSell",
          "type": "bool"
        }
      ],
      "name": "swap",
      "outputs": [
        {
          "internalType": "uint256",
          "name": "amount",
          "type": "uint256"
        }
      ],
      "stateMutability": "payable",
      "type": "function"
    },
    {
      "inputs": [
        {
          "internalType": "address",
          "name": "_token",
          "type": "address"
        },
        {
          "internalType": "uint256",
          "name": "_amount",
          "type": "uint256"
        },
        {
          "internalType": "bool",
          "name": "_isSell",
          "type": "bool"
        }
      ],
      "name": "getBestRouter",
      "outputs": [
        {
          "internalType": "enum SwappingAggregator.DEX_TYPE",
          "name": "dex",
          "type": "uint8"
        },
        {
          "internalType": "uint256",
          "name": "out",
          "type": "uint256"
        }
      ],
      "stateMutability": "nonpayable",
      "type": "function"
    },
    {
      "inputs": [
        {
          "internalType": "address",
          "name": "_token",
          "type": "address"
        },
        {
          "internalType": "uint256",
          "name": "_amount",
          "type": "uint256"
        },
        {
          "internalType": "bool",
          "name": "_isSell",
          "type": "bool"
        }
      ],
      "name": "getUniV3Out",
      "outputs": [
        {
          "internalType": "uint256",
          "name": "out",
          "type": "uint256"
        }
      ],
      "stateMutability": "nonpayable",
      "type": "function"
    },
    {
      "inputs": [
        {
          "internalType": "address",
          "name": "_token",
          "type": "address"
        },
        {
          "internalType": "uint256",
          "name": "_amount",
          "type": "uint256"
        },
        {
          "internalType": "bool",
          "name": "_isSell",
          "type": "bool"
        }
      ],
      "name": "getCurveOut",
      "outputs": [
        {
          "internalType": "uint256",
          "name": "out",
          "type": "uint256"
        }
      ],
      "stateMutability": "nonpayable",
      "type": "function"
    },
    {
      "inputs": [
        {
          "internalType": "address",
          "name": "_token",
          "type": "address"
        }
      ],
      "name": "getCurveCoinIndex",
      "outputs": [
        {
          "internalType": "uint256",
          "name": "i",
          "type": "uint256"
        },
        {
          "internalType": "uint256",
          "name": "j",
          "type": "uint256"
        },
        {
          "internalType": "bool",
          "name": "wrapped",
          "type": "bool"
        }
      ],
      "stateMutability": "view",
      "type": "function"
    },
    {
      "inputs": [
        {
          "internalType": "address",
          "name": "_token",
          "type": "address"
        },
        {
          "internalType": "uint256",
          "name": "_slippage",
          "type": "uint256"
        }
      ],
      "name": "setSlippage",
      "outputs": [],
      "stateMutability": "nonpayable",
      "type": "function"
    },
    {
      "inputs": [
        {
          "internalType": "address",
          "name": "_token",
          "type": "address"
        },
        {
          "internalType": "address",
          "name": "_uniPool",
          "type": "address"
        },
        {
          "internalType": "uint256",
          "name": "_slippage",
          "type": "uint256"
        },
        {
          "internalType": "uint24",
          "name": "_fee",
          "type": "uint24"
        }
      ],
      "name": "setUniRouter",
      "outputs": [],
      "stateMutability": "nonpayable",
      "type": "function"
    },
    {
      "inputs": [
        {
          "internalType": "address",
          "name": "_token",
          "type": "address"
        },
        {
          "internalType": "address",
          "name": "_curvePool",
          "type": "address"
        },
        {
          "internalType": "uint8",
          "name": "_curvePoolType",
          "type": "uint8"
        },
        {
          "internalType": "uint256",
          "name": "_slippage",
          "type": "uint256"
        }
      ],
      "name": "setCurveRouter",
      "outputs": [],
      "stateMutability": "nonpayable",
      "type": "function"
    },
    {
      "inputs": [
        {
          "internalType": "address",
          "name": "_governance",
          "type": "address"
        }
      ],
      "name": "setNewGovernance",
      "outputs": [],
      "stateMutability": "nonpayable",
      "type": "function"
    }
  ],
  "bytecode": "0x6040610100815234620004b25762001fc090813803806200002081620004e1565b93843982019160e081840312620004b2576200003c816200051b565b906020938482015160018060401b0390818111620004b257826200006291850162000548565b85840151828111620004b257836200007c91860162000548565b916060850151818111620004b257846200009891870162000548565b926080860151828111620004b25786019480601f87011215620004b257855192620000cd620000c78562000530565b620004e1565b968b88868152018c600596871b83010191848311620004b2578d01905b828210620004c65750505060a0880151818111620004b25788019782601f8a011215620004b257885162000122620000c78262000530565b998d808c8481520192881b82010191858311620004b2578e809201905b838210620004b6575050505060c0810151918211620004b257019080601f83011215620004b257815162000177620000c78262000530565b928c80858481520192871b820101928311620004b2578c01905b82821062000495575050506001965f9588875573b27308f9f90d607463bb33ea1bebb41c27ce5ab660805273e592427a0aece92de3edee1f18e0157c0586156460a05273eeeeeeeeeeeeeeeeeeeeeeeeeeeeeeeeeeeeeeee60e05285519784518914806200048a575b806200047f575b156200044a576001600160a01b03946200021f8c87161515620005ae565b885b8a8110620002ab57600680546001600160a01b0319163317905560c08d90528d516119ac9081620006148239608051816114bf015260a05181818161062501526107d7015260c05181818161066d0152818161078701528181610a8001528181610cba01528181610e3e015281816114920152818161155e0152611728015260e0518161177f0152f35b888f8f90808f8b8f91878f956200039d8f8f908f8f8f878f938f8297828f928f9793620003d69f8e62ffffff9f620003a68a60ff8f8f94620003c49f9c82620003bc9f93869f62000385888f8f60039f8a8f96936200037c93869c9387946200039d9f6200035d878d8f82829d83968285806200032d836200035498620005ea565b51161515918262000429575b6200034e93836200040f575b505050620005ae565b620005ea565b51169f620005ea565b51168352522080546001600160a01b0319908116909a179055620005ea565b511693620005ea565b51168c5260028a528c8c2091825416179055620005ea565b511697620005ea565b5116835252209060ff19825416179055620005ea565b5193620005ea565b5116895260048a528b892055620005ea565b51169052528b20805462ffffff191690911790555f198114620003fb578b0162000221565b634e487b7160e01b8a52601160045260248afd5b6200041c929350620005ea565b5116151585848f62000345565b6200034e939250816200043d8287620005ea565b5116151592935062000339565b8b5162461bcd60e51b8152600481018e9052600e60248201526d0d2dcecc2d8d2c840d8cadccee8d60931b6044820152606490fd5b508051891462000201565b5081518914620001fa565b815162ffffff81168103620004b2578152908c01908c0162000191565b5f80fd5b815181529082019082016200013f565b815160ff81168103620004b2578152908d01908d01620000ea565b6040519190601f01601f191682016001600160401b038111838210176200050757604052565b634e487b7160e01b5f52604160045260245ffd5b51906001600160a01b0382168203620004b257565b6001600160401b038111620005075760051b60200190565b9080601f83011215620004b2578151906020916200056a620000c78262000530565b93838086848152019260051b820101928311620004b2578301905b82821062000594575050505090565b838091620005a2846200051b565b81520191019062000585565b15620005b657565b60405162461bcd60e51b815260206004820152600c60248201526b5a45524f204144445245535360a01b6044820152606490fd5b8051821015620005ff5760209160051b010190565b634e487b7160e01b5f52603260045260245ffdfe6080604081815260049182361015610021575b505050361561001f575f80fd5b005b5f92833560e01c91826313c5621c146104f2575081632615d06d146104d65781634e4318141461049b5781635aa6e675146104725781635e0acb621461043c5781638f3e467114610420578163919722bb14610404578163a6cb88f1146103bc578163a788871814610381578163bfac903614610346578163c373f02d146102af578163c474a5cc14610230578163c48daa6d1461018e57508063e7d460bb146101155763faaebd21146100d55780610012565b346101115760203660031901126101115760209162ffffff9082906001600160a01b0361010061052b565b168152600585522054169051908152f35b5080fd5b50346101115760203660031901126101115761012f61052b565b6006546001600160a01b038082169391927f2276211a3f2c7bc1943fe83cc63f8f970204ff6a4b83c690df2bc54d8f2792ad92919061016f3387146118ff565b82519586521693846020820152a16001600160a01b0319161760065580f35b90503461022c57608036600319011261022c576101a961052b565b6101b1610545565b6044359060ff8216809203610228576006546001600160a01b039384916101db90831633146118ff565b16926101e884151561193b565b83875260026020528587209116908160018060a01b0319825416179055855260036020528385209060ff1982541617905583526020526064359082205580f35b8580fd5b8280fd5b9190503461022c578060031936011261022c5761024b61052b565b60065460243593916001600160a01b039161026990831633146118ff565b1680855281602052807f606356b6317ead9cd42c847e7961af38e81cd52b60aff10f7156affd070507ee84808820548151908152876020820152a2845260205282205580f35b9190503461022c57608036600319011261022c576102cb61052b565b916102d4610545565b6064359362ffffff8516809503610228576006546001600160a01b0391829161030090831633146118ff565b1661030c81151561193b565b86526001602052838620911660018060a01b031982541617905560205260443581842055600560205282209062ffffff1982541617905580f35b505034610111576020366003190112610111576020916001600160a01b039082908261037061052b565b168152600185522054169051908152f35b505034610111576020366003190112610111576020916001600160a01b03908290826103ab61052b565b168152600285522054169051908152f35b90508234610401576103d66103d03661055b565b916113d9565b9184519360028310156103ee57505082526020820152f35b634e487b7160e01b825260219052602490fd5b80fd5b6020836104196104133661055b565b9161058e565b9051908152f35b505034610111576020906104196104363661055b565b9161143a565b90503461022c57602036600319011261022c5760209282916001600160a01b0361046461052b565b168252845220549051908152f35b50503461011157816003193601126101115760065490516001600160a01b039091168152602090f35b505034610111576020366003190112610111576060906104c16104bc61052b565b6116d4565b90839293519384526020840152151590820152f35b505034610111576020906104196104ec3661055b565b916115ad565b8490843461022c57602036600319011261022c5760209260ff91906001600160a01b0361051d61052b565b168152600385522054168152f35b600435906001600160a01b038216820361054157565b5f80fd5b602435906001600160a01b038216820361054157565b6060906003190112610541576004356001600160a01b038116810361054157906024359060443580151581036105415790565b905f9160018060a01b0390818116808552602091600183526040938085882054161580610f81575b610f76576105c58887846113d9565b8915610f3d575b15610f31576002811015610f1d576109b4576105e661105d565b8287526004978885526105fc86892054886118d2565b84895260018652901561077e579188886106cc9593879561061f8b303388611107565b61064b8b7f00000000000000000000000000000000000000000000000000000000000000008097611299565b8583526005875262ffffff8a842054169a8a519661066888610fb9565b8752827f0000000000000000000000000000000000000000000000000000000000000000169b8c898901528b88015230606088015242608088015260a087015260c08601528160e0860152885180978196829563414bf38960e01b84528301610ff6565b0393165af1918215610774578592610746575b50508094833b156107425790602485928385519687948593632e1a7d4d60e01b85528401525af19081156107395750610725575b506001906107214733611336565b5590565b61072f8291610f92565b610401575f610713565b513d84823e3d90fd5b8480fd5b90809250813d831161076d575b61075d8183610fd5565b8101031261054157515f806106df565b503d610753565b83513d87823e3d90fd5b979196959392937f000000000000000000000000000000000000000000000000000000000000000098828a16803b156109a6578751630d0e30db60e41b81528981878134865af180156109aa57908a91610992575b50507f0000000000000000000000000000000000000000000000000000000000000000918851936370a0823160e01b9c8d865230888701528886602481875afa95861561098857908995949392918d97610955575b5061089695968561083892611299565b898c526005865262ffffff8b8d2054168b519361085485610fb9565b84528a878501528b84015230606084015242608084015260a083015260c08201528960e082015289895195868095819463414bf38960e01b83528a8301610ff6565b0393165af190811561094b5790839291879161091a575b506024909886519586938492835230908301525afa928315610911575083926108e1575b50506107219060019333906111ee565b90809250813d831161090a575b6108f88183610fd5565b810103126105415751826107216108d1565b503d6108ee565b513d85823e3d90fd5b83819492503d8311610944575b6109318183610fd5565b81010312610541576024839251906108ad565b503d610927565b85513d88823e3d90fd5b96509486813d8111610981575b61096c8183610fd5565b81010312610541579451948894610838610828565b503d610962565b8b513d8e823e3d90fd5b61099b90610f92565b6109a657885f6107d3565b8880fd5b89513d8c823e3d90fd5b9186908560ff9997936109c561105d565b8284526004988988526109db83862054876118d2565b9184865260028952878487205416946109f3826116d4565b9f9196909888815260038d52205416925f14610be55750928a928c92610a2989888d9a9998610a2483303384611107565b611299565b610b7d57610a53908b5198899788968795630f7c084960e21b8752600f0b91600f0b9086016113b7565b03925af1908115610b46578691610b50575b50955b610a7e575b505050506001906107214733611336565b7f0000000000000000000000000000000000000000000000000000000000000000169282516370a0823160e01b815230828201528281602481885afa928315610b46578693610b16575b5050833b156107425790602485928385519687948593632e1a7d4d60e01b85528401525af19081156107395750610b02575b808080610a6d565b610b0c8291610f92565b610401575f610afa565b9080929350813d8311610b3f575b610b2e8183610fd5565b810103126105415751905f80610ac8565b503d610b24565b84513d88823e3d90fd5b90508281813d8311610b76575b610b678183610fd5565b8101031261054157515f610a65565b503d610b5d565b8a51630b68372160e31b815297889687958694610b9f9493929091860161139b565b03925af1908115610b46578691610bb8575b5095610a68565b90508281813d8311610bde575b610bcf8183610fd5565b8101031261054157515f610bb1565b503d610bc5565b9897928b9d938997929d9c948994979697155f14610e0d57610cb05750610c28908b5198899788968795630f7c084960e21b8752600f0b91600f0b9086016113b7565b03925af1908115610ca6579082918691610c77575b50965b60248551809581936370a0823160e01b835230908301525afa928315610911575083926108e15750506107219060019333906111ee565b82819392503d8311610c9f575b610c8e8183610fd5565b81010312610541578190515f610c3d565b503d610c84565b84513d87823e3d90fd5b92509250929394507f000000000000000000000000000000000000000000000000000000000000000016803b15610dff578851630d0e30db60e41b8152908a828e818a855af18015610e03578891868f8e908e8c95610dde575b610d289750519687958694859363095ea7b360e01b855284016111d3565b03925af180156109aa5792610d668d938c938a989796610db1575b508b5198899788968795630f7c084960e21b8752600f0b91600f0b9086016113b7565b03925af1908115610ca6579082918691610d82575b5096610c40565b82819392503d8311610daa575b610d998183610fd5565b81010312610541578190515f610d7b565b503d610d8f565b610dd090893d8b11610dd7575b610dc88183610fd5565b8101906110ef565b505f610d43565b503d610dbe565b505093505092610dee9150610f92565b610dff57868682868f8e908e610d0a565b8980fd5b8a513d8d823e3d90fd5b92969492610e345750610d66908b5198899788968795630b68372160e31b8752860161139b565b92509293949550507f000000000000000000000000000000000000000000000000000000000000000016803b15610dff578851630d0e30db60e41b81528a818e818a865af18015610e0357908d91610efe575b5086610eab92868d8b948e519687958694859363095ea7b360e01b855284016111d3565b03925af180156109aa57610d6688969594938c938f93610ee1575b508b51630b68372160e31b815298899788968795860161139b565b610ef790893d8b11610dd757610dc88183610fd5565b505f610ec6565b610eab92868c8b949e610f118c95610f92565b9e945050509250610e87565b634e487b7160e01b88526021600452602488fd5b50505050505050905090565b3488146105cc57865162461bcd60e51b815260048101879052600b60248201526a77726f6e672076616c756560a81b6044820152606490fd5b505050505050905090565b5060028452808588205416156105b6565b6001600160401b038111610fa557604052565b634e487b7160e01b5f52604160045260245ffd5b61010081019081106001600160401b03821117610fa557604052565b90601f801991011681019081106001600160401b03821117610fa557604052565b91909160e06101008201938160018060a01b039182815116855282602082015116602086015262ffffff60408201511660408601528260608201511660608601526080810151608086015260a081015160a086015260c081015160c0860152015116910152565b60025f541461106c5760025f55565b60405162461bcd60e51b815260206004820152601f60248201527f5265656e7472616e637947756172643a207265656e7472616e742063616c6c006044820152606490fd5b3d156110ea573d906001600160401b038211610fa557604051916110df601f8201601f191660200184610fd5565b82523d5f602084013e565b606090565b90816020910312610541575180151581036105415790565b6040516323b872dd60e01b602082019081526001600160a01b03938416602483015292909316604484015260648084019490945292825260a0820192906001600160401b03841183851017610fa5575f809493819460405251925af161116b6110b1565b816111a4575b501561117957565b60405162461bcd60e51b815260206004820152600360248201526229aa2360e91b6044820152606490fd5b80518015925082156111b9575b50505f611171565b6111cc92506020809183010191016110ef565b5f806111b1565b6001600160a01b039091168152602081019190915260400190565b5f9291836112186112268295604051928391602083019663a9059cbb60e01b8852602484016111d3565b03601f198101835282610fd5565b51925af16112326110b1565b8161126a575b501561124057565b60405162461bcd60e51b815260206004820152600260248201526114d560f21b6044820152606490fd5b805180159250821561127f575b50505f611238565b61129292506020809183010191016110ef565b5f80611277565b5f9291836112186112c38295604051928391602083019663095ea7b360e01b8852602484016111d3565b51925af16112cf6110b1565b81611307575b50156112dd57565b60405162461bcd60e51b8152602060048201526002602482015261534160f01b6044820152606490fd5b805180159250821561131c575b50505f6112d5565b61132f92506020809183010191016110ef565b5f80611314565b60405160208101908082106001600160401b03831117610fa5575f938493848094938194604052525af16113686110b1565b501561137057565b60405162461bcd60e51b815260206004820152600360248201526253544560e81b6044820152606490fd5b9094939260609260808301968352602083015260408201520152565b909493926060926080830196600f0b8352600f0b602083015260408201520152565b92916113f0916113ea82828761143a565b946115ad565b808311156113fe57505f9190565b6001925090565b6001600160a01b0391821681529116602082015262ffffff91909116604082015260608101919091525f608082015260a00190565b60018060a01b03808216905f928284526020926001845260409683888720541615611586571561153257916114bb959184938652600584528562ffffff89822054169189519889958694859363f7729d4360e01b85527f00000000000000000000000000000000000000000000000000000000000000009060048601611405565b03927f0000000000000000000000000000000000000000000000000000000000000000165af1938415611527575081936114f6575b50505090565b9091809350813d8311611520575b61150e8183610fd5565b810103126104015750515f80806114f0565b503d611504565b51913d9150823e3d90fd5b509382916114bb95600584528562ffffff89822054169189519889958694859363f7729d4360e01b85527f000000000000000000000000000000000000000000000000000000000000000060048601611405565b505050505091505090565b6040919493926060820195600f0b8252600f0b60208201520152565b60018060a01b03925f9184811683526020916002835260409586852054169182156116ab576115db906116d4565b50918386526003855260ff8887205416905f1461167957611639579161162195918493885197889485938493635e0d443f60e01b8552600f0b90600f0b60048501611591565b03915afa938415611527575081936114f65750505090565b865163556d6e9f60e01b81526004810192909252602482015260448101949094528190849060649082905afa938415611527575081936114f65750505090565b909190611639579161162195918493885197889485938493635e0d443f60e01b8552600f0b90600f0b60048501611591565b5050505091505090565b9081602091031261054157516001600160a01b03811681036105415790565b905f915f9060018060a01b03809116825260209060028252604081818520541681519363c661065760e01b948581528660048201528181602481865afa9081156118c85790859493929188916118ab575b507f0000000000000000000000000000000000000000000000000000000000000000851695168514801561185f575b611856575b82518681528760048201528181602481865afa90811561184c57889161182f575b5084167f00000000000000000000000000000000000000000000000000000000000000008516149586156117c2575b5050505050505f146117bb5791600191565b9160019291565b83949596506024829394518095819382528a60048301525afa928315611826575085926117f9575b505016145f80808080806117a9565b6118189250803d1061181f575b6118108183610fd5565b8101906116b5565b5f806117ea565b503d611806565b513d87823e3d90fd5b6118469150823d841161181f576118108183610fd5565b5f61177a565b84513d8a823e3d90fd5b60019850611759565b508251868152600160048201528181602481865afa90811561184c57869186918a9161188e575b501614611754565b6118a59150843d861161181f576118108183610fd5565b5f611886565b6118c29150823d841161181f576118108183610fd5565b5f611725565b84513d89823e3d90fd5b8181029181830414901517156118eb57620f4240900490565b634e487b7160e01b5f52601160045260245ffd5b1561190657565b60405162461bcd60e51b815260206004820152600d60248201526c6e6f7420676f7665726e61636560981b6044820152606490fd5b1561194257565b60405162461bcd60e51b815260206004820152600c60248201526b5a45524f204144445245535360a01b6044820152606490fdfea26469706673582212202268deba93eb3aa66925cfd81916438e096770405d131f68760631c48f45ae1b64736f6c63430008150033",
  "immutableReferences": {
    "23437": [
      {
        "length": 32,
        "start": 5311
      }
    ],
    "23440": [
      {
        "length": 32,
        "start": 1573
      },
      {
        "length": 32,
        "start": 2007
      }
    ],
    "23442": [
      {
        "length": 32,
        "start": 1645
      },
      {
        "length": 32,
        "start": 1927
      },
      {
        "length": 32,
        "start": 2688
      },
      {
        "length": 32,
        "start": 3258
      },
      {
        "length": 32,
        "start": 3646
      },
      {
        "length": 32,
        "start": 5266
      },
      {
        "length": 32,
        "start": 5470
      },
      {
        "length": 32,
        "start": 5928
      }
    ],
    "23445": [
      {
        "length": 32,
        "start": 6015
      }
    ]
  },
  "source": "// SPDX-License-Identifier: MIT\npragma solidity 0.8.21;\n\nimport {TransferHelper} from \"@uniswap/v3-periphery/contracts/libraries/TransferHelper.sol\";\nimport {ISwapRouter} from \"@uniswap/v3-periphery/contracts/interfaces/ISwapRouter.sol\";\nimport {IQuoter} from \"@uniswap/v3-periphery/contracts/interfaces/IQuoter.sol\";\n\nimport {ReentrancyGuard} from \"@openzeppelin/contracts/security/ReentrancyGuard.sol\";\nimport {IERC20} from \"@openzeppelin/contracts/token/ERC20/IERC20.sol\";\n\nimport {IStableSwap} from \"../interfaces/IStableSwap.sol\";\nimport {IWETH9} from \"../interfaces/IWETH9.sol\";\n\ncontract SwappingAggregator is ReentrancyGuard {\n    uint256 internal constant MULTIPLIER = 1e18;\n    uint256 internal constant ONE_HUNDRED_PERCENT = 1e6;\n\n    address internal immutable QUOTER =\n        0xb27308f9F90D607463bb33eA1BeBb41C27CE5AB6;\n    address internal immutable ROUTER =\n        0xE592427A0AEce92De3Edee1F18E0157C05861564;\n\n    address internal immutable WETH9;\n\n    address internal immutable CURVE_ETH =\n        0xEeeeeEeeeEeEeeEeEeEeeEEEeeeeEeeeeeeeEEeE;\n\n    mapping(address => address) public uniV3Pools; // token => pool\n    mapping(address => address) public curvePools;\n    mapping(address => uint8) public curvePoolType; // 0 - stableswap; 1 - two crypto swap\n    mapping(address => uint256) public slippage;\n    mapping(address => uint24) public fees;\n\n    address public governance;\n\n    event SetSlippage(\n        address indexed token,\n        uint256 oldSlippage,\n        uint256 newSlippage\n    );\n    event TransferGovernance(address oldAddr, address newAddr);\n\n    modifier onlyGovernance() {\n        require(governance == msg.sender, \"not governace\");\n        _;\n    }\n\n    enum DEX_TYPE {\n        UNISWAPV3,\n        CURVE\n    }\n\n    constructor(\n        address _wETH,\n        address[] memory _tokens,\n        address[] memory _uniPools,\n        address[] memory _curvePools,\n        uint8[] memory _curvePoolTypes,\n        uint256[] memory _slippages,\n        uint24[] memory _fees\n    ) {\n        uint256 length = _tokens.length;\n        require(\n            length == _uniPools.length &&\n                length == _curvePools.length &&\n                length == _curvePoolTypes.length,\n            \"invalid length\"\n        );\n\n        require(_wETH != address(0), \"ZERO ADDRESS\");\n\n        for (uint256 i; i < length; i++) {\n            require(\n                _tokens[i] != address(0) &&\n                    _uniPools[i] != address(0) &&\n                    _curvePools[i] != address(0),\n                \"ZERO ADDRESS\"\n            );\n\n            uniV3Pools[_tokens[i]] = _uniPools[i];\n            curvePools[_tokens[i]] = _curvePools[i];\n            curvePoolType[_curvePools[i]] = _curvePoolTypes[i];\n            slippage[_tokens[i]] = _slippages[i];\n            fees[_tokens[i]] = _fees[i];\n        }\n\n        governance = msg.sender;\n\n        WETH9 = _wETH;\n    }\n\n    function swap(\n        address _token,\n        uint256 _amount,\n        bool _isSell\n    ) external payable returns (uint256 amount) {\n        if (\n            uniV3Pools[_token] == address(0) && curvePools[_token] == address(0)\n        ) {\n            return 0;\n        }\n\n        (DEX_TYPE dex, uint256 expected) = getBestRouter(\n            _token,\n            _amount,\n            _isSell\n        );\n        if (!_isSell) {\n            require(_amount == msg.value, \"wrong value\");\n        }\n        if (expected == 0) {\n            return 0;\n        }\n        if (dex == DEX_TYPE.UNISWAPV3) {\n            amount = swapOnUniV3(_token, _amount, _isSell);\n        } else {\n            amount = swapOnCurve(_token, _amount, _isSell);\n        }\n    }\n\n    function swapOnUniV3(\n        address _token,\n        uint256 _amount,\n        bool _isSell\n    ) internal nonReentrant returns (uint256 amount) {\n        uint256 minReceived = calMinimumReceivedAmount(\n            _amount,\n            slippage[_token]\n        );\n\n        address pool = uniV3Pools[_token];\n        if (_isSell) {\n            TransferHelper.safeTransferFrom(\n                _token,\n                msg.sender,\n                address(this),\n                _amount\n            );\n            TransferHelper.safeApprove(_token, ROUTER, _amount);\n\n            ISwapRouter.ExactInputSingleParams memory params = ISwapRouter\n                .ExactInputSingleParams({\n                    tokenIn: _token,\n                    tokenOut: WETH9,\n                    fee: fees[_token],\n                    recipient: address(this),\n                    deadline: block.timestamp,\n                    amountIn: _amount,\n                    amountOutMinimum: minReceived,\n                    sqrtPriceLimitX96: 0\n                });\n\n            amount = ISwapRouter(ROUTER).exactInputSingle(params);\n\n            IWETH9(WETH9).withdraw(amount);\n\n            TransferHelper.safeTransferETH(msg.sender, address(this).balance);\n        } else {\n            IWETH9(WETH9).deposit{value: msg.value}();\n\n            TransferHelper.safeApprove(\n                WETH9,\n                ROUTER,\n                IWETH9(WETH9).balanceOf(address(this))\n            );\n\n            ISwapRouter.ExactInputSingleParams memory params = ISwapRouter\n                .ExactInputSingleParams({\n                    tokenIn: WETH9,\n                    tokenOut: _token,\n                    fee: fees[_token],\n                    recipient: address(this),\n                    deadline: block.timestamp,\n                    amountIn: _amount,\n                    amountOutMinimum: minReceived,\n                    sqrtPriceLimitX96: 0\n                });\n\n            amount = ISwapRouter(ROUTER).exactInputSingle(params);\n\n            TransferHelper.safeTransfer(\n                _token,\n                msg.sender,\n                IERC20(_token).balanceOf(address(this))\n            );\n        }\n    }\n\n    function swapOnCurve(\n        address _token,\n        uint256 _amount,\n        bool _isSell\n    ) internal nonReentrant returns (uint256 amount) {\n        uint256 minReceived = calMinimumReceivedAmount(\n            _amount,\n            slippage[_token]\n        );\n\n        address pool = curvePools[_token];\n        (uint256 e, uint256 t, bool wrapped) = getCurveCoinIndex(_token);\n\n        uint8 poolType = curvePoolType[pool];\n\n        if (_isSell) {\n            TransferHelper.safeTransferFrom(\n                _token,\n                msg.sender,\n                address(this),\n                _amount\n            );\n            TransferHelper.safeApprove(_token, pool, _amount);\n\n            if (poolType == 0) {\n                amount = IStableSwap(pool).exchange(\n                    int128(int256(t)),\n                    int128(int256(e)),\n                    _amount,\n                    minReceived\n                );\n            } else {\n                amount = IStableSwap(pool).exchange(t, e, _amount, minReceived);\n            }\n\n            if (wrapped) {\n                IWETH9 weth = IWETH9(WETH9);\n                weth.withdraw(weth.balanceOf(address(this)));\n            }\n\n            TransferHelper.safeTransferETH(msg.sender, address(this).balance);\n        } else {\n            if (poolType == 0) {\n                if (!wrapped) {\n                    amount = IStableSwap(pool).exchange{value: _amount}(\n                        int128(int256(e)),\n                        int128(int256(t)),\n                        _amount,\n                        minReceived\n                    );\n                } else {\n                    IWETH9 weth = IWETH9(WETH9);\n                    weth.deposit{value: _amount}();\n                    weth.approve(pool, _amount);\n\n                    amount = IStableSwap(pool).exchange(\n                        int128(int256(e)),\n                        int128(int256(t)),\n                        _amount,\n                        minReceived\n                    );\n                }\n            } else {\n                if (!wrapped) {\n                    amount = IStableSwap(pool).exchange{value: _amount}(\n                        e,\n                        t,\n                        _amount,\n                        minReceived\n                    );\n                } else {\n                    IWETH9 weth = IWETH9(WETH9);\n                    weth.deposit{value: _amount}();\n                    weth.approve(pool, _amount);\n\n                    amount = IStableSwap(pool).exchange(\n                        e,\n                        t,\n                        _amount,\n                        minReceived\n                    );\n                }\n            }\n\n            TransferHelper.safeTransfer(\n                _token,\n                msg.sender,\n                IERC20(_token).balanceOf(address(this))\n            );\n        }\n    }\n\n    function getBestRouter(\n        address _token,\n        uint256 _amount,\n        bool _isSell\n    ) public returns (DEX_TYPE dex, uint256 out) {\n        uint256 uniV3Out = getUniV3Out(_token, _amount, _isSell);\n        uint256 curveOut = getCurveOut(_token, _amount, _isSell);\n\n        return\n            uniV3Out > curveOut\n                ? (DEX_TYPE.UNISWAPV3, uniV3Out)\n                : (DEX_TYPE.CURVE, curveOut);\n    }\n\n    function getUniV3Out(\n        address _token,\n        uint256 _amount,\n        bool _isSell\n    ) public returns (uint256 out) {\n        if (uniV3Pools[_token] == address(0)) {\n            return 0;\n        }\n\n        if (_isSell) {\n            out = IQuoter(QUOTER).quoteExactInputSingle(\n                _token,\n                WETH9,\n                fees[_token],\n                _amount,\n                0\n            );\n        } else {\n            out = IQuoter(QUOTER).quoteExactInputSingle(\n                WETH9,\n                _token,\n                fees[_token],\n                _amount,\n                0\n            );\n        }\n    }\n\n    function getCurveOut(\n        address _token,\n        uint256 _amount,\n        bool _isSell\n    ) public returns (uint256 out) {\n        address poolAddr = curvePools[_token];\n\n        if (poolAddr == address(0)) {\n            return 0;\n        }\n\n        (uint256 e, uint256 t, ) = getCurveCoinIndex(_token);\n\n        IStableSwap pool = IStableSwap(poolAddr);\n        uint8 poolType = curvePoolType[poolAddr];\n        if (_isSell) {\n            if (poolType == 0) {\n                out = pool.get_dy(\n                    int128(int256(t)),\n                    int128(int256(e)),\n                    _amount\n                );\n            } else {\n                out = pool.get_dy(t, e, _amount);\n            }\n        } else {\n            if (poolType == 0) {\n                out = pool.get_dy(\n                    int128(int256(e)),\n                    int128(int256(t)),\n                    _amount\n                );\n            } else {\n                out = pool.get_dy(e, t, _amount);\n            }\n        }\n    }\n\n    function getCurveCoinIndex(\n        address _token\n    ) public view returns (uint256 i, uint256 j, bool wrapped) {\n        // i for Ether, j for another token\n        IStableSwap pool = IStableSwap(curvePools[_token]);\n\n        if (pool.coins(0) == WETH9 || pool.coins(1) == WETH9) {\n            wrapped = true;\n        }\n\n        if (pool.coins(0) == CURVE_ETH || pool.coins(0) == WETH9) {\n            i = 0;\n            j = 1;\n        } else {\n            i = 1;\n            j = 0;\n        }\n    }\n\n    function calMinimumReceivedAmount(\n        uint256 _amount,\n        uint256 _slippage\n    ) internal view returns (uint256 amount) {\n        amount = (_amount * _slippage) / ONE_HUNDRED_PERCENT;\n    }\n\n    function setSlippage(\n        address _token,\n        uint256 _slippage\n    ) external onlyGovernance {\n        emit SetSlippage(_token, slippage[_token], _slippage);\n\n        slippage[_token] = _slippage;\n    }\n\n    function setUniRouter(\n        address _token,\n        address _uniPool,\n        uint256 _slippage,\n        uint24 _fee\n    ) external onlyGovernance {\n        require(_token != address(0), \"ZERO ADDRESS\");\n\n        uniV3Pools[_token] = _uniPool;\n        slippage[_token] = _slippage;\n        fees[_token] = _fee;\n    }\n\n    function setCurveRouter(\n        address _token,\n        address _curvePool,\n        uint8 _curvePoolType,\n        uint256 _slippage\n    ) external onlyGovernance {\n        require(_token != address(0), \"ZERO ADDRESS\");\n\n        curvePools[_token] = _curvePool;\n        curvePoolType[_curvePool] = _curvePoolType;\n        slippage[_token] = _slippage;\n    }\n\n    function setNewGovernance(address _governance) external onlyGovernance {\n        emit TransferGovernance(governance, _governance);\n\n        governance = _governance;\n    }\n\n    receive() external payable {}\n}\n",
  "sourcePath": "/Users/mingyuzhang/Downloads/stone-vault-v1/contracts/strategies/SwappingAggregator.sol",
  "compiler": {
    "name": "solc",
    "version": "0.8.21+commit.d9974bed.Emscripten.clang"
  },
  "schemaVersion": "3.4.16",
  "updatedAt": "2024-06-07T05:41:32.645Z",
  "devdoc": {
    "kind": "dev",
    "methods": {},
    "version": 1
  },
  "userdoc": {
    "kind": "user",
    "methods": {},
    "version": 1
  }
}